{
  "address": "0x5bc6BEf80DA563EBf6Df6D6913513fa9A7ec89BE",
  "abi": [
    {
      "inputs": [
        {
          "internalType": "contract ICore",
          "name": "_accessControlManager",
          "type": "address"
        }
      ],
      "stateMutability": "nonpayable",
      "type": "constructor"
    },
    {
      "inputs": [],
      "name": "InvalidParams",
      "type": "error"
    },
    {
      "inputs": [],
      "name": "NotGovernorOrGuardian",
      "type": "error"
    },
    {
      "inputs": [],
      "name": "ZeroAddress",
      "type": "error"
    },
    {
      "anonymous": false,
      "inputs": [
        {
          "indexed": true,
          "internalType": "address",
          "name": "gauge",
          "type": "address"
        }
      ],
      "name": "GaugeSet",
      "type": "event"
    },
    {
      "inputs": [],
      "name": "accessControlManager",
      "outputs": [
        {
          "internalType": "contract ICore",
          "name": "",
          "type": "address"
        }
      ],
      "stateMutability": "view",
      "type": "function"
    },
    {
      "inputs": [],
      "name": "angle",
      "outputs": [
        {
          "internalType": "contract IERC20",
          "name": "",
          "type": "address"
        }
      ],
      "stateMutability": "pure",
      "type": "function"
    },
    {
      "inputs": [
        {
          "internalType": "address",
          "name": "",
          "type": "address"
        }
      ],
      "name": "gaugeParams",
      "outputs": [
        {
          "internalType": "bytes32",
          "name": "rewardId",
          "type": "bytes32"
        },
        {
          "internalType": "address",
          "name": "uniV3Pool",
          "type": "address"
        },
        {
          "internalType": "address",
          "name": "rewardToken",
          "type": "address"
        },
        {
          "internalType": "uint256",
          "name": "amount",
          "type": "uint256"
        },
        {
          "internalType": "uint32",
          "name": "propToken0",
          "type": "uint32"
        },
        {
          "internalType": "uint32",
          "name": "propToken1",
          "type": "uint32"
        },
        {
          "internalType": "uint32",
          "name": "propFees",
          "type": "uint32"
        },
        {
          "internalType": "uint32",
          "name": "epochStart",
          "type": "uint32"
        },
        {
          "internalType": "uint32",
          "name": "numEpoch",
          "type": "uint32"
        },
        {
          "internalType": "uint32",
          "name": "isOutOfRangeIncentivized",
          "type": "uint32"
        },
        {
          "internalType": "uint32",
          "name": "boostedReward",
          "type": "uint32"
        },
        {
          "internalType": "address",
          "name": "boostingAddress",
          "type": "address"
        },
        {
          "internalType": "bytes",
          "name": "additionalData",
          "type": "bytes"
        }
      ],
      "stateMutability": "view",
      "type": "function"
    },
    {
      "inputs": [],
      "name": "merklDistributionCreator",
      "outputs": [
        {
          "internalType": "contract DistributionCreator",
          "name": "",
          "type": "address"
        }
      ],
      "stateMutability": "view",
      "type": "function"
    },
    {
      "inputs": [
        {
          "internalType": "address",
          "name": "gauge",
          "type": "address"
        },
        {
          "internalType": "uint256",
          "name": "amount",
          "type": "uint256"
        }
      ],
      "name": "notifyReward",
      "outputs": [],
      "stateMutability": "nonpayable",
      "type": "function"
    },
    {
      "inputs": [
        {
          "internalType": "address",
          "name": "gauge",
          "type": "address"
        },
        {
          "internalType": "uint256",
          "name": "amount",
          "type": "uint256"
        }
      ],
      "name": "notifyRewardWithTransfer",
      "outputs": [],
      "stateMutability": "nonpayable",
      "type": "function"
    },
    {
      "inputs": [],
      "name": "setAngleAllowance",
      "outputs": [],
      "stateMutability": "nonpayable",
      "type": "function"
    },
    {
      "inputs": [
        {
          "internalType": "address",
          "name": "gauge",
          "type": "address"
        },
        {
          "components": [
            {
              "internalType": "bytes32",
              "name": "rewardId",
              "type": "bytes32"
            },
            {
              "internalType": "address",
              "name": "uniV3Pool",
              "type": "address"
            },
            {
              "internalType": "address",
              "name": "rewardToken",
              "type": "address"
            },
            {
              "internalType": "uint256",
              "name": "amount",
              "type": "uint256"
            },
            {
              "internalType": "address[]",
              "name": "positionWrappers",
              "type": "address[]"
            },
            {
              "internalType": "uint32[]",
              "name": "wrapperTypes",
              "type": "uint32[]"
            },
            {
              "internalType": "uint32",
              "name": "propToken0",
              "type": "uint32"
            },
            {
              "internalType": "uint32",
              "name": "propToken1",
              "type": "uint32"
            },
            {
              "internalType": "uint32",
              "name": "propFees",
              "type": "uint32"
            },
            {
              "internalType": "uint32",
              "name": "epochStart",
              "type": "uint32"
            },
            {
              "internalType": "uint32",
              "name": "numEpoch",
              "type": "uint32"
            },
            {
              "internalType": "uint32",
              "name": "isOutOfRangeIncentivized",
              "type": "uint32"
            },
            {
              "internalType": "uint32",
              "name": "boostedReward",
              "type": "uint32"
            },
            {
              "internalType": "address",
              "name": "boostingAddress",
              "type": "address"
            },
            {
              "internalType": "bytes",
              "name": "additionalData",
              "type": "bytes"
            }
          ],
          "internalType": "struct DistributionParameters",
          "name": "params",
          "type": "tuple"
        }
      ],
      "name": "setGauge",
      "outputs": [],
      "stateMutability": "nonpayable",
      "type": "function"
    }
  ],
  "transactionHash": "0x44ebdbb3e81b056a6af6c81279bc7b16962c1fb0a84794dda4d8566077aefe5a",
  "args": [
    "0x9418D0aa02fCE40804aBF77bb81a1CcBeB91eaFC"
  ],
  "numDeployments": 1,
  "solcInputHash": "09a64aadfc29dca5f4182c701c6375fd",
  "bytecode": "0x608060409080825234620002ce5780620022ae8038038091620000238285620002d3565b8339602092839181010312620002ce57516001600160a01b0381169190829003620002ce578115620002bd5760009160018060a01b0319835416178255825190636eb1769f60e11b82526004923084840152738bb4c975ff3c250e0ceea271728547f3802b36fd602493818582015273900f717ea076e1e7a484ad9dd2db81ceec60ebf18482604481845afa918215620002b35784926200027a575b50600019820180921162000268578751918583019363095ea7b360e01b855287840152604483015260448252608082019260018060401b039280851084861117620002565760c081018581108582111762000244578a528685527f5361666545524332303a206c6f772d6c6576656c2063616c6c206661696c656460a082015251859283929083905af13d1562000234573d9182116200022257906200018692918851916200017887601f19601f8401160184620002d3565b82523d858784013e6200030d565b8051806200019e575b8651611eb59081620003f98239f35b818491810103126200021e57820151908115918215036200021b5750620001c8578080806200018f565b90602a91608494519362461bcd60e51b85528401528201527f5361666545524332303a204552433230206f7065726174696f6e20646964206e6044820152691bdd081cdd58d8d9595960b21b6064820152fd5b80fd5b5080fd5b634e487b7160e01b8452604187528584fd5b620001869291506060906200030d565b634e487b7160e01b875260418a528887fd5b634e487b7160e01b8652604189528786fd5b634e487b7160e01b8452601187528584fd5b9091508481813d8311620002ab575b620002958183620002d3565b81010312620002a757519038620000bf565b8380fd5b503d62000289565b88513d86823e3d90fd5b825163d92e233d60e01b8152600490fd5b600080fd5b601f909101601f19168101906001600160401b03821190821017620002f757604052565b634e487b7160e01b600052604160045260246000fd5b90919015620003865750805115620003225790565b73900f717ea076e1e7a484ad9dd2db81ceec60ebf13b15620003415790565b60405162461bcd60e51b815260206004820152601d60248201527f416464726573733a2063616c6c20746f206e6f6e2d636f6e74726163740000006044820152606490fd5b815115620003975750805190602001fd5b6040519062461bcd60e51b82528160208060048301528251908160248401526000935b828510620003de575050604492506000838284010152601f80199101168101030190fd5b8481018201518686016044015293810193859350620003ba56fe6080604052600436101561001257600080fd5b60003560e01c8063031ccdda146110f05780630ee60494146110a3578063154eb20914610e9d5780631df2f4e014610232578063230cfbc41461015d5780639b79c20414610110578063b4a0bdf3146100be5763e32471801461007457600080fd5b346100b95760407ffffffffffffffffffffffffffffffffffffffffffffffffffffffffffffffffc3601126100b9576100b76100ae611204565b60243590611701565b005b600080fd5b346100b95760007ffffffffffffffffffffffffffffffffffffffffffffffffffffffffffffffffc3601126100b957602073ffffffffffffffffffffffffffffffffffffffff60005416604051908152f35b346100b95760007ffffffffffffffffffffffffffffffffffffffffffffffffffffffffffffffffc3601126100b957602060405173900f717ea076e1e7a484ad9dd2db81ceec60ebf18152f35b346100b95760407ffffffffffffffffffffffffffffffffffffffffffffffffffffffffffffffffc3601126100b957610194611204565b602435604051917f23b872dd0000000000000000000000000000000000000000000000000000000060208401523360248401523060448401528160648401526064835260a0830183811067ffffffffffffffff821117610203576100b7936101fe91604052611496565b611701565b7f4e487b7100000000000000000000000000000000000000000000000000000000600052604160045260246000fd5b346100b9577ffffffffffffffffffffffffffffffffffffffffffffffffffffffffffffffffc6040813601126100b95761026a611204565b60243567ffffffffffffffff81116100b9576101e0809382360301126100b95760405192830183811067ffffffffffffffff82111761020357604052806004013583526102b960248201611227565b60208401526102ca60448201611227565b604084015260648101356060840152608481013567ffffffffffffffff81116100b9578101366023820112156100b9576004810135906103098261141b565b9161031760405193846112b7565b8083526024602084019160051b830101913683116100b957602401905b828210610e8557505050608084015260a481013567ffffffffffffffff81116100b9578101366023820112156100b9576004810135906103738261141b565b9161038160405193846112b7565b8083526024602084019160051b830101913683116100b957602401905b828210610e6d5750505060a08401526103b960c48201611433565b60c08401526103ca60e48201611433565b60e08401526103dc6101048201611433565b6101008401526103ef6101248201611433565b6101208401526104026101448201611433565b6101408401526104156101648201611433565b6101608401526104286101848201611433565b61018084015261043b6101a48201611227565b6101a08401526101c48101359067ffffffffffffffff82116100b9573660238383010112156100b95761047360048383010135611444565b9161048160405193846112b7565b8181016004810135808552369101602401116100b957600481838260209460009601013560248383010185880137010135830101526101c08301526024602073ffffffffffffffffffffffffffffffffffffffff60005416604051928380927f521d4de90000000000000000000000000000000000000000000000000000000082523360048301525afa908115610d5057600091610e3e575b5015610e145773ffffffffffffffffffffffffffffffffffffffff8116158015610ddc575b8015610b7d575b610b535773ffffffffffffffffffffffffffffffffffffffff8116600052600160205260406000208251815573ffffffffffffffffffffffffffffffffffffffff6020840151167fffffffffffffffffffffffff00000000000000000000000000000000000000006001830154161760018201556002810173ffffffffffffffffffffffffffffffffffffffff6040850151167fffffffffffffffffffffffff000000000000000000000000000000000000000082541617905560608301516003820155608083015180519067ffffffffffffffff821161020357680100000000000000008211610203576020906004840154836004860155808410610b33575b500160048301600052602060002060005b838110610b09575050505060a0830151805167ffffffffffffffff81116102035768010000000000000000811161020357602060058401928354838555808410610a9b575b50019160005260206000209060005b8160031c8110610a4c57507ffffffffffffffffffffffffffffffffffffffffffffffffffffffffffffffff8811681036109d3575b50505060088160066101c0930163ffffffff60c0870151168682549167ffffffff0000000060e083015160201b166bffffffff000000000000000061010084015160401b166fffffffff00000000000000000000000061012085015160601b169173ffffffff0000000000000000000000000000000061014086015160801b16937fffffffff000000000000000000000000000000000000000000000000000000007bffffffff00000000000000000000000000000000000000000000000061018077ffffffff00000000000000000000000000000000000000006101608a015160a01b1698015160c01b1697161717171717171790556007810173ffffffffffffffffffffffffffffffffffffffff6101a0870151167fffffffffffffffffffffffff0000000000000000000000000000000000000000825416179055019201519182519267ffffffffffffffff8411610203576108408254611248565b601f8111610996575b50602090601f85116001146108dd5773ffffffffffffffffffffffffffffffffffffffff9491600091836108d2575b50507fffffffffffffffffffffffffffffffffffffffffffffffffffffffffffffffff8260011b9260031b1c19161790555b167fb947d28129d3b40272a411eeee3a2842c6335a0f0269abf492e8c20218bf02b0600080a2005b015190508580610878565b907fffffffffffffffffffffffffffffffffffffffffffffffffffffffffffffffe08516918360005260206000209260005b81811061097e575091600193918773ffffffffffffffffffffffffffffffffffffffff989410610947575b505050811b0190556108aa565b01517fffffffffffffffffffffffffffffffffffffffffffffffffffffffffffffffff60f88460031b161c1916905585808061093a565b9293602060018192878601518155019501930161090f565b6109c390836000526020600020601f870160051c810191602088106109c9575b601f0160051c01906116ea565b84610849565b90915081906109b6565b60009260005b7ffffffffffffffffffffffffffffffffffffffffffffffffffffffffffffffff8831683038110610a1657505060031c015560086101c0856106e1565b90936020610a4360019263ffffffff885116908560021b60031b63ffffffff811b9283911b169119161790565b950191016109d9565b6000805b60088110610a655750838201556001016106ac565b94906020610a9260019263ffffffff855116908960021b60031b63ffffffff811b9283911b169119161790565b92019501610a50565b610acb908560005283600020600780870160031c820192601c8860021b1680610ad1575b500160031c01906116ea565b8761069d565b7fffffffffffffffffffffffffffffffffffffffffffffffffffffffffffffffff90818601918254918a0360031b1c1690558c610abf565b600190602073ffffffffffffffffffffffffffffffffffffffff8551169401938184015501610658565b610b4d9060048601600052848460002091820191016116ea565b86610647565b60046040517fa86b6512000000000000000000000000000000000000000000000000000000008152fd5b506004602073ffffffffffffffffffffffffffffffffffffffff8185015116604051928380927f0dfe16810000000000000000000000000000000000000000000000000000000082525afa908115610d5057600091610dbd575b5073ffffffffffffffffffffffffffffffffffffffff604051917fab37f486000000000000000000000000000000000000000000000000000000008352166004820152602081602481738bb4c975ff3c250e0ceea271728547f3802b36fd5afa908115610d5057600091610d8b575b5015801561054657506004602073ffffffffffffffffffffffffffffffffffffffff8185015116604051928380927fd21220a70000000000000000000000000000000000000000000000000000000082525afa908115610d5057600091610d5c575b5073ffffffffffffffffffffffffffffffffffffffff604051917fab37f486000000000000000000000000000000000000000000000000000000008352166004820152602081602481738bb4c975ff3c250e0ceea271728547f3802b36fd5afa908115610d5057600091610d1e575b5015610546565b90506020813d602011610d48575b81610d39602093836112b7565b810103126100b9575183610d17565b3d9150610d2c565b6040513d6000823e3d90fd5b610d7e915060203d602011610d84575b610d7681836112b7565b8101906116be565b83610ca8565b503d610d6c565b90506020813d602011610db5575b81610da6602093836112b7565b810103126100b9575183610c46565b3d9150610d99565b610dd6915060203d602011610d8457610d7681836112b7565b83610bd7565b5073900f717ea076e1e7a484ad9dd2db81ceec60ebf173ffffffffffffffffffffffffffffffffffffffff604084015116141561053f565b60046040517f99e120bc000000000000000000000000000000000000000000000000000000008152fd5b610e60915060203d602011610e66575b610e5881836112b7565b81019061147e565b8361051a565b503d610e4e565b60208091610e7a84611433565b81520191019061039e565b60208091610e9284611227565b815201910190610334565b346100b95760007ffffffffffffffffffffffffffffffffffffffffffffffffffffffffffffffffc3601126100b9576040517fdd62ed3e00000000000000000000000000000000000000000000000000000000808252306004830152738bb4c975ff3c250e0ceea271728547f3802b36fd602483015273900f717ea076e1e7a484ad9dd2db81ceec60ebf1916020918282604481875afa918215610d5057600092611074575b507fffffffffffffffffffffffffffffffffffffffffffffffffffffffffffffffff8210610f6d57005b604051908152306004820152738bb4c975ff3c250e0ceea271728547f3802b36fd6024820152928290849060449082905afa928315610d5057600093611045575b50198201809211611016576100b7917f095ea7b30000000000000000000000000000000000000000000000000000000060405192830152738bb4c975ff3c250e0ceea271728547f3802b36fd60248301526044820152604481526110118161129b565b611496565b7f4e487b7100000000000000000000000000000000000000000000000000000000600052601160045260246000fd5b9092508181813d831161106d575b61105d81836112b7565b810103126100b957519183610fae565b503d611053565b9091508281813d831161109c575b61108c81836112b7565b810103126100b957519084610f43565b503d611082565b346100b95760007ffffffffffffffffffffffffffffffffffffffffffffffffffffffffffffffffc3601126100b9576020604051738bb4c975ff3c250e0ceea271728547f3802b36fd8152f35b346100b95760207ffffffffffffffffffffffffffffffffffffffffffffffffffffffffffffffffc3601126100b95773ffffffffffffffffffffffffffffffffffffffff8061113d611204565b16600052600160205260406000209061120082549180600185015416938160028201541691600382015461117f600860068501549360078601541694016112f8565b93604051978897885260208801526040870152606086015263ffffffff908181166080870152818160201c1660a0870152818160401c1660c0870152818160601c1660e0870152818160801c16610100870152818160a01c1661012087015260c01c166101408501526101608401526101a0806101808501528301906113bd565b0390f35b6004359073ffffffffffffffffffffffffffffffffffffffff821682036100b957565b359073ffffffffffffffffffffffffffffffffffffffff821682036100b957565b90600182811c92168015611291575b602083101461126257565b7f4e487b7100000000000000000000000000000000000000000000000000000000600052602260045260246000fd5b91607f1691611257565b6080810190811067ffffffffffffffff82111761020357604052565b90601f7fffffffffffffffffffffffffffffffffffffffffffffffffffffffffffffffe0910116810190811067ffffffffffffffff82111761020357604052565b906040519182600082549261130c84611248565b90818452600194858116908160001461137b5750600114611338575b5050611336925003836112b7565b565b9093915060005260209081600020936000915b81831061136357505061133693508201013880611328565b8554888401850152948501948794509183019161134b565b90506113369550602093507fffffffffffffffffffffffffffffffffffffffffffffffffffffffffffffff0091501682840152151560051b8201013880611328565b919082519283825260005b8481106114075750507fffffffffffffffffffffffffffffffffffffffffffffffffffffffffffffffe0601f8460006020809697860101520116010190565b6020818301810151848301820152016113c8565b67ffffffffffffffff81116102035760051b60200190565b359063ffffffff821682036100b957565b67ffffffffffffffff811161020357601f017fffffffffffffffffffffffffffffffffffffffffffffffffffffffffffffffe01660200190565b908160209103126100b9575180151581036100b95790565b604051604081019080821067ffffffffffffffff83111761020357611530916040526000806020948584527f5361666545524332303a206c6f772d6c6576656c2063616c6c206661696c65648685015285815191018273900f717ea076e1e7a484ad9dd2db81ceec60ebf15af13d156115d9573d9061151482611444565b9161152260405193846112b7565b82523d60008684013e6115dd565b8051908161153d57505050565b828061154d93830101910161147e565b156115555750565b608490604051907f08c379a00000000000000000000000000000000000000000000000000000000082526004820152602a60248201527f5361666545524332303a204552433230206f7065726174696f6e20646964206e60448201527f6f742073756363656564000000000000000000000000000000000000000000006064820152fd5b6060905b9091901561166c57508051156115f05790565b73900f717ea076e1e7a484ad9dd2db81ceec60ebf13b1561160e5790565b60646040517f08c379a000000000000000000000000000000000000000000000000000000000815260206004820152601d60248201527f416464726573733a2063616c6c20746f206e6f6e2d636f6e74726163740000006044820152fd5b81511561167c5750805190602001fd5b6116ba906040519182917f08c379a00000000000000000000000000000000000000000000000000000000083526020600484015260248301906113bd565b0390fd5b908160209103126100b9575173ffffffffffffffffffffffffffffffffffffffff811681036100b95790565b8181106116f5575050565b600081556001016116ea565b73ffffffffffffffffffffffffffffffffffffffff166000526001602052604060002090604051916101e0830183811067ffffffffffffffff821117610203576040528054835273ffffffffffffffffffffffffffffffffffffffff600182015416602084015273ffffffffffffffffffffffffffffffffffffffff600282015416604084015260038101546060840152600481016040518082602082945493848152019060005260206000209260005b818110611e505750506117c7925003826112b7565b6080840152600581016040519081602082549182815201916000526020600020906000915b816007840110611de557936118d09593819361184d936008975491818110611dce575b818110611db5575b818110611d9b575b818110611d81575b818110611d67575b818110611d4d575b818110611d33575b10611d25575b5003826112b7565b60a086015263ffffffff600682015481811660c0880152818160201c1660e0880152818160401c16610100880152818160601c16610120880152818160801c16610140880152818160a01c1661016088015260c01c1661018086015273ffffffffffffffffffffffffffffffffffffffff6007820154166101a0860152016112f8565b6101c083015273ffffffffffffffffffffffffffffffffffffffff60208301511615610b53578015611c94575b63ffffffff421661012083015280606083015280611919575050565b6040517f2acd7ec400000000000000000000000000000000000000000000000000000000815273900f717ea076e1e7a484ad9dd2db81ceec60ebf16004820152602081602481738bb4c975ff3c250e0ceea271728547f3802b36fd5afa908115610d5057600091611c62575b5063ffffffff610140840151169080828102048214811517156110165702811115611c1b5750604051907fb9d81abc000000000000000000000000000000000000000000000000000000008252602060048301528161020481018251602483015273ffffffffffffffffffffffffffffffffffffffff602084015116604483015273ffffffffffffffffffffffffffffffffffffffff6040840151166064830152606083015160848301526080830151906101e060a484015281518091526020610224840192019060005b818110611bec5750505060a0830151907fffffffffffffffffffffffffffffffffffffffffffffffffffffffffffffffdc8382030160c48401526020808351928381520192019060005b818110611bcd57505050611b7e82916101c08563ffffffff60c060209801511660e486015263ffffffff60e08201511661010486015263ffffffff6101008201511661012486015263ffffffff6101208201511661014486015263ffffffff6101408201511661016486015263ffffffff6101608201511661018486015263ffffffff610180820151166101a486015273ffffffffffffffffffffffffffffffffffffffff6101a0820151166101c486015201517fffffffffffffffffffffffffffffffffffffffffffffffffffffffffffffffdc848303016101e48501526113bd565b03816000738bb4c975ff3c250e0ceea271728547f3802b36fd5af18015610d5057611ba65750565b602090813d8311611bc6575b611bbc81836112b7565b810103126100b957565b503d611bb2565b825163ffffffff16845286945060209384019390920191600101611a9a565b825173ffffffffffffffffffffffffffffffffffffffff16845286945060209384019390920191600101611a50565b6113369150604051907fa9059cbb0000000000000000000000000000000000000000000000000000000060208301523360248301526044820152604481526110118161129b565b90506020813d602011611c8c575b81611c7d602093836112b7565b810103126100b9575138611985565b3d9150611c70565b506040517f70a0823100000000000000000000000000000000000000000000000000000000815230600482015260208160248173900f717ea076e1e7a484ad9dd2db81ceec60ebf15afa908115610d5057600091611cf3575b506118fd565b90506020813d602011611d1d575b81611d0e602093836112b7565b810103126100b9575138611ced565b3d9150611d01565b60e01c815260200138611845565b92602060019163ffffffff8560c01c16815201930161183f565b92602060019163ffffffff8560a01c168152019301611837565b92602060019163ffffffff8560801c16815201930161182f565b92602060019163ffffffff8560601c168152019301611827565b92602060019163ffffffff8560401c16815201930161181f565b92602060019163ffffffff85831c168152019301611817565b92602060019163ffffffff8516815201930161180f565b926001610100600892865463ffffffff8082168352808260201c166020840152808260401c166040840152808260601c166060840152808260801c16608084015260a08183821c169084015260c09082821c169083015260e090811c908201520194019201916117ec565b845473ffffffffffffffffffffffffffffffffffffffff168352600194850194869450602090930192016117b256fea26469706673582212208d99a225d8edaaafa5d9032f5cc78e89bc1ebe886976815051cd3884e078252464736f6c63430008110033",
  "devdoc": {
    "author": "Angle Labs, Inc.",
    "kind": "dev",
    "methods": {
      "merklDistributionCreator()": {
        "details": "Address is the same across the different chains on which it is deployed"
      },
      "notifyReward(address,uint256)": {
        "details": "Callable by any contractThis method can be used to recover leftover ANGLE tokens in the contract"
      }
    },
    "title": "MerklGaugeMiddlemanPolygon",
    "version": 1
  },
  "userdoc": {
    "kind": "user",
    "methods": {
      "accessControlManager()": {
        "notice": "Contract handling access control"
      },
      "angle()": {
        "notice": "Address of the ANGLE token"
      },
      "gaugeParams(address)": {
        "notice": "Maps a gauge to its reward parameters"
      },
      "merklDistributionCreator()": {
        "notice": "Address of the Merkl contract managing rewards to be distributed"
      },
      "notifyReward(address,uint256)": {
        "notice": "Transmits rewards from the `AngleDistributor` to the `DistributionCreator` with the correct parameters"
      },
      "notifyRewardWithTransfer(address,uint256)": {
        "notice": "Fetches tokens and transmits rewards in the same transaction"
      },
      "setAngleAllowance()": {
        "notice": "Restores the allowance for the ANGLE token to the `DistributionCreator` contract"
      },
      "setGauge(address,(bytes32,address,address,uint256,address[],uint32[],uint32,uint32,uint32,uint32,uint32,uint32,uint32,address,bytes))": {
        "notice": "Specifies the reward distribution parameters for `gauge`"
      }
    },
    "version": 1
  },
  "storageLayout": {
    "storage": [
      {
        "astId": 11485,
        "contract": "contracts/middleman/MerklGaugeMiddlemanPolygon.sol:MerklGaugeMiddlemanPolygon",
        "label": "accessControlManager",
        "offset": 0,
        "slot": "0",
        "type": "t_contract(ICore)11368"
      },
      {
        "astId": 11491,
        "contract": "contracts/middleman/MerklGaugeMiddlemanPolygon.sol:MerklGaugeMiddlemanPolygon",
        "label": "gaugeParams",
        "offset": 0,
        "slot": "1",
        "type": "t_mapping(t_address,t_struct(DistributionParameters)13685_storage)"
      }
    ],
    "types": {
      "t_address": {
        "encoding": "inplace",
        "label": "address",
        "numberOfBytes": "20"
      },
      "t_array(t_address)dyn_storage": {
        "base": "t_address",
        "encoding": "dynamic_array",
        "label": "address[]",
        "numberOfBytes": "32"
      },
      "t_array(t_uint32)dyn_storage": {
        "base": "t_uint32",
        "encoding": "dynamic_array",
        "label": "uint32[]",
        "numberOfBytes": "32"
      },
      "t_bytes32": {
        "encoding": "inplace",
        "label": "bytes32",
        "numberOfBytes": "32"
      },
      "t_bytes_storage": {
        "encoding": "bytes",
        "label": "bytes",
        "numberOfBytes": "32"
      },
      "t_contract(ICore)11368": {
        "encoding": "inplace",
        "label": "contract ICore",
        "numberOfBytes": "20"
      },
      "t_mapping(t_address,t_struct(DistributionParameters)13685_storage)": {
        "encoding": "mapping",
        "key": "t_address",
        "label": "mapping(address => struct DistributionParameters)",
        "numberOfBytes": "32",
        "value": "t_struct(DistributionParameters)13685_storage"
      },
      "t_struct(DistributionParameters)13685_storage": {
        "encoding": "inplace",
        "label": "struct DistributionParameters",
        "members": [
          {
            "astId": 13654,
            "contract": "contracts/middleman/MerklGaugeMiddlemanPolygon.sol:MerklGaugeMiddlemanPolygon",
            "label": "rewardId",
            "offset": 0,
            "slot": "0",
            "type": "t_bytes32"
          },
          {
            "astId": 13656,
            "contract": "contracts/middleman/MerklGaugeMiddlemanPolygon.sol:MerklGaugeMiddlemanPolygon",
            "label": "uniV3Pool",
            "offset": 0,
            "slot": "1",
            "type": "t_address"
          },
          {
            "astId": 13658,
            "contract": "contracts/middleman/MerklGaugeMiddlemanPolygon.sol:MerklGaugeMiddlemanPolygon",
            "label": "rewardToken",
            "offset": 0,
            "slot": "2",
            "type": "t_address"
          },
          {
            "astId": 13660,
            "contract": "contracts/middleman/MerklGaugeMiddlemanPolygon.sol:MerklGaugeMiddlemanPolygon",
            "label": "amount",
            "offset": 0,
            "slot": "3",
            "type": "t_uint256"
          },
          {
            "astId": 13663,
            "contract": "contracts/middleman/MerklGaugeMiddlemanPolygon.sol:MerklGaugeMiddlemanPolygon",
            "label": "positionWrappers",
            "offset": 0,
            "slot": "4",
            "type": "t_array(t_address)dyn_storage"
          },
          {
            "astId": 13666,
            "contract": "contracts/middleman/MerklGaugeMiddlemanPolygon.sol:MerklGaugeMiddlemanPolygon",
            "label": "wrapperTypes",
            "offset": 0,
            "slot": "5",
            "type": "t_array(t_uint32)dyn_storage"
          },
          {
            "astId": 13668,
            "contract": "contracts/middleman/MerklGaugeMiddlemanPolygon.sol:MerklGaugeMiddlemanPolygon",
            "label": "propToken0",
            "offset": 0,
            "slot": "6",
            "type": "t_uint32"
          },
          {
            "astId": 13670,
            "contract": "contracts/middleman/MerklGaugeMiddlemanPolygon.sol:MerklGaugeMiddlemanPolygon",
            "label": "propToken1",
            "offset": 4,
            "slot": "6",
            "type": "t_uint32"
          },
          {
            "astId": 13672,
            "contract": "contracts/middleman/MerklGaugeMiddlemanPolygon.sol:MerklGaugeMiddlemanPolygon",
            "label": "propFees",
            "offset": 8,
            "slot": "6",
            "type": "t_uint32"
          },
          {
            "astId": 13674,
            "contract": "contracts/middleman/MerklGaugeMiddlemanPolygon.sol:MerklGaugeMiddlemanPolygon",
            "label": "epochStart",
            "offset": 12,
            "slot": "6",
            "type": "t_uint32"
          },
          {
            "astId": 13676,
            "contract": "contracts/middleman/MerklGaugeMiddlemanPolygon.sol:MerklGaugeMiddlemanPolygon",
            "label": "numEpoch",
            "offset": 16,
            "slot": "6",
            "type": "t_uint32"
          },
          {
            "astId": 13678,
            "contract": "contracts/middleman/MerklGaugeMiddlemanPolygon.sol:MerklGaugeMiddlemanPolygon",
            "label": "isOutOfRangeIncentivized",
            "offset": 20,
            "slot": "6",
            "type": "t_uint32"
          },
          {
            "astId": 13680,
            "contract": "contracts/middleman/MerklGaugeMiddlemanPolygon.sol:MerklGaugeMiddlemanPolygon",
            "label": "boostedReward",
            "offset": 24,
            "slot": "6",
            "type": "t_uint32"
          },
          {
            "astId": 13682,
            "contract": "contracts/middleman/MerklGaugeMiddlemanPolygon.sol:MerklGaugeMiddlemanPolygon",
            "label": "boostingAddress",
            "offset": 0,
            "slot": "7",
            "type": "t_address"
          },
          {
            "astId": 13684,
            "contract": "contracts/middleman/MerklGaugeMiddlemanPolygon.sol:MerklGaugeMiddlemanPolygon",
            "label": "additionalData",
            "offset": 0,
            "slot": "8",
            "type": "t_bytes_storage"
          }
        ],
        "numberOfBytes": "288"
      },
      "t_uint256": {
        "encoding": "inplace",
        "label": "uint256",
        "numberOfBytes": "32"
      },
      "t_uint32": {
        "encoding": "inplace",
        "label": "uint32",
        "numberOfBytes": "4"
      }
    }
  }
}