{
  "address": "0xBB755240596530be0c1DE5DFD77ec6398471561d",
  "abi": [
    {
      "inputs": [
        {
          "internalType": "address",
          "name": "",
          "type": "address"
        }
      ],
      "name": "governors",
      "outputs": [
        {
          "internalType": "bool",
          "name": "",
          "type": "bool"
        }
      ],
      "stateMutability": "view",
      "type": "function"
    },
    {
      "inputs": [
        {
          "internalType": "address",
          "name": "",
          "type": "address"
        }
      ],
      "name": "guardians",
      "outputs": [
        {
          "internalType": "bool",
          "name": "",
          "type": "bool"
        }
      ],
      "stateMutability": "view",
      "type": "function"
    },
    {
      "inputs": [
        {
          "internalType": "address",
          "name": "admin",
          "type": "address"
        }
      ],
      "name": "isGovernor",
      "outputs": [
        {
          "internalType": "bool",
          "name": "",
          "type": "bool"
        }
      ],
      "stateMutability": "view",
      "type": "function"
    },
    {
      "inputs": [
        {
          "internalType": "address",
          "name": "admin",
          "type": "address"
        }
      ],
      "name": "isGovernorOrGuardian",
      "outputs": [
        {
          "internalType": "bool",
          "name": "",
          "type": "bool"
        }
      ],
      "stateMutability": "view",
      "type": "function"
    },
    {
      "inputs": [
        {
          "internalType": "address",
          "name": "admin",
          "type": "address"
        }
      ],
      "name": "toggleGovernor",
      "outputs": [],
      "stateMutability": "nonpayable",
      "type": "function"
    },
    {
      "inputs": [
        {
          "internalType": "address",
          "name": "admin",
          "type": "address"
        }
      ],
      "name": "toggleGuardian",
      "outputs": [],
      "stateMutability": "nonpayable",
      "type": "function"
    }
  ],
  "transactionHash": "0x42c6a2bfefadd482dc2c6df843af40a206beabc092939a950a8065aaa3fc11ee",
  "args": [],
  "numDeployments": 1,
  "solcInputHash": "2533a87bc13ae2d4e5088f7ee794e57c",
  "bytecode": "0x608080604052346100165761037a908161001c8239f35b600080fdfe6080604081815260048036101561001557600080fd5b600092833560e01c9081630633b14a146102d957508063521d4de9146102505780635480278b146101c35780636166632d14610136578063e3eece26146100cf5763e43581b81461006557600080fd5b346100cb5760207ffffffffffffffffffffffffffffffffffffffffffffffffffffffffffffffffc3601126100cb573573ffffffffffffffffffffffffffffffffffffffff81168091036100cb57818360ff926020955280855220541690519015158152f35b8280fd5b50346100cb5760207ffffffffffffffffffffffffffffffffffffffffffffffffffffffffffffffffc3601126100cb573573ffffffffffffffffffffffffffffffffffffffff81168091036100cb57818360ff926020955280855220541690519015158152f35b50346100cb5760207ffffffffffffffffffffffffffffffffffffffffffffffffffffffffffffffffc3601126100cb57359073ffffffffffffffffffffffffffffffffffffffff82168092036100cb5790825260208290528120805460ff81811615167fffffffffffffffffffffffffffffffffffffffffffffffffffffffffffffff0090911617905580f35b50346100cb5760207ffffffffffffffffffffffffffffffffffffffffffffffffffffffffffffffffc3601126100cb57359073ffffffffffffffffffffffffffffffffffffffff82168092036100cb5790825260016020528120805460ff81811615167fffffffffffffffffffffffffffffffffffffffffffffffffffffffffffffff0090911617905580f35b508290346102d55760207ffffffffffffffffffffffffffffffffffffffffffffffffffffffffffffffffc3601126102d557359173ffffffffffffffffffffffffffffffffffffffff83168093036102d557602092825281835260ff81832054169182156102c2575b50519015158152f35b600184528190205460ff169150836102b9565b5080fd5b92919050346103405760207ffffffffffffffffffffffffffffffffffffffffffffffffffffffffffffffffc360112610340573573ffffffffffffffffffffffffffffffffffffffff81168091036103405783526001602090815292205460ff1615158152f35b8380fdfea26469706673582212200700185e522e09c45e47d1527f86389c70e06236f265e9ac86430acd283416e764736f6c63430008110033",
  "devdoc": {
    "kind": "dev",
    "methods": {},
    "version": 1
  },
  "userdoc": {
    "kind": "user",
    "methods": {},
    "version": 1
  },
  "storageLayout": {
    "storage": [
      {
        "astId": 8285,
        "contract": "contracts/mock/MockCoreBorrow.sol:MockCoreBorrow",
        "label": "governors",
        "offset": 0,
        "slot": "0",
        "type": "t_mapping(t_address,t_bool)"
      },
      {
        "astId": 8289,
        "contract": "contracts/mock/MockCoreBorrow.sol:MockCoreBorrow",
        "label": "guardians",
        "offset": 0,
        "slot": "1",
        "type": "t_mapping(t_address,t_bool)"
      }
    ],
    "types": {
      "t_address": {
        "encoding": "inplace",
        "label": "address",
        "numberOfBytes": "20"
      },
      "t_bool": {
        "encoding": "inplace",
        "label": "bool",
        "numberOfBytes": "1"
      },
      "t_mapping(t_address,t_bool)": {
        "encoding": "mapping",
        "key": "t_address",
        "label": "mapping(address => bool)",
        "numberOfBytes": "32",
        "value": "t_bool"
      }
    }
  }
}