{
  "address": "0xF9969CC40bF698640C2D9147Ea6A01D5EC8e2bB0",
  "abi": [
    {
      "inputs": [],
      "stateMutability": "nonpayable",
      "type": "constructor"
    },
    {
      "inputs": [],
      "name": "InvalidDispute",
      "type": "error"
    },
    {
      "inputs": [],
      "name": "InvalidLengths",
      "type": "error"
    },
    {
      "inputs": [],
      "name": "InvalidParam",
      "type": "error"
    },
    {
      "inputs": [],
      "name": "InvalidProof",
      "type": "error"
    },
    {
      "inputs": [],
      "name": "NoDispute",
      "type": "error"
    },
    {
      "inputs": [],
      "name": "NotGovernorOrGuardian",
      "type": "error"
    },
    {
      "inputs": [],
      "name": "NotTrusted",
      "type": "error"
    },
    {
      "inputs": [],
      "name": "NotWhitelisted",
      "type": "error"
    },
    {
      "inputs": [],
      "name": "UnresolvedDispute",
      "type": "error"
    },
    {
      "inputs": [],
      "name": "ZeroAddress",
      "type": "error"
    },
    {
      "anonymous": false,
      "inputs": [
        {
          "indexed": false,
          "internalType": "address",
          "name": "previousAdmin",
          "type": "address"
        },
        {
          "indexed": false,
          "internalType": "address",
          "name": "newAdmin",
          "type": "address"
        }
      ],
      "name": "AdminChanged",
      "type": "event"
    },
    {
      "anonymous": false,
      "inputs": [
        {
          "indexed": true,
          "internalType": "address",
          "name": "beacon",
          "type": "address"
        }
      ],
      "name": "BeaconUpgraded",
      "type": "event"
    },
    {
      "anonymous": false,
      "inputs": [
        {
          "indexed": false,
          "internalType": "address",
          "name": "user",
          "type": "address"
        },
        {
          "indexed": false,
          "internalType": "address",
          "name": "token",
          "type": "address"
        },
        {
          "indexed": false,
          "internalType": "uint256",
          "name": "amount",
          "type": "uint256"
        }
      ],
      "name": "Claimed",
      "type": "event"
    },
    {
      "anonymous": false,
      "inputs": [
        {
          "indexed": false,
          "internalType": "uint256",
          "name": "_disputeAmount",
          "type": "uint256"
        }
      ],
      "name": "DisputeAmountUpdated",
      "type": "event"
    },
    {
      "anonymous": false,
      "inputs": [
        {
          "indexed": false,
          "internalType": "uint48",
          "name": "_disputePeriod",
          "type": "uint48"
        }
      ],
      "name": "DisputePeriodUpdated",
      "type": "event"
    },
    {
      "anonymous": false,
      "inputs": [
        {
          "indexed": false,
          "internalType": "bool",
          "name": "valid",
          "type": "bool"
        }
      ],
      "name": "DisputeResolved",
      "type": "event"
    },
    {
      "anonymous": false,
      "inputs": [
        {
          "indexed": true,
          "internalType": "address",
          "name": "_disputeToken",
          "type": "address"
        }
      ],
      "name": "DisputeTokenUpdated",
      "type": "event"
    },
    {
      "anonymous": false,
      "inputs": [
        {
          "indexed": false,
          "internalType": "string",
          "name": "reason",
          "type": "string"
        }
      ],
      "name": "Disputed",
      "type": "event"
    },
    {
      "anonymous": false,
      "inputs": [
        {
          "indexed": false,
          "internalType": "uint8",
          "name": "version",
          "type": "uint8"
        }
      ],
      "name": "Initialized",
      "type": "event"
    },
    {
      "anonymous": false,
      "inputs": [
        {
          "indexed": false,
          "internalType": "address",
          "name": "user",
          "type": "address"
        },
        {
          "indexed": false,
          "internalType": "bool",
          "name": "isEnabled",
          "type": "bool"
        }
      ],
      "name": "OperatorClaimingToggled",
      "type": "event"
    },
    {
      "anonymous": false,
      "inputs": [
        {
          "indexed": false,
          "internalType": "address",
          "name": "user",
          "type": "address"
        },
        {
          "indexed": false,
          "internalType": "address",
          "name": "operator",
          "type": "address"
        },
        {
          "indexed": false,
          "internalType": "bool",
          "name": "isWhitelisted",
          "type": "bool"
        }
      ],
      "name": "OperatorToggled",
      "type": "event"
    },
    {
      "anonymous": false,
      "inputs": [
        {
          "indexed": true,
          "internalType": "address",
          "name": "token",
          "type": "address"
        },
        {
          "indexed": true,
          "internalType": "address",
          "name": "to",
          "type": "address"
        },
        {
          "indexed": false,
          "internalType": "uint256",
          "name": "amount",
          "type": "uint256"
        }
      ],
      "name": "Recovered",
      "type": "event"
    },
    {
      "anonymous": false,
      "inputs": [
        {
          "indexed": false,
          "internalType": "bytes32",
          "name": "merkleRoot",
          "type": "bytes32"
        },
        {
          "indexed": false,
          "internalType": "bytes32",
          "name": "ipfsHash",
          "type": "bytes32"
        }
      ],
      "name": "TreeUpdated",
      "type": "event"
    },
    {
      "anonymous": false,
      "inputs": [
        {
          "indexed": true,
          "internalType": "address",
          "name": "eoa",
          "type": "address"
        },
        {
          "indexed": false,
          "internalType": "bool",
          "name": "trust",
          "type": "bool"
        }
      ],
      "name": "TrustedToggled",
      "type": "event"
    },
    {
      "anonymous": false,
      "inputs": [
        {
          "indexed": true,
          "internalType": "address",
          "name": "implementation",
          "type": "address"
        }
      ],
      "name": "Upgraded",
      "type": "event"
    },
    {
      "inputs": [
        {
          "internalType": "address",
          "name": "",
          "type": "address"
        }
      ],
      "name": "canUpdateMerkleRoot",
      "outputs": [
        {
          "internalType": "uint256",
          "name": "",
          "type": "uint256"
        }
      ],
      "stateMutability": "view",
      "type": "function"
    },
    {
      "inputs": [
        {
          "internalType": "address[]",
          "name": "users",
          "type": "address[]"
        },
        {
          "internalType": "address[]",
          "name": "tokens",
          "type": "address[]"
        },
        {
          "internalType": "uint256[]",
          "name": "amounts",
          "type": "uint256[]"
        },
        {
          "internalType": "bytes32[][]",
          "name": "proofs",
          "type": "bytes32[][]"
        }
      ],
      "name": "claim",
      "outputs": [],
      "stateMutability": "nonpayable",
      "type": "function"
    },
    {
      "inputs": [
        {
          "internalType": "address",
          "name": "",
          "type": "address"
        },
        {
          "internalType": "address",
          "name": "",
          "type": "address"
        }
      ],
      "name": "claimed",
      "outputs": [
        {
          "internalType": "uint256",
          "name": "",
          "type": "uint256"
        }
      ],
      "stateMutability": "view",
      "type": "function"
    },
    {
      "inputs": [],
      "name": "coreBorrow",
      "outputs": [
        {
          "internalType": "contract ICoreBorrow",
          "name": "",
          "type": "address"
        }
      ],
      "stateMutability": "view",
      "type": "function"
    },
    {
      "inputs": [],
      "name": "disputeAmount",
      "outputs": [
        {
          "internalType": "uint256",
          "name": "",
          "type": "uint256"
        }
      ],
      "stateMutability": "view",
      "type": "function"
    },
    {
      "inputs": [],
      "name": "disputePeriod",
      "outputs": [
        {
          "internalType": "uint48",
          "name": "",
          "type": "uint48"
        }
      ],
      "stateMutability": "view",
      "type": "function"
    },
    {
      "inputs": [],
      "name": "disputeToken",
      "outputs": [
        {
          "internalType": "contract IERC20",
          "name": "",
          "type": "address"
        }
      ],
      "stateMutability": "view",
      "type": "function"
    },
    {
      "inputs": [
        {
          "internalType": "string",
          "name": "reason",
          "type": "string"
        }
      ],
      "name": "disputeTree",
      "outputs": [],
      "stateMutability": "nonpayable",
      "type": "function"
    },
    {
      "inputs": [],
      "name": "disputer",
      "outputs": [
        {
          "internalType": "address",
          "name": "",
          "type": "address"
        }
      ],
      "stateMutability": "view",
      "type": "function"
    },
    {
      "inputs": [],
      "name": "getMerkleRoot",
      "outputs": [
        {
          "internalType": "bytes32",
          "name": "",
          "type": "bytes32"
        }
      ],
      "stateMutability": "view",
      "type": "function"
    },
    {
      "inputs": [
        {
          "internalType": "contract ICoreBorrow",
          "name": "_coreBorrow",
          "type": "address"
        }
      ],
      "name": "initialize",
      "outputs": [],
      "stateMutability": "nonpayable",
      "type": "function"
    },
    {
      "inputs": [],
      "name": "lastTree",
      "outputs": [
        {
          "internalType": "bytes32",
          "name": "merkleRoot",
          "type": "bytes32"
        },
        {
          "internalType": "bytes32",
          "name": "ipfsHash",
          "type": "bytes32"
        }
      ],
      "stateMutability": "view",
      "type": "function"
    },
    {
      "inputs": [],
      "name": "lastTreeUpdate",
      "outputs": [
        {
          "internalType": "uint48",
          "name": "",
          "type": "uint48"
        }
      ],
      "stateMutability": "view",
      "type": "function"
    },
    {
      "inputs": [
        {
          "internalType": "address",
          "name": "",
          "type": "address"
        }
      ],
      "name": "onlyOperatorCanClaim",
      "outputs": [
        {
          "internalType": "uint256",
          "name": "",
          "type": "uint256"
        }
      ],
      "stateMutability": "view",
      "type": "function"
    },
    {
      "inputs": [
        {
          "internalType": "address",
          "name": "",
          "type": "address"
        },
        {
          "internalType": "address",
          "name": "",
          "type": "address"
        }
      ],
      "name": "operators",
      "outputs": [
        {
          "internalType": "uint256",
          "name": "",
          "type": "uint256"
        }
      ],
      "stateMutability": "view",
      "type": "function"
    },
    {
      "inputs": [],
      "name": "proxiableUUID",
      "outputs": [
        {
          "internalType": "bytes32",
          "name": "",
          "type": "bytes32"
        }
      ],
      "stateMutability": "view",
      "type": "function"
    },
    {
      "inputs": [
        {
          "internalType": "address",
          "name": "tokenAddress",
          "type": "address"
        },
        {
          "internalType": "address",
          "name": "to",
          "type": "address"
        },
        {
          "internalType": "uint256",
          "name": "amountToRecover",
          "type": "uint256"
        }
      ],
      "name": "recoverERC20",
      "outputs": [],
      "stateMutability": "nonpayable",
      "type": "function"
    },
    {
      "inputs": [
        {
          "internalType": "bool",
          "name": "valid",
          "type": "bool"
        }
      ],
      "name": "resolveDispute",
      "outputs": [],
      "stateMutability": "nonpayable",
      "type": "function"
    },
    {
      "inputs": [],
      "name": "revokeTree",
      "outputs": [],
      "stateMutability": "nonpayable",
      "type": "function"
    },
    {
      "inputs": [
        {
          "internalType": "uint256",
          "name": "_disputeAmount",
          "type": "uint256"
        }
      ],
      "name": "setDisputeAmount",
      "outputs": [],
      "stateMutability": "nonpayable",
      "type": "function"
    },
    {
      "inputs": [
        {
          "internalType": "uint48",
          "name": "_disputePeriod",
          "type": "uint48"
        }
      ],
      "name": "setDisputePeriod",
      "outputs": [],
      "stateMutability": "nonpayable",
      "type": "function"
    },
    {
      "inputs": [
        {
          "internalType": "contract IERC20",
          "name": "_disputeToken",
          "type": "address"
        }
      ],
      "name": "setDisputeToken",
      "outputs": [],
      "stateMutability": "nonpayable",
      "type": "function"
    },
    {
      "inputs": [
        {
          "internalType": "address",
          "name": "user",
          "type": "address"
        }
      ],
      "name": "toggleOnlyOperatorCanClaim",
      "outputs": [],
      "stateMutability": "nonpayable",
      "type": "function"
    },
    {
      "inputs": [
        {
          "internalType": "address",
          "name": "user",
          "type": "address"
        },
        {
          "internalType": "address",
          "name": "operator",
          "type": "address"
        }
      ],
      "name": "toggleOperator",
      "outputs": [],
      "stateMutability": "nonpayable",
      "type": "function"
    },
    {
      "inputs": [
        {
          "internalType": "address",
          "name": "eoa",
          "type": "address"
        }
      ],
      "name": "toggleTrusted",
      "outputs": [],
      "stateMutability": "nonpayable",
      "type": "function"
    },
    {
      "inputs": [],
      "name": "tree",
      "outputs": [
        {
          "internalType": "bytes32",
          "name": "merkleRoot",
          "type": "bytes32"
        },
        {
          "internalType": "bytes32",
          "name": "ipfsHash",
          "type": "bytes32"
        }
      ],
      "stateMutability": "view",
      "type": "function"
    },
    {
      "inputs": [
        {
          "components": [
            {
              "internalType": "bytes32",
              "name": "merkleRoot",
              "type": "bytes32"
            },
            {
              "internalType": "bytes32",
              "name": "ipfsHash",
              "type": "bytes32"
            }
          ],
          "internalType": "struct MerkleTree",
          "name": "_tree",
          "type": "tuple"
        }
      ],
      "name": "updateTree",
      "outputs": [],
      "stateMutability": "nonpayable",
      "type": "function"
    },
    {
      "inputs": [
        {
          "internalType": "address",
          "name": "newImplementation",
          "type": "address"
        }
      ],
      "name": "upgradeTo",
      "outputs": [],
      "stateMutability": "nonpayable",
      "type": "function"
    },
    {
      "inputs": [
        {
          "internalType": "address",
          "name": "newImplementation",
          "type": "address"
        },
        {
          "internalType": "bytes",
          "name": "data",
          "type": "bytes"
        }
      ],
      "name": "upgradeToAndCall",
      "outputs": [],
      "stateMutability": "payable",
      "type": "function"
    }
  ],
  "transactionHash": "0x0d5823c1f173264fc51e987b00d3498ade7b3754791df45dc71d14f8e9805a6d",
  "args": [],
  "numDeployments": 1,
  "solcInputHash": "312b8989ee6f0cb7f5e1f69c03daeea8",
  "bytecode": "0x60a060405234620000495730608052620000186200004e565b620000226200004e565b60405161229f90816200015a8239608051818181610ebc01528181610fc801526114760152f35b600080fd5b60005460ff8160081c1615908180926200014b575b801562000132575b15620000d65760ff19811660011760005581620000c3575b506200008b57565b61ff0019600054166000557f7f26b83ff96e1f2b6a682f133852f6798a09c465da95921460cefb3847402498602060405160018152a1565b61ffff1916610101176000553862000083565b60405162461bcd60e51b815260206004820152602e60248201527f496e697469616c697a61626c653a20636f6e747261637420697320616c72656160448201526d191e481a5b9a5d1a585b1a5e995960921b6064820152608490fd5b50303b1580156200006b5750600160ff8216146200006b565b50600160ff8216106200006356fe608080604052600436101561001357600080fd5b60003560e01c90816309454ba314611c3b575080630c9cbf0e14611be95780630d10fca314611b3f5780631171bda914611a7e5780631476914214611a445780631b0c24d514611a1d5780632637588e146119cb57806328827838146118bc5780632a25dd411461177f5780633659cfe6146114515780634641fdef1461132757806349590657146113045780634f1ef28614610f7657806352d1902d14610ea15780635bf31d4d14610e805780635e549a0e14610e57578063623b9e9d14610d9b5780636ac5610314610d7457806371ee95c01461096c5780637ee843491461089d57806389e1e82a146107545780639578883514610680578063bdac7ca314610522578063c4d66de8146103ab578063c748d26114610384578063cce80e7a1461035f578063d9c98087146101c2578063e57480e5146101885763fd54b2281461015e57600080fd5b3461018357600036600319011261018357604060655460665482519182526020820152f35b600080fd5b34610183576020366003190112610183576001600160a01b036101a9611c56565b16600052606e6020526020604060002054604051908152f35b3461018357604036600319011261018357606b546001600160a01b03808216159081159161029e575b5061027457604060207f39f3c4d5c2bbcbf0e3945f22aa618f4e654952eaafcdaa119f0ef12dfce4f2f39282519061022282611c82565b6065549182815260665493849101526004359283606555602435928360665560675560685565ffffffffffff60a01b1965ffffffffffff60a01b4260a01b16911617606b5582519182526020820152a1005b60046040517fc22a648e000000000000000000000000000000000000000000000000000000008152fd5b905033600052606e6020526001604060002054149081159161033d575b816102c8575b50826101eb565b60249150602090606a54166040519283809263521d4de960e01b82523360048301525afa90811561033157600091610303575b5015826102c1565b610324915060203d811161032a575b61031c8183611cba565b810190611fb7565b826102fb565b503d610312565b6040513d6000823e3d90fd5b905061035465ffffffffffff8360a01c1642611ff3565b8260d01c11906102bb565b3461018357600036600319011261018357604060675460685482519182526020820152f35b346101835760003660031901126101835760206001600160a01b0360695416604051908152f35b34610183576020366003190112610183576004356001600160a01b038116809103610183576000549060ff8260081c161591828093610515575b80156104fe575b156104945760ff19811660011760005582610482575b508015610458576001600160a01b0319606a541617606a5561042057005b61ff0019600054166000557f7f26b83ff96e1f2b6a682f133852f6798a09c465da95921460cefb3847402498602060405160018152a1005b60046040517fd92e233d000000000000000000000000000000000000000000000000000000008152fd5b61ffff19166101011760005582610402565b608460405162461bcd60e51b815260206004820152602e60248201527f496e697469616c697a61626c653a20636f6e747261637420697320616c72656160448201527f647920696e697469616c697a65640000000000000000000000000000000000006064820152fd5b50303b1580156103ec5750600160ff8216146103ec565b50600160ff8216106103e5565b346101835760403660031901126101835761053b611c56565b610543611c6c565b906001600160a01b038091163381141580610667575b80610610575b610274578060005260209160708352604060002093169283600052825260406000205460010391600183116105fa577f42343f44c66ea1eaffa334760d3da2cb731d2a0b3b3e30423df997faa36cc95c936060938360005260708352604060002082600052835260406000205582600052607082526040600020816000528252600160406000205414916040519384528301526040820152a1005b634e487b7160e01b600052601160045260246000fd5b506024602083606a54166040519283809263521d4de960e01b82523360048301525afa90811561033157600091610649575b501561055f565b610661915060203d811161032a5761031c8183611cba565b84610642565b5033600052606e60205260016040600020541415610559565b34610183576000366003190112610183576001600160a01b036024602082606a54166040519283809263521d4de960e01b82523360048301525afa90811561033157600091610736575b501561070c57606b54166106e2576106e06121ef565b005b60046040517f05832574000000000000000000000000000000000000000000000000000000008152fd5b60046040517f99e120bc000000000000000000000000000000000000000000000000000000008152fd5b61074e915060203d811161032a5761031c8183611cba565b826106ca565b346101835760203660031901126101835760043580151590818103610183576001600160a01b03916024602084606a54166040519283809263521d4de960e01b82523360048301525afa9081156103315760009161087f575b501561070c57606b8381541615610855577f8015c5005d9ad5d85ca80d3f894f08e0159277704c54166e5cff108800fa80cd936020931561081d57806107fe916069541690835416606c5491612000565b6108066121ef565b6001600160a01b03198154169055604051908152a1005b6108309060695416606c54903390612000565b805465ffffffffffff60a01b19164260a01b65ffffffffffff60a01b16178155610806565b60046040517f93754748000000000000000000000000000000000000000000000000000000008152fd5b610897915060203d811161032a5761031c8183611cba565b846107ad565b3461018357602080600319360112610183576108b7611c56565b6001600160a01b039060248383606a54166040519283809263521d4de960e01b82523360048301525afa9081156103315760009161094f575b501561070c57169081600052606e815260406000205460010390600182116105fa577f7628ea5f6112a16b36a8239aa208395a8e8f221688cfb3a5461faffb9700abcd9183600052606e825280604060002055600160405191148152a2005b6109669150843d861161032a5761031c8183611cba565b846108f0565b346101835760803660031901126101835760043567ffffffffffffffff81116101835761099d903690600401611d2f565b60243567ffffffffffffffff8111610183576109bd903690600401611d2f565b91909260443567ffffffffffffffff8111610183576109e0903690600401611d2f565b909160643567ffffffffffffffff811161018357610a02903690600401611d2f565b94909281158015610d6a575b8015610d60575b8015610d56575b610d2c5760005b828110610a2c57005b610a3f610a3a828587611fcf565b611fdf565b90610a4e610a3a828b8d611fcf565b610a5982858a611fcf565b35906001600160a01b038416600052606f60205260016040600020541480610d0e575b610ce457604080516001600160a01b03868116602083019081529084169282019290925260608082018590528152610ab5608082611cba565b5190208a841015610cce5760059084821b8a0135601e198b360301811215610183578a0180359267ffffffffffffffff84116101835783901b80360360208301136101835760405193610b0b6020830186611cba565b8452602084019036602082850101116101835760208301915b6020828501018310610cbe5750505050908051906000915b808310610c3f57505050610b4e6121c0565b03610c155783610c0c7ff7a40077ff7a04c7e61f6f26fb13774259ddf1b6bce9ecf26a8276cdd3992683936001600160a01b0360019716600052610be2606d806020528460406000206001600160a01b0388169081600052602052610bb860406000205486611ff3565b9485936001600160a01b038416600052602052604060002082600052602052604060002055612000565b604051938493846040919493929460608201956001600160a01b0380921683521660208201520152565b0390a101610a23565b60046040517f09bde339000000000000000000000000000000000000000000000000000000008152fd5b909192600190610c4f8585612255565b51811015610c8c57610c618585612255565b516040519060208201928352604082015260408152610c7f81611c9e565b519020935b019190610b3c565b610c968585612255565b51906040519060208201928352604082015260408152610cb581611c9e565b51902093610c84565b8235815260209283019201610b24565b634e487b7160e01b600052603260045260246000fd5b60046040517f584a7938000000000000000000000000000000000000000000000000000000008152fd5b50607060205260406000203360005260205260406000205415610a7c565b60046040517f1df89e8b000000000000000000000000000000000000000000000000000000008152fd5b5085821415610a1c565b5080821415610a15565b5086821415610a0e565b346101835760003660031901126101835760206001600160a01b03606b5416604051908152f35b34610183576020366003190112610183576004356001600160a01b03808216809203610183576024602082606a54166040519283809263521d4de960e01b82523360048301525afa90811561033157600091610e39575b501561070c57606b54166106e257806001600160a01b031960695416176069557f1db8d6629941dcb63d5e0c927b89c174c714e139a4b9107a49de839d755f5d74600080a2005b610e51915060203d811161032a5761031c8183611cba565b83610df2565b3461018357600036600319011261018357602065ffffffffffff606b5460a01c16604051908152f35b34610183576000366003190112610183576020606b5460d01c604051908152f35b34610183576000366003190112610183576001600160a01b037f0000000000000000000000000000000000000000000000000000000000000000163003610f0c5760206040517f360894a13ba1a3210667c828492db98dca3e2076cc3735a920a3ca505d382bbc8152f35b608460405162461bcd60e51b815260206004820152603860248201527f555550535570677261646561626c653a206d757374206e6f742062652063616c60448201527f6c6564207468726f7567682064656c656761746563616c6c00000000000000006064820152fd5b604036600319011261018357610f8a611c56565b602490813567ffffffffffffffff8111610183573660238201121561018357610fbc9036908481600401359101611cf8565b6001600160a01b0390817f00000000000000000000000000000000000000000000000000000000000000001691610ff583301415611d60565b6110247f360894a13ba1a3210667c828492db98dca3e2076cc3735a920a3ca505d382bbc938285541614611dd1565b80606a54168581151591826112b0575b505061070c577f4910fdfa16fed3260ed0e7147f7cc6da11a60208b5b9406d12a635614ffd91435460ff1615611071575050506106e09150611e42565b8391929316604051936352d1902d60e01b85526020948581600481865afa60009181611281575b5061110657608486602e896040519262461bcd60e51b845260048401528201527f45524331393637557067726164653a206e657720696d706c656d656e7461746960448201527f6f6e206973206e6f7420555550530000000000000000000000000000000000006064820152fd5b95919293950361122c5761111983611e42565b604051917fbc7cd75a20ee27fd9adebab32041f755214dbc6bffa90cc0225b39da2e5c2d3b600080a2845115801590611224575b61115357005b823b156111d55750506000838192846106e096519201905af4611174611eef565b907f416464726573733a206c6f772d6c6576656c2064656c65676174652063616c6c604051936111a385611c9e565b602785528401527f206661696c6564000000000000000000000000000000000000000000000000006040840152611f1f565b9060266084928562461bcd60e51b845260048401528201527f416464726573733a2064656c65676174652063616c6c20746f206e6f6e2d636f6044820152651b9d1c9858dd60d21b6064820152fd5b50600161114d565b8360296084926040519262461bcd60e51b845260048401528201527f45524331393637557067726164653a20756e737570706f727465642070726f786044820152681a58589b195555525160ba1b6064820152fd5b9091508681813d83116112a9575b6112998183611cba565b8101031261018357519088611098565b503d61128f565b60209192506040519283809263521d4de960e01b82523360048301525afa908115610331576000916112e6575b50158587611034565b6112fe915060203d811161032a5761031c8183611cba565b866112dd565b3461018357600036600319011261018357602061131f6121c0565b604051908152f35b346101835760203660031901126101835760043565ffffffffffff81169081810361018357602460206001600160a01b03606a54166040519283809263521d4de960e01b82523360048301525afa90811561033157600091611433575b501561070c57428211611409577ffdf22e84af74bd4ab6b9646f6370a02bc886ed6ac25882db14e4ebf4b8e3bc7e9160209179ffffffffffffffffffffffffffffffffffffffffffffffffffff7fffffffffffff0000000000000000000000000000000000000000000000000000606b549260d01b16911617606b55604051908152a1005b60046040517fd2529034000000000000000000000000000000000000000000000000000000008152fd5b61144b915060203d811161032a5761031c8183611cba565b83611384565b34610183576020806003193601126101835761146b611c56565b6001600160a01b03807f0000000000000000000000000000000000000000000000000000000000000000166114a281301415611d60565b6114d17f360894a13ba1a3210667c828492db98dca3e2076cc3735a920a3ca505d382bbc918383541614611dd1565b81606a541684811515918261172d575b505061070c57604051908482019282841067ffffffffffffffff85111761171757836040526000835260ff7f4910fdfa16fed3260ed0e7147f7cc6da11a60208b5b9406d12a635614ffd9143541660001461154457505050506106e09150611e42565b8416906040516352d1902d60e01b81528681600481865afa600091816116e8575b506115d4576084876040519062461bcd60e51b82526004820152602e60248201527f45524331393637557067726164653a206e657720696d706c656d656e7461746960448201527f6f6e206973206e6f7420555550530000000000000000000000000000000000006064820152fd5b03611692576115e284611e42565b604051907fbc7cd75a20ee27fd9adebab32041f755214dbc6bffa90cc0225b39da2e5c2d3b600080a281511580159061168a575b61161c57005b833b1561163a57506106e09392600092839251915af4611174611eef565b808562461bcd60e51b608493526004820152602660248201527f416464726573733a2064656c65676174652063616c6c20746f206e6f6e2d636f6044820152651b9d1c9858dd60d21b6064820152fd5b506000611616565b6084856040519062461bcd60e51b82526004820152602960248201527f45524331393637557067726164653a20756e737570706f727465642070726f786044820152681a58589b195555525160ba1b6064820152fd5b9091508781813d8311611710575b6117008183611cba565b8101031261018357519088611565565b503d6116f6565b634e487b7160e01b600052604160045260246000fd5b602492506040519283809263521d4de960e01b82523360048301525afa90811561033157600091611762575b501584866114e1565b6117799150853d871161032a5761031c8183611cba565b85611759565b346101835760203660031901126101835760043567ffffffffffffffff81116101835736602382011215610183576117c1903690602481600401359101611cf8565b606b546117d965ffffffffffff8260a01c1642611ff3565b9060d01c111561189257606954606c546040517f23b872dd0000000000000000000000000000000000000000000000000000000060208201523360248201523060448201526064808201929092529081527f5eca00b8ed745eee61451333090bfa56aa1f2a9e696a2aebe5f1f5b6cef6f2ff9261188d92909161186f916001600160a01b031661186a608483611cba565b612062565b336001600160a01b0319606b541617606b5560405191829182611f3b565b0390a1005b60046040517f1a8f0395000000000000000000000000000000000000000000000000000000008152fd5b3461018357602080600319360112610183576001600160a01b03806118df611c56565b1690823383141591826119af575b82611959575b50506102745780600052606f825260406000205460010390600182116105fa577f81d714ca01079a19c106993b49b2764df6bb6abe740164ef7b77ee9c100a024a9260409282600052606f825283600020556001836000205414908351928352820152a1005b60249250606a54166040519283809263521d4de960e01b82523360048301525afa90811561033157600091611992575b501582846118f3565b6119a99150833d851161032a5761031c8183611cba565b83611989565b91505033600052606e83528260016040600020541415916118ed565b34610183576040366003190112610183576119e4611c56565b6119ec611c6c565b906001600160a01b038091166000526070602052604060002091166000526020526020604060002054604051908152f35b346101835760003660031901126101835760206001600160a01b03606a5416604051908152f35b34610183576020366003190112610183576001600160a01b03611a65611c56565b16600052606f6020526020604060002054604051908152f35b3461018357606036600319011261018357611a97611c56565b611a9f611c6c565b604435916001600160a01b03906024602083606a54166040519283809263521d4de960e01b82523360048301525afa90811561033157600091611b21575b501561070c57817ffff3b3844276f57024e0b42afec1a37f75db36511e43819a4f2a63ab7862b648926020921693611b16868287612000565b6040519586521693a3005b611b39915060203d811161032a5761031c8183611cba565b85611add565b34610183576020366003190112610183576004356001600160a01b036024602082606a54166040519283809263521d4de960e01b82523360048301525afa90811561033157600091611bcb575b501561070c57606b54166106e2576020817f39bb629f3d59f5eddf978050e1f5fabeca2b5d02dfc9c25e84f32e7da1069db492606c55604051908152a1005b611be3915060203d811161032a5761031c8183611cba565b83611b8c565b3461018357604036600319011261018357611c02611c56565b611c0a611c6c565b906001600160a01b03809116600052606d602052604060002091166000526020526020604060002054604051908152f35b3461018357600036600319011261018357602090606c548152f35b600435906001600160a01b038216820361018357565b602435906001600160a01b038216820361018357565b6040810190811067ffffffffffffffff82111761171757604052565b6060810190811067ffffffffffffffff82111761171757604052565b90601f8019910116810190811067ffffffffffffffff82111761171757604052565b67ffffffffffffffff811161171757601f01601f191660200190565b929192611d0482611cdc565b91611d126040519384611cba565b829481845281830111610183578281602093846000960137010152565b9181601f840112156101835782359167ffffffffffffffff8311610183576020808501948460051b01011161018357565b15611d6757565b608460405162461bcd60e51b815260206004820152602c60248201527f46756e6374696f6e206d7573742062652063616c6c6564207468726f7567682060448201527f64656c656761746563616c6c00000000000000000000000000000000000000006064820152fd5b15611dd857565b608460405162461bcd60e51b815260206004820152602c60248201527f46756e6374696f6e206d7573742062652063616c6c6564207468726f7567682060448201527f6163746976652070726f787900000000000000000000000000000000000000006064820152fd5b803b15611e85576001600160a01b037f360894a13ba1a3210667c828492db98dca3e2076cc3735a920a3ca505d382bbc91166001600160a01b0319825416179055565b608460405162461bcd60e51b815260206004820152602d60248201527f455243313936373a206e657720696d706c656d656e746174696f6e206973206e60448201527f6f74206120636f6e7472616374000000000000000000000000000000000000006064820152fd5b3d15611f1a573d90611f0082611cdc565b91611f0e6040519384611cba565b82523d6000602084013e565b606090565b909160609115611f2e57505090565b611f39919392611f84565b565b6020808252825181830181905290939260005b828110611f7057505060409293506000838284010152601f8019910116010190565b818101860151848201604001528501611f4e565b805190925015611f975750805190602001fd5b611fb39060405191829162461bcd60e51b835260048301611f3b565b0390fd5b90816020910312610183575180151581036101835790565b9190811015610cce5760051b0190565b356001600160a01b03811681036101835790565b919082039182116105fa57565b916001600160a01b03604051927fa9059cbb000000000000000000000000000000000000000000000000000000006020850152166024830152604482015260448152608081019181831067ffffffffffffffff84111761171757611f39926040525b6040516120c0916001600160a01b031661207b82611c82565b6000806020958685527f5361666545524332303a206c6f772d6c6576656c2063616c6c206661696c656487860152868151910182855af16120ba611eef565b9161214f565b805190816120cd57505050565b82806120dd938301019101611fb7565b156120e55750565b6084906040519062461bcd60e51b82526004820152602a60248201527f5361666545524332303a204552433230206f7065726174696f6e20646964206e60448201527f6f742073756363656564000000000000000000000000000000000000000000006064820152fd5b9192606091156121b3575050815115612166575090565b3b1561216f5790565b606460405162461bcd60e51b815260206004820152601d60248201527f416464726573733a2063616c6c20746f206e6f6e2d636f6e74726163740000006044820152fd5b909392611f399250611f84565b606b546121d865ffffffffffff8260a01c1642611ff3565b60d09190911c116121e95760655490565b60675490565b7f39f3c4d5c2bbcbf0e3945f22aa618f4e654952eaafcdaa119f0ef12dfce4f2f36040805161221d81611c82565b602060675491828152606854918291015265ffffffffffff60a01b19606b5416606b55816065558060665582519182526020820152a1565b8051821015610cce5760209160051b01019056fea2646970667358221220127fb7c2a2d774b92648feb68b42e895cf68cb412e458ec5db62e40919c5071464736f6c63430008110033",
  "devdoc": {
    "author": "Angle Labs. Inc",
    "details": "This contract relies on whitelisted or Angle-governance controlled addresses to update the Merkle root for reward distribution. After each tree update, there is a dispute period, during which it is possible to fallback to the old version of the Merkle root",
    "kind": "dev",
    "methods": {
      "claim(address[],address[],uint256[],bytes32[][])": {
        "details": "Anyone may call this function for anyone else, funds go to destination regardless, it's just a question of who provides the proof and pays the gas: `msg.sender` is used only for addresses that require a trusted operator",
        "params": {
          "amounts": "Amount of tokens that will be sent to the corresponding users",
          "proofs": "Array of hashes bridging from leaf (hash of user | token | amount) to Merkle root",
          "tokens": "ERC20 claimed",
          "users": "Recipient of tokens"
        }
      },
      "disputeTree(string)": {
        "details": "Requires a deposit of `disputeToken` that'll be slashed if the dispute is not acceptedIt is only possible to create a dispute for `disputePeriod` after each tree update"
      },
      "proxiableUUID()": {
        "details": "Implementation of the ERC1822 {proxiableUUID} function. This returns the storage slot used by the implementation. It is used to validate the implementation's compatibility when performing an upgrade. IMPORTANT: A proxy pointing at a proxiable contract should not be considered proxiable itself, because this risks bricking a proxy that upgrades to it, by delegating to itself until out of gas. Thus it is critical that this function revert if invoked through a proxy. This is guaranteed by the `notDelegated` modifier."
      },
      "resolveDispute(bool)": {
        "params": {
          "valid": "Whether the dispute was valid"
        }
      },
      "upgradeTo(address)": {
        "details": "Upgrade the implementation of the proxy to `newImplementation`. Calls {_authorizeUpgrade}. Emits an {Upgraded} event."
      },
      "upgradeToAndCall(address,bytes)": {
        "details": "Upgrade the implementation of the proxy to `newImplementation`, and subsequently execute the function call encoded in `data`. Calls {_authorizeUpgrade}. Emits an {Upgraded} event."
      }
    },
    "stateVariables": {
      "disputer": {
        "details": "Used to store if there is an ongoing dispute"
      }
    },
    "title": "Distributor",
    "version": 1
  },
  "userdoc": {
    "kind": "user",
    "methods": {
      "canUpdateMerkleRoot(address)": {
        "notice": "Trusted EOAs to update the Merkle root"
      },
      "claim(address[],address[],uint256[],bytes32[][])": {
        "notice": "Claims rewards for a given set of users"
      },
      "claimed(address,address)": {
        "notice": "Mapping user -> token -> amount to track claimed amounts"
      },
      "coreBorrow()": {
        "notice": "`CoreBorrow` contract handling access control"
      },
      "disputeAmount()": {
        "notice": "Amount to deposit to freeze the roots update"
      },
      "disputePeriod()": {
        "notice": "Time before which a change in a tree becomes effective"
      },
      "disputeToken()": {
        "notice": "Token to deposit to freeze the roots update"
      },
      "disputeTree(string)": {
        "notice": "Freezes the Merkle tree update until the dispute is resolved"
      },
      "disputer()": {
        "notice": "Address which created the dispute"
      },
      "getMerkleRoot()": {
        "notice": "Returns the MerkleRoot that is currently live for the contract"
      },
      "lastTree()": {
        "notice": "Tree that was in place in the contract before the last `tree` update"
      },
      "lastTreeUpdate()": {
        "notice": "Last time the `tree` was updated"
      },
      "onlyOperatorCanClaim(address)": {
        "notice": "Whether or not to disable permissionless claiming"
      },
      "operators(address,address)": {
        "notice": "user -> operator -> authorisation to claim"
      },
      "recoverERC20(address,address,uint256)": {
        "notice": "Recovers any ERC20 token"
      },
      "resolveDispute(bool)": {
        "notice": "Resolve the ongoing dispute, if any"
      },
      "revokeTree()": {
        "notice": "Allows the governor or the guardian of this contract to fallback to the last version of the tree immediately"
      },
      "setDisputeAmount(uint256)": {
        "notice": "Sets the amount of `disputeToken` used as a caution during disputes"
      },
      "setDisputePeriod(uint48)": {
        "notice": "Sets the dispute period before which a tree update becomes effective"
      },
      "setDisputeToken(address)": {
        "notice": "Sets the token used as a caution during disputes"
      },
      "toggleOnlyOperatorCanClaim(address)": {
        "notice": "Toggles permissioned claiming for a given user"
      },
      "toggleOperator(address,address)": {
        "notice": "Toggles whitelisting for a given user and a given operator"
      },
      "toggleTrusted(address)": {
        "notice": "Adds or removes EOAs which are trusted to update the Merkle root"
      },
      "tree()": {
        "notice": "Tree of claimable tokens through this contract"
      },
      "updateTree((bytes32,bytes32))": {
        "notice": "Updates Merkle Tree"
      }
    },
    "notice": "Allows AMMs LPs to claim the rewards that were distributed to them",
    "version": 1
  },
  "storageLayout": {
    "storage": [
      {
        "astId": 395,
        "contract": "contracts/Distributor.sol:Distributor",
        "label": "_initialized",
        "offset": 0,
        "slot": "0",
        "type": "t_uint8"
      },
      {
        "astId": 398,
        "contract": "contracts/Distributor.sol:Distributor",
        "label": "_initializing",
        "offset": 1,
        "slot": "0",
        "type": "t_bool"
      },
      {
        "astId": 377,
        "contract": "contracts/Distributor.sol:Distributor",
        "label": "__gap",
        "offset": 0,
        "slot": "1",
        "type": "t_array(t_uint256)50_storage"
      },
      {
        "astId": 692,
        "contract": "contracts/Distributor.sol:Distributor",
        "label": "__gap",
        "offset": 0,
        "slot": "51",
        "type": "t_array(t_uint256)50_storage"
      },
      {
        "astId": 7368,
        "contract": "contracts/Distributor.sol:Distributor",
        "label": "tree",
        "offset": 0,
        "slot": "101",
        "type": "t_struct(MerkleTree)7357_storage"
      },
      {
        "astId": 7372,
        "contract": "contracts/Distributor.sol:Distributor",
        "label": "lastTree",
        "offset": 0,
        "slot": "103",
        "type": "t_struct(MerkleTree)7357_storage"
      },
      {
        "astId": 7376,
        "contract": "contracts/Distributor.sol:Distributor",
        "label": "disputeToken",
        "offset": 0,
        "slot": "105",
        "type": "t_contract(IERC20)3433"
      },
      {
        "astId": 7380,
        "contract": "contracts/Distributor.sol:Distributor",
        "label": "coreBorrow",
        "offset": 0,
        "slot": "106",
        "type": "t_contract(ICoreBorrow)9581"
      },
      {
        "astId": 7383,
        "contract": "contracts/Distributor.sol:Distributor",
        "label": "disputer",
        "offset": 0,
        "slot": "107",
        "type": "t_address"
      },
      {
        "astId": 7386,
        "contract": "contracts/Distributor.sol:Distributor",
        "label": "lastTreeUpdate",
        "offset": 20,
        "slot": "107",
        "type": "t_uint48"
      },
      {
        "astId": 7389,
        "contract": "contracts/Distributor.sol:Distributor",
        "label": "disputePeriod",
        "offset": 26,
        "slot": "107",
        "type": "t_uint48"
      },
      {
        "astId": 7392,
        "contract": "contracts/Distributor.sol:Distributor",
        "label": "disputeAmount",
        "offset": 0,
        "slot": "108",
        "type": "t_uint256"
      },
      {
        "astId": 7399,
        "contract": "contracts/Distributor.sol:Distributor",
        "label": "claimed",
        "offset": 0,
        "slot": "109",
        "type": "t_mapping(t_address,t_mapping(t_address,t_uint256))"
      },
      {
        "astId": 7404,
        "contract": "contracts/Distributor.sol:Distributor",
        "label": "canUpdateMerkleRoot",
        "offset": 0,
        "slot": "110",
        "type": "t_mapping(t_address,t_uint256)"
      },
      {
        "astId": 7409,
        "contract": "contracts/Distributor.sol:Distributor",
        "label": "onlyOperatorCanClaim",
        "offset": 0,
        "slot": "111",
        "type": "t_mapping(t_address,t_uint256)"
      },
      {
        "astId": 7416,
        "contract": "contracts/Distributor.sol:Distributor",
        "label": "operators",
        "offset": 0,
        "slot": "112",
        "type": "t_mapping(t_address,t_mapping(t_address,t_uint256))"
      },
      {
        "astId": 7420,
        "contract": "contracts/Distributor.sol:Distributor",
        "label": "__gap",
        "offset": 0,
        "slot": "113",
        "type": "t_array(t_uint256)38_storage"
      }
    ],
    "types": {
      "t_address": {
        "encoding": "inplace",
        "label": "address",
        "numberOfBytes": "20"
      },
      "t_array(t_uint256)38_storage": {
        "base": "t_uint256",
        "encoding": "inplace",
        "label": "uint256[38]",
        "numberOfBytes": "1216"
      },
      "t_array(t_uint256)50_storage": {
        "base": "t_uint256",
        "encoding": "inplace",
        "label": "uint256[50]",
        "numberOfBytes": "1600"
      },
      "t_bool": {
        "encoding": "inplace",
        "label": "bool",
        "numberOfBytes": "1"
      },
      "t_bytes32": {
        "encoding": "inplace",
        "label": "bytes32",
        "numberOfBytes": "32"
      },
      "t_contract(ICoreBorrow)9581": {
        "encoding": "inplace",
        "label": "contract ICoreBorrow",
        "numberOfBytes": "20"
      },
      "t_contract(IERC20)3433": {
        "encoding": "inplace",
        "label": "contract IERC20",
        "numberOfBytes": "20"
      },
      "t_mapping(t_address,t_mapping(t_address,t_uint256))": {
        "encoding": "mapping",
        "key": "t_address",
        "label": "mapping(address => mapping(address => uint256))",
        "numberOfBytes": "32",
        "value": "t_mapping(t_address,t_uint256)"
      },
      "t_mapping(t_address,t_uint256)": {
        "encoding": "mapping",
        "key": "t_address",
        "label": "mapping(address => uint256)",
        "numberOfBytes": "32",
        "value": "t_uint256"
      },
      "t_struct(MerkleTree)7357_storage": {
        "encoding": "inplace",
        "label": "struct MerkleTree",
        "members": [
          {
            "astId": 7354,
            "contract": "contracts/Distributor.sol:Distributor",
            "label": "merkleRoot",
            "offset": 0,
            "slot": "0",
            "type": "t_bytes32"
          },
          {
            "astId": 7356,
            "contract": "contracts/Distributor.sol:Distributor",
            "label": "ipfsHash",
            "offset": 0,
            "slot": "1",
            "type": "t_bytes32"
          }
        ],
        "numberOfBytes": "64"
      },
      "t_uint256": {
        "encoding": "inplace",
        "label": "uint256",
        "numberOfBytes": "32"
      },
      "t_uint48": {
        "encoding": "inplace",
        "label": "uint48",
        "numberOfBytes": "6"
      },
      "t_uint8": {
        "encoding": "inplace",
        "label": "uint8",
        "numberOfBytes": "1"
      }
    }
  }
}