{
  "address": "0x743e6de7A9a6628161741CDf95De11d1e0c7437C",
  "abi": [
    {
      "inputs": [],
      "stateMutability": "nonpayable",
      "type": "constructor"
    },
    {
      "inputs": [],
      "name": "InvalidParam",
      "type": "error"
    },
    {
      "inputs": [],
      "name": "InvalidReward",
      "type": "error"
    },
    {
      "inputs": [],
      "name": "InvalidSignature",
      "type": "error"
    },
    {
      "inputs": [],
      "name": "NotGovernorOrGuardian",
      "type": "error"
    },
    {
      "inputs": [],
      "name": "NotSigned",
      "type": "error"
    },
    {
      "inputs": [],
      "name": "ZeroAddress",
      "type": "error"
    },
    {
      "anonymous": false,
      "inputs": [
        {
          "indexed": false,
          "internalType": "address",
          "name": "previousAdmin",
          "type": "address"
        },
        {
          "indexed": false,
          "internalType": "address",
          "name": "newAdmin",
          "type": "address"
        }
      ],
      "name": "AdminChanged",
      "type": "event"
    },
    {
      "anonymous": false,
      "inputs": [
        {
          "indexed": true,
          "internalType": "address",
          "name": "beacon",
          "type": "address"
        }
      ],
      "name": "BeaconUpgraded",
      "type": "event"
    },
    {
      "anonymous": false,
      "inputs": [
        {
          "indexed": true,
          "internalType": "address",
          "name": "_distributor",
          "type": "address"
        }
      ],
      "name": "DistributorUpdated",
      "type": "event"
    },
    {
      "anonymous": false,
      "inputs": [
        {
          "indexed": true,
          "internalType": "address",
          "name": "user",
          "type": "address"
        },
        {
          "indexed": false,
          "internalType": "uint256",
          "name": "userFeeRebate",
          "type": "uint256"
        }
      ],
      "name": "FeeRebateUpdated",
      "type": "event"
    },
    {
      "anonymous": false,
      "inputs": [
        {
          "indexed": true,
          "internalType": "address",
          "name": "_feeRecipient",
          "type": "address"
        }
      ],
      "name": "FeeRecipientUpdated",
      "type": "event"
    },
    {
      "anonymous": false,
      "inputs": [
        {
          "indexed": false,
          "internalType": "uint256",
          "name": "_fees",
          "type": "uint256"
        }
      ],
      "name": "FeesSet",
      "type": "event"
    },
    {
      "anonymous": false,
      "inputs": [
        {
          "indexed": false,
          "internalType": "uint8",
          "name": "version",
          "type": "uint8"
        }
      ],
      "name": "Initialized",
      "type": "event"
    },
    {
      "anonymous": false,
      "inputs": [
        {
          "indexed": false,
          "internalType": "bytes32",
          "name": "_messageHash",
          "type": "bytes32"
        }
      ],
      "name": "MessageUpdated",
      "type": "event"
    },
    {
      "anonymous": false,
      "inputs": [
        {
          "components": [
            {
              "internalType": "bytes32",
              "name": "rewardId",
              "type": "bytes32"
            },
            {
              "internalType": "address",
              "name": "uniV3Pool",
              "type": "address"
            },
            {
              "internalType": "address",
              "name": "rewardToken",
              "type": "address"
            },
            {
              "internalType": "uint256",
              "name": "amount",
              "type": "uint256"
            },
            {
              "internalType": "address[]",
              "name": "positionWrappers",
              "type": "address[]"
            },
            {
              "internalType": "uint32[]",
              "name": "wrapperTypes",
              "type": "uint32[]"
            },
            {
              "internalType": "uint32",
              "name": "propToken0",
              "type": "uint32"
            },
            {
              "internalType": "uint32",
              "name": "propToken1",
              "type": "uint32"
            },
            {
              "internalType": "uint32",
              "name": "propFees",
              "type": "uint32"
            },
            {
              "internalType": "uint32",
              "name": "epochStart",
              "type": "uint32"
            },
            {
              "internalType": "uint32",
              "name": "numEpoch",
              "type": "uint32"
            },
            {
              "internalType": "uint32",
              "name": "isOutOfRangeIncentivized",
              "type": "uint32"
            },
            {
              "internalType": "uint32",
              "name": "boostedReward",
              "type": "uint32"
            },
            {
              "internalType": "address",
              "name": "boostingAddress",
              "type": "address"
            },
            {
              "internalType": "bytes",
              "name": "additionalData",
              "type": "bytes"
            }
          ],
          "indexed": false,
          "internalType": "struct DistributionParameters",
          "name": "distribution",
          "type": "tuple"
        },
        {
          "indexed": true,
          "internalType": "address",
          "name": "sender",
          "type": "address"
        }
      ],
      "name": "NewDistribution",
      "type": "event"
    },
    {
      "anonymous": false,
      "inputs": [
        {
          "indexed": true,
          "internalType": "address",
          "name": "token",
          "type": "address"
        },
        {
          "indexed": false,
          "internalType": "uint256",
          "name": "toggleStatus",
          "type": "uint256"
        }
      ],
      "name": "TokenWhitelistToggled",
      "type": "event"
    },
    {
      "anonymous": false,
      "inputs": [
        {
          "indexed": true,
          "internalType": "address",
          "name": "implementation",
          "type": "address"
        }
      ],
      "name": "Upgraded",
      "type": "event"
    },
    {
      "anonymous": false,
      "inputs": [
        {
          "indexed": false,
          "internalType": "bytes32",
          "name": "messageHash",
          "type": "bytes32"
        },
        {
          "indexed": true,
          "internalType": "address",
          "name": "user",
          "type": "address"
        }
      ],
      "name": "UserSigned",
      "type": "event"
    },
    {
      "anonymous": false,
      "inputs": [
        {
          "indexed": true,
          "internalType": "address",
          "name": "user",
          "type": "address"
        },
        {
          "indexed": false,
          "internalType": "uint256",
          "name": "toggleStatus",
          "type": "uint256"
        }
      ],
      "name": "UserSigningWhitelistToggled",
      "type": "event"
    },
    {
      "inputs": [],
      "name": "BASE_9",
      "outputs": [
        {
          "internalType": "uint256",
          "name": "",
          "type": "uint256"
        }
      ],
      "stateMutability": "view",
      "type": "function"
    },
    {
      "inputs": [],
      "name": "EPOCH_DURATION",
      "outputs": [
        {
          "internalType": "uint32",
          "name": "",
          "type": "uint32"
        }
      ],
      "stateMutability": "view",
      "type": "function"
    },
    {
      "inputs": [],
      "name": "coreBorrow",
      "outputs": [
        {
          "internalType": "contract ICoreBorrow",
          "name": "",
          "type": "address"
        }
      ],
      "stateMutability": "view",
      "type": "function"
    },
    {
      "inputs": [
        {
          "components": [
            {
              "internalType": "bytes32",
              "name": "rewardId",
              "type": "bytes32"
            },
            {
              "internalType": "address",
              "name": "uniV3Pool",
              "type": "address"
            },
            {
              "internalType": "address",
              "name": "rewardToken",
              "type": "address"
            },
            {
              "internalType": "uint256",
              "name": "amount",
              "type": "uint256"
            },
            {
              "internalType": "address[]",
              "name": "positionWrappers",
              "type": "address[]"
            },
            {
              "internalType": "uint32[]",
              "name": "wrapperTypes",
              "type": "uint32[]"
            },
            {
              "internalType": "uint32",
              "name": "propToken0",
              "type": "uint32"
            },
            {
              "internalType": "uint32",
              "name": "propToken1",
              "type": "uint32"
            },
            {
              "internalType": "uint32",
              "name": "propFees",
              "type": "uint32"
            },
            {
              "internalType": "uint32",
              "name": "epochStart",
              "type": "uint32"
            },
            {
              "internalType": "uint32",
              "name": "numEpoch",
              "type": "uint32"
            },
            {
              "internalType": "uint32",
              "name": "isOutOfRangeIncentivized",
              "type": "uint32"
            },
            {
              "internalType": "uint32",
              "name": "boostedReward",
              "type": "uint32"
            },
            {
              "internalType": "address",
              "name": "boostingAddress",
              "type": "address"
            },
            {
              "internalType": "bytes",
              "name": "additionalData",
              "type": "bytes"
            }
          ],
          "internalType": "struct DistributionParameters",
          "name": "distribution",
          "type": "tuple"
        }
      ],
      "name": "createDistribution",
      "outputs": [
        {
          "internalType": "uint256",
          "name": "distributionAmount",
          "type": "uint256"
        }
      ],
      "stateMutability": "nonpayable",
      "type": "function"
    },
    {
      "inputs": [
        {
          "components": [
            {
              "internalType": "bytes32",
              "name": "rewardId",
              "type": "bytes32"
            },
            {
              "internalType": "address",
              "name": "uniV3Pool",
              "type": "address"
            },
            {
              "internalType": "address",
              "name": "rewardToken",
              "type": "address"
            },
            {
              "internalType": "uint256",
              "name": "amount",
              "type": "uint256"
            },
            {
              "internalType": "address[]",
              "name": "positionWrappers",
              "type": "address[]"
            },
            {
              "internalType": "uint32[]",
              "name": "wrapperTypes",
              "type": "uint32[]"
            },
            {
              "internalType": "uint32",
              "name": "propToken0",
              "type": "uint32"
            },
            {
              "internalType": "uint32",
              "name": "propToken1",
              "type": "uint32"
            },
            {
              "internalType": "uint32",
              "name": "propFees",
              "type": "uint32"
            },
            {
              "internalType": "uint32",
              "name": "epochStart",
              "type": "uint32"
            },
            {
              "internalType": "uint32",
              "name": "numEpoch",
              "type": "uint32"
            },
            {
              "internalType": "uint32",
              "name": "isOutOfRangeIncentivized",
              "type": "uint32"
            },
            {
              "internalType": "uint32",
              "name": "boostedReward",
              "type": "uint32"
            },
            {
              "internalType": "address",
              "name": "boostingAddress",
              "type": "address"
            },
            {
              "internalType": "bytes",
              "name": "additionalData",
              "type": "bytes"
            }
          ],
          "internalType": "struct DistributionParameters[]",
          "name": "distributions",
          "type": "tuple[]"
        }
      ],
      "name": "createDistributions",
      "outputs": [
        {
          "internalType": "uint256[]",
          "name": "",
          "type": "uint256[]"
        }
      ],
      "stateMutability": "nonpayable",
      "type": "function"
    },
    {
      "inputs": [
        {
          "internalType": "uint256",
          "name": "",
          "type": "uint256"
        }
      ],
      "name": "distributionList",
      "outputs": [
        {
          "internalType": "bytes32",
          "name": "rewardId",
          "type": "bytes32"
        },
        {
          "internalType": "address",
          "name": "uniV3Pool",
          "type": "address"
        },
        {
          "internalType": "address",
          "name": "rewardToken",
          "type": "address"
        },
        {
          "internalType": "uint256",
          "name": "amount",
          "type": "uint256"
        },
        {
          "internalType": "uint32",
          "name": "propToken0",
          "type": "uint32"
        },
        {
          "internalType": "uint32",
          "name": "propToken1",
          "type": "uint32"
        },
        {
          "internalType": "uint32",
          "name": "propFees",
          "type": "uint32"
        },
        {
          "internalType": "uint32",
          "name": "epochStart",
          "type": "uint32"
        },
        {
          "internalType": "uint32",
          "name": "numEpoch",
          "type": "uint32"
        },
        {
          "internalType": "uint32",
          "name": "isOutOfRangeIncentivized",
          "type": "uint32"
        },
        {
          "internalType": "uint32",
          "name": "boostedReward",
          "type": "uint32"
        },
        {
          "internalType": "address",
          "name": "boostingAddress",
          "type": "address"
        },
        {
          "internalType": "bytes",
          "name": "additionalData",
          "type": "bytes"
        }
      ],
      "stateMutability": "view",
      "type": "function"
    },
    {
      "inputs": [],
      "name": "distributor",
      "outputs": [
        {
          "internalType": "address",
          "name": "",
          "type": "address"
        }
      ],
      "stateMutability": "view",
      "type": "function"
    },
    {
      "inputs": [
        {
          "internalType": "address",
          "name": "",
          "type": "address"
        }
      ],
      "name": "feeRebate",
      "outputs": [
        {
          "internalType": "uint256",
          "name": "",
          "type": "uint256"
        }
      ],
      "stateMutability": "view",
      "type": "function"
    },
    {
      "inputs": [],
      "name": "feeRecipient",
      "outputs": [
        {
          "internalType": "address",
          "name": "",
          "type": "address"
        }
      ],
      "stateMutability": "view",
      "type": "function"
    },
    {
      "inputs": [],
      "name": "fees",
      "outputs": [
        {
          "internalType": "uint256",
          "name": "",
          "type": "uint256"
        }
      ],
      "stateMutability": "view",
      "type": "function"
    },
    {
      "inputs": [],
      "name": "getActiveDistributions",
      "outputs": [
        {
          "components": [
            {
              "components": [
                {
                  "internalType": "bytes32",
                  "name": "rewardId",
                  "type": "bytes32"
                },
                {
                  "internalType": "address",
                  "name": "uniV3Pool",
                  "type": "address"
                },
                {
                  "internalType": "address",
                  "name": "rewardToken",
                  "type": "address"
                },
                {
                  "internalType": "uint256",
                  "name": "amount",
                  "type": "uint256"
                },
                {
                  "internalType": "address[]",
                  "name": "positionWrappers",
                  "type": "address[]"
                },
                {
                  "internalType": "uint32[]",
                  "name": "wrapperTypes",
                  "type": "uint32[]"
                },
                {
                  "internalType": "uint32",
                  "name": "propToken0",
                  "type": "uint32"
                },
                {
                  "internalType": "uint32",
                  "name": "propToken1",
                  "type": "uint32"
                },
                {
                  "internalType": "uint32",
                  "name": "propFees",
                  "type": "uint32"
                },
                {
                  "internalType": "uint32",
                  "name": "epochStart",
                  "type": "uint32"
                },
                {
                  "internalType": "uint32",
                  "name": "numEpoch",
                  "type": "uint32"
                },
                {
                  "internalType": "uint32",
                  "name": "isOutOfRangeIncentivized",
                  "type": "uint32"
                },
                {
                  "internalType": "uint32",
                  "name": "boostedReward",
                  "type": "uint32"
                },
                {
                  "internalType": "address",
                  "name": "boostingAddress",
                  "type": "address"
                },
                {
                  "internalType": "bytes",
                  "name": "additionalData",
                  "type": "bytes"
                }
              ],
              "internalType": "struct DistributionParameters",
              "name": "base",
              "type": "tuple"
            },
            {
              "internalType": "uint24",
              "name": "poolFee",
              "type": "uint24"
            },
            {
              "components": [
                {
                  "internalType": "address",
                  "name": "add",
                  "type": "address"
                },
                {
                  "internalType": "uint8",
                  "name": "decimals",
                  "type": "uint8"
                },
                {
                  "internalType": "string",
                  "name": "symbol",
                  "type": "string"
                },
                {
                  "internalType": "uint256",
                  "name": "poolBalance",
                  "type": "uint256"
                }
              ],
              "internalType": "struct UniswapTokenData",
              "name": "token0",
              "type": "tuple"
            },
            {
              "components": [
                {
                  "internalType": "address",
                  "name": "add",
                  "type": "address"
                },
                {
                  "internalType": "uint8",
                  "name": "decimals",
                  "type": "uint8"
                },
                {
                  "internalType": "string",
                  "name": "symbol",
                  "type": "string"
                },
                {
                  "internalType": "uint256",
                  "name": "poolBalance",
                  "type": "uint256"
                }
              ],
              "internalType": "struct UniswapTokenData",
              "name": "token1",
              "type": "tuple"
            },
            {
              "internalType": "string",
              "name": "rewardTokenSymbol",
              "type": "string"
            },
            {
              "internalType": "uint8",
              "name": "rewardTokenDecimals",
              "type": "uint8"
            }
          ],
          "internalType": "struct ExtensiveDistributionParameters[]",
          "name": "",
          "type": "tuple[]"
        }
      ],
      "stateMutability": "view",
      "type": "function"
    },
    {
      "inputs": [
        {
          "internalType": "address",
          "name": "uniV3Pool",
          "type": "address"
        }
      ],
      "name": "getActivePoolDistributions",
      "outputs": [
        {
          "components": [
            {
              "components": [
                {
                  "internalType": "bytes32",
                  "name": "rewardId",
                  "type": "bytes32"
                },
                {
                  "internalType": "address",
                  "name": "uniV3Pool",
                  "type": "address"
                },
                {
                  "internalType": "address",
                  "name": "rewardToken",
                  "type": "address"
                },
                {
                  "internalType": "uint256",
                  "name": "amount",
                  "type": "uint256"
                },
                {
                  "internalType": "address[]",
                  "name": "positionWrappers",
                  "type": "address[]"
                },
                {
                  "internalType": "uint32[]",
                  "name": "wrapperTypes",
                  "type": "uint32[]"
                },
                {
                  "internalType": "uint32",
                  "name": "propToken0",
                  "type": "uint32"
                },
                {
                  "internalType": "uint32",
                  "name": "propToken1",
                  "type": "uint32"
                },
                {
                  "internalType": "uint32",
                  "name": "propFees",
                  "type": "uint32"
                },
                {
                  "internalType": "uint32",
                  "name": "epochStart",
                  "type": "uint32"
                },
                {
                  "internalType": "uint32",
                  "name": "numEpoch",
                  "type": "uint32"
                },
                {
                  "internalType": "uint32",
                  "name": "isOutOfRangeIncentivized",
                  "type": "uint32"
                },
                {
                  "internalType": "uint32",
                  "name": "boostedReward",
                  "type": "uint32"
                },
                {
                  "internalType": "address",
                  "name": "boostingAddress",
                  "type": "address"
                },
                {
                  "internalType": "bytes",
                  "name": "additionalData",
                  "type": "bytes"
                }
              ],
              "internalType": "struct DistributionParameters",
              "name": "base",
              "type": "tuple"
            },
            {
              "internalType": "uint24",
              "name": "poolFee",
              "type": "uint24"
            },
            {
              "components": [
                {
                  "internalType": "address",
                  "name": "add",
                  "type": "address"
                },
                {
                  "internalType": "uint8",
                  "name": "decimals",
                  "type": "uint8"
                },
                {
                  "internalType": "string",
                  "name": "symbol",
                  "type": "string"
                },
                {
                  "internalType": "uint256",
                  "name": "poolBalance",
                  "type": "uint256"
                }
              ],
              "internalType": "struct UniswapTokenData",
              "name": "token0",
              "type": "tuple"
            },
            {
              "components": [
                {
                  "internalType": "address",
                  "name": "add",
                  "type": "address"
                },
                {
                  "internalType": "uint8",
                  "name": "decimals",
                  "type": "uint8"
                },
                {
                  "internalType": "string",
                  "name": "symbol",
                  "type": "string"
                },
                {
                  "internalType": "uint256",
                  "name": "poolBalance",
                  "type": "uint256"
                }
              ],
              "internalType": "struct UniswapTokenData",
              "name": "token1",
              "type": "tuple"
            },
            {
              "internalType": "string",
              "name": "rewardTokenSymbol",
              "type": "string"
            },
            {
              "internalType": "uint8",
              "name": "rewardTokenDecimals",
              "type": "uint8"
            }
          ],
          "internalType": "struct ExtensiveDistributionParameters[]",
          "name": "",
          "type": "tuple[]"
        }
      ],
      "stateMutability": "view",
      "type": "function"
    },
    {
      "inputs": [],
      "name": "getAllDistributions",
      "outputs": [
        {
          "components": [
            {
              "internalType": "bytes32",
              "name": "rewardId",
              "type": "bytes32"
            },
            {
              "internalType": "address",
              "name": "uniV3Pool",
              "type": "address"
            },
            {
              "internalType": "address",
              "name": "rewardToken",
              "type": "address"
            },
            {
              "internalType": "uint256",
              "name": "amount",
              "type": "uint256"
            },
            {
              "internalType": "address[]",
              "name": "positionWrappers",
              "type": "address[]"
            },
            {
              "internalType": "uint32[]",
              "name": "wrapperTypes",
              "type": "uint32[]"
            },
            {
              "internalType": "uint32",
              "name": "propToken0",
              "type": "uint32"
            },
            {
              "internalType": "uint32",
              "name": "propToken1",
              "type": "uint32"
            },
            {
              "internalType": "uint32",
              "name": "propFees",
              "type": "uint32"
            },
            {
              "internalType": "uint32",
              "name": "epochStart",
              "type": "uint32"
            },
            {
              "internalType": "uint32",
              "name": "numEpoch",
              "type": "uint32"
            },
            {
              "internalType": "uint32",
              "name": "isOutOfRangeIncentivized",
              "type": "uint32"
            },
            {
              "internalType": "uint32",
              "name": "boostedReward",
              "type": "uint32"
            },
            {
              "internalType": "address",
              "name": "boostingAddress",
              "type": "address"
            },
            {
              "internalType": "bytes",
              "name": "additionalData",
              "type": "bytes"
            }
          ],
          "internalType": "struct DistributionParameters[]",
          "name": "",
          "type": "tuple[]"
        }
      ],
      "stateMutability": "view",
      "type": "function"
    },
    {
      "inputs": [
        {
          "internalType": "uint32",
          "name": "epochStart",
          "type": "uint32"
        }
      ],
      "name": "getDistributionsAfterEpoch",
      "outputs": [
        {
          "components": [
            {
              "components": [
                {
                  "internalType": "bytes32",
                  "name": "rewardId",
                  "type": "bytes32"
                },
                {
                  "internalType": "address",
                  "name": "uniV3Pool",
                  "type": "address"
                },
                {
                  "internalType": "address",
                  "name": "rewardToken",
                  "type": "address"
                },
                {
                  "internalType": "uint256",
                  "name": "amount",
                  "type": "uint256"
                },
                {
                  "internalType": "address[]",
                  "name": "positionWrappers",
                  "type": "address[]"
                },
                {
                  "internalType": "uint32[]",
                  "name": "wrapperTypes",
                  "type": "uint32[]"
                },
                {
                  "internalType": "uint32",
                  "name": "propToken0",
                  "type": "uint32"
                },
                {
                  "internalType": "uint32",
                  "name": "propToken1",
                  "type": "uint32"
                },
                {
                  "internalType": "uint32",
                  "name": "propFees",
                  "type": "uint32"
                },
                {
                  "internalType": "uint32",
                  "name": "epochStart",
                  "type": "uint32"
                },
                {
                  "internalType": "uint32",
                  "name": "numEpoch",
                  "type": "uint32"
                },
                {
                  "internalType": "uint32",
                  "name": "isOutOfRangeIncentivized",
                  "type": "uint32"
                },
                {
                  "internalType": "uint32",
                  "name": "boostedReward",
                  "type": "uint32"
                },
                {
                  "internalType": "address",
                  "name": "boostingAddress",
                  "type": "address"
                },
                {
                  "internalType": "bytes",
                  "name": "additionalData",
                  "type": "bytes"
                }
              ],
              "internalType": "struct DistributionParameters",
              "name": "base",
              "type": "tuple"
            },
            {
              "internalType": "uint24",
              "name": "poolFee",
              "type": "uint24"
            },
            {
              "components": [
                {
                  "internalType": "address",
                  "name": "add",
                  "type": "address"
                },
                {
                  "internalType": "uint8",
                  "name": "decimals",
                  "type": "uint8"
                },
                {
                  "internalType": "string",
                  "name": "symbol",
                  "type": "string"
                },
                {
                  "internalType": "uint256",
                  "name": "poolBalance",
                  "type": "uint256"
                }
              ],
              "internalType": "struct UniswapTokenData",
              "name": "token0",
              "type": "tuple"
            },
            {
              "components": [
                {
                  "internalType": "address",
                  "name": "add",
                  "type": "address"
                },
                {
                  "internalType": "uint8",
                  "name": "decimals",
                  "type": "uint8"
                },
                {
                  "internalType": "string",
                  "name": "symbol",
                  "type": "string"
                },
                {
                  "internalType": "uint256",
                  "name": "poolBalance",
                  "type": "uint256"
                }
              ],
              "internalType": "struct UniswapTokenData",
              "name": "token1",
              "type": "tuple"
            },
            {
              "internalType": "string",
              "name": "rewardTokenSymbol",
              "type": "string"
            },
            {
              "internalType": "uint8",
              "name": "rewardTokenDecimals",
              "type": "uint8"
            }
          ],
          "internalType": "struct ExtensiveDistributionParameters[]",
          "name": "",
          "type": "tuple[]"
        }
      ],
      "stateMutability": "view",
      "type": "function"
    },
    {
      "inputs": [
        {
          "internalType": "uint32",
          "name": "epochStart",
          "type": "uint32"
        },
        {
          "internalType": "uint32",
          "name": "epochEnd",
          "type": "uint32"
        }
      ],
      "name": "getDistributionsBetweenEpochs",
      "outputs": [
        {
          "components": [
            {
              "components": [
                {
                  "internalType": "bytes32",
                  "name": "rewardId",
                  "type": "bytes32"
                },
                {
                  "internalType": "address",
                  "name": "uniV3Pool",
                  "type": "address"
                },
                {
                  "internalType": "address",
                  "name": "rewardToken",
                  "type": "address"
                },
                {
                  "internalType": "uint256",
                  "name": "amount",
                  "type": "uint256"
                },
                {
                  "internalType": "address[]",
                  "name": "positionWrappers",
                  "type": "address[]"
                },
                {
                  "internalType": "uint32[]",
                  "name": "wrapperTypes",
                  "type": "uint32[]"
                },
                {
                  "internalType": "uint32",
                  "name": "propToken0",
                  "type": "uint32"
                },
                {
                  "internalType": "uint32",
                  "name": "propToken1",
                  "type": "uint32"
                },
                {
                  "internalType": "uint32",
                  "name": "propFees",
                  "type": "uint32"
                },
                {
                  "internalType": "uint32",
                  "name": "epochStart",
                  "type": "uint32"
                },
                {
                  "internalType": "uint32",
                  "name": "numEpoch",
                  "type": "uint32"
                },
                {
                  "internalType": "uint32",
                  "name": "isOutOfRangeIncentivized",
                  "type": "uint32"
                },
                {
                  "internalType": "uint32",
                  "name": "boostedReward",
                  "type": "uint32"
                },
                {
                  "internalType": "address",
                  "name": "boostingAddress",
                  "type": "address"
                },
                {
                  "internalType": "bytes",
                  "name": "additionalData",
                  "type": "bytes"
                }
              ],
              "internalType": "struct DistributionParameters",
              "name": "base",
              "type": "tuple"
            },
            {
              "internalType": "uint24",
              "name": "poolFee",
              "type": "uint24"
            },
            {
              "components": [
                {
                  "internalType": "address",
                  "name": "add",
                  "type": "address"
                },
                {
                  "internalType": "uint8",
                  "name": "decimals",
                  "type": "uint8"
                },
                {
                  "internalType": "string",
                  "name": "symbol",
                  "type": "string"
                },
                {
                  "internalType": "uint256",
                  "name": "poolBalance",
                  "type": "uint256"
                }
              ],
              "internalType": "struct UniswapTokenData",
              "name": "token0",
              "type": "tuple"
            },
            {
              "components": [
                {
                  "internalType": "address",
                  "name": "add",
                  "type": "address"
                },
                {
                  "internalType": "uint8",
                  "name": "decimals",
                  "type": "uint8"
                },
                {
                  "internalType": "string",
                  "name": "symbol",
                  "type": "string"
                },
                {
                  "internalType": "uint256",
                  "name": "poolBalance",
                  "type": "uint256"
                }
              ],
              "internalType": "struct UniswapTokenData",
              "name": "token1",
              "type": "tuple"
            },
            {
              "internalType": "string",
              "name": "rewardTokenSymbol",
              "type": "string"
            },
            {
              "internalType": "uint8",
              "name": "rewardTokenDecimals",
              "type": "uint8"
            }
          ],
          "internalType": "struct ExtensiveDistributionParameters[]",
          "name": "",
          "type": "tuple[]"
        }
      ],
      "stateMutability": "view",
      "type": "function"
    },
    {
      "inputs": [
        {
          "internalType": "uint32",
          "name": "epoch",
          "type": "uint32"
        }
      ],
      "name": "getDistributionsForEpoch",
      "outputs": [
        {
          "components": [
            {
              "components": [
                {
                  "internalType": "bytes32",
                  "name": "rewardId",
                  "type": "bytes32"
                },
                {
                  "internalType": "address",
                  "name": "uniV3Pool",
                  "type": "address"
                },
                {
                  "internalType": "address",
                  "name": "rewardToken",
                  "type": "address"
                },
                {
                  "internalType": "uint256",
                  "name": "amount",
                  "type": "uint256"
                },
                {
                  "internalType": "address[]",
                  "name": "positionWrappers",
                  "type": "address[]"
                },
                {
                  "internalType": "uint32[]",
                  "name": "wrapperTypes",
                  "type": "uint32[]"
                },
                {
                  "internalType": "uint32",
                  "name": "propToken0",
                  "type": "uint32"
                },
                {
                  "internalType": "uint32",
                  "name": "propToken1",
                  "type": "uint32"
                },
                {
                  "internalType": "uint32",
                  "name": "propFees",
                  "type": "uint32"
                },
                {
                  "internalType": "uint32",
                  "name": "epochStart",
                  "type": "uint32"
                },
                {
                  "internalType": "uint32",
                  "name": "numEpoch",
                  "type": "uint32"
                },
                {
                  "internalType": "uint32",
                  "name": "isOutOfRangeIncentivized",
                  "type": "uint32"
                },
                {
                  "internalType": "uint32",
                  "name": "boostedReward",
                  "type": "uint32"
                },
                {
                  "internalType": "address",
                  "name": "boostingAddress",
                  "type": "address"
                },
                {
                  "internalType": "bytes",
                  "name": "additionalData",
                  "type": "bytes"
                }
              ],
              "internalType": "struct DistributionParameters",
              "name": "base",
              "type": "tuple"
            },
            {
              "internalType": "uint24",
              "name": "poolFee",
              "type": "uint24"
            },
            {
              "components": [
                {
                  "internalType": "address",
                  "name": "add",
                  "type": "address"
                },
                {
                  "internalType": "uint8",
                  "name": "decimals",
                  "type": "uint8"
                },
                {
                  "internalType": "string",
                  "name": "symbol",
                  "type": "string"
                },
                {
                  "internalType": "uint256",
                  "name": "poolBalance",
                  "type": "uint256"
                }
              ],
              "internalType": "struct UniswapTokenData",
              "name": "token0",
              "type": "tuple"
            },
            {
              "components": [
                {
                  "internalType": "address",
                  "name": "add",
                  "type": "address"
                },
                {
                  "internalType": "uint8",
                  "name": "decimals",
                  "type": "uint8"
                },
                {
                  "internalType": "string",
                  "name": "symbol",
                  "type": "string"
                },
                {
                  "internalType": "uint256",
                  "name": "poolBalance",
                  "type": "uint256"
                }
              ],
              "internalType": "struct UniswapTokenData",
              "name": "token1",
              "type": "tuple"
            },
            {
              "internalType": "string",
              "name": "rewardTokenSymbol",
              "type": "string"
            },
            {
              "internalType": "uint8",
              "name": "rewardTokenDecimals",
              "type": "uint8"
            }
          ],
          "internalType": "struct ExtensiveDistributionParameters[]",
          "name": "",
          "type": "tuple[]"
        }
      ],
      "stateMutability": "view",
      "type": "function"
    },
    {
      "inputs": [
        {
          "internalType": "address",
          "name": "uniV3Pool",
          "type": "address"
        },
        {
          "internalType": "uint32",
          "name": "epochStart",
          "type": "uint32"
        }
      ],
      "name": "getPoolDistributionsAfterEpoch",
      "outputs": [
        {
          "components": [
            {
              "components": [
                {
                  "internalType": "bytes32",
                  "name": "rewardId",
                  "type": "bytes32"
                },
                {
                  "internalType": "address",
                  "name": "uniV3Pool",
                  "type": "address"
                },
                {
                  "internalType": "address",
                  "name": "rewardToken",
                  "type": "address"
                },
                {
                  "internalType": "uint256",
                  "name": "amount",
                  "type": "uint256"
                },
                {
                  "internalType": "address[]",
                  "name": "positionWrappers",
                  "type": "address[]"
                },
                {
                  "internalType": "uint32[]",
                  "name": "wrapperTypes",
                  "type": "uint32[]"
                },
                {
                  "internalType": "uint32",
                  "name": "propToken0",
                  "type": "uint32"
                },
                {
                  "internalType": "uint32",
                  "name": "propToken1",
                  "type": "uint32"
                },
                {
                  "internalType": "uint32",
                  "name": "propFees",
                  "type": "uint32"
                },
                {
                  "internalType": "uint32",
                  "name": "epochStart",
                  "type": "uint32"
                },
                {
                  "internalType": "uint32",
                  "name": "numEpoch",
                  "type": "uint32"
                },
                {
                  "internalType": "uint32",
                  "name": "isOutOfRangeIncentivized",
                  "type": "uint32"
                },
                {
                  "internalType": "uint32",
                  "name": "boostedReward",
                  "type": "uint32"
                },
                {
                  "internalType": "address",
                  "name": "boostingAddress",
                  "type": "address"
                },
                {
                  "internalType": "bytes",
                  "name": "additionalData",
                  "type": "bytes"
                }
              ],
              "internalType": "struct DistributionParameters",
              "name": "base",
              "type": "tuple"
            },
            {
              "internalType": "uint24",
              "name": "poolFee",
              "type": "uint24"
            },
            {
              "components": [
                {
                  "internalType": "address",
                  "name": "add",
                  "type": "address"
                },
                {
                  "internalType": "uint8",
                  "name": "decimals",
                  "type": "uint8"
                },
                {
                  "internalType": "string",
                  "name": "symbol",
                  "type": "string"
                },
                {
                  "internalType": "uint256",
                  "name": "poolBalance",
                  "type": "uint256"
                }
              ],
              "internalType": "struct UniswapTokenData",
              "name": "token0",
              "type": "tuple"
            },
            {
              "components": [
                {
                  "internalType": "address",
                  "name": "add",
                  "type": "address"
                },
                {
                  "internalType": "uint8",
                  "name": "decimals",
                  "type": "uint8"
                },
                {
                  "internalType": "string",
                  "name": "symbol",
                  "type": "string"
                },
                {
                  "internalType": "uint256",
                  "name": "poolBalance",
                  "type": "uint256"
                }
              ],
              "internalType": "struct UniswapTokenData",
              "name": "token1",
              "type": "tuple"
            },
            {
              "internalType": "string",
              "name": "rewardTokenSymbol",
              "type": "string"
            },
            {
              "internalType": "uint8",
              "name": "rewardTokenDecimals",
              "type": "uint8"
            }
          ],
          "internalType": "struct ExtensiveDistributionParameters[]",
          "name": "",
          "type": "tuple[]"
        }
      ],
      "stateMutability": "view",
      "type": "function"
    },
    {
      "inputs": [
        {
          "internalType": "address",
          "name": "uniV3Pool",
          "type": "address"
        },
        {
          "internalType": "uint32",
          "name": "epochStart",
          "type": "uint32"
        },
        {
          "internalType": "uint32",
          "name": "epochEnd",
          "type": "uint32"
        }
      ],
      "name": "getPoolDistributionsBetweenEpochs",
      "outputs": [
        {
          "components": [
            {
              "components": [
                {
                  "internalType": "bytes32",
                  "name": "rewardId",
                  "type": "bytes32"
                },
                {
                  "internalType": "address",
                  "name": "uniV3Pool",
                  "type": "address"
                },
                {
                  "internalType": "address",
                  "name": "rewardToken",
                  "type": "address"
                },
                {
                  "internalType": "uint256",
                  "name": "amount",
                  "type": "uint256"
                },
                {
                  "internalType": "address[]",
                  "name": "positionWrappers",
                  "type": "address[]"
                },
                {
                  "internalType": "uint32[]",
                  "name": "wrapperTypes",
                  "type": "uint32[]"
                },
                {
                  "internalType": "uint32",
                  "name": "propToken0",
                  "type": "uint32"
                },
                {
                  "internalType": "uint32",
                  "name": "propToken1",
                  "type": "uint32"
                },
                {
                  "internalType": "uint32",
                  "name": "propFees",
                  "type": "uint32"
                },
                {
                  "internalType": "uint32",
                  "name": "epochStart",
                  "type": "uint32"
                },
                {
                  "internalType": "uint32",
                  "name": "numEpoch",
                  "type": "uint32"
                },
                {
                  "internalType": "uint32",
                  "name": "isOutOfRangeIncentivized",
                  "type": "uint32"
                },
                {
                  "internalType": "uint32",
                  "name": "boostedReward",
                  "type": "uint32"
                },
                {
                  "internalType": "address",
                  "name": "boostingAddress",
                  "type": "address"
                },
                {
                  "internalType": "bytes",
                  "name": "additionalData",
                  "type": "bytes"
                }
              ],
              "internalType": "struct DistributionParameters",
              "name": "base",
              "type": "tuple"
            },
            {
              "internalType": "uint24",
              "name": "poolFee",
              "type": "uint24"
            },
            {
              "components": [
                {
                  "internalType": "address",
                  "name": "add",
                  "type": "address"
                },
                {
                  "internalType": "uint8",
                  "name": "decimals",
                  "type": "uint8"
                },
                {
                  "internalType": "string",
                  "name": "symbol",
                  "type": "string"
                },
                {
                  "internalType": "uint256",
                  "name": "poolBalance",
                  "type": "uint256"
                }
              ],
              "internalType": "struct UniswapTokenData",
              "name": "token0",
              "type": "tuple"
            },
            {
              "components": [
                {
                  "internalType": "address",
                  "name": "add",
                  "type": "address"
                },
                {
                  "internalType": "uint8",
                  "name": "decimals",
                  "type": "uint8"
                },
                {
                  "internalType": "string",
                  "name": "symbol",
                  "type": "string"
                },
                {
                  "internalType": "uint256",
                  "name": "poolBalance",
                  "type": "uint256"
                }
              ],
              "internalType": "struct UniswapTokenData",
              "name": "token1",
              "type": "tuple"
            },
            {
              "internalType": "string",
              "name": "rewardTokenSymbol",
              "type": "string"
            },
            {
              "internalType": "uint8",
              "name": "rewardTokenDecimals",
              "type": "uint8"
            }
          ],
          "internalType": "struct ExtensiveDistributionParameters[]",
          "name": "",
          "type": "tuple[]"
        }
      ],
      "stateMutability": "view",
      "type": "function"
    },
    {
      "inputs": [
        {
          "internalType": "address",
          "name": "uniV3Pool",
          "type": "address"
        },
        {
          "internalType": "uint32",
          "name": "epoch",
          "type": "uint32"
        }
      ],
      "name": "getPoolDistributionsForEpoch",
      "outputs": [
        {
          "components": [
            {
              "components": [
                {
                  "internalType": "bytes32",
                  "name": "rewardId",
                  "type": "bytes32"
                },
                {
                  "internalType": "address",
                  "name": "uniV3Pool",
                  "type": "address"
                },
                {
                  "internalType": "address",
                  "name": "rewardToken",
                  "type": "address"
                },
                {
                  "internalType": "uint256",
                  "name": "amount",
                  "type": "uint256"
                },
                {
                  "internalType": "address[]",
                  "name": "positionWrappers",
                  "type": "address[]"
                },
                {
                  "internalType": "uint32[]",
                  "name": "wrapperTypes",
                  "type": "uint32[]"
                },
                {
                  "internalType": "uint32",
                  "name": "propToken0",
                  "type": "uint32"
                },
                {
                  "internalType": "uint32",
                  "name": "propToken1",
                  "type": "uint32"
                },
                {
                  "internalType": "uint32",
                  "name": "propFees",
                  "type": "uint32"
                },
                {
                  "internalType": "uint32",
                  "name": "epochStart",
                  "type": "uint32"
                },
                {
                  "internalType": "uint32",
                  "name": "numEpoch",
                  "type": "uint32"
                },
                {
                  "internalType": "uint32",
                  "name": "isOutOfRangeIncentivized",
                  "type": "uint32"
                },
                {
                  "internalType": "uint32",
                  "name": "boostedReward",
                  "type": "uint32"
                },
                {
                  "internalType": "address",
                  "name": "boostingAddress",
                  "type": "address"
                },
                {
                  "internalType": "bytes",
                  "name": "additionalData",
                  "type": "bytes"
                }
              ],
              "internalType": "struct DistributionParameters",
              "name": "base",
              "type": "tuple"
            },
            {
              "internalType": "uint24",
              "name": "poolFee",
              "type": "uint24"
            },
            {
              "components": [
                {
                  "internalType": "address",
                  "name": "add",
                  "type": "address"
                },
                {
                  "internalType": "uint8",
                  "name": "decimals",
                  "type": "uint8"
                },
                {
                  "internalType": "string",
                  "name": "symbol",
                  "type": "string"
                },
                {
                  "internalType": "uint256",
                  "name": "poolBalance",
                  "type": "uint256"
                }
              ],
              "internalType": "struct UniswapTokenData",
              "name": "token0",
              "type": "tuple"
            },
            {
              "components": [
                {
                  "internalType": "address",
                  "name": "add",
                  "type": "address"
                },
                {
                  "internalType": "uint8",
                  "name": "decimals",
                  "type": "uint8"
                },
                {
                  "internalType": "string",
                  "name": "symbol",
                  "type": "string"
                },
                {
                  "internalType": "uint256",
                  "name": "poolBalance",
                  "type": "uint256"
                }
              ],
              "internalType": "struct UniswapTokenData",
              "name": "token1",
              "type": "tuple"
            },
            {
              "internalType": "string",
              "name": "rewardTokenSymbol",
              "type": "string"
            },
            {
              "internalType": "uint8",
              "name": "rewardTokenDecimals",
              "type": "uint8"
            }
          ],
          "internalType": "struct ExtensiveDistributionParameters[]",
          "name": "",
          "type": "tuple[]"
        }
      ],
      "stateMutability": "view",
      "type": "function"
    },
    {
      "inputs": [
        {
          "internalType": "contract ICoreBorrow",
          "name": "_coreBorrow",
          "type": "address"
        },
        {
          "internalType": "address",
          "name": "_distributor",
          "type": "address"
        },
        {
          "internalType": "uint256",
          "name": "_fees",
          "type": "uint256"
        }
      ],
      "name": "initialize",
      "outputs": [],
      "stateMutability": "nonpayable",
      "type": "function"
    },
    {
      "inputs": [
        {
          "internalType": "address",
          "name": "",
          "type": "address"
        }
      ],
      "name": "isWhitelistedToken",
      "outputs": [
        {
          "internalType": "uint256",
          "name": "",
          "type": "uint256"
        }
      ],
      "stateMutability": "view",
      "type": "function"
    },
    {
      "inputs": [],
      "name": "message",
      "outputs": [
        {
          "internalType": "string",
          "name": "",
          "type": "string"
        }
      ],
      "stateMutability": "view",
      "type": "function"
    },
    {
      "inputs": [],
      "name": "messageHash",
      "outputs": [
        {
          "internalType": "bytes32",
          "name": "",
          "type": "bytes32"
        }
      ],
      "stateMutability": "view",
      "type": "function"
    },
    {
      "inputs": [
        {
          "internalType": "address",
          "name": "",
          "type": "address"
        }
      ],
      "name": "nonces",
      "outputs": [
        {
          "internalType": "uint256",
          "name": "",
          "type": "uint256"
        }
      ],
      "stateMutability": "view",
      "type": "function"
    },
    {
      "inputs": [],
      "name": "proxiableUUID",
      "outputs": [
        {
          "internalType": "bytes32",
          "name": "",
          "type": "bytes32"
        }
      ],
      "stateMutability": "view",
      "type": "function"
    },
    {
      "inputs": [
        {
          "internalType": "contract IERC20[]",
          "name": "tokens",
          "type": "address[]"
        },
        {
          "internalType": "address",
          "name": "to",
          "type": "address"
        }
      ],
      "name": "recoverFees",
      "outputs": [],
      "stateMutability": "nonpayable",
      "type": "function"
    },
    {
      "inputs": [
        {
          "internalType": "address",
          "name": "_feeRecipient",
          "type": "address"
        }
      ],
      "name": "setFeeRecipient",
      "outputs": [],
      "stateMutability": "nonpayable",
      "type": "function"
    },
    {
      "inputs": [
        {
          "internalType": "uint256",
          "name": "_fees",
          "type": "uint256"
        }
      ],
      "name": "setFees",
      "outputs": [],
      "stateMutability": "nonpayable",
      "type": "function"
    },
    {
      "inputs": [
        {
          "internalType": "string",
          "name": "_message",
          "type": "string"
        }
      ],
      "name": "setMessage",
      "outputs": [],
      "stateMutability": "nonpayable",
      "type": "function"
    },
    {
      "inputs": [
        {
          "internalType": "address",
          "name": "_distributor",
          "type": "address"
        }
      ],
      "name": "setNewDistributor",
      "outputs": [],
      "stateMutability": "nonpayable",
      "type": "function"
    },
    {
      "inputs": [
        {
          "internalType": "address",
          "name": "user",
          "type": "address"
        },
        {
          "internalType": "uint256",
          "name": "userFeeRebate",
          "type": "uint256"
        }
      ],
      "name": "setUserFeeRebate",
      "outputs": [],
      "stateMutability": "nonpayable",
      "type": "function"
    },
    {
      "inputs": [
        {
          "internalType": "bytes",
          "name": "signature",
          "type": "bytes"
        }
      ],
      "name": "sign",
      "outputs": [],
      "stateMutability": "nonpayable",
      "type": "function"
    },
    {
      "inputs": [
        {
          "components": [
            {
              "internalType": "bytes32",
              "name": "rewardId",
              "type": "bytes32"
            },
            {
              "internalType": "address",
              "name": "uniV3Pool",
              "type": "address"
            },
            {
              "internalType": "address",
              "name": "rewardToken",
              "type": "address"
            },
            {
              "internalType": "uint256",
              "name": "amount",
              "type": "uint256"
            },
            {
              "internalType": "address[]",
              "name": "positionWrappers",
              "type": "address[]"
            },
            {
              "internalType": "uint32[]",
              "name": "wrapperTypes",
              "type": "uint32[]"
            },
            {
              "internalType": "uint32",
              "name": "propToken0",
              "type": "uint32"
            },
            {
              "internalType": "uint32",
              "name": "propToken1",
              "type": "uint32"
            },
            {
              "internalType": "uint32",
              "name": "propFees",
              "type": "uint32"
            },
            {
              "internalType": "uint32",
              "name": "epochStart",
              "type": "uint32"
            },
            {
              "internalType": "uint32",
              "name": "numEpoch",
              "type": "uint32"
            },
            {
              "internalType": "uint32",
              "name": "isOutOfRangeIncentivized",
              "type": "uint32"
            },
            {
              "internalType": "uint32",
              "name": "boostedReward",
              "type": "uint32"
            },
            {
              "internalType": "address",
              "name": "boostingAddress",
              "type": "address"
            },
            {
              "internalType": "bytes",
              "name": "additionalData",
              "type": "bytes"
            }
          ],
          "internalType": "struct DistributionParameters",
          "name": "distribution",
          "type": "tuple"
        },
        {
          "internalType": "bytes",
          "name": "signature",
          "type": "bytes"
        }
      ],
      "name": "signAndCreateDistribution",
      "outputs": [
        {
          "internalType": "uint256",
          "name": "distributionAmount",
          "type": "uint256"
        }
      ],
      "stateMutability": "nonpayable",
      "type": "function"
    },
    {
      "inputs": [
        {
          "internalType": "address",
          "name": "user",
          "type": "address"
        }
      ],
      "name": "toggleSigningWhitelist",
      "outputs": [],
      "stateMutability": "nonpayable",
      "type": "function"
    },
    {
      "inputs": [
        {
          "internalType": "address",
          "name": "token",
          "type": "address"
        }
      ],
      "name": "toggleTokenWhitelist",
      "outputs": [],
      "stateMutability": "nonpayable",
      "type": "function"
    },
    {
      "inputs": [
        {
          "internalType": "address",
          "name": "newImplementation",
          "type": "address"
        }
      ],
      "name": "upgradeTo",
      "outputs": [],
      "stateMutability": "nonpayable",
      "type": "function"
    },
    {
      "inputs": [
        {
          "internalType": "address",
          "name": "newImplementation",
          "type": "address"
        },
        {
          "internalType": "bytes",
          "name": "data",
          "type": "bytes"
        }
      ],
      "name": "upgradeToAndCall",
      "outputs": [],
      "stateMutability": "payable",
      "type": "function"
    },
    {
      "inputs": [
        {
          "internalType": "address",
          "name": "",
          "type": "address"
        }
      ],
      "name": "userSignatureWhitelist",
      "outputs": [
        {
          "internalType": "uint256",
          "name": "",
          "type": "uint256"
        }
      ],
      "stateMutability": "view",
      "type": "function"
    },
    {
      "inputs": [
        {
          "internalType": "address",
          "name": "",
          "type": "address"
        }
      ],
      "name": "userSignatures",
      "outputs": [
        {
          "internalType": "bytes32",
          "name": "",
          "type": "bytes32"
        }
      ],
      "stateMutability": "view",
      "type": "function"
    }
  ],
  "transactionHash": "0xed698c9d25a17f9405035a5fd4597eb372f066ad1ffaf9d99d6a3a0aaef3c959",
  "args": [],
  "numDeployments": 2,
  "solcInputHash": "2659b7d546dc411bca674307bc4976c4",
  "bytecode": "0x60a060405234620000495730608052620000186200004e565b620000226200004e565b60405161585590816200015a823960805181818161281d0152818161291801526131440152f35b600080fd5b60005460ff8160081c1615908180926200014b575b801562000132575b15620000d65760ff19811660011760005581620000c3575b506200008b57565b61ff0019600054166000557f7f26b83ff96e1f2b6a682f133852f6798a09c465da95921460cefb3847402498602060405160018152a1565b61ffff1916610101176000553862000083565b60405162461bcd60e51b815260206004820152602e60248201527f496e697469616c697a61626c653a20636f6e747261637420697320616c72656160448201526d191e481a5b9a5d1a585b1a5e995960921b6064820152608490fd5b50303b1580156200006b5750600160ff8216146200006b565b50600160ff8216106200006356fe608080604052600436101561001357600080fd5b60003560e01c9081630241d8f914613c625750806303d2944c14613bab5780630f44380d1461380b578063141df5031461365657806317418a221461362c5780631794bb3c1461347c5780631b0c24d51461345557806330444017146134375780633659cfe61461311f578063368b877214612d4d5780633d18678e14612c765780634690484014612c4f5780634f1ef286146128d757806352d1902d1461280257806358beb884146120e55780636c1550b1146117f65780636cca84bd1461172a578063734e7fb9146116e1578063752e8749146116c257806376cd7cbc146116865780637b74691e1461159c5780637ecebe00146115625780638a4bd4b21461153057806396b3ce54146114f65780639af1d35a146114d8578063a2686e231461140c578063a70b9f0c146113ef578063ab37f486146113b5578063ae23bf281461137a578063b9d81abc14610ad6578063ba5c3a9d14610907578063bfe10928146108e0578063d0ff94b2146104cc578063d7fa562514610492578063e1394f7d14610452578063e21f37ce14610370578063e74b981b14610279578063fb1d23291461020b5763feba1ed2146101cc57600080fd5b34610206576020366003190112610206576001600160a01b036101ed613d18565b16600052609e6020526020604060002054604051908152f35b600080fd5b3461020657606036600319011261020657610224613d18565b61022c613d6b565b906044359063ffffffff91828116809103610206576102636102699361025c61027596610e109283911604614eaa565b9204614eaa565b91615353565b60405191829182613f57565b0390f35b3461020657602036600319011261020657610292613d18565b6001600160a01b03906024602083609754166040519283809263521d4de960e01b82523360048301525afa90811561036457600091610336575b501561030c5716806001600160a01b031960995416176099557f7a7b5a0a132f9e0581eb8527f66eae9ee89c2a3e79d4ac7e41a1f1f4d48a7fc2600080a2005b60046040517f99e120bc000000000000000000000000000000000000000000000000000000008152fd5b610357915060203d811161035d575b61034f8183614059565b810190614658565b836102cc565b503d610345565b6040513d6000823e3d90fd5b34610206576000366003190112610206576040516000609b5461039281614372565b8084529060019081811690811561042b57506001146103d0575b610275846103bc81860382614059565b604051918291602083526020830190613db2565b609b600090815292507fbba9db4cdbea0a37c207bbb83e20f828cd4441c49891101dc94fd20dc8efc3495b8284106104135750505081016020016103bc826103ac565b805460208587018101919091529093019281016103fb565b60ff191660208087019190915292151560051b850190920192506103bc91508390506103ac565b3461020657602036600319011261020657610275610269610483610e1063ffffffff61047c613d58565b1604614eaa565b61048c81614684565b90614fbf565b34610206576020366003190112610206576001600160a01b036104b3613d18565b1660005260a26020526020604060002054604051908152f35b34610206576040366003190112610206576104e5613d18565b63ffffffff906104fa610e108361047c613d6b565b906000609d54610509816140e9565b926105176040519485614059565b818452601f199485610528846140e9565b0160005b8181106108c357505086168660005b84828216106107ee575050505050610552816140e9565b926105606040519485614059565b81845261056c826140e9565b0160005b8181106107d757505060005b84811690828210156107c9576105928285614670565b519061059c614f67565b918083526020938482016001600160a01b0392600487858451166040519283809263ddca3f4360e01b82525afa9081156103645760009161078b575b509062ffffff6004921688880152878584511660405193848092630dfe168160e01b82525afa918215610364576004926106219160009161076e575b50868086511691166156f8565b604088015287858451166040519384809263d21220a760e01b82525afa92831561036457600493866106639260409560009361073d575b5051811691166156f8565b60608801520192600081855116604051938480926395d89b4160e01b82525afa93841561036457600494889360009161071a575b50608088015251166040519384809263313ce56760e01b82525afa9384156103645760ff6001956106e5948c986000926106ed575b50501660a08201526106de828a614670565b5287614670565b50011661057c565b61070c9250803d10610713575b6107048183614059565b8101906156df565b8c806106cc565b503d6106fa565b61073791503d806000833e61072f8183614059565b810190615680565b8d610697565b82919350610760908d803d10610767575b6107588183614059565b8101906146b2565b9290610658565b503d61074e565b61078591508a3d8c11610767576107588183614059565b8e610614565b90508781813d83116107c2575b6107a28183614059565b8101031261020657519062ffffff82168203610206579062ffffff6105d8565b503d610798565b604051806102758782613f57565b6020906107e2614f67565b82828801015201610570565b6107f781614321565b506006810154838561081e8261081781808760601c169660801c16614eaa565b16846146f1565b1191826108b9575b50508061088c575b61083f575b5060010116879061053b565b61084b91969250614bbe565b6108558288614670565b526108608187614670565b5060018101809111610876579387906001610833565b634e487b7160e01b600052601160045260246000fd5b506001600160a01b0380861680159182156108a9575b505061082e565b6001840154161490508b806108a2565b109050838c610826565b6020906108d1959395614ec3565b82828a0101520193919361052c565b346102065760003660031901126102065760206001600160a01b0360985416604051908152f35b3461020657602036600319011261020657600435609d5481101561020657600990609d60005202807fd26e832454299e9fabb89e0e5fffdc046d4e14431bc1bf607ffb2e8a1ddecf7b01546102757fd26e832454299e9fabb89e0e5fffdc046d4e14431bc1bf607ffb2e8a1ddecf836001600160a01b0393847fd26e832454299e9fabb89e0e5fffdc046d4e14431bc1bf607ffb2e8a1ddecf7c8201541694807fd26e832454299e9fabb89e0e5fffdc046d4e14431bc1bf607ffb2e8a1ddecf7d830154167fd26e832454299e9fabb89e0e5fffdc046d4e14431bc1bf607ffb2e8a1ddecf7e83015490610a567fd26e832454299e9fabb89e0e5fffdc046d4e14431bc1bf607ffb2e8a1ddecf81850154937fd26e832454299e9fabb89e0e5fffdc046d4e14431bc1bf607ffb2e8a1ddecf828601541694610a4f60405180988193016143ac565b0386614059565b604051978897885260208801526040870152606086015263ffffffff908181166080870152818160201c1660a0870152818160401c1660c0870152818160601c1660e0870152818160801c16610100870152818160a01c1661012087015260c01c166101408501526101608401526101a080610180850152830190613db2565b346102065760203660031901126102065760043567ffffffffffffffff811161020657610b07903690600401614101565b3360005260a26020526040600020541580611364575b61133a576002606554146112f6576002606555610b5d610b4b610e1063ffffffff6101208501511604614eaa565b63ffffffff8116610120840152614684565b63ffffffff4291161080156112e3575b80156112d7575b801561129e575b8015611270575b801561125c575b6112325760608101519033600052609e602052604060002054633b9aca008110806111c1575b80611150575b6110bc575b50610be1826001600160a01b036040840151166001600160a01b036098541690339061474f565b3360005260a0602052604060002054600181018111610876573360005260a06020526001810160406000205560405160208101913360601b8352603482015260348152610c2d8161403d565b5190208152609d54600160401b811015610f5357806001610c519201609d55614321565b9290926110a65781518355600183016001600160a01b036020840151166001600160a01b0319825416179055600283016001600160a01b036040840151166001600160a01b031982541617905560608201516003840155608082015180519067ffffffffffffffff8211610f5357600160401b8211610f53576020906004860154836004880155808410611086575b500160048501600052602060002060005b838110611069575050505060a08201519283519367ffffffffffffffff8511610f5357600160401b8511610f53576020906005830154866005850155808710611016575b500160058201600052602060002060005b8660031c8110610fc7575060071986168603610f69575b50506008919293506006810163ffffffff60c0860151168582549167ffffffff0000000060e083015160201b166bffffffff000000000000000061010084015160401b166fffffffff00000000000000000000000061012085015160601b169163ffffffff60801b61014086015160801b16937fffffffff0000000000000000000000000000000000000000000000000000000063ffffffff60c01b61018063ffffffff60a01b6101608a015160a01b1698015160c01b169716171717171717179055600781016001600160a01b036101a0860151166001600160a01b031982541617905501916101c081015192835167ffffffffffffffff8111610f535780602095610e7482610e6e8654614372565b86614715565b8690601f8311600114610eef57600092610ee4575b50508160011b916000199060031b1c19161790555b7f5280c74029ecceb35e4fecf34adee487fd5a9a3d6c8e70b7374a1c133370e83a60405184815280610ed4339487830190613dd7565b0390a26001606555604051908152f35b015190508680610e89565b60008581528881209350601f198516905b818110610f3c5750908460019594939210610f23575b505050811b019055610e9e565b015160001960f88460031b161c19169055868080610f16565b929389600181928786015181550195019301610f00565b634e487b7160e01b600052604160045260246000fd5b60009160005b600719881688038110610f91575050600893949560031c015583929185610d5d565b90926020610fbe60019263ffffffff875116908560021b60031b63ffffffff811b9283911b169119161790565b94019101610f6f565b6000805b60088110610fe0575082820155600101610d46565b9390602061100d60019263ffffffff855116908860021b60031b63ffffffff811b9283911b169119161790565b92019401610fcb565b6110499060058501600052836000206007808a0160031c820192601c8b60021b168061104f575b500160031c01906146fe565b86610d35565b60001990818601918254918a0360031b1c1690558b61103d565b60019060206001600160a01b038551169401938184015501610cf1565b6110a09060048801600052848460002091820191016146fe565b86610ce0565b634e487b7160e01b600052600060045260246000fd5b609a5490633b9aca000390633b9aca00821161087657633b9aca00916110e1916146de565b04633b9aca0003633b9aca00811161087657633b9aca0061110561113a92856146de565b04926001600160a01b03806099541685811560001461114657611132915030925b604087015116936146d1565b91339061474f565b81606082015282610bba565b6111329192611126565b50600460206001600160a01b0381850151166040519283809263d21220a760e01b82525afa8015610364576001600160a01b03916000916111a2575b5016600052609f60205260406000205415610bb5565b6111bb915060203d602011610767576107588183614059565b8561118c565b50600460206001600160a01b03818501511660405192838092630dfe168160e01b82525afa8015610364576001600160a01b0391600091611213575b5016600052609f60205260406000205415610baf565b61122c915060203d602011610767576107588183614059565b856111fd565b60046040517f28829e82000000000000000000000000000000000000000000000000000000008152fd5b5060808101515160a0820151511415610b89565b506001600160a01b036101a08201511615158015610b82575061271063ffffffff6101808301511610610b82565b5061271063ffffffff6112cf6112c282610100860151168360c0870151169061469a565b8260e0860151169061469a565b161415610b7b565b50606081015115610b74565b5063ffffffff6101408201511615610b6d565b606460405162461bcd60e51b815260206004820152601f60248201527f5265656e7472616e637947756172643a207265656e7472616e742063616c6c006044820152fd5b60046040517fa72952d8000000000000000000000000000000000000000000000000000000008152fd5b5060a1602052604060002054609c541415610b1d565b3461020657604036600319011261020657610275610269611399613d18565b6113ac610e1063ffffffff61047c613d6b565b61026381614684565b34610206576020366003190112610206576001600160a01b036113d6613d18565b16600052609f6020526020604060002054604051908152f35b34610206576000366003190112610206576020604051610e108152f35b346102065760208060031936011261020657611426613d18565b6001600160a01b039060248383609754166040519283809263521d4de960e01b82523360048301525afa908115610364576000916114bb575b501561030c5716908160005260a281526040600020546001039060018211610876577f9c759941da0b7ce56c059c1497218796e62035024afb77a00ff49a980a62078f918360005260a2825280604060002055604051908152a2005b6114d29150843d861161035d5761034f8183614059565b8461145f565b34610206576000366003190112610206576020609a54604051908152f35b34610206576020366003190112610206576001600160a01b03611517613d18565b1660005260a16020526020604060002054604051908152f35b346102065760203660031901126102065761027561026961154f613d18565b6113ac610e1063ffffffff421604614eaa565b34610206576020366003190112610206576001600160a01b03611583613d18565b1660005260a06020526020604060002054604051908152f35b3461020657600036600319011261020657609d546115b9816140e9565b906115c76040519283614059565b8082526020908183019081609d6000527fd26e832454299e9fabb89e0e5fffdc046d4e14431bc1bf607ffb2e8a1ddecf7b6000915b8383106116635750505050604051918083019381845251809452604083019360408160051b85010192916000955b8287106116375785850386f35b909192938280611653600193603f198a82030186528851613dd7565b960192019601959291909261162a565b600986600192611675859a999a614bbe565b8152019201920191909594956115fc565b346102065760203660031901126102065760043567ffffffffffffffff8111610206576116ba6116c09136906004016142f3565b9061492a565b005b34610206576000366003190112610206576020604051633b9aca008152f35b3461020657604036600319011261020657610275610269611700613d58565b61048c61170b613d6b565b91610e10906117228263ffffffff80931604614eaa565b931604614eaa565b346102065760208060031936011261020657611744613d18565b6001600160a01b039060248383609754166040519283809263521d4de960e01b82523360048301525afa908115610364576000916117d9575b501561030c57169081600052609f81526040600020546001039060018211610876577fc6cd32b1acffa550abf886a9b443ff3ce485bfdb05e35ef5b26e745739a1eac19183600052609f825280604060002055604051908152a2005b6117f09150843d861161035d5761034f8183614059565b8461177d565b346102065760203660031901126102065760043567ffffffffffffffff81116102065736602382011215610206578060040135611832816140e9565b916118406040519384614059565b8183526024602084019260051b820101903682116102065760248101925b8284106120b557843360005260a2602052604060002054158061209f575b61133a57805161188b816140e9565b906118996040519283614059565b808252601f196118a8826140e9565b013660208401376000925b818410611900578260405180916020820160208352815180915260206040840192019060005b8181106118e7575050500390f35b82518452859450602093840193909201916001016118d9565b61190a8482614670565b51936002606554146112f6576002606555611933610e1063ffffffff6101208801511604614eaa565b63ffffffff811661012087015263ffffffff61194f4292614684565b1610801561208c575b8015612080575b8015612047575b8015612019575b8015612005575b61123257606085015133600052609e602052604060002054633b9aca00811080611f94575b80611f23575b611e97575b506119cb816001600160a01b036040890151166001600160a01b036098541690339061474f565b3360005260a0602052604060002054600181018111610876573360005260a06020526001810160406000205560405160208101913360601b8352603490818301528152611a178161403d565b5190208652609d8054600160401b811015610f5357611a3b91600182019055614321565b9690966110a65780518755600187016001600160a01b036020830151166001600160a01b0319825416179055600287016001600160a01b036040830151166001600160a01b031982541617905560608101516003880155608081015180519067ffffffffffffffff8211610f5357600160401b8211610f535760209060048a01548360048c0155808410611e77575b500160048901600052602060002060005b838110611e5a575050505060a081015180519067ffffffffffffffff8211610f5357600160401b8211610f535760209060058a01548360058c0155808410611e08575b5001906005890160005260206000209060005b8160031c8110611db9575060071981168103611d61575b5050506006870160c063ffffffff81840151169082549167ffffffff0000000060e086015160201b166bffffffff000000000000000061010087015160401b166fffffffff00000000000000000000000061012088015160601b169163ffffffff60801b61014089015160801b16937fffffffff0000000000000000000000000000000000000000000000000000000063ffffffff60c01b63ffffffff60a01b6101608c015160a01b16976101808c0151901b169716171717171717179055600787016001600160a01b036101a0830151166001600160a01b03198254161790556101c081015196875167ffffffffffffffff8111610f5357611c5b81611c526008850154614372565b60088501614715565b6020601f8211600114611cee579080600892600198999a9b600092611ce3575b5050600019600383901b1c191690871b179101555b7f5280c74029ecceb35e4fecf34adee487fd5a9a3d6c8e70b7374a1c133370e83a6040516020815280611cc833946020830190613dd7565b0390a282606555611cd98287614670565b52019291906118b3565b015190508b80611c7b565b6008830160005260206000209960005b601f1984168110611d4957509160019798999a889260089483601f19811610611d30575b505050811b01910155611c90565b015160001960f88460031b161c191690558b8080611d22565b828201518c556001909b019a60209283019201611cfe565b60009260005b600719831683038110611d8357505060031c0155878080611b48565b90936020611db060019263ffffffff885116908560021b60031b63ffffffff811b9283911b169119161790565b95019101611d67565b6000805b60088110611dd2575083820155600101611b31565b94906020611dff60019263ffffffff855116908960021b60031b63ffffffff811b9283911b169119161790565b92019501611dbd565b611e3a9060058c0160005283600020600780870160031c820192601c8860021b1680611e4057500160031c01906146fe565b8a611b1e565b60001990818601918254918a0360031b1c1690558f61103d565b60019060206001600160a01b038551169401938184015501611adb565b611e919060048c01600052848460002091820191016146fe565b8a611aca565b609a5490633b9aca000390633b9aca00821161087657633b9aca0091611ebc916146de565b04633b9aca0003633b9aca00811161087657633b9aca00611ee0611f0d92846146de565b04916001600160a01b038060995416848115600014611f1957611132915030925b60408c015116936146d1565b806060870152866119a4565b6111329192611f01565b50600460206001600160a01b03818a0151166040519283809263d21220a760e01b82525afa8015610364576001600160a01b0391600091611f75575b5016600052609f6020526040600020541561199f565b611f8e915060203d602011610767576107588183614059565b89611f5f565b50600460206001600160a01b03818a01511660405192838092630dfe168160e01b82525afa8015610364576001600160a01b0391600091611fe6575b5016600052609f60205260406000205415611999565b611fff915060203d602011610767576107588183614059565b89611fd0565b5060808501515160a0860151511415611974565b506001600160a01b036101a0860151161515801561196d575061271063ffffffff610180870151161061196d565b5061271063ffffffff61207861206b826101008a0151168360c08b0151169061469a565b8260e08a0151169061469a565b161415611966565b5060608501511561195f565b5063ffffffff6101408601511615611958565b5060a1602052604060002054609c54141561187c565b833567ffffffffffffffff8111610206576020916120da839260243691870101614101565b81520193019261185e565b346102065760403660031901126102065760043567ffffffffffffffff811161020657612116903690600401614101565b60243567ffffffffffffffff8111610206576116ba6121399136906004016142f3565b6002606554146112f6576002606555612163610b4b610e1063ffffffff6101208501511604614eaa565b63ffffffff4291161080156127ef575b80156127e3575b80156127b7575b8015612789575b8015612775575b6112325760608101519033600052609e602052604060002054633b9aca00811080612704575b80612693575b61263e575b506121e7826001600160a01b036040840151166001600160a01b036098541690339061474f565b3360005260a0602052604060002054600181018111610876573360005260a06020526001810160406000205560405160208101913360601b83526034820152603481526122338161403d565b5190208152609d54600160401b811015610f53578060016122579201609d55614321565b9290926110a65781518355600183016001600160a01b036020840151166001600160a01b0319825416179055600283016001600160a01b036040840151166001600160a01b031982541617905560608201516003840155608082015180519067ffffffffffffffff8211610f5357600160401b8211610f5357602090600486015483600488015580841061261e575b500160048501600052602060002060005b838110612601575050505060a08201519283519367ffffffffffffffff8511610f5357600160401b8511610f535760209060058301548660058501558087106125c9575b500160058201600052602060002060005b8660031c811061257a57506007198616860361251c575b50506008919293506006810163ffffffff60c0860151168582549167ffffffff0000000060e083015160201b166bffffffff000000000000000061010084015160401b166fffffffff00000000000000000000000061012085015160601b169163ffffffff60801b61014086015160801b16937fffffffff0000000000000000000000000000000000000000000000000000000063ffffffff60c01b61018063ffffffff60a01b6101608a015160a01b1698015160c01b169716171717171717179055600781016001600160a01b036101a0860151166001600160a01b031982541617905501916101c081015192835167ffffffffffffffff8111610f53578060209561247482610e6e8654614372565b8690601f83116001146124d257600092610ee45750508160011b916000199060031b1c19161790557f5280c74029ecceb35e4fecf34adee487fd5a9a3d6c8e70b7374a1c133370e83a60405184815280610ed4339487830190613dd7565b60008581528881209350601f198516905b8181106125055750908460019594939210610f2357505050811b019055610e9e565b9293896001819287860151815501950193016124e3565b60009160005b600719881688038110612544575050600893949560031c015583929185612363565b9092602061257160019263ffffffff875116908560021b60031b63ffffffff811b9283911b169119161790565b94019101612522565b6000805b6008811061259357508282015560010161234c565b939060206125c060019263ffffffff855116908860021b60031b63ffffffff811b9283911b169119161790565b9201940161257e565b6125fb9060058501600052836000206007808a0160031c820192601c8b60021b168061104f57500160031c01906146fe565b8661233b565b60019060206001600160a01b0385511694019381840155016122f7565b6126389060048801600052848460002091820191016146fe565b866122e6565b609a5490633b9aca000390633b9aca00821161087657633b9aca0091612663916146de565b04633b9aca0003633b9aca00811161087657633b9aca0061110561268792856146de565b816060820152826121c0565b50600460206001600160a01b0381850151166040519283809263d21220a760e01b82525afa8015610364576001600160a01b03916000916126e5575b5016600052609f602052604060002054156121bb565b6126fe915060203d602011610767576107588183614059565b856126cf565b50600460206001600160a01b03818501511660405192838092630dfe168160e01b82525afa8015610364576001600160a01b0391600091612756575b5016600052609f602052604060002054156121b5565b61276f915060203d602011610767576107588183614059565b85612740565b5060808101515160a082015151141561218f565b506001600160a01b036101a08201511615158015612188575061271063ffffffff6101808301511610612188565b5061271063ffffffff6127db6112c282610100860151168360c0870151169061469a565b161415612181565b5060608101511561217a565b5063ffffffff6101408201511615612173565b34610206576000366003190112610206576001600160a01b037f000000000000000000000000000000000000000000000000000000000000000016300361286d5760206040517f360894a13ba1a3210667c828492db98dca3e2076cc3735a920a3ca505d382bbc8152f35b608460405162461bcd60e51b815260206004820152603860248201527f555550535570677261646561626c653a206d757374206e6f742062652063616c60448201527f6c6564207468726f7567682064656c656761746563616c6c00000000000000006064820152fd5b6040366003190112610206576128eb613d18565b60243567ffffffffffffffff81116102065761290b9036906004016140ce565b906001600160a01b0391827f0000000000000000000000000000000000000000000000000000000000000000169261294584301415614442565b6129747f360894a13ba1a3210667c828492db98dca3e2076cc3735a920a3ca505d382bbc9482865416146144b3565b80609754168015159081612bfa575b5061030c577f4910fdfa16fed3260ed0e7147f7cc6da11a60208b5b9406d12a635614ffd91435460ff16156129be5750506116c09150614524565b82919216604051936352d1902d60e01b85526020948581600481865afa60009181612bcb575b50612a53576084866040519062461bcd60e51b82526004820152602e60248201527f45524331393637557067726164653a206e657720696d706c656d656e7461746960448201527f6f6e206973206e6f7420555550530000000000000000000000000000000000006064820152fd5b03612b7557612a6182614524565b604051907fbc7cd75a20ee27fd9adebab32041f755214dbc6bffa90cc0225b39da2e5c2d3b600080a2825115801590612b6d575b612a9b57005b813b15612b1d57506000828192856116c09695519201905af4612abc6145d1565b907f416464726573733a206c6f772d6c6576656c2064656c65676174652063616c6c60405193612aeb8561403d565b602785528401527f206661696c6564000000000000000000000000000000000000000000000000006040840152614601565b808462461bcd60e51b608493526004820152602660248201527f416464726573733a2064656c65676174652063616c6c20746f206e6f6e2d636f6044820152651b9d1c9858dd60d21b6064820152fd5b506001612a95565b6084846040519062461bcd60e51b82526004820152602960248201527f45524331393637557067726164653a20756e737570706f727465642070726f786044820152681a58589b195555525160ba1b6064820152fd5b9091508681813d8311612bf3575b612be38183614059565b81010312610206575190876129e4565b503d612bd9565b602491506020906040519283809263521d4de960e01b82523360048301525afa90811561036457600091612c31575b501585612983565b612c49915060203d811161035d5761034f8183614059565b85612c29565b346102065760003660031901126102065760206001600160a01b0360995416604051908152f35b3461020657602036600319011261020657600435602460206001600160a01b03609754166040519283809263521d4de960e01b82523360048301525afa90811561036457600091612d2f575b501561030c57633b9aca00811015612d05576020817f3346af6da1932164d501f2ec28f8c5d686db5828a36b77f2da4332d89184fe7b92609a55604051908152a1005b60046040517fd2529034000000000000000000000000000000000000000000000000000000008152fd5b612d47915060203d811161035d5761034f8183614059565b82612cc2565b34610206576020806003193601126102065767ffffffffffffffff90600435828111610206573660238201121561020657612d92903690602481600401359101614097565b906024816001600160a01b03609754166040519283809263521d4de960e01b82523360048301525afa90811561036457600091613102575b501561030c578151928311610f5357612de4609b54614372565b601f81116130a9575b508092601f8111600114613028578091929360009161301d575b508160011b916000199060031b1c191617609b555b8151600092817a184f03e93ff9f4daa797ed6e38ed64bf6a1f0100000000000000008082101561300f575b50836d04ee2d6d415b85acef810000000080831015613003575b5050662386f26fc1000080821015612ff6575b506305f5e10080821015612fe9575b5061271080821015612fdc575b506064811015612fce575b600a80911015612fc4575b600180860193816021612ed1612ebb8861407b565b97612ec9604051998a614059565b80895261407b565b8789019990601f1901368b37870101905b612f81575b50505050612f71603a7fde3dc3335dea4d1a1060ef6cefcfcc109eb0a1e78ce151818d3f17a01e1f8a0595604051938491612f4e888401977f19457468657265756d205369676e6564204d6573736167653a0a000000000000895251809286860190613d8f565b8201612f62825180938a8785019101613d8f565b0103601a810184520182614059565b51902080609c55604051908152a1005b600019019083907f30313233343536373839616263646566000000000000000000000000000000008282061a835304918215612fbf57919082612ee2565b612ee7565b9360010193612ea6565b606460029104940193612e9b565b6004910494019385612e90565b6008910494019385612e83565b6010910494019385612e74565b95019490048386612e61565b604095508304905085612e47565b905083015184612e07565b601f19811693609b6000527fbba9db4cdbea0a37c207bbb83e20f828cd4441c49891101dc94fd20dc8efc3499060005b868110613092575082600194959610613079575b5050811b01609b55612e1c565b85015160001960f88460031b161c19169055848061306c565b909184600181928589015181550193019101613058565b6130f290609b6000527fbba9db4cdbea0a37c207bbb83e20f828cd4441c49891101dc94fd20dc8efc349601f860160051c8101918487106130f8575b601f0160051c01906146fe565b83612ded565b90915081906130e5565b6131199150823d841161035d5761034f8183614059565b84612dca565b346102065760208060031936011261020657613139613d18565b6001600160a01b03807f00000000000000000000000000000000000000000000000000000000000000001661317081301415614442565b61319f7f360894a13ba1a3210667c828492db98dca3e2076cc3735a920a3ca505d382bbc9183835416146144b3565b81609754168481151591826133e5575b505061030c57604051908482019282841067ffffffffffffffff851117610f5357836040526000835260ff7f4910fdfa16fed3260ed0e7147f7cc6da11a60208b5b9406d12a635614ffd9143541660001461321257505050506116c09150614524565b8416906040516352d1902d60e01b81528681600481865afa600091816133b6575b506132a2576084876040519062461bcd60e51b82526004820152602e60248201527f45524331393637557067726164653a206e657720696d706c656d656e7461746960448201527f6f6e206973206e6f7420555550530000000000000000000000000000000000006064820152fd5b03613360576132b084614524565b604051907fbc7cd75a20ee27fd9adebab32041f755214dbc6bffa90cc0225b39da2e5c2d3b600080a2815115801590613358575b6132ea57005b833b1561330857506116c09392600092839251915af4612abc6145d1565b808562461bcd60e51b608493526004820152602660248201527f416464726573733a2064656c65676174652063616c6c20746f206e6f6e2d636f6044820152651b9d1c9858dd60d21b6064820152fd5b5060006132e4565b6084856040519062461bcd60e51b82526004820152602960248201527f45524331393637557067726164653a20756e737570706f727465642070726f786044820152681a58589b195555525160ba1b6064820152fd5b9091508781813d83116133de575b6133ce8183614059565b8101031261020657519088613233565b503d6133c4565b602492506040519283809263521d4de960e01b82523360048301525afa9081156103645760009161341a575b501584866131af565b6134319150853d871161035d5761034f8183614059565b85613411565b34610206576000366003190112610206576020609c54604051908152f35b346102065760003660031901126102065760206001600160a01b0360975416604051908152f35b34610206576060366003190112610206576004356001600160a01b0390818116809103610206576134ab613d2e565b90604435916000549360ff8560081c16159485809661361f575b8015613608575b1561359e5760ff1981166001176000558561358c575b5082158015613582575b61355857633b9aca008411612d05576001600160a01b031991168160985416176098556097541617609755609a5561352057005b61ff0019600054166000557f7f26b83ff96e1f2b6a682f133852f6798a09c465da95921460cefb3847402498602060405160018152a1005b60046040517fd92e233d000000000000000000000000000000000000000000000000000000008152fd5b50808216156134ec565b61ffff191661010117600055856134e2565b608460405162461bcd60e51b815260206004820152602e60248201527f496e697469616c697a61626c653a20636f6e747261637420697320616c72656160448201527f647920696e697469616c697a65640000000000000000000000000000000000006064820152fd5b50303b1580156134cc5750600160ff8216146134cc565b50600160ff8216106134c5565b3461020657600036600319011261020657610275610269610483610e1063ffffffff421604614eaa565b346102065760403660031901126102065760043567ffffffffffffffff80821161020657366023830112156102065781600401359181831161020657602491828201918336918660051b010111610206576136af613d2e565b926001600160a01b03806097541695604051809763521d4de960e01b8252336004830152818560209a8b935afa908115610364576000916137ee575b501561030c5794811660005b86811061370057005b8361371461370f838a8a614e86565b614e96565b898561372461370f868d8d614e86565b16604051938480926370a0823160e01b82523060048301525afa918215610364576000926137bf575b50604051917fa9059cbb000000000000000000000000000000000000000000000000000000008b840152848784015260449081840152825260808201828110888211176137aa57604052600192916137a4916147ba565b016136f7565b86634e487b7160e01b60005260416004526000fd5b9091508981813d83116137e7575b6137d78183614059565b810103126102065751908a61374d565b503d6137cd565b6138059150883d8a1161035d5761034f8183614059565b886136eb565b34610206576020806003193601126102065763ffffffff90613832610e108361047c613d58565b609d546000613840826140e9565b9261384e6040519485614059565b828452601f19928361385f826140e9565b018660005b828110613b955750505090868060009216915b8382821610613b02575050505061388d816140e9565b9161389b6040519384614059565b8183526138a7826140e9565b018460005b828110613aec5750505060005b8581169082821015613ade576138cf8286614670565b51906138d9614f67565b928284528783016001600160a01b039360048a868451166040519283809263ddca3f4360e01b82525afa90811561036457600091613aa0575b509062ffffff600492168b8801528a8684511660405193848092630dfe168160e01b82525afa9182156103645760049261395b91600091613a83575b50878086511691166156f8565b60408801528a868451166040519384809263d21220a760e01b82525afa928315610364576004938761399f926040958f600094613a60575b505051811691166156f8565b60608801520193600081865116604051938480926395d89b4160e01b82525afa948515610364576004958b93600091613a45575b50608088015251166040519485809263313ce56760e01b82525afa90811561036457899460ff613a2093600196600091613a28575b501660a0820152613a198289614670565b5286614670565b5001166138b9565b613a3f91508c8d3d10610713576107048183614059565b8d613a08565b613a5a91503d806000833e61072f8183614059565b8d6139d3565b839294509081613a7b92903d10610767576107588183614059565b92908f613993565b613a9a91508d803d10610767576107588183614059565b8e61394e565b90508a81813d8311613ad7575b613ab78183614059565b8101031261020657519062ffffff82168203610206579062ffffff613912565b503d613aad565b604051806102758682613f57565b613af4614f67565b8282870101520185906138ac565b613b0b81614321565b5060068101548385613b2b8261081781808760601c169660801c16614eaa565b119182613b8b575b505080613b83575b613b4c575b50600101168790613877565b613b5891959250614bbe565b613b628288614670565b52613b6d8187614670565b5060018101809111610876579287906001613b40565b506001613b3b565b109050838c613b33565b613b9d614ec3565b82828a010152018790613864565b3461020657602036600319011261020657613bc4613d18565b6001600160a01b03906024602083609754166040519283809263521d4de960e01b82523360048301525afa90811561036457600091613c44575b501561030c57168015612d0557806001600160a01b031960985416176098557fc0ebb188f905d128bcd7e4282dd1f9cf24cd331b69071002e488349aca6a867b600080a2005b613c5c915060203d811161035d5761034f8183614059565b83613bfe565b3461020657604036600319011261020657613c7b613d18565b90602435916001600160a01b0391602081602481866097541663521d4de960e01b82523360048301525afa90811561036457600091613cfa575b501561030c577fab1d37d0b21937f334fc4164d147abbfdbfd7ef37ab9ea0ae73f2a58ffb7f1cc91602091169283600052609e825280604060002055604051908152a2005b613d12915060203d811161035d5761034f8183614059565b84613cb5565b600435906001600160a01b038216820361020657565b602435906001600160a01b038216820361020657565b35906001600160a01b038216820361020657565b6004359063ffffffff8216820361020657565b6024359063ffffffff8216820361020657565b359063ffffffff8216820361020657565b60005b838110613da25750506000910152565b8181015183820152602001613d92565b90602091613dcb81518092818552858086019101613d8f565b601f01601f1916010190565b9190916101e09081840193815181526001600160a01b0360209581878501511687840152816040850151166040840152606084015160608401526080840151946080840152845180915286610200840195019060005b88828210613f01575050505060a08301519382810360a084015286808651928381520195019060005b818110613ee757505050613ee494955063ffffffff8060c08501511660c08401528060e08501511660e084015261010081818601511690840152610120818186015116908401526101408181860151169084015261016081818601511690840152610180908185015116908301526101a0908184015116908201526101c08092015191818403910152613db2565b90565b825163ffffffff1687529588019591880191600101613e56565b8351851688529687019690920191600101613e2d565b906001600160a01b03825116815260ff6020830151166020820152606080613f4e6040850151608060408601526080850190613db2565b93015191015290565b602080820190808352835180925260409283810182858560051b8401019601946000925b858410613f8c575050505050505090565b909192939495968580600192603f198582030187528a5190614002613fef613fdc613fbf855160c0808752860190613dd7565b62ffffff8787015116878601528a8601518582038c870152613f17565b6060808601519085830390860152613f17565b6080808501519084830390850152613db2565b9160ff60a08092015116910152990194019401929594939190613f7b565b6101e0810190811067ffffffffffffffff821117610f5357604052565b6060810190811067ffffffffffffffff821117610f5357604052565b90601f8019910116810190811067ffffffffffffffff821117610f5357604052565b67ffffffffffffffff8111610f5357601f01601f191660200190565b9291926140a38261407b565b916140b16040519384614059565b829481845281830111610206578281602093846000960137010152565b9080601f8301121561020657816020613ee493359101614097565b67ffffffffffffffff8111610f535760051b60200190565b91906101e09081848203126102065760409384519283019167ffffffffffffffff9284811084821117610f535786528395823585526020614143818501613d44565b81870152614152828501613d44565b8287015260608401356060870152608084013585811161020657840183601f8201121561020657803590614185826140e9565b9161419285519384614059565b808352838084019160051b830101918683116102065784809101915b8383106142db5750505050608087015260a084013585811161020657840183601f820112156102065780356141ee6141e5826140e9565b94519485614059565b808452828085019160051b83010191858311610206578301905b8282106142c4575050505060a085015261422460c08301613d7e565b60c085015261423560e08301613d7e565b60e0850152610100614248818401613d7e565b9085015261012061425a818401613d7e565b9085015261014061426c818401613d7e565b9085015261016061427e818401613d7e565b90850152610180614290818401613d7e565b908501526101a06142a2818401613d44565b908501526101c09283830135908111610206576142bf92016140ce565b910152565b8380916142d084613d7e565b815201910190614208565b81906142e684613d44565b81520191019084906141ae565b9181601f840112156102065782359167ffffffffffffffff8311610206576020838186019501011161020657565b609d5481101561435c57600990609d600052027fd26e832454299e9fabb89e0e5fffdc046d4e14431bc1bf607ffb2e8a1ddecf7b0190600090565b634e487b7160e01b600052603260045260246000fd5b90600182811c921680156143a2575b602083101461438c57565b634e487b7160e01b600052602260045260246000fd5b91607f1691614381565b90600092918054916143bd83614372565b91828252600193848116908160001461441f57506001146143df575b50505050565b90919394506000526020928360002092846000945b83861061440b5750505050010190388080806143d9565b8054858701830152940193859082016143f4565b9294505050602093945060ff191683830152151560051b010190388080806143d9565b1561444957565b608460405162461bcd60e51b815260206004820152602c60248201527f46756e6374696f6e206d7573742062652063616c6c6564207468726f7567682060448201527f64656c656761746563616c6c00000000000000000000000000000000000000006064820152fd5b156144ba57565b608460405162461bcd60e51b815260206004820152602c60248201527f46756e6374696f6e206d7573742062652063616c6c6564207468726f7567682060448201527f6163746976652070726f787900000000000000000000000000000000000000006064820152fd5b803b15614567576001600160a01b037f360894a13ba1a3210667c828492db98dca3e2076cc3735a920a3ca505d382bbc91166001600160a01b0319825416179055565b608460405162461bcd60e51b815260206004820152602d60248201527f455243313936373a206e657720696d706c656d656e746174696f6e206973206e60448201527f6f74206120636f6e7472616374000000000000000000000000000000000000006064820152fd5b3d156145fc573d906145e28261407b565b916145f06040519384614059565b82523d6000602084013e565b606090565b90916060911561461057505090565b61461b91939261461d565b565b8051909250156146305750805190602001fd5b6146549060405191829162461bcd60e51b8352602060048401526024830190613db2565b0390fd5b90816020910312610206575180151581036102065790565b805182101561435c5760209160051b010190565b90610e1063ffffffff8093160191821161087657565b91909163ffffffff8080941691160191821161087657565b9081602091031261020657516001600160a01b03811681036102065790565b9190820391821161087657565b8181029291811591840414171561087657565b9190820180921161087657565b818110614709575050565b600081556001016146fe565b9190601f811161472457505050565b61461b926000526020600020906020601f840160051c830193106130f857601f0160051c01906146fe565b9290604051927f23b872dd0000000000000000000000000000000000000000000000000000000060208501526001600160a01b03809216602485015216604483015260648201526064815260a081019181831067ffffffffffffffff841117610f535761461b926040525b6001600160a01b0316604051604081019181831067ffffffffffffffff841117610f535761482a926040526000806020958685527f5361666545524332303a206c6f772d6c6576656c2063616c6c206661696c656487860152868151910182855af16148246145d1565b916148b9565b8051908161483757505050565b8280614847938301019101614658565b1561484f5750565b6084906040519062461bcd60e51b82526004820152602a60248201527f5361666545524332303a204552433230206f7065726174696f6e20646964206e60448201527f6f742073756363656564000000000000000000000000000000000000000000006064820152fd5b91926060911561491d5750508151156148d0575090565b3b156148d95790565b606460405162461bcd60e51b815260206004820152601d60248201527f416464726573733a2063616c6c20746f206e6f6e2d636f6e74726163740000006044820152fd5b90939261461b925061461d565b61494561493f61494d92609c54943691614097565b83614af7565b9190916149c5565b6001600160a01b033391160361499b573360005260a1602052806040600020556040519081527fc48bbd4f009ad78a336beb65bf44688651e9aa52ac98d9054f0fce0573fefbc360203392a2565b60046040517f8baa579f000000000000000000000000000000000000000000000000000000008152fd5b6005811015614ae157806149d65750565b60018103614a2257606460405162461bcd60e51b815260206004820152601860248201527f45434453413a20696e76616c6964207369676e617475726500000000000000006044820152fd5b60028103614a6e57606460405162461bcd60e51b815260206004820152601f60248201527f45434453413a20696e76616c6964207369676e6174757265206c656e677468006044820152fd5b600314614a7757565b608460405162461bcd60e51b815260206004820152602260248201527f45434453413a20696e76616c6964207369676e6174757265202773272076616c60448201527f75650000000000000000000000000000000000000000000000000000000000006064820152fd5b634e487b7160e01b600052602160045260246000fd5b906041815114600014614b2557614b21916020820151906060604084015193015160001a90614b2f565b9091565b5050600090600290565b9291907f7fffffffffffffffffffffffffffffff5d576e7357a4501ddfe92f46681b20a08311614bb25791608094939160ff602094604051948552168484015260408301526060820152600093849182805260015afa15614ba55781516001600160a01b03811615614b9f579190565b50600190565b50604051903d90823e3d90fd5b50505050600090600390565b90604091825190614bce82614020565b8193815483526001600160a01b036001818185015416602090818701528260028601541684870152600385015460609081880152600486019285519384858583549283815201600093845286842092845b8689838310614e6f5750505050614c3892500386614059565b608094858a01526005880190875190819386845493848152019382528682205b836007840110614e0a5794614cd5818960089f9d9994976101c09f9c978b90614d4f9f9b9860e09b614d489f809b5494848410614df4575b848410614ddc575b848410614dc3575b50838310614dab575b8c848410614d92575b50838310614d79575b838310614d60575b505010614d53575b5090500382614059565b60a08b015260068801549283928380938d63ffffffff9889848199968280981660c08601521c169101528d61010084848d1c169101521c166101208c01521c16610140890152818160a01c1661016089015260c01c166101808701526007840154166101a08601525180968193016143ac565b0384614059565b0152565b891c815201859038614ccb565b90919463ffffffff8560c01c1681520193013885614cc3565b81929563ffffffff8660a01c1681520194019085614cbb565b9563ffffffff868495981c16815201940190858c614cb2565b81929563ffffffff868d1c1681520194019085614ca9565b9563ffffffff868495981c16815201940190858f614ca0565b85821c63ffffffff1687529581019592820192614c98565b63ffffffff861687529581019592820192614c90565b805463ffffffff8082168752818a1c81168a880152818d1c81168d88015281891c811689880152818b1c81168b88015260a082811c82169088015260c082811c9091169087015260e090811c9086015261010090940193600892909201918101614c58565b86548d168552958101958b95509093019201614c1f565b919081101561435c5760051b0190565b356001600160a01b03811681036102065790565b90610e1063ffffffff8093160291821691820361087657565b60405190614ed082614020565b60606101c083600080825280602083015280604083015280848301528360808301528360a08301528060c08301528060e083015280610100830152806101208301528061014083015280610160830152806101808301526101a08201520152565b604051906080820182811067ffffffffffffffff821117610f535760405260006060838281528260208201528160408201520152565b6040519060c0820182811067ffffffffffffffff821117610f5357604052600060a083614f92614ec3565b8152826020820152614fa2614f31565b6040820152614faf614f31565b6060820152606060808201520152565b91600091609d5493614fd0856140e9565b91604093614fe085519485614059565b868452601f1980614ff0896140e9565b01875b81811061533c575050865b63ffffffff908982821610156150a65761501781614321565b50600681015461503c8461503581808560601c169460801c16614eaa565b16826146f1565b84891610908161509a575b5080615092575b61505d575b5060010116614ffe565b61506990999199614bbe565b6150738289614670565b5261507e8188614670565b506001810180911161087657976001615053565b50600161504e565b90508387161138615047565b505093959492509550506150b9836140e9565b916150c682519384614059565b8383526150d2846140e9565b0160005b81811061532557505060005b63ffffffff908181168581101561531b576150fd8188614670565b51615106614f67565b9080825260208181809301906001600160a01b0391828151168a519485809263ddca3f4360e01b825260049788915afa9081156152b0576000916152d8575b5062ffffff16858701528385848351168c5192838092630dfe168160e01b82525afa9081156152b05785929161518a916000916152bb575b50858084511691166156f8565b8b88015285848251168c519384809263d21220a760e01b82525afa9182156152b05791846151c7928d9594600093615296575051811691166156f8565b606087015201826000838351168b51928380926395d89b4160e01b82525afa90811561528b579085939291600091615272575b506080870152511688519283809263313ce56760e01b82525afa918215615267576001959492615242949260ff9260009261524a575b50501660a0820152613a198289614670565b5001166150e2565b6152609250803d10610713576107048183614059565b3880615230565b87513d6000823e3d90fd5b615285913d8091833e61072f8183614059565b386151fa565b8a513d6000823e3d90fd5b82919350610760908a3d8c11610767576107588183614059565b8b513d6000823e3d90fd5b6152d29150883d8a11610767576107588183614059565b3861517d565b8681813d8311615314575b6152ed8183614059565b8101031261531057519062ffffff8216820361530d575062ffffff615145565b80fd5b5080fd5b503d6152e3565b5050505091505090565b602090615330614f67565b828287010152016150d6565b602090615347614ec3565b82828a01015201614ff3565b609d5493600093909290615366866140e9565b9260409461537686519586614059565b878552601f19806153868a6140e9565b01885b818110615669575050875b63ffffffff908a828216101561545a576153ad81614321565b5060068101546153cb8461503581808560601c169460801c16614eaa565b848a1610908161544e575b5080615421575b6153ec575b5060010116615394565b6153f8909a919a614bbe565b615402828a614670565b5261540d8189614670565b5060018101809111610876579860016153e2565b506001600160a01b03808716801591821561543e575b50506153dd565b6001840154161490503880615437565b905083881611386153d6565b505094969593509650505061546e836140e9565b9161547b82519384614059565b838352615487846140e9565b0160005b81811061565257505060005b63ffffffff908181168581101561531b576154b28188614670565b516154bb614f67565b9080825260208181809301906001600160a01b0391828151168a519485809263ddca3f4360e01b825260049788915afa9081156152b057600091615616575b5062ffffff16858701528385848351168c5192838092630dfe168160e01b82525afa9081156152b05785929161553e916000916152bb5750858084511691166156f8565b8b88015285848251168c519384809263d21220a760e01b82525afa9182156152b057918461557b928d9594600093615296575051811691166156f8565b606087015201826000838351168b51928380926395d89b4160e01b82525afa90811561528b5790859392916000916155fd575b506080870152511688519283809263313ce56760e01b82525afa9182156152675760019594926155f5949260ff9260009261524a5750501660a0820152613a198289614670565b500116615497565b615610913d8091833e61072f8183614059565b386155ae565b8681813d831161564b575b61562b8183614059565b8101031261531057519062ffffff8216820361530d575062ffffff6154fa565b503d615621565b60209061565d614f67565b8282870101520161548b565b602090615674614ec3565b82828b01015201615389565b6020818303126102065780519067ffffffffffffffff8211610206570181601f820112156102065780516156b38161407b565b926156c16040519485614059565b8184526020828401011161020657613ee49160208085019101613d8f565b90816020910312610206575160ff811681036102065790565b9190615702614f31565b926001600160a01b038091169182855260409182519163313ce56760e01b83526020928381600481895afa9081156157f7579060ff91600091615802575b50168388015283516395d89b4160e01b8152600081600481895afa9081156157f757916024918594936000916157de575b50868a0152855196879384926370a0823160e01b84521660048301525afa9182156157d457506000916157a8575b50606084015250565b82813d83116157cd575b6157bc8183614059565b8101031261530d575051803861579f565b503d6157b2565b513d6000823e3d90fd5b6157f1913d8091833e61072f8183614059565b38615771565b85513d6000823e3d90fd5b6158199150853d8711610713576107048183614059565b3861574056fea2646970667358221220b4891e85558f9e95613bba816901f4be954223c132d3056baa5dd78cf62a1e7664736f6c63430008110033",
  "devdoc": {
    "author": "Angle Labs, Inc.",
    "details": "This contract is mostly a helper for APIs getting built on top and helping in Angle UniswapV3 incentivization schemePeople depositing rewards should have signed a `message` with the conditions for using the product",
    "kind": "dev",
    "methods": {
      "createDistribution((bytes32,address,address,uint256,address[],uint32[],uint32,uint32,uint32,uint32,uint32,uint32,uint32,address,bytes))": {
        "details": "It's important to make sure that the address specified as a UniV3 pool is effectively a pool otherwise they will not be handled by the distribution script and rewards may be lostThe `positionWrappers` specified in the `distribution` struct need to be supported by the scriptIf the pool incentivized contains agEUR, then no fees are taken on the rewardsThis function will revert if the user has not signed the message `messageHash` once through one of the functions enabling to sign",
        "returns": {
          "distributionAmount": "How many reward tokens are actually taken into consideration in the contract"
        }
      },
      "createDistributions((bytes32,address,address,uint256,address[],uint32[],uint32,uint32,uint32,uint32,uint32,uint32,uint32,address,bytes)[])": {
        "returns": {
          "_0": "List of all the distribution amounts actually deposited for each `distribution` in the `distributions` list"
        }
      },
      "getDistributionsBetweenEpochs(uint32,uint32)": {
        "details": "If a distribution starts during `epochEnd`, it will not be returned by this functionConversely, if a distribution starts after `epochStart` and ends before `epochEnd`, it will be returned by this function"
      },
      "proxiableUUID()": {
        "details": "Implementation of the ERC1822 {proxiableUUID} function. This returns the storage slot used by the implementation. It is used to validate the implementation's compatibility when performing an upgrade. IMPORTANT: A proxy pointing at a proxiable contract should not be considered proxiable itself, because this risks bricking a proxy that upgrades to it, by delegating to itself until out of gas. Thus it is critical that this function revert if invoked through a proxy. This is guaranteed by the `notDelegated` modifier."
      },
      "sign(bytes)": {
        "details": "If you signed the message once, and the message has not been modified, then you do not need to sign again"
      },
      "upgradeTo(address)": {
        "details": "Upgrade the implementation of the proxy to `newImplementation`. Calls {_authorizeUpgrade}. Emits an {Upgraded} event."
      },
      "upgradeToAndCall(address,bytes)": {
        "details": "Upgrade the implementation of the proxy to `newImplementation`, and subsequently execute the function call encoded in `data`. Calls {_authorizeUpgrade}. Emits an {Upgraded} event."
      }
    },
    "stateVariables": {
      "distributionList": {
        "details": "An attacker could try to populate this list. It shouldn't be an issue as only view functions iterate on it"
      }
    },
    "title": "DistributionCreator",
    "version": 1
  },
  "userdoc": {
    "kind": "user",
    "methods": {
      "BASE_9()": {
        "notice": "Base for fee computation"
      },
      "EPOCH_DURATION()": {
        "notice": "Epoch duration"
      },
      "coreBorrow()": {
        "notice": "`CoreBorrow` contract handling access control"
      },
      "createDistribution((bytes32,address,address,uint256,address[],uint32[],uint32,uint32,uint32,uint32,uint32,uint32,uint32,address,bytes))": {
        "notice": "Creates a `distribution` to incentivize a given UniswapV3 pool for a specific period of time"
      },
      "createDistributions((bytes32,address,address,uint256,address[],uint32[],uint32,uint32,uint32,uint32,uint32,uint32,uint32,address,bytes)[])": {
        "notice": "Same as the function above but for multiple distributions at once"
      },
      "distributionList(uint256)": {
        "notice": "List of all rewards ever distributed or to be distributed in the contract"
      },
      "distributor()": {
        "notice": "User contract for distributing rewards"
      },
      "feeRebate(address)": {
        "notice": "Maps an address to its fee rebate"
      },
      "feeRecipient()": {
        "notice": "Address to which fees will be forwarded"
      },
      "fees()": {
        "notice": "Value (in base 10**9) of the fees taken when creating a distribution for a pool which do not have a whitelisted token in it"
      },
      "getActiveDistributions()": {
        "notice": "Returns the list of all currently active distributions on UniswapV3 pool"
      },
      "getActivePoolDistributions(address)": {
        "notice": "Returns the list of all currently active distributions for a specific UniswapV3 pool"
      },
      "getAllDistributions()": {
        "notice": "Returns the list of all distributions ever distributed or to be distributed"
      },
      "getDistributionsAfterEpoch(uint32)": {
        "notice": "Returns the list of all distributions that were or will be live after `epochStart` (included)"
      },
      "getDistributionsBetweenEpochs(uint32,uint32)": {
        "notice": "Gets the distributions that were or will be live at some point between `epochStart` (included) and `epochEnd` (excluded)"
      },
      "getDistributionsForEpoch(uint32)": {
        "notice": "Returns the list of all the distributions that were or that are going to be live at a specific epoch"
      },
      "getPoolDistributionsAfterEpoch(address,uint32)": {
        "notice": "Returns the list of all distributions that were or will be live after `epochStart` (included) for a specific pool"
      },
      "getPoolDistributionsBetweenEpochs(address,uint32,uint32)": {
        "notice": "Returns the list of all distributions that were or will be live between `epochStart` (included) and `epochEnd` (excluded) for a specific pool"
      },
      "getPoolDistributionsForEpoch(address,uint32)": {
        "notice": "Returns the list of all the distributions that were or that are going to be live at a specific epoch and for a specific pool"
      },
      "isWhitelistedToken(address)": {
        "notice": "Maps a token to whether it is whitelisted or not. No fees are to be paid for incentives given on pools with whitelisted tokens"
      },
      "message()": {
        "notice": "Message that needs to be acknowledged by users creating a distribution"
      },
      "messageHash()": {
        "notice": "Hash of the message that needs to be signed"
      },
      "nonces(address)": {
        "notice": "Maps an address to its nonce for creating a distribution"
      },
      "recoverFees(address[],address)": {
        "notice": "Recovers fees accrued on the contract for a list of `tokens`"
      },
      "setFeeRecipient(address)": {
        "notice": "Sets a new address to receive fees"
      },
      "setFees(uint256)": {
        "notice": "Sets the fees on deposit"
      },
      "setMessage(string)": {
        "notice": "Sets the message that needs to be signed by users before posting rewards"
      },
      "setNewDistributor(address)": {
        "notice": "Sets a new `distributor` to which rewards should be distributed"
      },
      "setUserFeeRebate(address,uint256)": {
        "notice": "Sets fee rebates for a given user"
      },
      "sign(bytes)": {
        "notice": "Checks whether the `msg.sender`'s `signature` is compatible with the message to sign and stores the fact that signing was done"
      },
      "signAndCreateDistribution((bytes32,address,address,uint256,address[],uint32[],uint32,uint32,uint32,uint32,uint32,uint32,uint32,address,bytes),bytes)": {
        "notice": "Combines signing the message and creating a distribution"
      },
      "toggleSigningWhitelist(address)": {
        "notice": "Toggles the whitelist status for `user` when it comes to signing messages before depositing rewards."
      },
      "toggleTokenWhitelist(address)": {
        "notice": "Toggles the fee whitelist for `token`"
      },
      "userSignatureWhitelist(address)": {
        "notice": "Maps a user to whether it is whitelisted for not signing"
      },
      "userSignatures(address)": {
        "notice": "Maps an address to the last valid hash signed"
      }
    },
    "notice": "Manages the distribution of rewards across different UniswapV3 pools",
    "version": 1
  },
  "storageLayout": {
    "storage": [
      {
        "astId": 395,
        "contract": "contracts/DistributionCreator.sol:DistributionCreator",
        "label": "_initialized",
        "offset": 0,
        "slot": "0",
        "type": "t_uint8"
      },
      {
        "astId": 398,
        "contract": "contracts/DistributionCreator.sol:DistributionCreator",
        "label": "_initializing",
        "offset": 1,
        "slot": "0",
        "type": "t_bool"
      },
      {
        "astId": 377,
        "contract": "contracts/DistributionCreator.sol:DistributionCreator",
        "label": "__gap",
        "offset": 0,
        "slot": "1",
        "type": "t_array(t_uint256)50_storage"
      },
      {
        "astId": 692,
        "contract": "contracts/DistributionCreator.sol:DistributionCreator",
        "label": "__gap",
        "offset": 0,
        "slot": "51",
        "type": "t_array(t_uint256)50_storage"
      },
      {
        "astId": 707,
        "contract": "contracts/DistributionCreator.sol:DistributionCreator",
        "label": "_status",
        "offset": 0,
        "slot": "101",
        "type": "t_uint256"
      },
      {
        "astId": 765,
        "contract": "contracts/DistributionCreator.sol:DistributionCreator",
        "label": "__gap",
        "offset": 0,
        "slot": "102",
        "type": "t_array(t_uint256)49_storage"
      },
      {
        "astId": 4833,
        "contract": "contracts/DistributionCreator.sol:DistributionCreator",
        "label": "coreBorrow",
        "offset": 0,
        "slot": "151",
        "type": "t_contract(ICoreBorrow)7094"
      },
      {
        "astId": 4836,
        "contract": "contracts/DistributionCreator.sol:DistributionCreator",
        "label": "distributor",
        "offset": 0,
        "slot": "152",
        "type": "t_address"
      },
      {
        "astId": 4839,
        "contract": "contracts/DistributionCreator.sol:DistributionCreator",
        "label": "feeRecipient",
        "offset": 0,
        "slot": "153",
        "type": "t_address"
      },
      {
        "astId": 4842,
        "contract": "contracts/DistributionCreator.sol:DistributionCreator",
        "label": "fees",
        "offset": 0,
        "slot": "154",
        "type": "t_uint256"
      },
      {
        "astId": 4845,
        "contract": "contracts/DistributionCreator.sol:DistributionCreator",
        "label": "message",
        "offset": 0,
        "slot": "155",
        "type": "t_string_storage"
      },
      {
        "astId": 4848,
        "contract": "contracts/DistributionCreator.sol:DistributionCreator",
        "label": "messageHash",
        "offset": 0,
        "slot": "156",
        "type": "t_bytes32"
      },
      {
        "astId": 4853,
        "contract": "contracts/DistributionCreator.sol:DistributionCreator",
        "label": "distributionList",
        "offset": 0,
        "slot": "157",
        "type": "t_array(t_struct(DistributionParameters)7527_storage)dyn_storage"
      },
      {
        "astId": 4858,
        "contract": "contracts/DistributionCreator.sol:DistributionCreator",
        "label": "feeRebate",
        "offset": 0,
        "slot": "158",
        "type": "t_mapping(t_address,t_uint256)"
      },
      {
        "astId": 4863,
        "contract": "contracts/DistributionCreator.sol:DistributionCreator",
        "label": "isWhitelistedToken",
        "offset": 0,
        "slot": "159",
        "type": "t_mapping(t_address,t_uint256)"
      },
      {
        "astId": 4868,
        "contract": "contracts/DistributionCreator.sol:DistributionCreator",
        "label": "nonces",
        "offset": 0,
        "slot": "160",
        "type": "t_mapping(t_address,t_uint256)"
      },
      {
        "astId": 4873,
        "contract": "contracts/DistributionCreator.sol:DistributionCreator",
        "label": "userSignatures",
        "offset": 0,
        "slot": "161",
        "type": "t_mapping(t_address,t_bytes32)"
      },
      {
        "astId": 4878,
        "contract": "contracts/DistributionCreator.sol:DistributionCreator",
        "label": "userSignatureWhitelist",
        "offset": 0,
        "slot": "162",
        "type": "t_mapping(t_address,t_uint256)"
      },
      {
        "astId": 4882,
        "contract": "contracts/DistributionCreator.sol:DistributionCreator",
        "label": "__gap",
        "offset": 0,
        "slot": "163",
        "type": "t_array(t_uint256)38_storage"
      }
    ],
    "types": {
      "t_address": {
        "encoding": "inplace",
        "label": "address",
        "numberOfBytes": "20"
      },
      "t_array(t_address)dyn_storage": {
        "base": "t_address",
        "encoding": "dynamic_array",
        "label": "address[]",
        "numberOfBytes": "32"
      },
      "t_array(t_struct(DistributionParameters)7527_storage)dyn_storage": {
        "base": "t_struct(DistributionParameters)7527_storage",
        "encoding": "dynamic_array",
        "label": "struct DistributionParameters[]",
        "numberOfBytes": "32"
      },
      "t_array(t_uint256)38_storage": {
        "base": "t_uint256",
        "encoding": "inplace",
        "label": "uint256[38]",
        "numberOfBytes": "1216"
      },
      "t_array(t_uint256)49_storage": {
        "base": "t_uint256",
        "encoding": "inplace",
        "label": "uint256[49]",
        "numberOfBytes": "1568"
      },
      "t_array(t_uint256)50_storage": {
        "base": "t_uint256",
        "encoding": "inplace",
        "label": "uint256[50]",
        "numberOfBytes": "1600"
      },
      "t_array(t_uint32)dyn_storage": {
        "base": "t_uint32",
        "encoding": "dynamic_array",
        "label": "uint32[]",
        "numberOfBytes": "32"
      },
      "t_bool": {
        "encoding": "inplace",
        "label": "bool",
        "numberOfBytes": "1"
      },
      "t_bytes32": {
        "encoding": "inplace",
        "label": "bytes32",
        "numberOfBytes": "32"
      },
      "t_bytes_storage": {
        "encoding": "bytes",
        "label": "bytes",
        "numberOfBytes": "32"
      },
      "t_contract(ICoreBorrow)7094": {
        "encoding": "inplace",
        "label": "contract ICoreBorrow",
        "numberOfBytes": "20"
      },
      "t_mapping(t_address,t_bytes32)": {
        "encoding": "mapping",
        "key": "t_address",
        "label": "mapping(address => bytes32)",
        "numberOfBytes": "32",
        "value": "t_bytes32"
      },
      "t_mapping(t_address,t_uint256)": {
        "encoding": "mapping",
        "key": "t_address",
        "label": "mapping(address => uint256)",
        "numberOfBytes": "32",
        "value": "t_uint256"
      },
      "t_string_storage": {
        "encoding": "bytes",
        "label": "string",
        "numberOfBytes": "32"
      },
      "t_struct(DistributionParameters)7527_storage": {
        "encoding": "inplace",
        "label": "struct DistributionParameters",
        "members": [
          {
            "astId": 7496,
            "contract": "contracts/DistributionCreator.sol:DistributionCreator",
            "label": "rewardId",
            "offset": 0,
            "slot": "0",
            "type": "t_bytes32"
          },
          {
            "astId": 7498,
            "contract": "contracts/DistributionCreator.sol:DistributionCreator",
            "label": "uniV3Pool",
            "offset": 0,
            "slot": "1",
            "type": "t_address"
          },
          {
            "astId": 7500,
            "contract": "contracts/DistributionCreator.sol:DistributionCreator",
            "label": "rewardToken",
            "offset": 0,
            "slot": "2",
            "type": "t_address"
          },
          {
            "astId": 7502,
            "contract": "contracts/DistributionCreator.sol:DistributionCreator",
            "label": "amount",
            "offset": 0,
            "slot": "3",
            "type": "t_uint256"
          },
          {
            "astId": 7505,
            "contract": "contracts/DistributionCreator.sol:DistributionCreator",
            "label": "positionWrappers",
            "offset": 0,
            "slot": "4",
            "type": "t_array(t_address)dyn_storage"
          },
          {
            "astId": 7508,
            "contract": "contracts/DistributionCreator.sol:DistributionCreator",
            "label": "wrapperTypes",
            "offset": 0,
            "slot": "5",
            "type": "t_array(t_uint32)dyn_storage"
          },
          {
            "astId": 7510,
            "contract": "contracts/DistributionCreator.sol:DistributionCreator",
            "label": "propToken0",
            "offset": 0,
            "slot": "6",
            "type": "t_uint32"
          },
          {
            "astId": 7512,
            "contract": "contracts/DistributionCreator.sol:DistributionCreator",
            "label": "propToken1",
            "offset": 4,
            "slot": "6",
            "type": "t_uint32"
          },
          {
            "astId": 7514,
            "contract": "contracts/DistributionCreator.sol:DistributionCreator",
            "label": "propFees",
            "offset": 8,
            "slot": "6",
            "type": "t_uint32"
          },
          {
            "astId": 7516,
            "contract": "contracts/DistributionCreator.sol:DistributionCreator",
            "label": "epochStart",
            "offset": 12,
            "slot": "6",
            "type": "t_uint32"
          },
          {
            "astId": 7518,
            "contract": "contracts/DistributionCreator.sol:DistributionCreator",
            "label": "numEpoch",
            "offset": 16,
            "slot": "6",
            "type": "t_uint32"
          },
          {
            "astId": 7520,
            "contract": "contracts/DistributionCreator.sol:DistributionCreator",
            "label": "isOutOfRangeIncentivized",
            "offset": 20,
            "slot": "6",
            "type": "t_uint32"
          },
          {
            "astId": 7522,
            "contract": "contracts/DistributionCreator.sol:DistributionCreator",
            "label": "boostedReward",
            "offset": 24,
            "slot": "6",
            "type": "t_uint32"
          },
          {
            "astId": 7524,
            "contract": "contracts/DistributionCreator.sol:DistributionCreator",
            "label": "boostingAddress",
            "offset": 0,
            "slot": "7",
            "type": "t_address"
          },
          {
            "astId": 7526,
            "contract": "contracts/DistributionCreator.sol:DistributionCreator",
            "label": "additionalData",
            "offset": 0,
            "slot": "8",
            "type": "t_bytes_storage"
          }
        ],
        "numberOfBytes": "288"
      },
      "t_uint256": {
        "encoding": "inplace",
        "label": "uint256",
        "numberOfBytes": "32"
      },
      "t_uint32": {
        "encoding": "inplace",
        "label": "uint32",
        "numberOfBytes": "4"
      },
      "t_uint8": {
        "encoding": "inplace",
        "label": "uint8",
        "numberOfBytes": "1"
      }
    }
  }
}