{
  "address": "0x918261fa5Dd9C3b1358cA911792E9bDF3c5CCa35",
  "abi": [
    {
      "inputs": [],
      "stateMutability": "nonpayable",
      "type": "constructor"
    },
    {
      "inputs": [],
      "name": "InvalidDispute",
      "type": "error"
    },
    {
      "inputs": [],
      "name": "InvalidLengths",
      "type": "error"
    },
    {
      "inputs": [],
      "name": "InvalidProof",
      "type": "error"
    },
    {
      "inputs": [],
      "name": "InvalidUninitializedRoot",
      "type": "error"
    },
    {
      "inputs": [],
      "name": "NoDispute",
      "type": "error"
    },
    {
      "inputs": [],
      "name": "NotGovernorOrGuardian",
      "type": "error"
    },
    {
      "inputs": [],
      "name": "NotTrusted",
      "type": "error"
    },
    {
      "inputs": [],
      "name": "NotWhitelisted",
      "type": "error"
    },
    {
      "inputs": [],
      "name": "UnresolvedDispute",
      "type": "error"
    },
    {
      "inputs": [],
      "name": "ZeroAddress",
      "type": "error"
    },
    {
      "anonymous": false,
      "inputs": [
        {
          "indexed": false,
          "internalType": "address",
          "name": "previousAdmin",
          "type": "address"
        },
        {
          "indexed": false,
          "internalType": "address",
          "name": "newAdmin",
          "type": "address"
        }
      ],
      "name": "AdminChanged",
      "type": "event"
    },
    {
      "anonymous": false,
      "inputs": [
        {
          "indexed": true,
          "internalType": "address",
          "name": "beacon",
          "type": "address"
        }
      ],
      "name": "BeaconUpgraded",
      "type": "event"
    },
    {
      "anonymous": false,
      "inputs": [
        {
          "indexed": true,
          "internalType": "address",
          "name": "user",
          "type": "address"
        },
        {
          "indexed": true,
          "internalType": "address",
          "name": "token",
          "type": "address"
        },
        {
          "indexed": false,
          "internalType": "uint256",
          "name": "amount",
          "type": "uint256"
        }
      ],
      "name": "Claimed",
      "type": "event"
    },
    {
      "anonymous": false,
      "inputs": [
        {
          "indexed": false,
          "internalType": "uint256",
          "name": "_disputeAmount",
          "type": "uint256"
        }
      ],
      "name": "DisputeAmountUpdated",
      "type": "event"
    },
    {
      "anonymous": false,
      "inputs": [
        {
          "indexed": false,
          "internalType": "uint48",
          "name": "_disputePeriod",
          "type": "uint48"
        }
      ],
      "name": "DisputePeriodUpdated",
      "type": "event"
    },
    {
      "anonymous": false,
      "inputs": [
        {
          "indexed": false,
          "internalType": "bool",
          "name": "valid",
          "type": "bool"
        }
      ],
      "name": "DisputeResolved",
      "type": "event"
    },
    {
      "anonymous": false,
      "inputs": [
        {
          "indexed": true,
          "internalType": "address",
          "name": "_disputeToken",
          "type": "address"
        }
      ],
      "name": "DisputeTokenUpdated",
      "type": "event"
    },
    {
      "anonymous": false,
      "inputs": [
        {
          "indexed": false,
          "internalType": "string",
          "name": "reason",
          "type": "string"
        }
      ],
      "name": "Disputed",
      "type": "event"
    },
    {
      "anonymous": false,
      "inputs": [
        {
          "indexed": false,
          "internalType": "uint8",
          "name": "version",
          "type": "uint8"
        }
      ],
      "name": "Initialized",
      "type": "event"
    },
    {
      "anonymous": false,
      "inputs": [
        {
          "indexed": true,
          "internalType": "address",
          "name": "user",
          "type": "address"
        },
        {
          "indexed": false,
          "internalType": "bool",
          "name": "isEnabled",
          "type": "bool"
        }
      ],
      "name": "OperatorClaimingToggled",
      "type": "event"
    },
    {
      "anonymous": false,
      "inputs": [
        {
          "indexed": true,
          "internalType": "address",
          "name": "user",
          "type": "address"
        },
        {
          "indexed": true,
          "internalType": "address",
          "name": "operator",
          "type": "address"
        },
        {
          "indexed": false,
          "internalType": "bool",
          "name": "isWhitelisted",
          "type": "bool"
        }
      ],
      "name": "OperatorToggled",
      "type": "event"
    },
    {
      "anonymous": false,
      "inputs": [
        {
          "indexed": true,
          "internalType": "address",
          "name": "token",
          "type": "address"
        },
        {
          "indexed": true,
          "internalType": "address",
          "name": "to",
          "type": "address"
        },
        {
          "indexed": false,
          "internalType": "uint256",
          "name": "amount",
          "type": "uint256"
        }
      ],
      "name": "Recovered",
      "type": "event"
    },
    {
      "anonymous": false,
      "inputs": [],
      "name": "Revoked",
      "type": "event"
    },
    {
      "anonymous": false,
      "inputs": [
        {
          "indexed": false,
          "internalType": "bytes32",
          "name": "merkleRoot",
          "type": "bytes32"
        },
        {
          "indexed": false,
          "internalType": "bytes32",
          "name": "ipfsHash",
          "type": "bytes32"
        },
        {
          "indexed": false,
          "internalType": "uint48",
          "name": "endOfDisputePeriod",
          "type": "uint48"
        }
      ],
      "name": "TreeUpdated",
      "type": "event"
    },
    {
      "anonymous": false,
      "inputs": [
        {
          "indexed": true,
          "internalType": "address",
          "name": "eoa",
          "type": "address"
        },
        {
          "indexed": false,
          "internalType": "bool",
          "name": "trust",
          "type": "bool"
        }
      ],
      "name": "TrustedToggled",
      "type": "event"
    },
    {
      "anonymous": false,
      "inputs": [
        {
          "indexed": true,
          "internalType": "address",
          "name": "implementation",
          "type": "address"
        }
      ],
      "name": "Upgraded",
      "type": "event"
    },
    {
      "inputs": [
        {
          "internalType": "address",
          "name": "",
          "type": "address"
        }
      ],
      "name": "canUpdateMerkleRoot",
      "outputs": [
        {
          "internalType": "uint256",
          "name": "",
          "type": "uint256"
        }
      ],
      "stateMutability": "view",
      "type": "function"
    },
    {
      "inputs": [
        {
          "internalType": "address[]",
          "name": "users",
          "type": "address[]"
        },
        {
          "internalType": "address[]",
          "name": "tokens",
          "type": "address[]"
        },
        {
          "internalType": "uint256[]",
          "name": "amounts",
          "type": "uint256[]"
        },
        {
          "internalType": "bytes32[][]",
          "name": "proofs",
          "type": "bytes32[][]"
        }
      ],
      "name": "claim",
      "outputs": [],
      "stateMutability": "nonpayable",
      "type": "function"
    },
    {
      "inputs": [
        {
          "internalType": "address",
          "name": "",
          "type": "address"
        },
        {
          "internalType": "address",
          "name": "",
          "type": "address"
        }
      ],
      "name": "claimed",
      "outputs": [
        {
          "internalType": "uint208",
          "name": "amount",
          "type": "uint208"
        },
        {
          "internalType": "uint48",
          "name": "timestamp",
          "type": "uint48"
        },
        {
          "internalType": "bytes32",
          "name": "merkleRoot",
          "type": "bytes32"
        }
      ],
      "stateMutability": "view",
      "type": "function"
    },
    {
      "inputs": [],
      "name": "core",
      "outputs": [
        {
          "internalType": "contract ICore",
          "name": "",
          "type": "address"
        }
      ],
      "stateMutability": "view",
      "type": "function"
    },
    {
      "inputs": [],
      "name": "disputeAmount",
      "outputs": [
        {
          "internalType": "uint256",
          "name": "",
          "type": "uint256"
        }
      ],
      "stateMutability": "view",
      "type": "function"
    },
    {
      "inputs": [],
      "name": "disputePeriod",
      "outputs": [
        {
          "internalType": "uint48",
          "name": "",
          "type": "uint48"
        }
      ],
      "stateMutability": "view",
      "type": "function"
    },
    {
      "inputs": [],
      "name": "disputeToken",
      "outputs": [
        {
          "internalType": "contract IERC20",
          "name": "",
          "type": "address"
        }
      ],
      "stateMutability": "view",
      "type": "function"
    },
    {
      "inputs": [
        {
          "internalType": "string",
          "name": "reason",
          "type": "string"
        }
      ],
      "name": "disputeTree",
      "outputs": [],
      "stateMutability": "nonpayable",
      "type": "function"
    },
    {
      "inputs": [],
      "name": "disputer",
      "outputs": [
        {
          "internalType": "address",
          "name": "",
          "type": "address"
        }
      ],
      "stateMutability": "view",
      "type": "function"
    },
    {
      "inputs": [],
      "name": "endOfDisputePeriod",
      "outputs": [
        {
          "internalType": "uint48",
          "name": "",
          "type": "uint48"
        }
      ],
      "stateMutability": "view",
      "type": "function"
    },
    {
      "inputs": [],
      "name": "getMerkleRoot",
      "outputs": [
        {
          "internalType": "bytes32",
          "name": "",
          "type": "bytes32"
        }
      ],
      "stateMutability": "view",
      "type": "function"
    },
    {
      "inputs": [
        {
          "internalType": "contract ICore",
          "name": "_core",
          "type": "address"
        }
      ],
      "name": "initialize",
      "outputs": [],
      "stateMutability": "nonpayable",
      "type": "function"
    },
    {
      "inputs": [],
      "name": "lastTree",
      "outputs": [
        {
          "internalType": "bytes32",
          "name": "merkleRoot",
          "type": "bytes32"
        },
        {
          "internalType": "bytes32",
          "name": "ipfsHash",
          "type": "bytes32"
        }
      ],
      "stateMutability": "view",
      "type": "function"
    },
    {
      "inputs": [
        {
          "internalType": "address",
          "name": "",
          "type": "address"
        }
      ],
      "name": "onlyOperatorCanClaim",
      "outputs": [
        {
          "internalType": "uint256",
          "name": "",
          "type": "uint256"
        }
      ],
      "stateMutability": "view",
      "type": "function"
    },
    {
      "inputs": [
        {
          "internalType": "address",
          "name": "",
          "type": "address"
        },
        {
          "internalType": "address",
          "name": "",
          "type": "address"
        }
      ],
      "name": "operators",
      "outputs": [
        {
          "internalType": "uint256",
          "name": "",
          "type": "uint256"
        }
      ],
      "stateMutability": "view",
      "type": "function"
    },
    {
      "inputs": [],
      "name": "proxiableUUID",
      "outputs": [
        {
          "internalType": "bytes32",
          "name": "",
          "type": "bytes32"
        }
      ],
      "stateMutability": "view",
      "type": "function"
    },
    {
      "inputs": [
        {
          "internalType": "address",
          "name": "tokenAddress",
          "type": "address"
        },
        {
          "internalType": "address",
          "name": "to",
          "type": "address"
        },
        {
          "internalType": "uint256",
          "name": "amountToRecover",
          "type": "uint256"
        }
      ],
      "name": "recoverERC20",
      "outputs": [],
      "stateMutability": "nonpayable",
      "type": "function"
    },
    {
      "inputs": [
        {
          "internalType": "bool",
          "name": "valid",
          "type": "bool"
        }
      ],
      "name": "resolveDispute",
      "outputs": [],
      "stateMutability": "nonpayable",
      "type": "function"
    },
    {
      "inputs": [],
      "name": "revokeTree",
      "outputs": [],
      "stateMutability": "nonpayable",
      "type": "function"
    },
    {
      "inputs": [
        {
          "internalType": "uint256",
          "name": "_disputeAmount",
          "type": "uint256"
        }
      ],
      "name": "setDisputeAmount",
      "outputs": [],
      "stateMutability": "nonpayable",
      "type": "function"
    },
    {
      "inputs": [
        {
          "internalType": "uint48",
          "name": "_disputePeriod",
          "type": "uint48"
        }
      ],
      "name": "setDisputePeriod",
      "outputs": [],
      "stateMutability": "nonpayable",
      "type": "function"
    },
    {
      "inputs": [
        {
          "internalType": "contract IERC20",
          "name": "_disputeToken",
          "type": "address"
        }
      ],
      "name": "setDisputeToken",
      "outputs": [],
      "stateMutability": "nonpayable",
      "type": "function"
    },
    {
      "inputs": [
        {
          "internalType": "address",
          "name": "user",
          "type": "address"
        }
      ],
      "name": "toggleOnlyOperatorCanClaim",
      "outputs": [],
      "stateMutability": "nonpayable",
      "type": "function"
    },
    {
      "inputs": [
        {
          "internalType": "address",
          "name": "user",
          "type": "address"
        },
        {
          "internalType": "address",
          "name": "operator",
          "type": "address"
        }
      ],
      "name": "toggleOperator",
      "outputs": [],
      "stateMutability": "nonpayable",
      "type": "function"
    },
    {
      "inputs": [
        {
          "internalType": "address",
          "name": "eoa",
          "type": "address"
        }
      ],
      "name": "toggleTrusted",
      "outputs": [],
      "stateMutability": "nonpayable",
      "type": "function"
    },
    {
      "inputs": [],
      "name": "tree",
      "outputs": [
        {
          "internalType": "bytes32",
          "name": "merkleRoot",
          "type": "bytes32"
        },
        {
          "internalType": "bytes32",
          "name": "ipfsHash",
          "type": "bytes32"
        }
      ],
      "stateMutability": "view",
      "type": "function"
    },
    {
      "inputs": [
        {
          "components": [
            {
              "internalType": "bytes32",
              "name": "merkleRoot",
              "type": "bytes32"
            },
            {
              "internalType": "bytes32",
              "name": "ipfsHash",
              "type": "bytes32"
            }
          ],
          "internalType": "struct MerkleTree",
          "name": "_tree",
          "type": "tuple"
        }
      ],
      "name": "updateTree",
      "outputs": [],
      "stateMutability": "nonpayable",
      "type": "function"
    },
    {
      "inputs": [
        {
          "internalType": "address",
          "name": "newImplementation",
          "type": "address"
        }
      ],
      "name": "upgradeTo",
      "outputs": [],
      "stateMutability": "nonpayable",
      "type": "function"
    },
    {
      "inputs": [
        {
          "internalType": "address",
          "name": "newImplementation",
          "type": "address"
        },
        {
          "internalType": "bytes",
          "name": "data",
          "type": "bytes"
        }
      ],
      "name": "upgradeToAndCall",
      "outputs": [],
      "stateMutability": "payable",
      "type": "function"
    }
  ],
  "transactionHash": "0x7b56ea0fda9c64e40d66bedb19e85d6369f27397faacd084176929bc0fc739f2",
  "args": [],
  "numDeployments": 1,
  "solcInputHash": "b31837c8c7813f102c167ae4fe08d715",
  "bytecode": "0x60a060405234620000495730608052620000186200004e565b620000226200004e565b60405161319d90816200015a82396080518181816116500152818161179f0152611da50152f35b600080fd5b60005460ff8160081c1615908180926200014b575b801562000132575b15620000d65760ff19811660011760005581620000c3575b506200008b57565b61ff0019600054166000557f7f26b83ff96e1f2b6a682f133852f6798a09c465da95921460cefb3847402498602060405160018152a1565b61ffff1916610101176000553862000083565b60405162461bcd60e51b815260206004820152602e60248201527f496e697469616c697a61626c653a20636f6e747261637420697320616c72656160448201526d191e481a5b9a5d1a585b1a5e995960921b6064820152608490fd5b50303b1580156200006b5750600160ff8216146200006b565b50600160ff8216106200006356fe60808060405260048036101561001457600080fd5b60003560e01c91826309454ba314612835575081630c9cbf0e146127885781630d10fca31461269b5781631171bda914612594578163147691421461252f5781632637588e146124b257816328827838146123125781632a25dd41146121735781633659cfe614611d535781634641fdef14611bf05781634959065714611baf5781634f1ef2861461172457816352d1902d1461160a5781635bf31d4d146115cb5781635cec892a14611584578163623b9e9d1461146c5781636ac561031461141a57816371ee95c014610d665781637ee8434914610bfd57816389e1e82a146109f657816395788835146108e2578163bdac7ca31461074a578163c4d66de814610520578163c748d261146104ce578163cce80e7a1461048b578163d9c980871461025f57508063e57480e5146101fa578063f2f4eb26146101a85763fd54b2281461016057600080fd5b346101a35760007ffffffffffffffffffffffffffffffffffffffffffffffffffffffffffffffffc3601126101a357604060655460665482519182526020820152f35b600080fd5b346101a35760007ffffffffffffffffffffffffffffffffffffffffffffffffffffffffffffffffc3601126101a357602073ffffffffffffffffffffffffffffffffffffffff606a5416604051908152f35b346101a35760207ffffffffffffffffffffffffffffffffffffffffffffffffffffffffffffffffc3601126101a35773ffffffffffffffffffffffffffffffffffffffff61024661286e565b16600052606e6020526020604060002054604051908152f35b346101a35760407ffffffffffffffffffffffffffffffffffffffffffffffffffffffffffffffffc3601126101a357606b5473ffffffffffffffffffffffffffffffffffffffff80821615908115916103be575b50610395579060206103907f23aa2e4f757a7bd974085d3e11439a843b137b30905e3ffd51b2097c34aef62e93604051936102ed856128b4565b606554948581526066549485910152359283606555602435948560665560675560685561032165ffffffffffff42166130f0565b907fffffffffffff000000000000ffffffffffffffffffffffffffffffffffffffff79ffffffffffff00000000000000000000000000000000000000008360a01b16911617606b556040519384938491604091949365ffffffffffff9160608501968552602085015216910152565b0390a1005b506040517fc22a648e000000000000000000000000000000000000000000000000000000008152fd5b905033600052606e60205260016040600020541490811591610475575b816103e8575b50836102b3565b60249150602090606a5416604051928380927f521d4de900000000000000000000000000000000000000000000000000000000825233888301525afa9081156104695760009161043b575b5015836103e1565b61045c915060203d8111610462575b610454818361291b565b810190612cff565b83610433565b503d61044a565b6040513d6000823e3d90fd5b905065ffffffffffff8260a01c164210906103db565b346101a35760007ffffffffffffffffffffffffffffffffffffffffffffffffffffffffffffffffc3601126101a357604060675460685482519182526020820152f35b346101a35760007ffffffffffffffffffffffffffffffffffffffffffffffffffffffffffffffffc3601126101a357602073ffffffffffffffffffffffffffffffffffffffff60695416604051908152f35b346101a35760207ffffffffffffffffffffffffffffffffffffffffffffffffffffffffffffffffc3601126101a357803573ffffffffffffffffffffffffffffffffffffffff81168091036101a3576000549160ff8360081c16159283809461073d575b8015610726575b156106a2578360017fffffffffffffffffffffffffffffffffffffffffffffffffffffffffffffff00831617600055610673575b50811561064b57507fffffffffffffffffffffffff0000000000000000000000000000000000000000606a541617606a556105f657005b7fffffffffffffffffffffffffffffffffffffffffffffffffffffffffffff00ff600054166000557f7f26b83ff96e1f2b6a682f133852f6798a09c465da95921460cefb3847402498602060405160018152a1005b6040517fd92e233d000000000000000000000000000000000000000000000000000000008152fd5b7fffffffffffffffffffffffffffffffffffffffffffffffffffffffffffff00001661010117600055836105bf565b6084826020604051917f08c379a0000000000000000000000000000000000000000000000000000000008352820152602e60248201527f496e697469616c697a61626c653a20636f6e747261637420697320616c72656160448201527f647920696e697469616c697a65640000000000000000000000000000000000006064820152fd5b50303b15801561058b5750600160ff82161461058b565b50600160ff821610610584565b346101a35760407ffffffffffffffffffffffffffffffffffffffffffffffffffffffffffffffffc3601126101a35761078161286e565b610789612891565b9173ffffffffffffffffffffffffffffffffffffffff8092169133831415806108c9575b8061085a575b610395578260005260706020526040600020931692836000526020526040600020549081600103906001821161082c57507f42343f44c66ea1eaffa334760d3da2cb731d2a0b3b3e30423df997faa36cc95c916020918460005260708352604060002086600052835260406000205560405190158152a3005b6011907f4e487b71000000000000000000000000000000000000000000000000000000006000525260246000fd5b506024602082606a5416604051928380927f521d4de900000000000000000000000000000000000000000000000000000000825233888301525afa908115610469576000916108ab575b50156107b3565b6108c3915060203d811161046257610454818361291b565b856108a4565b5033600052606e602052600160406000205414156107ad565b346101a35760007ffffffffffffffffffffffffffffffffffffffffffffffffffffffffffffffffc3601126101a35773ffffffffffffffffffffffffffffffffffffffff6024602082606a5416604051928380927f521d4de900000000000000000000000000000000000000000000000000000000825233888301525afa908115610469576000916109d8575b50156109af57606b541661098757610985613019565b005b6040517f05832574000000000000000000000000000000000000000000000000000000008152fd5b506040517f99e120bc000000000000000000000000000000000000000000000000000000008152fd5b6109f0915060203d811161046257610454818361291b565b8361096f565b346101a35760207ffffffffffffffffffffffffffffffffffffffffffffffffffffffffffffffffc3601126101a357803590811515918281036101a35773ffffffffffffffffffffffffffffffffffffffff906024602083606a5416604051928380927f521d4de900000000000000000000000000000000000000000000000000000000825233898301525afa90811561046957600091610bdf575b5015610bb657606b928284541615610b8e577f8015c5005d9ad5d85ca80d3f894f08e0159277704c54166e5cff108800fa80cd60208686868615610b1d5780610ae6916069541690835416606c5491612d77565b610aee613019565b7fffffffffffffffffffffffff00000000000000000000000000000000000000008154169055604051908152a1005b610b309060695416606c54903390612d77565b610b4165ffffffffffff42166130f0565b7fffffffffffff000000000000ffffffffffffffffffffffffffffffffffffffff79ffffffffffff000000000000000000000000000000000000000083549260a01b169116178155610aee565b6040517f93754748000000000000000000000000000000000000000000000000000000008152fd5b826040517f99e120bc000000000000000000000000000000000000000000000000000000008152fd5b610bf7915060203d811161046257610454818361291b565b85610a92565b346101a3576020807ffffffffffffffffffffffffffffffffffffffffffffffffffffffffffffffffc3601126101a357610c3561286e565b73ffffffffffffffffffffffffffffffffffffffff9060248383606a5416604051928380927f521d4de9000000000000000000000000000000000000000000000000000000008252338a8301525afa90811561046957600091610d49575b5015610d2057169081600052606e815260406000205460010360018111610cf257907f7628ea5f6112a16b36a8239aa208395a8e8f221688cfb3a5461faffb9700abcd9183600052606e825280604060002055600160405191148152a2005b6011847f4e487b71000000000000000000000000000000000000000000000000000000006000525260246000fd5b836040517f99e120bc000000000000000000000000000000000000000000000000000000008152fd5b610d609150843d861161046257610454818361291b565b85610c93565b346101a35760807ffffffffffffffffffffffffffffffffffffffffffffffffffffffffffffffffc3601126101a357803567ffffffffffffffff81116101a357610db390369083016129cd565b909160243567ffffffffffffffff81116101a357610dd490369083016129cd565b92909160443567ffffffffffffffff81116101a357610df690369083016129cd565b909560643567ffffffffffffffff81116101a357610e1790369085016129cd565b94909281158015611410575b8015611406575b80156113fc575b6113d35760005b828110610e4157005b878a610e718385610e6b610e608f8490610e65610e60838f8f90612d17565b612d56565b98612d17565b93612d17565b359073ffffffffffffffffffffffffffffffffffffffff8316600052606f602052600160406000205414806113b5575b61138c576040805173ffffffffffffffffffffffffffffffffffffffff858116602083019081529084169282019290925260608082018590528152610ee760808261291b565b5190208a85101561135e577fffffffffffffffffffffffffffffffffffffffffffffffffffffffffffffffe1893603018560051b8a013512156101a35767ffffffffffffffff8560051b8a01358a0135116101a357600585811b8a01358a01803590911b36036020909101136101a35760405190610f7460208760051b8c01358c013560051b018361291b565b600586811b8b01358b0180358085526020808601933692901b909201909101116101a35760208760051b8c01358c0101905b600588811b8d01358d01803590911b01602001821061134e575050908051906000915b8083106112cf57505050610fdb612f85565b9081156112a6570361127d5773ffffffffffffffffffffffffffffffffffffffff8316600052606d602052604060002073ffffffffffffffffffffffffffffffffffffffff821660005260205279ffffffffffffffffffffffffffffffffffffffffffffffffffff6040600020541682039180831161124f5779ffffffffffffffffffffffffffffffffffffffffffffffffffff81116111cb5761107d612f85565b6040519182606081011067ffffffffffffffff60608501111761119d5773ffffffffffffffffffffffffffffffffffffffff600197969594848960209579ffffffffffffffffffffffffffffffffffffffffffffffffffff859660607ff7a40077ff7a04c7e61f6f26fb13774259ddf1b6bce9ecf26a8276cdd39926839a0160405216835286830165ffffffffffff4216815260408401918252858b16600052606d8852604060002086861660005288527fffffffffffff000000000000000000000000000000000000000000000000000079ffffffffffffffffffffffffffffffffffffffffffffffffffff6040600020955116915160d01b161783555191015561118c8688848416612d77565b60405195865216941692a301610e38565b60418c7f4e487b71000000000000000000000000000000000000000000000000000000006000525260246000fd5b60848a6020604051917f08c379a0000000000000000000000000000000000000000000000000000000008352820152602760248201527f53616665436173743a2076616c756520646f65736e27742066697420696e203260448201527f30382062697473000000000000000000000000000000000000000000000000006064820152fd5b60118a7f4e487b71000000000000000000000000000000000000000000000000000000006000525260246000fd5b886040517f09bde339000000000000000000000000000000000000000000000000000000008152fd5b8a6040517f094ad658000000000000000000000000000000000000000000000000000000008152fd5b9091926001906112df8585613153565b5181101561131c576112f18585613153565b51604051906020820192835260408201526040815261130f816128ff565b519020935b019190610fc9565b6113268585613153565b51906040519060208201928352604082015260408152611345816128ff565b51902093611314565b8135815260209182019101610fa6565b60328a7f4e487b71000000000000000000000000000000000000000000000000000000006000525260246000fd5b886040517f584a7938000000000000000000000000000000000000000000000000000000008152fd5b50607060205260406000203360005260205260406000205415610ea1565b846040517f1df89e8b000000000000000000000000000000000000000000000000000000008152fd5b5085821415610e31565b5080821415610e2a565b5087821415610e23565b346101a35760007ffffffffffffffffffffffffffffffffffffffffffffffffffffffffffffffffc3601126101a357602073ffffffffffffffffffffffffffffffffffffffff606b5416604051908152f35b346101a35760207ffffffffffffffffffffffffffffffffffffffffffffffffffffffffffffffffc3601126101a35780359073ffffffffffffffffffffffffffffffffffffffff8083168093036101a3576024602082606a5416604051928380927f521d4de900000000000000000000000000000000000000000000000000000000825233888301525afa90811561046957600091611566575b50156109af57606b54166109875750807fffffffffffffffffffffffff000000000000000000000000000000000000000060695416176069557f1db8d6629941dcb63d5e0c927b89c174c714e139a4b9107a49de839d755f5d74600080a2005b61157e915060203d811161046257610454818361291b565b84611506565b346101a35760007ffffffffffffffffffffffffffffffffffffffffffffffffffffffffffffffffc3601126101a357602065ffffffffffff606b5460a01c16604051908152f35b346101a35760007ffffffffffffffffffffffffffffffffffffffffffffffffffffffffffffffffc3601126101a3576020606b5460d01c604051908152f35b346101a35760007ffffffffffffffffffffffffffffffffffffffffffffffffffffffffffffffffc3601126101a35773ffffffffffffffffffffffffffffffffffffffff7f00000000000000000000000000000000000000000000000000000000000000001630036116a05760206040517f360894a13ba1a3210667c828492db98dca3e2076cc3735a920a3ca505d382bbc8152f35b6084906020604051917f08c379a0000000000000000000000000000000000000000000000000000000008352820152603860248201527f555550535570677261646561626c653a206d757374206e6f742062652063616c60448201527f6c6564207468726f7567682064656c656761746563616c6c00000000000000006064820152fd5b60407ffffffffffffffffffffffffffffffffffffffffffffffffffffffffffffffffc3601126101a35761175661286e565b6024803567ffffffffffffffff81116101a357366023820112156101a35761178690369083818701359101612996565b73ffffffffffffffffffffffffffffffffffffffff90817f000000000000000000000000000000000000000000000000000000000000000016916117cc833014156129fe565b6117fb7f360894a13ba1a3210667c828492db98dca3e2076cc3735a920a3ca505d382bbc938285541614612a89565b80606a5416848115159182611b43575b5050611b1a577f4910fdfa16fed3260ed0e7147f7cc6da11a60208b5b9406d12a635614ffd91435460ff161561184957505050506109859150612b14565b849192939416604051937f52d1902d00000000000000000000000000000000000000000000000000000000855260209485818981865afa60009181611aeb575b5061191057608488602e8989604051937f08c379a00000000000000000000000000000000000000000000000000000000085528401528201527f45524331393637557067726164653a206e657720696d706c656d656e7461746960448201527f6f6e206973206e6f7420555550530000000000000000000000000000000000006064820152fd5b95919293949503611a695761192483612b14565b604051917fbc7cd75a20ee27fd9adebab32041f755214dbc6bffa90cc0225b39da2e5c2d3b600080a2835115801590611a61575b61195e57005b823b156119e2575050815161098594506000928392908501905af4611981612c00565b907f416464726573733a206c6f772d6c6576656c2064656c65676174652063616c6c604051936119b0856128ff565b602785528401527f206661696c6564000000000000000000000000000000000000000000000000006040840152612c30565b90602660849286887f08c379a00000000000000000000000000000000000000000000000000000000085528401528201527f416464726573733a2064656c65676174652063616c6c20746f206e6f6e2d636f60448201527f6e747261637400000000000000000000000000000000000000000000000000006064820152fd5b506001611958565b85602960849287604051937f08c379a00000000000000000000000000000000000000000000000000000000085528401528201527f45524331393637557067726164653a20756e737570706f727465642070726f7860448201527f6961626c655555494400000000000000000000000000000000000000000000006064820152fd5b9091508681813d8311611b13575b611b03818361291b565b810103126101a357519089611889565b503d611af9565b856040517f99e120bc000000000000000000000000000000000000000000000000000000008152fd5b6020919250604051928380927f521d4de9000000000000000000000000000000000000000000000000000000008252338c8301525afa90811561046957600091611b91575b5015848861180b565b611ba9915060203d811161046257610454818361291b565b87611b88565b346101a35760007ffffffffffffffffffffffffffffffffffffffffffffffffffffffffffffffffc3601126101a3576020611be8612f85565b604051908152f35b346101a35760207ffffffffffffffffffffffffffffffffffffffffffffffffffffffffffffffffc3601126101a357803565ffffffffffff8116918282036101a3576024602073ffffffffffffffffffffffffffffffffffffffff606a5416604051928380927f521d4de900000000000000000000000000000000000000000000000000000000825233878301525afa90811561046957600091611d35575b5015611d0d577ffdf22e84af74bd4ab6b9646f6370a02bc886ed6ac25882db14e4ebf4b8e3bc7e6020848479ffffffffffffffffffffffffffffffffffffffffffffffffffff7fffffffffffff0000000000000000000000000000000000000000000000000000606b549260d01b16911617606b55604051908152a1005b6040517f99e120bc000000000000000000000000000000000000000000000000000000008152fd5b611d4d915060203d811161046257610454818361291b565b84611c8f565b346101a357602090817ffffffffffffffffffffffffffffffffffffffffffffffffffffffffffffffffc3601126101a357611d8c61286e565b9173ffffffffffffffffffffffffffffffffffffffff807f000000000000000000000000000000000000000000000000000000000000000016611dd1813014156129fe565b611e007f360894a13ba1a3210667c828492db98dca3e2076cc3735a920a3ca505d382bbc918383541614612a89565b81606a5416838115159182612109575b5050610d2057604051908382019282841067ffffffffffffffff8511176120db57836040526000835260ff7f4910fdfa16fed3260ed0e7147f7cc6da11a60208b5b9406d12a635614ffd91435416600014611e745750505050505061098590612b14565b8616906040517f52d1902d00000000000000000000000000000000000000000000000000000000815285818881865afa600091816120ac575b50611f355760848787604051917f08c379a0000000000000000000000000000000000000000000000000000000008352820152602e60248201527f45524331393637557067726164653a206e657720696d706c656d656e7461746960448201527f6f6e206973206e6f7420555550530000000000000000000000000000000000006064820152fd5b9591929394950361202957611f4986612b14565b604051917fbc7cd75a20ee27fd9adebab32041f755214dbc6bffa90cc0225b39da2e5c2d3b600080a2825115801590612021575b611f8357005b853b15611fa157505061098593600092839251915af4611981612c00565b90846084927f08c379a0000000000000000000000000000000000000000000000000000000008352820152602660248201527f416464726573733a2064656c65676174652063616c6c20746f206e6f6e2d636f60448201527f6e747261637400000000000000000000000000000000000000000000000000006064820152fd5b506000611f7d565b60849085604051917f08c379a0000000000000000000000000000000000000000000000000000000008352820152602960248201527f45524331393637557067726164653a20756e737570706f727465642070726f7860448201527f6961626c655555494400000000000000000000000000000000000000000000006064820152fd5b9091508681813d83116120d4575b6120c4818361291b565b810103126101a357519089611ead565b503d6120ba565b6041867f4e487b71000000000000000000000000000000000000000000000000000000006000525260246000fd5b60249250604051928380927f521d4de9000000000000000000000000000000000000000000000000000000008252338a8301525afa90811561046957600091612156575b50158387611e10565b61216d9150843d861161046257610454818361291b565b8661214d565b346101a35760207ffffffffffffffffffffffffffffffffffffffffffffffffffffffffffffffffc3601126101a357803567ffffffffffffffff81116101a357366023820112156101a3576121d19036906024818501359101612996565b90606b549073ffffffffffffffffffffffffffffffffffffffff918281166122e95760a01c65ffffffffffff164210156122c157606954606c546040517f23b872dd0000000000000000000000000000000000000000000000000000000060208201523360248201523060448201526064808201929092529081527f5eca00b8ed745eee61451333090bfa56aa1f2a9e696a2aebe5f1f5b6cef6f2ff9161039091869161228b9190871661228660848361291b565b612de6565b337fffffffffffffffffffffffff0000000000000000000000000000000000000000606b541617606b5560405191829182612c4c565b6040517f1a8f0395000000000000000000000000000000000000000000000000000000008152fd5b506040517f05832574000000000000000000000000000000000000000000000000000000008152fd5b346101a3576020807ffffffffffffffffffffffffffffffffffffffffffffffffffffffffffffffffc3601126101a35773ffffffffffffffffffffffffffffffffffffffff908161236161286e565b169181338414159182612496575b82612428575b50506123ff5781600052606f815260406000205480600103600181116123d157837f81d714ca01079a19c106993b49b2764df6bb6abe740164ef7b77ee9c100a024a949550600052606f835260406000205560405190158152a2005b6011857f4e487b71000000000000000000000000000000000000000000000000000000006000525260246000fd5b826040517fc22a648e000000000000000000000000000000000000000000000000000000008152fd5b60249250606a5416604051928380927f521d4de900000000000000000000000000000000000000000000000000000000825233898301525afa90811561046957600091612479575b50158185612375565b6124909150823d841161046257610454818361291b565b84612470565b91505033600052606e825281600160406000205414159161236f565b346101a35760407ffffffffffffffffffffffffffffffffffffffffffffffffffffffffffffffffc3601126101a3576124e961286e565b6124f1612891565b9073ffffffffffffffffffffffffffffffffffffffff8091166000526070602052604060002091166000526020526020604060002054604051908152f35b346101a35760207ffffffffffffffffffffffffffffffffffffffffffffffffffffffffffffffffc3601126101a35773ffffffffffffffffffffffffffffffffffffffff61257b61286e565b16600052606f6020526020604060002054604051908152f35b346101a35760607ffffffffffffffffffffffffffffffffffffffffffffffffffffffffffffffffc3601126101a3576125cb61286e565b906125d4612891565b906044359273ffffffffffffffffffffffffffffffffffffffff916024602084606a5416604051928380927f521d4de900000000000000000000000000000000000000000000000000000000825233878301525afa9081156104695760009161267d575b5015611d0d5750817ffff3b3844276f57024e0b42afec1a37f75db36511e43819a4f2a63ab7862b648926020921693612672868287612d77565b6040519586521693a3005b612695915060203d811161046257610454818361291b565b86612638565b346101a35760207ffffffffffffffffffffffffffffffffffffffffffffffffffffffffffffffffc3601126101a35780359073ffffffffffffffffffffffffffffffffffffffff6024602082606a5416604051928380927f521d4de900000000000000000000000000000000000000000000000000000000825233888301525afa9081156104695760009161276a575b50156109af57606b5416610987577f39bb629f3d59f5eddf978050e1f5fabeca2b5d02dfc9c25e84f32e7da1069db460208380606c55604051908152a1005b612782915060203d811161046257610454818361291b565b8461272b565b346101a35760407ffffffffffffffffffffffffffffffffffffffffffffffffffffffffffffffffc3601126101a3576127bf61286e565b6127c7612891565b9073ffffffffffffffffffffffffffffffffffffffff809116600052606d6020526040600020911660005260205260606040600020600181549101546040519179ffffffffffffffffffffffffffffffffffffffffffffffffffff8116835260d01c60208301526040820152f35b346101a35760007ffffffffffffffffffffffffffffffffffffffffffffffffffffffffffffffffc3601126101a357602090606c548152f35b6004359073ffffffffffffffffffffffffffffffffffffffff821682036101a357565b6024359073ffffffffffffffffffffffffffffffffffffffff821682036101a357565b6040810190811067ffffffffffffffff8211176128d057604052565b7f4e487b7100000000000000000000000000000000000000000000000000000000600052604160045260246000fd5b6060810190811067ffffffffffffffff8211176128d057604052565b90601f7fffffffffffffffffffffffffffffffffffffffffffffffffffffffffffffffe0910116810190811067ffffffffffffffff8211176128d057604052565b67ffffffffffffffff81116128d057601f017fffffffffffffffffffffffffffffffffffffffffffffffffffffffffffffffe01660200190565b9291926129a28261295c565b916129b0604051938461291b565b8294818452818301116101a3578281602093846000960137010152565b9181601f840112156101a35782359167ffffffffffffffff83116101a3576020808501948460051b0101116101a357565b15612a0557565b60846040517f08c379a000000000000000000000000000000000000000000000000000000000815260206004820152602c60248201527f46756e6374696f6e206d7573742062652063616c6c6564207468726f7567682060448201527f64656c656761746563616c6c00000000000000000000000000000000000000006064820152fd5b15612a9057565b60846040517f08c379a000000000000000000000000000000000000000000000000000000000815260206004820152602c60248201527f46756e6374696f6e206d7573742062652063616c6c6564207468726f7567682060448201527f6163746976652070726f787900000000000000000000000000000000000000006064820152fd5b803b15612b7c5773ffffffffffffffffffffffffffffffffffffffff7f360894a13ba1a3210667c828492db98dca3e2076cc3735a920a3ca505d382bbc91167fffffffffffffffffffffffff0000000000000000000000000000000000000000825416179055565b60846040517f08c379a000000000000000000000000000000000000000000000000000000000815260206004820152602d60248201527f455243313936373a206e657720696d706c656d656e746174696f6e206973206e60448201527f6f74206120636f6e7472616374000000000000000000000000000000000000006064820152fd5b3d15612c2b573d90612c118261295c565b91612c1f604051938461291b565b82523d6000602084013e565b606090565b909160609115612c3f57505090565b612c4a919392612cb2565b565b60208082528251818301819052939260005b858110612c9e575050507fffffffffffffffffffffffffffffffffffffffffffffffffffffffffffffffe0601f8460006040809697860101520116010190565b818101830151848201604001528201612c5e565b805190925015612cc55750805190602001fd5b612cfb906040519182917f08c379a000000000000000000000000000000000000000000000000000000000835260048301612c4c565b0390fd5b908160209103126101a3575180151581036101a35790565b9190811015612d275760051b0190565b7f4e487b7100000000000000000000000000000000000000000000000000000000600052603260045260246000fd5b3573ffffffffffffffffffffffffffffffffffffffff811681036101a35790565b9173ffffffffffffffffffffffffffffffffffffffff604051927fa9059cbb000000000000000000000000000000000000000000000000000000006020850152166024830152604482015260448152608081019181831067ffffffffffffffff8411176128d057612c4a926040525b604051612e519173ffffffffffffffffffffffffffffffffffffffff16612e0c826128b4565b6000806020958685527f5361666545524332303a206c6f772d6c6576656c2063616c6c206661696c656487860152868151910182855af1612e4b612c00565b91612efa565b80519081612e5e57505050565b8280612e6e938301019101612cff565b15612e765750565b608490604051907f08c379a00000000000000000000000000000000000000000000000000000000082526004820152602a60248201527f5361666545524332303a204552433230206f7065726174696f6e20646964206e60448201527f6f742073756363656564000000000000000000000000000000000000000000006064820152fd5b919260609115612f78575050815115612f11575090565b3b15612f1a5790565b60646040517f08c379a000000000000000000000000000000000000000000000000000000000815260206004820152601d60248201527f416464726573733a2063616c6c20746f206e6f6e2d636f6e74726163740000006044820152fd5b909392612c4a9250612cb2565b606b5465ffffffffffff8160a01c164210159081612fb0575b5015612faa5760655490565b60675490565b73ffffffffffffffffffffffffffffffffffffffff9150161538612f9e565b90610e1065ffffffffffff80931602918216918203612fea57565b7f4e487b7100000000000000000000000000000000000000000000000000000000600052601160045260246000fd5b7f23aa2e4f757a7bd974085d3e11439a843b137b30905e3ffd51b2097c34aef62e6020604051613048816128b4565b6067549081815260685492839101527fffffffffffff000000000000ffffffffffffffffffffffffffffffffffffffff606b5416606b5580606555816066557f44825a4b2df8acb19ce4e1afba9aa850c8b65cdb7942e2078f27d0b0960efee6600080a16130eb6130c4610e1065ffffffffffff421604612fcf565b6040519384938491604091949365ffffffffffff9160608501968552602085015216910152565b0390a1565b7fffffffffffffffffffffffffffffffffffffffffffffffffffffffffffffffff65ffffffffffff80921601818111612fea5781610e108160019316041601818111612fea5781606b5460d01c911601908111612fea5761315090612fcf565b90565b8051821015612d275760209160051b01019056fea26469706673582212204bc7c5ce91f161796c008fa7cc197fa667e89433ebbad74f961f82a7ff3d5b7964736f6c63430008110033",
  "devdoc": {
    "author": "Angle Labs. Inc",
    "kind": "dev",
    "methods": {
      "claim(address[],address[],uint256[],bytes32[][])": {
        "details": "Anyone may call this function for anyone else, funds go to destination regardless, it's just a question of who provides the proof and pays the gas: `msg.sender` is used only for addresses that require a trusted operator",
        "params": {
          "amounts": "Amount of tokens that will be sent to the corresponding users",
          "proofs": "Array of hashes bridging from a leaf `(hash of user | token | amount)` to the Merkle root",
          "tokens": "ERC20 claimed",
          "users": "Recipient of tokens"
        }
      },
      "disputeTree(string)": {
        "details": "Requires a deposit of `disputeToken` that'll be slashed if the dispute is not acceptedIt is only possible to create a dispute within `disputePeriod` after each tree update"
      },
      "proxiableUUID()": {
        "details": "Implementation of the ERC1822 {proxiableUUID} function. This returns the storage slot used by the implementation. It is used to validate the implementation's compatibility when performing an upgrade. IMPORTANT: A proxy pointing at a proxiable contract should not be considered proxiable itself, because this risks bricking a proxy that upgrades to it, by delegating to itself until out of gas. Thus it is critical that this function revert if invoked through a proxy. This is guaranteed by the `notDelegated` modifier."
      },
      "resolveDispute(bool)": {
        "params": {
          "valid": "Whether the dispute was valid"
        }
      },
      "upgradeTo(address)": {
        "details": "Upgrade the implementation of the proxy to `newImplementation`. Calls {_authorizeUpgrade}. Emits an {Upgraded} event."
      },
      "upgradeToAndCall(address,bytes)": {
        "details": "Upgrade the implementation of the proxy to `newImplementation`, and subsequently execute the function call encoded in `data`. Calls {_authorizeUpgrade}. Emits an {Upgraded} event."
      }
    },
    "stateVariables": {
      "disputer": {
        "details": "Used to store if there is an ongoing dispute"
      }
    },
    "title": "Distributor",
    "version": 1
  },
  "userdoc": {
    "kind": "user",
    "methods": {
      "canUpdateMerkleRoot(address)": {
        "notice": "Trusted EOAs to update the Merkle root"
      },
      "claim(address[],address[],uint256[],bytes32[][])": {
        "notice": "Claims rewards for a given set of users"
      },
      "claimed(address,address)": {
        "notice": "Mapping user -> token -> amount to track claimed amounts"
      },
      "core()": {
        "notice": "`Core` contract handling access control"
      },
      "disputeAmount()": {
        "notice": "Amount to deposit to freeze the roots update"
      },
      "disputePeriod()": {
        "notice": "Time after which a change in a tree becomes effective, in EPOCH_DURATION"
      },
      "disputeToken()": {
        "notice": "Token to deposit to freeze the roots update"
      },
      "disputeTree(string)": {
        "notice": "Freezes the Merkle tree update until the dispute is resolved"
      },
      "disputer()": {
        "notice": "Address which created the dispute"
      },
      "endOfDisputePeriod()": {
        "notice": "When the current tree will become valid"
      },
      "getMerkleRoot()": {
        "notice": "Returns the MerkleRoot that is currently live for the contract"
      },
      "lastTree()": {
        "notice": "Tree that was in place in the contract before the last `tree` update"
      },
      "onlyOperatorCanClaim(address)": {
        "notice": "Whether or not to disable permissionless claiming"
      },
      "operators(address,address)": {
        "notice": "user -> operator -> authorisation to claim"
      },
      "recoverERC20(address,address,uint256)": {
        "notice": "Recovers any ERC20 token"
      },
      "resolveDispute(bool)": {
        "notice": "Resolve the ongoing dispute, if any"
      },
      "revokeTree()": {
        "notice": "Allows the governor or the guardian of this contract to fallback to the last version of the tree immediately"
      },
      "setDisputeAmount(uint256)": {
        "notice": "Sets the amount of `disputeToken` used as a caution during disputes"
      },
      "setDisputePeriod(uint48)": {
        "notice": "Sets the dispute period after which a tree update becomes effective"
      },
      "setDisputeToken(address)": {
        "notice": "Sets the token used as a caution during disputes"
      },
      "toggleOnlyOperatorCanClaim(address)": {
        "notice": "Toggles permissioned claiming for a given user"
      },
      "toggleOperator(address,address)": {
        "notice": "Toggles whitelisting for a given user and a given operator"
      },
      "toggleTrusted(address)": {
        "notice": "Adds or removes EOAs which are trusted to update the Merkle root"
      },
      "tree()": {
        "notice": "Tree of claimable tokens through this contract"
      },
      "updateTree((bytes32,bytes32))": {
        "notice": "Updates Merkle Tree"
      }
    },
    "notice": "Allows LPs on AMMs with concentrated liquidity to claim the rewards that were distributed to them",
    "version": 1
  },
  "storageLayout": {
    "storage": [
      {
        "astId": 395,
        "contract": "contracts/Distributor.sol:Distributor",
        "label": "_initialized",
        "offset": 0,
        "slot": "0",
        "type": "t_uint8"
      },
      {
        "astId": 398,
        "contract": "contracts/Distributor.sol:Distributor",
        "label": "_initializing",
        "offset": 1,
        "slot": "0",
        "type": "t_bool"
      },
      {
        "astId": 377,
        "contract": "contracts/Distributor.sol:Distributor",
        "label": "__gap",
        "offset": 0,
        "slot": "1",
        "type": "t_array(t_uint256)50_storage"
      },
      {
        "astId": 692,
        "contract": "contracts/Distributor.sol:Distributor",
        "label": "__gap",
        "offset": 0,
        "slot": "51",
        "type": "t_array(t_uint256)50_storage"
      },
      {
        "astId": 9137,
        "contract": "contracts/Distributor.sol:Distributor",
        "label": "tree",
        "offset": 0,
        "slot": "101",
        "type": "t_struct(MerkleTree)9115_storage"
      },
      {
        "astId": 9141,
        "contract": "contracts/Distributor.sol:Distributor",
        "label": "lastTree",
        "offset": 0,
        "slot": "103",
        "type": "t_struct(MerkleTree)9115_storage"
      },
      {
        "astId": 9145,
        "contract": "contracts/Distributor.sol:Distributor",
        "label": "disputeToken",
        "offset": 0,
        "slot": "105",
        "type": "t_contract(IERC20)3433"
      },
      {
        "astId": 9149,
        "contract": "contracts/Distributor.sol:Distributor",
        "label": "core",
        "offset": 0,
        "slot": "106",
        "type": "t_contract(ICore)11750"
      },
      {
        "astId": 9152,
        "contract": "contracts/Distributor.sol:Distributor",
        "label": "disputer",
        "offset": 0,
        "slot": "107",
        "type": "t_address"
      },
      {
        "astId": 9155,
        "contract": "contracts/Distributor.sol:Distributor",
        "label": "endOfDisputePeriod",
        "offset": 20,
        "slot": "107",
        "type": "t_uint48"
      },
      {
        "astId": 9158,
        "contract": "contracts/Distributor.sol:Distributor",
        "label": "disputePeriod",
        "offset": 26,
        "slot": "107",
        "type": "t_uint48"
      },
      {
        "astId": 9161,
        "contract": "contracts/Distributor.sol:Distributor",
        "label": "disputeAmount",
        "offset": 0,
        "slot": "108",
        "type": "t_uint256"
      },
      {
        "astId": 9169,
        "contract": "contracts/Distributor.sol:Distributor",
        "label": "claimed",
        "offset": 0,
        "slot": "109",
        "type": "t_mapping(t_address,t_mapping(t_address,t_struct(Claim)9122_storage))"
      },
      {
        "astId": 9174,
        "contract": "contracts/Distributor.sol:Distributor",
        "label": "canUpdateMerkleRoot",
        "offset": 0,
        "slot": "110",
        "type": "t_mapping(t_address,t_uint256)"
      },
      {
        "astId": 9179,
        "contract": "contracts/Distributor.sol:Distributor",
        "label": "onlyOperatorCanClaim",
        "offset": 0,
        "slot": "111",
        "type": "t_mapping(t_address,t_uint256)"
      },
      {
        "astId": 9186,
        "contract": "contracts/Distributor.sol:Distributor",
        "label": "operators",
        "offset": 0,
        "slot": "112",
        "type": "t_mapping(t_address,t_mapping(t_address,t_uint256))"
      },
      {
        "astId": 9190,
        "contract": "contracts/Distributor.sol:Distributor",
        "label": "__gap",
        "offset": 0,
        "slot": "113",
        "type": "t_array(t_uint256)38_storage"
      }
    ],
    "types": {
      "t_address": {
        "encoding": "inplace",
        "label": "address",
        "numberOfBytes": "20"
      },
      "t_array(t_uint256)38_storage": {
        "base": "t_uint256",
        "encoding": "inplace",
        "label": "uint256[38]",
        "numberOfBytes": "1216"
      },
      "t_array(t_uint256)50_storage": {
        "base": "t_uint256",
        "encoding": "inplace",
        "label": "uint256[50]",
        "numberOfBytes": "1600"
      },
      "t_bool": {
        "encoding": "inplace",
        "label": "bool",
        "numberOfBytes": "1"
      },
      "t_bytes32": {
        "encoding": "inplace",
        "label": "bytes32",
        "numberOfBytes": "32"
      },
      "t_contract(ICore)11750": {
        "encoding": "inplace",
        "label": "contract ICore",
        "numberOfBytes": "20"
      },
      "t_contract(IERC20)3433": {
        "encoding": "inplace",
        "label": "contract IERC20",
        "numberOfBytes": "20"
      },
      "t_mapping(t_address,t_mapping(t_address,t_struct(Claim)9122_storage))": {
        "encoding": "mapping",
        "key": "t_address",
        "label": "mapping(address => mapping(address => struct Claim))",
        "numberOfBytes": "32",
        "value": "t_mapping(t_address,t_struct(Claim)9122_storage)"
      },
      "t_mapping(t_address,t_mapping(t_address,t_uint256))": {
        "encoding": "mapping",
        "key": "t_address",
        "label": "mapping(address => mapping(address => uint256))",
        "numberOfBytes": "32",
        "value": "t_mapping(t_address,t_uint256)"
      },
      "t_mapping(t_address,t_struct(Claim)9122_storage)": {
        "encoding": "mapping",
        "key": "t_address",
        "label": "mapping(address => struct Claim)",
        "numberOfBytes": "32",
        "value": "t_struct(Claim)9122_storage"
      },
      "t_mapping(t_address,t_uint256)": {
        "encoding": "mapping",
        "key": "t_address",
        "label": "mapping(address => uint256)",
        "numberOfBytes": "32",
        "value": "t_uint256"
      },
      "t_struct(Claim)9122_storage": {
        "encoding": "inplace",
        "label": "struct Claim",
        "members": [
          {
            "astId": 9117,
            "contract": "contracts/Distributor.sol:Distributor",
            "label": "amount",
            "offset": 0,
            "slot": "0",
            "type": "t_uint208"
          },
          {
            "astId": 9119,
            "contract": "contracts/Distributor.sol:Distributor",
            "label": "timestamp",
            "offset": 26,
            "slot": "0",
            "type": "t_uint48"
          },
          {
            "astId": 9121,
            "contract": "contracts/Distributor.sol:Distributor",
            "label": "merkleRoot",
            "offset": 0,
            "slot": "1",
            "type": "t_bytes32"
          }
        ],
        "numberOfBytes": "64"
      },
      "t_struct(MerkleTree)9115_storage": {
        "encoding": "inplace",
        "label": "struct MerkleTree",
        "members": [
          {
            "astId": 9112,
            "contract": "contracts/Distributor.sol:Distributor",
            "label": "merkleRoot",
            "offset": 0,
            "slot": "0",
            "type": "t_bytes32"
          },
          {
            "astId": 9114,
            "contract": "contracts/Distributor.sol:Distributor",
            "label": "ipfsHash",
            "offset": 0,
            "slot": "1",
            "type": "t_bytes32"
          }
        ],
        "numberOfBytes": "64"
      },
      "t_uint208": {
        "encoding": "inplace",
        "label": "uint208",
        "numberOfBytes": "26"
      },
      "t_uint256": {
        "encoding": "inplace",
        "label": "uint256",
        "numberOfBytes": "32"
      },
      "t_uint48": {
        "encoding": "inplace",
        "label": "uint48",
        "numberOfBytes": "6"
      },
      "t_uint8": {
        "encoding": "inplace",
        "label": "uint8",
        "numberOfBytes": "1"
      }
    }
  }
}