{
  "address": "0x533438BDf6C576eB14d9572B41d5D37220cc4d09",
  "abi": [
    {
      "inputs": [],
      "stateMutability": "nonpayable",
      "type": "constructor"
    },
    {
      "inputs": [],
      "name": "InvalidLengths",
      "type": "error"
    },
    {
      "inputs": [],
      "name": "InvalidParam",
      "type": "error"
    },
    {
      "inputs": [],
      "name": "InvalidReward",
      "type": "error"
    },
    {
      "inputs": [],
      "name": "InvalidSignature",
      "type": "error"
    },
    {
      "inputs": [],
      "name": "NotGovernorOrGuardian",
      "type": "error"
    },
    {
      "inputs": [],
      "name": "NotSigned",
      "type": "error"
    },
    {
      "inputs": [],
      "name": "ZeroAddress",
      "type": "error"
    },
    {
      "anonymous": false,
      "inputs": [
        {
          "indexed": false,
          "internalType": "address",
          "name": "previousAdmin",
          "type": "address"
        },
        {
          "indexed": false,
          "internalType": "address",
          "name": "newAdmin",
          "type": "address"
        }
      ],
      "name": "AdminChanged",
      "type": "event"
    },
    {
      "anonymous": false,
      "inputs": [
        {
          "indexed": true,
          "internalType": "address",
          "name": "beacon",
          "type": "address"
        }
      ],
      "name": "BeaconUpgraded",
      "type": "event"
    },
    {
      "anonymous": false,
      "inputs": [
        {
          "indexed": true,
          "internalType": "address",
          "name": "_distributor",
          "type": "address"
        }
      ],
      "name": "DistributorUpdated",
      "type": "event"
    },
    {
      "anonymous": false,
      "inputs": [
        {
          "indexed": true,
          "internalType": "address",
          "name": "user",
          "type": "address"
        },
        {
          "indexed": false,
          "internalType": "uint256",
          "name": "userFeeRebate",
          "type": "uint256"
        }
      ],
      "name": "FeeRebateUpdated",
      "type": "event"
    },
    {
      "anonymous": false,
      "inputs": [
        {
          "indexed": true,
          "internalType": "address",
          "name": "_feeRecipient",
          "type": "address"
        }
      ],
      "name": "FeeRecipientUpdated",
      "type": "event"
    },
    {
      "anonymous": false,
      "inputs": [
        {
          "indexed": false,
          "internalType": "uint256",
          "name": "_fees",
          "type": "uint256"
        }
      ],
      "name": "FeesSet",
      "type": "event"
    },
    {
      "anonymous": false,
      "inputs": [
        {
          "indexed": false,
          "internalType": "uint8",
          "name": "version",
          "type": "uint8"
        }
      ],
      "name": "Initialized",
      "type": "event"
    },
    {
      "anonymous": false,
      "inputs": [
        {
          "indexed": false,
          "internalType": "bytes32",
          "name": "_messageHash",
          "type": "bytes32"
        }
      ],
      "name": "MessageUpdated",
      "type": "event"
    },
    {
      "anonymous": false,
      "inputs": [
        {
          "components": [
            {
              "internalType": "bytes32",
              "name": "rewardId",
              "type": "bytes32"
            },
            {
              "internalType": "address",
              "name": "uniV3Pool",
              "type": "address"
            },
            {
              "internalType": "address",
              "name": "rewardToken",
              "type": "address"
            },
            {
              "internalType": "uint256",
              "name": "amount",
              "type": "uint256"
            },
            {
              "internalType": "address[]",
              "name": "positionWrappers",
              "type": "address[]"
            },
            {
              "internalType": "uint32[]",
              "name": "wrapperTypes",
              "type": "uint32[]"
            },
            {
              "internalType": "uint32",
              "name": "propToken0",
              "type": "uint32"
            },
            {
              "internalType": "uint32",
              "name": "propToken1",
              "type": "uint32"
            },
            {
              "internalType": "uint32",
              "name": "propFees",
              "type": "uint32"
            },
            {
              "internalType": "uint32",
              "name": "epochStart",
              "type": "uint32"
            },
            {
              "internalType": "uint32",
              "name": "numEpoch",
              "type": "uint32"
            },
            {
              "internalType": "uint32",
              "name": "isOutOfRangeIncentivized",
              "type": "uint32"
            },
            {
              "internalType": "uint32",
              "name": "boostedReward",
              "type": "uint32"
            },
            {
              "internalType": "address",
              "name": "boostingAddress",
              "type": "address"
            },
            {
              "internalType": "bytes",
              "name": "additionalData",
              "type": "bytes"
            }
          ],
          "indexed": false,
          "internalType": "struct DistributionParameters",
          "name": "distribution",
          "type": "tuple"
        },
        {
          "indexed": true,
          "internalType": "address",
          "name": "sender",
          "type": "address"
        }
      ],
      "name": "NewDistribution",
      "type": "event"
    },
    {
      "anonymous": false,
      "inputs": [
        {
          "indexed": true,
          "internalType": "address",
          "name": "token",
          "type": "address"
        },
        {
          "indexed": false,
          "internalType": "uint256",
          "name": "amount",
          "type": "uint256"
        }
      ],
      "name": "RewardTokenMinimumAmountUpdated",
      "type": "event"
    },
    {
      "anonymous": false,
      "inputs": [
        {
          "indexed": true,
          "internalType": "address",
          "name": "token",
          "type": "address"
        },
        {
          "indexed": false,
          "internalType": "uint256",
          "name": "toggleStatus",
          "type": "uint256"
        }
      ],
      "name": "TokenWhitelistToggled",
      "type": "event"
    },
    {
      "anonymous": false,
      "inputs": [
        {
          "indexed": true,
          "internalType": "address",
          "name": "implementation",
          "type": "address"
        }
      ],
      "name": "Upgraded",
      "type": "event"
    },
    {
      "anonymous": false,
      "inputs": [
        {
          "indexed": false,
          "internalType": "bytes32",
          "name": "messageHash",
          "type": "bytes32"
        },
        {
          "indexed": true,
          "internalType": "address",
          "name": "user",
          "type": "address"
        }
      ],
      "name": "UserSigned",
      "type": "event"
    },
    {
      "anonymous": false,
      "inputs": [
        {
          "indexed": true,
          "internalType": "address",
          "name": "user",
          "type": "address"
        },
        {
          "indexed": false,
          "internalType": "uint256",
          "name": "toggleStatus",
          "type": "uint256"
        }
      ],
      "name": "UserSigningWhitelistToggled",
      "type": "event"
    },
    {
      "inputs": [],
      "name": "BASE_9",
      "outputs": [
        {
          "internalType": "uint256",
          "name": "",
          "type": "uint256"
        }
      ],
      "stateMutability": "view",
      "type": "function"
    },
    {
      "inputs": [],
      "name": "EPOCH_DURATION",
      "outputs": [
        {
          "internalType": "uint32",
          "name": "",
          "type": "uint32"
        }
      ],
      "stateMutability": "view",
      "type": "function"
    },
    {
      "inputs": [],
      "name": "core",
      "outputs": [
        {
          "internalType": "contract ICore",
          "name": "",
          "type": "address"
        }
      ],
      "stateMutability": "view",
      "type": "function"
    },
    {
      "inputs": [
        {
          "components": [
            {
              "internalType": "bytes32",
              "name": "rewardId",
              "type": "bytes32"
            },
            {
              "internalType": "address",
              "name": "uniV3Pool",
              "type": "address"
            },
            {
              "internalType": "address",
              "name": "rewardToken",
              "type": "address"
            },
            {
              "internalType": "uint256",
              "name": "amount",
              "type": "uint256"
            },
            {
              "internalType": "address[]",
              "name": "positionWrappers",
              "type": "address[]"
            },
            {
              "internalType": "uint32[]",
              "name": "wrapperTypes",
              "type": "uint32[]"
            },
            {
              "internalType": "uint32",
              "name": "propToken0",
              "type": "uint32"
            },
            {
              "internalType": "uint32",
              "name": "propToken1",
              "type": "uint32"
            },
            {
              "internalType": "uint32",
              "name": "propFees",
              "type": "uint32"
            },
            {
              "internalType": "uint32",
              "name": "epochStart",
              "type": "uint32"
            },
            {
              "internalType": "uint32",
              "name": "numEpoch",
              "type": "uint32"
            },
            {
              "internalType": "uint32",
              "name": "isOutOfRangeIncentivized",
              "type": "uint32"
            },
            {
              "internalType": "uint32",
              "name": "boostedReward",
              "type": "uint32"
            },
            {
              "internalType": "address",
              "name": "boostingAddress",
              "type": "address"
            },
            {
              "internalType": "bytes",
              "name": "additionalData",
              "type": "bytes"
            }
          ],
          "internalType": "struct DistributionParameters",
          "name": "distribution",
          "type": "tuple"
        }
      ],
      "name": "createDistribution",
      "outputs": [
        {
          "internalType": "uint256",
          "name": "distributionAmount",
          "type": "uint256"
        }
      ],
      "stateMutability": "nonpayable",
      "type": "function"
    },
    {
      "inputs": [
        {
          "components": [
            {
              "internalType": "bytes32",
              "name": "rewardId",
              "type": "bytes32"
            },
            {
              "internalType": "address",
              "name": "uniV3Pool",
              "type": "address"
            },
            {
              "internalType": "address",
              "name": "rewardToken",
              "type": "address"
            },
            {
              "internalType": "uint256",
              "name": "amount",
              "type": "uint256"
            },
            {
              "internalType": "address[]",
              "name": "positionWrappers",
              "type": "address[]"
            },
            {
              "internalType": "uint32[]",
              "name": "wrapperTypes",
              "type": "uint32[]"
            },
            {
              "internalType": "uint32",
              "name": "propToken0",
              "type": "uint32"
            },
            {
              "internalType": "uint32",
              "name": "propToken1",
              "type": "uint32"
            },
            {
              "internalType": "uint32",
              "name": "propFees",
              "type": "uint32"
            },
            {
              "internalType": "uint32",
              "name": "epochStart",
              "type": "uint32"
            },
            {
              "internalType": "uint32",
              "name": "numEpoch",
              "type": "uint32"
            },
            {
              "internalType": "uint32",
              "name": "isOutOfRangeIncentivized",
              "type": "uint32"
            },
            {
              "internalType": "uint32",
              "name": "boostedReward",
              "type": "uint32"
            },
            {
              "internalType": "address",
              "name": "boostingAddress",
              "type": "address"
            },
            {
              "internalType": "bytes",
              "name": "additionalData",
              "type": "bytes"
            }
          ],
          "internalType": "struct DistributionParameters[]",
          "name": "distributions",
          "type": "tuple[]"
        }
      ],
      "name": "createDistributions",
      "outputs": [
        {
          "internalType": "uint256[]",
          "name": "",
          "type": "uint256[]"
        }
      ],
      "stateMutability": "nonpayable",
      "type": "function"
    },
    {
      "inputs": [
        {
          "internalType": "uint256",
          "name": "",
          "type": "uint256"
        }
      ],
      "name": "distributionList",
      "outputs": [
        {
          "internalType": "bytes32",
          "name": "rewardId",
          "type": "bytes32"
        },
        {
          "internalType": "address",
          "name": "uniV3Pool",
          "type": "address"
        },
        {
          "internalType": "address",
          "name": "rewardToken",
          "type": "address"
        },
        {
          "internalType": "uint256",
          "name": "amount",
          "type": "uint256"
        },
        {
          "internalType": "uint32",
          "name": "propToken0",
          "type": "uint32"
        },
        {
          "internalType": "uint32",
          "name": "propToken1",
          "type": "uint32"
        },
        {
          "internalType": "uint32",
          "name": "propFees",
          "type": "uint32"
        },
        {
          "internalType": "uint32",
          "name": "epochStart",
          "type": "uint32"
        },
        {
          "internalType": "uint32",
          "name": "numEpoch",
          "type": "uint32"
        },
        {
          "internalType": "uint32",
          "name": "isOutOfRangeIncentivized",
          "type": "uint32"
        },
        {
          "internalType": "uint32",
          "name": "boostedReward",
          "type": "uint32"
        },
        {
          "internalType": "address",
          "name": "boostingAddress",
          "type": "address"
        },
        {
          "internalType": "bytes",
          "name": "additionalData",
          "type": "bytes"
        }
      ],
      "stateMutability": "view",
      "type": "function"
    },
    {
      "inputs": [],
      "name": "distributor",
      "outputs": [
        {
          "internalType": "address",
          "name": "",
          "type": "address"
        }
      ],
      "stateMutability": "view",
      "type": "function"
    },
    {
      "inputs": [
        {
          "internalType": "address",
          "name": "",
          "type": "address"
        }
      ],
      "name": "feeRebate",
      "outputs": [
        {
          "internalType": "uint256",
          "name": "",
          "type": "uint256"
        }
      ],
      "stateMutability": "view",
      "type": "function"
    },
    {
      "inputs": [],
      "name": "feeRecipient",
      "outputs": [
        {
          "internalType": "address",
          "name": "",
          "type": "address"
        }
      ],
      "stateMutability": "view",
      "type": "function"
    },
    {
      "inputs": [],
      "name": "fees",
      "outputs": [
        {
          "internalType": "uint256",
          "name": "",
          "type": "uint256"
        }
      ],
      "stateMutability": "view",
      "type": "function"
    },
    {
      "inputs": [],
      "name": "getActiveDistributions",
      "outputs": [
        {
          "components": [
            {
              "components": [
                {
                  "internalType": "bytes32",
                  "name": "rewardId",
                  "type": "bytes32"
                },
                {
                  "internalType": "address",
                  "name": "uniV3Pool",
                  "type": "address"
                },
                {
                  "internalType": "address",
                  "name": "rewardToken",
                  "type": "address"
                },
                {
                  "internalType": "uint256",
                  "name": "amount",
                  "type": "uint256"
                },
                {
                  "internalType": "address[]",
                  "name": "positionWrappers",
                  "type": "address[]"
                },
                {
                  "internalType": "uint32[]",
                  "name": "wrapperTypes",
                  "type": "uint32[]"
                },
                {
                  "internalType": "uint32",
                  "name": "propToken0",
                  "type": "uint32"
                },
                {
                  "internalType": "uint32",
                  "name": "propToken1",
                  "type": "uint32"
                },
                {
                  "internalType": "uint32",
                  "name": "propFees",
                  "type": "uint32"
                },
                {
                  "internalType": "uint32",
                  "name": "epochStart",
                  "type": "uint32"
                },
                {
                  "internalType": "uint32",
                  "name": "numEpoch",
                  "type": "uint32"
                },
                {
                  "internalType": "uint32",
                  "name": "isOutOfRangeIncentivized",
                  "type": "uint32"
                },
                {
                  "internalType": "uint32",
                  "name": "boostedReward",
                  "type": "uint32"
                },
                {
                  "internalType": "address",
                  "name": "boostingAddress",
                  "type": "address"
                },
                {
                  "internalType": "bytes",
                  "name": "additionalData",
                  "type": "bytes"
                }
              ],
              "internalType": "struct DistributionParameters",
              "name": "base",
              "type": "tuple"
            },
            {
              "internalType": "uint24",
              "name": "poolFee",
              "type": "uint24"
            },
            {
              "components": [
                {
                  "internalType": "address",
                  "name": "add",
                  "type": "address"
                },
                {
                  "internalType": "uint8",
                  "name": "decimals",
                  "type": "uint8"
                },
                {
                  "internalType": "string",
                  "name": "symbol",
                  "type": "string"
                },
                {
                  "internalType": "uint256",
                  "name": "poolBalance",
                  "type": "uint256"
                }
              ],
              "internalType": "struct UniswapTokenData",
              "name": "token0",
              "type": "tuple"
            },
            {
              "components": [
                {
                  "internalType": "address",
                  "name": "add",
                  "type": "address"
                },
                {
                  "internalType": "uint8",
                  "name": "decimals",
                  "type": "uint8"
                },
                {
                  "internalType": "string",
                  "name": "symbol",
                  "type": "string"
                },
                {
                  "internalType": "uint256",
                  "name": "poolBalance",
                  "type": "uint256"
                }
              ],
              "internalType": "struct UniswapTokenData",
              "name": "token1",
              "type": "tuple"
            },
            {
              "internalType": "string",
              "name": "rewardTokenSymbol",
              "type": "string"
            },
            {
              "internalType": "uint8",
              "name": "rewardTokenDecimals",
              "type": "uint8"
            }
          ],
          "internalType": "struct ExtensiveDistributionParameters[]",
          "name": "searchDistributions",
          "type": "tuple[]"
        }
      ],
      "stateMutability": "view",
      "type": "function"
    },
    {
      "inputs": [
        {
          "internalType": "uint32",
          "name": "skip",
          "type": "uint32"
        },
        {
          "internalType": "uint32",
          "name": "first",
          "type": "uint32"
        }
      ],
      "name": "getActiveDistributions",
      "outputs": [
        {
          "components": [
            {
              "components": [
                {
                  "internalType": "bytes32",
                  "name": "rewardId",
                  "type": "bytes32"
                },
                {
                  "internalType": "address",
                  "name": "uniV3Pool",
                  "type": "address"
                },
                {
                  "internalType": "address",
                  "name": "rewardToken",
                  "type": "address"
                },
                {
                  "internalType": "uint256",
                  "name": "amount",
                  "type": "uint256"
                },
                {
                  "internalType": "address[]",
                  "name": "positionWrappers",
                  "type": "address[]"
                },
                {
                  "internalType": "uint32[]",
                  "name": "wrapperTypes",
                  "type": "uint32[]"
                },
                {
                  "internalType": "uint32",
                  "name": "propToken0",
                  "type": "uint32"
                },
                {
                  "internalType": "uint32",
                  "name": "propToken1",
                  "type": "uint32"
                },
                {
                  "internalType": "uint32",
                  "name": "propFees",
                  "type": "uint32"
                },
                {
                  "internalType": "uint32",
                  "name": "epochStart",
                  "type": "uint32"
                },
                {
                  "internalType": "uint32",
                  "name": "numEpoch",
                  "type": "uint32"
                },
                {
                  "internalType": "uint32",
                  "name": "isOutOfRangeIncentivized",
                  "type": "uint32"
                },
                {
                  "internalType": "uint32",
                  "name": "boostedReward",
                  "type": "uint32"
                },
                {
                  "internalType": "address",
                  "name": "boostingAddress",
                  "type": "address"
                },
                {
                  "internalType": "bytes",
                  "name": "additionalData",
                  "type": "bytes"
                }
              ],
              "internalType": "struct DistributionParameters",
              "name": "base",
              "type": "tuple"
            },
            {
              "internalType": "uint24",
              "name": "poolFee",
              "type": "uint24"
            },
            {
              "components": [
                {
                  "internalType": "address",
                  "name": "add",
                  "type": "address"
                },
                {
                  "internalType": "uint8",
                  "name": "decimals",
                  "type": "uint8"
                },
                {
                  "internalType": "string",
                  "name": "symbol",
                  "type": "string"
                },
                {
                  "internalType": "uint256",
                  "name": "poolBalance",
                  "type": "uint256"
                }
              ],
              "internalType": "struct UniswapTokenData",
              "name": "token0",
              "type": "tuple"
            },
            {
              "components": [
                {
                  "internalType": "address",
                  "name": "add",
                  "type": "address"
                },
                {
                  "internalType": "uint8",
                  "name": "decimals",
                  "type": "uint8"
                },
                {
                  "internalType": "string",
                  "name": "symbol",
                  "type": "string"
                },
                {
                  "internalType": "uint256",
                  "name": "poolBalance",
                  "type": "uint256"
                }
              ],
              "internalType": "struct UniswapTokenData",
              "name": "token1",
              "type": "tuple"
            },
            {
              "internalType": "string",
              "name": "rewardTokenSymbol",
              "type": "string"
            },
            {
              "internalType": "uint8",
              "name": "rewardTokenDecimals",
              "type": "uint8"
            }
          ],
          "internalType": "struct ExtensiveDistributionParameters[]",
          "name": "searchDistributions",
          "type": "tuple[]"
        },
        {
          "internalType": "uint256",
          "name": "lastIndexDistribution",
          "type": "uint256"
        }
      ],
      "stateMutability": "view",
      "type": "function"
    },
    {
      "inputs": [
        {
          "internalType": "address",
          "name": "uniV3Pool",
          "type": "address"
        }
      ],
      "name": "getActivePoolDistributions",
      "outputs": [
        {
          "components": [
            {
              "components": [
                {
                  "internalType": "bytes32",
                  "name": "rewardId",
                  "type": "bytes32"
                },
                {
                  "internalType": "address",
                  "name": "uniV3Pool",
                  "type": "address"
                },
                {
                  "internalType": "address",
                  "name": "rewardToken",
                  "type": "address"
                },
                {
                  "internalType": "uint256",
                  "name": "amount",
                  "type": "uint256"
                },
                {
                  "internalType": "address[]",
                  "name": "positionWrappers",
                  "type": "address[]"
                },
                {
                  "internalType": "uint32[]",
                  "name": "wrapperTypes",
                  "type": "uint32[]"
                },
                {
                  "internalType": "uint32",
                  "name": "propToken0",
                  "type": "uint32"
                },
                {
                  "internalType": "uint32",
                  "name": "propToken1",
                  "type": "uint32"
                },
                {
                  "internalType": "uint32",
                  "name": "propFees",
                  "type": "uint32"
                },
                {
                  "internalType": "uint32",
                  "name": "epochStart",
                  "type": "uint32"
                },
                {
                  "internalType": "uint32",
                  "name": "numEpoch",
                  "type": "uint32"
                },
                {
                  "internalType": "uint32",
                  "name": "isOutOfRangeIncentivized",
                  "type": "uint32"
                },
                {
                  "internalType": "uint32",
                  "name": "boostedReward",
                  "type": "uint32"
                },
                {
                  "internalType": "address",
                  "name": "boostingAddress",
                  "type": "address"
                },
                {
                  "internalType": "bytes",
                  "name": "additionalData",
                  "type": "bytes"
                }
              ],
              "internalType": "struct DistributionParameters",
              "name": "base",
              "type": "tuple"
            },
            {
              "internalType": "uint24",
              "name": "poolFee",
              "type": "uint24"
            },
            {
              "components": [
                {
                  "internalType": "address",
                  "name": "add",
                  "type": "address"
                },
                {
                  "internalType": "uint8",
                  "name": "decimals",
                  "type": "uint8"
                },
                {
                  "internalType": "string",
                  "name": "symbol",
                  "type": "string"
                },
                {
                  "internalType": "uint256",
                  "name": "poolBalance",
                  "type": "uint256"
                }
              ],
              "internalType": "struct UniswapTokenData",
              "name": "token0",
              "type": "tuple"
            },
            {
              "components": [
                {
                  "internalType": "address",
                  "name": "add",
                  "type": "address"
                },
                {
                  "internalType": "uint8",
                  "name": "decimals",
                  "type": "uint8"
                },
                {
                  "internalType": "string",
                  "name": "symbol",
                  "type": "string"
                },
                {
                  "internalType": "uint256",
                  "name": "poolBalance",
                  "type": "uint256"
                }
              ],
              "internalType": "struct UniswapTokenData",
              "name": "token1",
              "type": "tuple"
            },
            {
              "internalType": "string",
              "name": "rewardTokenSymbol",
              "type": "string"
            },
            {
              "internalType": "uint8",
              "name": "rewardTokenDecimals",
              "type": "uint8"
            }
          ],
          "internalType": "struct ExtensiveDistributionParameters[]",
          "name": "searchDistributions",
          "type": "tuple[]"
        }
      ],
      "stateMutability": "view",
      "type": "function"
    },
    {
      "inputs": [
        {
          "internalType": "address",
          "name": "uniV3Pool",
          "type": "address"
        },
        {
          "internalType": "uint32",
          "name": "skip",
          "type": "uint32"
        },
        {
          "internalType": "uint32",
          "name": "first",
          "type": "uint32"
        }
      ],
      "name": "getActivePoolDistributions",
      "outputs": [
        {
          "components": [
            {
              "components": [
                {
                  "internalType": "bytes32",
                  "name": "rewardId",
                  "type": "bytes32"
                },
                {
                  "internalType": "address",
                  "name": "uniV3Pool",
                  "type": "address"
                },
                {
                  "internalType": "address",
                  "name": "rewardToken",
                  "type": "address"
                },
                {
                  "internalType": "uint256",
                  "name": "amount",
                  "type": "uint256"
                },
                {
                  "internalType": "address[]",
                  "name": "positionWrappers",
                  "type": "address[]"
                },
                {
                  "internalType": "uint32[]",
                  "name": "wrapperTypes",
                  "type": "uint32[]"
                },
                {
                  "internalType": "uint32",
                  "name": "propToken0",
                  "type": "uint32"
                },
                {
                  "internalType": "uint32",
                  "name": "propToken1",
                  "type": "uint32"
                },
                {
                  "internalType": "uint32",
                  "name": "propFees",
                  "type": "uint32"
                },
                {
                  "internalType": "uint32",
                  "name": "epochStart",
                  "type": "uint32"
                },
                {
                  "internalType": "uint32",
                  "name": "numEpoch",
                  "type": "uint32"
                },
                {
                  "internalType": "uint32",
                  "name": "isOutOfRangeIncentivized",
                  "type": "uint32"
                },
                {
                  "internalType": "uint32",
                  "name": "boostedReward",
                  "type": "uint32"
                },
                {
                  "internalType": "address",
                  "name": "boostingAddress",
                  "type": "address"
                },
                {
                  "internalType": "bytes",
                  "name": "additionalData",
                  "type": "bytes"
                }
              ],
              "internalType": "struct DistributionParameters",
              "name": "base",
              "type": "tuple"
            },
            {
              "internalType": "uint24",
              "name": "poolFee",
              "type": "uint24"
            },
            {
              "components": [
                {
                  "internalType": "address",
                  "name": "add",
                  "type": "address"
                },
                {
                  "internalType": "uint8",
                  "name": "decimals",
                  "type": "uint8"
                },
                {
                  "internalType": "string",
                  "name": "symbol",
                  "type": "string"
                },
                {
                  "internalType": "uint256",
                  "name": "poolBalance",
                  "type": "uint256"
                }
              ],
              "internalType": "struct UniswapTokenData",
              "name": "token0",
              "type": "tuple"
            },
            {
              "components": [
                {
                  "internalType": "address",
                  "name": "add",
                  "type": "address"
                },
                {
                  "internalType": "uint8",
                  "name": "decimals",
                  "type": "uint8"
                },
                {
                  "internalType": "string",
                  "name": "symbol",
                  "type": "string"
                },
                {
                  "internalType": "uint256",
                  "name": "poolBalance",
                  "type": "uint256"
                }
              ],
              "internalType": "struct UniswapTokenData",
              "name": "token1",
              "type": "tuple"
            },
            {
              "internalType": "string",
              "name": "rewardTokenSymbol",
              "type": "string"
            },
            {
              "internalType": "uint8",
              "name": "rewardTokenDecimals",
              "type": "uint8"
            }
          ],
          "internalType": "struct ExtensiveDistributionParameters[]",
          "name": "",
          "type": "tuple[]"
        },
        {
          "internalType": "uint256",
          "name": "lastIndexDistribution",
          "type": "uint256"
        }
      ],
      "stateMutability": "view",
      "type": "function"
    },
    {
      "inputs": [],
      "name": "getAllDistributions",
      "outputs": [
        {
          "components": [
            {
              "internalType": "bytes32",
              "name": "rewardId",
              "type": "bytes32"
            },
            {
              "internalType": "address",
              "name": "uniV3Pool",
              "type": "address"
            },
            {
              "internalType": "address",
              "name": "rewardToken",
              "type": "address"
            },
            {
              "internalType": "uint256",
              "name": "amount",
              "type": "uint256"
            },
            {
              "internalType": "address[]",
              "name": "positionWrappers",
              "type": "address[]"
            },
            {
              "internalType": "uint32[]",
              "name": "wrapperTypes",
              "type": "uint32[]"
            },
            {
              "internalType": "uint32",
              "name": "propToken0",
              "type": "uint32"
            },
            {
              "internalType": "uint32",
              "name": "propToken1",
              "type": "uint32"
            },
            {
              "internalType": "uint32",
              "name": "propFees",
              "type": "uint32"
            },
            {
              "internalType": "uint32",
              "name": "epochStart",
              "type": "uint32"
            },
            {
              "internalType": "uint32",
              "name": "numEpoch",
              "type": "uint32"
            },
            {
              "internalType": "uint32",
              "name": "isOutOfRangeIncentivized",
              "type": "uint32"
            },
            {
              "internalType": "uint32",
              "name": "boostedReward",
              "type": "uint32"
            },
            {
              "internalType": "address",
              "name": "boostingAddress",
              "type": "address"
            },
            {
              "internalType": "bytes",
              "name": "additionalData",
              "type": "bytes"
            }
          ],
          "internalType": "struct DistributionParameters[]",
          "name": "",
          "type": "tuple[]"
        }
      ],
      "stateMutability": "view",
      "type": "function"
    },
    {
      "inputs": [
        {
          "internalType": "uint32",
          "name": "epochStart",
          "type": "uint32"
        }
      ],
      "name": "getDistributionsAfterEpoch",
      "outputs": [
        {
          "components": [
            {
              "components": [
                {
                  "internalType": "bytes32",
                  "name": "rewardId",
                  "type": "bytes32"
                },
                {
                  "internalType": "address",
                  "name": "uniV3Pool",
                  "type": "address"
                },
                {
                  "internalType": "address",
                  "name": "rewardToken",
                  "type": "address"
                },
                {
                  "internalType": "uint256",
                  "name": "amount",
                  "type": "uint256"
                },
                {
                  "internalType": "address[]",
                  "name": "positionWrappers",
                  "type": "address[]"
                },
                {
                  "internalType": "uint32[]",
                  "name": "wrapperTypes",
                  "type": "uint32[]"
                },
                {
                  "internalType": "uint32",
                  "name": "propToken0",
                  "type": "uint32"
                },
                {
                  "internalType": "uint32",
                  "name": "propToken1",
                  "type": "uint32"
                },
                {
                  "internalType": "uint32",
                  "name": "propFees",
                  "type": "uint32"
                },
                {
                  "internalType": "uint32",
                  "name": "epochStart",
                  "type": "uint32"
                },
                {
                  "internalType": "uint32",
                  "name": "numEpoch",
                  "type": "uint32"
                },
                {
                  "internalType": "uint32",
                  "name": "isOutOfRangeIncentivized",
                  "type": "uint32"
                },
                {
                  "internalType": "uint32",
                  "name": "boostedReward",
                  "type": "uint32"
                },
                {
                  "internalType": "address",
                  "name": "boostingAddress",
                  "type": "address"
                },
                {
                  "internalType": "bytes",
                  "name": "additionalData",
                  "type": "bytes"
                }
              ],
              "internalType": "struct DistributionParameters",
              "name": "base",
              "type": "tuple"
            },
            {
              "internalType": "uint24",
              "name": "poolFee",
              "type": "uint24"
            },
            {
              "components": [
                {
                  "internalType": "address",
                  "name": "add",
                  "type": "address"
                },
                {
                  "internalType": "uint8",
                  "name": "decimals",
                  "type": "uint8"
                },
                {
                  "internalType": "string",
                  "name": "symbol",
                  "type": "string"
                },
                {
                  "internalType": "uint256",
                  "name": "poolBalance",
                  "type": "uint256"
                }
              ],
              "internalType": "struct UniswapTokenData",
              "name": "token0",
              "type": "tuple"
            },
            {
              "components": [
                {
                  "internalType": "address",
                  "name": "add",
                  "type": "address"
                },
                {
                  "internalType": "uint8",
                  "name": "decimals",
                  "type": "uint8"
                },
                {
                  "internalType": "string",
                  "name": "symbol",
                  "type": "string"
                },
                {
                  "internalType": "uint256",
                  "name": "poolBalance",
                  "type": "uint256"
                }
              ],
              "internalType": "struct UniswapTokenData",
              "name": "token1",
              "type": "tuple"
            },
            {
              "internalType": "string",
              "name": "rewardTokenSymbol",
              "type": "string"
            },
            {
              "internalType": "uint8",
              "name": "rewardTokenDecimals",
              "type": "uint8"
            }
          ],
          "internalType": "struct ExtensiveDistributionParameters[]",
          "name": "searchDistributions",
          "type": "tuple[]"
        }
      ],
      "stateMutability": "view",
      "type": "function"
    },
    {
      "inputs": [
        {
          "internalType": "uint32",
          "name": "epochStart",
          "type": "uint32"
        },
        {
          "internalType": "uint32",
          "name": "skip",
          "type": "uint32"
        },
        {
          "internalType": "uint32",
          "name": "first",
          "type": "uint32"
        }
      ],
      "name": "getDistributionsAfterEpoch",
      "outputs": [
        {
          "components": [
            {
              "components": [
                {
                  "internalType": "bytes32",
                  "name": "rewardId",
                  "type": "bytes32"
                },
                {
                  "internalType": "address",
                  "name": "uniV3Pool",
                  "type": "address"
                },
                {
                  "internalType": "address",
                  "name": "rewardToken",
                  "type": "address"
                },
                {
                  "internalType": "uint256",
                  "name": "amount",
                  "type": "uint256"
                },
                {
                  "internalType": "address[]",
                  "name": "positionWrappers",
                  "type": "address[]"
                },
                {
                  "internalType": "uint32[]",
                  "name": "wrapperTypes",
                  "type": "uint32[]"
                },
                {
                  "internalType": "uint32",
                  "name": "propToken0",
                  "type": "uint32"
                },
                {
                  "internalType": "uint32",
                  "name": "propToken1",
                  "type": "uint32"
                },
                {
                  "internalType": "uint32",
                  "name": "propFees",
                  "type": "uint32"
                },
                {
                  "internalType": "uint32",
                  "name": "epochStart",
                  "type": "uint32"
                },
                {
                  "internalType": "uint32",
                  "name": "numEpoch",
                  "type": "uint32"
                },
                {
                  "internalType": "uint32",
                  "name": "isOutOfRangeIncentivized",
                  "type": "uint32"
                },
                {
                  "internalType": "uint32",
                  "name": "boostedReward",
                  "type": "uint32"
                },
                {
                  "internalType": "address",
                  "name": "boostingAddress",
                  "type": "address"
                },
                {
                  "internalType": "bytes",
                  "name": "additionalData",
                  "type": "bytes"
                }
              ],
              "internalType": "struct DistributionParameters",
              "name": "base",
              "type": "tuple"
            },
            {
              "internalType": "uint24",
              "name": "poolFee",
              "type": "uint24"
            },
            {
              "components": [
                {
                  "internalType": "address",
                  "name": "add",
                  "type": "address"
                },
                {
                  "internalType": "uint8",
                  "name": "decimals",
                  "type": "uint8"
                },
                {
                  "internalType": "string",
                  "name": "symbol",
                  "type": "string"
                },
                {
                  "internalType": "uint256",
                  "name": "poolBalance",
                  "type": "uint256"
                }
              ],
              "internalType": "struct UniswapTokenData",
              "name": "token0",
              "type": "tuple"
            },
            {
              "components": [
                {
                  "internalType": "address",
                  "name": "add",
                  "type": "address"
                },
                {
                  "internalType": "uint8",
                  "name": "decimals",
                  "type": "uint8"
                },
                {
                  "internalType": "string",
                  "name": "symbol",
                  "type": "string"
                },
                {
                  "internalType": "uint256",
                  "name": "poolBalance",
                  "type": "uint256"
                }
              ],
              "internalType": "struct UniswapTokenData",
              "name": "token1",
              "type": "tuple"
            },
            {
              "internalType": "string",
              "name": "rewardTokenSymbol",
              "type": "string"
            },
            {
              "internalType": "uint8",
              "name": "rewardTokenDecimals",
              "type": "uint8"
            }
          ],
          "internalType": "struct ExtensiveDistributionParameters[]",
          "name": "",
          "type": "tuple[]"
        },
        {
          "internalType": "uint256",
          "name": "lastIndexDistribution",
          "type": "uint256"
        }
      ],
      "stateMutability": "view",
      "type": "function"
    },
    {
      "inputs": [
        {
          "internalType": "uint32",
          "name": "epochStart",
          "type": "uint32"
        },
        {
          "internalType": "uint32",
          "name": "epochEnd",
          "type": "uint32"
        },
        {
          "internalType": "uint32",
          "name": "skip",
          "type": "uint32"
        },
        {
          "internalType": "uint32",
          "name": "first",
          "type": "uint32"
        }
      ],
      "name": "getDistributionsBetweenEpochs",
      "outputs": [
        {
          "components": [
            {
              "components": [
                {
                  "internalType": "bytes32",
                  "name": "rewardId",
                  "type": "bytes32"
                },
                {
                  "internalType": "address",
                  "name": "uniV3Pool",
                  "type": "address"
                },
                {
                  "internalType": "address",
                  "name": "rewardToken",
                  "type": "address"
                },
                {
                  "internalType": "uint256",
                  "name": "amount",
                  "type": "uint256"
                },
                {
                  "internalType": "address[]",
                  "name": "positionWrappers",
                  "type": "address[]"
                },
                {
                  "internalType": "uint32[]",
                  "name": "wrapperTypes",
                  "type": "uint32[]"
                },
                {
                  "internalType": "uint32",
                  "name": "propToken0",
                  "type": "uint32"
                },
                {
                  "internalType": "uint32",
                  "name": "propToken1",
                  "type": "uint32"
                },
                {
                  "internalType": "uint32",
                  "name": "propFees",
                  "type": "uint32"
                },
                {
                  "internalType": "uint32",
                  "name": "epochStart",
                  "type": "uint32"
                },
                {
                  "internalType": "uint32",
                  "name": "numEpoch",
                  "type": "uint32"
                },
                {
                  "internalType": "uint32",
                  "name": "isOutOfRangeIncentivized",
                  "type": "uint32"
                },
                {
                  "internalType": "uint32",
                  "name": "boostedReward",
                  "type": "uint32"
                },
                {
                  "internalType": "address",
                  "name": "boostingAddress",
                  "type": "address"
                },
                {
                  "internalType": "bytes",
                  "name": "additionalData",
                  "type": "bytes"
                }
              ],
              "internalType": "struct DistributionParameters",
              "name": "base",
              "type": "tuple"
            },
            {
              "internalType": "uint24",
              "name": "poolFee",
              "type": "uint24"
            },
            {
              "components": [
                {
                  "internalType": "address",
                  "name": "add",
                  "type": "address"
                },
                {
                  "internalType": "uint8",
                  "name": "decimals",
                  "type": "uint8"
                },
                {
                  "internalType": "string",
                  "name": "symbol",
                  "type": "string"
                },
                {
                  "internalType": "uint256",
                  "name": "poolBalance",
                  "type": "uint256"
                }
              ],
              "internalType": "struct UniswapTokenData",
              "name": "token0",
              "type": "tuple"
            },
            {
              "components": [
                {
                  "internalType": "address",
                  "name": "add",
                  "type": "address"
                },
                {
                  "internalType": "uint8",
                  "name": "decimals",
                  "type": "uint8"
                },
                {
                  "internalType": "string",
                  "name": "symbol",
                  "type": "string"
                },
                {
                  "internalType": "uint256",
                  "name": "poolBalance",
                  "type": "uint256"
                }
              ],
              "internalType": "struct UniswapTokenData",
              "name": "token1",
              "type": "tuple"
            },
            {
              "internalType": "string",
              "name": "rewardTokenSymbol",
              "type": "string"
            },
            {
              "internalType": "uint8",
              "name": "rewardTokenDecimals",
              "type": "uint8"
            }
          ],
          "internalType": "struct ExtensiveDistributionParameters[]",
          "name": "",
          "type": "tuple[]"
        },
        {
          "internalType": "uint256",
          "name": "lastIndexDistribution",
          "type": "uint256"
        }
      ],
      "stateMutability": "view",
      "type": "function"
    },
    {
      "inputs": [
        {
          "internalType": "uint32",
          "name": "epochStart",
          "type": "uint32"
        },
        {
          "internalType": "uint32",
          "name": "epochEnd",
          "type": "uint32"
        }
      ],
      "name": "getDistributionsBetweenEpochs",
      "outputs": [
        {
          "components": [
            {
              "components": [
                {
                  "internalType": "bytes32",
                  "name": "rewardId",
                  "type": "bytes32"
                },
                {
                  "internalType": "address",
                  "name": "uniV3Pool",
                  "type": "address"
                },
                {
                  "internalType": "address",
                  "name": "rewardToken",
                  "type": "address"
                },
                {
                  "internalType": "uint256",
                  "name": "amount",
                  "type": "uint256"
                },
                {
                  "internalType": "address[]",
                  "name": "positionWrappers",
                  "type": "address[]"
                },
                {
                  "internalType": "uint32[]",
                  "name": "wrapperTypes",
                  "type": "uint32[]"
                },
                {
                  "internalType": "uint32",
                  "name": "propToken0",
                  "type": "uint32"
                },
                {
                  "internalType": "uint32",
                  "name": "propToken1",
                  "type": "uint32"
                },
                {
                  "internalType": "uint32",
                  "name": "propFees",
                  "type": "uint32"
                },
                {
                  "internalType": "uint32",
                  "name": "epochStart",
                  "type": "uint32"
                },
                {
                  "internalType": "uint32",
                  "name": "numEpoch",
                  "type": "uint32"
                },
                {
                  "internalType": "uint32",
                  "name": "isOutOfRangeIncentivized",
                  "type": "uint32"
                },
                {
                  "internalType": "uint32",
                  "name": "boostedReward",
                  "type": "uint32"
                },
                {
                  "internalType": "address",
                  "name": "boostingAddress",
                  "type": "address"
                },
                {
                  "internalType": "bytes",
                  "name": "additionalData",
                  "type": "bytes"
                }
              ],
              "internalType": "struct DistributionParameters",
              "name": "base",
              "type": "tuple"
            },
            {
              "internalType": "uint24",
              "name": "poolFee",
              "type": "uint24"
            },
            {
              "components": [
                {
                  "internalType": "address",
                  "name": "add",
                  "type": "address"
                },
                {
                  "internalType": "uint8",
                  "name": "decimals",
                  "type": "uint8"
                },
                {
                  "internalType": "string",
                  "name": "symbol",
                  "type": "string"
                },
                {
                  "internalType": "uint256",
                  "name": "poolBalance",
                  "type": "uint256"
                }
              ],
              "internalType": "struct UniswapTokenData",
              "name": "token0",
              "type": "tuple"
            },
            {
              "components": [
                {
                  "internalType": "address",
                  "name": "add",
                  "type": "address"
                },
                {
                  "internalType": "uint8",
                  "name": "decimals",
                  "type": "uint8"
                },
                {
                  "internalType": "string",
                  "name": "symbol",
                  "type": "string"
                },
                {
                  "internalType": "uint256",
                  "name": "poolBalance",
                  "type": "uint256"
                }
              ],
              "internalType": "struct UniswapTokenData",
              "name": "token1",
              "type": "tuple"
            },
            {
              "internalType": "string",
              "name": "rewardTokenSymbol",
              "type": "string"
            },
            {
              "internalType": "uint8",
              "name": "rewardTokenDecimals",
              "type": "uint8"
            }
          ],
          "internalType": "struct ExtensiveDistributionParameters[]",
          "name": "searchDistributions",
          "type": "tuple[]"
        }
      ],
      "stateMutability": "view",
      "type": "function"
    },
    {
      "inputs": [
        {
          "internalType": "uint32",
          "name": "epoch",
          "type": "uint32"
        },
        {
          "internalType": "uint32",
          "name": "skip",
          "type": "uint32"
        },
        {
          "internalType": "uint32",
          "name": "first",
          "type": "uint32"
        }
      ],
      "name": "getDistributionsForEpoch",
      "outputs": [
        {
          "components": [
            {
              "components": [
                {
                  "internalType": "bytes32",
                  "name": "rewardId",
                  "type": "bytes32"
                },
                {
                  "internalType": "address",
                  "name": "uniV3Pool",
                  "type": "address"
                },
                {
                  "internalType": "address",
                  "name": "rewardToken",
                  "type": "address"
                },
                {
                  "internalType": "uint256",
                  "name": "amount",
                  "type": "uint256"
                },
                {
                  "internalType": "address[]",
                  "name": "positionWrappers",
                  "type": "address[]"
                },
                {
                  "internalType": "uint32[]",
                  "name": "wrapperTypes",
                  "type": "uint32[]"
                },
                {
                  "internalType": "uint32",
                  "name": "propToken0",
                  "type": "uint32"
                },
                {
                  "internalType": "uint32",
                  "name": "propToken1",
                  "type": "uint32"
                },
                {
                  "internalType": "uint32",
                  "name": "propFees",
                  "type": "uint32"
                },
                {
                  "internalType": "uint32",
                  "name": "epochStart",
                  "type": "uint32"
                },
                {
                  "internalType": "uint32",
                  "name": "numEpoch",
                  "type": "uint32"
                },
                {
                  "internalType": "uint32",
                  "name": "isOutOfRangeIncentivized",
                  "type": "uint32"
                },
                {
                  "internalType": "uint32",
                  "name": "boostedReward",
                  "type": "uint32"
                },
                {
                  "internalType": "address",
                  "name": "boostingAddress",
                  "type": "address"
                },
                {
                  "internalType": "bytes",
                  "name": "additionalData",
                  "type": "bytes"
                }
              ],
              "internalType": "struct DistributionParameters",
              "name": "base",
              "type": "tuple"
            },
            {
              "internalType": "uint24",
              "name": "poolFee",
              "type": "uint24"
            },
            {
              "components": [
                {
                  "internalType": "address",
                  "name": "add",
                  "type": "address"
                },
                {
                  "internalType": "uint8",
                  "name": "decimals",
                  "type": "uint8"
                },
                {
                  "internalType": "string",
                  "name": "symbol",
                  "type": "string"
                },
                {
                  "internalType": "uint256",
                  "name": "poolBalance",
                  "type": "uint256"
                }
              ],
              "internalType": "struct UniswapTokenData",
              "name": "token0",
              "type": "tuple"
            },
            {
              "components": [
                {
                  "internalType": "address",
                  "name": "add",
                  "type": "address"
                },
                {
                  "internalType": "uint8",
                  "name": "decimals",
                  "type": "uint8"
                },
                {
                  "internalType": "string",
                  "name": "symbol",
                  "type": "string"
                },
                {
                  "internalType": "uint256",
                  "name": "poolBalance",
                  "type": "uint256"
                }
              ],
              "internalType": "struct UniswapTokenData",
              "name": "token1",
              "type": "tuple"
            },
            {
              "internalType": "string",
              "name": "rewardTokenSymbol",
              "type": "string"
            },
            {
              "internalType": "uint8",
              "name": "rewardTokenDecimals",
              "type": "uint8"
            }
          ],
          "internalType": "struct ExtensiveDistributionParameters[]",
          "name": "",
          "type": "tuple[]"
        },
        {
          "internalType": "uint256",
          "name": "lastIndexDistribution",
          "type": "uint256"
        }
      ],
      "stateMutability": "view",
      "type": "function"
    },
    {
      "inputs": [
        {
          "internalType": "uint32",
          "name": "epoch",
          "type": "uint32"
        }
      ],
      "name": "getDistributionsForEpoch",
      "outputs": [
        {
          "components": [
            {
              "components": [
                {
                  "internalType": "bytes32",
                  "name": "rewardId",
                  "type": "bytes32"
                },
                {
                  "internalType": "address",
                  "name": "uniV3Pool",
                  "type": "address"
                },
                {
                  "internalType": "address",
                  "name": "rewardToken",
                  "type": "address"
                },
                {
                  "internalType": "uint256",
                  "name": "amount",
                  "type": "uint256"
                },
                {
                  "internalType": "address[]",
                  "name": "positionWrappers",
                  "type": "address[]"
                },
                {
                  "internalType": "uint32[]",
                  "name": "wrapperTypes",
                  "type": "uint32[]"
                },
                {
                  "internalType": "uint32",
                  "name": "propToken0",
                  "type": "uint32"
                },
                {
                  "internalType": "uint32",
                  "name": "propToken1",
                  "type": "uint32"
                },
                {
                  "internalType": "uint32",
                  "name": "propFees",
                  "type": "uint32"
                },
                {
                  "internalType": "uint32",
                  "name": "epochStart",
                  "type": "uint32"
                },
                {
                  "internalType": "uint32",
                  "name": "numEpoch",
                  "type": "uint32"
                },
                {
                  "internalType": "uint32",
                  "name": "isOutOfRangeIncentivized",
                  "type": "uint32"
                },
                {
                  "internalType": "uint32",
                  "name": "boostedReward",
                  "type": "uint32"
                },
                {
                  "internalType": "address",
                  "name": "boostingAddress",
                  "type": "address"
                },
                {
                  "internalType": "bytes",
                  "name": "additionalData",
                  "type": "bytes"
                }
              ],
              "internalType": "struct DistributionParameters",
              "name": "base",
              "type": "tuple"
            },
            {
              "internalType": "uint24",
              "name": "poolFee",
              "type": "uint24"
            },
            {
              "components": [
                {
                  "internalType": "address",
                  "name": "add",
                  "type": "address"
                },
                {
                  "internalType": "uint8",
                  "name": "decimals",
                  "type": "uint8"
                },
                {
                  "internalType": "string",
                  "name": "symbol",
                  "type": "string"
                },
                {
                  "internalType": "uint256",
                  "name": "poolBalance",
                  "type": "uint256"
                }
              ],
              "internalType": "struct UniswapTokenData",
              "name": "token0",
              "type": "tuple"
            },
            {
              "components": [
                {
                  "internalType": "address",
                  "name": "add",
                  "type": "address"
                },
                {
                  "internalType": "uint8",
                  "name": "decimals",
                  "type": "uint8"
                },
                {
                  "internalType": "string",
                  "name": "symbol",
                  "type": "string"
                },
                {
                  "internalType": "uint256",
                  "name": "poolBalance",
                  "type": "uint256"
                }
              ],
              "internalType": "struct UniswapTokenData",
              "name": "token1",
              "type": "tuple"
            },
            {
              "internalType": "string",
              "name": "rewardTokenSymbol",
              "type": "string"
            },
            {
              "internalType": "uint8",
              "name": "rewardTokenDecimals",
              "type": "uint8"
            }
          ],
          "internalType": "struct ExtensiveDistributionParameters[]",
          "name": "searchDistributions",
          "type": "tuple[]"
        }
      ],
      "stateMutability": "view",
      "type": "function"
    },
    {
      "inputs": [
        {
          "components": [
            {
              "internalType": "bytes32",
              "name": "rewardId",
              "type": "bytes32"
            },
            {
              "internalType": "address",
              "name": "uniV3Pool",
              "type": "address"
            },
            {
              "internalType": "address",
              "name": "rewardToken",
              "type": "address"
            },
            {
              "internalType": "uint256",
              "name": "amount",
              "type": "uint256"
            },
            {
              "internalType": "address[]",
              "name": "positionWrappers",
              "type": "address[]"
            },
            {
              "internalType": "uint32[]",
              "name": "wrapperTypes",
              "type": "uint32[]"
            },
            {
              "internalType": "uint32",
              "name": "propToken0",
              "type": "uint32"
            },
            {
              "internalType": "uint32",
              "name": "propToken1",
              "type": "uint32"
            },
            {
              "internalType": "uint32",
              "name": "propFees",
              "type": "uint32"
            },
            {
              "internalType": "uint32",
              "name": "epochStart",
              "type": "uint32"
            },
            {
              "internalType": "uint32",
              "name": "numEpoch",
              "type": "uint32"
            },
            {
              "internalType": "uint32",
              "name": "isOutOfRangeIncentivized",
              "type": "uint32"
            },
            {
              "internalType": "uint32",
              "name": "boostedReward",
              "type": "uint32"
            },
            {
              "internalType": "address",
              "name": "boostingAddress",
              "type": "address"
            },
            {
              "internalType": "bytes",
              "name": "additionalData",
              "type": "bytes"
            }
          ],
          "internalType": "struct DistributionParameters",
          "name": "distribution",
          "type": "tuple"
        }
      ],
      "name": "getExtensiveDistributionParameters",
      "outputs": [
        {
          "components": [
            {
              "components": [
                {
                  "internalType": "bytes32",
                  "name": "rewardId",
                  "type": "bytes32"
                },
                {
                  "internalType": "address",
                  "name": "uniV3Pool",
                  "type": "address"
                },
                {
                  "internalType": "address",
                  "name": "rewardToken",
                  "type": "address"
                },
                {
                  "internalType": "uint256",
                  "name": "amount",
                  "type": "uint256"
                },
                {
                  "internalType": "address[]",
                  "name": "positionWrappers",
                  "type": "address[]"
                },
                {
                  "internalType": "uint32[]",
                  "name": "wrapperTypes",
                  "type": "uint32[]"
                },
                {
                  "internalType": "uint32",
                  "name": "propToken0",
                  "type": "uint32"
                },
                {
                  "internalType": "uint32",
                  "name": "propToken1",
                  "type": "uint32"
                },
                {
                  "internalType": "uint32",
                  "name": "propFees",
                  "type": "uint32"
                },
                {
                  "internalType": "uint32",
                  "name": "epochStart",
                  "type": "uint32"
                },
                {
                  "internalType": "uint32",
                  "name": "numEpoch",
                  "type": "uint32"
                },
                {
                  "internalType": "uint32",
                  "name": "isOutOfRangeIncentivized",
                  "type": "uint32"
                },
                {
                  "internalType": "uint32",
                  "name": "boostedReward",
                  "type": "uint32"
                },
                {
                  "internalType": "address",
                  "name": "boostingAddress",
                  "type": "address"
                },
                {
                  "internalType": "bytes",
                  "name": "additionalData",
                  "type": "bytes"
                }
              ],
              "internalType": "struct DistributionParameters",
              "name": "base",
              "type": "tuple"
            },
            {
              "internalType": "uint24",
              "name": "poolFee",
              "type": "uint24"
            },
            {
              "components": [
                {
                  "internalType": "address",
                  "name": "add",
                  "type": "address"
                },
                {
                  "internalType": "uint8",
                  "name": "decimals",
                  "type": "uint8"
                },
                {
                  "internalType": "string",
                  "name": "symbol",
                  "type": "string"
                },
                {
                  "internalType": "uint256",
                  "name": "poolBalance",
                  "type": "uint256"
                }
              ],
              "internalType": "struct UniswapTokenData",
              "name": "token0",
              "type": "tuple"
            },
            {
              "components": [
                {
                  "internalType": "address",
                  "name": "add",
                  "type": "address"
                },
                {
                  "internalType": "uint8",
                  "name": "decimals",
                  "type": "uint8"
                },
                {
                  "internalType": "string",
                  "name": "symbol",
                  "type": "string"
                },
                {
                  "internalType": "uint256",
                  "name": "poolBalance",
                  "type": "uint256"
                }
              ],
              "internalType": "struct UniswapTokenData",
              "name": "token1",
              "type": "tuple"
            },
            {
              "internalType": "string",
              "name": "rewardTokenSymbol",
              "type": "string"
            },
            {
              "internalType": "uint8",
              "name": "rewardTokenDecimals",
              "type": "uint8"
            }
          ],
          "internalType": "struct ExtensiveDistributionParameters",
          "name": "extensiveParams",
          "type": "tuple"
        }
      ],
      "stateMutability": "view",
      "type": "function"
    },
    {
      "inputs": [
        {
          "internalType": "address",
          "name": "uniV3Pool",
          "type": "address"
        },
        {
          "internalType": "uint32",
          "name": "epochStart",
          "type": "uint32"
        },
        {
          "internalType": "uint32",
          "name": "skip",
          "type": "uint32"
        },
        {
          "internalType": "uint32",
          "name": "first",
          "type": "uint32"
        }
      ],
      "name": "getPoolDistributionsAfterEpoch",
      "outputs": [
        {
          "components": [
            {
              "components": [
                {
                  "internalType": "bytes32",
                  "name": "rewardId",
                  "type": "bytes32"
                },
                {
                  "internalType": "address",
                  "name": "uniV3Pool",
                  "type": "address"
                },
                {
                  "internalType": "address",
                  "name": "rewardToken",
                  "type": "address"
                },
                {
                  "internalType": "uint256",
                  "name": "amount",
                  "type": "uint256"
                },
                {
                  "internalType": "address[]",
                  "name": "positionWrappers",
                  "type": "address[]"
                },
                {
                  "internalType": "uint32[]",
                  "name": "wrapperTypes",
                  "type": "uint32[]"
                },
                {
                  "internalType": "uint32",
                  "name": "propToken0",
                  "type": "uint32"
                },
                {
                  "internalType": "uint32",
                  "name": "propToken1",
                  "type": "uint32"
                },
                {
                  "internalType": "uint32",
                  "name": "propFees",
                  "type": "uint32"
                },
                {
                  "internalType": "uint32",
                  "name": "epochStart",
                  "type": "uint32"
                },
                {
                  "internalType": "uint32",
                  "name": "numEpoch",
                  "type": "uint32"
                },
                {
                  "internalType": "uint32",
                  "name": "isOutOfRangeIncentivized",
                  "type": "uint32"
                },
                {
                  "internalType": "uint32",
                  "name": "boostedReward",
                  "type": "uint32"
                },
                {
                  "internalType": "address",
                  "name": "boostingAddress",
                  "type": "address"
                },
                {
                  "internalType": "bytes",
                  "name": "additionalData",
                  "type": "bytes"
                }
              ],
              "internalType": "struct DistributionParameters",
              "name": "base",
              "type": "tuple"
            },
            {
              "internalType": "uint24",
              "name": "poolFee",
              "type": "uint24"
            },
            {
              "components": [
                {
                  "internalType": "address",
                  "name": "add",
                  "type": "address"
                },
                {
                  "internalType": "uint8",
                  "name": "decimals",
                  "type": "uint8"
                },
                {
                  "internalType": "string",
                  "name": "symbol",
                  "type": "string"
                },
                {
                  "internalType": "uint256",
                  "name": "poolBalance",
                  "type": "uint256"
                }
              ],
              "internalType": "struct UniswapTokenData",
              "name": "token0",
              "type": "tuple"
            },
            {
              "components": [
                {
                  "internalType": "address",
                  "name": "add",
                  "type": "address"
                },
                {
                  "internalType": "uint8",
                  "name": "decimals",
                  "type": "uint8"
                },
                {
                  "internalType": "string",
                  "name": "symbol",
                  "type": "string"
                },
                {
                  "internalType": "uint256",
                  "name": "poolBalance",
                  "type": "uint256"
                }
              ],
              "internalType": "struct UniswapTokenData",
              "name": "token1",
              "type": "tuple"
            },
            {
              "internalType": "string",
              "name": "rewardTokenSymbol",
              "type": "string"
            },
            {
              "internalType": "uint8",
              "name": "rewardTokenDecimals",
              "type": "uint8"
            }
          ],
          "internalType": "struct ExtensiveDistributionParameters[]",
          "name": "",
          "type": "tuple[]"
        },
        {
          "internalType": "uint256",
          "name": "lastIndexDistribution",
          "type": "uint256"
        }
      ],
      "stateMutability": "view",
      "type": "function"
    },
    {
      "inputs": [
        {
          "internalType": "address",
          "name": "uniV3Pool",
          "type": "address"
        },
        {
          "internalType": "uint32",
          "name": "epochStart",
          "type": "uint32"
        }
      ],
      "name": "getPoolDistributionsAfterEpoch",
      "outputs": [
        {
          "components": [
            {
              "components": [
                {
                  "internalType": "bytes32",
                  "name": "rewardId",
                  "type": "bytes32"
                },
                {
                  "internalType": "address",
                  "name": "uniV3Pool",
                  "type": "address"
                },
                {
                  "internalType": "address",
                  "name": "rewardToken",
                  "type": "address"
                },
                {
                  "internalType": "uint256",
                  "name": "amount",
                  "type": "uint256"
                },
                {
                  "internalType": "address[]",
                  "name": "positionWrappers",
                  "type": "address[]"
                },
                {
                  "internalType": "uint32[]",
                  "name": "wrapperTypes",
                  "type": "uint32[]"
                },
                {
                  "internalType": "uint32",
                  "name": "propToken0",
                  "type": "uint32"
                },
                {
                  "internalType": "uint32",
                  "name": "propToken1",
                  "type": "uint32"
                },
                {
                  "internalType": "uint32",
                  "name": "propFees",
                  "type": "uint32"
                },
                {
                  "internalType": "uint32",
                  "name": "epochStart",
                  "type": "uint32"
                },
                {
                  "internalType": "uint32",
                  "name": "numEpoch",
                  "type": "uint32"
                },
                {
                  "internalType": "uint32",
                  "name": "isOutOfRangeIncentivized",
                  "type": "uint32"
                },
                {
                  "internalType": "uint32",
                  "name": "boostedReward",
                  "type": "uint32"
                },
                {
                  "internalType": "address",
                  "name": "boostingAddress",
                  "type": "address"
                },
                {
                  "internalType": "bytes",
                  "name": "additionalData",
                  "type": "bytes"
                }
              ],
              "internalType": "struct DistributionParameters",
              "name": "base",
              "type": "tuple"
            },
            {
              "internalType": "uint24",
              "name": "poolFee",
              "type": "uint24"
            },
            {
              "components": [
                {
                  "internalType": "address",
                  "name": "add",
                  "type": "address"
                },
                {
                  "internalType": "uint8",
                  "name": "decimals",
                  "type": "uint8"
                },
                {
                  "internalType": "string",
                  "name": "symbol",
                  "type": "string"
                },
                {
                  "internalType": "uint256",
                  "name": "poolBalance",
                  "type": "uint256"
                }
              ],
              "internalType": "struct UniswapTokenData",
              "name": "token0",
              "type": "tuple"
            },
            {
              "components": [
                {
                  "internalType": "address",
                  "name": "add",
                  "type": "address"
                },
                {
                  "internalType": "uint8",
                  "name": "decimals",
                  "type": "uint8"
                },
                {
                  "internalType": "string",
                  "name": "symbol",
                  "type": "string"
                },
                {
                  "internalType": "uint256",
                  "name": "poolBalance",
                  "type": "uint256"
                }
              ],
              "internalType": "struct UniswapTokenData",
              "name": "token1",
              "type": "tuple"
            },
            {
              "internalType": "string",
              "name": "rewardTokenSymbol",
              "type": "string"
            },
            {
              "internalType": "uint8",
              "name": "rewardTokenDecimals",
              "type": "uint8"
            }
          ],
          "internalType": "struct ExtensiveDistributionParameters[]",
          "name": "searchDistributions",
          "type": "tuple[]"
        }
      ],
      "stateMutability": "view",
      "type": "function"
    },
    {
      "inputs": [
        {
          "internalType": "address",
          "name": "uniV3Pool",
          "type": "address"
        },
        {
          "internalType": "uint32",
          "name": "epochStart",
          "type": "uint32"
        },
        {
          "internalType": "uint32",
          "name": "epochEnd",
          "type": "uint32"
        },
        {
          "internalType": "uint32",
          "name": "skip",
          "type": "uint32"
        },
        {
          "internalType": "uint32",
          "name": "first",
          "type": "uint32"
        }
      ],
      "name": "getPoolDistributionsBetweenEpochs",
      "outputs": [
        {
          "components": [
            {
              "components": [
                {
                  "internalType": "bytes32",
                  "name": "rewardId",
                  "type": "bytes32"
                },
                {
                  "internalType": "address",
                  "name": "uniV3Pool",
                  "type": "address"
                },
                {
                  "internalType": "address",
                  "name": "rewardToken",
                  "type": "address"
                },
                {
                  "internalType": "uint256",
                  "name": "amount",
                  "type": "uint256"
                },
                {
                  "internalType": "address[]",
                  "name": "positionWrappers",
                  "type": "address[]"
                },
                {
                  "internalType": "uint32[]",
                  "name": "wrapperTypes",
                  "type": "uint32[]"
                },
                {
                  "internalType": "uint32",
                  "name": "propToken0",
                  "type": "uint32"
                },
                {
                  "internalType": "uint32",
                  "name": "propToken1",
                  "type": "uint32"
                },
                {
                  "internalType": "uint32",
                  "name": "propFees",
                  "type": "uint32"
                },
                {
                  "internalType": "uint32",
                  "name": "epochStart",
                  "type": "uint32"
                },
                {
                  "internalType": "uint32",
                  "name": "numEpoch",
                  "type": "uint32"
                },
                {
                  "internalType": "uint32",
                  "name": "isOutOfRangeIncentivized",
                  "type": "uint32"
                },
                {
                  "internalType": "uint32",
                  "name": "boostedReward",
                  "type": "uint32"
                },
                {
                  "internalType": "address",
                  "name": "boostingAddress",
                  "type": "address"
                },
                {
                  "internalType": "bytes",
                  "name": "additionalData",
                  "type": "bytes"
                }
              ],
              "internalType": "struct DistributionParameters",
              "name": "base",
              "type": "tuple"
            },
            {
              "internalType": "uint24",
              "name": "poolFee",
              "type": "uint24"
            },
            {
              "components": [
                {
                  "internalType": "address",
                  "name": "add",
                  "type": "address"
                },
                {
                  "internalType": "uint8",
                  "name": "decimals",
                  "type": "uint8"
                },
                {
                  "internalType": "string",
                  "name": "symbol",
                  "type": "string"
                },
                {
                  "internalType": "uint256",
                  "name": "poolBalance",
                  "type": "uint256"
                }
              ],
              "internalType": "struct UniswapTokenData",
              "name": "token0",
              "type": "tuple"
            },
            {
              "components": [
                {
                  "internalType": "address",
                  "name": "add",
                  "type": "address"
                },
                {
                  "internalType": "uint8",
                  "name": "decimals",
                  "type": "uint8"
                },
                {
                  "internalType": "string",
                  "name": "symbol",
                  "type": "string"
                },
                {
                  "internalType": "uint256",
                  "name": "poolBalance",
                  "type": "uint256"
                }
              ],
              "internalType": "struct UniswapTokenData",
              "name": "token1",
              "type": "tuple"
            },
            {
              "internalType": "string",
              "name": "rewardTokenSymbol",
              "type": "string"
            },
            {
              "internalType": "uint8",
              "name": "rewardTokenDecimals",
              "type": "uint8"
            }
          ],
          "internalType": "struct ExtensiveDistributionParameters[]",
          "name": "",
          "type": "tuple[]"
        },
        {
          "internalType": "uint256",
          "name": "lastIndexDistribution",
          "type": "uint256"
        }
      ],
      "stateMutability": "view",
      "type": "function"
    },
    {
      "inputs": [
        {
          "internalType": "address",
          "name": "uniV3Pool",
          "type": "address"
        },
        {
          "internalType": "uint32",
          "name": "epochStart",
          "type": "uint32"
        },
        {
          "internalType": "uint32",
          "name": "epochEnd",
          "type": "uint32"
        }
      ],
      "name": "getPoolDistributionsBetweenEpochs",
      "outputs": [
        {
          "components": [
            {
              "components": [
                {
                  "internalType": "bytes32",
                  "name": "rewardId",
                  "type": "bytes32"
                },
                {
                  "internalType": "address",
                  "name": "uniV3Pool",
                  "type": "address"
                },
                {
                  "internalType": "address",
                  "name": "rewardToken",
                  "type": "address"
                },
                {
                  "internalType": "uint256",
                  "name": "amount",
                  "type": "uint256"
                },
                {
                  "internalType": "address[]",
                  "name": "positionWrappers",
                  "type": "address[]"
                },
                {
                  "internalType": "uint32[]",
                  "name": "wrapperTypes",
                  "type": "uint32[]"
                },
                {
                  "internalType": "uint32",
                  "name": "propToken0",
                  "type": "uint32"
                },
                {
                  "internalType": "uint32",
                  "name": "propToken1",
                  "type": "uint32"
                },
                {
                  "internalType": "uint32",
                  "name": "propFees",
                  "type": "uint32"
                },
                {
                  "internalType": "uint32",
                  "name": "epochStart",
                  "type": "uint32"
                },
                {
                  "internalType": "uint32",
                  "name": "numEpoch",
                  "type": "uint32"
                },
                {
                  "internalType": "uint32",
                  "name": "isOutOfRangeIncentivized",
                  "type": "uint32"
                },
                {
                  "internalType": "uint32",
                  "name": "boostedReward",
                  "type": "uint32"
                },
                {
                  "internalType": "address",
                  "name": "boostingAddress",
                  "type": "address"
                },
                {
                  "internalType": "bytes",
                  "name": "additionalData",
                  "type": "bytes"
                }
              ],
              "internalType": "struct DistributionParameters",
              "name": "base",
              "type": "tuple"
            },
            {
              "internalType": "uint24",
              "name": "poolFee",
              "type": "uint24"
            },
            {
              "components": [
                {
                  "internalType": "address",
                  "name": "add",
                  "type": "address"
                },
                {
                  "internalType": "uint8",
                  "name": "decimals",
                  "type": "uint8"
                },
                {
                  "internalType": "string",
                  "name": "symbol",
                  "type": "string"
                },
                {
                  "internalType": "uint256",
                  "name": "poolBalance",
                  "type": "uint256"
                }
              ],
              "internalType": "struct UniswapTokenData",
              "name": "token0",
              "type": "tuple"
            },
            {
              "components": [
                {
                  "internalType": "address",
                  "name": "add",
                  "type": "address"
                },
                {
                  "internalType": "uint8",
                  "name": "decimals",
                  "type": "uint8"
                },
                {
                  "internalType": "string",
                  "name": "symbol",
                  "type": "string"
                },
                {
                  "internalType": "uint256",
                  "name": "poolBalance",
                  "type": "uint256"
                }
              ],
              "internalType": "struct UniswapTokenData",
              "name": "token1",
              "type": "tuple"
            },
            {
              "internalType": "string",
              "name": "rewardTokenSymbol",
              "type": "string"
            },
            {
              "internalType": "uint8",
              "name": "rewardTokenDecimals",
              "type": "uint8"
            }
          ],
          "internalType": "struct ExtensiveDistributionParameters[]",
          "name": "searchDistributions",
          "type": "tuple[]"
        }
      ],
      "stateMutability": "view",
      "type": "function"
    },
    {
      "inputs": [
        {
          "internalType": "address",
          "name": "uniV3Pool",
          "type": "address"
        },
        {
          "internalType": "uint32",
          "name": "epoch",
          "type": "uint32"
        },
        {
          "internalType": "uint32",
          "name": "skip",
          "type": "uint32"
        },
        {
          "internalType": "uint32",
          "name": "first",
          "type": "uint32"
        }
      ],
      "name": "getPoolDistributionsForEpoch",
      "outputs": [
        {
          "components": [
            {
              "components": [
                {
                  "internalType": "bytes32",
                  "name": "rewardId",
                  "type": "bytes32"
                },
                {
                  "internalType": "address",
                  "name": "uniV3Pool",
                  "type": "address"
                },
                {
                  "internalType": "address",
                  "name": "rewardToken",
                  "type": "address"
                },
                {
                  "internalType": "uint256",
                  "name": "amount",
                  "type": "uint256"
                },
                {
                  "internalType": "address[]",
                  "name": "positionWrappers",
                  "type": "address[]"
                },
                {
                  "internalType": "uint32[]",
                  "name": "wrapperTypes",
                  "type": "uint32[]"
                },
                {
                  "internalType": "uint32",
                  "name": "propToken0",
                  "type": "uint32"
                },
                {
                  "internalType": "uint32",
                  "name": "propToken1",
                  "type": "uint32"
                },
                {
                  "internalType": "uint32",
                  "name": "propFees",
                  "type": "uint32"
                },
                {
                  "internalType": "uint32",
                  "name": "epochStart",
                  "type": "uint32"
                },
                {
                  "internalType": "uint32",
                  "name": "numEpoch",
                  "type": "uint32"
                },
                {
                  "internalType": "uint32",
                  "name": "isOutOfRangeIncentivized",
                  "type": "uint32"
                },
                {
                  "internalType": "uint32",
                  "name": "boostedReward",
                  "type": "uint32"
                },
                {
                  "internalType": "address",
                  "name": "boostingAddress",
                  "type": "address"
                },
                {
                  "internalType": "bytes",
                  "name": "additionalData",
                  "type": "bytes"
                }
              ],
              "internalType": "struct DistributionParameters",
              "name": "base",
              "type": "tuple"
            },
            {
              "internalType": "uint24",
              "name": "poolFee",
              "type": "uint24"
            },
            {
              "components": [
                {
                  "internalType": "address",
                  "name": "add",
                  "type": "address"
                },
                {
                  "internalType": "uint8",
                  "name": "decimals",
                  "type": "uint8"
                },
                {
                  "internalType": "string",
                  "name": "symbol",
                  "type": "string"
                },
                {
                  "internalType": "uint256",
                  "name": "poolBalance",
                  "type": "uint256"
                }
              ],
              "internalType": "struct UniswapTokenData",
              "name": "token0",
              "type": "tuple"
            },
            {
              "components": [
                {
                  "internalType": "address",
                  "name": "add",
                  "type": "address"
                },
                {
                  "internalType": "uint8",
                  "name": "decimals",
                  "type": "uint8"
                },
                {
                  "internalType": "string",
                  "name": "symbol",
                  "type": "string"
                },
                {
                  "internalType": "uint256",
                  "name": "poolBalance",
                  "type": "uint256"
                }
              ],
              "internalType": "struct UniswapTokenData",
              "name": "token1",
              "type": "tuple"
            },
            {
              "internalType": "string",
              "name": "rewardTokenSymbol",
              "type": "string"
            },
            {
              "internalType": "uint8",
              "name": "rewardTokenDecimals",
              "type": "uint8"
            }
          ],
          "internalType": "struct ExtensiveDistributionParameters[]",
          "name": "",
          "type": "tuple[]"
        },
        {
          "internalType": "uint256",
          "name": "lastIndexDistribution",
          "type": "uint256"
        }
      ],
      "stateMutability": "view",
      "type": "function"
    },
    {
      "inputs": [
        {
          "internalType": "address",
          "name": "uniV3Pool",
          "type": "address"
        },
        {
          "internalType": "uint32",
          "name": "epoch",
          "type": "uint32"
        }
      ],
      "name": "getPoolDistributionsForEpoch",
      "outputs": [
        {
          "components": [
            {
              "components": [
                {
                  "internalType": "bytes32",
                  "name": "rewardId",
                  "type": "bytes32"
                },
                {
                  "internalType": "address",
                  "name": "uniV3Pool",
                  "type": "address"
                },
                {
                  "internalType": "address",
                  "name": "rewardToken",
                  "type": "address"
                },
                {
                  "internalType": "uint256",
                  "name": "amount",
                  "type": "uint256"
                },
                {
                  "internalType": "address[]",
                  "name": "positionWrappers",
                  "type": "address[]"
                },
                {
                  "internalType": "uint32[]",
                  "name": "wrapperTypes",
                  "type": "uint32[]"
                },
                {
                  "internalType": "uint32",
                  "name": "propToken0",
                  "type": "uint32"
                },
                {
                  "internalType": "uint32",
                  "name": "propToken1",
                  "type": "uint32"
                },
                {
                  "internalType": "uint32",
                  "name": "propFees",
                  "type": "uint32"
                },
                {
                  "internalType": "uint32",
                  "name": "epochStart",
                  "type": "uint32"
                },
                {
                  "internalType": "uint32",
                  "name": "numEpoch",
                  "type": "uint32"
                },
                {
                  "internalType": "uint32",
                  "name": "isOutOfRangeIncentivized",
                  "type": "uint32"
                },
                {
                  "internalType": "uint32",
                  "name": "boostedReward",
                  "type": "uint32"
                },
                {
                  "internalType": "address",
                  "name": "boostingAddress",
                  "type": "address"
                },
                {
                  "internalType": "bytes",
                  "name": "additionalData",
                  "type": "bytes"
                }
              ],
              "internalType": "struct DistributionParameters",
              "name": "base",
              "type": "tuple"
            },
            {
              "internalType": "uint24",
              "name": "poolFee",
              "type": "uint24"
            },
            {
              "components": [
                {
                  "internalType": "address",
                  "name": "add",
                  "type": "address"
                },
                {
                  "internalType": "uint8",
                  "name": "decimals",
                  "type": "uint8"
                },
                {
                  "internalType": "string",
                  "name": "symbol",
                  "type": "string"
                },
                {
                  "internalType": "uint256",
                  "name": "poolBalance",
                  "type": "uint256"
                }
              ],
              "internalType": "struct UniswapTokenData",
              "name": "token0",
              "type": "tuple"
            },
            {
              "components": [
                {
                  "internalType": "address",
                  "name": "add",
                  "type": "address"
                },
                {
                  "internalType": "uint8",
                  "name": "decimals",
                  "type": "uint8"
                },
                {
                  "internalType": "string",
                  "name": "symbol",
                  "type": "string"
                },
                {
                  "internalType": "uint256",
                  "name": "poolBalance",
                  "type": "uint256"
                }
              ],
              "internalType": "struct UniswapTokenData",
              "name": "token1",
              "type": "tuple"
            },
            {
              "internalType": "string",
              "name": "rewardTokenSymbol",
              "type": "string"
            },
            {
              "internalType": "uint8",
              "name": "rewardTokenDecimals",
              "type": "uint8"
            }
          ],
          "internalType": "struct ExtensiveDistributionParameters[]",
          "name": "searchDistributions",
          "type": "tuple[]"
        }
      ],
      "stateMutability": "view",
      "type": "function"
    },
    {
      "inputs": [],
      "name": "getValidRewardTokens",
      "outputs": [
        {
          "components": [
            {
              "internalType": "address",
              "name": "token",
              "type": "address"
            },
            {
              "internalType": "uint256",
              "name": "minimumAmountPerEpoch",
              "type": "uint256"
            }
          ],
          "internalType": "struct RewardTokenAmounts[]",
          "name": "",
          "type": "tuple[]"
        }
      ],
      "stateMutability": "view",
      "type": "function"
    },
    {
      "inputs": [
        {
          "internalType": "contract ICore",
          "name": "_core",
          "type": "address"
        },
        {
          "internalType": "address",
          "name": "_distributor",
          "type": "address"
        },
        {
          "internalType": "uint256",
          "name": "_fees",
          "type": "uint256"
        }
      ],
      "name": "initialize",
      "outputs": [],
      "stateMutability": "nonpayable",
      "type": "function"
    },
    {
      "inputs": [
        {
          "internalType": "address",
          "name": "",
          "type": "address"
        }
      ],
      "name": "isWhitelistedToken",
      "outputs": [
        {
          "internalType": "uint256",
          "name": "",
          "type": "uint256"
        }
      ],
      "stateMutability": "view",
      "type": "function"
    },
    {
      "inputs": [],
      "name": "message",
      "outputs": [
        {
          "internalType": "string",
          "name": "",
          "type": "string"
        }
      ],
      "stateMutability": "view",
      "type": "function"
    },
    {
      "inputs": [],
      "name": "messageHash",
      "outputs": [
        {
          "internalType": "bytes32",
          "name": "",
          "type": "bytes32"
        }
      ],
      "stateMutability": "view",
      "type": "function"
    },
    {
      "inputs": [
        {
          "internalType": "address",
          "name": "",
          "type": "address"
        }
      ],
      "name": "nonces",
      "outputs": [
        {
          "internalType": "uint256",
          "name": "",
          "type": "uint256"
        }
      ],
      "stateMutability": "view",
      "type": "function"
    },
    {
      "inputs": [],
      "name": "proxiableUUID",
      "outputs": [
        {
          "internalType": "bytes32",
          "name": "",
          "type": "bytes32"
        }
      ],
      "stateMutability": "view",
      "type": "function"
    },
    {
      "inputs": [
        {
          "internalType": "contract IERC20[]",
          "name": "tokens",
          "type": "address[]"
        },
        {
          "internalType": "address",
          "name": "to",
          "type": "address"
        }
      ],
      "name": "recoverFees",
      "outputs": [],
      "stateMutability": "nonpayable",
      "type": "function"
    },
    {
      "inputs": [
        {
          "internalType": "address",
          "name": "",
          "type": "address"
        }
      ],
      "name": "rewardTokenMinAmounts",
      "outputs": [
        {
          "internalType": "uint256",
          "name": "",
          "type": "uint256"
        }
      ],
      "stateMutability": "view",
      "type": "function"
    },
    {
      "inputs": [
        {
          "internalType": "uint256",
          "name": "",
          "type": "uint256"
        }
      ],
      "name": "rewardTokens",
      "outputs": [
        {
          "internalType": "address",
          "name": "",
          "type": "address"
        }
      ],
      "stateMutability": "view",
      "type": "function"
    },
    {
      "inputs": [
        {
          "internalType": "address",
          "name": "_feeRecipient",
          "type": "address"
        }
      ],
      "name": "setFeeRecipient",
      "outputs": [],
      "stateMutability": "nonpayable",
      "type": "function"
    },
    {
      "inputs": [
        {
          "internalType": "uint256",
          "name": "_fees",
          "type": "uint256"
        }
      ],
      "name": "setFees",
      "outputs": [],
      "stateMutability": "nonpayable",
      "type": "function"
    },
    {
      "inputs": [
        {
          "internalType": "string",
          "name": "_message",
          "type": "string"
        }
      ],
      "name": "setMessage",
      "outputs": [],
      "stateMutability": "nonpayable",
      "type": "function"
    },
    {
      "inputs": [
        {
          "internalType": "address",
          "name": "_distributor",
          "type": "address"
        }
      ],
      "name": "setNewDistributor",
      "outputs": [],
      "stateMutability": "nonpayable",
      "type": "function"
    },
    {
      "inputs": [
        {
          "internalType": "address[]",
          "name": "tokens",
          "type": "address[]"
        },
        {
          "internalType": "uint256[]",
          "name": "amounts",
          "type": "uint256[]"
        }
      ],
      "name": "setRewardTokenMinAmounts",
      "outputs": [],
      "stateMutability": "nonpayable",
      "type": "function"
    },
    {
      "inputs": [
        {
          "internalType": "address",
          "name": "user",
          "type": "address"
        },
        {
          "internalType": "uint256",
          "name": "userFeeRebate",
          "type": "uint256"
        }
      ],
      "name": "setUserFeeRebate",
      "outputs": [],
      "stateMutability": "nonpayable",
      "type": "function"
    },
    {
      "inputs": [
        {
          "internalType": "bytes",
          "name": "signature",
          "type": "bytes"
        }
      ],
      "name": "sign",
      "outputs": [],
      "stateMutability": "nonpayable",
      "type": "function"
    },
    {
      "inputs": [
        {
          "components": [
            {
              "internalType": "bytes32",
              "name": "rewardId",
              "type": "bytes32"
            },
            {
              "internalType": "address",
              "name": "uniV3Pool",
              "type": "address"
            },
            {
              "internalType": "address",
              "name": "rewardToken",
              "type": "address"
            },
            {
              "internalType": "uint256",
              "name": "amount",
              "type": "uint256"
            },
            {
              "internalType": "address[]",
              "name": "positionWrappers",
              "type": "address[]"
            },
            {
              "internalType": "uint32[]",
              "name": "wrapperTypes",
              "type": "uint32[]"
            },
            {
              "internalType": "uint32",
              "name": "propToken0",
              "type": "uint32"
            },
            {
              "internalType": "uint32",
              "name": "propToken1",
              "type": "uint32"
            },
            {
              "internalType": "uint32",
              "name": "propFees",
              "type": "uint32"
            },
            {
              "internalType": "uint32",
              "name": "epochStart",
              "type": "uint32"
            },
            {
              "internalType": "uint32",
              "name": "numEpoch",
              "type": "uint32"
            },
            {
              "internalType": "uint32",
              "name": "isOutOfRangeIncentivized",
              "type": "uint32"
            },
            {
              "internalType": "uint32",
              "name": "boostedReward",
              "type": "uint32"
            },
            {
              "internalType": "address",
              "name": "boostingAddress",
              "type": "address"
            },
            {
              "internalType": "bytes",
              "name": "additionalData",
              "type": "bytes"
            }
          ],
          "internalType": "struct DistributionParameters",
          "name": "distribution",
          "type": "tuple"
        },
        {
          "internalType": "bytes",
          "name": "signature",
          "type": "bytes"
        }
      ],
      "name": "signAndCreateDistribution",
      "outputs": [
        {
          "internalType": "uint256",
          "name": "distributionAmount",
          "type": "uint256"
        }
      ],
      "stateMutability": "nonpayable",
      "type": "function"
    },
    {
      "inputs": [
        {
          "internalType": "address",
          "name": "user",
          "type": "address"
        }
      ],
      "name": "toggleSigningWhitelist",
      "outputs": [],
      "stateMutability": "nonpayable",
      "type": "function"
    },
    {
      "inputs": [
        {
          "internalType": "address",
          "name": "token",
          "type": "address"
        }
      ],
      "name": "toggleTokenWhitelist",
      "outputs": [],
      "stateMutability": "nonpayable",
      "type": "function"
    },
    {
      "inputs": [
        {
          "components": [
            {
              "internalType": "bytes32",
              "name": "rewardId",
              "type": "bytes32"
            },
            {
              "internalType": "address",
              "name": "uniV3Pool",
              "type": "address"
            },
            {
              "internalType": "address",
              "name": "rewardToken",
              "type": "address"
            },
            {
              "internalType": "uint256",
              "name": "amount",
              "type": "uint256"
            },
            {
              "internalType": "address[]",
              "name": "positionWrappers",
              "type": "address[]"
            },
            {
              "internalType": "uint32[]",
              "name": "wrapperTypes",
              "type": "uint32[]"
            },
            {
              "internalType": "uint32",
              "name": "propToken0",
              "type": "uint32"
            },
            {
              "internalType": "uint32",
              "name": "propToken1",
              "type": "uint32"
            },
            {
              "internalType": "uint32",
              "name": "propFees",
              "type": "uint32"
            },
            {
              "internalType": "uint32",
              "name": "epochStart",
              "type": "uint32"
            },
            {
              "internalType": "uint32",
              "name": "numEpoch",
              "type": "uint32"
            },
            {
              "internalType": "uint32",
              "name": "isOutOfRangeIncentivized",
              "type": "uint32"
            },
            {
              "internalType": "uint32",
              "name": "boostedReward",
              "type": "uint32"
            },
            {
              "internalType": "address",
              "name": "boostingAddress",
              "type": "address"
            },
            {
              "internalType": "bytes",
              "name": "additionalData",
              "type": "bytes"
            }
          ],
          "internalType": "struct DistributionParameters",
          "name": "distribution",
          "type": "tuple"
        }
      ],
      "name": "tryGetExtensiveDistributionParameters",
      "outputs": [
        {
          "internalType": "bool",
          "name": "success",
          "type": "bool"
        },
        {
          "components": [
            {
              "components": [
                {
                  "internalType": "bytes32",
                  "name": "rewardId",
                  "type": "bytes32"
                },
                {
                  "internalType": "address",
                  "name": "uniV3Pool",
                  "type": "address"
                },
                {
                  "internalType": "address",
                  "name": "rewardToken",
                  "type": "address"
                },
                {
                  "internalType": "uint256",
                  "name": "amount",
                  "type": "uint256"
                },
                {
                  "internalType": "address[]",
                  "name": "positionWrappers",
                  "type": "address[]"
                },
                {
                  "internalType": "uint32[]",
                  "name": "wrapperTypes",
                  "type": "uint32[]"
                },
                {
                  "internalType": "uint32",
                  "name": "propToken0",
                  "type": "uint32"
                },
                {
                  "internalType": "uint32",
                  "name": "propToken1",
                  "type": "uint32"
                },
                {
                  "internalType": "uint32",
                  "name": "propFees",
                  "type": "uint32"
                },
                {
                  "internalType": "uint32",
                  "name": "epochStart",
                  "type": "uint32"
                },
                {
                  "internalType": "uint32",
                  "name": "numEpoch",
                  "type": "uint32"
                },
                {
                  "internalType": "uint32",
                  "name": "isOutOfRangeIncentivized",
                  "type": "uint32"
                },
                {
                  "internalType": "uint32",
                  "name": "boostedReward",
                  "type": "uint32"
                },
                {
                  "internalType": "address",
                  "name": "boostingAddress",
                  "type": "address"
                },
                {
                  "internalType": "bytes",
                  "name": "additionalData",
                  "type": "bytes"
                }
              ],
              "internalType": "struct DistributionParameters",
              "name": "base",
              "type": "tuple"
            },
            {
              "internalType": "uint24",
              "name": "poolFee",
              "type": "uint24"
            },
            {
              "components": [
                {
                  "internalType": "address",
                  "name": "add",
                  "type": "address"
                },
                {
                  "internalType": "uint8",
                  "name": "decimals",
                  "type": "uint8"
                },
                {
                  "internalType": "string",
                  "name": "symbol",
                  "type": "string"
                },
                {
                  "internalType": "uint256",
                  "name": "poolBalance",
                  "type": "uint256"
                }
              ],
              "internalType": "struct UniswapTokenData",
              "name": "token0",
              "type": "tuple"
            },
            {
              "components": [
                {
                  "internalType": "address",
                  "name": "add",
                  "type": "address"
                },
                {
                  "internalType": "uint8",
                  "name": "decimals",
                  "type": "uint8"
                },
                {
                  "internalType": "string",
                  "name": "symbol",
                  "type": "string"
                },
                {
                  "internalType": "uint256",
                  "name": "poolBalance",
                  "type": "uint256"
                }
              ],
              "internalType": "struct UniswapTokenData",
              "name": "token1",
              "type": "tuple"
            },
            {
              "internalType": "string",
              "name": "rewardTokenSymbol",
              "type": "string"
            },
            {
              "internalType": "uint8",
              "name": "rewardTokenDecimals",
              "type": "uint8"
            }
          ],
          "internalType": "struct ExtensiveDistributionParameters",
          "name": "extensiveParams",
          "type": "tuple"
        }
      ],
      "stateMutability": "nonpayable",
      "type": "function"
    },
    {
      "inputs": [
        {
          "internalType": "address",
          "name": "newImplementation",
          "type": "address"
        }
      ],
      "name": "upgradeTo",
      "outputs": [],
      "stateMutability": "nonpayable",
      "type": "function"
    },
    {
      "inputs": [
        {
          "internalType": "address",
          "name": "newImplementation",
          "type": "address"
        },
        {
          "internalType": "bytes",
          "name": "data",
          "type": "bytes"
        }
      ],
      "name": "upgradeToAndCall",
      "outputs": [],
      "stateMutability": "payable",
      "type": "function"
    },
    {
      "inputs": [
        {
          "internalType": "address",
          "name": "",
          "type": "address"
        }
      ],
      "name": "userSignatureWhitelist",
      "outputs": [
        {
          "internalType": "uint256",
          "name": "",
          "type": "uint256"
        }
      ],
      "stateMutability": "view",
      "type": "function"
    },
    {
      "inputs": [
        {
          "internalType": "address",
          "name": "",
          "type": "address"
        }
      ],
      "name": "userSignatures",
      "outputs": [
        {
          "internalType": "bytes32",
          "name": "",
          "type": "bytes32"
        }
      ],
      "stateMutability": "view",
      "type": "function"
    }
  ],
  "transactionHash": "0x14e88b684fcb4675e41355c188b63e2646e312de2145869abf08f3c4d46b49f3",
  "args": [],
  "numDeployments": 1,
  "solcInputHash": "cdf42875315e2a0e31436db18b44c4ce",
  "bytecode": "0x60a0604052306080523480156200001557600080fd5b50600054610100900460ff1615808015620000375750600054600160ff909116105b8062000067575062000054306200022060201b620025051760201c565b15801562000067575060005460ff166001145b620000bf5760405162461bcd60e51b815260206004820152602e6024820152600080516020620059fb83398151915260448201526d191e481a5b9a5d1a585b1a5e995960921b60648201526084015b60405180910390fd5b6000805460ff191660011790558015620000e3576000805461ff0019166101001790555b801562000119576000805461ff00191690556040516001815260008051602062005a1b8339815191529060200160405180910390a15b50600054610100900460ff16158080156200013b5750600054600160ff909116105b806200016b575062000158306200022060201b620025051760201c565b1580156200016b575060005460ff166001145b620001bf5760405162461bcd60e51b815260206004820152602e6024820152600080516020620059fb83398151915260448201526d191e481a5b9a5d1a585b1a5e995960921b6064820152608401620000b6565b6000805460ff191660011790558015620001e3576000805461ff0019166101001790555b801562000219576000805461ff00191690556040516001815260008051602062005a1b8339815191529060200160405180910390a15b506200022f565b6001600160a01b03163b151590565b608051615794620002676000396000818161121501528181611255015281816114da0152818161151a015261159601526157946000f3fe6080604052600436106102ca5760003560e01c80637bb7bed11161017b578063b9d81abc116100d7578063e1394f7d11610085578063e1394f7d14610922578063e21f37ce14610942578063e74b981b14610964578063f2f4eb2614610984578063f6e6bb62146109a4578063fb1d2329146109c4578063feba1ed2146109e457600080fd5b8063b9d81abc1461080e578063ba5c3a9d1461082e578063bfe1092814610867578063c14007a014610887578063c53e7dab146108b5578063d0ff94b2146108d5578063d7fa5625146108f557600080fd5b80639af1d35a116101345780639af1d35a14610720578063a218404014610736578063a2686e2314610756578063a70b9f0c14610776578063aa529617146107a1578063ab37f486146107c1578063ae23bf28146107ee57600080fd5b80637bb7bed1146106445780637ecebe00146106645780638a4bd4b21461069157806392ccb581146106b157806395d3d5d8146106d157806396b3ce54146106f357600080fd5b80633d18678e1161022a57806358beb884116101e357806358beb8841461055d5780636c1550b11461057d5780636cca84bd146105aa578063734e7fb9146105ca578063752e8749146105ea57806376cd7cbc146106025780637b74691e1461062257600080fd5b80633d18678e146104a857806346904840146104c85780634d5aedbf146104f55780634f1ef2861461051557806352d1902d14610528578063586db1f51461053d57600080fd5b806317418a221161028757806317418a22146103c25780631794bb3c146103d75780632acd7ec4146103f7578063304440171461043257806334f150b7146104485780633659cfe614610468578063368b87721461048857600080fd5b80630241d8f9146102cf57806303d2944c146102f15780630db38252146103115780630f44380d146103475780631136b89514610374578063141df503146103a2575b600080fd5b3480156102db57600080fd5b506102ef6102ea366004613f96565b610a11565b005b3480156102fd57600080fd5b506102ef61030c366004613fc2565b610af8565b34801561031d57600080fd5b5061033161032c36600461436e565b610bf7565b60405161033e919061466d565b60405180910390f35b34801561035357600080fd5b50610367610362366004614680565b610e2e565b60405161033e91906146f2565b34801561038057600080fd5b5061039461038f366004614705565b610e56565b60405161033e929190614750565b3480156103ae57600080fd5b506102ef6103bd3660046147b6565b610e8c565b3480156103ce57600080fd5b50610367611003565b3480156103e357600080fd5b506102ef6103f2366004614801565b611030565b34801561040357600080fd5b50610424610412366004613fc2565b60a36020526000908152604090205481565b60405190815260200161033e565b34801561043e57600080fd5b50610424609c5481565b34801561045457600080fd5b50610394610463366004614842565b6111dc565b34801561047457600080fd5b506102ef610483366004613fc2565b61120b565b34801561049457600080fd5b506102ef6104a336600461487b565b6112d3565b3480156104b457600080fd5b506102ef6104c33660046148c3565b6113b8565b3480156104d457600080fd5b506099546104e8906001600160a01b031681565b60405161033e91906148dc565b34801561050157600080fd5b506103946105103660046148f0565b6114a5565b6102ef61052336600461494c565b6114d0565b34801561053457600080fd5b50610424611589565b34801561054957600080fd5b5061039461055836600461499b565b611637565b34801561056957600080fd5b506104246105783660046149fd565b611659565b34801561058957600080fd5b5061059d610598366004614a65565b611678565b60405161033e9190614b15565b3480156105b657600080fd5b506102ef6105c5366004613fc2565b6117a1565b3480156105d657600080fd5b506103676105e5366004614842565b6118a4565b3480156105f657600080fd5b50610424633b9aca0081565b34801561060e57600080fd5b506102ef61061d366004614b59565b6118c5565b34801561062e57600080fd5b506106376118cf565b60405161033e9190614b9a565b34801561065057600080fd5b506104e861065f3660046148c3565b611b52565b34801561067057600080fd5b5061042461067f366004613fc2565b60a06020526000908152604090205481565b34801561069d57600080fd5b506103676106ac366004613fc2565b611b7c565b3480156106bd57600080fd5b506103946106cc366004614bfc565b611b9c565b3480156106dd57600080fd5b506106e6611bbd565b60405161033e9190614c1c565b3480156106ff57600080fd5b5061042461070e366004613fc2565b60a16020526000908152604090205481565b34801561072c57600080fd5b50610424609a5481565b34801561074257600080fd5b506102ef610751366004614c67565b611cde565b34801561076257600080fd5b506102ef610771366004613fc2565b611f30565b34801561078257600080fd5b5061078c610e1081565b60405163ffffffff909116815260200161033e565b3480156107ad57600080fd5b506103946107bc3660046148f0565b612033565b3480156107cd57600080fd5b506104246107dc366004613fc2565b609f6020526000908152604090205481565b3480156107fa57600080fd5b50610367610809366004614cd2565b612062565b34801561081a57600080fd5b5061042461082936600461436e565b61208b565b34801561083a57600080fd5b5061084e6108493660046148c3565b61211c565b60405161033e9d9c9b9a99989796959493929190614cf0565b34801561087357600080fd5b506098546104e8906001600160a01b031681565b34801561089357600080fd5b506108a76108a236600461436e565b612249565b60405161033e929190614d9c565b3480156108c157600080fd5b506103946108d0366004614db7565b612323565b3480156108e157600080fd5b506103676108f0366004614cd2565b612342565b34801561090157600080fd5b50610424610910366004613fc2565b60a26020526000908152604090205481565b34801561092e57600080fd5b5061036761093d366004614680565b612351565b34801561094e57600080fd5b50610957612372565b60405161033e9190614e28565b34801561097057600080fd5b506102ef61097f366004613fc2565b612400565b34801561099057600080fd5b506097546104e8906001600160a01b031681565b3480156109b057600080fd5b506103946109bf366004614705565b6124d8565b3480156109d057600080fd5b506103676109df366004614bfc565b6124f6565b3480156109f057600080fd5b506104246109ff366004613fc2565b609e6020526000908152604090205481565b60975460405163521d4de960e01b81526001600160a01b039091169063521d4de990610a419033906004016148dc565b602060405180830381865afa158015610a5e573d6000803e3d6000fd5b505050506040513d601f19601f82011682018060405250810190610a829190614e4b565b610a9f57604051632678482f60e21b815260040160405180910390fd5b6001600160a01b0382166000818152609e602052604090819020839055517fab1d37d0b21937f334fc4164d147abbfdbfd7ef37ab9ea0ae73f2a58ffb7f1cc90610aec9084815260200190565b60405180910390a25050565b60975460405163521d4de960e01b81526001600160a01b039091169063521d4de990610b289033906004016148dc565b602060405180830381865afa158015610b45573d6000803e3d6000fd5b505050506040513d601f19601f82011682018060405250810190610b699190614e4b565b610b8657604051632678482f60e21b815260040160405180910390fd5b6001600160a01b038116610bad57604051633494a40d60e21b815260040160405180910390fd5b609880546001600160a01b0319166001600160a01b0383169081179091556040517fc0ebb188f905d128bcd7e4282dd1f9cf24cd331b69071002e488349aca6a867b90600090a250565b610bff613d6c565b81816000018190525081602001516001600160a01b031663ddca3f436040518163ffffffff1660e01b8152600401602060405180830381865afa925050508015610c66575060408051601f3d908101601f19168201909252610c6391810190614e79565b60015b610c765760006020820152610c81565b62ffffff1660208201525b610cf482602001516001600160a01b0316630dfe16816040518163ffffffff1660e01b8152600401602060405180830381865afa158015610cc6573d6000803e3d6000fd5b505050506040513d601f19601f82011682018060405250810190610cea9190614e9f565b8360200151612514565b8160400181905250610d4182602001516001600160a01b031663d21220a76040518163ffffffff1660e01b8152600401602060405180830381865afa158015610cc6573d6000803e3d6000fd5b816060018190525081604001516001600160a01b03166395d89b416040518163ffffffff1660e01b8152600401600060405180830381865afa158015610d8b573d6000803e3d6000fd5b505050506040513d6000823e601f3d908101601f19168201604052610db39190810190614f01565b816080018190525081604001516001600160a01b031663313ce5676040518163ffffffff1660e01b8152600401602060405180830381865afa158015610dfd573d6000803e3d6000fd5b505050506040513d601f19601f82011682018060405250810190610e219190614f46565b60ff1660a0820152919050565b6060610e4f6000610e3e8461267c565b63ffffffff600063ffffffff612695565b5092915050565b6060600080610e648661267c565b9050610e7f600082610e78610e1082614f77565b8888612695565b9250925050935093915050565b60975460405163521d4de960e01b81526001600160a01b039091169063521d4de990610ebc9033906004016148dc565b602060405180830381865afa158015610ed9573d6000803e3d6000fd5b505050506040513d601f19601f82011682018060405250810190610efd9190614e4b565b610f1a57604051632678482f60e21b815260040160405180910390fd5b8160005b81811015610ffc57610ff483868684818110610f3c57610f3c614f94565b9050602002016020810190610f519190613fc2565b6001600160a01b03166370a08231306040518263ffffffff1660e01b8152600401610f7c91906148dc565b602060405180830381865afa158015610f99573d6000803e3d6000fd5b505050506040513d601f19601f82011682018060405250810190610fbd9190614faa565b878785818110610fcf57610fcf614f94565b9050602002016020810190610fe49190613fc2565b6001600160a01b03169190612a9c565b600101610f1e565b5050505050565b606060006110104261267c565b9050610e4f600082611024610e1082614f77565b600063ffffffff612695565b600054610100900460ff16158080156110505750600054600160ff909116105b80611071575061105f30612505565b158015611071575060005460ff166001145b6110d95760405162461bcd60e51b815260206004820152602e60248201527f496e697469616c697a61626c653a20636f6e747261637420697320616c72656160448201526d191e481a5b9a5d1a585b1a5e995960921b60648201526084015b60405180910390fd5b6000805460ff1916600117905580156110fc576000805461ff0019166101001790555b6001600160a01b038416158061111957506001600160a01b038316155b156111375760405163d92e233d60e01b815260040160405180910390fd5b633b9aca00821061115b57604051633494a40d60e21b815260040160405180910390fd5b609880546001600160a01b038086166001600160a01b0319928316179092556097805492871692909116919091179055609a82905580156111d6576000805461ff0019169055604051600181527f7f26b83ff96e1f2b6a682f133852f6798a09c465da95921460cefb38474024989060200160405180910390a15b50505050565b60606000806111ea4261267c565b90506111fe600082610e78610e1082614f77565b92509250505b9250929050565b6001600160a01b037f00000000000000000000000000000000000000000000000000000000000000001630036112535760405162461bcd60e51b81526004016110d090614fc3565b7f00000000000000000000000000000000000000000000000000000000000000006001600160a01b0316611285612b04565b6001600160a01b0316146112ab5760405162461bcd60e51b81526004016110d09061500f565b6112b481612b20565b604080516000808252602082019092526112d091839190612bc3565b50565b60975460405163521d4de960e01b81526001600160a01b039091169063521d4de9906113039033906004016148dc565b602060405180830381865afa158015611320573d6000803e3d6000fd5b505050506040513d601f19601f820116820180604052508101906113449190614e4b565b61136157604051632678482f60e21b815260040160405180910390fd5b609b61136d82826150db565b50600061137982612d2e565b609c8190556040518181529091507fde3dc3335dea4d1a1060ef6cefcfcc109eb0a1e78ce151818d3f17a01e1f8a059060200160405180910390a15050565b60975460405163521d4de960e01b81526001600160a01b039091169063521d4de9906113e89033906004016148dc565b602060405180830381865afa158015611405573d6000803e3d6000fd5b505050506040513d601f19601f820116820180604052508101906114299190614e4b565b61144657604051632678482f60e21b815260040160405180910390fd5b633b9aca00811061146a57604051633494a40d60e21b815260040160405180910390fd5b609a8190556040518181527f3346af6da1932164d501f2ec28f8c5d686db5828a36b77f2da4332d89184fe7b9060200160405180910390a150565b606060006114c2866114b68761267c565b63ffffffff8787612695565b915091505b94509492505050565b6001600160a01b037f00000000000000000000000000000000000000000000000000000000000000001630036115185760405162461bcd60e51b81526004016110d090614fc3565b7f00000000000000000000000000000000000000000000000000000000000000006001600160a01b031661154a612b04565b6001600160a01b0316146115705760405162461bcd60e51b81526004016110d09061500f565b61157982612b20565b61158582826001612bc3565b5050565b6000306001600160a01b037f000000000000000000000000000000000000000000000000000000000000000016146116245760405162461bcd60e51b815260206004820152603860248201527f555550535570677261646561626c653a206d757374206e6f742062652063616c6044820152771b1959081d1a1c9bdd59da0819195b1959d85d1958d85b1b60421b60648201526084016110d0565b5060008051602061571883398151915290565b606060006114c260006116498861267c565b6116528861267c565b8787612695565b60006116658383612d69565b61166e84612e25565b90505b9392505050565b33600090815260a260205260409020546060901580156116a95750609c5433600090815260a1602052604090205414155b80156116c2575032600090815260a26020526040902054155b80156116df5750609c5432600090815260a1602052604090205414155b156116fd576040516314e52a5b60e31b815260040160405180910390fd5b81516000816001600160401b0381111561171957611719613fdf565b604051908082528060200260200182016040528015611742578160200160208202803683370190505b50905060005b828110156117975761177285828151811061176557611765614f94565b6020026020010151612e25565b82828151811061178457611784614f94565b6020908102919091010152600101611748565b509150505b919050565b60975460405163521d4de960e01b81526001600160a01b039091169063521d4de9906117d19033906004016148dc565b602060405180830381865afa1580156117ee573d6000803e3d6000fd5b505050506040513d601f19601f820116820180604052508101906118129190614e4b565b61182f57604051632678482f60e21b815260040160405180910390fd5b6001600160a01b0381166000908152609f602052604081205461185390600161519a565b6001600160a01b0383166000818152609f60205260409081902083905551919250907fc6cd32b1acffa550abf886a9b443ff3ce485bfdb05e35ef5b26e745739a1eac190610aec9084815260200190565b60606118bd60006118b48561267c565b6110248561267c565b509392505050565b6115858282612d69565b6060609d805480602002602001604051908101604052809291908181526020016000905b82821015611b49576000848152602090819020604080516101e081018252600986029092018054835260018101546001600160a01b039081168486015260028201541683830152600381015460608401526004810180548351818702810187019094528084529394919360808601939283018282801561199c57602002820191906000526020600020905b81546001600160a01b0316815260019091019060200180831161197e575b5050505050815260200160058201805480602002602001604051908101604052809291908181526020018280548015611a2057602002820191906000526020600020906000905b82829054906101000a900463ffffffff1663ffffffff16815260200190600401906020826003010492830192600103820291508084116119e35790505b5050509183525050600682015463ffffffff8082166020840152600160201b820481166040840152600160401b820481166060840152600160601b820481166080840152600160801b8204811660a0840152600160a01b8204811660c0840152600160c01b9091041660e082015260078201546001600160a01b031661010082015260088201805461012090920191611ab89061505b565b80601f0160208091040260200160405190810160405280929190818152602001828054611ae49061505b565b8015611b315780601f10611b0657610100808354040283529160200191611b31565b820191906000526020600020905b815481529060010190602001808311611b1457829003601f168201915b505050505081525050815260200190600101906118f3565b50505050905090565b60a48181548110611b6257600080fd5b6000918252602090912001546001600160a01b0316905081565b60606000611b894261267c565b90506117978382611024610e1082614f77565b6060600080611baa4261267c565b9050610e7f8682610e78610e1082614f77565b60a45460609060009081816001600160401b03811115611bdf57611bdf613fdf565b604051908082528060200260200182016040528015611c2457816020015b6040805180820190915260008082526020820152815260200190600190039081611bfd5790505b50905060005b828163ffffffff161015611cd457600060a48263ffffffff1681548110611c5357611c53614f94565b60009182526020808320909101546001600160a01b031680835260a39091526040909120549091508015611cca576040518060400160405280836001600160a01b0316815260200182815250848781518110611cb157611cb1614f94565b6020908102919091010152611cc76001876151ad565b95505b5050600101611c2a565b5091825250919050565b60975460405163521d4de960e01b81526001600160a01b039091169063521d4de990611d0e9033906004016148dc565b602060405180830381865afa158015611d2b573d6000803e3d6000fd5b505050506040513d601f19601f82011682018060405250810190611d4f9190614e4b565b611d6c57604051632678482f60e21b815260040160405180910390fd5b82818114611d8d57604051631df89e8b60e01b815260040160405180910390fd5b60005b81811015611f28576000848483818110611dac57611dac614f94565b905060200201359050600081118015611e07575060a36000888885818110611dd657611dd6614f94565b9050602002016020810190611deb9190613fc2565b6001600160a01b03168152602081019190915260400160002054155b15611e685760a4878784818110611e2057611e20614f94565b9050602002016020810190611e359190613fc2565b81546001810183556000928352602090922090910180546001600160a01b0319166001600160a01b039092169190911790555b8060a36000898986818110611e7f57611e7f614f94565b9050602002016020810190611e949190613fc2565b6001600160a01b03168152602081019190915260400160002055868683818110611ec057611ec0614f94565b9050602002016020810190611ed59190613fc2565b6001600160a01b03167f3a5e6418e38cae10bf66eaf3e68c4e9c6b14df195e24fec169ab3a5b123c96e582604051611f0f91815260200190565b60405180910390a250611f21816151c0565b9050611d90565b505050505050565b60975460405163521d4de960e01b81526001600160a01b039091169063521d4de990611f609033906004016148dc565b602060405180830381865afa158015611f7d573d6000803e3d6000fd5b505050506040513d601f19601f82011682018060405250810190611fa19190614e4b565b611fbe57604051632678482f60e21b815260040160405180910390fd5b6001600160a01b038116600090815260a26020526040812054611fe290600161519a565b6001600160a01b038316600081815260a260205260409081902083905551919250907f9c759941da0b7ce56c059c1497218796e62035024afb77a00ff49a980a62078f90610aec9084815260200190565b60606000806120418661267c565b90506120548782610e78610e1082614f77565b925092505094509492505050565b6060600061206f8361267c565b90506120828482611024610e1082614f77565b50949350505050565b33600090815260a260205260408120541580156120b95750609c5433600090815260a1602052604090205414155b80156120d2575032600090815260a26020526040902054155b80156120ef5750609c5432600090815260a1602052604090205414155b1561210d576040516314e52a5b60e31b815260040160405180910390fd5b61211682612e25565b92915050565b609d818154811061212c57600080fd5b600091825260209091206009909102018054600182015460028301546003840154600685015460078601546008870180549698506001600160a01b039586169794861696939563ffffffff80851696600160201b8604821696600160401b8704831696600160601b8104841696600160801b8204851696600160a01b8304861696600160c01b90930490951694911692916121c69061505b565b80601f01602080910402602001604051908101604052809291908181526020018280546121f29061505b565b801561223f5780601f106122145761010080835404028352916020019161223f565b820191906000526020600020905b81548152906001019060200180831161222257829003601f168201915b505050505090508d565b6000612253613d6c565b600080306001600160a01b0316630db3825260e01b8660405160240161227991906151d9565b60408051601f198184030181529181526020820180516001600160e01b03166001600160e01b03199094169390931790925290516122b791906151ec565b600060405180830381855af49150503d80600081146122f2576040519150601f19603f3d011682016040523d82523d6000602084013e6122f7565b606091505b5091509150819350831561231c578080602001905181019061231991906155a3565b92505b5050915091565b60606000612334876116498861267c565b915091509550959350505050565b60606118bd83610e3e8461267c565b6060600061235e8361267c565b9050611797600082611024610e1082614f77565b609b805461237f9061505b565b80601f01602080910402602001604051908101604052809291908181526020018280546123ab9061505b565b80156123f85780601f106123cd576101008083540402835291602001916123f8565b820191906000526020600020905b8154815290600101906020018083116123db57829003601f168201915b505050505081565b60975460405163521d4de960e01b81526001600160a01b039091169063521d4de9906124309033906004016148dc565b602060405180830381865afa15801561244d573d6000803e3d6000fd5b505050506040513d601f19601f820116820180604052508101906124719190614e4b565b61248e57604051632678482f60e21b815260040160405180910390fd5b609980546001600160a01b0319166001600160a01b0383169081179091556040517f7a7b5a0a132f9e0581eb8527f66eae9ee89c2a3e79d4ac7e41a1f1f4d48a7fc290600090a250565b606060006124ea60006114b68761267c565b91509150935093915050565b6060612082846118b48561267c565b6001600160a01b03163b151590565b61251c613e22565b6001600160a01b0383168082526040805163313ce56760e01b8152905163313ce567916004808201926020929091908290030181865afa158015612564573d6000803e3d6000fd5b505050506040513d601f19601f820116820180604052508101906125889190614f46565b60ff166020820152604080516395d89b4160e01b815290516001600160a01b038516916395d89b419160048083019260009291908290030181865afa1580156125d5573d6000803e3d6000fd5b505050506040513d6000823e601f3d908101601f191682016040526125fd9190810190614f01565b604080830191909152516370a0823160e01b81526001600160a01b038416906370a08231906126309085906004016148dc565b602060405180830381865afa15801561264d573d6000803e3d6000fd5b505050506040513d601f19601f820116820180604052508101906126719190614faa565b606082015292915050565b6000610e1061268b81846155ed565b6121169190615610565b609d5460609060009081908163ffffffff861682106126ba578563ffffffff166126bc565b815b90506000816001600160401b038111156126d8576126d8613fdf565b60405190808252806020026020018201604052801561271157816020015b6126fe613d6c565b8152602001906001900390816126f65790505b509050875b838163ffffffff161015612a82576000609d8263ffffffff168154811061273f5761273f614f94565b6000918252602091829020604080516101e08101825260099093029091018054835260018101546001600160a01b03908116848601526002820154168383015260038101546060840152600481018054835181870281018701909452808452939491936080860193928301828280156127e157602002820191906000526020600020905b81546001600160a01b031681526001909101906020018083116127c3575b505050505081526020016005820180548060200260200160405190810160405280929190818152602001828054801561286557602002820191906000526020600020906000905b82829054906101000a900463ffffffff1663ffffffff16815260200190600401906020826003010492830192600103820291508084116128285790505b5050509183525050600682015463ffffffff8082166020840152600160201b820481166040840152600160401b820481166060840152600160601b820481166080840152600160801b8204811660a0840152600160a01b8204811660c0840152600160c01b9091041660e082015260078201546001600160a01b0316610100820152600882018054610120909201916128fd9061505b565b80601f01602080910402602001604051908101604052809291908181526020018280546129299061505b565b80156129765780601f1061294b57610100808354040283529160200191612976565b820191906000526020600020905b81548152906001019060200180831161295957829003601f168201915b505050505081525050905061298c818d8d613465565b80156129be57506001600160a01b038d1615806129be57508c6001600160a01b031681602001516001600160a01b0316145b15612a695760405163060a003d60e51b81526000908190309063c14007a0906129eb9086906004016151d9565b600060405180830381865afa158015612a08573d6000803e3d6000fd5b505050506040513d6000823e601f3d908101601f19168201604052612a309190810190615638565b915091508115612a665780858981518110612a4d57612a4d614f94565b6020908102919091010152612a636001896151ad565b97505b50505b816001019150838603612a7c5750612a82565b50612716565b9381529a63ffffffff909316995091975050505050505050565b6040516001600160a01b038316602482015260448101829052612aff90849063a9059cbb60e01b906064015b60408051601f198184030181529190526020810180516001600160e01b03166001600160e01b0319909316929092179091526134bb565b505050565b600080516020615718833981519152546001600160a01b031690565b6097546001600160a01b03168015801590612ba5575060405163521d4de960e01b81526001600160a01b0382169063521d4de990612b629033906004016148dc565b602060405180830381865afa158015612b7f573d6000803e3d6000fd5b505050506040513d601f19601f82011682018060405250810190612ba39190614e4b565b155b1561158557604051632678482f60e21b815260040160405180910390fd5b7f4910fdfa16fed3260ed0e7147f7cc6da11a60208b5b9406d12a635614ffd91435460ff1615612bf657612aff8361358d565b826001600160a01b03166352d1902d6040518163ffffffff1660e01b8152600401602060405180830381865afa925050508015612c50575060408051601f3d908101601f19168201909252612c4d91810190614faa565b60015b612cb35760405162461bcd60e51b815260206004820152602e60248201527f45524331393637557067726164653a206e657720696d706c656d656e7461746960448201526d6f6e206973206e6f74205555505360901b60648201526084016110d0565b6000805160206157188339815191528114612d225760405162461bcd60e51b815260206004820152602960248201527f45524331393637557067726164653a20756e737570706f727465642070726f786044820152681a58589b195555525160ba1b60648201526084016110d0565b50612aff838383613627565b6000612d3a825161364c565b82604051602001612d4c92919061567b565b604051602081830303815290604052805190602001209050919050565b609c54604080516020601f85018190048102820181019092528381523391612dad91849187908790819084018382808284376000920191909152506136de92505050565b6001600160a01b031614612dd457604051638baa579f60e01b815260040160405180910390fd5b33600081815260a1602052604090819020839055517fc48bbd4f009ad78a336beb65bf44688651e9aa52ac98d9054f0fce0573fefbc390612e189084815260200190565b60405180910390a2505050565b6000612e2f6136fa565b6000612e3f83610120015161267c565b6040808501516001600160a01b0316600090815260a3602052205463ffffffff821661012086015290915042612e77610e1084614f77565b63ffffffff161080612e92575061014084015163ffffffff16155b80612ec857508360e001518460c00151856101000151612eb29190614f77565b612ebc9190614f77565b63ffffffff1661271014155b80612ef757506101a08401516001600160a01b031615801590612ef7575061271084610180015163ffffffff16105b80612f0c57508360a001515184608001515114155b80612f15575080155b80612f3957508084610140015163ffffffff168560600151612f3791906156d6565b105b15612f57576040516314414f4160e11b815260040160405180910390fd5b6060840151336000908152609e6020526040902054909350633b9aca00811080156130035750609f600086602001516001600160a01b0316630dfe16816040518163ffffffff1660e01b8152600401602060405180830381865afa158015612fc3573d6000803e3d6000fd5b505050506040513d601f19601f82011682018060405250810190612fe79190614e9f565b6001600160a01b03168152602081019190915260400160002054155b80156130905750609f600086602001516001600160a01b031663d21220a76040518163ffffffff1660e01b8152600401602060405180830381865afa158015613050573d6000803e3d6000fd5b505050506040513d601f19601f820116820180604052508101906130749190614e9f565b6001600160a01b03168152602081019190915260400160002054155b15613134576000633b9aca006130a6838261519a565b609a546130b391906156ea565b6130bd91906156d6565b90506000633b9aca006130d0838261519a565b6130da90886156ea565b6130e491906156d6565b6099549091506001600160a01b031680156130ff5780613101565b305b90506131283382613112858b61519a565b60408c01516001600160a01b0316929190613753565b50606087018190529450505b6098546040860151613155916001600160a01b039182169133911687613753565b33600090815260a060205260409020546131708160016151ad565b33600081815260a0602090815260409182902093909355516131b19284910160609290921b6bffffffffffffffffffffffff19168252601482015260340190565b60408051808303601f1901815291815281516020928301208852609d805460018101825560009190915288517fd26e832454299e9fabb89e0e5fffdc046d4e14431bc1bf607ffb2e8a1ddecf7b6009909202918201908155898401517fd26e832454299e9fabb89e0e5fffdc046d4e14431bc1bf607ffb2e8a1ddecf7c830180546001600160a01b03199081166001600160a01b0393841617909155938b01517fd26e832454299e9fabb89e0e5fffdc046d4e14431bc1bf607ffb2e8a1ddecf7d8401805490951691161790925560608901517fd26e832454299e9fabb89e0e5fffdc046d4e14431bc1bf607ffb2e8a1ddecf7e820155608089015180518a946132df937fd26e832454299e9fabb89e0e5fffdc046d4e14431bc1bf607ffb2e8a1ddecf7f01920190613e56565b5060a082015180516132fb916005840191602090910190613ebb565b5060c082015160068201805460e08501516101008601516101208701516101408801516101608901516101808a015163ffffffff98891667ffffffffffffffff1990971696909617600160201b958916959095029490941767ffffffffffffffff60401b1916600160401b9388169390930263ffffffff60601b191692909217600160601b918716919091021767ffffffffffffffff60801b1916600160801b9186169190910263ffffffff60a01b191617600160a01b918516919091021763ffffffff60c01b1916600160c01b93909116929092029190911790556101a08201516007820180546001600160a01b0319166001600160a01b039092169190911790556101c0820151600882019061341390826150db565b505050336001600160a01b03167f5280c74029ecceb35e4fecf34adee487fd5a9a3d6c8e70b7374a1c133370e83a8760405161344f91906151d9565b60405180910390a25050505061179c6001606555565b60008084610120015163ffffffff1690508363ffffffff16610e108661014001516134909190615610565b6134a09063ffffffff16836151ad565b1180156134b257508263ffffffff1681105b95945050505050565b6000613510826040518060400160405280602081526020017f5361666545524332303a206c6f772d6c6576656c2063616c6c206661696c6564815250856001600160a01b031661378b9092919063ffffffff16565b805190915015612aff578080602001905181019061352e9190614e4b565b612aff5760405162461bcd60e51b815260206004820152602a60248201527f5361666545524332303a204552433230206f7065726174696f6e20646964206e6044820152691bdd081cdd58d8d9595960b21b60648201526084016110d0565b61359681612505565b6135f85760405162461bcd60e51b815260206004820152602d60248201527f455243313936373a206e657720696d706c656d656e746174696f6e206973206e60448201526c1bdd08184818dbdb9d1c9858dd609a1b60648201526084016110d0565b60008051602061571883398151915280546001600160a01b0319166001600160a01b0392909216919091179055565b6136308361379a565b60008251118061363d5750805b15612aff576111d683836137da565b60606000613659836138c3565b60010190506000816001600160401b0381111561367857613678613fdf565b6040519080825280601f01601f1916602001820160405280156136a2576020820181803683370190505b5090508181016020015b600019016f181899199a1a9b1b9c1cb0b131b232b360811b600a86061a8153600a85049450846136ac57509392505050565b60008060006136ed858561399b565b915091506118bd816139dd565b60026065540361374c5760405162461bcd60e51b815260206004820152601f60248201527f5265656e7472616e637947756172643a207265656e7472616e742063616c6c0060448201526064016110d0565b6002606555565b6040516001600160a01b03808516602483015283166044820152606481018290526111d69085906323b872dd60e01b90608401612ac8565b606061166e8484600085613b22565b6137a38161358d565b6040516001600160a01b038216907fbc7cd75a20ee27fd9adebab32041f755214dbc6bffa90cc0225b39da2e5c2d3b90600090a250565b60606137e583612505565b6138405760405162461bcd60e51b815260206004820152602660248201527f416464726573733a2064656c65676174652063616c6c20746f206e6f6e2d636f6044820152651b9d1c9858dd60d21b60648201526084016110d0565b600080846001600160a01b03168460405161385b91906151ec565b600060405180830381855af49150503d8060008114613896576040519150601f19603f3d011682016040523d82523d6000602084013e61389b565b606091505b50915091506134b2828260405180606001604052806027815260200161573860279139613bff565b60008072184f03e93ff9f4daa797ed6e38ed64bf6a1f0160401b83106139025772184f03e93ff9f4daa797ed6e38ed64bf6a1f0160401b830492506040015b6d04ee2d6d415b85acef8100000000831061392e576d04ee2d6d415b85acef8100000000830492506020015b662386f26fc10000831061394c57662386f26fc10000830492506010015b6305f5e1008310613964576305f5e100830492506008015b612710831061397857612710830492506004015b6064831061398a576064830492506002015b600a83106121165760010192915050565b60008082516041036139d15760208301516040840151606085015160001a6139c587828585613c18565b94509450505050611204565b50600090506002611204565b60008160048111156139f1576139f1615701565b036139f95750565b6001816004811115613a0d57613a0d615701565b03613a555760405162461bcd60e51b815260206004820152601860248201527745434453413a20696e76616c6964207369676e617475726560401b60448201526064016110d0565b6002816004811115613a6957613a69615701565b03613ab65760405162461bcd60e51b815260206004820152601f60248201527f45434453413a20696e76616c6964207369676e6174757265206c656e6774680060448201526064016110d0565b6003816004811115613aca57613aca615701565b036112d05760405162461bcd60e51b815260206004820152602260248201527f45434453413a20696e76616c6964207369676e6174757265202773272076616c604482015261756560f01b60648201526084016110d0565b606082471015613b835760405162461bcd60e51b815260206004820152602660248201527f416464726573733a20696e73756666696369656e742062616c616e636520666f6044820152651c8818d85b1b60d21b60648201526084016110d0565b600080866001600160a01b03168587604051613b9f91906151ec565b60006040518083038185875af1925050503d8060008114613bdc576040519150601f19603f3d011682016040523d82523d6000602084013e613be1565b606091505b5091509150613bf287838387613ccf565b925050505b949350505050565b60608315613c0e575081611671565b6116718383613d42565b6000806fa2a8918ca85bafe22016d0b997e4df60600160ff1b03831115613c4557506000905060036114c7565b6040805160008082526020820180845289905260ff881692820192909252606081018690526080810185905260019060a0016020604051602081039080840390855afa158015613c99573d6000803e3d6000fd5b5050604051601f1901519150506001600160a01b038116613cc2576000600192509250506114c7565b9660009650945050505050565b60608315613d3c578251600003613d3557613ce985612505565b613d355760405162461bcd60e51b815260206004820152601d60248201527f416464726573733a2063616c6c20746f206e6f6e2d636f6e747261637400000060448201526064016110d0565b5081613bf7565b613bf783835b815115613d525781518083602001fd5b8060405162461bcd60e51b81526004016110d09190614e28565b604080516102a081018252600060c0820181815260e083018290526101008301829052610120830182905260606101408401819052610160840181905261018084018390526101a084018390526101c084018390526101e08401839052610200840183905261022084018390526102408401839052610260840183905261028084015282526020820152908101613e01613e22565b8152602001613e0e613e22565b815260606020820152600060409091015290565b604051806080016040528060006001600160a01b03168152602001600060ff16815260200160608152602001600081525090565b828054828255906000526020600020908101928215613eab579160200282015b82811115613eab57825182546001600160a01b0319166001600160a01b03909116178255602090920191600190910190613e76565b50613eb7929150613f61565b5090565b82805482825590600052602060002090600701600890048101928215613eab5791602002820160005b83821115613f2857835183826101000a81548163ffffffff021916908363ffffffff1602179055509260200192600401602081600301049283019260010302613ee4565b8015613f585782816101000a81549063ffffffff0219169055600401602081600301049283019260010302613f28565b5050613eb79291505b5b80821115613eb75760008155600101613f62565b6001600160a01b03811681146112d057600080fd5b803561179c81613f76565b60008060408385031215613fa957600080fd5b8235613fb481613f76565b946020939093013593505050565b600060208284031215613fd457600080fd5b813561167181613f76565b634e487b7160e01b600052604160045260246000fd5b6040516101e081016001600160401b038111828210171561401857614018613fdf565b60405290565b60405160c081016001600160401b038111828210171561401857614018613fdf565b604051601f8201601f191681016001600160401b038111828210171561406857614068613fdf565b604052919050565b60006001600160401b0382111561408957614089613fdf565b5060051b60200190565b600082601f8301126140a457600080fd5b813560206140b96140b483614070565b614040565b82815260059290921b840181019181810190868411156140d857600080fd5b8286015b848110156140fc5780356140ef81613f76565b83529183019183016140dc565b509695505050505050565b63ffffffff811681146112d057600080fd5b803561179c81614107565b600082601f83011261413557600080fd5b813560206141456140b483614070565b82815260059290921b8401810191818101908684111561416457600080fd5b8286015b848110156140fc57803561417b81614107565b8352918301918301614168565b60006001600160401b038211156141a1576141a1613fdf565b50601f01601f191660200190565b60006141bd6140b484614188565b90508281528383830111156141d157600080fd5b828260208301376000602084830101529392505050565b600082601f8301126141f957600080fd5b611671838335602085016141af565b60006101e0828403121561421b57600080fd5b614223613ff5565b90508135815261423560208301613f8b565b602082015261424660408301613f8b565b60408201526060820135606082015260808201356001600160401b038082111561426f57600080fd5b61427b85838601614093565b608084015260a084013591508082111561429457600080fd5b6142a085838601614124565b60a08401526142b160c08501614119565b60c08401526142c260e08501614119565b60e084015261010091506142d7828501614119565b8284015261012091506142eb828501614119565b8284015261014091506142ff828501614119565b828401526101609150614313828501614119565b828401526101809150614327828501614119565b828401526101a0915061433b828501613f8b565b828401526101c09150818401358181111561435557600080fd5b614361868287016141e8565b8385015250505092915050565b60006020828403121561438057600080fd5b81356001600160401b0381111561439657600080fd5b613bf784828501614208565b600081518084526020808501945080840160005b838110156143db5781516001600160a01b0316875295820195908201906001016143b6565b509495945050505050565b600081518084526020808501945080840160005b838110156143db57815163ffffffff16875295820195908201906001016143fa565b60005b8381101561443757818101518382015260200161441f565b50506000910152565b6000815180845261445881602086016020860161441c565b601f01601f19169290920160200192915050565b60006101e082518452602083015161448f60208601826001600160a01b03169052565b5060408301516144aa60408601826001600160a01b03169052565b506060830151606085015260808301518160808601526144cc828601826143a2565b91505060a083015184820360a08601526144e682826143e6565b91505060c083015161450060c086018263ffffffff169052565b5060e083015161451860e086018263ffffffff169052565b506101008381015163ffffffff9081169186019190915261012080850151821690860152610140808501518216908601526101608085015182169086015261018080850151909116908501526101a0808401516001600160a01b0316908501526101c080840151858303828701526145908382614440565b9695505050505050565b60018060a01b03815116825260ff602082015116602083015260006040820151608060408501526145ce6080850182614440565b606093840151949093019390935250919050565b6000815160c084526145f760c085018261446c565b905062ffffff60208401511660208501526040830151848203604086015261461f828261459a565b91505060608301518482036060860152614639828261459a565b915050608083015184820360808601526146538282614440565b91505060ff60a08401511660a08501528091505092915050565b60208152600061167160208301846145e2565b60006020828403121561469257600080fd5b813561167181614107565b600081518084526020808501808196508360051b8101915082860160005b858110156146e55782840389526146d38483516145e2565b988501989350908401906001016146bb565b5091979650505050505050565b602081526000611671602083018461469d565b60008060006060848603121561471a57600080fd5b833561472581614107565b9250602084013561473581614107565b9150604084013561474581614107565b809150509250925092565b604081526000614763604083018561469d565b90508260208301529392505050565b60008083601f84011261478457600080fd5b5081356001600160401b0381111561479b57600080fd5b6020830191508360208260051b850101111561120457600080fd5b6000806000604084860312156147cb57600080fd5b83356001600160401b038111156147e157600080fd5b6147ed86828701614772565b909450925050602084013561474581613f76565b60008060006060848603121561481657600080fd5b833561482181613f76565b9250602084013561483181613f76565b929592945050506040919091013590565b6000806040838503121561485557600080fd5b823561486081614107565b9150602083013561487081614107565b809150509250929050565b60006020828403121561488d57600080fd5b81356001600160401b038111156148a357600080fd5b8201601f810184136148b457600080fd5b613bf7848235602084016141af565b6000602082840312156148d557600080fd5b5035919050565b6001600160a01b0391909116815260200190565b6000806000806080858703121561490657600080fd5b843561491181613f76565b9350602085013561492181614107565b9250604085013561493181614107565b9150606085013561494181614107565b939692955090935050565b6000806040838503121561495f57600080fd5b823561496a81613f76565b915060208301356001600160401b0381111561498557600080fd5b614991858286016141e8565b9150509250929050565b600080600080608085870312156149b157600080fd5b843561491181614107565b60008083601f8401126149ce57600080fd5b5081356001600160401b038111156149e557600080fd5b60208301915083602082850101111561120457600080fd5b600080600060408486031215614a1257600080fd5b83356001600160401b0380821115614a2957600080fd5b614a3587838801614208565b94506020860135915080821115614a4b57600080fd5b50614a58868287016149bc565b9497909650939450505050565b60006020808385031215614a7857600080fd5b82356001600160401b0380821115614a8f57600080fd5b818501915085601f830112614aa357600080fd5b8135614ab16140b482614070565b81815260059190911b83018401908481019088831115614ad057600080fd5b8585015b83811015614b0857803585811115614aec5760008081fd5b614afa8b89838a0101614208565b845250918601918601614ad4565b5098975050505050505050565b6020808252825182820181905260009190848201906040850190845b81811015614b4d57835183529284019291840191600101614b31565b50909695505050505050565b60008060208385031215614b6c57600080fd5b82356001600160401b03811115614b8257600080fd5b614b8e858286016149bc565b90969095509350505050565b6000602080830181845280855180835260408601915060408160051b870101925083870160005b82811015614bef57603f19888603018452614bdd85835161446c565b94509285019290850190600101614bc1565b5092979650505050505050565b600080600060608486031215614c1157600080fd5b833561472581613f76565b602080825282518282018190526000919060409081850190868401855b828110156146e557815180516001600160a01b03168552860151868501529284019290850190600101614c39565b60008060008060408587031215614c7d57600080fd5b84356001600160401b0380821115614c9457600080fd5b614ca088838901614772565b90965094506020870135915080821115614cb957600080fd5b50614cc687828801614772565b95989497509550505050565b60008060408385031215614ce557600080fd5b823561486081613f76565b8d81526001600160a01b038d811660208301528c166040820152606081018b905263ffffffff8a8116608083015289811660a0830152881660c0820152600063ffffffff881660e083015263ffffffff871661010083015263ffffffff861661012083015263ffffffff85166101408301526001600160a01b0384166101608301526101a0610180830152614d896101a0830184614440565b9f9e505050505050505050505050505050565b821515815260406020820152600061166e60408301846145e2565b600080600080600060a08688031215614dcf57600080fd5b8535614dda81613f76565b94506020860135614dea81614107565b93506040860135614dfa81614107565b92506060860135614e0a81614107565b91506080860135614e1a81614107565b809150509295509295909350565b6020815260006116716020830184614440565b8051801515811461179c57600080fd5b600060208284031215614e5d57600080fd5b61167182614e3b565b805162ffffff8116811461179c57600080fd5b600060208284031215614e8b57600080fd5b61167182614e66565b805161179c81613f76565b600060208284031215614eb157600080fd5b815161167181613f76565b600082601f830112614ecd57600080fd5b8151614edb6140b482614188565b818152846020838601011115614ef057600080fd5b613bf782602083016020870161441c565b600060208284031215614f1357600080fd5b81516001600160401b03811115614f2957600080fd5b613bf784828501614ebc565b805160ff8116811461179c57600080fd5b600060208284031215614f5857600080fd5b61167182614f35565b634e487b7160e01b600052601160045260246000fd5b63ffffffff818116838216019080821115610e4f57610e4f614f61565b634e487b7160e01b600052603260045260246000fd5b600060208284031215614fbc57600080fd5b5051919050565b6020808252602c908201527f46756e6374696f6e206d7573742062652063616c6c6564207468726f7567682060408201526b19195b1959d85d1958d85b1b60a21b606082015260800190565b6020808252602c908201527f46756e6374696f6e206d7573742062652063616c6c6564207468726f7567682060408201526b6163746976652070726f787960a01b606082015260800190565b600181811c9082168061506f57607f821691505b60208210810361508f57634e487b7160e01b600052602260045260246000fd5b50919050565b601f821115612aff57600081815260208120601f850160051c810160208610156150bc5750805b601f850160051c820191505b81811015611f28578281556001016150c8565b81516001600160401b038111156150f4576150f4613fdf565b61510881615102845461505b565b84615095565b602080601f83116001811461513d57600084156151255750858301515b600019600386901b1c1916600185901b178555611f28565b600085815260208120601f198616915b8281101561516c5788860151825594840194600190910190840161514d565b508582101561518a5787850151600019600388901b60f8161c191681555b5050505050600190811b01905550565b8181038181111561211657612116614f61565b8082018082111561211657612116614f61565b6000600182016151d2576151d2614f61565b5060010190565b602081526000611671602083018461446c565b600082516151fe81846020870161441c565b9190910192915050565b600082601f83011261521957600080fd5b815160206152296140b483614070565b82815260059290921b8401810191818101908684111561524857600080fd5b8286015b848110156140fc57805161525f81613f76565b835291830191830161524c565b805161179c81614107565b600082601f83011261528857600080fd5b815160206152986140b483614070565b82815260059290921b840181019181810190868411156152b757600080fd5b8286015b848110156140fc5780516152ce81614107565b83529183019183016152bb565b60006101e082840312156152ee57600080fd5b6152f6613ff5565b90508151815261530860208301614e94565b602082015261531960408301614e94565b60408201526060820151606082015260808201516001600160401b038082111561534257600080fd5b61534e85838601615208565b608084015260a084015191508082111561536757600080fd5b61537385838601615277565b60a084015261538460c0850161526c565b60c084015261539560e0850161526c565b60e084015261010091506153aa82850161526c565b8284015261012091506153be82850161526c565b8284015261014091506153d282850161526c565b8284015261016091506153e682850161526c565b8284015261018091506153fa82850161526c565b828401526101a0915061540e828501614e94565b828401526101c09150818401518181111561542857600080fd5b61436186828701614ebc565b60006080828403121561544657600080fd5b604051608081016001600160401b03828210818311171561546957615469613fdf565b816040528293508451915061547d82613f76565b81835261548c60208601614f35565b602084015260408501519150808211156154a557600080fd5b506154b285828601614ebc565b604083015250606083015160608201525092915050565b600060c082840312156154db57600080fd5b6154e361401e565b905081516001600160401b03808211156154fc57600080fd5b615508858386016152db565b835261551660208501614e66565b6020840152604084015191508082111561552f57600080fd5b61553b85838601615434565b6040840152606084015191508082111561555457600080fd5b61556085838601615434565b6060840152608084015191508082111561557957600080fd5b5061558684828501614ebc565b60808301525061559860a08301614f35565b60a082015292915050565b6000602082840312156155b557600080fd5b81516001600160401b038111156155cb57600080fd5b613bf7848285016154c9565b634e487b7160e01b600052601260045260246000fd5b600063ffffffff80841680615604576156046155d7565b92169190910492915050565b63ffffffff81811683821602808216919082811461563057615630614f61565b505092915050565b6000806040838503121561564b57600080fd5b61565483614e3b565b915060208301516001600160401b0381111561566f57600080fd5b614991858286016154c9565b7f19457468657265756d205369676e6564204d6573736167653a0a0000000000008152600083516156b381601a85016020880161441c565b8351908301906156ca81601a84016020880161441c565b01601a01949350505050565b6000826156e5576156e56155d7565b500490565b808202811582820484141761211657612116614f61565b634e487b7160e01b600052602160045260246000fdfe360894a13ba1a3210667c828492db98dca3e2076cc3735a920a3ca505d382bbc416464726573733a206c6f772d6c6576656c2064656c65676174652063616c6c206661696c6564a264697066735822122065577b36c3dc281b424c6fd5510241c272164e8529f4dd5b3594d111c95cefc164736f6c63430008110033496e697469616c697a61626c653a20636f6e747261637420697320616c7265617f26b83ff96e1f2b6a682f133852f6798a09c465da95921460cefb3847402498"
}