{
  "address": "0x5029f49585D57ed770D2194841B5A0bE06BFc2ED",
  "abi": [
    {
      "inputs": [
        {
          "internalType": "address",
          "name": "_owner",
          "type": "address"
        },
        {
          "internalType": "contract IERC20",
          "name": "_asset",
          "type": "address"
        },
        {
          "internalType": "uint256",
          "name": "_lockPeriod",
          "type": "uint256"
        },
        {
          "internalType": "string",
          "name": "_name",
          "type": "string"
        },
        {
          "internalType": "string",
          "name": "_symbol",
          "type": "string"
        }
      ],
      "stateMutability": "nonpayable",
      "type": "constructor"
    },
    {
      "inputs": [],
      "name": "InsufficientDeposit",
      "type": "error"
    },
    {
      "inputs": [],
      "name": "InsufficientLockPeriod",
      "type": "error"
    },
    {
      "inputs": [],
      "name": "InvalidDepositAmount",
      "type": "error"
    },
    {
      "inputs": [],
      "name": "InvalidLockPeriod",
      "type": "error"
    },
    {
      "inputs": [],
      "name": "ZeroAddressReceipient",
      "type": "error"
    },
    {
      "anonymous": false,
      "inputs": [
        {
          "indexed": false,
          "internalType": "address",
          "name": "depositor",
          "type": "address"
        },
        {
          "indexed": false,
          "internalType": "uint256",
          "name": "amount",
          "type": "uint256"
        }
      ],
      "name": "Deposit",
      "type": "event"
    },
    {
      "anonymous": false,
      "inputs": [
        {
          "indexed": false,
          "internalType": "uint256",
          "name": "lockPeriod",
          "type": "uint256"
        }
      ],
      "name": "LockPeriodUpdated",
      "type": "event"
    },
    {
      "anonymous": false,
      "inputs": [
        {
          "indexed": true,
          "internalType": "address",
          "name": "previousOwner",
          "type": "address"
        },
        {
          "indexed": true,
          "internalType": "address",
          "name": "newOwner",
          "type": "address"
        }
      ],
      "name": "OwnershipTransferStarted",
      "type": "event"
    },
    {
      "anonymous": false,
      "inputs": [
        {
          "indexed": true,
          "internalType": "address",
          "name": "previousOwner",
          "type": "address"
        },
        {
          "indexed": true,
          "internalType": "address",
          "name": "newOwner",
          "type": "address"
        }
      ],
      "name": "OwnershipTransferred",
      "type": "event"
    },
    {
      "anonymous": false,
      "inputs": [
        {
          "indexed": true,
          "internalType": "address",
          "name": "from",
          "type": "address"
        },
        {
          "indexed": true,
          "internalType": "address",
          "name": "to",
          "type": "address"
        },
        {
          "indexed": false,
          "internalType": "uint256",
          "name": "value",
          "type": "uint256"
        }
      ],
      "name": "Transfer",
      "type": "event"
    },
    {
      "anonymous": false,
      "inputs": [
        {
          "indexed": false,
          "internalType": "address",
          "name": "caller",
          "type": "address"
        },
        {
          "indexed": false,
          "internalType": "address",
          "name": "receiver",
          "type": "address"
        },
        {
          "indexed": false,
          "internalType": "uint256",
          "name": "amount",
          "type": "uint256"
        }
      ],
      "name": "Withdraw",
      "type": "event"
    },
    {
      "inputs": [],
      "name": "MAX_LOCK_PERIOD",
      "outputs": [
        {
          "internalType": "uint256",
          "name": "",
          "type": "uint256"
        }
      ],
      "stateMutability": "view",
      "type": "function"
    },
    {
      "inputs": [],
      "name": "acceptOwnership",
      "outputs": [],
      "stateMutability": "nonpayable",
      "type": "function"
    },
    {
      "inputs": [],
      "name": "asset",
      "outputs": [
        {
          "internalType": "contract IERC20",
          "name": "",
          "type": "address"
        }
      ],
      "stateMutability": "view",
      "type": "function"
    },
    {
      "inputs": [
        {
          "internalType": "address",
          "name": "_locker",
          "type": "address"
        }
      ],
      "name": "balanceOf",
      "outputs": [
        {
          "internalType": "uint256",
          "name": "",
          "type": "uint256"
        }
      ],
      "stateMutability": "view",
      "type": "function"
    },
    {
      "inputs": [],
      "name": "decimals",
      "outputs": [
        {
          "internalType": "uint256",
          "name": "",
          "type": "uint256"
        }
      ],
      "stateMutability": "view",
      "type": "function"
    },
    {
      "inputs": [
        {
          "internalType": "uint256",
          "name": "_amount",
          "type": "uint256"
        }
      ],
      "name": "deposit",
      "outputs": [],
      "stateMutability": "nonpayable",
      "type": "function"
    },
    {
      "inputs": [
        {
          "internalType": "address",
          "name": "_locker",
          "type": "address"
        }
      ],
      "name": "getUnlockableTimestamp",
      "outputs": [
        {
          "internalType": "uint256",
          "name": "",
          "type": "uint256"
        }
      ],
      "stateMutability": "view",
      "type": "function"
    },
    {
      "inputs": [],
      "name": "lockPeriod",
      "outputs": [
        {
          "internalType": "uint256",
          "name": "",
          "type": "uint256"
        }
      ],
      "stateMutability": "view",
      "type": "function"
    },
    {
      "inputs": [
        {
          "internalType": "address",
          "name": "",
          "type": "address"
        }
      ],
      "name": "lockedDeposit",
      "outputs": [
        {
          "internalType": "uint256",
          "name": "",
          "type": "uint256"
        }
      ],
      "stateMutability": "view",
      "type": "function"
    },
    {
      "inputs": [],
      "name": "name",
      "outputs": [
        {
          "internalType": "string",
          "name": "",
          "type": "string"
        }
      ],
      "stateMutability": "view",
      "type": "function"
    },
    {
      "inputs": [],
      "name": "owner",
      "outputs": [
        {
          "internalType": "address",
          "name": "",
          "type": "address"
        }
      ],
      "stateMutability": "view",
      "type": "function"
    },
    {
      "inputs": [],
      "name": "participantNumber",
      "outputs": [
        {
          "internalType": "uint256",
          "name": "",
          "type": "uint256"
        }
      ],
      "stateMutability": "view",
      "type": "function"
    },
    {
      "inputs": [],
      "name": "pendingOwner",
      "outputs": [
        {
          "internalType": "address",
          "name": "",
          "type": "address"
        }
      ],
      "stateMutability": "view",
      "type": "function"
    },
    {
      "inputs": [],
      "name": "renounceOwnership",
      "outputs": [],
      "stateMutability": "nonpayable",
      "type": "function"
    },
    {
      "inputs": [],
      "name": "symbol",
      "outputs": [
        {
          "internalType": "string",
          "name": "",
          "type": "string"
        }
      ],
      "stateMutability": "view",
      "type": "function"
    },
    {
      "inputs": [],
      "name": "totalSupply",
      "outputs": [
        {
          "internalType": "uint256",
          "name": "",
          "type": "uint256"
        }
      ],
      "stateMutability": "view",
      "type": "function"
    },
    {
      "inputs": [
        {
          "internalType": "address",
          "name": "newOwner",
          "type": "address"
        }
      ],
      "name": "transferOwnership",
      "outputs": [],
      "stateMutability": "nonpayable",
      "type": "function"
    },
    {
      "inputs": [
        {
          "internalType": "address",
          "name": "",
          "type": "address"
        }
      ],
      "name": "unlockTime",
      "outputs": [
        {
          "internalType": "uint256",
          "name": "",
          "type": "uint256"
        }
      ],
      "stateMutability": "view",
      "type": "function"
    },
    {
      "inputs": [
        {
          "internalType": "uint256",
          "name": "_lockPeriod",
          "type": "uint256"
        }
      ],
      "name": "updateLockPeriod",
      "outputs": [],
      "stateMutability": "nonpayable",
      "type": "function"
    },
    {
      "inputs": [
        {
          "internalType": "uint256",
          "name": "_amount",
          "type": "uint256"
        },
        {
          "internalType": "address",
          "name": "_receiver",
          "type": "address"
        }
      ],
      "name": "withdraw",
      "outputs": [],
      "stateMutability": "nonpayable",
      "type": "function"
    }
  ],
  "transactionHash": "0x32afbfdec33eebf64283b620af06158766e2be7c820b8a8e90ba6990ad90820a",
  "args": [
    "0x2Dd2290EabdB5654609352Cc267C9BAc82d01877",
    "0x4b0f1812e5df2a09796481ff14017e6005508003",
    1296000,
    "Locked TWT",
    "LTWT"
  ],
  "numDeployments": 2,
  "solcInputHash": "c4670005ca70d4b5fe5e8fd3214f2271",
  "bytecode": "0x60806040523480156200001157600080fd5b506040516200160638038062001606833981016040819052620000349162000206565b6200003f33620000ba565b8262ed4e008111156200006557604051632a82a34f60e01b815260040160405180910390fd5b600280546001600160a01b0319166001600160a01b0387161790556003849055600662000093848262000336565b506007620000a2838262000336565b50620000ae86620000ba565b50505050505062000402565b600180546001600160a01b0319169055620000d581620000d8565b50565b600080546001600160a01b038381166001600160a01b0319831681178455604051919092169283917f8be0079c531659141344cd1fd0a4f28419497f9722a3daafe3b4186f6b6457e09190a35050565b6001600160a01b0381168114620000d557600080fd5b634e487b7160e01b600052604160045260246000fd5b600082601f8301126200016657600080fd5b81516001600160401b03808211156200018357620001836200013e565b604051601f8301601f19908116603f01168101908282118183101715620001ae57620001ae6200013e565b8160405283815260209250866020858801011115620001cc57600080fd5b600091505b83821015620001f05785820183015181830184015290820190620001d1565b6000602085830101528094505050505092915050565b600080600080600060a086880312156200021f57600080fd5b85516200022c8162000128565b60208701519095506200023f8162000128565b6040870151606088015191955093506001600160401b03808211156200026457600080fd5b6200027289838a0162000154565b935060808801519150808211156200028957600080fd5b50620002988882890162000154565b9150509295509295909350565b600181811c90821680620002ba57607f821691505b602082108103620002db57634e487b7160e01b600052602260045260246000fd5b50919050565b601f82111562000331576000816000526020600020601f850160051c810160208610156200030c5750805b601f850160051c820191505b818110156200032d5782815560010162000318565b5050505b505050565b81516001600160401b038111156200035257620003526200013e565b6200036a81620003638454620002a5565b84620002e1565b602080601f831160018114620003a25760008415620003895750858301515b600019600386901b1c1916600185901b1785556200032d565b600085815260208120601f198616915b82811015620003d357888601518255948401946001909101908401620003b2565b5085821015620003f25787850151600019600388901b60f8161c191681555b5050505050600190811b01905550565b6111f480620004126000396000f3fe608060405234801561001057600080fd5b506004361061016b5760003560e01c806379ba5097116100cd57806395d89b4111610081578063e30c397811610066578063e30c3978146102fe578063f2fde38b1461031c578063f55401621461032f57600080fd5b806395d89b41146102e3578063b6b55f25146102eb57600080fd5b80638da5cb5b116100b25780638da5cb5b1461029f57806391db7b0d146102bd57806391f95aba146102d057600080fd5b806379ba5097146102775780638cb0ce161461027f57600080fd5b80633fd8b02f1161012457806370a082311161010957806370a0823114610219578063715018a61461024f57806376b467b71461025757600080fd5b80633fd8b02f146102075780635a9df2f81461021057600080fd5b806318160ddd1161015557806318160ddd146101a3578063313ce567146101ba57806338d52e0f146101c257600080fd5b8062f714ce1461017057806306fdde0314610185575b600080fd5b61018361017e366004610fa5565b610339565b005b61018d61053e565b60405161019a9190610ff5565b60405180910390f35b6101ac60055481565b60405190815260200161019a565b6101ac6105cc565b6002546101e29073ffffffffffffffffffffffffffffffffffffffff1681565b60405173ffffffffffffffffffffffffffffffffffffffff909116815260200161019a565b6101ac60035481565b6101ac60045481565b6101ac610227366004611046565b73ffffffffffffffffffffffffffffffffffffffff1660009081526008602052604090205490565b610183610668565b6101ac610265366004611046565b60096020526000908152604090205481565b61018361067c565b6101ac61028d366004611046565b60086020526000908152604090205481565b60005473ffffffffffffffffffffffffffffffffffffffff166101e2565b6101836102cb366004611061565b610736565b6101ac6102de366004611046565b6107b8565b61018d610800565b6101836102f9366004611061565b61080d565b60015473ffffffffffffffffffffffffffffffffffffffff166101e2565b61018361032a366004611046565b61094d565b6101ac62ed4e0081565b73ffffffffffffffffffffffffffffffffffffffff8116610386576040517ff11f13f400000000000000000000000000000000000000000000000000000000815260040160405180910390fd5b33600090815260086020526040902054828110156103d0576040517f0e1eddda00000000000000000000000000000000000000000000000000000000815260040160405180910390fd5b6103d9336107b8565b421015610412576040517f274dabc000000000000000000000000000000000000000000000000000000000815260040160405180910390fd5b61041c83826110a9565b60000361044a5733600090815260096020526040812081905560048054909190610445906110c2565b909155505b33600090815260086020526040812080548592906104699084906110a9565b92505081905550826005600082825461048291906110a9565b90915550506002546104ab9073ffffffffffffffffffffffffffffffffffffffff1683856109fd565b6040805133815273ffffffffffffffffffffffffffffffffffffffff841660208201529081018490527f9b1bfa7fa9ee420a16e124f794c35ac9f90472acc99140eb2f6447c714cad8eb9060600160405180910390a160405183815260009033907fddf252ad1be2c89b69c2b068fc378daa952ba7f163c4a11628f55a4df523b3ef9060200160405180910390a3505050565b6006805461054b906110f7565b80601f0160208091040260200160405190810160405280929190818152602001828054610577906110f7565b80156105c45780601f10610599576101008083540402835291602001916105c4565b820191906000526020600020905b8154815290600101906020018083116105a757829003601f168201915b505050505081565b600254604080517f313ce567000000000000000000000000000000000000000000000000000000008152905160009273ffffffffffffffffffffffffffffffffffffffff169163313ce5679160048083019260209291908290030181865afa15801561063c573d6000803e3d6000fd5b505050506040513d601f19601f82011682018060405250810190610660919061114a565b60ff16905090565b610670610ad6565b61067a6000610b57565b565b600154339073ffffffffffffffffffffffffffffffffffffffff16811461072a576040517f08c379a000000000000000000000000000000000000000000000000000000000815260206004820152602960248201527f4f776e61626c6532537465703a2063616c6c6572206973206e6f74207468652060448201527f6e6577206f776e6572000000000000000000000000000000000000000000000060648201526084015b60405180910390fd5b61073381610b57565b50565b61073e610ad6565b8062ed4e0081111561077c576040517f2a82a34f00000000000000000000000000000000000000000000000000000000815260040160405180910390fd5b60038290556040518281527f8249ec545e68f6f1e1230133ca48c704d831a7f8e635ded80f3dd9e99b09bb2f9060200160405180910390a15050565b73ffffffffffffffffffffffffffffffffffffffff811660009081526009602052604081205480156107f6576003546107f1908261116d565b6107f9565b60005b9392505050565b6007805461054b906110f7565b80600003610847576040517ffe9ba5cd00000000000000000000000000000000000000000000000000000000815260040160405180910390fd5b336000908152600860205260408120549003610867576004805460010190555b60025461088c9073ffffffffffffffffffffffffffffffffffffffff16333084610b88565b33600090815260086020526040812080548392906108ab90849061116d565b9091555050336000908152600960205260408120429055600580548392906108d490849061116d565b909155505060408051338152602081018390527fe1fffcc4923d04b559f4d29a8bfc6cda04eb5b0d3c460751c2402c5c5cc9109c910160405180910390a160405181815233906000907fddf252ad1be2c89b69c2b068fc378daa952ba7f163c4a11628f55a4df523b3ef9060200160405180910390a350565b610955610ad6565b6001805473ffffffffffffffffffffffffffffffffffffffff83167fffffffffffffffffffffffff000000000000000000000000000000000000000090911681179091556109b860005473ffffffffffffffffffffffffffffffffffffffff1690565b73ffffffffffffffffffffffffffffffffffffffff167f38d16b8cac22d99fc7c124b9cd0de2d3fa1faef420bfe791d8c362d765e2270060405160405180910390a350565b60405173ffffffffffffffffffffffffffffffffffffffff8316602482015260448101829052610ad19084907fa9059cbb00000000000000000000000000000000000000000000000000000000906064015b604080517fffffffffffffffffffffffffffffffffffffffffffffffffffffffffffffffe08184030181529190526020810180517bffffffffffffffffffffffffffffffffffffffffffffffffffffffff167fffffffff0000000000000000000000000000000000000000000000000000000090931692909217909152610bec565b505050565b60005473ffffffffffffffffffffffffffffffffffffffff16331461067a576040517f08c379a000000000000000000000000000000000000000000000000000000000815260206004820181905260248201527f4f776e61626c653a2063616c6c6572206973206e6f7420746865206f776e65726044820152606401610721565b600180547fffffffffffffffffffffffff000000000000000000000000000000000000000016905561073381610cf8565b60405173ffffffffffffffffffffffffffffffffffffffff80851660248301528316604482015260648101829052610be69085907f23b872dd0000000000000000000000000000000000000000000000000000000090608401610a4f565b50505050565b6000610c4e826040518060400160405280602081526020017f5361666545524332303a206c6f772d6c6576656c2063616c6c206661696c65648152508573ffffffffffffffffffffffffffffffffffffffff16610d6d9092919063ffffffff16565b805190915015610ad15780806020019051810190610c6c9190611180565b610ad1576040517f08c379a000000000000000000000000000000000000000000000000000000000815260206004820152602a60248201527f5361666545524332303a204552433230206f7065726174696f6e20646964206e60448201527f6f742073756363656564000000000000000000000000000000000000000000006064820152608401610721565b6000805473ffffffffffffffffffffffffffffffffffffffff8381167fffffffffffffffffffffffff0000000000000000000000000000000000000000831681178455604051919092169283917f8be0079c531659141344cd1fd0a4f28419497f9722a3daafe3b4186f6b6457e09190a35050565b6060610d7c8484600085610d84565b949350505050565b606082471015610e16576040517f08c379a000000000000000000000000000000000000000000000000000000000815260206004820152602660248201527f416464726573733a20696e73756666696369656e742062616c616e636520666f60448201527f722063616c6c00000000000000000000000000000000000000000000000000006064820152608401610721565b6000808673ffffffffffffffffffffffffffffffffffffffff168587604051610e3f91906111a2565b60006040518083038185875af1925050503d8060008114610e7c576040519150601f19603f3d011682016040523d82523d6000602084013e610e81565b606091505b5091509150610e9287838387610e9d565b979650505050505050565b60608315610f33578251600003610f2c5773ffffffffffffffffffffffffffffffffffffffff85163b610f2c576040517f08c379a000000000000000000000000000000000000000000000000000000000815260206004820152601d60248201527f416464726573733a2063616c6c20746f206e6f6e2d636f6e74726163740000006044820152606401610721565b5081610d7c565b610d7c8383815115610f485781518083602001fd5b806040517f08c379a00000000000000000000000000000000000000000000000000000000081526004016107219190610ff5565b803573ffffffffffffffffffffffffffffffffffffffff81168114610fa057600080fd5b919050565b60008060408385031215610fb857600080fd5b82359150610fc860208401610f7c565b90509250929050565b60005b83811015610fec578181015183820152602001610fd4565b50506000910152565b6020815260008251806020840152611014816040850160208701610fd1565b601f017fffffffffffffffffffffffffffffffffffffffffffffffffffffffffffffffe0169190910160400192915050565b60006020828403121561105857600080fd5b6107f982610f7c565b60006020828403121561107357600080fd5b5035919050565b7f4e487b7100000000000000000000000000000000000000000000000000000000600052601160045260246000fd5b818103818111156110bc576110bc61107a565b92915050565b6000816110d1576110d161107a565b507fffffffffffffffffffffffffffffffffffffffffffffffffffffffffffffffff0190565b600181811c9082168061110b57607f821691505b602082108103611144577f4e487b7100000000000000000000000000000000000000000000000000000000600052602260045260246000fd5b50919050565b60006020828403121561115c57600080fd5b815160ff811681146107f957600080fd5b808201808211156110bc576110bc61107a565b60006020828403121561119257600080fd5b815180151581146107f957600080fd5b600082516111b4818460208701610fd1565b919091019291505056fea2646970667358221220e68688689b26209f5d328176f8483ddcabda088d4c6099559522f6d5d531136164736f6c63430008180033",
  "devdoc": {
    "kind": "dev",
    "methods": {
      "acceptOwnership()": {
        "details": "The new owner accepts the ownership transfer."
      },
      "owner()": {
        "details": "Returns the address of the current owner."
      },
      "pendingOwner()": {
        "details": "Returns the address of the pending owner."
      },
      "renounceOwnership()": {
        "details": "Leaves the contract without owner. It will not be possible to call `onlyOwner` functions anymore. Can only be called by the current owner. NOTE: Renouncing ownership will leave the contract without an owner, thereby removing any functionality that is only available to the owner."
      },
      "transferOwnership(address)": {
        "details": "Starts the ownership transfer of the contract to a new account. Replaces the pending transfer if there is one. Can only be called by the current owner."
      }
    },
    "version": 1
  },
  "userdoc": {
    "kind": "user",
    "methods": {},
    "version": 1
  },
  "storageLayout": {
    "storage": [
      {
        "astId": 7,
        "contract": "contracts/TokenLocker.sol:TokenLocker",
        "label": "_owner",
        "offset": 0,
        "slot": "0",
        "type": "t_address"
      },
      {
        "astId": 120,
        "contract": "contracts/TokenLocker.sol:TokenLocker",
        "label": "_pendingOwner",
        "offset": 0,
        "slot": "1",
        "type": "t_address"
      },
      {
        "astId": 982,
        "contract": "contracts/TokenLocker.sol:TokenLocker",
        "label": "asset",
        "offset": 0,
        "slot": "2",
        "type": "t_contract(IERC20)273"
      },
      {
        "astId": 984,
        "contract": "contracts/TokenLocker.sol:TokenLocker",
        "label": "lockPeriod",
        "offset": 0,
        "slot": "3",
        "type": "t_uint256"
      },
      {
        "astId": 986,
        "contract": "contracts/TokenLocker.sol:TokenLocker",
        "label": "participantNumber",
        "offset": 0,
        "slot": "4",
        "type": "t_uint256"
      },
      {
        "astId": 988,
        "contract": "contracts/TokenLocker.sol:TokenLocker",
        "label": "totalSupply",
        "offset": 0,
        "slot": "5",
        "type": "t_uint256"
      },
      {
        "astId": 999,
        "contract": "contracts/TokenLocker.sol:TokenLocker",
        "label": "name",
        "offset": 0,
        "slot": "6",
        "type": "t_string_storage"
      },
      {
        "astId": 1001,
        "contract": "contracts/TokenLocker.sol:TokenLocker",
        "label": "symbol",
        "offset": 0,
        "slot": "7",
        "type": "t_string_storage"
      },
      {
        "astId": 1005,
        "contract": "contracts/TokenLocker.sol:TokenLocker",
        "label": "lockedDeposit",
        "offset": 0,
        "slot": "8",
        "type": "t_mapping(t_address,t_uint256)"
      },
      {
        "astId": 1009,
        "contract": "contracts/TokenLocker.sol:TokenLocker",
        "label": "unlockTime",
        "offset": 0,
        "slot": "9",
        "type": "t_mapping(t_address,t_uint256)"
      }
    ],
    "types": {
      "t_address": {
        "encoding": "inplace",
        "label": "address",
        "numberOfBytes": "20"
      },
      "t_contract(IERC20)273": {
        "encoding": "inplace",
        "label": "contract IERC20",
        "numberOfBytes": "20"
      },
      "t_mapping(t_address,t_uint256)": {
        "encoding": "mapping",
        "key": "t_address",
        "label": "mapping(address => uint256)",
        "numberOfBytes": "32",
        "value": "t_uint256"
      },
      "t_string_storage": {
        "encoding": "bytes",
        "label": "string",
        "numberOfBytes": "32"
      },
      "t_uint256": {
        "encoding": "inplace",
        "label": "uint256",
        "numberOfBytes": "32"
      }
    }
  }
}