{
  "address": "0x954eC713a3915B504a6F288563e5218F597e1895",
  "abi": [
    {
      "inputs": [],
      "name": "NotGovernor",
      "type": "error"
    },
    {
      "inputs": [],
      "name": "ZeroAddress",
      "type": "error"
    },
    {
      "anonymous": false,
      "inputs": [
        {
          "indexed": false,
          "internalType": "address",
          "name": "previousAdmin",
          "type": "address"
        },
        {
          "indexed": false,
          "internalType": "address",
          "name": "newAdmin",
          "type": "address"
        }
      ],
      "name": "AdminChanged",
      "type": "event"
    },
    {
      "anonymous": false,
      "inputs": [
        {
          "indexed": true,
          "internalType": "address",
          "name": "owner",
          "type": "address"
        },
        {
          "indexed": true,
          "internalType": "address",
          "name": "spender",
          "type": "address"
        },
        {
          "indexed": false,
          "internalType": "uint256",
          "name": "value",
          "type": "uint256"
        }
      ],
      "name": "Approval",
      "type": "event"
    },
    {
      "anonymous": false,
      "inputs": [
        {
          "indexed": true,
          "internalType": "address",
          "name": "beacon",
          "type": "address"
        }
      ],
      "name": "BeaconUpgraded",
      "type": "event"
    },
    {
      "anonymous": false,
      "inputs": [
        {
          "indexed": false,
          "internalType": "uint8",
          "name": "version",
          "type": "uint8"
        }
      ],
      "name": "Initialized",
      "type": "event"
    },
    {
      "anonymous": false,
      "inputs": [
        {
          "indexed": true,
          "internalType": "address",
          "name": "token",
          "type": "address"
        },
        {
          "indexed": true,
          "internalType": "address",
          "name": "to",
          "type": "address"
        },
        {
          "indexed": false,
          "internalType": "uint256",
          "name": "amount",
          "type": "uint256"
        }
      ],
      "name": "Recovered",
      "type": "event"
    },
    {
      "anonymous": false,
      "inputs": [
        {
          "indexed": true,
          "internalType": "address",
          "name": "from",
          "type": "address"
        },
        {
          "indexed": true,
          "internalType": "address",
          "name": "to",
          "type": "address"
        },
        {
          "indexed": false,
          "internalType": "uint256",
          "name": "value",
          "type": "uint256"
        }
      ],
      "name": "Transfer",
      "type": "event"
    },
    {
      "anonymous": false,
      "inputs": [
        {
          "indexed": true,
          "internalType": "address",
          "name": "implementation",
          "type": "address"
        }
      ],
      "name": "Upgraded",
      "type": "event"
    },
    {
      "inputs": [],
      "name": "DISTRIBUTOR",
      "outputs": [
        {
          "internalType": "address",
          "name": "",
          "type": "address"
        }
      ],
      "stateMutability": "view",
      "type": "function"
    },
    {
      "inputs": [],
      "name": "DISTRIBUTOR_CREATOR",
      "outputs": [
        {
          "internalType": "contract IDistributionCreator",
          "name": "",
          "type": "address"
        }
      ],
      "stateMutability": "view",
      "type": "function"
    },
    {
      "inputs": [],
      "name": "FEE_RECIPIENT",
      "outputs": [
        {
          "internalType": "address",
          "name": "",
          "type": "address"
        }
      ],
      "stateMutability": "view",
      "type": "function"
    },
    {
      "inputs": [],
      "name": "VESTING",
      "outputs": [
        {
          "internalType": "contract IVesting",
          "name": "",
          "type": "address"
        }
      ],
      "stateMutability": "view",
      "type": "function"
    },
    {
      "inputs": [
        {
          "internalType": "address",
          "name": "owner",
          "type": "address"
        },
        {
          "internalType": "address",
          "name": "spender",
          "type": "address"
        }
      ],
      "name": "allowance",
      "outputs": [
        {
          "internalType": "uint256",
          "name": "",
          "type": "uint256"
        }
      ],
      "stateMutability": "view",
      "type": "function"
    },
    {
      "inputs": [
        {
          "internalType": "address",
          "name": "spender",
          "type": "address"
        },
        {
          "internalType": "uint256",
          "name": "amount",
          "type": "uint256"
        }
      ],
      "name": "approve",
      "outputs": [
        {
          "internalType": "bool",
          "name": "",
          "type": "bool"
        }
      ],
      "stateMutability": "nonpayable",
      "type": "function"
    },
    {
      "inputs": [
        {
          "internalType": "address",
          "name": "account",
          "type": "address"
        }
      ],
      "name": "balanceOf",
      "outputs": [
        {
          "internalType": "uint256",
          "name": "",
          "type": "uint256"
        }
      ],
      "stateMutability": "view",
      "type": "function"
    },
    {
      "inputs": [],
      "name": "core",
      "outputs": [
        {
          "internalType": "contract ICore",
          "name": "",
          "type": "address"
        }
      ],
      "stateMutability": "view",
      "type": "function"
    },
    {
      "inputs": [],
      "name": "decimals",
      "outputs": [
        {
          "internalType": "uint8",
          "name": "",
          "type": "uint8"
        }
      ],
      "stateMutability": "view",
      "type": "function"
    },
    {
      "inputs": [
        {
          "internalType": "address",
          "name": "spender",
          "type": "address"
        },
        {
          "internalType": "uint256",
          "name": "subtractedValue",
          "type": "uint256"
        }
      ],
      "name": "decreaseAllowance",
      "outputs": [
        {
          "internalType": "bool",
          "name": "",
          "type": "bool"
        }
      ],
      "stateMutability": "nonpayable",
      "type": "function"
    },
    {
      "inputs": [
        {
          "internalType": "address",
          "name": "spender",
          "type": "address"
        },
        {
          "internalType": "uint256",
          "name": "addedValue",
          "type": "uint256"
        }
      ],
      "name": "increaseAllowance",
      "outputs": [
        {
          "internalType": "bool",
          "name": "",
          "type": "bool"
        }
      ],
      "stateMutability": "nonpayable",
      "type": "function"
    },
    {
      "inputs": [
        {
          "internalType": "contract ICore",
          "name": "_core",
          "type": "address"
        }
      ],
      "name": "initialize",
      "outputs": [],
      "stateMutability": "nonpayable",
      "type": "function"
    },
    {
      "inputs": [],
      "name": "isTokenWrapper",
      "outputs": [
        {
          "internalType": "bool",
          "name": "",
          "type": "bool"
        }
      ],
      "stateMutability": "pure",
      "type": "function"
    },
    {
      "inputs": [],
      "name": "name",
      "outputs": [
        {
          "internalType": "string",
          "name": "",
          "type": "string"
        }
      ],
      "stateMutability": "view",
      "type": "function"
    },
    {
      "inputs": [],
      "name": "proxiableUUID",
      "outputs": [
        {
          "internalType": "bytes32",
          "name": "",
          "type": "bytes32"
        }
      ],
      "stateMutability": "view",
      "type": "function"
    },
    {
      "inputs": [
        {
          "internalType": "address",
          "name": "tokenAddress",
          "type": "address"
        },
        {
          "internalType": "address",
          "name": "to",
          "type": "address"
        },
        {
          "internalType": "uint256",
          "name": "amountToRecover",
          "type": "uint256"
        }
      ],
      "name": "recoverERC20",
      "outputs": [],
      "stateMutability": "nonpayable",
      "type": "function"
    },
    {
      "inputs": [],
      "name": "symbol",
      "outputs": [
        {
          "internalType": "string",
          "name": "",
          "type": "string"
        }
      ],
      "stateMutability": "view",
      "type": "function"
    },
    {
      "inputs": [],
      "name": "token",
      "outputs": [
        {
          "internalType": "address",
          "name": "",
          "type": "address"
        }
      ],
      "stateMutability": "view",
      "type": "function"
    },
    {
      "inputs": [],
      "name": "totalSupply",
      "outputs": [
        {
          "internalType": "uint256",
          "name": "",
          "type": "uint256"
        }
      ],
      "stateMutability": "view",
      "type": "function"
    },
    {
      "inputs": [
        {
          "internalType": "address",
          "name": "to",
          "type": "address"
        },
        {
          "internalType": "uint256",
          "name": "amount",
          "type": "uint256"
        }
      ],
      "name": "transfer",
      "outputs": [
        {
          "internalType": "bool",
          "name": "",
          "type": "bool"
        }
      ],
      "stateMutability": "nonpayable",
      "type": "function"
    },
    {
      "inputs": [
        {
          "internalType": "address",
          "name": "from",
          "type": "address"
        },
        {
          "internalType": "address",
          "name": "to",
          "type": "address"
        },
        {
          "internalType": "uint256",
          "name": "amount",
          "type": "uint256"
        }
      ],
      "name": "transferFrom",
      "outputs": [
        {
          "internalType": "bool",
          "name": "",
          "type": "bool"
        }
      ],
      "stateMutability": "nonpayable",
      "type": "function"
    },
    {
      "inputs": [
        {
          "internalType": "address",
          "name": "newImplementation",
          "type": "address"
        }
      ],
      "name": "upgradeTo",
      "outputs": [],
      "stateMutability": "nonpayable",
      "type": "function"
    },
    {
      "inputs": [
        {
          "internalType": "address",
          "name": "newImplementation",
          "type": "address"
        },
        {
          "internalType": "bytes",
          "name": "data",
          "type": "bytes"
        }
      ],
      "name": "upgradeToAndCall",
      "outputs": [],
      "stateMutability": "payable",
      "type": "function"
    }
  ],
  "transactionHash": "0xad904a66fb80175a95f0076c8f046e89fad33ae03f7868d2a61c1aa3dc944894",
  "args": [],
  "numDeployments": 2,
  "solcInputHash": "0e92d4258f75e88f713b2aeb08438cdb",
  "bytecode": "0x6101006040819052306080526317fc212560e31b8152738bb4c975ff3c250e0ceea271728547f3802b36fd9063bfe109289061010490602090600481865afa15801562000050573d6000803e3d6000fd5b505050506040513d601f19601f82011682018060405250810190620000769190620002d0565b6001600160a01b031660a0526040805163011a412160e61b81529051738bb4c975ff3c250e0ceea271728547f3802b36fd9163469048409160048083019260209291908290030181865afa158015620000d3573d6000803e3d6000fd5b505050506040513d601f19601f82011682018060405250810190620000f99190620002d0565b6001600160a01b031660c05260408051634c6f713160e01b81529051734fd9f7c5ca0829a656561486bada018505dfcb5e91634c6f71319160048083019260209291908290030181865afa15801562000156573d6000803e3d6000fd5b505050506040513d601f19601f820116820180604052508101906200017c9190620002d0565b6001600160a01b031660e0523480156200019557600080fd5b50600054610100900460ff1615808015620001b75750600054600160ff909116105b80620001e75750620001d430620002c160201b620013231760201c565b158015620001e7575060005460ff166001145b6200024f5760405162461bcd60e51b815260206004820152602e60248201527f496e697469616c697a61626c653a20636f6e747261637420697320616c72656160448201526d191e481a5b9a5d1a585b1a5e995960921b606482015260840160405180910390fd5b6000805460ff19166001179055801562000273576000805461ff0019166101001790555b8015620002ba576000805461ff0019169055604051600181527f7f26b83ff96e1f2b6a682f133852f6798a09c465da95921460cefb38474024989060200160405180910390a15b5062000302565b6001600160a01b03163b151590565b600060208284031215620002e357600080fd5b81516001600160a01b0381168114620002fb57600080fd5b9392505050565b60805160a05160c05160e0516130fe620003ac600039600081816104fd0152818161107f0152818161115201528181611ebd01528181611f5c01526120b101526000818161049f01528181611ef101528181611f7f0152611fb00152600081816103b801528181611e52015261200d01526000818161075f01528181610814015281816109b501528181610a6501528181610bae01528181610eb40152610f6401526130fe6000f3fe6080604052600436106101805760003560e01c80634f1ef286116100d6578063a9059cbb1161007f578063ebd0905411610059578063ebd090541461048d578063f2f4eb26146104c1578063fc0c546a146104ee57600080fd5b8063a9059cbb146103fa578063c4d66de81461041a578063dd62ed3e1461043a57600080fd5b806395d89b41116100b057806395d89b41146103915780639c26149f146103a6578063a457c2d7146103da57600080fd5b80634f1ef2861461032657806352d1902d1461033957806370a082311461034e57600080fd5b806318160ddd11610138578063313ce56711610112578063313ce567146102ca5780633659cfe6146102e6578063395093511461030657600080fd5b806318160ddd1461027757806323b872dd146102965780632587c501146102b657600080fd5b80630f471c89116101695780630f471c89146101e05780631171bda91461022d578063156ca8941461024f57600080fd5b806306fdde0314610185578063095ea7b3146101b0575b600080fd5b34801561019157600080fd5b5061019a610521565b6040516101a79190612ad0565b60405180910390f35b3480156101bc57600080fd5b506101d06101cb366004612b43565b6105b3565b60405190151581526020016101a7565b3480156101ec57600080fd5b50610208738bb4c975ff3c250e0ceea271728547f3802b36fd81565b60405173ffffffffffffffffffffffffffffffffffffffff90911681526020016101a7565b34801561023957600080fd5b5061024d610248366004612b6f565b6105cd565b005b34801561025b57600080fd5b50610208734fd9f7c5ca0829a656561486bada018505dfcb5e81565b34801561028357600080fd5b506099545b6040519081526020016101a7565b3480156102a257600080fd5b506101d06102b1366004612b6f565b610722565b3480156102c257600080fd5b5060016101d0565b3480156102d657600080fd5b50604051601281526020016101a7565b3480156102f257600080fd5b5061024d610301366004612bb0565b610748565b34801561031257600080fd5b506101d0610321366004612b43565b610952565b61024d610334366004612c91565b61099e565b34801561034557600080fd5b50610288610b94565b34801561035a57600080fd5b50610288610369366004612bb0565b73ffffffffffffffffffffffffffffffffffffffff1660009081526097602052604090205490565b34801561039d57600080fd5b5061019a610c80565b3480156103b257600080fd5b506102087f000000000000000000000000000000000000000000000000000000000000000081565b3480156103e657600080fd5b506101d06103f5366004612b43565b610c8f565b34801561040657600080fd5b506101d0610415366004612b43565b610d6b565b34801561042657600080fd5b5061024d610435366004612bb0565b610d79565b34801561044657600080fd5b50610288610455366004612d24565b73ffffffffffffffffffffffffffffffffffffffff918216600090815260986020908152604080832093909416825291909152205490565b34801561049957600080fd5b506102087f000000000000000000000000000000000000000000000000000000000000000081565b3480156104cd57600080fd5b5060c9546102089073ffffffffffffffffffffffffffffffffffffffff1681565b3480156104fa57600080fd5b507f0000000000000000000000000000000000000000000000000000000000000000610208565b6060609a805461053090612d5d565b80601f016020809104026020016040519081016040528092919081815260200182805461055c90612d5d565b80156105a95780601f1061057e576101008083540402835291602001916105a9565b820191906000526020600020905b81548152906001019060200180831161058c57829003601f168201915b5050505050905090565b6000336105c181858561133f565b60019150505b92915050565b60c9546040517fe43581b800000000000000000000000000000000000000000000000000000000815233600482015273ffffffffffffffffffffffffffffffffffffffff9091169063e43581b890602401602060405180830381865afa15801561063b573d6000803e3d6000fd5b505050506040513d601f19601f8201168201806040525081019061065f9190612db0565b610695576040517fee3675d400000000000000000000000000000000000000000000000000000000815260040160405180910390fd5b6106b673ffffffffffffffffffffffffffffffffffffffff841683836114ea565b8173ffffffffffffffffffffffffffffffffffffffff168373ffffffffffffffffffffffffffffffffffffffff167ffff3b3844276f57024e0b42afec1a37f75db36511e43819a4f2a63ab7862b6488360405161071591815260200190565b60405180910390a3505050565b6000336107308582856115c3565b61073b85858561169a565b60019150505b9392505050565b73ffffffffffffffffffffffffffffffffffffffff7f0000000000000000000000000000000000000000000000000000000000000000163003610812576040517f08c379a000000000000000000000000000000000000000000000000000000000815260206004820152602c60248201527f46756e6374696f6e206d7573742062652063616c6c6564207468726f7567682060448201527f64656c656761746563616c6c000000000000000000000000000000000000000060648201526084015b60405180910390fd5b7f000000000000000000000000000000000000000000000000000000000000000073ffffffffffffffffffffffffffffffffffffffff166108877f360894a13ba1a3210667c828492db98dca3e2076cc3735a920a3ca505d382bbc5473ffffffffffffffffffffffffffffffffffffffff1690565b73ffffffffffffffffffffffffffffffffffffffff161461092a576040517f08c379a000000000000000000000000000000000000000000000000000000000815260206004820152602c60248201527f46756e6374696f6e206d7573742062652063616c6c6564207468726f7567682060448201527f6163746976652070726f787900000000000000000000000000000000000000006064820152608401610809565b61093381611921565b6040805160008082526020820190925261094f91839190611a0b565b50565b33600081815260986020908152604080832073ffffffffffffffffffffffffffffffffffffffff871684529091528120549091906105c19082908690610999908790612dd2565b61133f565b73ffffffffffffffffffffffffffffffffffffffff7f0000000000000000000000000000000000000000000000000000000000000000163003610a63576040517f08c379a000000000000000000000000000000000000000000000000000000000815260206004820152602c60248201527f46756e6374696f6e206d7573742062652063616c6c6564207468726f7567682060448201527f64656c656761746563616c6c00000000000000000000000000000000000000006064820152608401610809565b7f000000000000000000000000000000000000000000000000000000000000000073ffffffffffffffffffffffffffffffffffffffff16610ad87f360894a13ba1a3210667c828492db98dca3e2076cc3735a920a3ca505d382bbc5473ffffffffffffffffffffffffffffffffffffffff1690565b73ffffffffffffffffffffffffffffffffffffffff1614610b7b576040517f08c379a000000000000000000000000000000000000000000000000000000000815260206004820152602c60248201527f46756e6374696f6e206d7573742062652063616c6c6564207468726f7567682060448201527f6163746976652070726f787900000000000000000000000000000000000000006064820152608401610809565b610b8482611921565b610b9082826001611a0b565b5050565b60003073ffffffffffffffffffffffffffffffffffffffff7f00000000000000000000000000000000000000000000000000000000000000001614610c5b576040517f08c379a000000000000000000000000000000000000000000000000000000000815260206004820152603860248201527f555550535570677261646561626c653a206d757374206e6f742062652063616c60448201527f6c6564207468726f7567682064656c656761746563616c6c00000000000000006064820152608401610809565b507f360894a13ba1a3210667c828492db98dca3e2076cc3735a920a3ca505d382bbc90565b6060609b805461053090612d5d565b33600081815260986020908152604080832073ffffffffffffffffffffffffffffffffffffffff8716845290915281205490919083811015610d53576040517f08c379a000000000000000000000000000000000000000000000000000000000815260206004820152602560248201527f45524332303a2064656372656173656420616c6c6f77616e63652062656c6f7760448201527f207a65726f0000000000000000000000000000000000000000000000000000006064820152608401610809565b610d60828686840361133f565b506001949350505050565b6000336105c181858561169a565b600054610100900460ff1615808015610d995750600054600160ff909116105b80610db35750303b158015610db3575060005460ff166001145b610e3f576040517f08c379a000000000000000000000000000000000000000000000000000000000815260206004820152602e60248201527f496e697469616c697a61626c653a20636f6e747261637420697320616c72656160448201527f647920696e697469616c697a65640000000000000000000000000000000000006064820152608401610809565b600080547fffffffffffffffffffffffffffffffffffffffffffffffffffffffffffffff001660011790558015610e9d57600080547fffffffffffffffffffffffffffffffffffffffffffffffffffffffffffff00ff166101001790555b73ffffffffffffffffffffffffffffffffffffffff7f0000000000000000000000000000000000000000000000000000000000000000163003610f62576040517f08c379a000000000000000000000000000000000000000000000000000000000815260206004820152602c60248201527f46756e6374696f6e206d7573742062652063616c6c6564207468726f7567682060448201527f64656c656761746563616c6c00000000000000000000000000000000000000006064820152608401610809565b7f000000000000000000000000000000000000000000000000000000000000000073ffffffffffffffffffffffffffffffffffffffff16610fd77f360894a13ba1a3210667c828492db98dca3e2076cc3735a920a3ca505d382bbc5473ffffffffffffffffffffffffffffffffffffffff1690565b73ffffffffffffffffffffffffffffffffffffffff161461107a576040517f08c379a000000000000000000000000000000000000000000000000000000000815260206004820152602c60248201527f46756e6374696f6e206d7573742062652063616c6c6564207468726f7567682060448201527f6163746976652070726f787900000000000000000000000000000000000000006064820152608401610809565b6112287f000000000000000000000000000000000000000000000000000000000000000073ffffffffffffffffffffffffffffffffffffffff166306fdde036040518163ffffffff1660e01b8152600401600060405180830381865afa1580156110e8573d6000803e3d6000fd5b505050506040513d6000823e601f3d9081017fffffffffffffffffffffffffffffffffffffffffffffffffffffffffffffffe016820160405261112e9190810190612e0c565b60405160200161113e9190612e7a565b6040516020818303038152906040526111747f000000000000000000000000000000000000000000000000000000000000000090565b73ffffffffffffffffffffffffffffffffffffffff166395d89b416040518163ffffffff1660e01b8152600401600060405180830381865afa1580156111be573d6000803e3d6000fd5b505050506040513d6000823e601f3d9081017fffffffffffffffffffffffffffffffffffffffffffffffffffffffffffffffe01682016040526112049190810190612e0c565b6040516020016112149190612ebf565b604051602081830303815290604052611c0a565b611230611cab565b73ffffffffffffffffffffffffffffffffffffffff821661127d576040517fd92e233d00000000000000000000000000000000000000000000000000000000815260040160405180910390fd5b60c980547fffffffffffffffffffffffff00000000000000000000000000000000000000001673ffffffffffffffffffffffffffffffffffffffff84161790558015610b9057600080547fffffffffffffffffffffffffffffffffffffffffffffffffffffffffffff00ff169055604051600181527f7f26b83ff96e1f2b6a682f133852f6798a09c465da95921460cefb38474024989060200160405180910390a15050565b73ffffffffffffffffffffffffffffffffffffffff163b151590565b73ffffffffffffffffffffffffffffffffffffffff83166113e1576040517f08c379a0000000000000000000000000000000000000000000000000000000008152602060048201526024808201527f45524332303a20617070726f76652066726f6d20746865207a65726f2061646460448201527f72657373000000000000000000000000000000000000000000000000000000006064820152608401610809565b73ffffffffffffffffffffffffffffffffffffffff8216611484576040517f08c379a000000000000000000000000000000000000000000000000000000000815260206004820152602260248201527f45524332303a20617070726f766520746f20746865207a65726f20616464726560448201527f73730000000000000000000000000000000000000000000000000000000000006064820152608401610809565b73ffffffffffffffffffffffffffffffffffffffff83811660008181526098602090815260408083209487168084529482529182902085905590518481527f8c5be1e5ebec7d5bd14f71427d1e84f3dd0314c0f7b2291e5b200ac8c7c3b9259101610715565b60405173ffffffffffffffffffffffffffffffffffffffff83166024820152604481018290526115be9084907fa9059cbb00000000000000000000000000000000000000000000000000000000906064015b604080517fffffffffffffffffffffffffffffffffffffffffffffffffffffffffffffffe08184030181529190526020810180517bffffffffffffffffffffffffffffffffffffffffffffffffffffffff167fffffffff0000000000000000000000000000000000000000000000000000000090931692909217909152611d44565b505050565b73ffffffffffffffffffffffffffffffffffffffff8381166000908152609860209081526040808320938616835292905220547fffffffffffffffffffffffffffffffffffffffffffffffffffffffffffffffff81146116945781811015611687576040517f08c379a000000000000000000000000000000000000000000000000000000000815260206004820152601d60248201527f45524332303a20696e73756666696369656e7420616c6c6f77616e63650000006044820152606401610809565b611694848484840361133f565b50505050565b73ffffffffffffffffffffffffffffffffffffffff831661173d576040517f08c379a000000000000000000000000000000000000000000000000000000000815260206004820152602560248201527f45524332303a207472616e736665722066726f6d20746865207a65726f20616460448201527f64726573730000000000000000000000000000000000000000000000000000006064820152608401610809565b73ffffffffffffffffffffffffffffffffffffffff82166117e0576040517f08c379a000000000000000000000000000000000000000000000000000000000815260206004820152602360248201527f45524332303a207472616e7366657220746f20746865207a65726f206164647260448201527f65737300000000000000000000000000000000000000000000000000000000006064820152608401610809565b6117eb838383611e50565b73ffffffffffffffffffffffffffffffffffffffff8316600090815260976020526040902054818110156118a1576040517f08c379a000000000000000000000000000000000000000000000000000000000815260206004820152602660248201527f45524332303a207472616e7366657220616d6f756e742065786365656473206260448201527f616c616e636500000000000000000000000000000000000000000000000000006064820152608401610809565b73ffffffffffffffffffffffffffffffffffffffff80851660008181526097602052604080822086860390559286168082529083902080548601905591517fddf252ad1be2c89b69c2b068fc378daa952ba7f163c4a11628f55a4df523b3ef9061190e9086815260200190565b60405180910390a3611694848484611fae565b60c95473ffffffffffffffffffffffffffffffffffffffff1680158015906119d457506040517fe43581b800000000000000000000000000000000000000000000000000000000815233600482015273ffffffffffffffffffffffffffffffffffffffff82169063e43581b890602401602060405180830381865afa1580156119ae573d6000803e3d6000fd5b505050506040513d601f19601f820116820180604052508101906119d29190612db0565b155b15610b90576040517fee3675d400000000000000000000000000000000000000000000000000000000815260040160405180910390fd5b7f4910fdfa16fed3260ed0e7147f7cc6da11a60208b5b9406d12a635614ffd91435460ff1615611a3e576115be836121d8565b8273ffffffffffffffffffffffffffffffffffffffff166352d1902d6040518163ffffffff1660e01b8152600401602060405180830381865afa925050508015611ac3575060408051601f3d9081017fffffffffffffffffffffffffffffffffffffffffffffffffffffffffffffffe0168201909252611ac091810190612f04565b60015b611b4f576040517f08c379a000000000000000000000000000000000000000000000000000000000815260206004820152602e60248201527f45524331393637557067726164653a206e657720696d706c656d656e7461746960448201527f6f6e206973206e6f7420555550530000000000000000000000000000000000006064820152608401610809565b7f360894a13ba1a3210667c828492db98dca3e2076cc3735a920a3ca505d382bbc8114611bfe576040517f08c379a000000000000000000000000000000000000000000000000000000000815260206004820152602960248201527f45524331393637557067726164653a20756e737570706f727465642070726f7860448201527f6961626c655555494400000000000000000000000000000000000000000000006064820152608401610809565b506115be8383836122e2565b600054610100900460ff16611ca1576040517f08c379a000000000000000000000000000000000000000000000000000000000815260206004820152602b60248201527f496e697469616c697a61626c653a20636f6e7472616374206973206e6f74206960448201527f6e697469616c697a696e670000000000000000000000000000000000000000006064820152608401610809565b610b908282612307565b600054610100900460ff16611d42576040517f08c379a000000000000000000000000000000000000000000000000000000000815260206004820152602b60248201527f496e697469616c697a61626c653a20636f6e7472616374206973206e6f74206960448201527f6e697469616c697a696e670000000000000000000000000000000000000000006064820152608401610809565b565b6000611da6826040518060400160405280602081526020017f5361666545524332303a206c6f772d6c6576656c2063616c6c206661696c65648152508573ffffffffffffffffffffffffffffffffffffffff166123b79092919063ffffffff16565b8051909150156115be5780806020019051810190611dc49190612db0565b6115be576040517f08c379a000000000000000000000000000000000000000000000000000000000815260206004820152602a60248201527f5361666545524332303a204552433230206f7065726174696f6e20646964206e60448201527f6f742073756363656564000000000000000000000000000000000000000000006064820152608401610809565b7f000000000000000000000000000000000000000000000000000000000000000073ffffffffffffffffffffffffffffffffffffffff168273ffffffffffffffffffffffffffffffffffffffff1603611eef57611ee573ffffffffffffffffffffffffffffffffffffffff7f0000000000000000000000000000000000000000000000000000000000000000168430846123ce565b611eef838261242c565b7f000000000000000000000000000000000000000000000000000000000000000073ffffffffffffffffffffffffffffffffffffffff168273ffffffffffffffffffffffffffffffffffffffff16036115be57611fa473ffffffffffffffffffffffffffffffffffffffff7f000000000000000000000000000000000000000000000000000000000000000016847f0000000000000000000000000000000000000000000000000000000000000000846123ce565b6115be838261242c565b7f000000000000000000000000000000000000000000000000000000000000000073ffffffffffffffffffffffffffffffffffffffff168273ffffffffffffffffffffffffffffffffffffffff160361200b5761200b8282612535565b7f000000000000000000000000000000000000000000000000000000000000000073ffffffffffffffffffffffffffffffffffffffff168373ffffffffffffffffffffffffffffffffffffffff16036115be576120688282612535565b6040517fa9059cbb000000000000000000000000000000000000000000000000000000008152734fd9f7c5ca0829a656561486bada018505dfcb5e6004820152602481018290527f000000000000000000000000000000000000000000000000000000000000000073ffffffffffffffffffffffffffffffffffffffff169063a9059cbb906044016020604051808303816000875af115801561210f573d6000803e3d6000fd5b505050506040513d601f19601f820116820180604052508101906121339190612db0565b506040517ea4173a00000000000000000000000000000000000000000000000000000000815273ffffffffffffffffffffffffffffffffffffffff831660048201526024810182905260016044820152734fd9f7c5ca0829a656561486bada018505dfcb5e9062a4173a90606401600060405180830381600087803b1580156121bb57600080fd5b505af11580156121cf573d6000803e3d6000fd5b50505050505050565b73ffffffffffffffffffffffffffffffffffffffff81163b61227c576040517f08c379a000000000000000000000000000000000000000000000000000000000815260206004820152602d60248201527f455243313936373a206e657720696d706c656d656e746174696f6e206973206e60448201527f6f74206120636f6e7472616374000000000000000000000000000000000000006064820152608401610809565b7f360894a13ba1a3210667c828492db98dca3e2076cc3735a920a3ca505d382bbc80547fffffffffffffffffffffffff00000000000000000000000000000000000000001673ffffffffffffffffffffffffffffffffffffffff92909216919091179055565b6122eb8361270e565b6000825111806122f85750805b156115be57611694838361275b565b600054610100900460ff1661239e576040517f08c379a000000000000000000000000000000000000000000000000000000000815260206004820152602b60248201527f496e697469616c697a61626c653a20636f6e7472616374206973206e6f74206960448201527f6e697469616c697a696e670000000000000000000000000000000000000000006064820152608401610809565b609a6123aa8382612f6b565b50609b6115be8282612f6b565b60606123c6848460008561289a565b949350505050565b60405173ffffffffffffffffffffffffffffffffffffffff808516602483015283166044820152606481018290526116949085907f23b872dd000000000000000000000000000000000000000000000000000000009060840161153c565b73ffffffffffffffffffffffffffffffffffffffff82166124a9576040517f08c379a000000000000000000000000000000000000000000000000000000000815260206004820152601f60248201527f45524332303a206d696e7420746f20746865207a65726f2061646472657373006044820152606401610809565b6124b560008383611e50565b80609960008282546124c79190612dd2565b909155505073ffffffffffffffffffffffffffffffffffffffff82166000818152609760209081526040808320805486019055518481527fddf252ad1be2c89b69c2b068fc378daa952ba7f163c4a11628f55a4df523b3ef910160405180910390a3610b9060008383611fae565b73ffffffffffffffffffffffffffffffffffffffff82166125d8576040517f08c379a000000000000000000000000000000000000000000000000000000000815260206004820152602160248201527f45524332303a206275726e2066726f6d20746865207a65726f2061646472657360448201527f73000000000000000000000000000000000000000000000000000000000000006064820152608401610809565b6125e482600083611e50565b73ffffffffffffffffffffffffffffffffffffffff82166000908152609760205260409020548181101561269a576040517f08c379a000000000000000000000000000000000000000000000000000000000815260206004820152602260248201527f45524332303a206275726e20616d6f756e7420657863656564732062616c616e60448201527f63650000000000000000000000000000000000000000000000000000000000006064820152608401610809565b73ffffffffffffffffffffffffffffffffffffffff831660008181526097602090815260408083208686039055609980548790039055518581529192917fddf252ad1be2c89b69c2b068fc378daa952ba7f163c4a11628f55a4df523b3ef910160405180910390a36115be83600084611fae565b612717816121d8565b60405173ffffffffffffffffffffffffffffffffffffffff8216907fbc7cd75a20ee27fd9adebab32041f755214dbc6bffa90cc0225b39da2e5c2d3b90600090a250565b606073ffffffffffffffffffffffffffffffffffffffff83163b612801576040517f08c379a000000000000000000000000000000000000000000000000000000000815260206004820152602660248201527f416464726573733a2064656c65676174652063616c6c20746f206e6f6e2d636f60448201527f6e747261637400000000000000000000000000000000000000000000000000006064820152608401610809565b6000808473ffffffffffffffffffffffffffffffffffffffff16846040516128299190613085565b600060405180830381855af49150503d8060008114612864576040519150601f19603f3d011682016040523d82523d6000602084013e612869565b606091505b509150915061289182826040518060600160405280602781526020016130a2602791396129b3565b95945050505050565b60608247101561292c576040517f08c379a000000000000000000000000000000000000000000000000000000000815260206004820152602660248201527f416464726573733a20696e73756666696369656e742062616c616e636520666f60448201527f722063616c6c00000000000000000000000000000000000000000000000000006064820152608401610809565b6000808673ffffffffffffffffffffffffffffffffffffffff1685876040516129559190613085565b60006040518083038185875af1925050503d8060008114612992576040519150601f19603f3d011682016040523d82523d6000602084013e612997565b606091505b50915091506129a8878383876129cc565b979650505050505050565b606083156129c2575081610741565b6107418383612a68565b60608315612a62578251600003612a5b5773ffffffffffffffffffffffffffffffffffffffff85163b612a5b576040517f08c379a000000000000000000000000000000000000000000000000000000000815260206004820152601d60248201527f416464726573733a2063616c6c20746f206e6f6e2d636f6e74726163740000006044820152606401610809565b50816123c6565b6123c683835b815115612a785781518083602001fd5b806040517f08c379a00000000000000000000000000000000000000000000000000000000081526004016108099190612ad0565b60005b83811015612ac7578181015183820152602001612aaf565b50506000910152565b6020815260008251806020840152612aef816040850160208701612aac565b601f017fffffffffffffffffffffffffffffffffffffffffffffffffffffffffffffffe0169190910160400192915050565b73ffffffffffffffffffffffffffffffffffffffff8116811461094f57600080fd5b60008060408385031215612b5657600080fd5b8235612b6181612b21565b946020939093013593505050565b600080600060608486031215612b8457600080fd5b8335612b8f81612b21565b92506020840135612b9f81612b21565b929592945050506040919091013590565b600060208284031215612bc257600080fd5b813561074181612b21565b7f4e487b7100000000000000000000000000000000000000000000000000000000600052604160045260246000fd5b604051601f82017fffffffffffffffffffffffffffffffffffffffffffffffffffffffffffffffe016810167ffffffffffffffff81118282101715612c4357612c43612bcd565b604052919050565b600067ffffffffffffffff821115612c6557612c65612bcd565b50601f017fffffffffffffffffffffffffffffffffffffffffffffffffffffffffffffffe01660200190565b60008060408385031215612ca457600080fd5b8235612caf81612b21565b9150602083013567ffffffffffffffff811115612ccb57600080fd5b8301601f81018513612cdc57600080fd5b8035612cef612cea82612c4b565b612bfc565b818152866020838501011115612d0457600080fd5b816020840160208301376000602083830101528093505050509250929050565b60008060408385031215612d3757600080fd5b8235612d4281612b21565b91506020830135612d5281612b21565b809150509250929050565b600181811c90821680612d7157607f821691505b602082108103612daa577f4e487b7100000000000000000000000000000000000000000000000000000000600052602260045260246000fd5b50919050565b600060208284031215612dc257600080fd5b8151801515811461074157600080fd5b808201808211156105c7577f4e487b7100000000000000000000000000000000000000000000000000000000600052601160045260246000fd5b600060208284031215612e1e57600080fd5b815167ffffffffffffffff811115612e3557600080fd5b8201601f81018413612e4657600080fd5b8051612e54612cea82612c4b565b818152856020838501011115612e6957600080fd5b612891826020830160208601612aac565b7f4d65726b6c20546f6b656e2057726170706572202d2000000000000000000000815260008251612eb2816016850160208701612aac565b9190910160160192915050565b7f6d74770000000000000000000000000000000000000000000000000000000000815260008251612ef7816003850160208701612aac565b9190910160030192915050565b600060208284031215612f1657600080fd5b5051919050565b601f8211156115be57600081815260208120601f850160051c81016020861015612f445750805b601f850160051c820191505b81811015612f6357828155600101612f50565b505050505050565b815167ffffffffffffffff811115612f8557612f85612bcd565b612f9981612f938454612d5d565b84612f1d565b602080601f831160018114612fec5760008415612fb65750858301515b7fffffffffffffffffffffffffffffffffffffffffffffffffffffffffffffffff600386901b1c1916600185901b178555612f63565b6000858152602081207fffffffffffffffffffffffffffffffffffffffffffffffffffffffffffffffe08616915b828110156130395788860151825594840194600190910190840161301a565b508582101561307557878501517fffffffffffffffffffffffffffffffffffffffffffffffffffffffffffffffff600388901b60f8161c191681555b5050505050600190811b01905550565b60008251613097818460208701612aac565b919091019291505056fe416464726573733a206c6f772d6c6576656c2064656c65676174652063616c6c206661696c6564a2646970667358221220de67522a00ac2dcdbafef28399786a094b8d43350b18b2ebd7340dcc6daf3d0964736f6c63430008110033",
  "devdoc": {
    "details": "This token can only be held by merkl distributorTransferring to the distributor will require transferring the underlying token to this contractTransferring from the distributor will trigger vesting actionTransferring token to the distributor is permissionless so anyone could mint this wrapper - the only impact would be to forfeit these tokens",
    "kind": "dev",
    "methods": {
      "allowance(address,address)": {
        "details": "See {IERC20-allowance}."
      },
      "approve(address,uint256)": {
        "details": "See {IERC20-approve}. NOTE: If `amount` is the maximum `uint256`, the allowance is not updated on `transferFrom`. This is semantically equivalent to an infinite approval. Requirements: - `spender` cannot be the zero address."
      },
      "balanceOf(address)": {
        "details": "See {IERC20-balanceOf}."
      },
      "decimals()": {
        "details": "Returns the number of decimals used to get its user representation. For example, if `decimals` equals `2`, a balance of `505` tokens should be displayed to a user as `5.05` (`505 / 10 ** 2`). Tokens usually opt for a value of 18, imitating the relationship between Ether and Wei. This is the value {ERC20} uses, unless this function is overridden; NOTE: This information is only used for _display_ purposes: it in no way affects any of the arithmetic of the contract, including {IERC20-balanceOf} and {IERC20-transfer}."
      },
      "decreaseAllowance(address,uint256)": {
        "details": "Atomically decreases the allowance granted to `spender` by the caller. This is an alternative to {approve} that can be used as a mitigation for problems described in {IERC20-approve}. Emits an {Approval} event indicating the updated allowance. Requirements: - `spender` cannot be the zero address. - `spender` must have allowance for the caller of at least `subtractedValue`."
      },
      "increaseAllowance(address,uint256)": {
        "details": "Atomically increases the allowance granted to `spender` by the caller. This is an alternative to {approve} that can be used as a mitigation for problems described in {IERC20-approve}. Emits an {Approval} event indicating the updated allowance. Requirements: - `spender` cannot be the zero address."
      },
      "name()": {
        "details": "Returns the name of the token."
      },
      "proxiableUUID()": {
        "details": "Implementation of the ERC1822 {proxiableUUID} function. This returns the storage slot used by the implementation. It is used to validate the implementation's compatibility when performing an upgrade. IMPORTANT: A proxy pointing at a proxiable contract should not be considered proxiable itself, because this risks bricking a proxy that upgrades to it, by delegating to itself until out of gas. Thus it is critical that this function revert if invoked through a proxy. This is guaranteed by the `notDelegated` modifier."
      },
      "recoverERC20(address,address,uint256)": {
        "details": "Governance only, to trigger only if something went wrong"
      },
      "symbol()": {
        "details": "Returns the symbol of the token, usually a shorter version of the name."
      },
      "totalSupply()": {
        "details": "See {IERC20-totalSupply}."
      },
      "transfer(address,uint256)": {
        "details": "See {IERC20-transfer}. Requirements: - `to` cannot be the zero address. - the caller must have a balance of at least `amount`."
      },
      "transferFrom(address,address,uint256)": {
        "details": "See {IERC20-transferFrom}. Emits an {Approval} event indicating the updated allowance. This is not required by the EIP. See the note at the beginning of {ERC20}. NOTE: Does not update the allowance if the current allowance is the maximum `uint256`. Requirements: - `from` and `to` cannot be the zero address. - `from` must have a balance of at least `amount`. - the caller must have allowance for ``from``'s tokens of at least `amount`."
      },
      "upgradeTo(address)": {
        "details": "Upgrade the implementation of the proxy to `newImplementation`. Calls {_authorizeUpgrade}. Emits an {Upgraded} event."
      },
      "upgradeToAndCall(address,bytes)": {
        "details": "Upgrade the implementation of the proxy to `newImplementation`, and subsequently execute the function call encoded in `data`. Calls {_authorizeUpgrade}. Emits an {Upgraded} event."
      }
    },
    "title": "Radiant MTW",
    "version": 1
  },
  "userdoc": {
    "kind": "user",
    "methods": {
      "core()": {
        "notice": "`Core` contract handling access control"
      },
      "recoverERC20(address,address,uint256)": {
        "notice": "Recovers any ERC20 token"
      }
    },
    "version": 1
  },
  "storageLayout": {
    "storage": [
      {
        "astId": 395,
        "contract": "contracts/tokenWrappers/RadiantTokenWrapper.sol:RadiantMerklTokenWrapper",
        "label": "_initialized",
        "offset": 0,
        "slot": "0",
        "type": "t_uint8"
      },
      {
        "astId": 398,
        "contract": "contracts/tokenWrappers/RadiantTokenWrapper.sol:RadiantMerklTokenWrapper",
        "label": "_initializing",
        "offset": 1,
        "slot": "0",
        "type": "t_bool"
      },
      {
        "astId": 377,
        "contract": "contracts/tokenWrappers/RadiantTokenWrapper.sol:RadiantMerklTokenWrapper",
        "label": "__gap",
        "offset": 0,
        "slot": "1",
        "type": "t_array(t_uint256)50_storage"
      },
      {
        "astId": 692,
        "contract": "contracts/tokenWrappers/RadiantTokenWrapper.sol:RadiantMerklTokenWrapper",
        "label": "__gap",
        "offset": 0,
        "slot": "51",
        "type": "t_array(t_uint256)50_storage"
      },
      {
        "astId": 1733,
        "contract": "contracts/tokenWrappers/RadiantTokenWrapper.sol:RadiantMerklTokenWrapper",
        "label": "__gap",
        "offset": 0,
        "slot": "101",
        "type": "t_array(t_uint256)50_storage"
      },
      {
        "astId": 712,
        "contract": "contracts/tokenWrappers/RadiantTokenWrapper.sol:RadiantMerklTokenWrapper",
        "label": "_balances",
        "offset": 0,
        "slot": "151",
        "type": "t_mapping(t_address,t_uint256)"
      },
      {
        "astId": 718,
        "contract": "contracts/tokenWrappers/RadiantTokenWrapper.sol:RadiantMerklTokenWrapper",
        "label": "_allowances",
        "offset": 0,
        "slot": "152",
        "type": "t_mapping(t_address,t_mapping(t_address,t_uint256))"
      },
      {
        "astId": 720,
        "contract": "contracts/tokenWrappers/RadiantTokenWrapper.sol:RadiantMerklTokenWrapper",
        "label": "_totalSupply",
        "offset": 0,
        "slot": "153",
        "type": "t_uint256"
      },
      {
        "astId": 722,
        "contract": "contracts/tokenWrappers/RadiantTokenWrapper.sol:RadiantMerklTokenWrapper",
        "label": "_name",
        "offset": 0,
        "slot": "154",
        "type": "t_string_storage"
      },
      {
        "astId": 724,
        "contract": "contracts/tokenWrappers/RadiantTokenWrapper.sol:RadiantMerklTokenWrapper",
        "label": "_symbol",
        "offset": 0,
        "slot": "155",
        "type": "t_string_storage"
      },
      {
        "astId": 1304,
        "contract": "contracts/tokenWrappers/RadiantTokenWrapper.sol:RadiantMerklTokenWrapper",
        "label": "__gap",
        "offset": 0,
        "slot": "156",
        "type": "t_array(t_uint256)45_storage"
      },
      {
        "astId": 2613,
        "contract": "contracts/tokenWrappers/RadiantTokenWrapper.sol:RadiantMerklTokenWrapper",
        "label": "core",
        "offset": 0,
        "slot": "201",
        "type": "t_contract(ICore)2564"
      }
    ],
    "types": {
      "t_address": {
        "encoding": "inplace",
        "label": "address",
        "numberOfBytes": "20"
      },
      "t_array(t_uint256)45_storage": {
        "base": "t_uint256",
        "encoding": "inplace",
        "label": "uint256[45]",
        "numberOfBytes": "1440"
      },
      "t_array(t_uint256)50_storage": {
        "base": "t_uint256",
        "encoding": "inplace",
        "label": "uint256[50]",
        "numberOfBytes": "1600"
      },
      "t_bool": {
        "encoding": "inplace",
        "label": "bool",
        "numberOfBytes": "1"
      },
      "t_contract(ICore)2564": {
        "encoding": "inplace",
        "label": "contract ICore",
        "numberOfBytes": "20"
      },
      "t_mapping(t_address,t_mapping(t_address,t_uint256))": {
        "encoding": "mapping",
        "key": "t_address",
        "label": "mapping(address => mapping(address => uint256))",
        "numberOfBytes": "32",
        "value": "t_mapping(t_address,t_uint256)"
      },
      "t_mapping(t_address,t_uint256)": {
        "encoding": "mapping",
        "key": "t_address",
        "label": "mapping(address => uint256)",
        "numberOfBytes": "32",
        "value": "t_uint256"
      },
      "t_string_storage": {
        "encoding": "bytes",
        "label": "string",
        "numberOfBytes": "32"
      },
      "t_uint256": {
        "encoding": "inplace",
        "label": "uint256",
        "numberOfBytes": "32"
      },
      "t_uint8": {
        "encoding": "inplace",
        "label": "uint8",
        "numberOfBytes": "1"
      }
    }
  }
}