{
  "address": "0x7Db28175B63f154587BbB1Cae62D39Ea80A23383",
  "abi": [
    {
      "inputs": [],
      "stateMutability": "nonpayable",
      "type": "constructor"
    },
    {
      "inputs": [],
      "name": "InvalidLengths",
      "type": "error"
    },
    {
      "inputs": [],
      "name": "InvalidParam",
      "type": "error"
    },
    {
      "inputs": [],
      "name": "InvalidReward",
      "type": "error"
    },
    {
      "inputs": [],
      "name": "InvalidSignature",
      "type": "error"
    },
    {
      "inputs": [],
      "name": "NotGovernorOrGuardian",
      "type": "error"
    },
    {
      "inputs": [],
      "name": "NotSigned",
      "type": "error"
    },
    {
      "inputs": [],
      "name": "ZeroAddress",
      "type": "error"
    },
    {
      "anonymous": false,
      "inputs": [
        {
          "indexed": false,
          "internalType": "address",
          "name": "previousAdmin",
          "type": "address"
        },
        {
          "indexed": false,
          "internalType": "address",
          "name": "newAdmin",
          "type": "address"
        }
      ],
      "name": "AdminChanged",
      "type": "event"
    },
    {
      "anonymous": false,
      "inputs": [
        {
          "indexed": true,
          "internalType": "address",
          "name": "beacon",
          "type": "address"
        }
      ],
      "name": "BeaconUpgraded",
      "type": "event"
    },
    {
      "anonymous": false,
      "inputs": [
        {
          "indexed": true,
          "internalType": "address",
          "name": "_distributor",
          "type": "address"
        }
      ],
      "name": "DistributorUpdated",
      "type": "event"
    },
    {
      "anonymous": false,
      "inputs": [
        {
          "indexed": true,
          "internalType": "address",
          "name": "user",
          "type": "address"
        },
        {
          "indexed": false,
          "internalType": "uint256",
          "name": "userFeeRebate",
          "type": "uint256"
        }
      ],
      "name": "FeeRebateUpdated",
      "type": "event"
    },
    {
      "anonymous": false,
      "inputs": [
        {
          "indexed": true,
          "internalType": "address",
          "name": "_feeRecipient",
          "type": "address"
        }
      ],
      "name": "FeeRecipientUpdated",
      "type": "event"
    },
    {
      "anonymous": false,
      "inputs": [
        {
          "indexed": false,
          "internalType": "uint256",
          "name": "_fees",
          "type": "uint256"
        }
      ],
      "name": "FeesSet",
      "type": "event"
    },
    {
      "anonymous": false,
      "inputs": [
        {
          "indexed": false,
          "internalType": "uint8",
          "name": "version",
          "type": "uint8"
        }
      ],
      "name": "Initialized",
      "type": "event"
    },
    {
      "anonymous": false,
      "inputs": [
        {
          "indexed": false,
          "internalType": "bytes32",
          "name": "_messageHash",
          "type": "bytes32"
        }
      ],
      "name": "MessageUpdated",
      "type": "event"
    },
    {
      "anonymous": false,
      "inputs": [
        {
          "components": [
            {
              "internalType": "bytes32",
              "name": "rewardId",
              "type": "bytes32"
            },
            {
              "internalType": "address",
              "name": "uniV3Pool",
              "type": "address"
            },
            {
              "internalType": "address",
              "name": "rewardToken",
              "type": "address"
            },
            {
              "internalType": "uint256",
              "name": "amount",
              "type": "uint256"
            },
            {
              "internalType": "address[]",
              "name": "positionWrappers",
              "type": "address[]"
            },
            {
              "internalType": "uint32[]",
              "name": "wrapperTypes",
              "type": "uint32[]"
            },
            {
              "internalType": "uint32",
              "name": "propToken0",
              "type": "uint32"
            },
            {
              "internalType": "uint32",
              "name": "propToken1",
              "type": "uint32"
            },
            {
              "internalType": "uint32",
              "name": "propFees",
              "type": "uint32"
            },
            {
              "internalType": "uint32",
              "name": "epochStart",
              "type": "uint32"
            },
            {
              "internalType": "uint32",
              "name": "numEpoch",
              "type": "uint32"
            },
            {
              "internalType": "uint32",
              "name": "isOutOfRangeIncentivized",
              "type": "uint32"
            },
            {
              "internalType": "uint32",
              "name": "boostedReward",
              "type": "uint32"
            },
            {
              "internalType": "address",
              "name": "boostingAddress",
              "type": "address"
            },
            {
              "internalType": "bytes",
              "name": "additionalData",
              "type": "bytes"
            }
          ],
          "indexed": false,
          "internalType": "struct DistributionParameters",
          "name": "distribution",
          "type": "tuple"
        },
        {
          "indexed": true,
          "internalType": "address",
          "name": "sender",
          "type": "address"
        }
      ],
      "name": "NewDistribution",
      "type": "event"
    },
    {
      "anonymous": false,
      "inputs": [
        {
          "indexed": true,
          "internalType": "address",
          "name": "token",
          "type": "address"
        },
        {
          "indexed": false,
          "internalType": "uint256",
          "name": "amount",
          "type": "uint256"
        }
      ],
      "name": "RewardTokenMinimumAmountUpdated",
      "type": "event"
    },
    {
      "anonymous": false,
      "inputs": [
        {
          "indexed": true,
          "internalType": "address",
          "name": "token",
          "type": "address"
        },
        {
          "indexed": false,
          "internalType": "uint256",
          "name": "toggleStatus",
          "type": "uint256"
        }
      ],
      "name": "TokenWhitelistToggled",
      "type": "event"
    },
    {
      "anonymous": false,
      "inputs": [
        {
          "indexed": true,
          "internalType": "address",
          "name": "implementation",
          "type": "address"
        }
      ],
      "name": "Upgraded",
      "type": "event"
    },
    {
      "anonymous": false,
      "inputs": [
        {
          "indexed": false,
          "internalType": "bytes32",
          "name": "messageHash",
          "type": "bytes32"
        },
        {
          "indexed": true,
          "internalType": "address",
          "name": "user",
          "type": "address"
        }
      ],
      "name": "UserSigned",
      "type": "event"
    },
    {
      "anonymous": false,
      "inputs": [
        {
          "indexed": true,
          "internalType": "address",
          "name": "user",
          "type": "address"
        },
        {
          "indexed": false,
          "internalType": "uint256",
          "name": "toggleStatus",
          "type": "uint256"
        }
      ],
      "name": "UserSigningWhitelistToggled",
      "type": "event"
    },
    {
      "inputs": [],
      "name": "BASE_9",
      "outputs": [
        {
          "internalType": "uint256",
          "name": "",
          "type": "uint256"
        }
      ],
      "stateMutability": "view",
      "type": "function"
    },
    {
      "inputs": [],
      "name": "EPOCH_DURATION",
      "outputs": [
        {
          "internalType": "uint32",
          "name": "",
          "type": "uint32"
        }
      ],
      "stateMutability": "view",
      "type": "function"
    },
    {
      "inputs": [],
      "name": "core",
      "outputs": [
        {
          "internalType": "contract ICore",
          "name": "",
          "type": "address"
        }
      ],
      "stateMutability": "view",
      "type": "function"
    },
    {
      "inputs": [
        {
          "components": [
            {
              "internalType": "bytes32",
              "name": "rewardId",
              "type": "bytes32"
            },
            {
              "internalType": "address",
              "name": "uniV3Pool",
              "type": "address"
            },
            {
              "internalType": "address",
              "name": "rewardToken",
              "type": "address"
            },
            {
              "internalType": "uint256",
              "name": "amount",
              "type": "uint256"
            },
            {
              "internalType": "address[]",
              "name": "positionWrappers",
              "type": "address[]"
            },
            {
              "internalType": "uint32[]",
              "name": "wrapperTypes",
              "type": "uint32[]"
            },
            {
              "internalType": "uint32",
              "name": "propToken0",
              "type": "uint32"
            },
            {
              "internalType": "uint32",
              "name": "propToken1",
              "type": "uint32"
            },
            {
              "internalType": "uint32",
              "name": "propFees",
              "type": "uint32"
            },
            {
              "internalType": "uint32",
              "name": "epochStart",
              "type": "uint32"
            },
            {
              "internalType": "uint32",
              "name": "numEpoch",
              "type": "uint32"
            },
            {
              "internalType": "uint32",
              "name": "isOutOfRangeIncentivized",
              "type": "uint32"
            },
            {
              "internalType": "uint32",
              "name": "boostedReward",
              "type": "uint32"
            },
            {
              "internalType": "address",
              "name": "boostingAddress",
              "type": "address"
            },
            {
              "internalType": "bytes",
              "name": "additionalData",
              "type": "bytes"
            }
          ],
          "internalType": "struct DistributionParameters",
          "name": "distribution",
          "type": "tuple"
        }
      ],
      "name": "createDistribution",
      "outputs": [
        {
          "internalType": "uint256",
          "name": "distributionAmount",
          "type": "uint256"
        }
      ],
      "stateMutability": "nonpayable",
      "type": "function"
    },
    {
      "inputs": [
        {
          "components": [
            {
              "internalType": "bytes32",
              "name": "rewardId",
              "type": "bytes32"
            },
            {
              "internalType": "address",
              "name": "uniV3Pool",
              "type": "address"
            },
            {
              "internalType": "address",
              "name": "rewardToken",
              "type": "address"
            },
            {
              "internalType": "uint256",
              "name": "amount",
              "type": "uint256"
            },
            {
              "internalType": "address[]",
              "name": "positionWrappers",
              "type": "address[]"
            },
            {
              "internalType": "uint32[]",
              "name": "wrapperTypes",
              "type": "uint32[]"
            },
            {
              "internalType": "uint32",
              "name": "propToken0",
              "type": "uint32"
            },
            {
              "internalType": "uint32",
              "name": "propToken1",
              "type": "uint32"
            },
            {
              "internalType": "uint32",
              "name": "propFees",
              "type": "uint32"
            },
            {
              "internalType": "uint32",
              "name": "epochStart",
              "type": "uint32"
            },
            {
              "internalType": "uint32",
              "name": "numEpoch",
              "type": "uint32"
            },
            {
              "internalType": "uint32",
              "name": "isOutOfRangeIncentivized",
              "type": "uint32"
            },
            {
              "internalType": "uint32",
              "name": "boostedReward",
              "type": "uint32"
            },
            {
              "internalType": "address",
              "name": "boostingAddress",
              "type": "address"
            },
            {
              "internalType": "bytes",
              "name": "additionalData",
              "type": "bytes"
            }
          ],
          "internalType": "struct DistributionParameters[]",
          "name": "distributions",
          "type": "tuple[]"
        }
      ],
      "name": "createDistributions",
      "outputs": [
        {
          "internalType": "uint256[]",
          "name": "",
          "type": "uint256[]"
        }
      ],
      "stateMutability": "nonpayable",
      "type": "function"
    },
    {
      "inputs": [
        {
          "internalType": "uint256",
          "name": "",
          "type": "uint256"
        }
      ],
      "name": "distributionList",
      "outputs": [
        {
          "internalType": "bytes32",
          "name": "rewardId",
          "type": "bytes32"
        },
        {
          "internalType": "address",
          "name": "uniV3Pool",
          "type": "address"
        },
        {
          "internalType": "address",
          "name": "rewardToken",
          "type": "address"
        },
        {
          "internalType": "uint256",
          "name": "amount",
          "type": "uint256"
        },
        {
          "internalType": "uint32",
          "name": "propToken0",
          "type": "uint32"
        },
        {
          "internalType": "uint32",
          "name": "propToken1",
          "type": "uint32"
        },
        {
          "internalType": "uint32",
          "name": "propFees",
          "type": "uint32"
        },
        {
          "internalType": "uint32",
          "name": "epochStart",
          "type": "uint32"
        },
        {
          "internalType": "uint32",
          "name": "numEpoch",
          "type": "uint32"
        },
        {
          "internalType": "uint32",
          "name": "isOutOfRangeIncentivized",
          "type": "uint32"
        },
        {
          "internalType": "uint32",
          "name": "boostedReward",
          "type": "uint32"
        },
        {
          "internalType": "address",
          "name": "boostingAddress",
          "type": "address"
        },
        {
          "internalType": "bytes",
          "name": "additionalData",
          "type": "bytes"
        }
      ],
      "stateMutability": "view",
      "type": "function"
    },
    {
      "inputs": [],
      "name": "distributor",
      "outputs": [
        {
          "internalType": "address",
          "name": "",
          "type": "address"
        }
      ],
      "stateMutability": "view",
      "type": "function"
    },
    {
      "inputs": [
        {
          "internalType": "address",
          "name": "",
          "type": "address"
        }
      ],
      "name": "feeRebate",
      "outputs": [
        {
          "internalType": "uint256",
          "name": "",
          "type": "uint256"
        }
      ],
      "stateMutability": "view",
      "type": "function"
    },
    {
      "inputs": [],
      "name": "feeRecipient",
      "outputs": [
        {
          "internalType": "address",
          "name": "",
          "type": "address"
        }
      ],
      "stateMutability": "view",
      "type": "function"
    },
    {
      "inputs": [],
      "name": "fees",
      "outputs": [
        {
          "internalType": "uint256",
          "name": "",
          "type": "uint256"
        }
      ],
      "stateMutability": "view",
      "type": "function"
    },
    {
      "inputs": [],
      "name": "getActiveDistributions",
      "outputs": [
        {
          "components": [
            {
              "components": [
                {
                  "internalType": "bytes32",
                  "name": "rewardId",
                  "type": "bytes32"
                },
                {
                  "internalType": "address",
                  "name": "uniV3Pool",
                  "type": "address"
                },
                {
                  "internalType": "address",
                  "name": "rewardToken",
                  "type": "address"
                },
                {
                  "internalType": "uint256",
                  "name": "amount",
                  "type": "uint256"
                },
                {
                  "internalType": "address[]",
                  "name": "positionWrappers",
                  "type": "address[]"
                },
                {
                  "internalType": "uint32[]",
                  "name": "wrapperTypes",
                  "type": "uint32[]"
                },
                {
                  "internalType": "uint32",
                  "name": "propToken0",
                  "type": "uint32"
                },
                {
                  "internalType": "uint32",
                  "name": "propToken1",
                  "type": "uint32"
                },
                {
                  "internalType": "uint32",
                  "name": "propFees",
                  "type": "uint32"
                },
                {
                  "internalType": "uint32",
                  "name": "epochStart",
                  "type": "uint32"
                },
                {
                  "internalType": "uint32",
                  "name": "numEpoch",
                  "type": "uint32"
                },
                {
                  "internalType": "uint32",
                  "name": "isOutOfRangeIncentivized",
                  "type": "uint32"
                },
                {
                  "internalType": "uint32",
                  "name": "boostedReward",
                  "type": "uint32"
                },
                {
                  "internalType": "address",
                  "name": "boostingAddress",
                  "type": "address"
                },
                {
                  "internalType": "bytes",
                  "name": "additionalData",
                  "type": "bytes"
                }
              ],
              "internalType": "struct DistributionParameters",
              "name": "base",
              "type": "tuple"
            },
            {
              "internalType": "uint24",
              "name": "poolFee",
              "type": "uint24"
            },
            {
              "components": [
                {
                  "internalType": "address",
                  "name": "add",
                  "type": "address"
                },
                {
                  "internalType": "uint8",
                  "name": "decimals",
                  "type": "uint8"
                },
                {
                  "internalType": "string",
                  "name": "symbol",
                  "type": "string"
                },
                {
                  "internalType": "uint256",
                  "name": "poolBalance",
                  "type": "uint256"
                }
              ],
              "internalType": "struct UniswapTokenData",
              "name": "token0",
              "type": "tuple"
            },
            {
              "components": [
                {
                  "internalType": "address",
                  "name": "add",
                  "type": "address"
                },
                {
                  "internalType": "uint8",
                  "name": "decimals",
                  "type": "uint8"
                },
                {
                  "internalType": "string",
                  "name": "symbol",
                  "type": "string"
                },
                {
                  "internalType": "uint256",
                  "name": "poolBalance",
                  "type": "uint256"
                }
              ],
              "internalType": "struct UniswapTokenData",
              "name": "token1",
              "type": "tuple"
            },
            {
              "internalType": "string",
              "name": "rewardTokenSymbol",
              "type": "string"
            },
            {
              "internalType": "uint8",
              "name": "rewardTokenDecimals",
              "type": "uint8"
            }
          ],
          "internalType": "struct ExtensiveDistributionParameters[]",
          "name": "",
          "type": "tuple[]"
        }
      ],
      "stateMutability": "view",
      "type": "function"
    },
    {
      "inputs": [
        {
          "internalType": "address",
          "name": "uniV3Pool",
          "type": "address"
        }
      ],
      "name": "getActivePoolDistributions",
      "outputs": [
        {
          "components": [
            {
              "components": [
                {
                  "internalType": "bytes32",
                  "name": "rewardId",
                  "type": "bytes32"
                },
                {
                  "internalType": "address",
                  "name": "uniV3Pool",
                  "type": "address"
                },
                {
                  "internalType": "address",
                  "name": "rewardToken",
                  "type": "address"
                },
                {
                  "internalType": "uint256",
                  "name": "amount",
                  "type": "uint256"
                },
                {
                  "internalType": "address[]",
                  "name": "positionWrappers",
                  "type": "address[]"
                },
                {
                  "internalType": "uint32[]",
                  "name": "wrapperTypes",
                  "type": "uint32[]"
                },
                {
                  "internalType": "uint32",
                  "name": "propToken0",
                  "type": "uint32"
                },
                {
                  "internalType": "uint32",
                  "name": "propToken1",
                  "type": "uint32"
                },
                {
                  "internalType": "uint32",
                  "name": "propFees",
                  "type": "uint32"
                },
                {
                  "internalType": "uint32",
                  "name": "epochStart",
                  "type": "uint32"
                },
                {
                  "internalType": "uint32",
                  "name": "numEpoch",
                  "type": "uint32"
                },
                {
                  "internalType": "uint32",
                  "name": "isOutOfRangeIncentivized",
                  "type": "uint32"
                },
                {
                  "internalType": "uint32",
                  "name": "boostedReward",
                  "type": "uint32"
                },
                {
                  "internalType": "address",
                  "name": "boostingAddress",
                  "type": "address"
                },
                {
                  "internalType": "bytes",
                  "name": "additionalData",
                  "type": "bytes"
                }
              ],
              "internalType": "struct DistributionParameters",
              "name": "base",
              "type": "tuple"
            },
            {
              "internalType": "uint24",
              "name": "poolFee",
              "type": "uint24"
            },
            {
              "components": [
                {
                  "internalType": "address",
                  "name": "add",
                  "type": "address"
                },
                {
                  "internalType": "uint8",
                  "name": "decimals",
                  "type": "uint8"
                },
                {
                  "internalType": "string",
                  "name": "symbol",
                  "type": "string"
                },
                {
                  "internalType": "uint256",
                  "name": "poolBalance",
                  "type": "uint256"
                }
              ],
              "internalType": "struct UniswapTokenData",
              "name": "token0",
              "type": "tuple"
            },
            {
              "components": [
                {
                  "internalType": "address",
                  "name": "add",
                  "type": "address"
                },
                {
                  "internalType": "uint8",
                  "name": "decimals",
                  "type": "uint8"
                },
                {
                  "internalType": "string",
                  "name": "symbol",
                  "type": "string"
                },
                {
                  "internalType": "uint256",
                  "name": "poolBalance",
                  "type": "uint256"
                }
              ],
              "internalType": "struct UniswapTokenData",
              "name": "token1",
              "type": "tuple"
            },
            {
              "internalType": "string",
              "name": "rewardTokenSymbol",
              "type": "string"
            },
            {
              "internalType": "uint8",
              "name": "rewardTokenDecimals",
              "type": "uint8"
            }
          ],
          "internalType": "struct ExtensiveDistributionParameters[]",
          "name": "",
          "type": "tuple[]"
        }
      ],
      "stateMutability": "view",
      "type": "function"
    },
    {
      "inputs": [],
      "name": "getAllDistributions",
      "outputs": [
        {
          "components": [
            {
              "internalType": "bytes32",
              "name": "rewardId",
              "type": "bytes32"
            },
            {
              "internalType": "address",
              "name": "uniV3Pool",
              "type": "address"
            },
            {
              "internalType": "address",
              "name": "rewardToken",
              "type": "address"
            },
            {
              "internalType": "uint256",
              "name": "amount",
              "type": "uint256"
            },
            {
              "internalType": "address[]",
              "name": "positionWrappers",
              "type": "address[]"
            },
            {
              "internalType": "uint32[]",
              "name": "wrapperTypes",
              "type": "uint32[]"
            },
            {
              "internalType": "uint32",
              "name": "propToken0",
              "type": "uint32"
            },
            {
              "internalType": "uint32",
              "name": "propToken1",
              "type": "uint32"
            },
            {
              "internalType": "uint32",
              "name": "propFees",
              "type": "uint32"
            },
            {
              "internalType": "uint32",
              "name": "epochStart",
              "type": "uint32"
            },
            {
              "internalType": "uint32",
              "name": "numEpoch",
              "type": "uint32"
            },
            {
              "internalType": "uint32",
              "name": "isOutOfRangeIncentivized",
              "type": "uint32"
            },
            {
              "internalType": "uint32",
              "name": "boostedReward",
              "type": "uint32"
            },
            {
              "internalType": "address",
              "name": "boostingAddress",
              "type": "address"
            },
            {
              "internalType": "bytes",
              "name": "additionalData",
              "type": "bytes"
            }
          ],
          "internalType": "struct DistributionParameters[]",
          "name": "",
          "type": "tuple[]"
        }
      ],
      "stateMutability": "view",
      "type": "function"
    },
    {
      "inputs": [
        {
          "internalType": "uint32",
          "name": "epochStart",
          "type": "uint32"
        }
      ],
      "name": "getDistributionsAfterEpoch",
      "outputs": [
        {
          "components": [
            {
              "components": [
                {
                  "internalType": "bytes32",
                  "name": "rewardId",
                  "type": "bytes32"
                },
                {
                  "internalType": "address",
                  "name": "uniV3Pool",
                  "type": "address"
                },
                {
                  "internalType": "address",
                  "name": "rewardToken",
                  "type": "address"
                },
                {
                  "internalType": "uint256",
                  "name": "amount",
                  "type": "uint256"
                },
                {
                  "internalType": "address[]",
                  "name": "positionWrappers",
                  "type": "address[]"
                },
                {
                  "internalType": "uint32[]",
                  "name": "wrapperTypes",
                  "type": "uint32[]"
                },
                {
                  "internalType": "uint32",
                  "name": "propToken0",
                  "type": "uint32"
                },
                {
                  "internalType": "uint32",
                  "name": "propToken1",
                  "type": "uint32"
                },
                {
                  "internalType": "uint32",
                  "name": "propFees",
                  "type": "uint32"
                },
                {
                  "internalType": "uint32",
                  "name": "epochStart",
                  "type": "uint32"
                },
                {
                  "internalType": "uint32",
                  "name": "numEpoch",
                  "type": "uint32"
                },
                {
                  "internalType": "uint32",
                  "name": "isOutOfRangeIncentivized",
                  "type": "uint32"
                },
                {
                  "internalType": "uint32",
                  "name": "boostedReward",
                  "type": "uint32"
                },
                {
                  "internalType": "address",
                  "name": "boostingAddress",
                  "type": "address"
                },
                {
                  "internalType": "bytes",
                  "name": "additionalData",
                  "type": "bytes"
                }
              ],
              "internalType": "struct DistributionParameters",
              "name": "base",
              "type": "tuple"
            },
            {
              "internalType": "uint24",
              "name": "poolFee",
              "type": "uint24"
            },
            {
              "components": [
                {
                  "internalType": "address",
                  "name": "add",
                  "type": "address"
                },
                {
                  "internalType": "uint8",
                  "name": "decimals",
                  "type": "uint8"
                },
                {
                  "internalType": "string",
                  "name": "symbol",
                  "type": "string"
                },
                {
                  "internalType": "uint256",
                  "name": "poolBalance",
                  "type": "uint256"
                }
              ],
              "internalType": "struct UniswapTokenData",
              "name": "token0",
              "type": "tuple"
            },
            {
              "components": [
                {
                  "internalType": "address",
                  "name": "add",
                  "type": "address"
                },
                {
                  "internalType": "uint8",
                  "name": "decimals",
                  "type": "uint8"
                },
                {
                  "internalType": "string",
                  "name": "symbol",
                  "type": "string"
                },
                {
                  "internalType": "uint256",
                  "name": "poolBalance",
                  "type": "uint256"
                }
              ],
              "internalType": "struct UniswapTokenData",
              "name": "token1",
              "type": "tuple"
            },
            {
              "internalType": "string",
              "name": "rewardTokenSymbol",
              "type": "string"
            },
            {
              "internalType": "uint8",
              "name": "rewardTokenDecimals",
              "type": "uint8"
            }
          ],
          "internalType": "struct ExtensiveDistributionParameters[]",
          "name": "",
          "type": "tuple[]"
        }
      ],
      "stateMutability": "view",
      "type": "function"
    },
    {
      "inputs": [
        {
          "internalType": "uint32",
          "name": "epochStart",
          "type": "uint32"
        },
        {
          "internalType": "uint32",
          "name": "epochEnd",
          "type": "uint32"
        }
      ],
      "name": "getDistributionsBetweenEpochs",
      "outputs": [
        {
          "components": [
            {
              "components": [
                {
                  "internalType": "bytes32",
                  "name": "rewardId",
                  "type": "bytes32"
                },
                {
                  "internalType": "address",
                  "name": "uniV3Pool",
                  "type": "address"
                },
                {
                  "internalType": "address",
                  "name": "rewardToken",
                  "type": "address"
                },
                {
                  "internalType": "uint256",
                  "name": "amount",
                  "type": "uint256"
                },
                {
                  "internalType": "address[]",
                  "name": "positionWrappers",
                  "type": "address[]"
                },
                {
                  "internalType": "uint32[]",
                  "name": "wrapperTypes",
                  "type": "uint32[]"
                },
                {
                  "internalType": "uint32",
                  "name": "propToken0",
                  "type": "uint32"
                },
                {
                  "internalType": "uint32",
                  "name": "propToken1",
                  "type": "uint32"
                },
                {
                  "internalType": "uint32",
                  "name": "propFees",
                  "type": "uint32"
                },
                {
                  "internalType": "uint32",
                  "name": "epochStart",
                  "type": "uint32"
                },
                {
                  "internalType": "uint32",
                  "name": "numEpoch",
                  "type": "uint32"
                },
                {
                  "internalType": "uint32",
                  "name": "isOutOfRangeIncentivized",
                  "type": "uint32"
                },
                {
                  "internalType": "uint32",
                  "name": "boostedReward",
                  "type": "uint32"
                },
                {
                  "internalType": "address",
                  "name": "boostingAddress",
                  "type": "address"
                },
                {
                  "internalType": "bytes",
                  "name": "additionalData",
                  "type": "bytes"
                }
              ],
              "internalType": "struct DistributionParameters",
              "name": "base",
              "type": "tuple"
            },
            {
              "internalType": "uint24",
              "name": "poolFee",
              "type": "uint24"
            },
            {
              "components": [
                {
                  "internalType": "address",
                  "name": "add",
                  "type": "address"
                },
                {
                  "internalType": "uint8",
                  "name": "decimals",
                  "type": "uint8"
                },
                {
                  "internalType": "string",
                  "name": "symbol",
                  "type": "string"
                },
                {
                  "internalType": "uint256",
                  "name": "poolBalance",
                  "type": "uint256"
                }
              ],
              "internalType": "struct UniswapTokenData",
              "name": "token0",
              "type": "tuple"
            },
            {
              "components": [
                {
                  "internalType": "address",
                  "name": "add",
                  "type": "address"
                },
                {
                  "internalType": "uint8",
                  "name": "decimals",
                  "type": "uint8"
                },
                {
                  "internalType": "string",
                  "name": "symbol",
                  "type": "string"
                },
                {
                  "internalType": "uint256",
                  "name": "poolBalance",
                  "type": "uint256"
                }
              ],
              "internalType": "struct UniswapTokenData",
              "name": "token1",
              "type": "tuple"
            },
            {
              "internalType": "string",
              "name": "rewardTokenSymbol",
              "type": "string"
            },
            {
              "internalType": "uint8",
              "name": "rewardTokenDecimals",
              "type": "uint8"
            }
          ],
          "internalType": "struct ExtensiveDistributionParameters[]",
          "name": "",
          "type": "tuple[]"
        }
      ],
      "stateMutability": "view",
      "type": "function"
    },
    {
      "inputs": [
        {
          "internalType": "uint32",
          "name": "epoch",
          "type": "uint32"
        }
      ],
      "name": "getDistributionsForEpoch",
      "outputs": [
        {
          "components": [
            {
              "components": [
                {
                  "internalType": "bytes32",
                  "name": "rewardId",
                  "type": "bytes32"
                },
                {
                  "internalType": "address",
                  "name": "uniV3Pool",
                  "type": "address"
                },
                {
                  "internalType": "address",
                  "name": "rewardToken",
                  "type": "address"
                },
                {
                  "internalType": "uint256",
                  "name": "amount",
                  "type": "uint256"
                },
                {
                  "internalType": "address[]",
                  "name": "positionWrappers",
                  "type": "address[]"
                },
                {
                  "internalType": "uint32[]",
                  "name": "wrapperTypes",
                  "type": "uint32[]"
                },
                {
                  "internalType": "uint32",
                  "name": "propToken0",
                  "type": "uint32"
                },
                {
                  "internalType": "uint32",
                  "name": "propToken1",
                  "type": "uint32"
                },
                {
                  "internalType": "uint32",
                  "name": "propFees",
                  "type": "uint32"
                },
                {
                  "internalType": "uint32",
                  "name": "epochStart",
                  "type": "uint32"
                },
                {
                  "internalType": "uint32",
                  "name": "numEpoch",
                  "type": "uint32"
                },
                {
                  "internalType": "uint32",
                  "name": "isOutOfRangeIncentivized",
                  "type": "uint32"
                },
                {
                  "internalType": "uint32",
                  "name": "boostedReward",
                  "type": "uint32"
                },
                {
                  "internalType": "address",
                  "name": "boostingAddress",
                  "type": "address"
                },
                {
                  "internalType": "bytes",
                  "name": "additionalData",
                  "type": "bytes"
                }
              ],
              "internalType": "struct DistributionParameters",
              "name": "base",
              "type": "tuple"
            },
            {
              "internalType": "uint24",
              "name": "poolFee",
              "type": "uint24"
            },
            {
              "components": [
                {
                  "internalType": "address",
                  "name": "add",
                  "type": "address"
                },
                {
                  "internalType": "uint8",
                  "name": "decimals",
                  "type": "uint8"
                },
                {
                  "internalType": "string",
                  "name": "symbol",
                  "type": "string"
                },
                {
                  "internalType": "uint256",
                  "name": "poolBalance",
                  "type": "uint256"
                }
              ],
              "internalType": "struct UniswapTokenData",
              "name": "token0",
              "type": "tuple"
            },
            {
              "components": [
                {
                  "internalType": "address",
                  "name": "add",
                  "type": "address"
                },
                {
                  "internalType": "uint8",
                  "name": "decimals",
                  "type": "uint8"
                },
                {
                  "internalType": "string",
                  "name": "symbol",
                  "type": "string"
                },
                {
                  "internalType": "uint256",
                  "name": "poolBalance",
                  "type": "uint256"
                }
              ],
              "internalType": "struct UniswapTokenData",
              "name": "token1",
              "type": "tuple"
            },
            {
              "internalType": "string",
              "name": "rewardTokenSymbol",
              "type": "string"
            },
            {
              "internalType": "uint8",
              "name": "rewardTokenDecimals",
              "type": "uint8"
            }
          ],
          "internalType": "struct ExtensiveDistributionParameters[]",
          "name": "",
          "type": "tuple[]"
        }
      ],
      "stateMutability": "view",
      "type": "function"
    },
    {
      "inputs": [
        {
          "components": [
            {
              "internalType": "bytes32",
              "name": "rewardId",
              "type": "bytes32"
            },
            {
              "internalType": "address",
              "name": "uniV3Pool",
              "type": "address"
            },
            {
              "internalType": "address",
              "name": "rewardToken",
              "type": "address"
            },
            {
              "internalType": "uint256",
              "name": "amount",
              "type": "uint256"
            },
            {
              "internalType": "address[]",
              "name": "positionWrappers",
              "type": "address[]"
            },
            {
              "internalType": "uint32[]",
              "name": "wrapperTypes",
              "type": "uint32[]"
            },
            {
              "internalType": "uint32",
              "name": "propToken0",
              "type": "uint32"
            },
            {
              "internalType": "uint32",
              "name": "propToken1",
              "type": "uint32"
            },
            {
              "internalType": "uint32",
              "name": "propFees",
              "type": "uint32"
            },
            {
              "internalType": "uint32",
              "name": "epochStart",
              "type": "uint32"
            },
            {
              "internalType": "uint32",
              "name": "numEpoch",
              "type": "uint32"
            },
            {
              "internalType": "uint32",
              "name": "isOutOfRangeIncentivized",
              "type": "uint32"
            },
            {
              "internalType": "uint32",
              "name": "boostedReward",
              "type": "uint32"
            },
            {
              "internalType": "address",
              "name": "boostingAddress",
              "type": "address"
            },
            {
              "internalType": "bytes",
              "name": "additionalData",
              "type": "bytes"
            }
          ],
          "internalType": "struct DistributionParameters",
          "name": "distribution",
          "type": "tuple"
        }
      ],
      "name": "getExtensiveDistributionParameters",
      "outputs": [
        {
          "components": [
            {
              "components": [
                {
                  "internalType": "bytes32",
                  "name": "rewardId",
                  "type": "bytes32"
                },
                {
                  "internalType": "address",
                  "name": "uniV3Pool",
                  "type": "address"
                },
                {
                  "internalType": "address",
                  "name": "rewardToken",
                  "type": "address"
                },
                {
                  "internalType": "uint256",
                  "name": "amount",
                  "type": "uint256"
                },
                {
                  "internalType": "address[]",
                  "name": "positionWrappers",
                  "type": "address[]"
                },
                {
                  "internalType": "uint32[]",
                  "name": "wrapperTypes",
                  "type": "uint32[]"
                },
                {
                  "internalType": "uint32",
                  "name": "propToken0",
                  "type": "uint32"
                },
                {
                  "internalType": "uint32",
                  "name": "propToken1",
                  "type": "uint32"
                },
                {
                  "internalType": "uint32",
                  "name": "propFees",
                  "type": "uint32"
                },
                {
                  "internalType": "uint32",
                  "name": "epochStart",
                  "type": "uint32"
                },
                {
                  "internalType": "uint32",
                  "name": "numEpoch",
                  "type": "uint32"
                },
                {
                  "internalType": "uint32",
                  "name": "isOutOfRangeIncentivized",
                  "type": "uint32"
                },
                {
                  "internalType": "uint32",
                  "name": "boostedReward",
                  "type": "uint32"
                },
                {
                  "internalType": "address",
                  "name": "boostingAddress",
                  "type": "address"
                },
                {
                  "internalType": "bytes",
                  "name": "additionalData",
                  "type": "bytes"
                }
              ],
              "internalType": "struct DistributionParameters",
              "name": "base",
              "type": "tuple"
            },
            {
              "internalType": "uint24",
              "name": "poolFee",
              "type": "uint24"
            },
            {
              "components": [
                {
                  "internalType": "address",
                  "name": "add",
                  "type": "address"
                },
                {
                  "internalType": "uint8",
                  "name": "decimals",
                  "type": "uint8"
                },
                {
                  "internalType": "string",
                  "name": "symbol",
                  "type": "string"
                },
                {
                  "internalType": "uint256",
                  "name": "poolBalance",
                  "type": "uint256"
                }
              ],
              "internalType": "struct UniswapTokenData",
              "name": "token0",
              "type": "tuple"
            },
            {
              "components": [
                {
                  "internalType": "address",
                  "name": "add",
                  "type": "address"
                },
                {
                  "internalType": "uint8",
                  "name": "decimals",
                  "type": "uint8"
                },
                {
                  "internalType": "string",
                  "name": "symbol",
                  "type": "string"
                },
                {
                  "internalType": "uint256",
                  "name": "poolBalance",
                  "type": "uint256"
                }
              ],
              "internalType": "struct UniswapTokenData",
              "name": "token1",
              "type": "tuple"
            },
            {
              "internalType": "string",
              "name": "rewardTokenSymbol",
              "type": "string"
            },
            {
              "internalType": "uint8",
              "name": "rewardTokenDecimals",
              "type": "uint8"
            }
          ],
          "internalType": "struct ExtensiveDistributionParameters",
          "name": "extensiveParams",
          "type": "tuple"
        }
      ],
      "stateMutability": "view",
      "type": "function"
    },
    {
      "inputs": [
        {
          "internalType": "address",
          "name": "uniV3Pool",
          "type": "address"
        },
        {
          "internalType": "uint32",
          "name": "epochStart",
          "type": "uint32"
        }
      ],
      "name": "getPoolDistributionsAfterEpoch",
      "outputs": [
        {
          "components": [
            {
              "components": [
                {
                  "internalType": "bytes32",
                  "name": "rewardId",
                  "type": "bytes32"
                },
                {
                  "internalType": "address",
                  "name": "uniV3Pool",
                  "type": "address"
                },
                {
                  "internalType": "address",
                  "name": "rewardToken",
                  "type": "address"
                },
                {
                  "internalType": "uint256",
                  "name": "amount",
                  "type": "uint256"
                },
                {
                  "internalType": "address[]",
                  "name": "positionWrappers",
                  "type": "address[]"
                },
                {
                  "internalType": "uint32[]",
                  "name": "wrapperTypes",
                  "type": "uint32[]"
                },
                {
                  "internalType": "uint32",
                  "name": "propToken0",
                  "type": "uint32"
                },
                {
                  "internalType": "uint32",
                  "name": "propToken1",
                  "type": "uint32"
                },
                {
                  "internalType": "uint32",
                  "name": "propFees",
                  "type": "uint32"
                },
                {
                  "internalType": "uint32",
                  "name": "epochStart",
                  "type": "uint32"
                },
                {
                  "internalType": "uint32",
                  "name": "numEpoch",
                  "type": "uint32"
                },
                {
                  "internalType": "uint32",
                  "name": "isOutOfRangeIncentivized",
                  "type": "uint32"
                },
                {
                  "internalType": "uint32",
                  "name": "boostedReward",
                  "type": "uint32"
                },
                {
                  "internalType": "address",
                  "name": "boostingAddress",
                  "type": "address"
                },
                {
                  "internalType": "bytes",
                  "name": "additionalData",
                  "type": "bytes"
                }
              ],
              "internalType": "struct DistributionParameters",
              "name": "base",
              "type": "tuple"
            },
            {
              "internalType": "uint24",
              "name": "poolFee",
              "type": "uint24"
            },
            {
              "components": [
                {
                  "internalType": "address",
                  "name": "add",
                  "type": "address"
                },
                {
                  "internalType": "uint8",
                  "name": "decimals",
                  "type": "uint8"
                },
                {
                  "internalType": "string",
                  "name": "symbol",
                  "type": "string"
                },
                {
                  "internalType": "uint256",
                  "name": "poolBalance",
                  "type": "uint256"
                }
              ],
              "internalType": "struct UniswapTokenData",
              "name": "token0",
              "type": "tuple"
            },
            {
              "components": [
                {
                  "internalType": "address",
                  "name": "add",
                  "type": "address"
                },
                {
                  "internalType": "uint8",
                  "name": "decimals",
                  "type": "uint8"
                },
                {
                  "internalType": "string",
                  "name": "symbol",
                  "type": "string"
                },
                {
                  "internalType": "uint256",
                  "name": "poolBalance",
                  "type": "uint256"
                }
              ],
              "internalType": "struct UniswapTokenData",
              "name": "token1",
              "type": "tuple"
            },
            {
              "internalType": "string",
              "name": "rewardTokenSymbol",
              "type": "string"
            },
            {
              "internalType": "uint8",
              "name": "rewardTokenDecimals",
              "type": "uint8"
            }
          ],
          "internalType": "struct ExtensiveDistributionParameters[]",
          "name": "",
          "type": "tuple[]"
        }
      ],
      "stateMutability": "view",
      "type": "function"
    },
    {
      "inputs": [
        {
          "internalType": "address",
          "name": "uniV3Pool",
          "type": "address"
        },
        {
          "internalType": "uint32",
          "name": "epochStart",
          "type": "uint32"
        },
        {
          "internalType": "uint32",
          "name": "epochEnd",
          "type": "uint32"
        }
      ],
      "name": "getPoolDistributionsBetweenEpochs",
      "outputs": [
        {
          "components": [
            {
              "components": [
                {
                  "internalType": "bytes32",
                  "name": "rewardId",
                  "type": "bytes32"
                },
                {
                  "internalType": "address",
                  "name": "uniV3Pool",
                  "type": "address"
                },
                {
                  "internalType": "address",
                  "name": "rewardToken",
                  "type": "address"
                },
                {
                  "internalType": "uint256",
                  "name": "amount",
                  "type": "uint256"
                },
                {
                  "internalType": "address[]",
                  "name": "positionWrappers",
                  "type": "address[]"
                },
                {
                  "internalType": "uint32[]",
                  "name": "wrapperTypes",
                  "type": "uint32[]"
                },
                {
                  "internalType": "uint32",
                  "name": "propToken0",
                  "type": "uint32"
                },
                {
                  "internalType": "uint32",
                  "name": "propToken1",
                  "type": "uint32"
                },
                {
                  "internalType": "uint32",
                  "name": "propFees",
                  "type": "uint32"
                },
                {
                  "internalType": "uint32",
                  "name": "epochStart",
                  "type": "uint32"
                },
                {
                  "internalType": "uint32",
                  "name": "numEpoch",
                  "type": "uint32"
                },
                {
                  "internalType": "uint32",
                  "name": "isOutOfRangeIncentivized",
                  "type": "uint32"
                },
                {
                  "internalType": "uint32",
                  "name": "boostedReward",
                  "type": "uint32"
                },
                {
                  "internalType": "address",
                  "name": "boostingAddress",
                  "type": "address"
                },
                {
                  "internalType": "bytes",
                  "name": "additionalData",
                  "type": "bytes"
                }
              ],
              "internalType": "struct DistributionParameters",
              "name": "base",
              "type": "tuple"
            },
            {
              "internalType": "uint24",
              "name": "poolFee",
              "type": "uint24"
            },
            {
              "components": [
                {
                  "internalType": "address",
                  "name": "add",
                  "type": "address"
                },
                {
                  "internalType": "uint8",
                  "name": "decimals",
                  "type": "uint8"
                },
                {
                  "internalType": "string",
                  "name": "symbol",
                  "type": "string"
                },
                {
                  "internalType": "uint256",
                  "name": "poolBalance",
                  "type": "uint256"
                }
              ],
              "internalType": "struct UniswapTokenData",
              "name": "token0",
              "type": "tuple"
            },
            {
              "components": [
                {
                  "internalType": "address",
                  "name": "add",
                  "type": "address"
                },
                {
                  "internalType": "uint8",
                  "name": "decimals",
                  "type": "uint8"
                },
                {
                  "internalType": "string",
                  "name": "symbol",
                  "type": "string"
                },
                {
                  "internalType": "uint256",
                  "name": "poolBalance",
                  "type": "uint256"
                }
              ],
              "internalType": "struct UniswapTokenData",
              "name": "token1",
              "type": "tuple"
            },
            {
              "internalType": "string",
              "name": "rewardTokenSymbol",
              "type": "string"
            },
            {
              "internalType": "uint8",
              "name": "rewardTokenDecimals",
              "type": "uint8"
            }
          ],
          "internalType": "struct ExtensiveDistributionParameters[]",
          "name": "",
          "type": "tuple[]"
        }
      ],
      "stateMutability": "view",
      "type": "function"
    },
    {
      "inputs": [
        {
          "internalType": "address",
          "name": "uniV3Pool",
          "type": "address"
        },
        {
          "internalType": "uint32",
          "name": "epoch",
          "type": "uint32"
        }
      ],
      "name": "getPoolDistributionsForEpoch",
      "outputs": [
        {
          "components": [
            {
              "components": [
                {
                  "internalType": "bytes32",
                  "name": "rewardId",
                  "type": "bytes32"
                },
                {
                  "internalType": "address",
                  "name": "uniV3Pool",
                  "type": "address"
                },
                {
                  "internalType": "address",
                  "name": "rewardToken",
                  "type": "address"
                },
                {
                  "internalType": "uint256",
                  "name": "amount",
                  "type": "uint256"
                },
                {
                  "internalType": "address[]",
                  "name": "positionWrappers",
                  "type": "address[]"
                },
                {
                  "internalType": "uint32[]",
                  "name": "wrapperTypes",
                  "type": "uint32[]"
                },
                {
                  "internalType": "uint32",
                  "name": "propToken0",
                  "type": "uint32"
                },
                {
                  "internalType": "uint32",
                  "name": "propToken1",
                  "type": "uint32"
                },
                {
                  "internalType": "uint32",
                  "name": "propFees",
                  "type": "uint32"
                },
                {
                  "internalType": "uint32",
                  "name": "epochStart",
                  "type": "uint32"
                },
                {
                  "internalType": "uint32",
                  "name": "numEpoch",
                  "type": "uint32"
                },
                {
                  "internalType": "uint32",
                  "name": "isOutOfRangeIncentivized",
                  "type": "uint32"
                },
                {
                  "internalType": "uint32",
                  "name": "boostedReward",
                  "type": "uint32"
                },
                {
                  "internalType": "address",
                  "name": "boostingAddress",
                  "type": "address"
                },
                {
                  "internalType": "bytes",
                  "name": "additionalData",
                  "type": "bytes"
                }
              ],
              "internalType": "struct DistributionParameters",
              "name": "base",
              "type": "tuple"
            },
            {
              "internalType": "uint24",
              "name": "poolFee",
              "type": "uint24"
            },
            {
              "components": [
                {
                  "internalType": "address",
                  "name": "add",
                  "type": "address"
                },
                {
                  "internalType": "uint8",
                  "name": "decimals",
                  "type": "uint8"
                },
                {
                  "internalType": "string",
                  "name": "symbol",
                  "type": "string"
                },
                {
                  "internalType": "uint256",
                  "name": "poolBalance",
                  "type": "uint256"
                }
              ],
              "internalType": "struct UniswapTokenData",
              "name": "token0",
              "type": "tuple"
            },
            {
              "components": [
                {
                  "internalType": "address",
                  "name": "add",
                  "type": "address"
                },
                {
                  "internalType": "uint8",
                  "name": "decimals",
                  "type": "uint8"
                },
                {
                  "internalType": "string",
                  "name": "symbol",
                  "type": "string"
                },
                {
                  "internalType": "uint256",
                  "name": "poolBalance",
                  "type": "uint256"
                }
              ],
              "internalType": "struct UniswapTokenData",
              "name": "token1",
              "type": "tuple"
            },
            {
              "internalType": "string",
              "name": "rewardTokenSymbol",
              "type": "string"
            },
            {
              "internalType": "uint8",
              "name": "rewardTokenDecimals",
              "type": "uint8"
            }
          ],
          "internalType": "struct ExtensiveDistributionParameters[]",
          "name": "",
          "type": "tuple[]"
        }
      ],
      "stateMutability": "view",
      "type": "function"
    },
    {
      "inputs": [],
      "name": "getValidRewardTokens",
      "outputs": [
        {
          "components": [
            {
              "internalType": "address",
              "name": "token",
              "type": "address"
            },
            {
              "internalType": "uint256",
              "name": "minimumAmountPerEpoch",
              "type": "uint256"
            }
          ],
          "internalType": "struct RewardTokenAmounts[]",
          "name": "",
          "type": "tuple[]"
        }
      ],
      "stateMutability": "view",
      "type": "function"
    },
    {
      "inputs": [
        {
          "internalType": "contract ICore",
          "name": "_core",
          "type": "address"
        },
        {
          "internalType": "address",
          "name": "_distributor",
          "type": "address"
        },
        {
          "internalType": "uint256",
          "name": "_fees",
          "type": "uint256"
        }
      ],
      "name": "initialize",
      "outputs": [],
      "stateMutability": "nonpayable",
      "type": "function"
    },
    {
      "inputs": [
        {
          "internalType": "address",
          "name": "",
          "type": "address"
        }
      ],
      "name": "isWhitelistedToken",
      "outputs": [
        {
          "internalType": "uint256",
          "name": "",
          "type": "uint256"
        }
      ],
      "stateMutability": "view",
      "type": "function"
    },
    {
      "inputs": [],
      "name": "message",
      "outputs": [
        {
          "internalType": "string",
          "name": "",
          "type": "string"
        }
      ],
      "stateMutability": "view",
      "type": "function"
    },
    {
      "inputs": [],
      "name": "messageHash",
      "outputs": [
        {
          "internalType": "bytes32",
          "name": "",
          "type": "bytes32"
        }
      ],
      "stateMutability": "view",
      "type": "function"
    },
    {
      "inputs": [
        {
          "internalType": "address",
          "name": "",
          "type": "address"
        }
      ],
      "name": "nonces",
      "outputs": [
        {
          "internalType": "uint256",
          "name": "",
          "type": "uint256"
        }
      ],
      "stateMutability": "view",
      "type": "function"
    },
    {
      "inputs": [],
      "name": "proxiableUUID",
      "outputs": [
        {
          "internalType": "bytes32",
          "name": "",
          "type": "bytes32"
        }
      ],
      "stateMutability": "view",
      "type": "function"
    },
    {
      "inputs": [
        {
          "internalType": "contract IERC20[]",
          "name": "tokens",
          "type": "address[]"
        },
        {
          "internalType": "address",
          "name": "to",
          "type": "address"
        }
      ],
      "name": "recoverFees",
      "outputs": [],
      "stateMutability": "nonpayable",
      "type": "function"
    },
    {
      "inputs": [
        {
          "internalType": "address",
          "name": "",
          "type": "address"
        }
      ],
      "name": "rewardTokenMinAmounts",
      "outputs": [
        {
          "internalType": "uint256",
          "name": "",
          "type": "uint256"
        }
      ],
      "stateMutability": "view",
      "type": "function"
    },
    {
      "inputs": [
        {
          "internalType": "uint256",
          "name": "",
          "type": "uint256"
        }
      ],
      "name": "rewardTokens",
      "outputs": [
        {
          "internalType": "address",
          "name": "",
          "type": "address"
        }
      ],
      "stateMutability": "view",
      "type": "function"
    },
    {
      "inputs": [
        {
          "internalType": "address",
          "name": "_feeRecipient",
          "type": "address"
        }
      ],
      "name": "setFeeRecipient",
      "outputs": [],
      "stateMutability": "nonpayable",
      "type": "function"
    },
    {
      "inputs": [
        {
          "internalType": "uint256",
          "name": "_fees",
          "type": "uint256"
        }
      ],
      "name": "setFees",
      "outputs": [],
      "stateMutability": "nonpayable",
      "type": "function"
    },
    {
      "inputs": [
        {
          "internalType": "string",
          "name": "_message",
          "type": "string"
        }
      ],
      "name": "setMessage",
      "outputs": [],
      "stateMutability": "nonpayable",
      "type": "function"
    },
    {
      "inputs": [
        {
          "internalType": "address",
          "name": "_distributor",
          "type": "address"
        }
      ],
      "name": "setNewDistributor",
      "outputs": [],
      "stateMutability": "nonpayable",
      "type": "function"
    },
    {
      "inputs": [
        {
          "internalType": "address[]",
          "name": "tokens",
          "type": "address[]"
        },
        {
          "internalType": "uint256[]",
          "name": "amounts",
          "type": "uint256[]"
        }
      ],
      "name": "setRewardTokenMinAmounts",
      "outputs": [],
      "stateMutability": "nonpayable",
      "type": "function"
    },
    {
      "inputs": [
        {
          "internalType": "address",
          "name": "user",
          "type": "address"
        },
        {
          "internalType": "uint256",
          "name": "userFeeRebate",
          "type": "uint256"
        }
      ],
      "name": "setUserFeeRebate",
      "outputs": [],
      "stateMutability": "nonpayable",
      "type": "function"
    },
    {
      "inputs": [
        {
          "internalType": "bytes",
          "name": "signature",
          "type": "bytes"
        }
      ],
      "name": "sign",
      "outputs": [],
      "stateMutability": "nonpayable",
      "type": "function"
    },
    {
      "inputs": [
        {
          "components": [
            {
              "internalType": "bytes32",
              "name": "rewardId",
              "type": "bytes32"
            },
            {
              "internalType": "address",
              "name": "uniV3Pool",
              "type": "address"
            },
            {
              "internalType": "address",
              "name": "rewardToken",
              "type": "address"
            },
            {
              "internalType": "uint256",
              "name": "amount",
              "type": "uint256"
            },
            {
              "internalType": "address[]",
              "name": "positionWrappers",
              "type": "address[]"
            },
            {
              "internalType": "uint32[]",
              "name": "wrapperTypes",
              "type": "uint32[]"
            },
            {
              "internalType": "uint32",
              "name": "propToken0",
              "type": "uint32"
            },
            {
              "internalType": "uint32",
              "name": "propToken1",
              "type": "uint32"
            },
            {
              "internalType": "uint32",
              "name": "propFees",
              "type": "uint32"
            },
            {
              "internalType": "uint32",
              "name": "epochStart",
              "type": "uint32"
            },
            {
              "internalType": "uint32",
              "name": "numEpoch",
              "type": "uint32"
            },
            {
              "internalType": "uint32",
              "name": "isOutOfRangeIncentivized",
              "type": "uint32"
            },
            {
              "internalType": "uint32",
              "name": "boostedReward",
              "type": "uint32"
            },
            {
              "internalType": "address",
              "name": "boostingAddress",
              "type": "address"
            },
            {
              "internalType": "bytes",
              "name": "additionalData",
              "type": "bytes"
            }
          ],
          "internalType": "struct DistributionParameters",
          "name": "distribution",
          "type": "tuple"
        },
        {
          "internalType": "bytes",
          "name": "signature",
          "type": "bytes"
        }
      ],
      "name": "signAndCreateDistribution",
      "outputs": [
        {
          "internalType": "uint256",
          "name": "distributionAmount",
          "type": "uint256"
        }
      ],
      "stateMutability": "nonpayable",
      "type": "function"
    },
    {
      "inputs": [
        {
          "internalType": "address",
          "name": "user",
          "type": "address"
        }
      ],
      "name": "toggleSigningWhitelist",
      "outputs": [],
      "stateMutability": "nonpayable",
      "type": "function"
    },
    {
      "inputs": [
        {
          "internalType": "address",
          "name": "token",
          "type": "address"
        }
      ],
      "name": "toggleTokenWhitelist",
      "outputs": [],
      "stateMutability": "nonpayable",
      "type": "function"
    },
    {
      "inputs": [
        {
          "components": [
            {
              "internalType": "bytes32",
              "name": "rewardId",
              "type": "bytes32"
            },
            {
              "internalType": "address",
              "name": "uniV3Pool",
              "type": "address"
            },
            {
              "internalType": "address",
              "name": "rewardToken",
              "type": "address"
            },
            {
              "internalType": "uint256",
              "name": "amount",
              "type": "uint256"
            },
            {
              "internalType": "address[]",
              "name": "positionWrappers",
              "type": "address[]"
            },
            {
              "internalType": "uint32[]",
              "name": "wrapperTypes",
              "type": "uint32[]"
            },
            {
              "internalType": "uint32",
              "name": "propToken0",
              "type": "uint32"
            },
            {
              "internalType": "uint32",
              "name": "propToken1",
              "type": "uint32"
            },
            {
              "internalType": "uint32",
              "name": "propFees",
              "type": "uint32"
            },
            {
              "internalType": "uint32",
              "name": "epochStart",
              "type": "uint32"
            },
            {
              "internalType": "uint32",
              "name": "numEpoch",
              "type": "uint32"
            },
            {
              "internalType": "uint32",
              "name": "isOutOfRangeIncentivized",
              "type": "uint32"
            },
            {
              "internalType": "uint32",
              "name": "boostedReward",
              "type": "uint32"
            },
            {
              "internalType": "address",
              "name": "boostingAddress",
              "type": "address"
            },
            {
              "internalType": "bytes",
              "name": "additionalData",
              "type": "bytes"
            }
          ],
          "internalType": "struct DistributionParameters",
          "name": "distribution",
          "type": "tuple"
        }
      ],
      "name": "tryGetExtensiveDistributionParameters",
      "outputs": [
        {
          "internalType": "bool",
          "name": "success",
          "type": "bool"
        },
        {
          "components": [
            {
              "components": [
                {
                  "internalType": "bytes32",
                  "name": "rewardId",
                  "type": "bytes32"
                },
                {
                  "internalType": "address",
                  "name": "uniV3Pool",
                  "type": "address"
                },
                {
                  "internalType": "address",
                  "name": "rewardToken",
                  "type": "address"
                },
                {
                  "internalType": "uint256",
                  "name": "amount",
                  "type": "uint256"
                },
                {
                  "internalType": "address[]",
                  "name": "positionWrappers",
                  "type": "address[]"
                },
                {
                  "internalType": "uint32[]",
                  "name": "wrapperTypes",
                  "type": "uint32[]"
                },
                {
                  "internalType": "uint32",
                  "name": "propToken0",
                  "type": "uint32"
                },
                {
                  "internalType": "uint32",
                  "name": "propToken1",
                  "type": "uint32"
                },
                {
                  "internalType": "uint32",
                  "name": "propFees",
                  "type": "uint32"
                },
                {
                  "internalType": "uint32",
                  "name": "epochStart",
                  "type": "uint32"
                },
                {
                  "internalType": "uint32",
                  "name": "numEpoch",
                  "type": "uint32"
                },
                {
                  "internalType": "uint32",
                  "name": "isOutOfRangeIncentivized",
                  "type": "uint32"
                },
                {
                  "internalType": "uint32",
                  "name": "boostedReward",
                  "type": "uint32"
                },
                {
                  "internalType": "address",
                  "name": "boostingAddress",
                  "type": "address"
                },
                {
                  "internalType": "bytes",
                  "name": "additionalData",
                  "type": "bytes"
                }
              ],
              "internalType": "struct DistributionParameters",
              "name": "base",
              "type": "tuple"
            },
            {
              "internalType": "uint24",
              "name": "poolFee",
              "type": "uint24"
            },
            {
              "components": [
                {
                  "internalType": "address",
                  "name": "add",
                  "type": "address"
                },
                {
                  "internalType": "uint8",
                  "name": "decimals",
                  "type": "uint8"
                },
                {
                  "internalType": "string",
                  "name": "symbol",
                  "type": "string"
                },
                {
                  "internalType": "uint256",
                  "name": "poolBalance",
                  "type": "uint256"
                }
              ],
              "internalType": "struct UniswapTokenData",
              "name": "token0",
              "type": "tuple"
            },
            {
              "components": [
                {
                  "internalType": "address",
                  "name": "add",
                  "type": "address"
                },
                {
                  "internalType": "uint8",
                  "name": "decimals",
                  "type": "uint8"
                },
                {
                  "internalType": "string",
                  "name": "symbol",
                  "type": "string"
                },
                {
                  "internalType": "uint256",
                  "name": "poolBalance",
                  "type": "uint256"
                }
              ],
              "internalType": "struct UniswapTokenData",
              "name": "token1",
              "type": "tuple"
            },
            {
              "internalType": "string",
              "name": "rewardTokenSymbol",
              "type": "string"
            },
            {
              "internalType": "uint8",
              "name": "rewardTokenDecimals",
              "type": "uint8"
            }
          ],
          "internalType": "struct ExtensiveDistributionParameters",
          "name": "extensiveParams",
          "type": "tuple"
        }
      ],
      "stateMutability": "nonpayable",
      "type": "function"
    },
    {
      "inputs": [
        {
          "internalType": "address",
          "name": "newImplementation",
          "type": "address"
        }
      ],
      "name": "upgradeTo",
      "outputs": [],
      "stateMutability": "nonpayable",
      "type": "function"
    },
    {
      "inputs": [
        {
          "internalType": "address",
          "name": "newImplementation",
          "type": "address"
        },
        {
          "internalType": "bytes",
          "name": "data",
          "type": "bytes"
        }
      ],
      "name": "upgradeToAndCall",
      "outputs": [],
      "stateMutability": "payable",
      "type": "function"
    },
    {
      "inputs": [
        {
          "internalType": "address",
          "name": "",
          "type": "address"
        }
      ],
      "name": "userSignatureWhitelist",
      "outputs": [
        {
          "internalType": "uint256",
          "name": "",
          "type": "uint256"
        }
      ],
      "stateMutability": "view",
      "type": "function"
    },
    {
      "inputs": [
        {
          "internalType": "address",
          "name": "",
          "type": "address"
        }
      ],
      "name": "userSignatures",
      "outputs": [
        {
          "internalType": "bytes32",
          "name": "",
          "type": "bytes32"
        }
      ],
      "stateMutability": "view",
      "type": "function"
    }
  ],
  "transactionHash": "0x2a3363189716cdee5624e010a32f5792f5161bad5652359495592d6fa4f83703",
  "args": [],
  "numDeployments": 1,
  "solcInputHash": "d26d23cd62245c8eb49157588d545913",
  "bytecode": "0x60a0604052306080523480156200001557600080fd5b50600054610100900460ff1615808015620000375750600054600160ff909116105b8062000067575062000054306200022060201b620022481760201c565b15801562000067575060005460ff166001145b620000bf5760405162461bcd60e51b815260206004820152602e6024820152600080516020620055de83398151915260448201526d191e481a5b9a5d1a585b1a5e995960921b60648201526084015b60405180910390fd5b6000805460ff191660011790558015620000e3576000805461ff0019166101001790555b801562000119576000805461ff001916905560405160018152600080516020620055fe8339815191529060200160405180910390a15b50600054610100900460ff16158080156200013b5750600054600160ff909116105b806200016b575062000158306200022060201b620022481760201c565b1580156200016b575060005460ff166001145b620001bf5760405162461bcd60e51b815260206004820152602e6024820152600080516020620055de83398151915260448201526d191e481a5b9a5d1a585b1a5e995960921b6064820152608401620000b6565b6000805460ff191660011790558015620001e3576000805461ff0019166101001790555b801562000219576000805461ff001916905560405160018152600080516020620055fe8339815191529060200160405180910390a15b506200022f565b6001600160a01b03163b151590565b608051615377620002676000396000818161104101528181611081015281816112db0152818161131b015261139701526153776000f3fe6080604052600436106102725760003560e01c80637bb7bed11161014f578063b9d81abc116100c1578063e1394f7d1161007a578063e1394f7d146107dc578063e21f37ce146107fc578063e74b981b1461081e578063f2f4eb261461083e578063fb1d23291461085e578063feba1ed21461087e57600080fd5b8063b9d81abc146106e8578063ba5c3a9d14610708578063bfe1092814610741578063c14007a014610761578063d0ff94b21461078f578063d7fa5625146107af57600080fd5b80639af1d35a116101135780639af1d35a1461061a578063a218404014610630578063a2686e2314610650578063a70b9f0c14610670578063ab37f4861461069b578063ae23bf28146106c857600080fd5b80637bb7bed11461055e5780637ecebe001461057e5780638a4bd4b2146105ab57806395d3d5d8146105cb57806396b3ce54146105ed57600080fd5b80633d18678e116101e85780636c1550b1116101ac5780636c1550b1146104975780636cca84bd146104c4578063734e7fb9146104e4578063752e87491461050457806376cd7cbc1461051c5780637b74691e1461053c57600080fd5b80633d18678e1461040257806346904840146104225780634f1ef2861461044f57806352d1902d1461046257806358beb8841461047757600080fd5b806317418a221161023a57806317418a221461033c5780631794bb3c146103515780632acd7ec41461037157806330444017146103ac5780633659cfe6146103c2578063368b8772146103e257600080fd5b80630241d8f91461027757806303d2944c146102995780630db38252146102b95780630f44380d146102ef578063141df5031461031c575b600080fd5b34801561028357600080fd5b50610297610292366004613ca8565b6108ab565b005b3480156102a557600080fd5b506102976102b4366004613cd4565b610992565b3480156102c557600080fd5b506102d96102d4366004614080565b610a91565b6040516102e6919061437f565b60405180910390f35b3480156102fb57600080fd5b5061030f61030a366004614392565b610cc8565b6040516102e691906143af565b34801561032857600080fd5b50610297610337366004614455565b610ce8565b34801561034857600080fd5b5061030f610e5f565b34801561035d57600080fd5b5061029761036c3660046144ab565b610e8b565b34801561037d57600080fd5b5061039e61038c366004613cd4565b60a36020526000908152604090205481565b6040519081526020016102e6565b3480156103b857600080fd5b5061039e609c5481565b3480156103ce57600080fd5b506102976103dd366004613cd4565b611037565b3480156103ee57600080fd5b506102976103fd3660046144ec565b6110ff565b34801561040e57600080fd5b5061029761041d366004614534565b6111e4565b34801561042e57600080fd5b50609954610442906001600160a01b031681565b6040516102e6919061454d565b61029761045d366004614561565b6112d1565b34801561046e57600080fd5b5061039e61138a565b34801561048357600080fd5b5061039e6104923660046145f1565b611438565b3480156104a357600080fd5b506104b76104b2366004614659565b611457565b6040516102e69190614709565b3480156104d057600080fd5b506102976104df366004613cd4565b611580565b3480156104f057600080fd5b5061030f6104ff36600461474d565b611683565b34801561051057600080fd5b5061039e633b9aca0081565b34801561052857600080fd5b50610297610537366004614786565b61169c565b34801561054857600080fd5b506105516116a6565b6040516102e691906147c7565b34801561056a57600080fd5b50610442610579366004614534565b611929565b34801561058a57600080fd5b5061039e610599366004613cd4565b60a06020526000908152604090205481565b3480156105b757600080fd5b5061030f6105c6366004613cd4565b611953565b3480156105d757600080fd5b506105e0611973565b6040516102e6919061481c565b3480156105f957600080fd5b5061039e610608366004613cd4565b60a16020526000908152604090205481565b34801561062657600080fd5b5061039e609a5481565b34801561063c57600080fd5b5061029761064b366004614874565b611a94565b34801561065c57600080fd5b5061029761066b366004613cd4565b611ce6565b34801561067c57600080fd5b50610686610e1081565b60405163ffffffff90911681526020016102e6565b3480156106a757600080fd5b5061039e6106b6366004613cd4565b609f6020526000908152604090205481565b3480156106d457600080fd5b5061030f6106e33660046148df565b611de9565b3480156106f457600080fd5b5061039e610703366004614080565b611e11565b34801561071457600080fd5b50610728610723366004614534565b611e9c565b6040516102e69d9c9b9a999897969594939291906148fd565b34801561074d57600080fd5b50609854610442906001600160a01b031681565b34801561076d57600080fd5b5061078161077c366004614080565b611fc9565b6040516102e69291906149a9565b34801561079b57600080fd5b5061030f6107aa3660046148df565b6120a3565b3480156107bb57600080fd5b5061039e6107ca366004613cd4565b60a26020526000908152604090205481565b3480156107e857600080fd5b5061030f6107f7366004614392565b6120b2565b34801561080857600080fd5b506108116120d3565b6040516102e691906149c4565b34801561082a57600080fd5b50610297610839366004613cd4565b612161565b34801561084a57600080fd5b50609754610442906001600160a01b031681565b34801561086a57600080fd5b5061030f6108793660046149d7565b612239565b34801561088a57600080fd5b5061039e610899366004613cd4565b609e6020526000908152604090205481565b60975460405163521d4de960e01b81526001600160a01b039091169063521d4de9906108db90339060040161454d565b602060405180830381865afa1580156108f8573d6000803e3d6000fd5b505050506040513d601f19601f8201168201806040525081019061091c9190614a27565b61093957604051632678482f60e21b815260040160405180910390fd5b6001600160a01b0382166000818152609e602052604090819020839055517fab1d37d0b21937f334fc4164d147abbfdbfd7ef37ab9ea0ae73f2a58ffb7f1cc906109869084815260200190565b60405180910390a25050565b60975460405163521d4de960e01b81526001600160a01b039091169063521d4de9906109c290339060040161454d565b602060405180830381865afa1580156109df573d6000803e3d6000fd5b505050506040513d601f19601f82011682018060405250810190610a039190614a27565b610a2057604051632678482f60e21b815260040160405180910390fd5b6001600160a01b038116610a4757604051633494a40d60e21b815260040160405180910390fd5b609880546001600160a01b0319166001600160a01b0383169081179091556040517fc0ebb188f905d128bcd7e4282dd1f9cf24cd331b69071002e488349aca6a867b90600090a250565b610a99613a7e565b81816000018190525081602001516001600160a01b031663ddca3f436040518163ffffffff1660e01b8152600401602060405180830381865afa925050508015610b00575060408051601f3d908101601f19168201909252610afd91810190614a55565b60015b610b105760006020820152610b1b565b62ffffff1660208201525b610b8e82602001516001600160a01b0316630dfe16816040518163ffffffff1660e01b8152600401602060405180830381865afa158015610b60573d6000803e3d6000fd5b505050506040513d601f19601f82011682018060405250810190610b849190614a7b565b8360200151612257565b8160400181905250610bdb82602001516001600160a01b031663d21220a76040518163ffffffff1660e01b8152600401602060405180830381865afa158015610b60573d6000803e3d6000fd5b816060018190525081604001516001600160a01b03166395d89b416040518163ffffffff1660e01b8152600401600060405180830381865afa158015610c25573d6000803e3d6000fd5b505050506040513d6000823e601f3d908101601f19168201604052610c4d9190810190614add565b816080018190525081604001516001600160a01b031663313ce5676040518163ffffffff1660e01b8152600401602060405180830381865afa158015610c97573d6000803e3d6000fd5b505050506040513d601f19601f82011682018060405250810190610cbb9190614b22565b60ff1660a0820152919050565b6060610ce26000610cd8846123bf565b63ffffffff6123d8565b92915050565b60975460405163521d4de960e01b81526001600160a01b039091169063521d4de990610d1890339060040161454d565b602060405180830381865afa158015610d35573d6000803e3d6000fd5b505050506040513d601f19601f82011682018060405250810190610d599190614a27565b610d7657604051632678482f60e21b815260040160405180910390fd5b8160005b81811015610e5857610e5083868684818110610d9857610d98614b3d565b9050602002016020810190610dad9190613cd4565b6001600160a01b03166370a08231306040518263ffffffff1660e01b8152600401610dd8919061454d565b602060405180830381865afa158015610df5573d6000803e3d6000fd5b505050506040513d601f19601f82011682018060405250810190610e199190614b53565b878785818110610e2b57610e2b614b3d565b9050602002016020810190610e409190613cd4565b6001600160a01b031691906127a2565b600101610d7a565b5050505050565b60606000610e6c426123bf565b9050610e85600082610e80610e1082614b82565b6123d8565b91505090565b600054610100900460ff1615808015610eab5750600054600160ff909116105b80610ecc5750610eba30612248565b158015610ecc575060005460ff166001145b610f345760405162461bcd60e51b815260206004820152602e60248201527f496e697469616c697a61626c653a20636f6e747261637420697320616c72656160448201526d191e481a5b9a5d1a585b1a5e995960921b60648201526084015b60405180910390fd5b6000805460ff191660011790558015610f57576000805461ff0019166101001790555b6001600160a01b0384161580610f7457506001600160a01b038316155b15610f925760405163d92e233d60e01b815260040160405180910390fd5b633b9aca008210610fb657604051633494a40d60e21b815260040160405180910390fd5b609880546001600160a01b038086166001600160a01b0319928316179092556097805492871692909116919091179055609a8290558015611031576000805461ff0019169055604051600181527f7f26b83ff96e1f2b6a682f133852f6798a09c465da95921460cefb38474024989060200160405180910390a15b50505050565b6001600160a01b037f000000000000000000000000000000000000000000000000000000000000000016300361107f5760405162461bcd60e51b8152600401610f2b90614ba6565b7f00000000000000000000000000000000000000000000000000000000000000006001600160a01b03166110b161280a565b6001600160a01b0316146110d75760405162461bcd60e51b8152600401610f2b90614bf2565b6110e081612826565b604080516000808252602082019092526110fc918391906128c9565b50565b60975460405163521d4de960e01b81526001600160a01b039091169063521d4de99061112f90339060040161454d565b602060405180830381865afa15801561114c573d6000803e3d6000fd5b505050506040513d601f19601f820116820180604052508101906111709190614a27565b61118d57604051632678482f60e21b815260040160405180910390fd5b609b6111998282614cbe565b5060006111a582612a34565b609c8190556040518181529091507fde3dc3335dea4d1a1060ef6cefcfcc109eb0a1e78ce151818d3f17a01e1f8a059060200160405180910390a15050565b60975460405163521d4de960e01b81526001600160a01b039091169063521d4de99061121490339060040161454d565b602060405180830381865afa158015611231573d6000803e3d6000fd5b505050506040513d601f19601f820116820180604052508101906112559190614a27565b61127257604051632678482f60e21b815260040160405180910390fd5b633b9aca00811061129657604051633494a40d60e21b815260040160405180910390fd5b609a8190556040518181527f3346af6da1932164d501f2ec28f8c5d686db5828a36b77f2da4332d89184fe7b9060200160405180910390a150565b6001600160a01b037f00000000000000000000000000000000000000000000000000000000000000001630036113195760405162461bcd60e51b8152600401610f2b90614ba6565b7f00000000000000000000000000000000000000000000000000000000000000006001600160a01b031661134b61280a565b6001600160a01b0316146113715760405162461bcd60e51b8152600401610f2b90614bf2565b61137a82612826565b611386828260016128c9565b5050565b6000306001600160a01b037f000000000000000000000000000000000000000000000000000000000000000016146114255760405162461bcd60e51b815260206004820152603860248201527f555550535570677261646561626c653a206d757374206e6f742062652063616c6044820152771b1959081d1a1c9bdd59da0819195b1959d85d1958d85b1b60421b6064820152608401610f2b565b506000805160206152fb83398151915290565b60006114448383612a6f565b61144d84612b2b565b90505b9392505050565b33600090815260a260205260409020546060901580156114885750609c5433600090815260a1602052604090205414155b80156114a1575032600090815260a26020526040902054155b80156114be5750609c5432600090815260a1602052604090205414155b156114dc576040516314e52a5b60e31b815260040160405180910390fd5b81516000816001600160401b038111156114f8576114f8613cf1565b604051908082528060200260200182016040528015611521578160200160208202803683370190505b50905060005b828110156115765761155185828151811061154457611544614b3d565b6020026020010151612b2b565b82828151811061156357611563614b3d565b6020908102919091010152600101611527565b509150505b919050565b60975460405163521d4de960e01b81526001600160a01b039091169063521d4de9906115b090339060040161454d565b602060405180830381865afa1580156115cd573d6000803e3d6000fd5b505050506040513d601f19601f820116820180604052508101906115f19190614a27565b61160e57604051632678482f60e21b815260040160405180910390fd5b6001600160a01b0381166000908152609f6020526040812054611632906001614d7d565b6001600160a01b0383166000818152609f60205260409081902083905551919250907fc6cd32b1acffa550abf886a9b443ff3ce485bfdb05e35ef5b26e745739a1eac1906109869084815260200190565b60606114506000611693856123bf565b610e80856123bf565b6113868282612a6f565b6060609d805480602002602001604051908101604052809291908181526020016000905b82821015611920576000848152602090819020604080516101e081018252600986029092018054835260018101546001600160a01b039081168486015260028201541683830152600381015460608401526004810180548351818702810187019094528084529394919360808601939283018282801561177357602002820191906000526020600020905b81546001600160a01b03168152600190910190602001808311611755575b50505050508152602001600582018054806020026020016040519081016040528092919081815260200182805480156117f757602002820191906000526020600020906000905b82829054906101000a900463ffffffff1663ffffffff16815260200190600401906020826003010492830192600103820291508084116117ba5790505b5050509183525050600682015463ffffffff8082166020840152600160201b820481166040840152600160401b820481166060840152600160601b820481166080840152600160801b8204811660a0840152600160a01b8204811660c0840152600160c01b9091041660e082015260078201546001600160a01b03166101008201526008820180546101209092019161188f90614c3e565b80601f01602080910402602001604051908101604052809291908181526020018280546118bb90614c3e565b80156119085780601f106118dd57610100808354040283529160200191611908565b820191906000526020600020905b8154815290600101906020018083116118eb57829003601f168201915b505050505081525050815260200190600101906116ca565b50505050905090565b60a4818154811061193957600080fd5b6000918252602090912001546001600160a01b0316905081565b60606000611960426123bf565b90506114508382610e80610e1082614b82565b60a45460609060009081816001600160401b0381111561199557611995613cf1565b6040519080825280602002602001820160405280156119da57816020015b60408051808201909152600080825260208201528152602001906001900390816119b35790505b50905060005b828163ffffffff161015611a8a57600060a48263ffffffff1681548110611a0957611a09614b3d565b60009182526020808320909101546001600160a01b031680835260a39091526040909120549091508015611a80576040518060400160405280836001600160a01b0316815260200182815250848781518110611a6757611a67614b3d565b6020908102919091010152611a7d600187614d90565b95505b50506001016119e0565b5091825250919050565b60975460405163521d4de960e01b81526001600160a01b039091169063521d4de990611ac490339060040161454d565b602060405180830381865afa158015611ae1573d6000803e3d6000fd5b505050506040513d601f19601f82011682018060405250810190611b059190614a27565b611b2257604051632678482f60e21b815260040160405180910390fd5b82818114611b4357604051631df89e8b60e01b815260040160405180910390fd5b60005b81811015611cde576000848483818110611b6257611b62614b3d565b905060200201359050600081118015611bbd575060a36000888885818110611b8c57611b8c614b3d565b9050602002016020810190611ba19190613cd4565b6001600160a01b03168152602081019190915260400160002054155b15611c1e5760a4878784818110611bd657611bd6614b3d565b9050602002016020810190611beb9190613cd4565b81546001810183556000928352602090922090910180546001600160a01b0319166001600160a01b039092169190911790555b8060a36000898986818110611c3557611c35614b3d565b9050602002016020810190611c4a9190613cd4565b6001600160a01b03168152602081019190915260400160002055868683818110611c7657611c76614b3d565b9050602002016020810190611c8b9190613cd4565b6001600160a01b03167f3a5e6418e38cae10bf66eaf3e68c4e9c6b14df195e24fec169ab3a5b123c96e582604051611cc591815260200190565b60405180910390a250611cd781614da3565b9050611b46565b505050505050565b60975460405163521d4de960e01b81526001600160a01b039091169063521d4de990611d1690339060040161454d565b602060405180830381865afa158015611d33573d6000803e3d6000fd5b505050506040513d601f19601f82011682018060405250810190611d579190614a27565b611d7457604051632678482f60e21b815260040160405180910390fd5b6001600160a01b038116600090815260a26020526040812054611d98906001614d7d565b6001600160a01b038316600081815260a260205260409081902083905551919250907f9c759941da0b7ce56c059c1497218796e62035024afb77a00ff49a980a62078f906109869084815260200190565b60606000611df6836123bf565b9050611e098482610e80610e1082614b82565b949350505050565b33600090815260a26020526040812054158015611e3f5750609c5433600090815260a1602052604090205414155b8015611e58575032600090815260a26020526040902054155b8015611e755750609c5432600090815260a1602052604090205414155b15611e93576040516314e52a5b60e31b815260040160405180910390fd5b610ce282612b2b565b609d8181548110611eac57600080fd5b600091825260209091206009909102018054600182015460028301546003840154600685015460078601546008870180549698506001600160a01b039586169794861696939563ffffffff80851696600160201b8604821696600160401b8704831696600160601b8104841696600160801b8204851696600160a01b8304861696600160c01b9093049095169491169291611f4690614c3e565b80601f0160208091040260200160405190810160405280929190818152602001828054611f7290614c3e565b8015611fbf5780601f10611f9457610100808354040283529160200191611fbf565b820191906000526020600020905b815481529060010190602001808311611fa257829003601f168201915b505050505090508d565b6000611fd3613a7e565b600080306001600160a01b0316630db3825260e01b86604051602401611ff99190614dbc565b60408051601f198184030181529181526020820180516001600160e01b03166001600160e01b03199094169390931790925290516120379190614dcf565b600060405180830381855af49150503d8060008114612072576040519150601f19603f3d011682016040523d82523d6000602084013e612077565b606091505b5091509150819350831561209c57808060200190518101906120999190615186565b92505b5050915091565b606061145083610cd8846123bf565b606060006120bf836123bf565b9050611450600082610e80610e1082614b82565b609b80546120e090614c3e565b80601f016020809104026020016040519081016040528092919081815260200182805461210c90614c3e565b80156121595780601f1061212e57610100808354040283529160200191612159565b820191906000526020600020905b81548152906001019060200180831161213c57829003601f168201915b505050505081565b60975460405163521d4de960e01b81526001600160a01b039091169063521d4de99061219190339060040161454d565b602060405180830381865afa1580156121ae573d6000803e3d6000fd5b505050506040513d601f19601f820116820180604052508101906121d29190614a27565b6121ef57604051632678482f60e21b815260040160405180910390fd5b609980546001600160a01b0319166001600160a01b0383169081179091556040517f7a7b5a0a132f9e0581eb8527f66eae9ee89c2a3e79d4ac7e41a1f1f4d48a7fc290600090a250565b606061144d84611693856123bf565b6001600160a01b03163b151590565b61225f613b34565b6001600160a01b0383168082526040805163313ce56760e01b8152905163313ce567916004808201926020929091908290030181865afa1580156122a7573d6000803e3d6000fd5b505050506040513d601f19601f820116820180604052508101906122cb9190614b22565b60ff166020820152604080516395d89b4160e01b815290516001600160a01b038516916395d89b419160048083019260009291908290030181865afa158015612318573d6000803e3d6000fd5b505050506040513d6000823e601f3d908101601f191682016040526123409190810190614add565b604080830191909152516370a0823160e01b81526001600160a01b038416906370a082319061237390859060040161454d565b602060405180830381865afa158015612390573d6000803e3d6000fd5b505050506040513d601f19601f820116820180604052508101906123b49190614b53565b606082015292915050565b6000610e106123ce81846151d0565b610ce291906151f3565b609d5460609060009081816001600160401b038111156123fa576123fa613cf1565b60405190808252806020026020018201604052801561243357816020015b612420613a7e565b8152602001906001900390816124185790505b50905060005b828163ffffffff161015612795576000609d8263ffffffff168154811061246257612462614b3d565b6000918252602091829020604080516101e08101825260099093029091018054835260018101546001600160a01b039081168486015260028201541683830152600381015460608401526004810180548351818702810187019094528084529394919360808601939283018282801561250457602002820191906000526020600020905b81546001600160a01b031681526001909101906020018083116124e6575b505050505081526020016005820180548060200260200160405190810160405280929190818152602001828054801561258857602002820191906000526020600020906000905b82829054906101000a900463ffffffff1663ffffffff168152602001906004019060208260030104928301926001038202915080841161254b5790505b5050509183525050600682015463ffffffff8082166020840152600160201b820481166040840152600160401b820481166060840152600160601b820481166080840152600160801b8204811660a0840152600160a01b8204811660c0840152600160c01b9091041660e082015260078201546001600160a01b03166101008201526008820180546101209092019161262090614c3e565b80601f016020809104026020016040519081016040528092919081815260200182805461264c90614c3e565b80156126995780601f1061266e57610100808354040283529160200191612699565b820191906000526020600020905b81548152906001019060200180831161267c57829003601f168201915b50505050508152505090506126af81898961316b565b80156126e157506001600160a01b03891615806126e15750886001600160a01b031681602001516001600160a01b0316145b1561278c5760405163060a003d60e51b81526000908190309063c14007a09061270e908690600401614dbc565b600060405180830381865afa15801561272b573d6000803e3d6000fd5b505050506040513d6000823e601f3d908101601f19168201604052612753919081019061521b565b915091508115612789578085888151811061277057612770614b3d565b6020908102919091010152612786600188614d90565b96505b50505b50600101612439565b5091825250949350505050565b6040516001600160a01b03831660248201526044810182905261280590849063a9059cbb60e01b906064015b60408051601f198184030181529190526020810180516001600160e01b03166001600160e01b0319909316929092179091526131c1565b505050565b6000805160206152fb833981519152546001600160a01b031690565b6097546001600160a01b031680158015906128ab575060405163521d4de960e01b81526001600160a01b0382169063521d4de99061286890339060040161454d565b602060405180830381865afa158015612885573d6000803e3d6000fd5b505050506040513d601f19601f820116820180604052508101906128a99190614a27565b155b1561138657604051632678482f60e21b815260040160405180910390fd5b7f4910fdfa16fed3260ed0e7147f7cc6da11a60208b5b9406d12a635614ffd91435460ff16156128fc5761280583613293565b826001600160a01b03166352d1902d6040518163ffffffff1660e01b8152600401602060405180830381865afa925050508015612956575060408051601f3d908101601f1916820190925261295391810190614b53565b60015b6129b95760405162461bcd60e51b815260206004820152602e60248201527f45524331393637557067726164653a206e657720696d706c656d656e7461746960448201526d6f6e206973206e6f74205555505360901b6064820152608401610f2b565b6000805160206152fb8339815191528114612a285760405162461bcd60e51b815260206004820152602960248201527f45524331393637557067726164653a20756e737570706f727465642070726f786044820152681a58589b195555525160ba1b6064820152608401610f2b565b5061280583838361332d565b6000612a408251613352565b82604051602001612a5292919061525e565b604051602081830303815290604052805190602001209050919050565b609c54604080516020601f85018190048102820181019092528381523391612ab391849187908790819084018382808284376000920191909152506133e492505050565b6001600160a01b031614612ada57604051638baa579f60e01b815260040160405180910390fd5b33600081815260a1602052604090819020839055517fc48bbd4f009ad78a336beb65bf44688651e9aa52ac98d9054f0fce0573fefbc390612b1e9084815260200190565b60405180910390a2505050565b6000612b35613408565b6000612b458361012001516123bf565b6040808501516001600160a01b0316600090815260a3602052205463ffffffff821661012086015290915042612b7d610e1084614b82565b63ffffffff161080612b98575061014084015163ffffffff16155b80612bce57508360e001518460c00151856101000151612bb89190614b82565b612bc29190614b82565b63ffffffff1661271014155b80612bfd57506101a08401516001600160a01b031615801590612bfd575061271084610180015163ffffffff16105b80612c1257508360a001515184608001515114155b80612c1b575080155b80612c3f57508084610140015163ffffffff168560600151612c3d91906152b9565b105b15612c5d576040516314414f4160e11b815260040160405180910390fd5b6060840151336000908152609e6020526040902054909350633b9aca0081108015612d095750609f600086602001516001600160a01b0316630dfe16816040518163ffffffff1660e01b8152600401602060405180830381865afa158015612cc9573d6000803e3d6000fd5b505050506040513d601f19601f82011682018060405250810190612ced9190614a7b565b6001600160a01b03168152602081019190915260400160002054155b8015612d965750609f600086602001516001600160a01b031663d21220a76040518163ffffffff1660e01b8152600401602060405180830381865afa158015612d56573d6000803e3d6000fd5b505050506040513d601f19601f82011682018060405250810190612d7a9190614a7b565b6001600160a01b03168152602081019190915260400160002054155b15612e3a576000633b9aca00612dac8382614d7d565b609a54612db991906152cd565b612dc391906152b9565b90506000633b9aca00612dd68382614d7d565b612de090886152cd565b612dea91906152b9565b6099549091506001600160a01b03168015612e055780612e07565b305b9050612e2e3382612e18858b614d7d565b60408c01516001600160a01b0316929190613461565b50606087018190529450505b6098546040860151612e5b916001600160a01b039182169133911687613461565b33600090815260a06020526040902054612e76816001614d90565b33600081815260a060209081526040918290209390935551612eb79284910160609290921b6bffffffffffffffffffffffff19168252601482015260340190565b60408051808303601f1901815291815281516020928301208852609d805460018101825560009190915288517fd26e832454299e9fabb89e0e5fffdc046d4e14431bc1bf607ffb2e8a1ddecf7b6009909202918201908155898401517fd26e832454299e9fabb89e0e5fffdc046d4e14431bc1bf607ffb2e8a1ddecf7c830180546001600160a01b03199081166001600160a01b0393841617909155938b01517fd26e832454299e9fabb89e0e5fffdc046d4e14431bc1bf607ffb2e8a1ddecf7d8401805490951691161790925560608901517fd26e832454299e9fabb89e0e5fffdc046d4e14431bc1bf607ffb2e8a1ddecf7e820155608089015180518a94612fe5937fd26e832454299e9fabb89e0e5fffdc046d4e14431bc1bf607ffb2e8a1ddecf7f01920190613b68565b5060a08201518051613001916005840191602090910190613bcd565b5060c082015160068201805460e08501516101008601516101208701516101408801516101608901516101808a015163ffffffff98891667ffffffffffffffff1990971696909617600160201b958916959095029490941767ffffffffffffffff60401b1916600160401b9388169390930263ffffffff60601b191692909217600160601b918716919091021767ffffffffffffffff60801b1916600160801b9186169190910263ffffffff60a01b191617600160a01b918516919091021763ffffffff60c01b1916600160c01b93909116929092029190911790556101a08201516007820180546001600160a01b0319166001600160a01b039092169190911790556101c082015160088201906131199082614cbe565b505050336001600160a01b03167f5280c74029ecceb35e4fecf34adee487fd5a9a3d6c8e70b7374a1c133370e83a876040516131559190614dbc565b60405180910390a25050505061157b6001606555565b60008084610120015163ffffffff1690508363ffffffff16610e1086610140015161319691906151f3565b6131a69063ffffffff1683614d90565b1180156131b857508263ffffffff1681105b95945050505050565b6000613216826040518060400160405280602081526020017f5361666545524332303a206c6f772d6c6576656c2063616c6c206661696c6564815250856001600160a01b03166134999092919063ffffffff16565b80519091501561280557808060200190518101906132349190614a27565b6128055760405162461bcd60e51b815260206004820152602a60248201527f5361666545524332303a204552433230206f7065726174696f6e20646964206e6044820152691bdd081cdd58d8d9595960b21b6064820152608401610f2b565b61329c81612248565b6132fe5760405162461bcd60e51b815260206004820152602d60248201527f455243313936373a206e657720696d706c656d656e746174696f6e206973206e60448201526c1bdd08184818dbdb9d1c9858dd609a1b6064820152608401610f2b565b6000805160206152fb83398151915280546001600160a01b0319166001600160a01b0392909216919091179055565b613336836134a8565b6000825111806133435750805b156128055761103183836134e8565b6060600061335f836135d1565b60010190506000816001600160401b0381111561337e5761337e613cf1565b6040519080825280601f01601f1916602001820160405280156133a8576020820181803683370190505b5090508181016020015b600019016f181899199a1a9b1b9c1cb0b131b232b360811b600a86061a8153600a85049450846133b257509392505050565b60008060006133f385856136a9565b91509150613400816136ee565b509392505050565b60026065540361345a5760405162461bcd60e51b815260206004820152601f60248201527f5265656e7472616e637947756172643a207265656e7472616e742063616c6c006044820152606401610f2b565b6002606555565b6040516001600160a01b03808516602483015283166044820152606481018290526110319085906323b872dd60e01b906084016127ce565b606061144d8484600085613833565b6134b181613293565b6040516001600160a01b038216907fbc7cd75a20ee27fd9adebab32041f755214dbc6bffa90cc0225b39da2e5c2d3b90600090a250565b60606134f383612248565b61354e5760405162461bcd60e51b815260206004820152602660248201527f416464726573733a2064656c65676174652063616c6c20746f206e6f6e2d636f6044820152651b9d1c9858dd60d21b6064820152608401610f2b565b600080846001600160a01b0316846040516135699190614dcf565b600060405180830381855af49150503d80600081146135a4576040519150601f19603f3d011682016040523d82523d6000602084013e6135a9565b606091505b50915091506131b8828260405180606001604052806027815260200161531b6027913961390e565b60008072184f03e93ff9f4daa797ed6e38ed64bf6a1f0160401b83106136105772184f03e93ff9f4daa797ed6e38ed64bf6a1f0160401b830492506040015b6d04ee2d6d415b85acef8100000000831061363c576d04ee2d6d415b85acef8100000000830492506020015b662386f26fc10000831061365a57662386f26fc10000830492506010015b6305f5e1008310613672576305f5e100830492506008015b612710831061368657612710830492506004015b60648310613698576064830492506002015b600a8310610ce25760010192915050565b60008082516041036136df5760208301516040840151606085015160001a6136d387828585613927565b945094505050506136e7565b506000905060025b9250929050565b6000816004811115613702576137026152e4565b0361370a5750565b600181600481111561371e5761371e6152e4565b036137665760405162461bcd60e51b815260206004820152601860248201527745434453413a20696e76616c6964207369676e617475726560401b6044820152606401610f2b565b600281600481111561377a5761377a6152e4565b036137c75760405162461bcd60e51b815260206004820152601f60248201527f45434453413a20696e76616c6964207369676e6174757265206c656e677468006044820152606401610f2b565b60038160048111156137db576137db6152e4565b036110fc5760405162461bcd60e51b815260206004820152602260248201527f45434453413a20696e76616c6964207369676e6174757265202773272076616c604482015261756560f01b6064820152608401610f2b565b6060824710156138945760405162461bcd60e51b815260206004820152602660248201527f416464726573733a20696e73756666696369656e742062616c616e636520666f6044820152651c8818d85b1b60d21b6064820152608401610f2b565b600080866001600160a01b031685876040516138b09190614dcf565b60006040518083038185875af1925050503d80600081146138ed576040519150601f19603f3d011682016040523d82523d6000602084013e6138f2565b606091505b5091509150613903878383876139e1565b979650505050505050565b6060831561391d575081611450565b6114508383613a54565b6000806fa2a8918ca85bafe22016d0b997e4df60600160ff1b0383111561395457506000905060036139d8565b6040805160008082526020820180845289905260ff881692820192909252606081018690526080810185905260019060a0016020604051602081039080840390855afa1580156139a8573d6000803e3d6000fd5b5050604051601f1901519150506001600160a01b0381166139d1576000600192509250506139d8565b9150600090505b94509492505050565b60608315613a4e578251600003613a47576139fb85612248565b613a475760405162461bcd60e51b815260206004820152601d60248201527f416464726573733a2063616c6c20746f206e6f6e2d636f6e74726163740000006044820152606401610f2b565b5081611e09565b611e0983835b815115613a645781518083602001fd5b8060405162461bcd60e51b8152600401610f2b91906149c4565b604080516102a081018252600060c0820181815260e083018290526101008301829052610120830182905260606101408401819052610160840181905261018084018390526101a084018390526101c084018390526101e08401839052610200840183905261022084018390526102408401839052610260840183905261028084015282526020820152908101613b13613b34565b8152602001613b20613b34565b815260606020820152600060409091015290565b604051806080016040528060006001600160a01b03168152602001600060ff16815260200160608152602001600081525090565b828054828255906000526020600020908101928215613bbd579160200282015b82811115613bbd57825182546001600160a01b0319166001600160a01b03909116178255602090920191600190910190613b88565b50613bc9929150613c73565b5090565b82805482825590600052602060002090600701600890048101928215613bbd5791602002820160005b83821115613c3a57835183826101000a81548163ffffffff021916908363ffffffff1602179055509260200192600401602081600301049283019260010302613bf6565b8015613c6a5782816101000a81549063ffffffff0219169055600401602081600301049283019260010302613c3a565b5050613bc99291505b5b80821115613bc95760008155600101613c74565b6001600160a01b03811681146110fc57600080fd5b803561157b81613c88565b60008060408385031215613cbb57600080fd5b8235613cc681613c88565b946020939093013593505050565b600060208284031215613ce657600080fd5b813561145081613c88565b634e487b7160e01b600052604160045260246000fd5b6040516101e081016001600160401b0381118282101715613d2a57613d2a613cf1565b60405290565b60405160c081016001600160401b0381118282101715613d2a57613d2a613cf1565b604051601f8201601f191681016001600160401b0381118282101715613d7a57613d7a613cf1565b604052919050565b60006001600160401b03821115613d9b57613d9b613cf1565b5060051b60200190565b600082601f830112613db657600080fd5b81356020613dcb613dc683613d82565b613d52565b82815260059290921b84018101918181019086841115613dea57600080fd5b8286015b84811015613e0e578035613e0181613c88565b8352918301918301613dee565b509695505050505050565b63ffffffff811681146110fc57600080fd5b803561157b81613e19565b600082601f830112613e4757600080fd5b81356020613e57613dc683613d82565b82815260059290921b84018101918181019086841115613e7657600080fd5b8286015b84811015613e0e578035613e8d81613e19565b8352918301918301613e7a565b60006001600160401b03821115613eb357613eb3613cf1565b50601f01601f191660200190565b6000613ecf613dc684613e9a565b9050828152838383011115613ee357600080fd5b828260208301376000602084830101529392505050565b600082601f830112613f0b57600080fd5b61145083833560208501613ec1565b60006101e08284031215613f2d57600080fd5b613f35613d07565b905081358152613f4760208301613c9d565b6020820152613f5860408301613c9d565b60408201526060820135606082015260808201356001600160401b0380821115613f8157600080fd5b613f8d85838601613da5565b608084015260a0840135915080821115613fa657600080fd5b613fb285838601613e36565b60a0840152613fc360c08501613e2b565b60c0840152613fd460e08501613e2b565b60e08401526101009150613fe9828501613e2b565b828401526101209150613ffd828501613e2b565b828401526101409150614011828501613e2b565b828401526101609150614025828501613e2b565b828401526101809150614039828501613e2b565b828401526101a0915061404d828501613c9d565b828401526101c09150818401358181111561406757600080fd5b61407386828701613efa565b8385015250505092915050565b60006020828403121561409257600080fd5b81356001600160401b038111156140a857600080fd5b611e0984828501613f1a565b600081518084526020808501945080840160005b838110156140ed5781516001600160a01b0316875295820195908201906001016140c8565b509495945050505050565b600081518084526020808501945080840160005b838110156140ed57815163ffffffff168752958201959082019060010161410c565b60005b83811015614149578181015183820152602001614131565b50506000910152565b6000815180845261416a81602086016020860161412e565b601f01601f19169290920160200192915050565b60006101e08251845260208301516141a160208601826001600160a01b03169052565b5060408301516141bc60408601826001600160a01b03169052565b506060830151606085015260808301518160808601526141de828601826140b4565b91505060a083015184820360a08601526141f882826140f8565b91505060c083015161421260c086018263ffffffff169052565b5060e083015161422a60e086018263ffffffff169052565b506101008381015163ffffffff9081169186019190915261012080850151821690860152610140808501518216908601526101608085015182169086015261018080850151909116908501526101a0808401516001600160a01b0316908501526101c080840151858303828701526142a28382614152565b9695505050505050565b60018060a01b03815116825260ff602082015116602083015260006040820151608060408501526142e06080850182614152565b606093840151949093019390935250919050565b6000815160c0845261430960c085018261417e565b905062ffffff60208401511660208501526040830151848203604086015261433182826142ac565b9150506060830151848203606086015261434b82826142ac565b915050608083015184820360808601526143658282614152565b91505060ff60a08401511660a08501528091505092915050565b60208152600061145060208301846142f4565b6000602082840312156143a457600080fd5b813561145081613e19565b6000602080830181845280855180835260408601915060408160051b870101925083870160005b8281101561440457603f198886030184526143f28583516142f4565b945092850192908501906001016143d6565b5092979650505050505050565b60008083601f84011261442357600080fd5b5081356001600160401b0381111561443a57600080fd5b6020830191508360208260051b85010111156136e757600080fd5b60008060006040848603121561446a57600080fd5b83356001600160401b0381111561448057600080fd5b61448c86828701614411565b90945092505060208401356144a081613c88565b809150509250925092565b6000806000606084860312156144c057600080fd5b83356144cb81613c88565b925060208401356144db81613c88565b929592945050506040919091013590565b6000602082840312156144fe57600080fd5b81356001600160401b0381111561451457600080fd5b8201601f8101841361452557600080fd5b611e0984823560208401613ec1565b60006020828403121561454657600080fd5b5035919050565b6001600160a01b0391909116815260200190565b6000806040838503121561457457600080fd5b823561457f81613c88565b915060208301356001600160401b0381111561459a57600080fd5b6145a685828601613efa565b9150509250929050565b60008083601f8401126145c257600080fd5b5081356001600160401b038111156145d957600080fd5b6020830191508360208285010111156136e757600080fd5b60008060006040848603121561460657600080fd5b83356001600160401b038082111561461d57600080fd5b61462987838801613f1a565b9450602086013591508082111561463f57600080fd5b5061464c868287016145b0565b9497909650939450505050565b6000602080838503121561466c57600080fd5b82356001600160401b038082111561468357600080fd5b818501915085601f83011261469757600080fd5b81356146a5613dc682613d82565b81815260059190911b830184019084810190888311156146c457600080fd5b8585015b838110156146fc578035858111156146e05760008081fd5b6146ee8b89838a0101613f1a565b8452509186019186016146c8565b5098975050505050505050565b6020808252825182820181905260009190848201906040850190845b8181101561474157835183529284019291840191600101614725565b50909695505050505050565b6000806040838503121561476057600080fd5b823561476b81613e19565b9150602083013561477b81613e19565b809150509250929050565b6000806020838503121561479957600080fd5b82356001600160401b038111156147af57600080fd5b6147bb858286016145b0565b90969095509350505050565b6000602080830181845280855180835260408601915060408160051b870101925083870160005b8281101561440457603f1988860301845261480a85835161417e565b945092850192908501906001016147ee565b602080825282518282018190526000919060409081850190868401855b8281101561486757815180516001600160a01b03168552860151868501529284019290850190600101614839565b5091979650505050505050565b6000806000806040858703121561488a57600080fd5b84356001600160401b03808211156148a157600080fd5b6148ad88838901614411565b909650945060208701359150808211156148c657600080fd5b506148d387828801614411565b95989497509550505050565b600080604083850312156148f257600080fd5b823561476b81613c88565b8d81526001600160a01b038d811660208301528c166040820152606081018b905263ffffffff8a8116608083015289811660a0830152881660c0820152600063ffffffff881660e083015263ffffffff871661010083015263ffffffff861661012083015263ffffffff85166101408301526001600160a01b0384166101608301526101a06101808301526149966101a0830184614152565b9f9e505050505050505050505050505050565b821515815260406020820152600061144d60408301846142f4565b6020815260006114506020830184614152565b6000806000606084860312156149ec57600080fd5b83356149f781613c88565b92506020840135614a0781613e19565b915060408401356144a081613e19565b8051801515811461157b57600080fd5b600060208284031215614a3957600080fd5b61145082614a17565b805162ffffff8116811461157b57600080fd5b600060208284031215614a6757600080fd5b61145082614a42565b805161157b81613c88565b600060208284031215614a8d57600080fd5b815161145081613c88565b600082601f830112614aa957600080fd5b8151614ab7613dc682613e9a565b818152846020838601011115614acc57600080fd5b611e0982602083016020870161412e565b600060208284031215614aef57600080fd5b81516001600160401b03811115614b0557600080fd5b611e0984828501614a98565b805160ff8116811461157b57600080fd5b600060208284031215614b3457600080fd5b61145082614b11565b634e487b7160e01b600052603260045260246000fd5b600060208284031215614b6557600080fd5b5051919050565b634e487b7160e01b600052601160045260246000fd5b63ffffffff818116838216019080821115614b9f57614b9f614b6c565b5092915050565b6020808252602c908201527f46756e6374696f6e206d7573742062652063616c6c6564207468726f7567682060408201526b19195b1959d85d1958d85b1b60a21b606082015260800190565b6020808252602c908201527f46756e6374696f6e206d7573742062652063616c6c6564207468726f7567682060408201526b6163746976652070726f787960a01b606082015260800190565b600181811c90821680614c5257607f821691505b602082108103614c7257634e487b7160e01b600052602260045260246000fd5b50919050565b601f82111561280557600081815260208120601f850160051c81016020861015614c9f5750805b601f850160051c820191505b81811015611cde57828155600101614cab565b81516001600160401b03811115614cd757614cd7613cf1565b614ceb81614ce58454614c3e565b84614c78565b602080601f831160018114614d205760008415614d085750858301515b600019600386901b1c1916600185901b178555611cde565b600085815260208120601f198616915b82811015614d4f57888601518255948401946001909101908401614d30565b5085821015614d6d5787850151600019600388901b60f8161c191681555b5050505050600190811b01905550565b81810381811115610ce257610ce2614b6c565b80820180821115610ce257610ce2614b6c565b600060018201614db557614db5614b6c565b5060010190565b602081526000611450602083018461417e565b60008251614de181846020870161412e565b9190910192915050565b600082601f830112614dfc57600080fd5b81516020614e0c613dc683613d82565b82815260059290921b84018101918181019086841115614e2b57600080fd5b8286015b84811015613e0e578051614e4281613c88565b8352918301918301614e2f565b805161157b81613e19565b600082601f830112614e6b57600080fd5b81516020614e7b613dc683613d82565b82815260059290921b84018101918181019086841115614e9a57600080fd5b8286015b84811015613e0e578051614eb181613e19565b8352918301918301614e9e565b60006101e08284031215614ed157600080fd5b614ed9613d07565b905081518152614eeb60208301614a70565b6020820152614efc60408301614a70565b60408201526060820151606082015260808201516001600160401b0380821115614f2557600080fd5b614f3185838601614deb565b608084015260a0840151915080821115614f4a57600080fd5b614f5685838601614e5a565b60a0840152614f6760c08501614e4f565b60c0840152614f7860e08501614e4f565b60e08401526101009150614f8d828501614e4f565b828401526101209150614fa1828501614e4f565b828401526101409150614fb5828501614e4f565b828401526101609150614fc9828501614e4f565b828401526101809150614fdd828501614e4f565b828401526101a09150614ff1828501614a70565b828401526101c09150818401518181111561500b57600080fd5b61407386828701614a98565b60006080828403121561502957600080fd5b604051608081016001600160401b03828210818311171561504c5761504c613cf1565b816040528293508451915061506082613c88565b81835261506f60208601614b11565b6020840152604085015191508082111561508857600080fd5b5061509585828601614a98565b604083015250606083015160608201525092915050565b600060c082840312156150be57600080fd5b6150c6613d30565b905081516001600160401b03808211156150df57600080fd5b6150eb85838601614ebe565b83526150f960208501614a42565b6020840152604084015191508082111561511257600080fd5b61511e85838601615017565b6040840152606084015191508082111561513757600080fd5b61514385838601615017565b6060840152608084015191508082111561515c57600080fd5b5061516984828501614a98565b60808301525061517b60a08301614b11565b60a082015292915050565b60006020828403121561519857600080fd5b81516001600160401b038111156151ae57600080fd5b611e09848285016150ac565b634e487b7160e01b600052601260045260246000fd5b600063ffffffff808416806151e7576151e76151ba565b92169190910492915050565b63ffffffff81811683821602808216919082811461521357615213614b6c565b505092915050565b6000806040838503121561522e57600080fd5b61523783614a17565b915060208301516001600160401b0381111561525257600080fd5b6145a6858286016150ac565b7f19457468657265756d205369676e6564204d6573736167653a0a00000000000081526000835161529681601a85016020880161412e565b8351908301906152ad81601a84016020880161412e565b01601a01949350505050565b6000826152c8576152c86151ba565b500490565b8082028115828204841417610ce257610ce2614b6c565b634e487b7160e01b600052602160045260246000fdfe360894a13ba1a3210667c828492db98dca3e2076cc3735a920a3ca505d382bbc416464726573733a206c6f772d6c6576656c2064656c65676174652063616c6c206661696c6564a26469706673582212205aacfeec02887342f279b9e9b70d2eabefacf0b84c4dafe784c5b423af5b435b64736f6c63430008110033496e697469616c697a61626c653a20636f6e747261637420697320616c7265617f26b83ff96e1f2b6a682f133852f6798a09c465da95921460cefb3847402498"
}