{
  "address": "0x16cd38b1B54E7abf307Cb2697E2D9321e843d5AA",
  "abi": [
    {
      "inputs": [],
      "stateMutability": "nonpayable",
      "type": "constructor"
    },
    {
      "inputs": [],
      "name": "InvalidDispute",
      "type": "error"
    },
    {
      "inputs": [],
      "name": "InvalidLengths",
      "type": "error"
    },
    {
      "inputs": [],
      "name": "InvalidProof",
      "type": "error"
    },
    {
      "inputs": [],
      "name": "InvalidUninitializedRoot",
      "type": "error"
    },
    {
      "inputs": [],
      "name": "NoDispute",
      "type": "error"
    },
    {
      "inputs": [],
      "name": "NotGovernorOrGuardian",
      "type": "error"
    },
    {
      "inputs": [],
      "name": "NotTrusted",
      "type": "error"
    },
    {
      "inputs": [],
      "name": "NotWhitelisted",
      "type": "error"
    },
    {
      "inputs": [],
      "name": "UnresolvedDispute",
      "type": "error"
    },
    {
      "inputs": [],
      "name": "ZeroAddress",
      "type": "error"
    },
    {
      "anonymous": false,
      "inputs": [
        {
          "indexed": false,
          "internalType": "address",
          "name": "previousAdmin",
          "type": "address"
        },
        {
          "indexed": false,
          "internalType": "address",
          "name": "newAdmin",
          "type": "address"
        }
      ],
      "name": "AdminChanged",
      "type": "event"
    },
    {
      "anonymous": false,
      "inputs": [
        {
          "indexed": true,
          "internalType": "address",
          "name": "beacon",
          "type": "address"
        }
      ],
      "name": "BeaconUpgraded",
      "type": "event"
    },
    {
      "anonymous": false,
      "inputs": [
        {
          "indexed": true,
          "internalType": "address",
          "name": "user",
          "type": "address"
        },
        {
          "indexed": true,
          "internalType": "address",
          "name": "token",
          "type": "address"
        },
        {
          "indexed": false,
          "internalType": "uint256",
          "name": "amount",
          "type": "uint256"
        }
      ],
      "name": "Claimed",
      "type": "event"
    },
    {
      "anonymous": false,
      "inputs": [
        {
          "indexed": false,
          "internalType": "uint256",
          "name": "_disputeAmount",
          "type": "uint256"
        }
      ],
      "name": "DisputeAmountUpdated",
      "type": "event"
    },
    {
      "anonymous": false,
      "inputs": [
        {
          "indexed": false,
          "internalType": "uint48",
          "name": "_disputePeriod",
          "type": "uint48"
        }
      ],
      "name": "DisputePeriodUpdated",
      "type": "event"
    },
    {
      "anonymous": false,
      "inputs": [
        {
          "indexed": false,
          "internalType": "bool",
          "name": "valid",
          "type": "bool"
        }
      ],
      "name": "DisputeResolved",
      "type": "event"
    },
    {
      "anonymous": false,
      "inputs": [
        {
          "indexed": true,
          "internalType": "address",
          "name": "_disputeToken",
          "type": "address"
        }
      ],
      "name": "DisputeTokenUpdated",
      "type": "event"
    },
    {
      "anonymous": false,
      "inputs": [
        {
          "indexed": false,
          "internalType": "string",
          "name": "reason",
          "type": "string"
        }
      ],
      "name": "Disputed",
      "type": "event"
    },
    {
      "anonymous": false,
      "inputs": [
        {
          "indexed": false,
          "internalType": "uint8",
          "name": "version",
          "type": "uint8"
        }
      ],
      "name": "Initialized",
      "type": "event"
    },
    {
      "anonymous": false,
      "inputs": [
        {
          "indexed": true,
          "internalType": "address",
          "name": "user",
          "type": "address"
        },
        {
          "indexed": false,
          "internalType": "bool",
          "name": "isEnabled",
          "type": "bool"
        }
      ],
      "name": "OperatorClaimingToggled",
      "type": "event"
    },
    {
      "anonymous": false,
      "inputs": [
        {
          "indexed": true,
          "internalType": "address",
          "name": "user",
          "type": "address"
        },
        {
          "indexed": true,
          "internalType": "address",
          "name": "operator",
          "type": "address"
        },
        {
          "indexed": false,
          "internalType": "bool",
          "name": "isWhitelisted",
          "type": "bool"
        }
      ],
      "name": "OperatorToggled",
      "type": "event"
    },
    {
      "anonymous": false,
      "inputs": [
        {
          "indexed": true,
          "internalType": "address",
          "name": "token",
          "type": "address"
        },
        {
          "indexed": true,
          "internalType": "address",
          "name": "to",
          "type": "address"
        },
        {
          "indexed": false,
          "internalType": "uint256",
          "name": "amount",
          "type": "uint256"
        }
      ],
      "name": "Recovered",
      "type": "event"
    },
    {
      "anonymous": false,
      "inputs": [],
      "name": "Revoked",
      "type": "event"
    },
    {
      "anonymous": false,
      "inputs": [
        {
          "indexed": false,
          "internalType": "bytes32",
          "name": "merkleRoot",
          "type": "bytes32"
        },
        {
          "indexed": false,
          "internalType": "bytes32",
          "name": "ipfsHash",
          "type": "bytes32"
        },
        {
          "indexed": false,
          "internalType": "uint48",
          "name": "endOfDisputePeriod",
          "type": "uint48"
        }
      ],
      "name": "TreeUpdated",
      "type": "event"
    },
    {
      "anonymous": false,
      "inputs": [
        {
          "indexed": true,
          "internalType": "address",
          "name": "eoa",
          "type": "address"
        },
        {
          "indexed": false,
          "internalType": "bool",
          "name": "trust",
          "type": "bool"
        }
      ],
      "name": "TrustedToggled",
      "type": "event"
    },
    {
      "anonymous": false,
      "inputs": [
        {
          "indexed": true,
          "internalType": "address",
          "name": "implementation",
          "type": "address"
        }
      ],
      "name": "Upgraded",
      "type": "event"
    },
    {
      "inputs": [
        {
          "internalType": "address",
          "name": "",
          "type": "address"
        }
      ],
      "name": "canUpdateMerkleRoot",
      "outputs": [
        {
          "internalType": "uint256",
          "name": "",
          "type": "uint256"
        }
      ],
      "stateMutability": "view",
      "type": "function"
    },
    {
      "inputs": [
        {
          "internalType": "address[]",
          "name": "users",
          "type": "address[]"
        },
        {
          "internalType": "address[]",
          "name": "tokens",
          "type": "address[]"
        },
        {
          "internalType": "uint256[]",
          "name": "amounts",
          "type": "uint256[]"
        },
        {
          "internalType": "bytes32[][]",
          "name": "proofs",
          "type": "bytes32[][]"
        }
      ],
      "name": "claim",
      "outputs": [],
      "stateMutability": "nonpayable",
      "type": "function"
    },
    {
      "inputs": [
        {
          "internalType": "address",
          "name": "",
          "type": "address"
        },
        {
          "internalType": "address",
          "name": "",
          "type": "address"
        }
      ],
      "name": "claimed",
      "outputs": [
        {
          "internalType": "uint208",
          "name": "amount",
          "type": "uint208"
        },
        {
          "internalType": "uint48",
          "name": "timestamp",
          "type": "uint48"
        },
        {
          "internalType": "bytes32",
          "name": "merkleRoot",
          "type": "bytes32"
        }
      ],
      "stateMutability": "view",
      "type": "function"
    },
    {
      "inputs": [],
      "name": "core",
      "outputs": [
        {
          "internalType": "contract ICore",
          "name": "",
          "type": "address"
        }
      ],
      "stateMutability": "view",
      "type": "function"
    },
    {
      "inputs": [],
      "name": "disputeAmount",
      "outputs": [
        {
          "internalType": "uint256",
          "name": "",
          "type": "uint256"
        }
      ],
      "stateMutability": "view",
      "type": "function"
    },
    {
      "inputs": [],
      "name": "disputePeriod",
      "outputs": [
        {
          "internalType": "uint48",
          "name": "",
          "type": "uint48"
        }
      ],
      "stateMutability": "view",
      "type": "function"
    },
    {
      "inputs": [],
      "name": "disputeToken",
      "outputs": [
        {
          "internalType": "contract IERC20",
          "name": "",
          "type": "address"
        }
      ],
      "stateMutability": "view",
      "type": "function"
    },
    {
      "inputs": [
        {
          "internalType": "string",
          "name": "reason",
          "type": "string"
        }
      ],
      "name": "disputeTree",
      "outputs": [],
      "stateMutability": "nonpayable",
      "type": "function"
    },
    {
      "inputs": [],
      "name": "disputer",
      "outputs": [
        {
          "internalType": "address",
          "name": "",
          "type": "address"
        }
      ],
      "stateMutability": "view",
      "type": "function"
    },
    {
      "inputs": [],
      "name": "endOfDisputePeriod",
      "outputs": [
        {
          "internalType": "uint48",
          "name": "",
          "type": "uint48"
        }
      ],
      "stateMutability": "view",
      "type": "function"
    },
    {
      "inputs": [],
      "name": "getMerkleRoot",
      "outputs": [
        {
          "internalType": "bytes32",
          "name": "",
          "type": "bytes32"
        }
      ],
      "stateMutability": "view",
      "type": "function"
    },
    {
      "inputs": [
        {
          "internalType": "contract ICore",
          "name": "_core",
          "type": "address"
        }
      ],
      "name": "initialize",
      "outputs": [],
      "stateMutability": "nonpayable",
      "type": "function"
    },
    {
      "inputs": [],
      "name": "lastTree",
      "outputs": [
        {
          "internalType": "bytes32",
          "name": "merkleRoot",
          "type": "bytes32"
        },
        {
          "internalType": "bytes32",
          "name": "ipfsHash",
          "type": "bytes32"
        }
      ],
      "stateMutability": "view",
      "type": "function"
    },
    {
      "inputs": [
        {
          "internalType": "address",
          "name": "",
          "type": "address"
        }
      ],
      "name": "onlyOperatorCanClaim",
      "outputs": [
        {
          "internalType": "uint256",
          "name": "",
          "type": "uint256"
        }
      ],
      "stateMutability": "view",
      "type": "function"
    },
    {
      "inputs": [
        {
          "internalType": "address",
          "name": "",
          "type": "address"
        },
        {
          "internalType": "address",
          "name": "",
          "type": "address"
        }
      ],
      "name": "operators",
      "outputs": [
        {
          "internalType": "uint256",
          "name": "",
          "type": "uint256"
        }
      ],
      "stateMutability": "view",
      "type": "function"
    },
    {
      "inputs": [],
      "name": "proxiableUUID",
      "outputs": [
        {
          "internalType": "bytes32",
          "name": "",
          "type": "bytes32"
        }
      ],
      "stateMutability": "view",
      "type": "function"
    },
    {
      "inputs": [
        {
          "internalType": "address",
          "name": "tokenAddress",
          "type": "address"
        },
        {
          "internalType": "address",
          "name": "to",
          "type": "address"
        },
        {
          "internalType": "uint256",
          "name": "amountToRecover",
          "type": "uint256"
        }
      ],
      "name": "recoverERC20",
      "outputs": [],
      "stateMutability": "nonpayable",
      "type": "function"
    },
    {
      "inputs": [
        {
          "internalType": "bool",
          "name": "valid",
          "type": "bool"
        }
      ],
      "name": "resolveDispute",
      "outputs": [],
      "stateMutability": "nonpayable",
      "type": "function"
    },
    {
      "inputs": [],
      "name": "revokeTree",
      "outputs": [],
      "stateMutability": "nonpayable",
      "type": "function"
    },
    {
      "inputs": [
        {
          "internalType": "uint256",
          "name": "_disputeAmount",
          "type": "uint256"
        }
      ],
      "name": "setDisputeAmount",
      "outputs": [],
      "stateMutability": "nonpayable",
      "type": "function"
    },
    {
      "inputs": [
        {
          "internalType": "uint48",
          "name": "_disputePeriod",
          "type": "uint48"
        }
      ],
      "name": "setDisputePeriod",
      "outputs": [],
      "stateMutability": "nonpayable",
      "type": "function"
    },
    {
      "inputs": [
        {
          "internalType": "contract IERC20",
          "name": "_disputeToken",
          "type": "address"
        }
      ],
      "name": "setDisputeToken",
      "outputs": [],
      "stateMutability": "nonpayable",
      "type": "function"
    },
    {
      "inputs": [
        {
          "internalType": "address",
          "name": "user",
          "type": "address"
        }
      ],
      "name": "toggleOnlyOperatorCanClaim",
      "outputs": [],
      "stateMutability": "nonpayable",
      "type": "function"
    },
    {
      "inputs": [
        {
          "internalType": "address",
          "name": "user",
          "type": "address"
        },
        {
          "internalType": "address",
          "name": "operator",
          "type": "address"
        }
      ],
      "name": "toggleOperator",
      "outputs": [],
      "stateMutability": "nonpayable",
      "type": "function"
    },
    {
      "inputs": [
        {
          "internalType": "address",
          "name": "eoa",
          "type": "address"
        }
      ],
      "name": "toggleTrusted",
      "outputs": [],
      "stateMutability": "nonpayable",
      "type": "function"
    },
    {
      "inputs": [],
      "name": "tree",
      "outputs": [
        {
          "internalType": "bytes32",
          "name": "merkleRoot",
          "type": "bytes32"
        },
        {
          "internalType": "bytes32",
          "name": "ipfsHash",
          "type": "bytes32"
        }
      ],
      "stateMutability": "view",
      "type": "function"
    },
    {
      "inputs": [
        {
          "components": [
            {
              "internalType": "bytes32",
              "name": "merkleRoot",
              "type": "bytes32"
            },
            {
              "internalType": "bytes32",
              "name": "ipfsHash",
              "type": "bytes32"
            }
          ],
          "internalType": "struct MerkleTree",
          "name": "_tree",
          "type": "tuple"
        }
      ],
      "name": "updateTree",
      "outputs": [],
      "stateMutability": "nonpayable",
      "type": "function"
    },
    {
      "inputs": [
        {
          "internalType": "address",
          "name": "newImplementation",
          "type": "address"
        }
      ],
      "name": "upgradeTo",
      "outputs": [],
      "stateMutability": "nonpayable",
      "type": "function"
    },
    {
      "inputs": [
        {
          "internalType": "address",
          "name": "newImplementation",
          "type": "address"
        },
        {
          "internalType": "bytes",
          "name": "data",
          "type": "bytes"
        }
      ],
      "name": "upgradeToAndCall",
      "outputs": [],
      "stateMutability": "payable",
      "type": "function"
    }
  ],
  "transactionHash": "0xdc1bbed352c8eb49f0fe231b2b7f7ee8676ca419690d6462a989ef9f4b9edeb9",
  "args": [],
  "numDeployments": 1,
  "solcInputHash": "7d9331229ac1058bbc9ef9ac646bc1a7",
  "bytecode": "0x60a0604052306080523480156200001557600080fd5b50600054610100900460ff1615808015620000375750600054600160ff909116105b8062000067575062000054306200022060201b620022ed1760201c565b15801562000067575060005460ff166001145b620000bf5760405162461bcd60e51b815260206004820152602e60248201526000805160206200391683398151915260448201526d191e481a5b9a5d1a585b1a5e995960921b60648201526084015b60405180910390fd5b6000805460ff191660011790558015620000e3576000805461ff0019166101001790555b801562000119576000805461ff001916905560405160018152600080516020620039368339815191529060200160405180910390a15b50600054610100900460ff16158080156200013b5750600054600160ff909116105b806200016b575062000158306200022060201b620022ed1760201c565b1580156200016b575060005460ff166001145b620001bf5760405162461bcd60e51b815260206004820152602e60248201526000805160206200391683398151915260448201526d191e481a5b9a5d1a585b1a5e995960921b6064820152608401620000b6565b6000805460ff191660011790558015620001e3576000805461ff0019166101001790555b801562000219576000805461ff001916905560405160018152600080516020620039368339815191529060200160405180910390a15b506200022f565b6001600160a01b03163b151590565b6080516136af6200026760003960008181610c4a01528181610cff01528181610ff9015281816110a901526111f201526136af6000f3fe6080604052600436106101c25760003560e01c80635cec892a116100f7578063bdac7ca311610095578063d9c9808711610064578063d9c9808714610626578063e57480e514610646578063f2f4eb2614610673578063fd54b228146106a057600080fd5b8063bdac7ca314610589578063c4d66de8146105a9578063c748d261146105c9578063cce80e7a146105f657600080fd5b806371ee95c0116100d157806371ee95c0146105145780637ee843491461053457806389e1e82a14610554578063957888351461057457600080fd5b80635cec892a1461046b578063623b9e9d146104a25780636ac56103146104c257600080fd5b80632a25dd4111610164578063495906571161013e57806349590657146103da5780634f1ef286146103ef57806352d1902d146104025780635bf31d4d1461041757600080fd5b80632a25dd411461037a5780633659cfe61461039a5780634641fdef146103ba57600080fd5b80631171bda9116101a05780631171bda9146102d557806314769142146102f55780632637588e14610322578063288278381461035a57600080fd5b806309454ba3146101c75780630c9cbf0e146101f05780630d10fca3146102b3575b600080fd5b3480156101d357600080fd5b506101dd606c5481565b6040519081526020015b60405180910390f35b3480156101fc57600080fd5b5061027461020b36600461305c565b606d6020908152600092835260408084209091529082529020805460019091015479ffffffffffffffffffffffffffffffffffffffffffffffffffff8216917a010000000000000000000000000000000000000000000000000000900465ffffffffffff169083565b6040805179ffffffffffffffffffffffffffffffffffffffffffffffffffff909416845265ffffffffffff9092166020840152908201526060016101e7565b3480156102bf57600080fd5b506102d36102ce366004613095565b6106bb565b005b3480156102e157600080fd5b506102d36102f03660046130ae565b61080f565b34801561030157600080fd5b506101dd6103103660046130ef565b606f6020526000908152604090205481565b34801561032e57600080fd5b506101dd61033d36600461305c565b607060209081526000928352604080842090915290825290205481565b34801561036657600080fd5b506102d36103753660046130ef565b610964565b34801561038657600080fd5b506102d36103953660046131cf565b610b02565b3480156103a657600080fd5b506102d36103b53660046130ef565b610c33565b3480156103c657600080fd5b506102d36103d5366004613218565b610e3d565b3480156103e657600080fd5b506101dd610f84565b6102d36103fd366004613240565b610fe2565b34801561040e57600080fd5b506101dd6111d8565b34801561042357600080fd5b50606b54610454907a010000000000000000000000000000000000000000000000000000900465ffffffffffff1681565b60405165ffffffffffff90911681526020016101e7565b34801561047757600080fd5b50606b546104549074010000000000000000000000000000000000000000900465ffffffffffff1681565b3480156104ae57600080fd5b506102d36104bd3660046130ef565b6112c4565b3480156104ce57600080fd5b50606b546104ef9073ffffffffffffffffffffffffffffffffffffffff1681565b60405173ffffffffffffffffffffffffffffffffffffffff90911681526020016101e7565b34801561052057600080fd5b506102d361052f3660046132f0565b61144b565b34801561054057600080fd5b506102d361054f3660046130ef565b611885565b34801561056057600080fd5b506102d361056f3660046133c2565b6119e6565b34801561058057600080fd5b506102d3611bf0565b34801561059557600080fd5b506102d36105a436600461305c565b611d12565b3480156105b557600080fd5b506102d36105c43660046130ef565b611ecd565b3480156105d557600080fd5b506069546104ef9073ffffffffffffffffffffffffffffffffffffffff1681565b34801561060257600080fd5b50606754606854610611919082565b604080519283526020830191909152016101e7565b34801561063257600080fd5b506102d36106413660046133df565b6120e4565b34801561065257600080fd5b506101dd6106613660046130ef565b606e6020526000908152604090205481565b34801561067f57600080fd5b50606a546104ef9073ffffffffffffffffffffffffffffffffffffffff1681565b3480156106ac57600080fd5b50606554606654610611919082565b606a546040517f521d4de900000000000000000000000000000000000000000000000000000000815233600482015273ffffffffffffffffffffffffffffffffffffffff9091169063521d4de990602401602060405180830381865afa158015610729573d6000803e3d6000fd5b505050506040513d601f19601f8201168201806040525081019061074d91906133f7565b610783576040517f99e120bc00000000000000000000000000000000000000000000000000000000815260040160405180910390fd5b606b5473ffffffffffffffffffffffffffffffffffffffff16156107d3576040517f0583257400000000000000000000000000000000000000000000000000000000815260040160405180910390fd5b606c8190556040518181527f39bb629f3d59f5eddf978050e1f5fabeca2b5d02dfc9c25e84f32e7da1069db4906020015b60405180910390a150565b606a546040517f521d4de900000000000000000000000000000000000000000000000000000000815233600482015273ffffffffffffffffffffffffffffffffffffffff9091169063521d4de990602401602060405180830381865afa15801561087d573d6000803e3d6000fd5b505050506040513d601f19601f820116820180604052508101906108a191906133f7565b6108d7576040517f99e120bc00000000000000000000000000000000000000000000000000000000815260040160405180910390fd5b6108f873ffffffffffffffffffffffffffffffffffffffff84168383612309565b8173ffffffffffffffffffffffffffffffffffffffff168373ffffffffffffffffffffffffffffffffffffffff167ffff3b3844276f57024e0b42afec1a37f75db36511e43819a4f2a63ab7862b6488360405161095791815260200190565b60405180910390a3505050565b8073ffffffffffffffffffffffffffffffffffffffff8116331480159061099b5750336000908152606e6020526040902054600114155b8015610a365750606a546040517f521d4de900000000000000000000000000000000000000000000000000000000815233600482015273ffffffffffffffffffffffffffffffffffffffff9091169063521d4de990602401602060405180830381865afa158015610a10573d6000803e3d6000fd5b505050506040513d601f19601f82011682018060405250810190610a3491906133f7565b155b15610a6d576040517fc22a648e00000000000000000000000000000000000000000000000000000000815260040160405180910390fd5b73ffffffffffffffffffffffffffffffffffffffff82166000908152606f6020526040902054610a9e816001613443565b73ffffffffffffffffffffffffffffffffffffffff84166000818152606f602090815260409182902093909355518315815290917f81d714ca01079a19c106993b49b2764df6bb6abe740164ef7b77ee9c100a024a910160405180910390a2505050565b606b5473ffffffffffffffffffffffffffffffffffffffff1615610b52576040517f0583257400000000000000000000000000000000000000000000000000000000815260040160405180910390fd5b606b5474010000000000000000000000000000000000000000900465ffffffffffff164210610bad576040517f1a8f039500000000000000000000000000000000000000000000000000000000815260040160405180910390fd5b606c54606954610bd99173ffffffffffffffffffffffffffffffffffffffff90911690339030906123e2565b606b80547fffffffffffffffffffffffff000000000000000000000000000000000000000016331790556040517f5eca00b8ed745eee61451333090bfa56aa1f2a9e696a2aebe5f1f5b6cef6f2ff9061080490839061347a565b73ffffffffffffffffffffffffffffffffffffffff7f0000000000000000000000000000000000000000000000000000000000000000163003610cfd576040517f08c379a000000000000000000000000000000000000000000000000000000000815260206004820152602c60248201527f46756e6374696f6e206d7573742062652063616c6c6564207468726f7567682060448201527f64656c656761746563616c6c000000000000000000000000000000000000000060648201526084015b60405180910390fd5b7f000000000000000000000000000000000000000000000000000000000000000073ffffffffffffffffffffffffffffffffffffffff16610d727f360894a13ba1a3210667c828492db98dca3e2076cc3735a920a3ca505d382bbc5473ffffffffffffffffffffffffffffffffffffffff1690565b73ffffffffffffffffffffffffffffffffffffffff1614610e15576040517f08c379a000000000000000000000000000000000000000000000000000000000815260206004820152602c60248201527f46756e6374696f6e206d7573742062652063616c6c6564207468726f7567682060448201527f6163746976652070726f787900000000000000000000000000000000000000006064820152608401610cf4565b610e1e81612446565b60408051600080825260208201909252610e3a91839190612530565b50565b606a546040517f521d4de900000000000000000000000000000000000000000000000000000000815233600482015273ffffffffffffffffffffffffffffffffffffffff9091169063521d4de990602401602060405180830381865afa158015610eab573d6000803e3d6000fd5b505050506040513d601f19601f82011682018060405250810190610ecf91906133f7565b610f05576040517f99e120bc00000000000000000000000000000000000000000000000000000000815260040160405180910390fd5b606b805479ffffffffffffffffffffffffffffffffffffffffffffffffffff167a01000000000000000000000000000000000000000000000000000065ffffffffffff8416908102919091179091556040519081527ffdf22e84af74bd4ab6b9646f6370a02bc886ed6ac25882db14e4ebf4b8e3bc7e90602001610804565b606b5460009074010000000000000000000000000000000000000000900465ffffffffffff164210801590610fcf5750606b5473ffffffffffffffffffffffffffffffffffffffff16155b15610fdb575060655490565b5060675490565b73ffffffffffffffffffffffffffffffffffffffff7f00000000000000000000000000000000000000000000000000000000000000001630036110a7576040517f08c379a000000000000000000000000000000000000000000000000000000000815260206004820152602c60248201527f46756e6374696f6e206d7573742062652063616c6c6564207468726f7567682060448201527f64656c656761746563616c6c00000000000000000000000000000000000000006064820152608401610cf4565b7f000000000000000000000000000000000000000000000000000000000000000073ffffffffffffffffffffffffffffffffffffffff1661111c7f360894a13ba1a3210667c828492db98dca3e2076cc3735a920a3ca505d382bbc5473ffffffffffffffffffffffffffffffffffffffff1690565b73ffffffffffffffffffffffffffffffffffffffff16146111bf576040517f08c379a000000000000000000000000000000000000000000000000000000000815260206004820152602c60248201527f46756e6374696f6e206d7573742062652063616c6c6564207468726f7567682060448201527f6163746976652070726f787900000000000000000000000000000000000000006064820152608401610cf4565b6111c882612446565b6111d482826001612530565b5050565b60003073ffffffffffffffffffffffffffffffffffffffff7f0000000000000000000000000000000000000000000000000000000000000000161461129f576040517f08c379a000000000000000000000000000000000000000000000000000000000815260206004820152603860248201527f555550535570677261646561626c653a206d757374206e6f742062652063616c60448201527f6c6564207468726f7567682064656c656761746563616c6c00000000000000006064820152608401610cf4565b507f360894a13ba1a3210667c828492db98dca3e2076cc3735a920a3ca505d382bbc90565b606a546040517f521d4de900000000000000000000000000000000000000000000000000000000815233600482015273ffffffffffffffffffffffffffffffffffffffff9091169063521d4de990602401602060405180830381865afa158015611332573d6000803e3d6000fd5b505050506040513d601f19601f8201168201806040525081019061135691906133f7565b61138c576040517f99e120bc00000000000000000000000000000000000000000000000000000000815260040160405180910390fd5b606b5473ffffffffffffffffffffffffffffffffffffffff16156113dc576040517f0583257400000000000000000000000000000000000000000000000000000000815260040160405180910390fd5b606980547fffffffffffffffffffffffff00000000000000000000000000000000000000001673ffffffffffffffffffffffffffffffffffffffff83169081179091556040517f1db8d6629941dcb63d5e0c927b89c174c714e139a4b9107a49de839d755f5d7490600090a250565b868015806114595750808614155b806114645750808414155b8061146f5750808214155b156114a6576040517f1df89e8b00000000000000000000000000000000000000000000000000000000815260040160405180910390fd5b60005b818110156118795760008a8a838181106114c5576114c56134cb565b90506020020160208101906114da91906130ef565b905060008989848181106114f0576114f06134cb565b905060200201602081019061150591906130ef565b9050600088888581811061151b5761151b6134cb565b905060200201359050606f60008473ffffffffffffffffffffffffffffffffffffffff1673ffffffffffffffffffffffffffffffffffffffff1681526020019081526020016000205460011480156115a1575073ffffffffffffffffffffffffffffffffffffffff83166000908152607060209081526040808320338452909152902054155b156115d8576040517f584a793800000000000000000000000000000000000000000000000000000000815260040160405180910390fd5b6040805173ffffffffffffffffffffffffffffffffffffffff8086166020830152841691810191909152606081018290526000906080016040516020818303038152906040528051906020012090506116868189898881811061163d5761163d6134cb565b905060200281019061164f91906134fa565b8080602002602001604051908101604052809392919081815260200183836020028082843760009201919091525061272f92505050565b6116bc576040517f09bde33900000000000000000000000000000000000000000000000000000000815260040160405180910390fd5b73ffffffffffffffffffffffffffffffffffffffff8085166000908152606d602090815260408083209387168352929052908120546117179079ffffffffffffffffffffffffffffffffffffffffffffffffffff1684613443565b9050604051806060016040528061172d8561285b565b79ffffffffffffffffffffffffffffffffffffffffffffffffffff1681526020014265ffffffffffff168152602001611764610f84565b905273ffffffffffffffffffffffffffffffffffffffff8087166000908152606d602090815260408083209389168084529382529182902084519185015165ffffffffffff167a0100000000000000000000000000000000000000000000000000000279ffffffffffffffffffffffffffffffffffffffffffffffffffff909216919091178155920151600190920191909155611802908683612309565b8373ffffffffffffffffffffffffffffffffffffffff168573ffffffffffffffffffffffffffffffffffffffff167ff7a40077ff7a04c7e61f6f26fb13774259ddf1b6bce9ecf26a8276cdd39926838360405161186191815260200190565b60405180910390a385600101955050505050506114a9565b50505050505050505050565b606a546040517f521d4de900000000000000000000000000000000000000000000000000000000815233600482015273ffffffffffffffffffffffffffffffffffffffff9091169063521d4de990602401602060405180830381865afa1580156118f3573d6000803e3d6000fd5b505050506040513d601f19601f8201168201806040525081019061191791906133f7565b61194d576040517f99e120bc00000000000000000000000000000000000000000000000000000000815260040160405180910390fd5b73ffffffffffffffffffffffffffffffffffffffff81166000908152606e602052604081205461197e906001613443565b73ffffffffffffffffffffffffffffffffffffffff83166000818152606e6020908152604091829020849055905160018414815292935090917f7628ea5f6112a16b36a8239aa208395a8e8f221688cfb3a5461faffb9700abcd910160405180910390a25050565b606a546040517f521d4de900000000000000000000000000000000000000000000000000000000815233600482015273ffffffffffffffffffffffffffffffffffffffff9091169063521d4de990602401602060405180830381865afa158015611a54573d6000803e3d6000fd5b505050506040513d601f19601f82011682018060405250810190611a7891906133f7565b611aae576040517f99e120bc00000000000000000000000000000000000000000000000000000000815260040160405180910390fd5b606b5473ffffffffffffffffffffffffffffffffffffffff16611afd576040517f9375474800000000000000000000000000000000000000000000000000000000815260040160405180910390fd5b8015611b3e57606b54606c54606954611b319273ffffffffffffffffffffffffffffffffffffffff91821692911690612309565b611b3961290b565b611b96565b606c54606954611b689173ffffffffffffffffffffffffffffffffffffffff909116903390612309565b611b71426129e1565b606b60146101000a81548165ffffffffffff021916908365ffffffffffff1602179055505b606b80547fffffffffffffffffffffffff000000000000000000000000000000000000000016905560405181151581527f8015c5005d9ad5d85ca80d3f894f08e0159277704c54166e5cff108800fa80cd90602001610804565b606a546040517f521d4de900000000000000000000000000000000000000000000000000000000815233600482015273ffffffffffffffffffffffffffffffffffffffff9091169063521d4de990602401602060405180830381865afa158015611c5e573d6000803e3d6000fd5b505050506040513d601f19601f82011682018060405250810190611c8291906133f7565b611cb8576040517f99e120bc00000000000000000000000000000000000000000000000000000000815260040160405180910390fd5b606b5473ffffffffffffffffffffffffffffffffffffffff1615611d08576040517f0583257400000000000000000000000000000000000000000000000000000000815260040160405180910390fd5b611d1061290b565b565b8173ffffffffffffffffffffffffffffffffffffffff81163314801590611d495750336000908152606e6020526040902054600114155b8015611de45750606a546040517f521d4de900000000000000000000000000000000000000000000000000000000815233600482015273ffffffffffffffffffffffffffffffffffffffff9091169063521d4de990602401602060405180830381865afa158015611dbe573d6000803e3d6000fd5b505050506040513d601f19601f82011682018060405250810190611de291906133f7565b155b15611e1b576040517fc22a648e00000000000000000000000000000000000000000000000000000000815260040160405180910390fd5b73ffffffffffffffffffffffffffffffffffffffff808416600090815260706020908152604080832093861683529290522054611e59816001613443565b73ffffffffffffffffffffffffffffffffffffffff858116600081815260706020908152604080832094891680845294825291829020949094555184158152919290917f42343f44c66ea1eaffa334760d3da2cb731d2a0b3b3e30423df997faa36cc95c910160405180910390a350505050565b600054610100900460ff1615808015611eed5750600054600160ff909116105b80611f075750303b158015611f07575060005460ff166001145b611f93576040517f08c379a000000000000000000000000000000000000000000000000000000000815260206004820152602e60248201527f496e697469616c697a61626c653a20636f6e747261637420697320616c72656160448201527f647920696e697469616c697a65640000000000000000000000000000000000006064820152608401610cf4565b600080547fffffffffffffffffffffffffffffffffffffffffffffffffffffffffffffff001660011790558015611ff157600080547fffffffffffffffffffffffffffffffffffffffffffffffffffffffffffff00ff166101001790555b73ffffffffffffffffffffffffffffffffffffffff821661203e576040517fd92e233d00000000000000000000000000000000000000000000000000000000815260040160405180910390fd5b606a80547fffffffffffffffffffffffff00000000000000000000000000000000000000001673ffffffffffffffffffffffffffffffffffffffff841617905580156111d457600080547fffffffffffffffffffffffffffffffffffffffffffffffffffffffffffff00ff169055604051600181527f7f26b83ff96e1f2b6a682f133852f6798a09c465da95921460cefb38474024989060200160405180910390a15050565b606b5473ffffffffffffffffffffffffffffffffffffffff161515806121e05750336000908152606e602052604090205460011415806121455750606b5474010000000000000000000000000000000000000000900465ffffffffffff1642105b80156121e05750606a546040517f521d4de900000000000000000000000000000000000000000000000000000000815233600482015273ffffffffffffffffffffffffffffffffffffffff9091169063521d4de990602401602060405180830381865afa1580156121ba573d6000803e3d6000fd5b505050506040513d601f19601f820116820180604052508101906121de91906133f7565b155b15612217576040517fc22a648e00000000000000000000000000000000000000000000000000000000815260040160405180910390fd5b604080518082019091526065805480835260668054602080860182905286359094559285013590556067556068556000612250426129e1565b606b80547fffffffffffff000000000000ffffffffffffffffffffffffffffffffffffffff167401000000000000000000000000000000000000000065ffffffffffff841690810291909117909155604080518635815260208088013590820152908101919091529091507f23aa2e4f757a7bd974085d3e11439a843b137b30905e3ffd51b2097c34aef62e9060600160405180910390a1505050565b73ffffffffffffffffffffffffffffffffffffffff163b151590565b60405173ffffffffffffffffffffffffffffffffffffffff83166024820152604481018290526123dd9084907fa9059cbb00000000000000000000000000000000000000000000000000000000906064015b604080517fffffffffffffffffffffffffffffffffffffffffffffffffffffffffffffffe08184030181529190526020810180517bffffffffffffffffffffffffffffffffffffffffffffffffffffffff167fffffffff0000000000000000000000000000000000000000000000000000000090931692909217909152612a46565b505050565b60405173ffffffffffffffffffffffffffffffffffffffff808516602483015283166044820152606481018290526124409085907f23b872dd000000000000000000000000000000000000000000000000000000009060840161235b565b50505050565b606a5473ffffffffffffffffffffffffffffffffffffffff1680158015906124f957506040517f521d4de900000000000000000000000000000000000000000000000000000000815233600482015273ffffffffffffffffffffffffffffffffffffffff82169063521d4de990602401602060405180830381865afa1580156124d3573d6000803e3d6000fd5b505050506040513d601f19601f820116820180604052508101906124f791906133f7565b155b156111d4576040517f99e120bc00000000000000000000000000000000000000000000000000000000815260040160405180910390fd5b7f4910fdfa16fed3260ed0e7147f7cc6da11a60208b5b9406d12a635614ffd91435460ff1615612563576123dd83612b52565b8273ffffffffffffffffffffffffffffffffffffffff166352d1902d6040518163ffffffff1660e01b8152600401602060405180830381865afa9250505080156125e8575060408051601f3d9081017fffffffffffffffffffffffffffffffffffffffffffffffffffffffffffffffe01682019092526125e591810190613562565b60015b612674576040517f08c379a000000000000000000000000000000000000000000000000000000000815260206004820152602e60248201527f45524331393637557067726164653a206e657720696d706c656d656e7461746960448201527f6f6e206973206e6f7420555550530000000000000000000000000000000000006064820152608401610cf4565b7f360894a13ba1a3210667c828492db98dca3e2076cc3735a920a3ca505d382bbc8114612723576040517f08c379a000000000000000000000000000000000000000000000000000000000815260206004820152602960248201527f45524331393637557067726164653a20756e737570706f727465642070726f7860448201527f6961626c655555494400000000000000000000000000000000000000000000006064820152608401610cf4565b506123dd838383612c5c565b80516000908390825b8181101561280957848181518110612752576127526134cb565b60200260200101518310156127b35782858281518110612774576127746134cb565b6020026020010151604051602001612796929190918252602082015260400190565b604051602081830303815290604052805190602001209250612801565b8481815181106127c5576127c56134cb565b6020026020010151836040516020016127e8929190918252602082015260400190565b6040516020818303038152906040528051906020012092505b600101612738565b506000612814610f84565b90508061284d576040517f094ad65800000000000000000000000000000000000000000000000000000000815260040160405180910390fd5b919091149150505b92915050565b600079ffffffffffffffffffffffffffffffffffffffffffffffffffff821115612907576040517f08c379a000000000000000000000000000000000000000000000000000000000815260206004820152602760248201527f53616665436173743a2076616c756520646f65736e27742066697420696e203260448201527f30382062697473000000000000000000000000000000000000000000000000006064820152608401610cf4565b5090565b60408051808201825260675480825260685460208301819052606b80547fffffffffffff000000000000ffffffffffffffffffffffffffffffffffffffff16905560659190915560665590517f44825a4b2df8acb19ce4e1afba9aa850c8b65cdb7942e2078f27d0b0960efee690600090a1805160208201517f23aa2e4f757a7bd974085d3e11439a843b137b30905e3ffd51b2097c34aef62e9190610e106129b4814261357b565b6129be91906135c7565b60408051938452602084019290925265ffffffffffff1690820152606001610804565b606b54600090610e10907a010000000000000000000000000000000000000000000000000000900465ffffffffffff1681612a1d6001866135f1565b612a27919061357b565b612a32906001613617565b612a3c9190613617565b61285591906135c7565b6000612aa8826040518060400160405280602081526020017f5361666545524332303a206c6f772d6c6576656c2063616c6c206661696c65648152508573ffffffffffffffffffffffffffffffffffffffff16612c819092919063ffffffff16565b8051909150156123dd5780806020019051810190612ac691906133f7565b6123dd576040517f08c379a000000000000000000000000000000000000000000000000000000000815260206004820152602a60248201527f5361666545524332303a204552433230206f7065726174696f6e20646964206e60448201527f6f742073756363656564000000000000000000000000000000000000000000006064820152608401610cf4565b73ffffffffffffffffffffffffffffffffffffffff81163b612bf6576040517f08c379a000000000000000000000000000000000000000000000000000000000815260206004820152602d60248201527f455243313936373a206e657720696d706c656d656e746174696f6e206973206e60448201527f6f74206120636f6e7472616374000000000000000000000000000000000000006064820152608401610cf4565b7f360894a13ba1a3210667c828492db98dca3e2076cc3735a920a3ca505d382bbc80547fffffffffffffffffffffffff00000000000000000000000000000000000000001673ffffffffffffffffffffffffffffffffffffffff92909216919091179055565b612c6583612c9a565b600082511180612c725750805b156123dd576124408383612ce7565b6060612c908484600085612e26565b90505b9392505050565b612ca381612b52565b60405173ffffffffffffffffffffffffffffffffffffffff8216907fbc7cd75a20ee27fd9adebab32041f755214dbc6bffa90cc0225b39da2e5c2d3b90600090a250565b606073ffffffffffffffffffffffffffffffffffffffff83163b612d8d576040517f08c379a000000000000000000000000000000000000000000000000000000000815260206004820152602660248201527f416464726573733a2064656c65676174652063616c6c20746f206e6f6e2d636f60448201527f6e747261637400000000000000000000000000000000000000000000000000006064820152608401610cf4565b6000808473ffffffffffffffffffffffffffffffffffffffff1684604051612db59190613636565b600060405180830381855af49150503d8060008114612df0576040519150601f19603f3d011682016040523d82523d6000602084013e612df5565b606091505b5091509150612e1d828260405180606001604052806027815260200161365360279139612f41565b95945050505050565b606082471015612eb8576040517f08c379a000000000000000000000000000000000000000000000000000000000815260206004820152602660248201527f416464726573733a20696e73756666696369656e742062616c616e636520666f60448201527f722063616c6c00000000000000000000000000000000000000000000000000006064820152608401610cf4565b6000808673ffffffffffffffffffffffffffffffffffffffff168587604051612ee19190613636565b60006040518083038185875af1925050503d8060008114612f1e576040519150601f19603f3d011682016040523d82523d6000602084013e612f23565b606091505b5091509150612f3487838387612f5a565b925050505b949350505050565b60608315612f50575081612c93565b612c938383612ff6565b60608315612ff0578251600003612fe95773ffffffffffffffffffffffffffffffffffffffff85163b612fe9576040517f08c379a000000000000000000000000000000000000000000000000000000000815260206004820152601d60248201527f416464726573733a2063616c6c20746f206e6f6e2d636f6e74726163740000006044820152606401610cf4565b5081612f39565b612f3983835b8151156130065781518083602001fd5b806040517f08c379a0000000000000000000000000000000000000000000000000000000008152600401610cf4919061347a565b73ffffffffffffffffffffffffffffffffffffffff81168114610e3a57600080fd5b6000806040838503121561306f57600080fd5b823561307a8161303a565b9150602083013561308a8161303a565b809150509250929050565b6000602082840312156130a757600080fd5b5035919050565b6000806000606084860312156130c357600080fd5b83356130ce8161303a565b925060208401356130de8161303a565b929592945050506040919091013590565b60006020828403121561310157600080fd5b8135612c938161303a565b7f4e487b7100000000000000000000000000000000000000000000000000000000600052604160045260246000fd5b600067ffffffffffffffff808411156131565761315661310c565b604051601f85017fffffffffffffffffffffffffffffffffffffffffffffffffffffffffffffffe0908116603f0116810190828211818310171561319c5761319c61310c565b816040528093508581528686860111156131b557600080fd5b858560208301376000602087830101525050509392505050565b6000602082840312156131e157600080fd5b813567ffffffffffffffff8111156131f857600080fd5b8201601f8101841361320957600080fd5b612f398482356020840161313b565b60006020828403121561322a57600080fd5b813565ffffffffffff81168114612c9357600080fd5b6000806040838503121561325357600080fd5b823561325e8161303a565b9150602083013567ffffffffffffffff81111561327a57600080fd5b8301601f8101851361328b57600080fd5b61329a8582356020840161313b565b9150509250929050565b60008083601f8401126132b657600080fd5b50813567ffffffffffffffff8111156132ce57600080fd5b6020830191508360208260051b85010111156132e957600080fd5b9250929050565b6000806000806000806000806080898b03121561330c57600080fd5b883567ffffffffffffffff8082111561332457600080fd5b6133308c838d016132a4565b909a50985060208b013591508082111561334957600080fd5b6133558c838d016132a4565b909850965060408b013591508082111561336e57600080fd5b61337a8c838d016132a4565b909650945060608b013591508082111561339357600080fd5b506133a08b828c016132a4565b999c989b5096995094979396929594505050565b8015158114610e3a57600080fd5b6000602082840312156133d457600080fd5b8135612c93816133b4565b6000604082840312156133f157600080fd5b50919050565b60006020828403121561340957600080fd5b8151612c93816133b4565b7f4e487b7100000000000000000000000000000000000000000000000000000000600052601160045260246000fd5b8181038181111561285557612855613414565b60005b83811015613471578181015183820152602001613459565b50506000910152565b6020815260008251806020840152613499816040850160208701613456565b601f017fffffffffffffffffffffffffffffffffffffffffffffffffffffffffffffffe0169190910160400192915050565b7f4e487b7100000000000000000000000000000000000000000000000000000000600052603260045260246000fd5b60008083357fffffffffffffffffffffffffffffffffffffffffffffffffffffffffffffffe184360301811261352f57600080fd5b83018035915067ffffffffffffffff82111561354a57600080fd5b6020019150600581901b36038213156132e957600080fd5b60006020828403121561357457600080fd5b5051919050565b600065ffffffffffff808416806135bb577f4e487b7100000000000000000000000000000000000000000000000000000000600052601260045260246000fd5b92169190910492915050565b65ffffffffffff8181168382160280821691908281146135e9576135e9613414565b505092915050565b65ffffffffffff82811682821603908082111561361057613610613414565b5092915050565b65ffffffffffff81811683821601908082111561361057613610613414565b60008251613648818460208701613456565b919091019291505056fe416464726573733a206c6f772d6c6576656c2064656c65676174652063616c6c206661696c6564a2646970667358221220701ec3f701a8a1fc0410a1343d85292721f5a4e8865917eee2387846cda0d7e564736f6c63430008110033496e697469616c697a61626c653a20636f6e747261637420697320616c7265617f26b83ff96e1f2b6a682f133852f6798a09c465da95921460cefb3847402498",
  "devdoc": {
    "author": "Angle Labs. Inc",
    "kind": "dev",
    "methods": {
      "claim(address[],address[],uint256[],bytes32[][])": {
        "details": "Anyone may call this function for anyone else, funds go to destination regardless, it's just a question of who provides the proof and pays the gas: `msg.sender` is used only for addresses that require a trusted operator",
        "params": {
          "amounts": "Amount of tokens that will be sent to the corresponding users",
          "proofs": "Array of hashes bridging from a leaf `(hash of user | token | amount)` to the Merkle root",
          "tokens": "ERC20 claimed",
          "users": "Recipient of tokens"
        }
      },
      "disputeTree(string)": {
        "details": "Requires a deposit of `disputeToken` that'll be slashed if the dispute is not acceptedIt is only possible to create a dispute within `disputePeriod` after each tree update"
      },
      "proxiableUUID()": {
        "details": "Implementation of the ERC1822 {proxiableUUID} function. This returns the storage slot used by the implementation. It is used to validate the implementation's compatibility when performing an upgrade. IMPORTANT: A proxy pointing at a proxiable contract should not be considered proxiable itself, because this risks bricking a proxy that upgrades to it, by delegating to itself until out of gas. Thus it is critical that this function revert if invoked through a proxy. This is guaranteed by the `notDelegated` modifier."
      },
      "resolveDispute(bool)": {
        "params": {
          "valid": "Whether the dispute was valid"
        }
      },
      "upgradeTo(address)": {
        "details": "Upgrade the implementation of the proxy to `newImplementation`. Calls {_authorizeUpgrade}. Emits an {Upgraded} event."
      },
      "upgradeToAndCall(address,bytes)": {
        "details": "Upgrade the implementation of the proxy to `newImplementation`, and subsequently execute the function call encoded in `data`. Calls {_authorizeUpgrade}. Emits an {Upgraded} event."
      }
    },
    "stateVariables": {
      "disputer": {
        "details": "Used to store if there is an ongoing dispute"
      }
    },
    "title": "Distributor",
    "version": 1
  },
  "userdoc": {
    "kind": "user",
    "methods": {
      "canUpdateMerkleRoot(address)": {
        "notice": "Trusted EOAs to update the Merkle root"
      },
      "claim(address[],address[],uint256[],bytes32[][])": {
        "notice": "Claims rewards for a given set of users"
      },
      "claimed(address,address)": {
        "notice": "Mapping user -> token -> amount to track claimed amounts"
      },
      "core()": {
        "notice": "`Core` contract handling access control"
      },
      "disputeAmount()": {
        "notice": "Amount to deposit to freeze the roots update"
      },
      "disputePeriod()": {
        "notice": "Time after which a change in a tree becomes effective, in EPOCH_DURATION"
      },
      "disputeToken()": {
        "notice": "Token to deposit to freeze the roots update"
      },
      "disputeTree(string)": {
        "notice": "Freezes the Merkle tree update until the dispute is resolved"
      },
      "disputer()": {
        "notice": "Address which created the dispute"
      },
      "endOfDisputePeriod()": {
        "notice": "When the current tree will become valid"
      },
      "getMerkleRoot()": {
        "notice": "Returns the MerkleRoot that is currently live for the contract"
      },
      "lastTree()": {
        "notice": "Tree that was in place in the contract before the last `tree` update"
      },
      "onlyOperatorCanClaim(address)": {
        "notice": "Whether or not to disable permissionless claiming"
      },
      "operators(address,address)": {
        "notice": "user -> operator -> authorisation to claim"
      },
      "recoverERC20(address,address,uint256)": {
        "notice": "Recovers any ERC20 token"
      },
      "resolveDispute(bool)": {
        "notice": "Resolve the ongoing dispute, if any"
      },
      "revokeTree()": {
        "notice": "Allows the governor or the guardian of this contract to fallback to the last version of the tree immediately"
      },
      "setDisputeAmount(uint256)": {
        "notice": "Sets the amount of `disputeToken` used as a caution during disputes"
      },
      "setDisputePeriod(uint48)": {
        "notice": "Sets the dispute period after which a tree update becomes effective"
      },
      "setDisputeToken(address)": {
        "notice": "Sets the token used as a caution during disputes"
      },
      "toggleOnlyOperatorCanClaim(address)": {
        "notice": "Toggles permissioned claiming for a given user"
      },
      "toggleOperator(address,address)": {
        "notice": "Toggles whitelisting for a given user and a given operator"
      },
      "toggleTrusted(address)": {
        "notice": "Adds or removes EOAs which are trusted to update the Merkle root"
      },
      "tree()": {
        "notice": "Tree of claimable tokens through this contract"
      },
      "updateTree((bytes32,bytes32))": {
        "notice": "Updates Merkle Tree"
      }
    },
    "notice": "Allows LPs on AMMs with concentrated liquidity to claim the rewards that were distributed to them",
    "version": 1
  },
  "storageLayout": {
    "storage": [
      {
        "astId": 395,
        "contract": "contracts/Distributor.sol:Distributor",
        "label": "_initialized",
        "offset": 0,
        "slot": "0",
        "type": "t_uint8"
      },
      {
        "astId": 398,
        "contract": "contracts/Distributor.sol:Distributor",
        "label": "_initializing",
        "offset": 1,
        "slot": "0",
        "type": "t_bool"
      },
      {
        "astId": 377,
        "contract": "contracts/Distributor.sol:Distributor",
        "label": "__gap",
        "offset": 0,
        "slot": "1",
        "type": "t_array(t_uint256)50_storage"
      },
      {
        "astId": 692,
        "contract": "contracts/Distributor.sol:Distributor",
        "label": "__gap",
        "offset": 0,
        "slot": "51",
        "type": "t_array(t_uint256)50_storage"
      },
      {
        "astId": 9151,
        "contract": "contracts/Distributor.sol:Distributor",
        "label": "tree",
        "offset": 0,
        "slot": "101",
        "type": "t_struct(MerkleTree)9129_storage"
      },
      {
        "astId": 9155,
        "contract": "contracts/Distributor.sol:Distributor",
        "label": "lastTree",
        "offset": 0,
        "slot": "103",
        "type": "t_struct(MerkleTree)9129_storage"
      },
      {
        "astId": 9159,
        "contract": "contracts/Distributor.sol:Distributor",
        "label": "disputeToken",
        "offset": 0,
        "slot": "105",
        "type": "t_contract(IERC20)3433"
      },
      {
        "astId": 9163,
        "contract": "contracts/Distributor.sol:Distributor",
        "label": "core",
        "offset": 0,
        "slot": "106",
        "type": "t_contract(ICore)11764"
      },
      {
        "astId": 9166,
        "contract": "contracts/Distributor.sol:Distributor",
        "label": "disputer",
        "offset": 0,
        "slot": "107",
        "type": "t_address"
      },
      {
        "astId": 9169,
        "contract": "contracts/Distributor.sol:Distributor",
        "label": "endOfDisputePeriod",
        "offset": 20,
        "slot": "107",
        "type": "t_uint48"
      },
      {
        "astId": 9172,
        "contract": "contracts/Distributor.sol:Distributor",
        "label": "disputePeriod",
        "offset": 26,
        "slot": "107",
        "type": "t_uint48"
      },
      {
        "astId": 9175,
        "contract": "contracts/Distributor.sol:Distributor",
        "label": "disputeAmount",
        "offset": 0,
        "slot": "108",
        "type": "t_uint256"
      },
      {
        "astId": 9183,
        "contract": "contracts/Distributor.sol:Distributor",
        "label": "claimed",
        "offset": 0,
        "slot": "109",
        "type": "t_mapping(t_address,t_mapping(t_address,t_struct(Claim)9136_storage))"
      },
      {
        "astId": 9188,
        "contract": "contracts/Distributor.sol:Distributor",
        "label": "canUpdateMerkleRoot",
        "offset": 0,
        "slot": "110",
        "type": "t_mapping(t_address,t_uint256)"
      },
      {
        "astId": 9193,
        "contract": "contracts/Distributor.sol:Distributor",
        "label": "onlyOperatorCanClaim",
        "offset": 0,
        "slot": "111",
        "type": "t_mapping(t_address,t_uint256)"
      },
      {
        "astId": 9200,
        "contract": "contracts/Distributor.sol:Distributor",
        "label": "operators",
        "offset": 0,
        "slot": "112",
        "type": "t_mapping(t_address,t_mapping(t_address,t_uint256))"
      },
      {
        "astId": 9204,
        "contract": "contracts/Distributor.sol:Distributor",
        "label": "__gap",
        "offset": 0,
        "slot": "113",
        "type": "t_array(t_uint256)38_storage"
      }
    ],
    "types": {
      "t_address": {
        "encoding": "inplace",
        "label": "address",
        "numberOfBytes": "20"
      },
      "t_array(t_uint256)38_storage": {
        "base": "t_uint256",
        "encoding": "inplace",
        "label": "uint256[38]",
        "numberOfBytes": "1216"
      },
      "t_array(t_uint256)50_storage": {
        "base": "t_uint256",
        "encoding": "inplace",
        "label": "uint256[50]",
        "numberOfBytes": "1600"
      },
      "t_bool": {
        "encoding": "inplace",
        "label": "bool",
        "numberOfBytes": "1"
      },
      "t_bytes32": {
        "encoding": "inplace",
        "label": "bytes32",
        "numberOfBytes": "32"
      },
      "t_contract(ICore)11764": {
        "encoding": "inplace",
        "label": "contract ICore",
        "numberOfBytes": "20"
      },
      "t_contract(IERC20)3433": {
        "encoding": "inplace",
        "label": "contract IERC20",
        "numberOfBytes": "20"
      },
      "t_mapping(t_address,t_mapping(t_address,t_struct(Claim)9136_storage))": {
        "encoding": "mapping",
        "key": "t_address",
        "label": "mapping(address => mapping(address => struct Claim))",
        "numberOfBytes": "32",
        "value": "t_mapping(t_address,t_struct(Claim)9136_storage)"
      },
      "t_mapping(t_address,t_mapping(t_address,t_uint256))": {
        "encoding": "mapping",
        "key": "t_address",
        "label": "mapping(address => mapping(address => uint256))",
        "numberOfBytes": "32",
        "value": "t_mapping(t_address,t_uint256)"
      },
      "t_mapping(t_address,t_struct(Claim)9136_storage)": {
        "encoding": "mapping",
        "key": "t_address",
        "label": "mapping(address => struct Claim)",
        "numberOfBytes": "32",
        "value": "t_struct(Claim)9136_storage"
      },
      "t_mapping(t_address,t_uint256)": {
        "encoding": "mapping",
        "key": "t_address",
        "label": "mapping(address => uint256)",
        "numberOfBytes": "32",
        "value": "t_uint256"
      },
      "t_struct(Claim)9136_storage": {
        "encoding": "inplace",
        "label": "struct Claim",
        "members": [
          {
            "astId": 9131,
            "contract": "contracts/Distributor.sol:Distributor",
            "label": "amount",
            "offset": 0,
            "slot": "0",
            "type": "t_uint208"
          },
          {
            "astId": 9133,
            "contract": "contracts/Distributor.sol:Distributor",
            "label": "timestamp",
            "offset": 26,
            "slot": "0",
            "type": "t_uint48"
          },
          {
            "astId": 9135,
            "contract": "contracts/Distributor.sol:Distributor",
            "label": "merkleRoot",
            "offset": 0,
            "slot": "1",
            "type": "t_bytes32"
          }
        ],
        "numberOfBytes": "64"
      },
      "t_struct(MerkleTree)9129_storage": {
        "encoding": "inplace",
        "label": "struct MerkleTree",
        "members": [
          {
            "astId": 9126,
            "contract": "contracts/Distributor.sol:Distributor",
            "label": "merkleRoot",
            "offset": 0,
            "slot": "0",
            "type": "t_bytes32"
          },
          {
            "astId": 9128,
            "contract": "contracts/Distributor.sol:Distributor",
            "label": "ipfsHash",
            "offset": 0,
            "slot": "1",
            "type": "t_bytes32"
          }
        ],
        "numberOfBytes": "64"
      },
      "t_uint208": {
        "encoding": "inplace",
        "label": "uint208",
        "numberOfBytes": "26"
      },
      "t_uint256": {
        "encoding": "inplace",
        "label": "uint256",
        "numberOfBytes": "32"
      },
      "t_uint48": {
        "encoding": "inplace",
        "label": "uint48",
        "numberOfBytes": "6"
      },
      "t_uint8": {
        "encoding": "inplace",
        "label": "uint8",
        "numberOfBytes": "1"
      }
    }
  }
}