{
  "address": "0x97B6897AAd7aBa3861c04C0e6388Fc02AF1F227f",
  "abi": [
    {
      "inputs": [],
      "stateMutability": "nonpayable",
      "type": "constructor"
    },
    {
      "inputs": [],
      "name": "InvalidLengths",
      "type": "error"
    },
    {
      "inputs": [],
      "name": "InvalidParam",
      "type": "error"
    },
    {
      "inputs": [],
      "name": "InvalidReward",
      "type": "error"
    },
    {
      "inputs": [],
      "name": "InvalidSignature",
      "type": "error"
    },
    {
      "inputs": [],
      "name": "NotGovernorOrGuardian",
      "type": "error"
    },
    {
      "inputs": [],
      "name": "NotSigned",
      "type": "error"
    },
    {
      "inputs": [],
      "name": "ZeroAddress",
      "type": "error"
    },
    {
      "anonymous": false,
      "inputs": [
        {
          "indexed": false,
          "internalType": "address",
          "name": "previousAdmin",
          "type": "address"
        },
        {
          "indexed": false,
          "internalType": "address",
          "name": "newAdmin",
          "type": "address"
        }
      ],
      "name": "AdminChanged",
      "type": "event"
    },
    {
      "anonymous": false,
      "inputs": [
        {
          "indexed": true,
          "internalType": "address",
          "name": "beacon",
          "type": "address"
        }
      ],
      "name": "BeaconUpgraded",
      "type": "event"
    },
    {
      "anonymous": false,
      "inputs": [
        {
          "indexed": true,
          "internalType": "address",
          "name": "_distributor",
          "type": "address"
        }
      ],
      "name": "DistributorUpdated",
      "type": "event"
    },
    {
      "anonymous": false,
      "inputs": [
        {
          "indexed": true,
          "internalType": "address",
          "name": "user",
          "type": "address"
        },
        {
          "indexed": false,
          "internalType": "uint256",
          "name": "userFeeRebate",
          "type": "uint256"
        }
      ],
      "name": "FeeRebateUpdated",
      "type": "event"
    },
    {
      "anonymous": false,
      "inputs": [
        {
          "indexed": true,
          "internalType": "address",
          "name": "_feeRecipient",
          "type": "address"
        }
      ],
      "name": "FeeRecipientUpdated",
      "type": "event"
    },
    {
      "anonymous": false,
      "inputs": [
        {
          "indexed": false,
          "internalType": "uint256",
          "name": "_fees",
          "type": "uint256"
        }
      ],
      "name": "FeesSet",
      "type": "event"
    },
    {
      "anonymous": false,
      "inputs": [
        {
          "indexed": false,
          "internalType": "uint8",
          "name": "version",
          "type": "uint8"
        }
      ],
      "name": "Initialized",
      "type": "event"
    },
    {
      "anonymous": false,
      "inputs": [
        {
          "indexed": false,
          "internalType": "bytes32",
          "name": "_messageHash",
          "type": "bytes32"
        }
      ],
      "name": "MessageUpdated",
      "type": "event"
    },
    {
      "anonymous": false,
      "inputs": [
        {
          "components": [
            {
              "internalType": "bytes32",
              "name": "rewardId",
              "type": "bytes32"
            },
            {
              "internalType": "address",
              "name": "uniV3Pool",
              "type": "address"
            },
            {
              "internalType": "address",
              "name": "rewardToken",
              "type": "address"
            },
            {
              "internalType": "uint256",
              "name": "amount",
              "type": "uint256"
            },
            {
              "internalType": "address[]",
              "name": "positionWrappers",
              "type": "address[]"
            },
            {
              "internalType": "uint32[]",
              "name": "wrapperTypes",
              "type": "uint32[]"
            },
            {
              "internalType": "uint32",
              "name": "propToken0",
              "type": "uint32"
            },
            {
              "internalType": "uint32",
              "name": "propToken1",
              "type": "uint32"
            },
            {
              "internalType": "uint32",
              "name": "propFees",
              "type": "uint32"
            },
            {
              "internalType": "uint32",
              "name": "epochStart",
              "type": "uint32"
            },
            {
              "internalType": "uint32",
              "name": "numEpoch",
              "type": "uint32"
            },
            {
              "internalType": "uint32",
              "name": "isOutOfRangeIncentivized",
              "type": "uint32"
            },
            {
              "internalType": "uint32",
              "name": "boostedReward",
              "type": "uint32"
            },
            {
              "internalType": "address",
              "name": "boostingAddress",
              "type": "address"
            },
            {
              "internalType": "bytes",
              "name": "additionalData",
              "type": "bytes"
            }
          ],
          "indexed": false,
          "internalType": "struct DistributionParameters",
          "name": "distribution",
          "type": "tuple"
        },
        {
          "indexed": true,
          "internalType": "address",
          "name": "sender",
          "type": "address"
        }
      ],
      "name": "NewDistribution",
      "type": "event"
    },
    {
      "anonymous": false,
      "inputs": [
        {
          "indexed": true,
          "internalType": "address",
          "name": "token",
          "type": "address"
        },
        {
          "indexed": false,
          "internalType": "uint256",
          "name": "amount",
          "type": "uint256"
        }
      ],
      "name": "RewardTokenMinimumAmountUpdated",
      "type": "event"
    },
    {
      "anonymous": false,
      "inputs": [
        {
          "indexed": true,
          "internalType": "address",
          "name": "token",
          "type": "address"
        },
        {
          "indexed": false,
          "internalType": "uint256",
          "name": "toggleStatus",
          "type": "uint256"
        }
      ],
      "name": "TokenWhitelistToggled",
      "type": "event"
    },
    {
      "anonymous": false,
      "inputs": [
        {
          "indexed": true,
          "internalType": "address",
          "name": "implementation",
          "type": "address"
        }
      ],
      "name": "Upgraded",
      "type": "event"
    },
    {
      "anonymous": false,
      "inputs": [
        {
          "indexed": false,
          "internalType": "bytes32",
          "name": "messageHash",
          "type": "bytes32"
        },
        {
          "indexed": true,
          "internalType": "address",
          "name": "user",
          "type": "address"
        }
      ],
      "name": "UserSigned",
      "type": "event"
    },
    {
      "anonymous": false,
      "inputs": [
        {
          "indexed": true,
          "internalType": "address",
          "name": "user",
          "type": "address"
        },
        {
          "indexed": false,
          "internalType": "uint256",
          "name": "toggleStatus",
          "type": "uint256"
        }
      ],
      "name": "UserSigningWhitelistToggled",
      "type": "event"
    },
    {
      "inputs": [],
      "name": "BASE_9",
      "outputs": [
        {
          "internalType": "uint256",
          "name": "",
          "type": "uint256"
        }
      ],
      "stateMutability": "view",
      "type": "function"
    },
    {
      "inputs": [],
      "name": "EPOCH_DURATION",
      "outputs": [
        {
          "internalType": "uint32",
          "name": "",
          "type": "uint32"
        }
      ],
      "stateMutability": "view",
      "type": "function"
    },
    {
      "inputs": [],
      "name": "core",
      "outputs": [
        {
          "internalType": "contract ICore",
          "name": "",
          "type": "address"
        }
      ],
      "stateMutability": "view",
      "type": "function"
    },
    {
      "inputs": [
        {
          "components": [
            {
              "internalType": "bytes32",
              "name": "rewardId",
              "type": "bytes32"
            },
            {
              "internalType": "address",
              "name": "uniV3Pool",
              "type": "address"
            },
            {
              "internalType": "address",
              "name": "rewardToken",
              "type": "address"
            },
            {
              "internalType": "uint256",
              "name": "amount",
              "type": "uint256"
            },
            {
              "internalType": "address[]",
              "name": "positionWrappers",
              "type": "address[]"
            },
            {
              "internalType": "uint32[]",
              "name": "wrapperTypes",
              "type": "uint32[]"
            },
            {
              "internalType": "uint32",
              "name": "propToken0",
              "type": "uint32"
            },
            {
              "internalType": "uint32",
              "name": "propToken1",
              "type": "uint32"
            },
            {
              "internalType": "uint32",
              "name": "propFees",
              "type": "uint32"
            },
            {
              "internalType": "uint32",
              "name": "epochStart",
              "type": "uint32"
            },
            {
              "internalType": "uint32",
              "name": "numEpoch",
              "type": "uint32"
            },
            {
              "internalType": "uint32",
              "name": "isOutOfRangeIncentivized",
              "type": "uint32"
            },
            {
              "internalType": "uint32",
              "name": "boostedReward",
              "type": "uint32"
            },
            {
              "internalType": "address",
              "name": "boostingAddress",
              "type": "address"
            },
            {
              "internalType": "bytes",
              "name": "additionalData",
              "type": "bytes"
            }
          ],
          "internalType": "struct DistributionParameters",
          "name": "distribution",
          "type": "tuple"
        }
      ],
      "name": "createDistribution",
      "outputs": [
        {
          "internalType": "uint256",
          "name": "distributionAmount",
          "type": "uint256"
        }
      ],
      "stateMutability": "nonpayable",
      "type": "function"
    },
    {
      "inputs": [
        {
          "components": [
            {
              "internalType": "bytes32",
              "name": "rewardId",
              "type": "bytes32"
            },
            {
              "internalType": "address",
              "name": "uniV3Pool",
              "type": "address"
            },
            {
              "internalType": "address",
              "name": "rewardToken",
              "type": "address"
            },
            {
              "internalType": "uint256",
              "name": "amount",
              "type": "uint256"
            },
            {
              "internalType": "address[]",
              "name": "positionWrappers",
              "type": "address[]"
            },
            {
              "internalType": "uint32[]",
              "name": "wrapperTypes",
              "type": "uint32[]"
            },
            {
              "internalType": "uint32",
              "name": "propToken0",
              "type": "uint32"
            },
            {
              "internalType": "uint32",
              "name": "propToken1",
              "type": "uint32"
            },
            {
              "internalType": "uint32",
              "name": "propFees",
              "type": "uint32"
            },
            {
              "internalType": "uint32",
              "name": "epochStart",
              "type": "uint32"
            },
            {
              "internalType": "uint32",
              "name": "numEpoch",
              "type": "uint32"
            },
            {
              "internalType": "uint32",
              "name": "isOutOfRangeIncentivized",
              "type": "uint32"
            },
            {
              "internalType": "uint32",
              "name": "boostedReward",
              "type": "uint32"
            },
            {
              "internalType": "address",
              "name": "boostingAddress",
              "type": "address"
            },
            {
              "internalType": "bytes",
              "name": "additionalData",
              "type": "bytes"
            }
          ],
          "internalType": "struct DistributionParameters[]",
          "name": "distributions",
          "type": "tuple[]"
        }
      ],
      "name": "createDistributions",
      "outputs": [
        {
          "internalType": "uint256[]",
          "name": "",
          "type": "uint256[]"
        }
      ],
      "stateMutability": "nonpayable",
      "type": "function"
    },
    {
      "inputs": [
        {
          "internalType": "uint256",
          "name": "",
          "type": "uint256"
        }
      ],
      "name": "distributionList",
      "outputs": [
        {
          "internalType": "bytes32",
          "name": "rewardId",
          "type": "bytes32"
        },
        {
          "internalType": "address",
          "name": "uniV3Pool",
          "type": "address"
        },
        {
          "internalType": "address",
          "name": "rewardToken",
          "type": "address"
        },
        {
          "internalType": "uint256",
          "name": "amount",
          "type": "uint256"
        },
        {
          "internalType": "uint32",
          "name": "propToken0",
          "type": "uint32"
        },
        {
          "internalType": "uint32",
          "name": "propToken1",
          "type": "uint32"
        },
        {
          "internalType": "uint32",
          "name": "propFees",
          "type": "uint32"
        },
        {
          "internalType": "uint32",
          "name": "epochStart",
          "type": "uint32"
        },
        {
          "internalType": "uint32",
          "name": "numEpoch",
          "type": "uint32"
        },
        {
          "internalType": "uint32",
          "name": "isOutOfRangeIncentivized",
          "type": "uint32"
        },
        {
          "internalType": "uint32",
          "name": "boostedReward",
          "type": "uint32"
        },
        {
          "internalType": "address",
          "name": "boostingAddress",
          "type": "address"
        },
        {
          "internalType": "bytes",
          "name": "additionalData",
          "type": "bytes"
        }
      ],
      "stateMutability": "view",
      "type": "function"
    },
    {
      "inputs": [],
      "name": "distributor",
      "outputs": [
        {
          "internalType": "address",
          "name": "",
          "type": "address"
        }
      ],
      "stateMutability": "view",
      "type": "function"
    },
    {
      "inputs": [
        {
          "internalType": "address",
          "name": "",
          "type": "address"
        }
      ],
      "name": "feeRebate",
      "outputs": [
        {
          "internalType": "uint256",
          "name": "",
          "type": "uint256"
        }
      ],
      "stateMutability": "view",
      "type": "function"
    },
    {
      "inputs": [],
      "name": "feeRecipient",
      "outputs": [
        {
          "internalType": "address",
          "name": "",
          "type": "address"
        }
      ],
      "stateMutability": "view",
      "type": "function"
    },
    {
      "inputs": [],
      "name": "fees",
      "outputs": [
        {
          "internalType": "uint256",
          "name": "",
          "type": "uint256"
        }
      ],
      "stateMutability": "view",
      "type": "function"
    },
    {
      "inputs": [],
      "name": "getActiveDistributions",
      "outputs": [
        {
          "components": [
            {
              "components": [
                {
                  "internalType": "bytes32",
                  "name": "rewardId",
                  "type": "bytes32"
                },
                {
                  "internalType": "address",
                  "name": "uniV3Pool",
                  "type": "address"
                },
                {
                  "internalType": "address",
                  "name": "rewardToken",
                  "type": "address"
                },
                {
                  "internalType": "uint256",
                  "name": "amount",
                  "type": "uint256"
                },
                {
                  "internalType": "address[]",
                  "name": "positionWrappers",
                  "type": "address[]"
                },
                {
                  "internalType": "uint32[]",
                  "name": "wrapperTypes",
                  "type": "uint32[]"
                },
                {
                  "internalType": "uint32",
                  "name": "propToken0",
                  "type": "uint32"
                },
                {
                  "internalType": "uint32",
                  "name": "propToken1",
                  "type": "uint32"
                },
                {
                  "internalType": "uint32",
                  "name": "propFees",
                  "type": "uint32"
                },
                {
                  "internalType": "uint32",
                  "name": "epochStart",
                  "type": "uint32"
                },
                {
                  "internalType": "uint32",
                  "name": "numEpoch",
                  "type": "uint32"
                },
                {
                  "internalType": "uint32",
                  "name": "isOutOfRangeIncentivized",
                  "type": "uint32"
                },
                {
                  "internalType": "uint32",
                  "name": "boostedReward",
                  "type": "uint32"
                },
                {
                  "internalType": "address",
                  "name": "boostingAddress",
                  "type": "address"
                },
                {
                  "internalType": "bytes",
                  "name": "additionalData",
                  "type": "bytes"
                }
              ],
              "internalType": "struct DistributionParameters",
              "name": "base",
              "type": "tuple"
            },
            {
              "internalType": "uint24",
              "name": "poolFee",
              "type": "uint24"
            },
            {
              "components": [
                {
                  "internalType": "address",
                  "name": "add",
                  "type": "address"
                },
                {
                  "internalType": "uint8",
                  "name": "decimals",
                  "type": "uint8"
                },
                {
                  "internalType": "string",
                  "name": "symbol",
                  "type": "string"
                },
                {
                  "internalType": "uint256",
                  "name": "poolBalance",
                  "type": "uint256"
                }
              ],
              "internalType": "struct UniswapTokenData",
              "name": "token0",
              "type": "tuple"
            },
            {
              "components": [
                {
                  "internalType": "address",
                  "name": "add",
                  "type": "address"
                },
                {
                  "internalType": "uint8",
                  "name": "decimals",
                  "type": "uint8"
                },
                {
                  "internalType": "string",
                  "name": "symbol",
                  "type": "string"
                },
                {
                  "internalType": "uint256",
                  "name": "poolBalance",
                  "type": "uint256"
                }
              ],
              "internalType": "struct UniswapTokenData",
              "name": "token1",
              "type": "tuple"
            },
            {
              "internalType": "string",
              "name": "rewardTokenSymbol",
              "type": "string"
            },
            {
              "internalType": "uint8",
              "name": "rewardTokenDecimals",
              "type": "uint8"
            }
          ],
          "internalType": "struct ExtensiveDistributionParameters[]",
          "name": "",
          "type": "tuple[]"
        }
      ],
      "stateMutability": "view",
      "type": "function"
    },
    {
      "inputs": [
        {
          "internalType": "address",
          "name": "uniV3Pool",
          "type": "address"
        }
      ],
      "name": "getActivePoolDistributions",
      "outputs": [
        {
          "components": [
            {
              "components": [
                {
                  "internalType": "bytes32",
                  "name": "rewardId",
                  "type": "bytes32"
                },
                {
                  "internalType": "address",
                  "name": "uniV3Pool",
                  "type": "address"
                },
                {
                  "internalType": "address",
                  "name": "rewardToken",
                  "type": "address"
                },
                {
                  "internalType": "uint256",
                  "name": "amount",
                  "type": "uint256"
                },
                {
                  "internalType": "address[]",
                  "name": "positionWrappers",
                  "type": "address[]"
                },
                {
                  "internalType": "uint32[]",
                  "name": "wrapperTypes",
                  "type": "uint32[]"
                },
                {
                  "internalType": "uint32",
                  "name": "propToken0",
                  "type": "uint32"
                },
                {
                  "internalType": "uint32",
                  "name": "propToken1",
                  "type": "uint32"
                },
                {
                  "internalType": "uint32",
                  "name": "propFees",
                  "type": "uint32"
                },
                {
                  "internalType": "uint32",
                  "name": "epochStart",
                  "type": "uint32"
                },
                {
                  "internalType": "uint32",
                  "name": "numEpoch",
                  "type": "uint32"
                },
                {
                  "internalType": "uint32",
                  "name": "isOutOfRangeIncentivized",
                  "type": "uint32"
                },
                {
                  "internalType": "uint32",
                  "name": "boostedReward",
                  "type": "uint32"
                },
                {
                  "internalType": "address",
                  "name": "boostingAddress",
                  "type": "address"
                },
                {
                  "internalType": "bytes",
                  "name": "additionalData",
                  "type": "bytes"
                }
              ],
              "internalType": "struct DistributionParameters",
              "name": "base",
              "type": "tuple"
            },
            {
              "internalType": "uint24",
              "name": "poolFee",
              "type": "uint24"
            },
            {
              "components": [
                {
                  "internalType": "address",
                  "name": "add",
                  "type": "address"
                },
                {
                  "internalType": "uint8",
                  "name": "decimals",
                  "type": "uint8"
                },
                {
                  "internalType": "string",
                  "name": "symbol",
                  "type": "string"
                },
                {
                  "internalType": "uint256",
                  "name": "poolBalance",
                  "type": "uint256"
                }
              ],
              "internalType": "struct UniswapTokenData",
              "name": "token0",
              "type": "tuple"
            },
            {
              "components": [
                {
                  "internalType": "address",
                  "name": "add",
                  "type": "address"
                },
                {
                  "internalType": "uint8",
                  "name": "decimals",
                  "type": "uint8"
                },
                {
                  "internalType": "string",
                  "name": "symbol",
                  "type": "string"
                },
                {
                  "internalType": "uint256",
                  "name": "poolBalance",
                  "type": "uint256"
                }
              ],
              "internalType": "struct UniswapTokenData",
              "name": "token1",
              "type": "tuple"
            },
            {
              "internalType": "string",
              "name": "rewardTokenSymbol",
              "type": "string"
            },
            {
              "internalType": "uint8",
              "name": "rewardTokenDecimals",
              "type": "uint8"
            }
          ],
          "internalType": "struct ExtensiveDistributionParameters[]",
          "name": "",
          "type": "tuple[]"
        }
      ],
      "stateMutability": "view",
      "type": "function"
    },
    {
      "inputs": [],
      "name": "getAllDistributions",
      "outputs": [
        {
          "components": [
            {
              "internalType": "bytes32",
              "name": "rewardId",
              "type": "bytes32"
            },
            {
              "internalType": "address",
              "name": "uniV3Pool",
              "type": "address"
            },
            {
              "internalType": "address",
              "name": "rewardToken",
              "type": "address"
            },
            {
              "internalType": "uint256",
              "name": "amount",
              "type": "uint256"
            },
            {
              "internalType": "address[]",
              "name": "positionWrappers",
              "type": "address[]"
            },
            {
              "internalType": "uint32[]",
              "name": "wrapperTypes",
              "type": "uint32[]"
            },
            {
              "internalType": "uint32",
              "name": "propToken0",
              "type": "uint32"
            },
            {
              "internalType": "uint32",
              "name": "propToken1",
              "type": "uint32"
            },
            {
              "internalType": "uint32",
              "name": "propFees",
              "type": "uint32"
            },
            {
              "internalType": "uint32",
              "name": "epochStart",
              "type": "uint32"
            },
            {
              "internalType": "uint32",
              "name": "numEpoch",
              "type": "uint32"
            },
            {
              "internalType": "uint32",
              "name": "isOutOfRangeIncentivized",
              "type": "uint32"
            },
            {
              "internalType": "uint32",
              "name": "boostedReward",
              "type": "uint32"
            },
            {
              "internalType": "address",
              "name": "boostingAddress",
              "type": "address"
            },
            {
              "internalType": "bytes",
              "name": "additionalData",
              "type": "bytes"
            }
          ],
          "internalType": "struct DistributionParameters[]",
          "name": "",
          "type": "tuple[]"
        }
      ],
      "stateMutability": "view",
      "type": "function"
    },
    {
      "inputs": [
        {
          "internalType": "uint32",
          "name": "epochStart",
          "type": "uint32"
        }
      ],
      "name": "getDistributionsAfterEpoch",
      "outputs": [
        {
          "components": [
            {
              "components": [
                {
                  "internalType": "bytes32",
                  "name": "rewardId",
                  "type": "bytes32"
                },
                {
                  "internalType": "address",
                  "name": "uniV3Pool",
                  "type": "address"
                },
                {
                  "internalType": "address",
                  "name": "rewardToken",
                  "type": "address"
                },
                {
                  "internalType": "uint256",
                  "name": "amount",
                  "type": "uint256"
                },
                {
                  "internalType": "address[]",
                  "name": "positionWrappers",
                  "type": "address[]"
                },
                {
                  "internalType": "uint32[]",
                  "name": "wrapperTypes",
                  "type": "uint32[]"
                },
                {
                  "internalType": "uint32",
                  "name": "propToken0",
                  "type": "uint32"
                },
                {
                  "internalType": "uint32",
                  "name": "propToken1",
                  "type": "uint32"
                },
                {
                  "internalType": "uint32",
                  "name": "propFees",
                  "type": "uint32"
                },
                {
                  "internalType": "uint32",
                  "name": "epochStart",
                  "type": "uint32"
                },
                {
                  "internalType": "uint32",
                  "name": "numEpoch",
                  "type": "uint32"
                },
                {
                  "internalType": "uint32",
                  "name": "isOutOfRangeIncentivized",
                  "type": "uint32"
                },
                {
                  "internalType": "uint32",
                  "name": "boostedReward",
                  "type": "uint32"
                },
                {
                  "internalType": "address",
                  "name": "boostingAddress",
                  "type": "address"
                },
                {
                  "internalType": "bytes",
                  "name": "additionalData",
                  "type": "bytes"
                }
              ],
              "internalType": "struct DistributionParameters",
              "name": "base",
              "type": "tuple"
            },
            {
              "internalType": "uint24",
              "name": "poolFee",
              "type": "uint24"
            },
            {
              "components": [
                {
                  "internalType": "address",
                  "name": "add",
                  "type": "address"
                },
                {
                  "internalType": "uint8",
                  "name": "decimals",
                  "type": "uint8"
                },
                {
                  "internalType": "string",
                  "name": "symbol",
                  "type": "string"
                },
                {
                  "internalType": "uint256",
                  "name": "poolBalance",
                  "type": "uint256"
                }
              ],
              "internalType": "struct UniswapTokenData",
              "name": "token0",
              "type": "tuple"
            },
            {
              "components": [
                {
                  "internalType": "address",
                  "name": "add",
                  "type": "address"
                },
                {
                  "internalType": "uint8",
                  "name": "decimals",
                  "type": "uint8"
                },
                {
                  "internalType": "string",
                  "name": "symbol",
                  "type": "string"
                },
                {
                  "internalType": "uint256",
                  "name": "poolBalance",
                  "type": "uint256"
                }
              ],
              "internalType": "struct UniswapTokenData",
              "name": "token1",
              "type": "tuple"
            },
            {
              "internalType": "string",
              "name": "rewardTokenSymbol",
              "type": "string"
            },
            {
              "internalType": "uint8",
              "name": "rewardTokenDecimals",
              "type": "uint8"
            }
          ],
          "internalType": "struct ExtensiveDistributionParameters[]",
          "name": "",
          "type": "tuple[]"
        }
      ],
      "stateMutability": "view",
      "type": "function"
    },
    {
      "inputs": [
        {
          "internalType": "uint32",
          "name": "epochStart",
          "type": "uint32"
        },
        {
          "internalType": "uint32",
          "name": "epochEnd",
          "type": "uint32"
        }
      ],
      "name": "getDistributionsBetweenEpochs",
      "outputs": [
        {
          "components": [
            {
              "components": [
                {
                  "internalType": "bytes32",
                  "name": "rewardId",
                  "type": "bytes32"
                },
                {
                  "internalType": "address",
                  "name": "uniV3Pool",
                  "type": "address"
                },
                {
                  "internalType": "address",
                  "name": "rewardToken",
                  "type": "address"
                },
                {
                  "internalType": "uint256",
                  "name": "amount",
                  "type": "uint256"
                },
                {
                  "internalType": "address[]",
                  "name": "positionWrappers",
                  "type": "address[]"
                },
                {
                  "internalType": "uint32[]",
                  "name": "wrapperTypes",
                  "type": "uint32[]"
                },
                {
                  "internalType": "uint32",
                  "name": "propToken0",
                  "type": "uint32"
                },
                {
                  "internalType": "uint32",
                  "name": "propToken1",
                  "type": "uint32"
                },
                {
                  "internalType": "uint32",
                  "name": "propFees",
                  "type": "uint32"
                },
                {
                  "internalType": "uint32",
                  "name": "epochStart",
                  "type": "uint32"
                },
                {
                  "internalType": "uint32",
                  "name": "numEpoch",
                  "type": "uint32"
                },
                {
                  "internalType": "uint32",
                  "name": "isOutOfRangeIncentivized",
                  "type": "uint32"
                },
                {
                  "internalType": "uint32",
                  "name": "boostedReward",
                  "type": "uint32"
                },
                {
                  "internalType": "address",
                  "name": "boostingAddress",
                  "type": "address"
                },
                {
                  "internalType": "bytes",
                  "name": "additionalData",
                  "type": "bytes"
                }
              ],
              "internalType": "struct DistributionParameters",
              "name": "base",
              "type": "tuple"
            },
            {
              "internalType": "uint24",
              "name": "poolFee",
              "type": "uint24"
            },
            {
              "components": [
                {
                  "internalType": "address",
                  "name": "add",
                  "type": "address"
                },
                {
                  "internalType": "uint8",
                  "name": "decimals",
                  "type": "uint8"
                },
                {
                  "internalType": "string",
                  "name": "symbol",
                  "type": "string"
                },
                {
                  "internalType": "uint256",
                  "name": "poolBalance",
                  "type": "uint256"
                }
              ],
              "internalType": "struct UniswapTokenData",
              "name": "token0",
              "type": "tuple"
            },
            {
              "components": [
                {
                  "internalType": "address",
                  "name": "add",
                  "type": "address"
                },
                {
                  "internalType": "uint8",
                  "name": "decimals",
                  "type": "uint8"
                },
                {
                  "internalType": "string",
                  "name": "symbol",
                  "type": "string"
                },
                {
                  "internalType": "uint256",
                  "name": "poolBalance",
                  "type": "uint256"
                }
              ],
              "internalType": "struct UniswapTokenData",
              "name": "token1",
              "type": "tuple"
            },
            {
              "internalType": "string",
              "name": "rewardTokenSymbol",
              "type": "string"
            },
            {
              "internalType": "uint8",
              "name": "rewardTokenDecimals",
              "type": "uint8"
            }
          ],
          "internalType": "struct ExtensiveDistributionParameters[]",
          "name": "",
          "type": "tuple[]"
        }
      ],
      "stateMutability": "view",
      "type": "function"
    },
    {
      "inputs": [
        {
          "internalType": "uint32",
          "name": "epoch",
          "type": "uint32"
        }
      ],
      "name": "getDistributionsForEpoch",
      "outputs": [
        {
          "components": [
            {
              "components": [
                {
                  "internalType": "bytes32",
                  "name": "rewardId",
                  "type": "bytes32"
                },
                {
                  "internalType": "address",
                  "name": "uniV3Pool",
                  "type": "address"
                },
                {
                  "internalType": "address",
                  "name": "rewardToken",
                  "type": "address"
                },
                {
                  "internalType": "uint256",
                  "name": "amount",
                  "type": "uint256"
                },
                {
                  "internalType": "address[]",
                  "name": "positionWrappers",
                  "type": "address[]"
                },
                {
                  "internalType": "uint32[]",
                  "name": "wrapperTypes",
                  "type": "uint32[]"
                },
                {
                  "internalType": "uint32",
                  "name": "propToken0",
                  "type": "uint32"
                },
                {
                  "internalType": "uint32",
                  "name": "propToken1",
                  "type": "uint32"
                },
                {
                  "internalType": "uint32",
                  "name": "propFees",
                  "type": "uint32"
                },
                {
                  "internalType": "uint32",
                  "name": "epochStart",
                  "type": "uint32"
                },
                {
                  "internalType": "uint32",
                  "name": "numEpoch",
                  "type": "uint32"
                },
                {
                  "internalType": "uint32",
                  "name": "isOutOfRangeIncentivized",
                  "type": "uint32"
                },
                {
                  "internalType": "uint32",
                  "name": "boostedReward",
                  "type": "uint32"
                },
                {
                  "internalType": "address",
                  "name": "boostingAddress",
                  "type": "address"
                },
                {
                  "internalType": "bytes",
                  "name": "additionalData",
                  "type": "bytes"
                }
              ],
              "internalType": "struct DistributionParameters",
              "name": "base",
              "type": "tuple"
            },
            {
              "internalType": "uint24",
              "name": "poolFee",
              "type": "uint24"
            },
            {
              "components": [
                {
                  "internalType": "address",
                  "name": "add",
                  "type": "address"
                },
                {
                  "internalType": "uint8",
                  "name": "decimals",
                  "type": "uint8"
                },
                {
                  "internalType": "string",
                  "name": "symbol",
                  "type": "string"
                },
                {
                  "internalType": "uint256",
                  "name": "poolBalance",
                  "type": "uint256"
                }
              ],
              "internalType": "struct UniswapTokenData",
              "name": "token0",
              "type": "tuple"
            },
            {
              "components": [
                {
                  "internalType": "address",
                  "name": "add",
                  "type": "address"
                },
                {
                  "internalType": "uint8",
                  "name": "decimals",
                  "type": "uint8"
                },
                {
                  "internalType": "string",
                  "name": "symbol",
                  "type": "string"
                },
                {
                  "internalType": "uint256",
                  "name": "poolBalance",
                  "type": "uint256"
                }
              ],
              "internalType": "struct UniswapTokenData",
              "name": "token1",
              "type": "tuple"
            },
            {
              "internalType": "string",
              "name": "rewardTokenSymbol",
              "type": "string"
            },
            {
              "internalType": "uint8",
              "name": "rewardTokenDecimals",
              "type": "uint8"
            }
          ],
          "internalType": "struct ExtensiveDistributionParameters[]",
          "name": "",
          "type": "tuple[]"
        }
      ],
      "stateMutability": "view",
      "type": "function"
    },
    {
      "inputs": [
        {
          "internalType": "address",
          "name": "uniV3Pool",
          "type": "address"
        },
        {
          "internalType": "uint32",
          "name": "epochStart",
          "type": "uint32"
        }
      ],
      "name": "getPoolDistributionsAfterEpoch",
      "outputs": [
        {
          "components": [
            {
              "components": [
                {
                  "internalType": "bytes32",
                  "name": "rewardId",
                  "type": "bytes32"
                },
                {
                  "internalType": "address",
                  "name": "uniV3Pool",
                  "type": "address"
                },
                {
                  "internalType": "address",
                  "name": "rewardToken",
                  "type": "address"
                },
                {
                  "internalType": "uint256",
                  "name": "amount",
                  "type": "uint256"
                },
                {
                  "internalType": "address[]",
                  "name": "positionWrappers",
                  "type": "address[]"
                },
                {
                  "internalType": "uint32[]",
                  "name": "wrapperTypes",
                  "type": "uint32[]"
                },
                {
                  "internalType": "uint32",
                  "name": "propToken0",
                  "type": "uint32"
                },
                {
                  "internalType": "uint32",
                  "name": "propToken1",
                  "type": "uint32"
                },
                {
                  "internalType": "uint32",
                  "name": "propFees",
                  "type": "uint32"
                },
                {
                  "internalType": "uint32",
                  "name": "epochStart",
                  "type": "uint32"
                },
                {
                  "internalType": "uint32",
                  "name": "numEpoch",
                  "type": "uint32"
                },
                {
                  "internalType": "uint32",
                  "name": "isOutOfRangeIncentivized",
                  "type": "uint32"
                },
                {
                  "internalType": "uint32",
                  "name": "boostedReward",
                  "type": "uint32"
                },
                {
                  "internalType": "address",
                  "name": "boostingAddress",
                  "type": "address"
                },
                {
                  "internalType": "bytes",
                  "name": "additionalData",
                  "type": "bytes"
                }
              ],
              "internalType": "struct DistributionParameters",
              "name": "base",
              "type": "tuple"
            },
            {
              "internalType": "uint24",
              "name": "poolFee",
              "type": "uint24"
            },
            {
              "components": [
                {
                  "internalType": "address",
                  "name": "add",
                  "type": "address"
                },
                {
                  "internalType": "uint8",
                  "name": "decimals",
                  "type": "uint8"
                },
                {
                  "internalType": "string",
                  "name": "symbol",
                  "type": "string"
                },
                {
                  "internalType": "uint256",
                  "name": "poolBalance",
                  "type": "uint256"
                }
              ],
              "internalType": "struct UniswapTokenData",
              "name": "token0",
              "type": "tuple"
            },
            {
              "components": [
                {
                  "internalType": "address",
                  "name": "add",
                  "type": "address"
                },
                {
                  "internalType": "uint8",
                  "name": "decimals",
                  "type": "uint8"
                },
                {
                  "internalType": "string",
                  "name": "symbol",
                  "type": "string"
                },
                {
                  "internalType": "uint256",
                  "name": "poolBalance",
                  "type": "uint256"
                }
              ],
              "internalType": "struct UniswapTokenData",
              "name": "token1",
              "type": "tuple"
            },
            {
              "internalType": "string",
              "name": "rewardTokenSymbol",
              "type": "string"
            },
            {
              "internalType": "uint8",
              "name": "rewardTokenDecimals",
              "type": "uint8"
            }
          ],
          "internalType": "struct ExtensiveDistributionParameters[]",
          "name": "",
          "type": "tuple[]"
        }
      ],
      "stateMutability": "view",
      "type": "function"
    },
    {
      "inputs": [
        {
          "internalType": "address",
          "name": "uniV3Pool",
          "type": "address"
        },
        {
          "internalType": "uint32",
          "name": "epochStart",
          "type": "uint32"
        },
        {
          "internalType": "uint32",
          "name": "epochEnd",
          "type": "uint32"
        }
      ],
      "name": "getPoolDistributionsBetweenEpochs",
      "outputs": [
        {
          "components": [
            {
              "components": [
                {
                  "internalType": "bytes32",
                  "name": "rewardId",
                  "type": "bytes32"
                },
                {
                  "internalType": "address",
                  "name": "uniV3Pool",
                  "type": "address"
                },
                {
                  "internalType": "address",
                  "name": "rewardToken",
                  "type": "address"
                },
                {
                  "internalType": "uint256",
                  "name": "amount",
                  "type": "uint256"
                },
                {
                  "internalType": "address[]",
                  "name": "positionWrappers",
                  "type": "address[]"
                },
                {
                  "internalType": "uint32[]",
                  "name": "wrapperTypes",
                  "type": "uint32[]"
                },
                {
                  "internalType": "uint32",
                  "name": "propToken0",
                  "type": "uint32"
                },
                {
                  "internalType": "uint32",
                  "name": "propToken1",
                  "type": "uint32"
                },
                {
                  "internalType": "uint32",
                  "name": "propFees",
                  "type": "uint32"
                },
                {
                  "internalType": "uint32",
                  "name": "epochStart",
                  "type": "uint32"
                },
                {
                  "internalType": "uint32",
                  "name": "numEpoch",
                  "type": "uint32"
                },
                {
                  "internalType": "uint32",
                  "name": "isOutOfRangeIncentivized",
                  "type": "uint32"
                },
                {
                  "internalType": "uint32",
                  "name": "boostedReward",
                  "type": "uint32"
                },
                {
                  "internalType": "address",
                  "name": "boostingAddress",
                  "type": "address"
                },
                {
                  "internalType": "bytes",
                  "name": "additionalData",
                  "type": "bytes"
                }
              ],
              "internalType": "struct DistributionParameters",
              "name": "base",
              "type": "tuple"
            },
            {
              "internalType": "uint24",
              "name": "poolFee",
              "type": "uint24"
            },
            {
              "components": [
                {
                  "internalType": "address",
                  "name": "add",
                  "type": "address"
                },
                {
                  "internalType": "uint8",
                  "name": "decimals",
                  "type": "uint8"
                },
                {
                  "internalType": "string",
                  "name": "symbol",
                  "type": "string"
                },
                {
                  "internalType": "uint256",
                  "name": "poolBalance",
                  "type": "uint256"
                }
              ],
              "internalType": "struct UniswapTokenData",
              "name": "token0",
              "type": "tuple"
            },
            {
              "components": [
                {
                  "internalType": "address",
                  "name": "add",
                  "type": "address"
                },
                {
                  "internalType": "uint8",
                  "name": "decimals",
                  "type": "uint8"
                },
                {
                  "internalType": "string",
                  "name": "symbol",
                  "type": "string"
                },
                {
                  "internalType": "uint256",
                  "name": "poolBalance",
                  "type": "uint256"
                }
              ],
              "internalType": "struct UniswapTokenData",
              "name": "token1",
              "type": "tuple"
            },
            {
              "internalType": "string",
              "name": "rewardTokenSymbol",
              "type": "string"
            },
            {
              "internalType": "uint8",
              "name": "rewardTokenDecimals",
              "type": "uint8"
            }
          ],
          "internalType": "struct ExtensiveDistributionParameters[]",
          "name": "",
          "type": "tuple[]"
        }
      ],
      "stateMutability": "view",
      "type": "function"
    },
    {
      "inputs": [
        {
          "internalType": "address",
          "name": "uniV3Pool",
          "type": "address"
        },
        {
          "internalType": "uint32",
          "name": "epoch",
          "type": "uint32"
        }
      ],
      "name": "getPoolDistributionsForEpoch",
      "outputs": [
        {
          "components": [
            {
              "components": [
                {
                  "internalType": "bytes32",
                  "name": "rewardId",
                  "type": "bytes32"
                },
                {
                  "internalType": "address",
                  "name": "uniV3Pool",
                  "type": "address"
                },
                {
                  "internalType": "address",
                  "name": "rewardToken",
                  "type": "address"
                },
                {
                  "internalType": "uint256",
                  "name": "amount",
                  "type": "uint256"
                },
                {
                  "internalType": "address[]",
                  "name": "positionWrappers",
                  "type": "address[]"
                },
                {
                  "internalType": "uint32[]",
                  "name": "wrapperTypes",
                  "type": "uint32[]"
                },
                {
                  "internalType": "uint32",
                  "name": "propToken0",
                  "type": "uint32"
                },
                {
                  "internalType": "uint32",
                  "name": "propToken1",
                  "type": "uint32"
                },
                {
                  "internalType": "uint32",
                  "name": "propFees",
                  "type": "uint32"
                },
                {
                  "internalType": "uint32",
                  "name": "epochStart",
                  "type": "uint32"
                },
                {
                  "internalType": "uint32",
                  "name": "numEpoch",
                  "type": "uint32"
                },
                {
                  "internalType": "uint32",
                  "name": "isOutOfRangeIncentivized",
                  "type": "uint32"
                },
                {
                  "internalType": "uint32",
                  "name": "boostedReward",
                  "type": "uint32"
                },
                {
                  "internalType": "address",
                  "name": "boostingAddress",
                  "type": "address"
                },
                {
                  "internalType": "bytes",
                  "name": "additionalData",
                  "type": "bytes"
                }
              ],
              "internalType": "struct DistributionParameters",
              "name": "base",
              "type": "tuple"
            },
            {
              "internalType": "uint24",
              "name": "poolFee",
              "type": "uint24"
            },
            {
              "components": [
                {
                  "internalType": "address",
                  "name": "add",
                  "type": "address"
                },
                {
                  "internalType": "uint8",
                  "name": "decimals",
                  "type": "uint8"
                },
                {
                  "internalType": "string",
                  "name": "symbol",
                  "type": "string"
                },
                {
                  "internalType": "uint256",
                  "name": "poolBalance",
                  "type": "uint256"
                }
              ],
              "internalType": "struct UniswapTokenData",
              "name": "token0",
              "type": "tuple"
            },
            {
              "components": [
                {
                  "internalType": "address",
                  "name": "add",
                  "type": "address"
                },
                {
                  "internalType": "uint8",
                  "name": "decimals",
                  "type": "uint8"
                },
                {
                  "internalType": "string",
                  "name": "symbol",
                  "type": "string"
                },
                {
                  "internalType": "uint256",
                  "name": "poolBalance",
                  "type": "uint256"
                }
              ],
              "internalType": "struct UniswapTokenData",
              "name": "token1",
              "type": "tuple"
            },
            {
              "internalType": "string",
              "name": "rewardTokenSymbol",
              "type": "string"
            },
            {
              "internalType": "uint8",
              "name": "rewardTokenDecimals",
              "type": "uint8"
            }
          ],
          "internalType": "struct ExtensiveDistributionParameters[]",
          "name": "",
          "type": "tuple[]"
        }
      ],
      "stateMutability": "view",
      "type": "function"
    },
    {
      "inputs": [],
      "name": "getValidRewardTokens",
      "outputs": [
        {
          "components": [
            {
              "internalType": "address",
              "name": "token",
              "type": "address"
            },
            {
              "internalType": "uint256",
              "name": "minimumAmountPerEpoch",
              "type": "uint256"
            }
          ],
          "internalType": "struct RewardTokenAmounts[]",
          "name": "",
          "type": "tuple[]"
        }
      ],
      "stateMutability": "view",
      "type": "function"
    },
    {
      "inputs": [
        {
          "internalType": "contract ICore",
          "name": "_core",
          "type": "address"
        },
        {
          "internalType": "address",
          "name": "_distributor",
          "type": "address"
        },
        {
          "internalType": "uint256",
          "name": "_fees",
          "type": "uint256"
        }
      ],
      "name": "initialize",
      "outputs": [],
      "stateMutability": "nonpayable",
      "type": "function"
    },
    {
      "inputs": [
        {
          "internalType": "address",
          "name": "",
          "type": "address"
        }
      ],
      "name": "isWhitelistedToken",
      "outputs": [
        {
          "internalType": "uint256",
          "name": "",
          "type": "uint256"
        }
      ],
      "stateMutability": "view",
      "type": "function"
    },
    {
      "inputs": [],
      "name": "message",
      "outputs": [
        {
          "internalType": "string",
          "name": "",
          "type": "string"
        }
      ],
      "stateMutability": "view",
      "type": "function"
    },
    {
      "inputs": [],
      "name": "messageHash",
      "outputs": [
        {
          "internalType": "bytes32",
          "name": "",
          "type": "bytes32"
        }
      ],
      "stateMutability": "view",
      "type": "function"
    },
    {
      "inputs": [
        {
          "internalType": "address",
          "name": "",
          "type": "address"
        }
      ],
      "name": "nonces",
      "outputs": [
        {
          "internalType": "uint256",
          "name": "",
          "type": "uint256"
        }
      ],
      "stateMutability": "view",
      "type": "function"
    },
    {
      "inputs": [],
      "name": "proxiableUUID",
      "outputs": [
        {
          "internalType": "bytes32",
          "name": "",
          "type": "bytes32"
        }
      ],
      "stateMutability": "view",
      "type": "function"
    },
    {
      "inputs": [
        {
          "internalType": "contract IERC20[]",
          "name": "tokens",
          "type": "address[]"
        },
        {
          "internalType": "address",
          "name": "to",
          "type": "address"
        }
      ],
      "name": "recoverFees",
      "outputs": [],
      "stateMutability": "nonpayable",
      "type": "function"
    },
    {
      "inputs": [
        {
          "internalType": "address",
          "name": "",
          "type": "address"
        }
      ],
      "name": "rewardTokenMinAmounts",
      "outputs": [
        {
          "internalType": "uint256",
          "name": "",
          "type": "uint256"
        }
      ],
      "stateMutability": "view",
      "type": "function"
    },
    {
      "inputs": [
        {
          "internalType": "uint256",
          "name": "",
          "type": "uint256"
        }
      ],
      "name": "rewardTokens",
      "outputs": [
        {
          "internalType": "address",
          "name": "",
          "type": "address"
        }
      ],
      "stateMutability": "view",
      "type": "function"
    },
    {
      "inputs": [
        {
          "internalType": "address",
          "name": "_feeRecipient",
          "type": "address"
        }
      ],
      "name": "setFeeRecipient",
      "outputs": [],
      "stateMutability": "nonpayable",
      "type": "function"
    },
    {
      "inputs": [
        {
          "internalType": "uint256",
          "name": "_fees",
          "type": "uint256"
        }
      ],
      "name": "setFees",
      "outputs": [],
      "stateMutability": "nonpayable",
      "type": "function"
    },
    {
      "inputs": [
        {
          "internalType": "string",
          "name": "_message",
          "type": "string"
        }
      ],
      "name": "setMessage",
      "outputs": [],
      "stateMutability": "nonpayable",
      "type": "function"
    },
    {
      "inputs": [
        {
          "internalType": "address",
          "name": "_distributor",
          "type": "address"
        }
      ],
      "name": "setNewDistributor",
      "outputs": [],
      "stateMutability": "nonpayable",
      "type": "function"
    },
    {
      "inputs": [
        {
          "internalType": "address[]",
          "name": "tokens",
          "type": "address[]"
        },
        {
          "internalType": "uint256[]",
          "name": "amounts",
          "type": "uint256[]"
        }
      ],
      "name": "setRewardTokenMinAmounts",
      "outputs": [],
      "stateMutability": "nonpayable",
      "type": "function"
    },
    {
      "inputs": [
        {
          "internalType": "address",
          "name": "user",
          "type": "address"
        },
        {
          "internalType": "uint256",
          "name": "userFeeRebate",
          "type": "uint256"
        }
      ],
      "name": "setUserFeeRebate",
      "outputs": [],
      "stateMutability": "nonpayable",
      "type": "function"
    },
    {
      "inputs": [
        {
          "internalType": "bytes",
          "name": "signature",
          "type": "bytes"
        }
      ],
      "name": "sign",
      "outputs": [],
      "stateMutability": "nonpayable",
      "type": "function"
    },
    {
      "inputs": [
        {
          "components": [
            {
              "internalType": "bytes32",
              "name": "rewardId",
              "type": "bytes32"
            },
            {
              "internalType": "address",
              "name": "uniV3Pool",
              "type": "address"
            },
            {
              "internalType": "address",
              "name": "rewardToken",
              "type": "address"
            },
            {
              "internalType": "uint256",
              "name": "amount",
              "type": "uint256"
            },
            {
              "internalType": "address[]",
              "name": "positionWrappers",
              "type": "address[]"
            },
            {
              "internalType": "uint32[]",
              "name": "wrapperTypes",
              "type": "uint32[]"
            },
            {
              "internalType": "uint32",
              "name": "propToken0",
              "type": "uint32"
            },
            {
              "internalType": "uint32",
              "name": "propToken1",
              "type": "uint32"
            },
            {
              "internalType": "uint32",
              "name": "propFees",
              "type": "uint32"
            },
            {
              "internalType": "uint32",
              "name": "epochStart",
              "type": "uint32"
            },
            {
              "internalType": "uint32",
              "name": "numEpoch",
              "type": "uint32"
            },
            {
              "internalType": "uint32",
              "name": "isOutOfRangeIncentivized",
              "type": "uint32"
            },
            {
              "internalType": "uint32",
              "name": "boostedReward",
              "type": "uint32"
            },
            {
              "internalType": "address",
              "name": "boostingAddress",
              "type": "address"
            },
            {
              "internalType": "bytes",
              "name": "additionalData",
              "type": "bytes"
            }
          ],
          "internalType": "struct DistributionParameters",
          "name": "distribution",
          "type": "tuple"
        },
        {
          "internalType": "bytes",
          "name": "signature",
          "type": "bytes"
        }
      ],
      "name": "signAndCreateDistribution",
      "outputs": [
        {
          "internalType": "uint256",
          "name": "distributionAmount",
          "type": "uint256"
        }
      ],
      "stateMutability": "nonpayable",
      "type": "function"
    },
    {
      "inputs": [
        {
          "internalType": "address",
          "name": "user",
          "type": "address"
        }
      ],
      "name": "toggleSigningWhitelist",
      "outputs": [],
      "stateMutability": "nonpayable",
      "type": "function"
    },
    {
      "inputs": [
        {
          "internalType": "address",
          "name": "token",
          "type": "address"
        }
      ],
      "name": "toggleTokenWhitelist",
      "outputs": [],
      "stateMutability": "nonpayable",
      "type": "function"
    },
    {
      "inputs": [
        {
          "internalType": "address",
          "name": "newImplementation",
          "type": "address"
        }
      ],
      "name": "upgradeTo",
      "outputs": [],
      "stateMutability": "nonpayable",
      "type": "function"
    },
    {
      "inputs": [
        {
          "internalType": "address",
          "name": "newImplementation",
          "type": "address"
        },
        {
          "internalType": "bytes",
          "name": "data",
          "type": "bytes"
        }
      ],
      "name": "upgradeToAndCall",
      "outputs": [],
      "stateMutability": "payable",
      "type": "function"
    },
    {
      "inputs": [
        {
          "internalType": "address",
          "name": "",
          "type": "address"
        }
      ],
      "name": "userSignatureWhitelist",
      "outputs": [
        {
          "internalType": "uint256",
          "name": "",
          "type": "uint256"
        }
      ],
      "stateMutability": "view",
      "type": "function"
    },
    {
      "inputs": [
        {
          "internalType": "address",
          "name": "",
          "type": "address"
        }
      ],
      "name": "userSignatures",
      "outputs": [
        {
          "internalType": "bytes32",
          "name": "",
          "type": "bytes32"
        }
      ],
      "stateMutability": "view",
      "type": "function"
    }
  ],
  "transactionHash": "0x47607fd6f9b876967be81998e4eefa5378339ee04edb5aa836b5ddc4f1b11336",
  "args": [],
  "numDeployments": 1,
  "solcInputHash": "2b2389a9c25c342d95712a91cb58804b",
  "bytecode": "0x60a060405234620000495730608052620000186200004e565b620000226200004e565b604051614e4690816200015a8239608051818181610b6601528181610f68015261103c0152f35b600080fd5b60005460ff8160081c1615908180926200014b575b801562000132575b15620000d65760ff19811660011760005581620000c3575b506200008b57565b61ff0019600054166000557f7f26b83ff96e1f2b6a682f133852f6798a09c465da95921460cefb3847402498602060405160018152a1565b61ffff1916610101176000553862000083565b60405162461bcd60e51b815260206004820152602e60248201527f496e697469616c697a61626c653a20636f6e747261637420697320616c72656160448201526d191e481a5b9a5d1a585b1a5e995960921b6064820152608490fd5b50303b1580156200006b5750600160ff8216146200006b565b50600160ff8216106200006356fe60806040526004361015610013575b600080fd5b60003560e01c80630241d8f91461036f57806303d2944c146103665780630f44380d1461035d578063141df5031461035457806317418a221461034b5780631794bb3c146103425780632acd7ec41461033957806330444017146103305780633659cfe614610327578063368b87721461031e5780633d18678e14610315578063469048401461030c5780634f1ef2861461030357806352d1902d146102fa57806358beb884146102f15780636c1550b1146102e85780636cca84bd146102df578063734e7fb9146102d6578063752e8749146102cd57806376cd7cbc146102c45780637b74691e146102bb5780637bb7bed1146102b25780637ecebe00146102a95780638a4bd4b2146102a057806395d3d5d81461029757806396b3ce541461028e5780639af1d35a14610285578063a21840401461027c578063a2686e2314610273578063a70b9f0c1461026a578063ab37f48614610261578063ae23bf2814610258578063b9d81abc1461024f578063ba5c3a9d14610246578063bfe109281461023d578063d0ff94b214610234578063d7fa56251461022b578063e1394f7d14610222578063e21f37ce14610219578063e74b981b14610210578063f2f4eb2614610207578063fb1d2329146101fe5763feba1ed2146101f657600080fd5b61000e612271565b5061000e612214565b5061000e6121ea565b5061000e612156565b5061000e61207c565b5061000e612029565b5061000e611feb565b5061000e611efc565b5061000e611ed2565b5061000e611e24565b5061000e611b8a565b5061000e611b53565b5061000e611b15565b5061000e611af7565b5061000e611a63565b5061000e61199e565b5061000e61197f565b5061000e611941565b5061000e611824565b5061000e61178b565b5061000e61174d565b5061000e6116f1565b5061000e6115c5565b5061000e611591565b5061000e611571565b5061000e611527565b5061000e611493565b5061000e6113e3565b5061000e611341565b5061000e611028565b5061000e610f23565b5061000e610ede565b5061000e610e54565b5061000e610d9c565b5061000e610b3b565b5061000e610b1c565b5061000e610ade565b5061000e6109de565b5061000e610998565b5061000e6108e4565b5061000e6107eb565b5061000e610452565b5061000e610396565b6001600160a01b0381160361000e57565b359061039482610378565b565b503461000e57604036600319011261000e576004356103b481610378565b60975460405163521d4de960e01b815233600482015290602090829060249082906001600160a01b03165afa908115610445575b600091610417575b5015610405576104039060243590613df1565b005b604051632678482f60e21b8152600490fd5b610438915060203d811161043e575b6104308183610ce0565b810190612969565b386103f0565b503d610426565b61044d6123b6565b6103e8565b503461000e57602036600319011261000e5760043561047081610378565b60975460405163521d4de960e01b815233600482015290602090829060249082906001600160a01b03165afa9081156104d9575b6000916104bb575b50156104055761040390613d6c565b6104d3915060203d811161043e576104308183610ce0565b386104ac565b6104e16123b6565b6104a4565b6004359063ffffffff8216820361000e57565b6024359063ffffffff8216820361000e57565b359063ffffffff8216820361000e57565b90815180825260208080930193019160005b82811061053d575050505090565b83516001600160a01b03168552938101939281019260010161052f565b90815180825260208080930193019160005b82811061057a575050505090565b835163ffffffff168552938101939281019260010161056c565b60005b8381106105a75750506000910152565b8181015183820152602001610597565b906020916105d081518092818552858086019101610594565b601f01601f1916010190565b805182526020808201516001600160a01b0316908301526106e091906040818101516001600160a01b0316908301526060810151606083015261064361063160808301516101e080608087015285019061051d565b60a083015184820360a086015261055a565b60c08281015163ffffffff16908401529160e08281015163ffffffff16908201526101008281015163ffffffff16908201526101208281015163ffffffff16908201526101408281015163ffffffff16908201526101608281015163ffffffff16908201526101808281015163ffffffff16908201526101a0828101516001600160a01b0316908201526101c080920151918184039101526105b7565b90565b9060018060a01b03825116815260ff602083015116602082015260608061071960408501516080604086015260808501906105b7565b93015191015290565b602080820190808352835180925260409283810182858560051b8401019601946000925b858410610757575050505050505090565b909192939495968580600192603f198582030187528a51906107cd6107ba6107a761078a855160c08087528601906105dc565b62ffffff8787015116878601528a8601518582038c8701526106e3565b60608086015190858303908601526106e3565b60808085015190848303908501526105b7565b9160ff60a08092015116910152990194019401929594939190610746565b503461000e57602036600319011261000e5763ffffffff610818610e10826108116104e6565b160461452b565b6000609d5461082681614642565b92825b828682161061084757838552604051806108438782610722565b0390f35b8061085b6108558893611c5c565b50613c83565b61086584826147cf565b806108ac575b61087a575b5060010116610829565b6001919561088a6108a592614981565b610894828a61297d565b5261089f818961297d565b50612fe7565b9490610870565b50600161086b565b9181601f8401121561000e578235916001600160401b03831161000e576020808501948460051b01011161000e57565b503461000e57604036600319011261000e576004356001600160401b03811161000e576109159036906004016108b4565b6024359061092282610378565b60975460405163521d4de960e01b815233600482015290602090829060249082906001600160a01b03165afa90811561098b575b60009161096d575b50156104055761040392613ec3565b610985915060203d811161043e576104308183610ce0565b3861095e565b6109936123b6565b610956565b503461000e57600036600319011261000e576108436109d26109c3610e1063ffffffff42160461452b565b6109cc81612f4a565b90614692565b60405191829182610722565b503461000e57606036600319011261000e576004356109fc81610378565b610a5260243591610a0c83610378565b60005492610a3160ff8560081c161580958196610ad0575b8115610ab0575b50612885565b83610a44600160ff196000541617600055565b610a97575b604435916128e8565b610a5857005b610a6861ff001960005416600055565b604051600181527f7f26b83ff96e1f2b6a682f133852f6798a09c465da95921460cefb384740249890602090a1005b610aab61010061ff00196000541617600055565b610a49565b303b15915081610ac2575b5038610a2b565b6001915060ff161438610abb565b600160ff8216109150610a24565b503461000e57602036600319011261000e57600435610afc81610378565b60018060a01b031660005260a36020526020604060002054604051908152f35b503461000e57600036600319011261000e576020609c54604051908152f35b503461000e57602036600319011261000e57600435610b5981610378565b6001600160a01b03610bab7f00000000000000000000000000000000000000000000000000000000000000008216610b93308214156122af565b82600080516020614df1833981519152541614612310565b609754610bc8906001600160a01b03165b6001600160a01b031690565b90811615159081610beb575b506104055761040390610be5612371565b90612470565b60405163521d4de960e01b81523360048201529150602090829060249082905afa908115610c42575b600091610c24575b501538610bd4565b610c3c915060203d811161043e576104308183610ce0565b38610c1c565b610c4a6123b6565b610c14565b50634e487b7160e01b600052604160045260246000fd5b604081019081106001600160401b03821117610c8157604052565b610c89610c4f565b604052565b60c081019081106001600160401b03821117610c8157604052565b6101e081019081106001600160401b03821117610c8157604052565b606081019081106001600160401b03821117610c8157604052565b90601f801991011681019081106001600160401b03821117610c8157604052565b604051906101e082018281106001600160401b03821117610c8157604052565b6040519061039482610c66565b6040519061039482610ca9565b6020906001600160401b038111610d58575b601f01601f19160190565b610d60610c4f565b610d4d565b929192610d7182610d3b565b91610d7f6040519384610ce0565b82948184528183011161000e578281602093846000960137010152565b503461000e57602036600319011261000e576004356001600160401b03811161000e573660238201121561000e57610dde903690602481600401359101610d65565b60975460405163521d4de960e01b815233600482015290602090829060249082906001600160a01b03165afa908115610e47575b600091610e29575b50156104055761040390614197565b610e41915060203d811161043e576104308183610ce0565b38610e1a565b610e4f6123b6565b610e12565b503461000e57602036600319011261000e5760975460405163521d4de960e01b815233600482015290602090829060249082906001600160a01b03165afa908115610ed1575b600091610eb3575b501561040557610403600435613db4565b610ecb915060203d811161043e576104308183610ce0565b38610ea2565b610ed96123b6565b610e9a565b503461000e57600036600319011261000e576099546040516001600160a01b039091168152602090f35b9080601f8301121561000e578160206106e093359101610d65565b50604036600319011261000e57600435610f3c81610378565b6024356001600160401b03811161000e57610f5b903690600401610f08565b6001600160a01b03610f957f00000000000000000000000000000000000000000000000000000000000000008216610b93308214156122af565b609754610faa906001600160a01b0316610bbc565b90811615159081610fc4575b506104055761040391612547565b60405163521d4de960e01b81523360048201529150602090829060249082905afa90811561101b575b600091610ffd575b501538610fb6565b611015915060203d811161043e576104308183610ce0565b38610ff5565b6110236123b6565b610fed565b503461000e57600036600319011261000e577f00000000000000000000000000000000000000000000000000000000000000006001600160a01b0316300361108357604051600080516020614df18339815191528152602090f35b60405162461bcd60e51b815260206004820152603860248201527f555550535570677261646561626c653a206d757374206e6f742062652063616c6044820152771b1959081d1a1c9bdd59da0819195b1959d85d1958d85b1b60421b6064820152608490fd5b6020906001600160401b038111611102575b60051b0190565b61110a610c4f565b6110fb565b81601f8201121561000e57803591611126836110e9565b926111346040519485610ce0565b808452602092838086019260051b82010192831161000e578301905b82821061115e575050505090565b838091833561116c81610378565b815201910190611150565b81601f8201121561000e5780359161118e836110e9565b9261119c6040519485610ce0565b808452602092838086019260051b82010192831161000e578301905b8282106111c6575050505090565b8380916111d28461050c565b8152019101906111b8565b91906101e08382031261000e576111f2610d01565b928035845261120360208201610389565b602085015261121460408201610389565b6040850152606081013560608501526080810135916001600160401b039283811161000e578161124591840161110f565b608086015260a082013583811161000e5781611262918401611177565b60a086015261127360c0830161050c565b60c086015261128460e0830161050c565b60e086015261010061129781840161050c565b908601526101206112a981840161050c565b908601526101406112bb81840161050c565b908601526101606112cd81840161050c565b908601526101806112df81840161050c565b908601526101a06112f1818401610389565b908601526101c0928383013590811161000e5761130e9201610f08565b90830152565b9181601f8401121561000e578235916001600160401b03831161000e576020838186019501011161000e57565b503461000e57604036600319011261000e576001600160401b0360043581811161000e576113739036906004016111dd565b9060243590811161000e5760209161139b6113956113a0933690600401611314565b9061379e565b612a7a565b604051908152f35b6020908160408183019282815285518094520193019160005b8281106113cf575050505090565b8351855293810193928101926001016113c1565b503461000e5760208060031936011261000e576001600160401b039060043582811161000e573660238201121561000e578060040135611422816110e9565b936114306040519586610ce0565b818552838501906024809360051b8501019336851161000e57838101925b85841061146d576108436114618961299f565b604051918291826113a8565b833583811161000e57879161148883928836918701016111dd565b81520193019261144e565b503461000e57602036600319011261000e576004356114b181610378565b60975460405163521d4de960e01b815233600482015290602090829060249082906001600160a01b03165afa90811561151a575b6000916114fc575b50156104055761040390613e36565b611514915060203d811161043e576104308183610ce0565b386114ed565b6115226123b6565b6114e5565b503461000e57604036600319011261000e576108436109d26115476104e6565b6109cc6115526104f9565b91610e10906115698263ffffffff8093160461452b565b93160461452b565b503461000e57600036600319011261000e576020604051633b9aca008152f35b503461000e57602036600319011261000e576004356001600160401b03811161000e57611395610403913690600401611314565b503461000e576000806003193601126116ae57609d546115e4816110e9565b906115f26040519283610ce0565b808252609d835260209283830191817fd26e832454299e9fabb89e0e5fffdc046d4e14431bc1bf607ffb2e8a1ddecf7b845b8383106116895750505050604051928484019085855251809152604084019460408260051b8601019392955b82871061165d5785850386f35b909192938280611679600193603f198a820301865288516105dc565b9601920196019592919092611650565b60098860019261169c859b9a989b613c83565b81520192019201919096939596611624565b80fd5b50634e487b7160e01b600052603260045260246000fd5b60a4548110156116e4575b60a460005260206000200190600090565b6116ec6116b1565b6116d3565b503461000e57602036600319011261000e5760043560a45481101561000e5760a46000527fe434dc35da084cf8d7e8186688ea2dacb53db7003d427af3abf351bd9d0a4e8d01546040516001600160a01b039091168152602090f35b503461000e57602036600319011261000e5760043561176b81610378565b60018060a01b031660005260a06020526020604060002054604051908152f35b503461000e57602036600319011261000e576108436109d26004356117af81610378565b6117c2610e1063ffffffff42160461452b565b6117cb81612f4a565b91614717565b60208082019080835283518092528060408094019401926000905b8382106117fb57505050505090565b845180516001600160a01b031687528301518684015294850194938201936001909101906117ec565b503461000e576000806003193601126116ae5760a45481611844826110e9565b60409161185383519283610ce0565b838252601f19611862856110e9565b01815b81811061191f5750505b63ffffffff9084828216101561190f576118a061188b826116c8565b905460039190911b1c6001600160a01b031690565b6001600160a01b038116600090815260a36020526040902054806118ca575b50506001011661186f565b9661190791600193986118ed6118de610d21565b6001600160a01b039093168352565b60208201526118fc828761297d565b5261089f818661297d565b9590386118bf565b85835283518061084385826117d1565b602090855161192d81610c66565b848152828581830152828701015201611865565b503461000e57602036600319011261000e5760043561195f81610378565b60018060a01b031660005260a16020526020604060002054604051908152f35b503461000e57600036600319011261000e576020609a54604051908152f35b503461000e57604036600319011261000e576001600160401b0360043581811161000e576119d09036906004016108b4565b909160243590811161000e576119ea9036906004016108b4565b60975460405163521d4de960e01b815233600482015291939190602090829060249082906001600160a01b03165afa908115611a56575b600091611a38575b50156104055761040393614068565b611a50915060203d811161043e576104308183610ce0565b38611a29565b611a5e6123b6565b611a21565b503461000e57602036600319011261000e57600435611a8181610378565b60975460405163521d4de960e01b815233600482015290602090829060249082906001600160a01b03165afa908115611aea575b600091611acc575b501561040557610403906144c0565b611ae4915060203d811161043e576104308183610ce0565b38611abd565b611af26123b6565b611ab5565b503461000e57600036600319011261000e576020604051610e108152f35b503461000e57602036600319011261000e57600435611b3381610378565b60018060a01b0316600052609f6020526020604060002054604051908152f35b503461000e57604036600319011261000e576108436109d2600435611b7781610378565b6117c2610e1063ffffffff6108116104f9565b503461000e57602036600319011261000e576004356001600160401b03811161000e57611bbb9036906004016111dd565b3360005260a26020526040600020541580611c41575b80611c2a575b80611c0f575b611bfd57611bed61084391612a7a565b6040519081529081906020820190565b6040516314e52a5b60e31b8152600490fd5b5032600090815260a16020526040902054609c541415611bdd565b5032600090815260a2602052604090205415611bd7565b5033600090815260a16020526040902054609c541415611bd1565b609d54811015611c7c575b609d6000526009602060002091020190600090565b611c846116b1565b611c67565b90600182811c92168015611cb9575b6020831014611ca357565b634e487b7160e01b600052602260045260246000fd5b91607f1691611c98565b9060405191826000825492611cd784611c89565b908184526001948581169081600014611d445750600114611d01575b505061039492500383610ce0565b9093915060005260209081600020936000915b818310611d2c57505061039493508201013880611cf3565b85548884018501529485019487945091830191611d14565b91505061039494506020925060ff191682840152151560051b8201013880611cf3565b9a96611dca908c6106e09f9e9b95611e129d98611df39a611de599611dd798611e019f989460a0958752600180871b038092166020880152166040860152606085015263ffffffff80921660808501521691015260c08d019063ffffffff169052565b63ffffffff1660e08b0152565b63ffffffff16610100890152565b63ffffffff16610120870152565b63ffffffff16610140850152565b6001600160a01b0316610160830152565b6101a0908161018082015201906105b7565b503461000e57602036600319011261000e57600435609d5481101561000e57611e4c90611c5c565b5080549061084360018060a01b038060018401541690600284015416926003810154600682015494611e936008611e8c600786015460018060a01b031690565b9401611cc3565b9360405197889763ffffffff9089828260c01c1696838360a01c1696848460801c1696858560601c1696868660401c1696808760201c16961694611d67565b503461000e57600036600319011261000e576098546040516001600160a01b039091168152602090f35b503461000e57604036600319011261000e57600435611f1a81610378565b63ffffffff90611f2f610e10836108116104f9565b609d54600091611f3e82614642565b93835b8387821610611f5b57848652604051806108438882610722565b80611f696108558993611c5c565b611f7385826147cf565b80611fb4575b611f88575b5060010116611f41565b60019196611f98611fad92614981565b611fa2828b61297d565b5261089f818a61297d565b9590611f7e565b506001600160a01b038481168015918215611fd1575b5050611f79565b6020840151919250166001600160a01b0316143880611fca565b503461000e57602036600319011261000e5760043561200981610378565b60018060a01b031660005260a26020526020604060002054604051908152f35b503461000e57602036600319011261000e576108436109d26109c3610e1063ffffffff6108116104e6565b50634e487b7160e01b600052600060045260246000fd5b9060206106e09281815201906105b7565b503461000e576000806003193601126116ae5760405181609b5461209f81611c89565b8084529060019081811690811561212e57506001146120d5575b610843846120c981880382610ce0565b6040519182918261206b565b609b8352602094507fbba9db4cdbea0a37c207bbb83e20f828cd4441c49891101dc94fd20dc8efc3495b82841061211b5750505081610843936120c992820101936120b9565b80548585018701529285019281016120ff565b61084396506120c99450602092508593915060ff191682840152151560051b820101936120b9565b503461000e57602036600319011261000e5760043561217481610378565b60975460405163521d4de960e01b815233600482015290602090829060249082906001600160a01b03165afa9081156121dd575b6000916121bf575b50156104055761040390614151565b6121d7915060203d811161043e576104308183610ce0565b386121b0565b6121e56123b6565b6121a8565b503461000e57600036600319011261000e576097546040516001600160a01b039091168152602090f35b503461000e57606036600319011261000e5760043561223281610378565b61223a6104f9565b906044359063ffffffff9182811680910361000e576117cb6109d29361226a61084396610e10928391160461452b565b920461452b565b503461000e57602036600319011261000e5760043561228f81610378565b60018060a01b0316600052609e6020526020604060002054604051908152f35b156122b657565b60405162461bcd60e51b815260206004820152602c60248201527f46756e6374696f6e206d7573742062652063616c6c6564207468726f7567682060448201526b19195b1959d85d1958d85b1b60a21b6064820152608490fd5b1561231757565b60405162461bcd60e51b815260206004820152602c60248201527f46756e6374696f6e206d7573742062652063616c6c6564207468726f7567682060448201526b6163746976652070726f787960a01b6064820152608490fd5b604051602081018181106001600160401b0382111761239a575b60405260008152906000368137565b6123a2610c4f565b61238b565b9081602091031261000e575190565b506040513d6000823e3d90fd5b156123ca57565b60405162461bcd60e51b815260206004820152602960248201527f45524331393637557067726164653a20756e737570706f727465642070726f786044820152681a58589b195555525160ba1b6064820152608490fd5b60809060208152602e60208201527f45524331393637557067726164653a206e657720696d706c656d656e7461746960408201526d6f6e206973206e6f74205555505360901b60608201520190565b9061249c7f4910fdfa16fed3260ed0e7147f7cc6da11a60208b5b9406d12a635614ffd91435460ff1690565b156124ab57506103949061260a565b6040516352d1902d60e01b8152916020836004816001600160a01b0385165afa60009381612517575b506124f65760405162461bcd60e51b8152806124f260048201612421565b0390fd5b612512600080516020614df183398151915261039494146123c3565b61269a565b61253991945060203d8111612540575b6125318183610ce0565b8101906123a7565b92386124d4565b503d612527565b906125737f4910fdfa16fed3260ed0e7147f7cc6da11a60208b5b9406d12a635614ffd91435460ff1690565b1561258257506103949061260a565b6040516352d1902d60e01b8152916020836004816001600160a01b0385165afa600093816125ea575b506125c95760405162461bcd60e51b8152806124f260048201612421565b6125e5600080516020614df183398151915261039494146123c3565b6127b2565b61260391945060203d8111612540576125318183610ce0565b92386125ab565b803b1561263f57600080516020614df183398151915280546001600160a01b0319166001600160a01b03909216919091179055565b60405162461bcd60e51b815260206004820152602d60248201527f455243313936373a206e657720696d706c656d656e746174696f6e206973206e60448201526c1bdd08184818dbdb9d1c9858dd609a1b6064820152608490fd5b6126a38161260a565b6040516001600160a01b0382167fbc7cd75a20ee27fd9adebab32041f755214dbc6bffa90cc0225b39da2e5c2d3b600080a28251158015906127aa575b6126e957505050565b813b1561275957506000828192602061275695519201905af461270a612808565b6040519161271783610cc5565b602783527f416464726573733a206c6f772d6c6576656c2064656c65676174652063616c6c6020840152660819985a5b195960ca1b6040840152612838565b50565b62461bcd60e51b815260206004820152602660248201527f416464726573733a2064656c65676174652063616c6c20746f206e6f6e2d636f6044820152651b9d1c9858dd60d21b6064820152608490fd5b5060006126e0565b6127bb8161260a565b6040516001600160a01b0382167fbc7cd75a20ee27fd9adebab32041f755214dbc6bffa90cc0225b39da2e5c2d3b600080a2825115801590612800576126e957505050565b5060016126e0565b3d15612833573d9061281982610d3b565b916128276040519384610ce0565b82523d6000602084013e565b606090565b90916060911561284757505090565b6103949193925b8051909250156128615750805190602001fd5b60405162461bcd60e51b8152602060048201529081906124f29060248301906105b7565b1561288c57565b60405162461bcd60e51b815260206004820152602e60248201527f496e697469616c697a61626c653a20636f6e747261637420697320616c72656160448201526d191e481a5b9a5d1a585b1a5e995960921b6064820152608490fd5b6001600160a01b03908116919082158015612952575b61294057633b9aca0084101561292e5760018060a01b031991168160985416176098556097541617609755609a55565b604051633494a40d60e21b8152600490fd5b60405163d92e233d60e01b8152600490fd5b50808216156128fe565b5190811515820361000e57565b9081602091031261000e576106e09061295c565b6020918151811015612992575b60051b010190565b61299a6116b1565b61298a565b903360005260a26020526040600020541580612a5f575b80612a48575b80612a2d575b611bfd5781516129d1816110e9565b906129df6040519283610ce0565b808252601f196129ee826110e9565b0136602084013760005b818110612a06575090925050565b80612a1c612a166001938861297d565b51612a7a565b612a26828661297d565b52016129f8565b5032600090815260a16020526040902054609c5414156129c2565b5032600090815260a26020526040902054156129bc565b5033600090815260a16020526040902054609c5414156129b6565b600260655414612eee576002606555610120810190612aa5612aa0835163ffffffff1690565b614544565b91604090612af382840194612aee81612ae1612ac7895160018060a01b031690565b6001600160a01b0316600090815260a36020526040902090565b54949063ffffffff169052565b612f4a565b4263ffffffff9182161091908215612ed1575b8215612e88575b8215612e4a575b508115612e35575b8115612e2c575b8115612df7575b50612de7577f5280c74029ecceb35e4fecf34adee487fd5a9a3d6c8e70b7374a1c133370e83a90612bbd606084018051958691612b793360018060a01b0316600052609e602052604060002090565b54633b9aca0081108881612d80575b81612cdc575b50612c4a575b505051612ba9906001600160a01b0316610bbc565b6098546001600160a01b03169033906135ed565b33600090815260a06020526040902054612bd681612fe7565b33600090815260a0602052604090205581513360601b6bffffffffffffffffffffffff1916602082019081526034820192909252612c2181605481015b03601f198101835282610ce0565b5190208352612c2f83613390565b5180612c3c3394826135dc565b0390a2906103946001606555565b610bbc91935091612ccd612c8e612c79612c88612c83612c79612ba998612c73609a5491612fb5565b90612fd4565b633b9aca00900490565b612fb5565b8c612fd4565b609954909a906001600160a01b031680612cd75750305b8351612cc5908d90612cbf906001600160a01b0316610bbc565b93612fc7565b9133906135ed565b8889945291612b94565b612ca5565b602090810151612d3d925060049190612cff90610bbc906001600160a01b031681565b895163d21220a760e01b815292839182905afa908115612d73575b600091612d45575b506001600160a01b03166000908152609f6020526040902090565b541588612b8e565b612d66915060203d8111612d6c575b612d5e8183610ce0565b810190612fa0565b38612d22565b503d612d54565b612d7b6123b6565b612d1a565b602090810151612ddf925060049190612da390610bbc906001600160a01b031681565b8951630dfe168160e01b815292839182905afa908115612d7357600091612d4557506001600160a01b03166000908152609f6020526040902090565b541588612b88565b516314414f4160e11b8152600490fd5b9050612e256060840151612e1f612e1661014087015163ffffffff1690565b63ffffffff1690565b90612f80565b1038612b2a565b80159150612b23565b60808401515160a08501515114159150612b1c565b6101a08501519192506001600160a01b0390911615159081612e6f575b509038612b14565b610180850151612710925063ffffffff16161038612e67565b915061271082612ec8612eb8612ea661010089015163ffffffff1690565b60c089015163ffffffff165b90612f68565b60e088015163ffffffff16612eb2565b16141591612b0d565b809250612ee661014086015163ffffffff1690565b161591612b06565b60405162461bcd60e51b815260206004820152601f60248201527f5265656e7472616e637947756172643a207265656e7472616e742063616c6c006044820152606490fd5b50634e487b7160e01b600052601160045260246000fd5b90610e1063ffffffff80931601918211612f6057565b610394612f33565b91909163ffffffff80809416911601918211612f6057565b8115612f8a570490565b634e487b7160e01b600052601260045260246000fd5b9081602091031261000e57516106e081610378565b90633b9aca00918203918211612f6057565b91908203918211612f6057565b81810292918115918404141715612f6057565b9060018201809211612f6057565b818110613000575050565b60008155600101612ff5565b8151916001600160401b03831161309d575b600160401b8311613090575b8154838355808410613072575b50602080910191600052806000209060005b848110613057575050505050565b83516001600160a01b03168382015592810192600101613049565b61308a90836000528460206000209182019101612ff5565b38613037565b613098610c4f565b61302a565b6130a5610c4f565b61301e565b90600160401b8111613113575b81548183558082106130c857505050565b610394926000526007602060002091601c82850160031c84019460021b16806130f8575b500160031c0190612ff5565b600019908186019182549160200360031b1c169055386130ec565b61311b610c4f565b6130b7565b9080516001600160401b038111613228575b61313c81846130aa565b613150602080930193600052602060002090565b908060031c9260005b8481106131d4575060071982169091039081613177575b5050505050565b9390600094855b828110613195575050505001553880808080613170565b90919295826131c96001926131ae8a5163ffffffff1690565b908560021b60031b63ffffffff811b9283911b169119161790565b97019392910161317e565b6000805b600881106131ed575084820155600101613159565b96908361321f600192613204855163ffffffff1690565b908b60021b60031b63ffffffff811b9283911b169119161790565b920197016131d8565b613230610c4f565b613132565b90601f8211613242575050565b61039491609b6000526020600020906020601f840160051c83019310613270575b601f0160051c0190612ff5565b9091508190613263565b9190601f811161328957505050565b610394926000526020600020906020601f840160051c8301931061327057601f0160051c0190612ff5565b91909182516001600160401b038111613383575b6132dc816132d68454611c89565b8461327a565b602080601f831160011461331857508192939460009261330d575b50508160011b916000199060031b1c1916179055565b0151905038806132f7565b90601f1983169561332e85600052602060002090565b926000905b88821061336b57505083600195969710613352575b505050811b019055565b015160001960f88460031b161c19169055388080613348565b80600185968294968601518155019501930190613333565b61338b610c4f565b6132c8565b6103949060086101c06133b8609d54600160401b8110156135cf575b60018101609d55611c5c565b9390936135c2575b8051845560208101516001850180546001600160a01b039283166001600160a01b031991821617909155604083015160028701805491909316911617905560608101516003850155608081015161341a906004860161300c565b61342b60a082015160058601613120565b6135926006850161345c61344660c085015163ffffffff1690565b825463ffffffff191663ffffffff909116178255565b61349261347060e085015163ffffffff1690565b825467ffffffff00000000191660209190911b67ffffffff0000000016178255565b6134c76134a761010085015163ffffffff1690565b825463ffffffff60401b191660409190911b63ffffffff60401b16178255565b6134fc6134dc61012085015163ffffffff1690565b825463ffffffff60601b191660609190911b63ffffffff60601b16178255565b61353161351161014085015163ffffffff1690565b825463ffffffff60801b191660809190911b63ffffffff60801b16178255565b61356661354661016085015163ffffffff1690565b825463ffffffff60a01b191660a09190911b63ffffffff60a01b16178255565b61018083015163ffffffff16815463ffffffff60c01b191660c09190911b63ffffffff60c01b16179055565b6101a08101516007850180546001600160a01b0319166001600160a01b03909216919091179055015191016132b4565b6135ca612054565b6133c0565b6135d7610c4f565b6133ac565b9060206106e09281815201906105dc565b6040516323b872dd60e01b60208201526001600160a01b0392831660248201529290911660448301526064808301939093529181526103949160a082018281106001600160401b03821117613645575b604052613652565b61364d610c4f565b61363d565b6040516136b0916001600160a01b031661366b82610c66565b6000806020958685527f5361666545524332303a206c6f772d6c6576656c2063616c6c206661696c656487860152868151910182855af16136aa612808565b9161372c565b805190816136bd57505050565b82806136cd938301019101612969565b156136d55750565b6084906040519062461bcd60e51b82526004820152602a60248201527f5361666545524332303a204552433230206f7065726174696f6e20646964206e6044820152691bdd081cdd58d8d9595960b21b6064820152fd5b919260609115613791575050815115613743575090565b3b1561374c5790565b60405162461bcd60e51b815260206004820152601d60248201527f416464726573733a2063616c6c20746f206e6f6e2d636f6e74726163740000006044820152606490fd5b909392610394925061284e565b6137b96137b36137c192609c54943691610d65565b8361395d565b919091613842565b336001600160a01b0390911603613810573360005260a1602052806040600020556040519081527fc48bbd4f009ad78a336beb65bf44688651e9aa52ac98d9054f0fce0573fefbc360203392a2565b604051638baa579f60e01b8152600490fd5b6005111561382c57565b634e487b7160e01b600052602160045260246000fd5b61384b81613822565b806138535750565b61385c81613822565b600181036138a45760405162461bcd60e51b815260206004820152601860248201527745434453413a20696e76616c6964207369676e617475726560401b6044820152606490fd5b6138ad81613822565b600281036138fa5760405162461bcd60e51b815260206004820152601f60248201527f45434453413a20696e76616c6964207369676e6174757265206c656e677468006044820152606490fd5b80613906600392613822565b1461390d57565b60405162461bcd60e51b815260206004820152602260248201527f45434453413a20696e76616c6964207369676e6174757265202773272076616c604482015261756560f01b6064820152608490fd5b90604181511460001461398b57613987916020820151906060604084015193015160001a90613995565b9091565b5050600090600290565b9291906fa2a8918ca85bafe22016d0b997e4df60600160ff1b038311613a0f5791608094939160ff602094604051948552168484015260408301526060820152600093849182805260015afa15613a02575b81516001600160a01b038116156139fc579190565b50600190565b613a0a6123b6565b6139e7565b50505050600090600390565b9060405191828154918282526020928383019160005283600020936000905b828210613a505750505061039492500383610ce0565b85546001600160a01b031684526001958601958895509381019390910190613a3a565b90604080518093805492613a9a613a8e858560209181520190565b92600052602060002090565b9360005b816007820110613bbf57610394955492828210613ba6575b828210613b89575b828210613b6f575b50818110613b54575b818110613b39575b818110613b1e575b818110613b03575b10613af5575b500383610ce0565b60e01c815260200138613aed565b60c083901c63ffffffff168452926001906020019301613ae7565b60a083901c63ffffffff168452926001906020019301613adf565b608083901c63ffffffff168452926001906020019301613ad7565b606083901c63ffffffff168452926001906020019301613acf565b83901c63ffffffff16845292600190602001930138613ac6565b602084811c63ffffffff1686529194909160019101940190613abe565b63ffffffff841685529093600190602001940190613ab6565b919350916001610100600892613c738854613c6863ffffffff613be98582851663ffffffff169052565b613c0060208285828901921c1663ffffffff169052565b63ffffffff838c1c821616858c0152613c2660608285828901921c1663ffffffff169052565b613c3d60808285828901921c1663ffffffff169052565b613c5460a08285828901921c1663ffffffff169052565b60c09083828701921c1663ffffffff169052565b60e090811c90830152565b0195019101918693919492613a9e565b90613d646008613c91610d2e565b8454815260018501546001600160a01b031660208201529360028101546001600160a01b0316604086015260038101546060860152613cd260048201613a1b565b6080860152613ce360058201613a73565b60a086810191909152600682015463ffffffff80821660c0808a0191909152602083901c821660e08a0152604083901c82166101008a0152606083901c82166101208a0152608083901c82166101408a01529282901c8116610160890152911c1661018086015260078101546001600160a01b03166101a086015201611cc3565b6101c0830152565b6001600160a01b0316801561292e57609880546001600160a01b031916821790557fc0ebb188f905d128bcd7e4282dd1f9cf24cd331b69071002e488349aca6a867b600080a2565b633b9aca0081101561292e576020817f3346af6da1932164d501f2ec28f8c5d686db5828a36b77f2da4332d89184fe7b92609a55604051908152a1565b60207fab1d37d0b21937f334fc4164d147abbfdbfd7ef37ab9ea0ae73f2a58ffb7f1cc9160018060a01b03169283600052609e825280604060002055604051908152a2565b60018060a01b031680600052609f6020527fc6cd32b1acffa550abf886a9b443ff3ce485bfdb05e35ef5b26e745739a1eac1602060406000205460010360018111613e94575b83600052609f825280604060002055604051908152a2565b613e9c612f33565b613e7c565b9190811015613eb15760051b0190565b61110a6116b1565b356106e081610378565b909291600090815b858110613eda57505050509050565b80613f4c613eeb6001938988613ea1565b35613ef581610378565b84613f01848b8a613ea1565b3591613f0c83610378565b6040516370a0823160e01b815230600482015260209384908290602490829060a08c901b8c9003165afa938415613f71575b8994613f52575b5050613f7e565b01613ecb565b613f69929450803d10612540576125318183610ce0565b913880613f45565b613f796123b6565b613f3e565b60405163a9059cbb60e01b60208201526001600160a01b03909216602483015260448083019390935291815261039491608082016001600160401b0381118382101761364557604052613652565b6001906000198114613fdc570190565b613fe4612f33565b0190565b60a454600160401b81101561405b575b600181018060a45581101561404e575b60a46000527fe434dc35da084cf8d7e8186688ea2dacb53db7003d427af3abf351bd9d0a4e8d0180546001600160a01b0319166001600160a01b03909216919091179055565b6140566116b1565b614008565b614063610c4f565b613ff8565b919280820361413f5760005b828110614082575050505050565b80614091614106928488613ea1565b3580151580614126575b61410b575b806140b7612ac76140b285898b613ea1565b613eb9565b557f3a5e6418e38cae10bf66eaf3e68c4e9c6b14df195e24fec169ab3a5b123c96e56140fe6140ed610bbc6140b2868a8c613ea1565b604051938452929081906020820190565b0390a2613fcc565b614074565b61412161411c6140b284888a613ea1565b613fe8565b6140a0565b50614138612ac76140b284888a613ea1565b541561409b565b604051631df89e8b60e01b8152600490fd5b609980546001600160a01b0319166001600160a01b039290921691821790557f7a7b5a0a132f9e0581eb8527f66eae9ee89c2a3e79d4ac7e41a1f1f4d48a7fc2600080a2565b908151916001600160401b0383116142e1575b6141be836141b9609b54611c89565b613235565b602080601f8511600114614233575061422391847fde3dc3335dea4d1a1060ef6cefcfcc109eb0a1e78ce151818d3f17a01e1f8a05949561421a93600091614228575b508160011b916000199060031b1c191617609b55614301565b611bed81609c55565b0390a1565b905082015138614201565b609b60005290601f1985167fbba9db4cdbea0a37c207bbb83e20f828cd4441c49891101dc94fd20dc8efc349926000905b8282106142c95750508561421a9361422395937fde3dc3335dea4d1a1060ef6cefcfcc109eb0a1e78ce151818d3f17a01e1f8a059798600194106142b0575b5050811b01609b55614301565b84015160001960f88460031b161c1916905538806142a3565b80600185968294968901518155019501930190614264565b6142e9610c4f565b6141aa565b90613fe460209282815194859201610594565b8051600091908072184f03e93ff9f4daa797ed6e38ed64bf6a1f0160401b80821015614480575b506d04ee2d6d415b85acef810000000080831015614471575b50662386f26fc1000080831015614462575b506305f5e10080831015614453575b5061271080831015614444575b506064821015614434575b600a8092101561442a575b60019081602161439682880161448e565b96870101905b6143f4575b505050506143ee612c13916040519283916143e860208401966143e888601a907f19457468657265756d205369676e6564204d6573736167653a0a00000000000081520190565b906142ee565b51902090565b600019019083906f181899199a1a9b1b9c1cb0b131b232b360811b8282061a8353049182156144255791908261439c565b6143a1565b9260010192614385565b929060646002910491019261437a565b6004919492049101923861436f565b60089194920491019238614362565b60109194920491019238614353565b60209194920491019238614341565b604094508104915038614328565b9061449882610d3b565b6144a56040519182610ce0565b82815280926144b6601f1991610d3b565b0190602036910137565b60018060a01b03168060005260a26020527f9c759941da0b7ce56c059c1497218796e62035024afb77a00ff49a980a62078f60206040600020546001036001811161451e575b8360005260a2825280604060002055604051908152a2565b614526612f33565b614506565b90610e1063ffffffff80931602918216918203612f6057565b610e1063ffffffff6106e092160461452b565b60405190608082018281106001600160401b0382111761458d575b60405260006060838281528260208201528160408201520152565b614595610c4f565b614572565b604051906145a782610c8e565b60405160a0836145b683610ca9565b600092838152836020820152836040820152606090848282015281608082015281848201528460c08201528460e08201528461010082015284610120820152846101408201528461016082015284610180820152846101a0820152816101c08201528252836020830152614628614557565b6040830152614635614557565b8183015260808201520152565b9061464c826110e9565b6146596040519182610ce0565b828152809261466a601f19916110e9565b019060005b82811061467b57505050565b60209061468661459a565b8282850101520161466f565b609d5491929060006146a384614642565b815b63ffffffff9086828216101561470a576146c161085582611c5c565b6146cc89878361481c565b80614702575b6146e1575b50600101166146a5565b600191946146f16146fb92614981565b6118fc828761297d565b93906146d7565b5060016146d2565b5050935091935050815290565b9192906000609d549361472985614642565b90825b63ffffffff908782821610156147c15761474861085582611c5c565b6147538a888361481c565b80614794575b614768575b506001011661472c565b6001919561477861478d92614981565b614782828861297d565b5261089f818761297d565b949061475e565b506001600160a01b0384811680159182156147b1575b5050614759565b60208401511614905038806147aa565b505050935091935050815290565b9063ffffffff9081806147f08161014081610120890151169701511661452b565b1684019182851161480f575b1610918261480957505090565b10919050565b614817612f33565b6147fc565b9063ffffffff90818061483d8161014081610120890151169701511661452b565b16840191828511614864575b16109283614858575b50505090565b16119050388080614852565b61486c612f33565b614849565b9081602091031261000e575162ffffff8116810361000e5790565b519061ffff8216820361000e57565b519060ff8216820361000e57565b908160e091031261000e5780516148bf81610378565b9160208201518060020b810361000e57916148dc6040820161488c565b916148e96060830161488c565b916148f66080820161489b565b916106e060c061490860a0850161489b565b930161295c565b60208183031261000e578051906001600160401b03821161000e570181601f8201121561000e57805161494181610d3b565b9261494f6040519485610ce0565b8184526020828401011161000e576106e09160208085019101610594565b9081602091031261000e576106e09061489b565b9061498a61459a565b828152602080840180516040805163ddca3f4360e01b8152949687956004948694869386928692869085908790839082906001600160a01b03165afa96879260009d6103949e614b359a610bbc9a610bbc9a614ade98614c7a575b5050614c6c57508151839060e090614a0790610bbc906001600160a01b031681565b89516339db007960e21b815292839182905afa60009181614c35575b50614c28575060008c8201525b81518c90614a4890610bbc906001600160a01b031681565b8851630dfe168160e01b815294859182905afa928315614c1b575b600093614bfc575b5081518790614a8d906001600160a01b03166001600160a01b03958616614ca9565b91015280518b90614aa890610bbc906001600160a01b031681565b875163d21220a760e01b815294859182905afa928315614bef575b600093614bcc575b50516001600160a01b03165b9116614ca9565b60608d01520180518790600090614aff90610bbc906001600160a01b031681565b87516395d89b4160e01b815292839182905afa908115614bbf575b600091614b9e575b5060808c0152516001600160a01b031690565b905163313ce56760e01b815292839182905afa918215614b91575b600092614b64575b505060ff1660a0840152565b614b839250803d10614b8a575b614b7b8183610ce0565b81019061496d565b3880614b58565b503d614b71565b614b996123b6565b614b50565b614bb9913d8091833e614bb18183610ce0565b81019061490f565b38614b22565b614bc76123b6565b614b1a565b614ad7919350614be8908c8d3d10612d6c57612d5e8183610ce0565b9290614acb565b614bf76123b6565b614ac3565b614c149193508c8d3d10612d6c57612d5e8183610ce0565b9138614a6b565b614c236123b6565b614a63565b61ffff16818d0152614a30565b614c5791925060e03d8111614c65575b614c4f8183610ce0565b8101906148a9565b505050509150509038614a23565b503d614c45565b62ffffff16818d0152614a30565b614c9a929350803d10614ca2575b614c928183610ce0565b810190614871565b90388e6149e5565b503d614c88565b9190614d59614cfe91614cba614557565b6001600160a01b039095168086529060405163313ce56760e01b81526020948593918481600481865afa908115614de3575b600091614dc6575b5060ff1688850152565b6040516395d89b4160e01b8152600081600481855afa908115614db9575b600091614da0575b50604088810191909152516370a0823160e01b81526001600160a01b0390921660048301529092839190829081906024820190565b03915afa918215614d93575b600092614d76575b50506060830152565b614d8c9250803d10612540576125318183610ce0565b3880614d6d565b614d9b6123b6565b614d65565b614db3913d8091833e614bb18183610ce0565b38614d24565b614dc16123b6565b614d1c565b614ddd9150853d8711614b8a57614b7b8183610ce0565b38614cf4565b614deb6123b6565b614cec56fe360894a13ba1a3210667c828492db98dca3e2076cc3735a920a3ca505d382bbca26469706673582212208d462a64ced2aa0987161d3800391825008cf36f526f427251b521e722312b1264736f6c63430008110033"
}