{
  "address": "0x7Db28175B63f154587BbB1Cae62D39Ea80A23383",
  "abi": [
    {
      "inputs": [],
      "stateMutability": "nonpayable",
      "type": "constructor"
    },
    {
      "inputs": [],
      "name": "InvalidParam",
      "type": "error"
    },
    {
      "inputs": [],
      "name": "InvalidReward",
      "type": "error"
    },
    {
      "inputs": [],
      "name": "InvalidSignature",
      "type": "error"
    },
    {
      "inputs": [],
      "name": "NotGovernorOrGuardian",
      "type": "error"
    },
    {
      "inputs": [],
      "name": "NotSigned",
      "type": "error"
    },
    {
      "inputs": [],
      "name": "ZeroAddress",
      "type": "error"
    },
    {
      "anonymous": false,
      "inputs": [
        {
          "indexed": false,
          "internalType": "address",
          "name": "previousAdmin",
          "type": "address"
        },
        {
          "indexed": false,
          "internalType": "address",
          "name": "newAdmin",
          "type": "address"
        }
      ],
      "name": "AdminChanged",
      "type": "event"
    },
    {
      "anonymous": false,
      "inputs": [
        {
          "indexed": true,
          "internalType": "address",
          "name": "beacon",
          "type": "address"
        }
      ],
      "name": "BeaconUpgraded",
      "type": "event"
    },
    {
      "anonymous": false,
      "inputs": [
        {
          "indexed": true,
          "internalType": "address",
          "name": "_distributor",
          "type": "address"
        }
      ],
      "name": "DistributorUpdated",
      "type": "event"
    },
    {
      "anonymous": false,
      "inputs": [
        {
          "indexed": true,
          "internalType": "address",
          "name": "user",
          "type": "address"
        },
        {
          "indexed": false,
          "internalType": "uint256",
          "name": "userFeeRebate",
          "type": "uint256"
        }
      ],
      "name": "FeeRebateUpdated",
      "type": "event"
    },
    {
      "anonymous": false,
      "inputs": [
        {
          "indexed": true,
          "internalType": "address",
          "name": "_feeRecipient",
          "type": "address"
        }
      ],
      "name": "FeeRecipientUpdated",
      "type": "event"
    },
    {
      "anonymous": false,
      "inputs": [
        {
          "indexed": false,
          "internalType": "uint256",
          "name": "_fees",
          "type": "uint256"
        }
      ],
      "name": "FeesSet",
      "type": "event"
    },
    {
      "anonymous": false,
      "inputs": [
        {
          "indexed": false,
          "internalType": "uint8",
          "name": "version",
          "type": "uint8"
        }
      ],
      "name": "Initialized",
      "type": "event"
    },
    {
      "anonymous": false,
      "inputs": [
        {
          "indexed": false,
          "internalType": "bytes32",
          "name": "_messageHash",
          "type": "bytes32"
        }
      ],
      "name": "MessageUpdated",
      "type": "event"
    },
    {
      "anonymous": false,
      "inputs": [
        {
          "components": [
            {
              "internalType": "bytes32",
              "name": "rewardId",
              "type": "bytes32"
            },
            {
              "internalType": "address",
              "name": "uniV3Pool",
              "type": "address"
            },
            {
              "internalType": "address",
              "name": "rewardToken",
              "type": "address"
            },
            {
              "internalType": "uint256",
              "name": "amount",
              "type": "uint256"
            },
            {
              "internalType": "address[]",
              "name": "positionWrappers",
              "type": "address[]"
            },
            {
              "internalType": "uint32[]",
              "name": "wrapperTypes",
              "type": "uint32[]"
            },
            {
              "internalType": "uint32",
              "name": "propToken0",
              "type": "uint32"
            },
            {
              "internalType": "uint32",
              "name": "propToken1",
              "type": "uint32"
            },
            {
              "internalType": "uint32",
              "name": "propFees",
              "type": "uint32"
            },
            {
              "internalType": "uint32",
              "name": "epochStart",
              "type": "uint32"
            },
            {
              "internalType": "uint32",
              "name": "numEpoch",
              "type": "uint32"
            },
            {
              "internalType": "uint32",
              "name": "isOutOfRangeIncentivized",
              "type": "uint32"
            },
            {
              "internalType": "uint32",
              "name": "boostedReward",
              "type": "uint32"
            },
            {
              "internalType": "address",
              "name": "boostingAddress",
              "type": "address"
            },
            {
              "internalType": "bytes",
              "name": "additionalData",
              "type": "bytes"
            }
          ],
          "indexed": false,
          "internalType": "struct DistributionParameters",
          "name": "distribution",
          "type": "tuple"
        },
        {
          "indexed": true,
          "internalType": "address",
          "name": "sender",
          "type": "address"
        }
      ],
      "name": "NewDistribution",
      "type": "event"
    },
    {
      "anonymous": false,
      "inputs": [
        {
          "indexed": true,
          "internalType": "address",
          "name": "token",
          "type": "address"
        },
        {
          "indexed": false,
          "internalType": "uint256",
          "name": "amount",
          "type": "uint256"
        }
      ],
      "name": "RewardTokenMinimumAmountUpdated",
      "type": "event"
    },
    {
      "anonymous": false,
      "inputs": [
        {
          "indexed": true,
          "internalType": "address",
          "name": "token",
          "type": "address"
        },
        {
          "indexed": false,
          "internalType": "uint256",
          "name": "toggleStatus",
          "type": "uint256"
        }
      ],
      "name": "TokenWhitelistToggled",
      "type": "event"
    },
    {
      "anonymous": false,
      "inputs": [
        {
          "indexed": true,
          "internalType": "address",
          "name": "implementation",
          "type": "address"
        }
      ],
      "name": "Upgraded",
      "type": "event"
    },
    {
      "anonymous": false,
      "inputs": [
        {
          "indexed": false,
          "internalType": "bytes32",
          "name": "messageHash",
          "type": "bytes32"
        },
        {
          "indexed": true,
          "internalType": "address",
          "name": "user",
          "type": "address"
        }
      ],
      "name": "UserSigned",
      "type": "event"
    },
    {
      "anonymous": false,
      "inputs": [
        {
          "indexed": true,
          "internalType": "address",
          "name": "user",
          "type": "address"
        },
        {
          "indexed": false,
          "internalType": "uint256",
          "name": "toggleStatus",
          "type": "uint256"
        }
      ],
      "name": "UserSigningWhitelistToggled",
      "type": "event"
    },
    {
      "inputs": [],
      "name": "BASE_9",
      "outputs": [
        {
          "internalType": "uint256",
          "name": "",
          "type": "uint256"
        }
      ],
      "stateMutability": "view",
      "type": "function"
    },
    {
      "inputs": [],
      "name": "EPOCH_DURATION",
      "outputs": [
        {
          "internalType": "uint32",
          "name": "",
          "type": "uint32"
        }
      ],
      "stateMutability": "view",
      "type": "function"
    },
    {
      "inputs": [],
      "name": "core",
      "outputs": [
        {
          "internalType": "contract ICore",
          "name": "",
          "type": "address"
        }
      ],
      "stateMutability": "view",
      "type": "function"
    },
    {
      "inputs": [
        {
          "components": [
            {
              "internalType": "bytes32",
              "name": "rewardId",
              "type": "bytes32"
            },
            {
              "internalType": "address",
              "name": "uniV3Pool",
              "type": "address"
            },
            {
              "internalType": "address",
              "name": "rewardToken",
              "type": "address"
            },
            {
              "internalType": "uint256",
              "name": "amount",
              "type": "uint256"
            },
            {
              "internalType": "address[]",
              "name": "positionWrappers",
              "type": "address[]"
            },
            {
              "internalType": "uint32[]",
              "name": "wrapperTypes",
              "type": "uint32[]"
            },
            {
              "internalType": "uint32",
              "name": "propToken0",
              "type": "uint32"
            },
            {
              "internalType": "uint32",
              "name": "propToken1",
              "type": "uint32"
            },
            {
              "internalType": "uint32",
              "name": "propFees",
              "type": "uint32"
            },
            {
              "internalType": "uint32",
              "name": "epochStart",
              "type": "uint32"
            },
            {
              "internalType": "uint32",
              "name": "numEpoch",
              "type": "uint32"
            },
            {
              "internalType": "uint32",
              "name": "isOutOfRangeIncentivized",
              "type": "uint32"
            },
            {
              "internalType": "uint32",
              "name": "boostedReward",
              "type": "uint32"
            },
            {
              "internalType": "address",
              "name": "boostingAddress",
              "type": "address"
            },
            {
              "internalType": "bytes",
              "name": "additionalData",
              "type": "bytes"
            }
          ],
          "internalType": "struct DistributionParameters",
          "name": "distribution",
          "type": "tuple"
        }
      ],
      "name": "createDistribution",
      "outputs": [
        {
          "internalType": "uint256",
          "name": "distributionAmount",
          "type": "uint256"
        }
      ],
      "stateMutability": "nonpayable",
      "type": "function"
    },
    {
      "inputs": [
        {
          "components": [
            {
              "internalType": "bytes32",
              "name": "rewardId",
              "type": "bytes32"
            },
            {
              "internalType": "address",
              "name": "uniV3Pool",
              "type": "address"
            },
            {
              "internalType": "address",
              "name": "rewardToken",
              "type": "address"
            },
            {
              "internalType": "uint256",
              "name": "amount",
              "type": "uint256"
            },
            {
              "internalType": "address[]",
              "name": "positionWrappers",
              "type": "address[]"
            },
            {
              "internalType": "uint32[]",
              "name": "wrapperTypes",
              "type": "uint32[]"
            },
            {
              "internalType": "uint32",
              "name": "propToken0",
              "type": "uint32"
            },
            {
              "internalType": "uint32",
              "name": "propToken1",
              "type": "uint32"
            },
            {
              "internalType": "uint32",
              "name": "propFees",
              "type": "uint32"
            },
            {
              "internalType": "uint32",
              "name": "epochStart",
              "type": "uint32"
            },
            {
              "internalType": "uint32",
              "name": "numEpoch",
              "type": "uint32"
            },
            {
              "internalType": "uint32",
              "name": "isOutOfRangeIncentivized",
              "type": "uint32"
            },
            {
              "internalType": "uint32",
              "name": "boostedReward",
              "type": "uint32"
            },
            {
              "internalType": "address",
              "name": "boostingAddress",
              "type": "address"
            },
            {
              "internalType": "bytes",
              "name": "additionalData",
              "type": "bytes"
            }
          ],
          "internalType": "struct DistributionParameters[]",
          "name": "distributions",
          "type": "tuple[]"
        }
      ],
      "name": "createDistributions",
      "outputs": [
        {
          "internalType": "uint256[]",
          "name": "",
          "type": "uint256[]"
        }
      ],
      "stateMutability": "nonpayable",
      "type": "function"
    },
    {
      "inputs": [
        {
          "internalType": "uint256",
          "name": "",
          "type": "uint256"
        }
      ],
      "name": "distributionList",
      "outputs": [
        {
          "internalType": "bytes32",
          "name": "rewardId",
          "type": "bytes32"
        },
        {
          "internalType": "address",
          "name": "uniV3Pool",
          "type": "address"
        },
        {
          "internalType": "address",
          "name": "rewardToken",
          "type": "address"
        },
        {
          "internalType": "uint256",
          "name": "amount",
          "type": "uint256"
        },
        {
          "internalType": "uint32",
          "name": "propToken0",
          "type": "uint32"
        },
        {
          "internalType": "uint32",
          "name": "propToken1",
          "type": "uint32"
        },
        {
          "internalType": "uint32",
          "name": "propFees",
          "type": "uint32"
        },
        {
          "internalType": "uint32",
          "name": "epochStart",
          "type": "uint32"
        },
        {
          "internalType": "uint32",
          "name": "numEpoch",
          "type": "uint32"
        },
        {
          "internalType": "uint32",
          "name": "isOutOfRangeIncentivized",
          "type": "uint32"
        },
        {
          "internalType": "uint32",
          "name": "boostedReward",
          "type": "uint32"
        },
        {
          "internalType": "address",
          "name": "boostingAddress",
          "type": "address"
        },
        {
          "internalType": "bytes",
          "name": "additionalData",
          "type": "bytes"
        }
      ],
      "stateMutability": "view",
      "type": "function"
    },
    {
      "inputs": [],
      "name": "distributor",
      "outputs": [
        {
          "internalType": "address",
          "name": "",
          "type": "address"
        }
      ],
      "stateMutability": "view",
      "type": "function"
    },
    {
      "inputs": [
        {
          "internalType": "address",
          "name": "",
          "type": "address"
        }
      ],
      "name": "feeRebate",
      "outputs": [
        {
          "internalType": "uint256",
          "name": "",
          "type": "uint256"
        }
      ],
      "stateMutability": "view",
      "type": "function"
    },
    {
      "inputs": [],
      "name": "feeRecipient",
      "outputs": [
        {
          "internalType": "address",
          "name": "",
          "type": "address"
        }
      ],
      "stateMutability": "view",
      "type": "function"
    },
    {
      "inputs": [],
      "name": "fees",
      "outputs": [
        {
          "internalType": "uint256",
          "name": "",
          "type": "uint256"
        }
      ],
      "stateMutability": "view",
      "type": "function"
    },
    {
      "inputs": [],
      "name": "getActiveDistributions",
      "outputs": [
        {
          "components": [
            {
              "components": [
                {
                  "internalType": "bytes32",
                  "name": "rewardId",
                  "type": "bytes32"
                },
                {
                  "internalType": "address",
                  "name": "uniV3Pool",
                  "type": "address"
                },
                {
                  "internalType": "address",
                  "name": "rewardToken",
                  "type": "address"
                },
                {
                  "internalType": "uint256",
                  "name": "amount",
                  "type": "uint256"
                },
                {
                  "internalType": "address[]",
                  "name": "positionWrappers",
                  "type": "address[]"
                },
                {
                  "internalType": "uint32[]",
                  "name": "wrapperTypes",
                  "type": "uint32[]"
                },
                {
                  "internalType": "uint32",
                  "name": "propToken0",
                  "type": "uint32"
                },
                {
                  "internalType": "uint32",
                  "name": "propToken1",
                  "type": "uint32"
                },
                {
                  "internalType": "uint32",
                  "name": "propFees",
                  "type": "uint32"
                },
                {
                  "internalType": "uint32",
                  "name": "epochStart",
                  "type": "uint32"
                },
                {
                  "internalType": "uint32",
                  "name": "numEpoch",
                  "type": "uint32"
                },
                {
                  "internalType": "uint32",
                  "name": "isOutOfRangeIncentivized",
                  "type": "uint32"
                },
                {
                  "internalType": "uint32",
                  "name": "boostedReward",
                  "type": "uint32"
                },
                {
                  "internalType": "address",
                  "name": "boostingAddress",
                  "type": "address"
                },
                {
                  "internalType": "bytes",
                  "name": "additionalData",
                  "type": "bytes"
                }
              ],
              "internalType": "struct DistributionParameters",
              "name": "base",
              "type": "tuple"
            },
            {
              "internalType": "uint24",
              "name": "poolFee",
              "type": "uint24"
            },
            {
              "components": [
                {
                  "internalType": "address",
                  "name": "add",
                  "type": "address"
                },
                {
                  "internalType": "uint8",
                  "name": "decimals",
                  "type": "uint8"
                },
                {
                  "internalType": "string",
                  "name": "symbol",
                  "type": "string"
                },
                {
                  "internalType": "uint256",
                  "name": "poolBalance",
                  "type": "uint256"
                }
              ],
              "internalType": "struct UniswapTokenData",
              "name": "token0",
              "type": "tuple"
            },
            {
              "components": [
                {
                  "internalType": "address",
                  "name": "add",
                  "type": "address"
                },
                {
                  "internalType": "uint8",
                  "name": "decimals",
                  "type": "uint8"
                },
                {
                  "internalType": "string",
                  "name": "symbol",
                  "type": "string"
                },
                {
                  "internalType": "uint256",
                  "name": "poolBalance",
                  "type": "uint256"
                }
              ],
              "internalType": "struct UniswapTokenData",
              "name": "token1",
              "type": "tuple"
            },
            {
              "internalType": "string",
              "name": "rewardTokenSymbol",
              "type": "string"
            },
            {
              "internalType": "uint8",
              "name": "rewardTokenDecimals",
              "type": "uint8"
            }
          ],
          "internalType": "struct ExtensiveDistributionParameters[]",
          "name": "",
          "type": "tuple[]"
        }
      ],
      "stateMutability": "view",
      "type": "function"
    },
    {
      "inputs": [
        {
          "internalType": "address",
          "name": "uniV3Pool",
          "type": "address"
        }
      ],
      "name": "getActivePoolDistributions",
      "outputs": [
        {
          "components": [
            {
              "components": [
                {
                  "internalType": "bytes32",
                  "name": "rewardId",
                  "type": "bytes32"
                },
                {
                  "internalType": "address",
                  "name": "uniV3Pool",
                  "type": "address"
                },
                {
                  "internalType": "address",
                  "name": "rewardToken",
                  "type": "address"
                },
                {
                  "internalType": "uint256",
                  "name": "amount",
                  "type": "uint256"
                },
                {
                  "internalType": "address[]",
                  "name": "positionWrappers",
                  "type": "address[]"
                },
                {
                  "internalType": "uint32[]",
                  "name": "wrapperTypes",
                  "type": "uint32[]"
                },
                {
                  "internalType": "uint32",
                  "name": "propToken0",
                  "type": "uint32"
                },
                {
                  "internalType": "uint32",
                  "name": "propToken1",
                  "type": "uint32"
                },
                {
                  "internalType": "uint32",
                  "name": "propFees",
                  "type": "uint32"
                },
                {
                  "internalType": "uint32",
                  "name": "epochStart",
                  "type": "uint32"
                },
                {
                  "internalType": "uint32",
                  "name": "numEpoch",
                  "type": "uint32"
                },
                {
                  "internalType": "uint32",
                  "name": "isOutOfRangeIncentivized",
                  "type": "uint32"
                },
                {
                  "internalType": "uint32",
                  "name": "boostedReward",
                  "type": "uint32"
                },
                {
                  "internalType": "address",
                  "name": "boostingAddress",
                  "type": "address"
                },
                {
                  "internalType": "bytes",
                  "name": "additionalData",
                  "type": "bytes"
                }
              ],
              "internalType": "struct DistributionParameters",
              "name": "base",
              "type": "tuple"
            },
            {
              "internalType": "uint24",
              "name": "poolFee",
              "type": "uint24"
            },
            {
              "components": [
                {
                  "internalType": "address",
                  "name": "add",
                  "type": "address"
                },
                {
                  "internalType": "uint8",
                  "name": "decimals",
                  "type": "uint8"
                },
                {
                  "internalType": "string",
                  "name": "symbol",
                  "type": "string"
                },
                {
                  "internalType": "uint256",
                  "name": "poolBalance",
                  "type": "uint256"
                }
              ],
              "internalType": "struct UniswapTokenData",
              "name": "token0",
              "type": "tuple"
            },
            {
              "components": [
                {
                  "internalType": "address",
                  "name": "add",
                  "type": "address"
                },
                {
                  "internalType": "uint8",
                  "name": "decimals",
                  "type": "uint8"
                },
                {
                  "internalType": "string",
                  "name": "symbol",
                  "type": "string"
                },
                {
                  "internalType": "uint256",
                  "name": "poolBalance",
                  "type": "uint256"
                }
              ],
              "internalType": "struct UniswapTokenData",
              "name": "token1",
              "type": "tuple"
            },
            {
              "internalType": "string",
              "name": "rewardTokenSymbol",
              "type": "string"
            },
            {
              "internalType": "uint8",
              "name": "rewardTokenDecimals",
              "type": "uint8"
            }
          ],
          "internalType": "struct ExtensiveDistributionParameters[]",
          "name": "",
          "type": "tuple[]"
        }
      ],
      "stateMutability": "view",
      "type": "function"
    },
    {
      "inputs": [],
      "name": "getAllDistributions",
      "outputs": [
        {
          "components": [
            {
              "internalType": "bytes32",
              "name": "rewardId",
              "type": "bytes32"
            },
            {
              "internalType": "address",
              "name": "uniV3Pool",
              "type": "address"
            },
            {
              "internalType": "address",
              "name": "rewardToken",
              "type": "address"
            },
            {
              "internalType": "uint256",
              "name": "amount",
              "type": "uint256"
            },
            {
              "internalType": "address[]",
              "name": "positionWrappers",
              "type": "address[]"
            },
            {
              "internalType": "uint32[]",
              "name": "wrapperTypes",
              "type": "uint32[]"
            },
            {
              "internalType": "uint32",
              "name": "propToken0",
              "type": "uint32"
            },
            {
              "internalType": "uint32",
              "name": "propToken1",
              "type": "uint32"
            },
            {
              "internalType": "uint32",
              "name": "propFees",
              "type": "uint32"
            },
            {
              "internalType": "uint32",
              "name": "epochStart",
              "type": "uint32"
            },
            {
              "internalType": "uint32",
              "name": "numEpoch",
              "type": "uint32"
            },
            {
              "internalType": "uint32",
              "name": "isOutOfRangeIncentivized",
              "type": "uint32"
            },
            {
              "internalType": "uint32",
              "name": "boostedReward",
              "type": "uint32"
            },
            {
              "internalType": "address",
              "name": "boostingAddress",
              "type": "address"
            },
            {
              "internalType": "bytes",
              "name": "additionalData",
              "type": "bytes"
            }
          ],
          "internalType": "struct DistributionParameters[]",
          "name": "",
          "type": "tuple[]"
        }
      ],
      "stateMutability": "view",
      "type": "function"
    },
    {
      "inputs": [
        {
          "internalType": "uint32",
          "name": "epochStart",
          "type": "uint32"
        }
      ],
      "name": "getDistributionsAfterEpoch",
      "outputs": [
        {
          "components": [
            {
              "components": [
                {
                  "internalType": "bytes32",
                  "name": "rewardId",
                  "type": "bytes32"
                },
                {
                  "internalType": "address",
                  "name": "uniV3Pool",
                  "type": "address"
                },
                {
                  "internalType": "address",
                  "name": "rewardToken",
                  "type": "address"
                },
                {
                  "internalType": "uint256",
                  "name": "amount",
                  "type": "uint256"
                },
                {
                  "internalType": "address[]",
                  "name": "positionWrappers",
                  "type": "address[]"
                },
                {
                  "internalType": "uint32[]",
                  "name": "wrapperTypes",
                  "type": "uint32[]"
                },
                {
                  "internalType": "uint32",
                  "name": "propToken0",
                  "type": "uint32"
                },
                {
                  "internalType": "uint32",
                  "name": "propToken1",
                  "type": "uint32"
                },
                {
                  "internalType": "uint32",
                  "name": "propFees",
                  "type": "uint32"
                },
                {
                  "internalType": "uint32",
                  "name": "epochStart",
                  "type": "uint32"
                },
                {
                  "internalType": "uint32",
                  "name": "numEpoch",
                  "type": "uint32"
                },
                {
                  "internalType": "uint32",
                  "name": "isOutOfRangeIncentivized",
                  "type": "uint32"
                },
                {
                  "internalType": "uint32",
                  "name": "boostedReward",
                  "type": "uint32"
                },
                {
                  "internalType": "address",
                  "name": "boostingAddress",
                  "type": "address"
                },
                {
                  "internalType": "bytes",
                  "name": "additionalData",
                  "type": "bytes"
                }
              ],
              "internalType": "struct DistributionParameters",
              "name": "base",
              "type": "tuple"
            },
            {
              "internalType": "uint24",
              "name": "poolFee",
              "type": "uint24"
            },
            {
              "components": [
                {
                  "internalType": "address",
                  "name": "add",
                  "type": "address"
                },
                {
                  "internalType": "uint8",
                  "name": "decimals",
                  "type": "uint8"
                },
                {
                  "internalType": "string",
                  "name": "symbol",
                  "type": "string"
                },
                {
                  "internalType": "uint256",
                  "name": "poolBalance",
                  "type": "uint256"
                }
              ],
              "internalType": "struct UniswapTokenData",
              "name": "token0",
              "type": "tuple"
            },
            {
              "components": [
                {
                  "internalType": "address",
                  "name": "add",
                  "type": "address"
                },
                {
                  "internalType": "uint8",
                  "name": "decimals",
                  "type": "uint8"
                },
                {
                  "internalType": "string",
                  "name": "symbol",
                  "type": "string"
                },
                {
                  "internalType": "uint256",
                  "name": "poolBalance",
                  "type": "uint256"
                }
              ],
              "internalType": "struct UniswapTokenData",
              "name": "token1",
              "type": "tuple"
            },
            {
              "internalType": "string",
              "name": "rewardTokenSymbol",
              "type": "string"
            },
            {
              "internalType": "uint8",
              "name": "rewardTokenDecimals",
              "type": "uint8"
            }
          ],
          "internalType": "struct ExtensiveDistributionParameters[]",
          "name": "",
          "type": "tuple[]"
        }
      ],
      "stateMutability": "view",
      "type": "function"
    },
    {
      "inputs": [
        {
          "internalType": "uint32",
          "name": "epochStart",
          "type": "uint32"
        },
        {
          "internalType": "uint32",
          "name": "epochEnd",
          "type": "uint32"
        }
      ],
      "name": "getDistributionsBetweenEpochs",
      "outputs": [
        {
          "components": [
            {
              "components": [
                {
                  "internalType": "bytes32",
                  "name": "rewardId",
                  "type": "bytes32"
                },
                {
                  "internalType": "address",
                  "name": "uniV3Pool",
                  "type": "address"
                },
                {
                  "internalType": "address",
                  "name": "rewardToken",
                  "type": "address"
                },
                {
                  "internalType": "uint256",
                  "name": "amount",
                  "type": "uint256"
                },
                {
                  "internalType": "address[]",
                  "name": "positionWrappers",
                  "type": "address[]"
                },
                {
                  "internalType": "uint32[]",
                  "name": "wrapperTypes",
                  "type": "uint32[]"
                },
                {
                  "internalType": "uint32",
                  "name": "propToken0",
                  "type": "uint32"
                },
                {
                  "internalType": "uint32",
                  "name": "propToken1",
                  "type": "uint32"
                },
                {
                  "internalType": "uint32",
                  "name": "propFees",
                  "type": "uint32"
                },
                {
                  "internalType": "uint32",
                  "name": "epochStart",
                  "type": "uint32"
                },
                {
                  "internalType": "uint32",
                  "name": "numEpoch",
                  "type": "uint32"
                },
                {
                  "internalType": "uint32",
                  "name": "isOutOfRangeIncentivized",
                  "type": "uint32"
                },
                {
                  "internalType": "uint32",
                  "name": "boostedReward",
                  "type": "uint32"
                },
                {
                  "internalType": "address",
                  "name": "boostingAddress",
                  "type": "address"
                },
                {
                  "internalType": "bytes",
                  "name": "additionalData",
                  "type": "bytes"
                }
              ],
              "internalType": "struct DistributionParameters",
              "name": "base",
              "type": "tuple"
            },
            {
              "internalType": "uint24",
              "name": "poolFee",
              "type": "uint24"
            },
            {
              "components": [
                {
                  "internalType": "address",
                  "name": "add",
                  "type": "address"
                },
                {
                  "internalType": "uint8",
                  "name": "decimals",
                  "type": "uint8"
                },
                {
                  "internalType": "string",
                  "name": "symbol",
                  "type": "string"
                },
                {
                  "internalType": "uint256",
                  "name": "poolBalance",
                  "type": "uint256"
                }
              ],
              "internalType": "struct UniswapTokenData",
              "name": "token0",
              "type": "tuple"
            },
            {
              "components": [
                {
                  "internalType": "address",
                  "name": "add",
                  "type": "address"
                },
                {
                  "internalType": "uint8",
                  "name": "decimals",
                  "type": "uint8"
                },
                {
                  "internalType": "string",
                  "name": "symbol",
                  "type": "string"
                },
                {
                  "internalType": "uint256",
                  "name": "poolBalance",
                  "type": "uint256"
                }
              ],
              "internalType": "struct UniswapTokenData",
              "name": "token1",
              "type": "tuple"
            },
            {
              "internalType": "string",
              "name": "rewardTokenSymbol",
              "type": "string"
            },
            {
              "internalType": "uint8",
              "name": "rewardTokenDecimals",
              "type": "uint8"
            }
          ],
          "internalType": "struct ExtensiveDistributionParameters[]",
          "name": "",
          "type": "tuple[]"
        }
      ],
      "stateMutability": "view",
      "type": "function"
    },
    {
      "inputs": [
        {
          "internalType": "uint32",
          "name": "epoch",
          "type": "uint32"
        }
      ],
      "name": "getDistributionsForEpoch",
      "outputs": [
        {
          "components": [
            {
              "components": [
                {
                  "internalType": "bytes32",
                  "name": "rewardId",
                  "type": "bytes32"
                },
                {
                  "internalType": "address",
                  "name": "uniV3Pool",
                  "type": "address"
                },
                {
                  "internalType": "address",
                  "name": "rewardToken",
                  "type": "address"
                },
                {
                  "internalType": "uint256",
                  "name": "amount",
                  "type": "uint256"
                },
                {
                  "internalType": "address[]",
                  "name": "positionWrappers",
                  "type": "address[]"
                },
                {
                  "internalType": "uint32[]",
                  "name": "wrapperTypes",
                  "type": "uint32[]"
                },
                {
                  "internalType": "uint32",
                  "name": "propToken0",
                  "type": "uint32"
                },
                {
                  "internalType": "uint32",
                  "name": "propToken1",
                  "type": "uint32"
                },
                {
                  "internalType": "uint32",
                  "name": "propFees",
                  "type": "uint32"
                },
                {
                  "internalType": "uint32",
                  "name": "epochStart",
                  "type": "uint32"
                },
                {
                  "internalType": "uint32",
                  "name": "numEpoch",
                  "type": "uint32"
                },
                {
                  "internalType": "uint32",
                  "name": "isOutOfRangeIncentivized",
                  "type": "uint32"
                },
                {
                  "internalType": "uint32",
                  "name": "boostedReward",
                  "type": "uint32"
                },
                {
                  "internalType": "address",
                  "name": "boostingAddress",
                  "type": "address"
                },
                {
                  "internalType": "bytes",
                  "name": "additionalData",
                  "type": "bytes"
                }
              ],
              "internalType": "struct DistributionParameters",
              "name": "base",
              "type": "tuple"
            },
            {
              "internalType": "uint24",
              "name": "poolFee",
              "type": "uint24"
            },
            {
              "components": [
                {
                  "internalType": "address",
                  "name": "add",
                  "type": "address"
                },
                {
                  "internalType": "uint8",
                  "name": "decimals",
                  "type": "uint8"
                },
                {
                  "internalType": "string",
                  "name": "symbol",
                  "type": "string"
                },
                {
                  "internalType": "uint256",
                  "name": "poolBalance",
                  "type": "uint256"
                }
              ],
              "internalType": "struct UniswapTokenData",
              "name": "token0",
              "type": "tuple"
            },
            {
              "components": [
                {
                  "internalType": "address",
                  "name": "add",
                  "type": "address"
                },
                {
                  "internalType": "uint8",
                  "name": "decimals",
                  "type": "uint8"
                },
                {
                  "internalType": "string",
                  "name": "symbol",
                  "type": "string"
                },
                {
                  "internalType": "uint256",
                  "name": "poolBalance",
                  "type": "uint256"
                }
              ],
              "internalType": "struct UniswapTokenData",
              "name": "token1",
              "type": "tuple"
            },
            {
              "internalType": "string",
              "name": "rewardTokenSymbol",
              "type": "string"
            },
            {
              "internalType": "uint8",
              "name": "rewardTokenDecimals",
              "type": "uint8"
            }
          ],
          "internalType": "struct ExtensiveDistributionParameters[]",
          "name": "",
          "type": "tuple[]"
        }
      ],
      "stateMutability": "view",
      "type": "function"
    },
    {
      "inputs": [
        {
          "internalType": "address",
          "name": "uniV3Pool",
          "type": "address"
        },
        {
          "internalType": "uint32",
          "name": "epochStart",
          "type": "uint32"
        }
      ],
      "name": "getPoolDistributionsAfterEpoch",
      "outputs": [
        {
          "components": [
            {
              "components": [
                {
                  "internalType": "bytes32",
                  "name": "rewardId",
                  "type": "bytes32"
                },
                {
                  "internalType": "address",
                  "name": "uniV3Pool",
                  "type": "address"
                },
                {
                  "internalType": "address",
                  "name": "rewardToken",
                  "type": "address"
                },
                {
                  "internalType": "uint256",
                  "name": "amount",
                  "type": "uint256"
                },
                {
                  "internalType": "address[]",
                  "name": "positionWrappers",
                  "type": "address[]"
                },
                {
                  "internalType": "uint32[]",
                  "name": "wrapperTypes",
                  "type": "uint32[]"
                },
                {
                  "internalType": "uint32",
                  "name": "propToken0",
                  "type": "uint32"
                },
                {
                  "internalType": "uint32",
                  "name": "propToken1",
                  "type": "uint32"
                },
                {
                  "internalType": "uint32",
                  "name": "propFees",
                  "type": "uint32"
                },
                {
                  "internalType": "uint32",
                  "name": "epochStart",
                  "type": "uint32"
                },
                {
                  "internalType": "uint32",
                  "name": "numEpoch",
                  "type": "uint32"
                },
                {
                  "internalType": "uint32",
                  "name": "isOutOfRangeIncentivized",
                  "type": "uint32"
                },
                {
                  "internalType": "uint32",
                  "name": "boostedReward",
                  "type": "uint32"
                },
                {
                  "internalType": "address",
                  "name": "boostingAddress",
                  "type": "address"
                },
                {
                  "internalType": "bytes",
                  "name": "additionalData",
                  "type": "bytes"
                }
              ],
              "internalType": "struct DistributionParameters",
              "name": "base",
              "type": "tuple"
            },
            {
              "internalType": "uint24",
              "name": "poolFee",
              "type": "uint24"
            },
            {
              "components": [
                {
                  "internalType": "address",
                  "name": "add",
                  "type": "address"
                },
                {
                  "internalType": "uint8",
                  "name": "decimals",
                  "type": "uint8"
                },
                {
                  "internalType": "string",
                  "name": "symbol",
                  "type": "string"
                },
                {
                  "internalType": "uint256",
                  "name": "poolBalance",
                  "type": "uint256"
                }
              ],
              "internalType": "struct UniswapTokenData",
              "name": "token0",
              "type": "tuple"
            },
            {
              "components": [
                {
                  "internalType": "address",
                  "name": "add",
                  "type": "address"
                },
                {
                  "internalType": "uint8",
                  "name": "decimals",
                  "type": "uint8"
                },
                {
                  "internalType": "string",
                  "name": "symbol",
                  "type": "string"
                },
                {
                  "internalType": "uint256",
                  "name": "poolBalance",
                  "type": "uint256"
                }
              ],
              "internalType": "struct UniswapTokenData",
              "name": "token1",
              "type": "tuple"
            },
            {
              "internalType": "string",
              "name": "rewardTokenSymbol",
              "type": "string"
            },
            {
              "internalType": "uint8",
              "name": "rewardTokenDecimals",
              "type": "uint8"
            }
          ],
          "internalType": "struct ExtensiveDistributionParameters[]",
          "name": "",
          "type": "tuple[]"
        }
      ],
      "stateMutability": "view",
      "type": "function"
    },
    {
      "inputs": [
        {
          "internalType": "address",
          "name": "uniV3Pool",
          "type": "address"
        },
        {
          "internalType": "uint32",
          "name": "epochStart",
          "type": "uint32"
        },
        {
          "internalType": "uint32",
          "name": "epochEnd",
          "type": "uint32"
        }
      ],
      "name": "getPoolDistributionsBetweenEpochs",
      "outputs": [
        {
          "components": [
            {
              "components": [
                {
                  "internalType": "bytes32",
                  "name": "rewardId",
                  "type": "bytes32"
                },
                {
                  "internalType": "address",
                  "name": "uniV3Pool",
                  "type": "address"
                },
                {
                  "internalType": "address",
                  "name": "rewardToken",
                  "type": "address"
                },
                {
                  "internalType": "uint256",
                  "name": "amount",
                  "type": "uint256"
                },
                {
                  "internalType": "address[]",
                  "name": "positionWrappers",
                  "type": "address[]"
                },
                {
                  "internalType": "uint32[]",
                  "name": "wrapperTypes",
                  "type": "uint32[]"
                },
                {
                  "internalType": "uint32",
                  "name": "propToken0",
                  "type": "uint32"
                },
                {
                  "internalType": "uint32",
                  "name": "propToken1",
                  "type": "uint32"
                },
                {
                  "internalType": "uint32",
                  "name": "propFees",
                  "type": "uint32"
                },
                {
                  "internalType": "uint32",
                  "name": "epochStart",
                  "type": "uint32"
                },
                {
                  "internalType": "uint32",
                  "name": "numEpoch",
                  "type": "uint32"
                },
                {
                  "internalType": "uint32",
                  "name": "isOutOfRangeIncentivized",
                  "type": "uint32"
                },
                {
                  "internalType": "uint32",
                  "name": "boostedReward",
                  "type": "uint32"
                },
                {
                  "internalType": "address",
                  "name": "boostingAddress",
                  "type": "address"
                },
                {
                  "internalType": "bytes",
                  "name": "additionalData",
                  "type": "bytes"
                }
              ],
              "internalType": "struct DistributionParameters",
              "name": "base",
              "type": "tuple"
            },
            {
              "internalType": "uint24",
              "name": "poolFee",
              "type": "uint24"
            },
            {
              "components": [
                {
                  "internalType": "address",
                  "name": "add",
                  "type": "address"
                },
                {
                  "internalType": "uint8",
                  "name": "decimals",
                  "type": "uint8"
                },
                {
                  "internalType": "string",
                  "name": "symbol",
                  "type": "string"
                },
                {
                  "internalType": "uint256",
                  "name": "poolBalance",
                  "type": "uint256"
                }
              ],
              "internalType": "struct UniswapTokenData",
              "name": "token0",
              "type": "tuple"
            },
            {
              "components": [
                {
                  "internalType": "address",
                  "name": "add",
                  "type": "address"
                },
                {
                  "internalType": "uint8",
                  "name": "decimals",
                  "type": "uint8"
                },
                {
                  "internalType": "string",
                  "name": "symbol",
                  "type": "string"
                },
                {
                  "internalType": "uint256",
                  "name": "poolBalance",
                  "type": "uint256"
                }
              ],
              "internalType": "struct UniswapTokenData",
              "name": "token1",
              "type": "tuple"
            },
            {
              "internalType": "string",
              "name": "rewardTokenSymbol",
              "type": "string"
            },
            {
              "internalType": "uint8",
              "name": "rewardTokenDecimals",
              "type": "uint8"
            }
          ],
          "internalType": "struct ExtensiveDistributionParameters[]",
          "name": "",
          "type": "tuple[]"
        }
      ],
      "stateMutability": "view",
      "type": "function"
    },
    {
      "inputs": [
        {
          "internalType": "address",
          "name": "uniV3Pool",
          "type": "address"
        },
        {
          "internalType": "uint32",
          "name": "epoch",
          "type": "uint32"
        }
      ],
      "name": "getPoolDistributionsForEpoch",
      "outputs": [
        {
          "components": [
            {
              "components": [
                {
                  "internalType": "bytes32",
                  "name": "rewardId",
                  "type": "bytes32"
                },
                {
                  "internalType": "address",
                  "name": "uniV3Pool",
                  "type": "address"
                },
                {
                  "internalType": "address",
                  "name": "rewardToken",
                  "type": "address"
                },
                {
                  "internalType": "uint256",
                  "name": "amount",
                  "type": "uint256"
                },
                {
                  "internalType": "address[]",
                  "name": "positionWrappers",
                  "type": "address[]"
                },
                {
                  "internalType": "uint32[]",
                  "name": "wrapperTypes",
                  "type": "uint32[]"
                },
                {
                  "internalType": "uint32",
                  "name": "propToken0",
                  "type": "uint32"
                },
                {
                  "internalType": "uint32",
                  "name": "propToken1",
                  "type": "uint32"
                },
                {
                  "internalType": "uint32",
                  "name": "propFees",
                  "type": "uint32"
                },
                {
                  "internalType": "uint32",
                  "name": "epochStart",
                  "type": "uint32"
                },
                {
                  "internalType": "uint32",
                  "name": "numEpoch",
                  "type": "uint32"
                },
                {
                  "internalType": "uint32",
                  "name": "isOutOfRangeIncentivized",
                  "type": "uint32"
                },
                {
                  "internalType": "uint32",
                  "name": "boostedReward",
                  "type": "uint32"
                },
                {
                  "internalType": "address",
                  "name": "boostingAddress",
                  "type": "address"
                },
                {
                  "internalType": "bytes",
                  "name": "additionalData",
                  "type": "bytes"
                }
              ],
              "internalType": "struct DistributionParameters",
              "name": "base",
              "type": "tuple"
            },
            {
              "internalType": "uint24",
              "name": "poolFee",
              "type": "uint24"
            },
            {
              "components": [
                {
                  "internalType": "address",
                  "name": "add",
                  "type": "address"
                },
                {
                  "internalType": "uint8",
                  "name": "decimals",
                  "type": "uint8"
                },
                {
                  "internalType": "string",
                  "name": "symbol",
                  "type": "string"
                },
                {
                  "internalType": "uint256",
                  "name": "poolBalance",
                  "type": "uint256"
                }
              ],
              "internalType": "struct UniswapTokenData",
              "name": "token0",
              "type": "tuple"
            },
            {
              "components": [
                {
                  "internalType": "address",
                  "name": "add",
                  "type": "address"
                },
                {
                  "internalType": "uint8",
                  "name": "decimals",
                  "type": "uint8"
                },
                {
                  "internalType": "string",
                  "name": "symbol",
                  "type": "string"
                },
                {
                  "internalType": "uint256",
                  "name": "poolBalance",
                  "type": "uint256"
                }
              ],
              "internalType": "struct UniswapTokenData",
              "name": "token1",
              "type": "tuple"
            },
            {
              "internalType": "string",
              "name": "rewardTokenSymbol",
              "type": "string"
            },
            {
              "internalType": "uint8",
              "name": "rewardTokenDecimals",
              "type": "uint8"
            }
          ],
          "internalType": "struct ExtensiveDistributionParameters[]",
          "name": "",
          "type": "tuple[]"
        }
      ],
      "stateMutability": "view",
      "type": "function"
    },
    {
      "inputs": [],
      "name": "getValidRewardTokens",
      "outputs": [
        {
          "components": [
            {
              "internalType": "address",
              "name": "token",
              "type": "address"
            },
            {
              "internalType": "uint256",
              "name": "minimumAmountPerEpoch",
              "type": "uint256"
            }
          ],
          "internalType": "struct RewardTokenAmounts[]",
          "name": "",
          "type": "tuple[]"
        }
      ],
      "stateMutability": "view",
      "type": "function"
    },
    {
      "inputs": [
        {
          "internalType": "contract ICore",
          "name": "_core",
          "type": "address"
        },
        {
          "internalType": "address",
          "name": "_distributor",
          "type": "address"
        },
        {
          "internalType": "uint256",
          "name": "_fees",
          "type": "uint256"
        }
      ],
      "name": "initialize",
      "outputs": [],
      "stateMutability": "nonpayable",
      "type": "function"
    },
    {
      "inputs": [
        {
          "internalType": "address",
          "name": "",
          "type": "address"
        }
      ],
      "name": "isWhitelistedToken",
      "outputs": [
        {
          "internalType": "uint256",
          "name": "",
          "type": "uint256"
        }
      ],
      "stateMutability": "view",
      "type": "function"
    },
    {
      "inputs": [],
      "name": "message",
      "outputs": [
        {
          "internalType": "string",
          "name": "",
          "type": "string"
        }
      ],
      "stateMutability": "view",
      "type": "function"
    },
    {
      "inputs": [],
      "name": "messageHash",
      "outputs": [
        {
          "internalType": "bytes32",
          "name": "",
          "type": "bytes32"
        }
      ],
      "stateMutability": "view",
      "type": "function"
    },
    {
      "inputs": [
        {
          "internalType": "address",
          "name": "",
          "type": "address"
        }
      ],
      "name": "nonces",
      "outputs": [
        {
          "internalType": "uint256",
          "name": "",
          "type": "uint256"
        }
      ],
      "stateMutability": "view",
      "type": "function"
    },
    {
      "inputs": [],
      "name": "proxiableUUID",
      "outputs": [
        {
          "internalType": "bytes32",
          "name": "",
          "type": "bytes32"
        }
      ],
      "stateMutability": "view",
      "type": "function"
    },
    {
      "inputs": [
        {
          "internalType": "contract IERC20[]",
          "name": "tokens",
          "type": "address[]"
        },
        {
          "internalType": "address",
          "name": "to",
          "type": "address"
        }
      ],
      "name": "recoverFees",
      "outputs": [],
      "stateMutability": "nonpayable",
      "type": "function"
    },
    {
      "inputs": [
        {
          "internalType": "address",
          "name": "",
          "type": "address"
        }
      ],
      "name": "rewardTokenMinAmounts",
      "outputs": [
        {
          "internalType": "uint256",
          "name": "",
          "type": "uint256"
        }
      ],
      "stateMutability": "view",
      "type": "function"
    },
    {
      "inputs": [
        {
          "internalType": "uint256",
          "name": "",
          "type": "uint256"
        }
      ],
      "name": "rewardTokens",
      "outputs": [
        {
          "internalType": "address",
          "name": "",
          "type": "address"
        }
      ],
      "stateMutability": "view",
      "type": "function"
    },
    {
      "inputs": [
        {
          "internalType": "address",
          "name": "_feeRecipient",
          "type": "address"
        }
      ],
      "name": "setFeeRecipient",
      "outputs": [],
      "stateMutability": "nonpayable",
      "type": "function"
    },
    {
      "inputs": [
        {
          "internalType": "uint256",
          "name": "_fees",
          "type": "uint256"
        }
      ],
      "name": "setFees",
      "outputs": [],
      "stateMutability": "nonpayable",
      "type": "function"
    },
    {
      "inputs": [
        {
          "internalType": "string",
          "name": "_message",
          "type": "string"
        }
      ],
      "name": "setMessage",
      "outputs": [],
      "stateMutability": "nonpayable",
      "type": "function"
    },
    {
      "inputs": [
        {
          "internalType": "address",
          "name": "_distributor",
          "type": "address"
        }
      ],
      "name": "setNewDistributor",
      "outputs": [],
      "stateMutability": "nonpayable",
      "type": "function"
    },
    {
      "inputs": [
        {
          "internalType": "address[]",
          "name": "tokens",
          "type": "address[]"
        },
        {
          "internalType": "uint256[]",
          "name": "amounts",
          "type": "uint256[]"
        }
      ],
      "name": "setRewardTokenMinAmounts",
      "outputs": [],
      "stateMutability": "nonpayable",
      "type": "function"
    },
    {
      "inputs": [
        {
          "internalType": "address",
          "name": "user",
          "type": "address"
        },
        {
          "internalType": "uint256",
          "name": "userFeeRebate",
          "type": "uint256"
        }
      ],
      "name": "setUserFeeRebate",
      "outputs": [],
      "stateMutability": "nonpayable",
      "type": "function"
    },
    {
      "inputs": [
        {
          "internalType": "bytes",
          "name": "signature",
          "type": "bytes"
        }
      ],
      "name": "sign",
      "outputs": [],
      "stateMutability": "nonpayable",
      "type": "function"
    },
    {
      "inputs": [
        {
          "components": [
            {
              "internalType": "bytes32",
              "name": "rewardId",
              "type": "bytes32"
            },
            {
              "internalType": "address",
              "name": "uniV3Pool",
              "type": "address"
            },
            {
              "internalType": "address",
              "name": "rewardToken",
              "type": "address"
            },
            {
              "internalType": "uint256",
              "name": "amount",
              "type": "uint256"
            },
            {
              "internalType": "address[]",
              "name": "positionWrappers",
              "type": "address[]"
            },
            {
              "internalType": "uint32[]",
              "name": "wrapperTypes",
              "type": "uint32[]"
            },
            {
              "internalType": "uint32",
              "name": "propToken0",
              "type": "uint32"
            },
            {
              "internalType": "uint32",
              "name": "propToken1",
              "type": "uint32"
            },
            {
              "internalType": "uint32",
              "name": "propFees",
              "type": "uint32"
            },
            {
              "internalType": "uint32",
              "name": "epochStart",
              "type": "uint32"
            },
            {
              "internalType": "uint32",
              "name": "numEpoch",
              "type": "uint32"
            },
            {
              "internalType": "uint32",
              "name": "isOutOfRangeIncentivized",
              "type": "uint32"
            },
            {
              "internalType": "uint32",
              "name": "boostedReward",
              "type": "uint32"
            },
            {
              "internalType": "address",
              "name": "boostingAddress",
              "type": "address"
            },
            {
              "internalType": "bytes",
              "name": "additionalData",
              "type": "bytes"
            }
          ],
          "internalType": "struct DistributionParameters",
          "name": "distribution",
          "type": "tuple"
        },
        {
          "internalType": "bytes",
          "name": "signature",
          "type": "bytes"
        }
      ],
      "name": "signAndCreateDistribution",
      "outputs": [
        {
          "internalType": "uint256",
          "name": "distributionAmount",
          "type": "uint256"
        }
      ],
      "stateMutability": "nonpayable",
      "type": "function"
    },
    {
      "inputs": [
        {
          "internalType": "address",
          "name": "user",
          "type": "address"
        }
      ],
      "name": "toggleSigningWhitelist",
      "outputs": [],
      "stateMutability": "nonpayable",
      "type": "function"
    },
    {
      "inputs": [
        {
          "internalType": "address",
          "name": "token",
          "type": "address"
        }
      ],
      "name": "toggleTokenWhitelist",
      "outputs": [],
      "stateMutability": "nonpayable",
      "type": "function"
    },
    {
      "inputs": [
        {
          "internalType": "address",
          "name": "newImplementation",
          "type": "address"
        }
      ],
      "name": "upgradeTo",
      "outputs": [],
      "stateMutability": "nonpayable",
      "type": "function"
    },
    {
      "inputs": [
        {
          "internalType": "address",
          "name": "newImplementation",
          "type": "address"
        },
        {
          "internalType": "bytes",
          "name": "data",
          "type": "bytes"
        }
      ],
      "name": "upgradeToAndCall",
      "outputs": [],
      "stateMutability": "payable",
      "type": "function"
    },
    {
      "inputs": [
        {
          "internalType": "address",
          "name": "",
          "type": "address"
        }
      ],
      "name": "userSignatureWhitelist",
      "outputs": [
        {
          "internalType": "uint256",
          "name": "",
          "type": "uint256"
        }
      ],
      "stateMutability": "view",
      "type": "function"
    },
    {
      "inputs": [
        {
          "internalType": "address",
          "name": "",
          "type": "address"
        }
      ],
      "name": "userSignatures",
      "outputs": [
        {
          "internalType": "bytes32",
          "name": "",
          "type": "bytes32"
        }
      ],
      "stateMutability": "view",
      "type": "function"
    }
  ],
  "transactionHash": "0xbff8ef1aca282f5c1c1858fcc7f88b127c34db8c3a6806c011f6a964144dacec",
  "args": [],
  "numDeployments": 1,
  "solcInputHash": "9f2010084a19cf3613abdca525415862",
  "bytecode": "0x60a060405234620000495730608052620000186200004e565b620000226200004e565b604051615e0b90816200015a8239608051818181612cea01528181612de501526136110152f35b600080fd5b60005460ff8160081c1615908180926200014b575b801562000132575b15620000d65760ff19811660011760005581620000c3575b506200008b57565b61ff0019600054166000557f7f26b83ff96e1f2b6a682f133852f6798a09c465da95921460cefb3847402498602060405160018152a1565b61ffff1916610101176000553862000083565b60405162461bcd60e51b815260206004820152602e60248201527f496e697469616c697a61626c653a20636f6e747261637420697320616c72656160448201526d191e481a5b9a5d1a585b1a5e995960921b6064820152608490fd5b50303b1580156200006b5750600160ff8216146200006b565b50600160ff8216106200006356fe608080604052600436101561001357600080fd5b60003560e01c9081630241d8f9146141255750806303d2944c1461406e5780630f44380d14613cce578063141df50314613b3657806317418a2214613b0c5780631794bb3c1461395c5780632acd7ec41461392257806330444017146139045780633659cfe6146135ec578063368b87721461321a5780633d18678e14613143578063469048401461311c5780634f1ef28614612da457806352d1902d14612ccf57806358beb8841461254f5780636c1550b114611c0f5780636cca84bd14611b43578063734e7fb914611afa578063752e874914611adb57806376cd7cbc14611a9f5780637b74691e146119b55780637bb7bed11461195b5780637ecebe00146119215780638a4bd4b2146118ef57806395d3d5d8146117ad57806396b3ce54146117735780639af1d35a14611755578063a21840401461157a578063a2686e23146114ae578063a70b9f0c14611491578063ab37f48614611457578063ae23bf281461141c578063b9d81abc14610b29578063ba5c3a9d1461095a578063bfe1092814610933578063d0ff94b21461051f578063d7fa5625146104e5578063e1394f7d146104a5578063e21f37ce146103c3578063e74b981b146102cc578063f2f4eb26146102a5578063fb1d2329146102375763feba1ed2146101f857600080fd5b34610232576020366003190112610232576001600160a01b036102196141db565b16600052609e6020526020604060002054604051908152f35b600080fd5b34610232576060366003190112610232576102506141db565b61025861422e565b906044359063ffffffff918281168091036102325761028f610295936102886102a196610e109283911604615460565b9204615460565b91615909565b6040519182918261441a565b0390f35b346102325760003660031901126102325760206001600160a01b0360975416604051908152f35b34610232576020366003190112610232576102e56141db565b6001600160a01b03906024602083609754166040519283809263521d4de960e01b82523360048301525afa9081156103b757600091610389575b501561035f5716806001600160a01b031960995416176099557f7a7b5a0a132f9e0581eb8527f66eae9ee89c2a3e79d4ac7e41a1f1f4d48a7fc2600080a2005b60046040517f99e120bc000000000000000000000000000000000000000000000000000000008152fd5b6103aa915060203d81116103b0575b6103a28183614569565b810190614b9f565b8361031f565b503d610398565b6040513d6000823e3d90fd5b34610232576000366003190112610232576040516000609b546103e5816148b9565b8084529060019081811690811561047e5750600114610423575b6102a18461040f81860382614569565b604051918291602083526020830190614275565b609b600090815292507fbba9db4cdbea0a37c207bbb83e20f828cd4441c49891101dc94fd20dc8efc3495b82841061046657505050810160200161040f826103ff565b8054602085870181019190915290930192810161044e565b60ff191660208087019190915292151560051b8501909201925061040f91508390506103ff565b34610232576020366003190112610232576102a16102956104d6610e1063ffffffff6104cf61421b565b1604615460565b6104df81614bcb565b90615575565b34610232576020366003190112610232576001600160a01b036105066141db565b1660005260a26020526020604060002054604051908152f35b34610232576040366003190112610232576105386141db565b63ffffffff9061054d610e10836104cf61422e565b906000609d5461055c816145f9565b9261056a6040519485614569565b818452601f19948561057b846145f9565b0160005b81811061091657505086168660005b84828216106108415750505050506105a5816145f9565b926105b36040519485614569565b8184526105bf826145f9565b0160005b81811061082a57505060005b848116908282101561081c576105e58285614bb7565b51906105ef61551d565b918083526020938482016001600160a01b0392600487858451166040519283809263ddca3f4360e01b82525afa9081156103b7576000916107de575b509062ffffff6004921688880152878584511660405193848092630dfe168160e01b82525afa9182156103b757600492610674916000916107c1575b5086808651169116615cae565b604088015287858451166040519384809263d21220a760e01b82525afa9283156103b757600493866106b692604095600093610790575b505181169116615cae565b60608801520192600081855116604051938480926395d89b4160e01b82525afa9384156103b757600494889360009161076d575b50608088015251166040519384809263313ce56760e01b82525afa9384156103b75760ff600195610738948c98600092610740575b50501660a0820152610731828a614bb7565b5287614bb7565b5001166105cf565b61075f9250803d10610766575b6107578183614569565b810190615c95565b8c8061071f565b503d61074d565b61078a91503d806000833e6107828183614569565b810190615c36565b8d6106ea565b829193506107b3908d803d106107ba575b6107ab8183614569565b810190614c19565b92906106ab565b503d6107a1565b6107d891508a3d8c116107ba576107ab8183614569565b8e610667565b90508781813d8311610815575b6107f58183614569565b8101031261023257519062ffffff82168203610232579062ffffff61062b565b503d6107eb565b604051806102a1878261441a565b60209061083561551d565b828288010152016105c3565b61084a8161487e565b50600681015483856108718261086a81808760601c169660801c16615460565b1684614c58565b11918261090c575b5050806108df575b610892575b5060010116879061058e565b61089e91969250615113565b6108a88288614bb7565b526108b38187614bb7565b50600181018091116108c9579387906001610886565b634e487b7160e01b600052601160045260246000fd5b506001600160a01b0380861680159182156108fc575b5050610881565b6001840154161490508b806108f5565b109050838c610879565b602090610924959395615479565b82828a0101520193919361057f565b346102325760003660031901126102325760206001600160a01b0360985416604051908152f35b3461023257602036600319011261023257600435609d5481101561023257600990609d60005202807fd26e832454299e9fabb89e0e5fffdc046d4e14431bc1bf607ffb2e8a1ddecf7b01546102a17fd26e832454299e9fabb89e0e5fffdc046d4e14431bc1bf607ffb2e8a1ddecf836001600160a01b0393847fd26e832454299e9fabb89e0e5fffdc046d4e14431bc1bf607ffb2e8a1ddecf7c8201541694807fd26e832454299e9fabb89e0e5fffdc046d4e14431bc1bf607ffb2e8a1ddecf7d830154167fd26e832454299e9fabb89e0e5fffdc046d4e14431bc1bf607ffb2e8a1ddecf7e83015490610aa97fd26e832454299e9fabb89e0e5fffdc046d4e14431bc1bf607ffb2e8a1ddecf81850154937fd26e832454299e9fabb89e0e5fffdc046d4e14431bc1bf607ffb2e8a1ddecf828601541694610aa260405180988193016148f3565b0386614569565b604051978897885260208801526040870152606086015263ffffffff908181166080870152818160201c1660a0870152818160401c1660c0870152818160601c1660e0870152818160801c16610100870152818160a01c1661012087015260c01c166101408501526101608401526101a080610180850152830190614275565b346102325760203660031901126102325760043567ffffffffffffffff811161023257610b5a903690600401614611565b3360005260a26020526040600020541580611406575b6113dc57600260655414611398576002606555610b9b610e1063ffffffff6101208401511604615460565b6001600160a01b0360408301511660005260a3602052610bcd6040600020549163ffffffff8116610120850152614bcb565b63ffffffff42911610908115611384575b8115611349575b8115611314575b81156112ff575b81156112f6575b81156112d3575b506112a95760608101519033600052609e602052604060002054633b9aca00811080611238575b806111c7575b611135575b50610c5a826001600160a01b036040840151166001600160a01b0360985416903390614cb6565b3360005260a06020526040600020546001810181116108c9573360005260a06020526001810160406000205560405160208101913360601b8352603482015260348152610ca68161454d565b5190208152609d54600160401b811015610fcc57806001610cca9201609d5561487e565b92909261111f5781518355600183016001600160a01b036020840151166001600160a01b0319825416179055600283016001600160a01b036040840151166001600160a01b031982541617905560608201516003840155608082015180519067ffffffffffffffff8211610fcc57600160401b8211610fcc5760209060048601548360048801558084106110ff575b500160048501600052602060002060005b8381106110e2575050505060a08201519283519367ffffffffffffffff8511610fcc57600160401b8511610fcc57602090600583015486600585015580871061108f575b500160058201600052602060002060005b8660031c8110611040575060071986168603610fe2575b50506008919293506006810163ffffffff60c0860151168582549167ffffffff0000000060e083015160201b166bffffffff000000000000000061010084015160401b166fffffffff00000000000000000000000061012085015160601b169163ffffffff60801b61014086015160801b16937fffffffff0000000000000000000000000000000000000000000000000000000063ffffffff60c01b61018063ffffffff60a01b6101608a015160a01b1698015160c01b169716171717171717179055600781016001600160a01b036101a0860151166001600160a01b031982541617905501916101c081015192835167ffffffffffffffff8111610fcc5780602095610eed82610ee786546148b9565b86614c7c565b8690601f8311600114610f6857600092610f5d575b50508160011b916000199060031b1c19161790555b7f5280c74029ecceb35e4fecf34adee487fd5a9a3d6c8e70b7374a1c133370e83a60405184815280610f4d33948783019061429a565b0390a26001606555604051908152f35b015190508680610f02565b60008581528881209350601f198516905b818110610fb55750908460019594939210610f9c575b505050811b019055610f17565b015160001960f88460031b161c19169055868080610f8f565b929389600181928786015181550195019301610f79565b634e487b7160e01b600052604160045260246000fd5b60009160005b60071988168803811061100a575050600893949560031c015583929185610dd6565b9092602061103760019263ffffffff875116908560021b60031b63ffffffff811b9283911b169119161790565b94019101610fe8565b6000805b60088110611059575082820155600101610dbf565b9390602061108660019263ffffffff855116908860021b60031b63ffffffff811b9283911b169119161790565b92019401611044565b6110c29060058501600052836000206007808a0160031c820192601c8b60021b16806110c8575b500160031c0190614c65565b86610dae565b60001990818601918254918a0360031b1c1690558b6110b6565b60019060206001600160a01b038551169401938184015501610d6a565b611119906004880160005284846000209182019101614c65565b86610d59565b634e487b7160e01b600052600060045260246000fd5b609a5490633b9aca00818103116108c957633b9aca009161115891830390614c45565b04633b9aca0003633b9aca0081116108c957633b9aca0061117c6111b69285614c45565b04926001600160a01b036099541680156000146111c25750305b6111ae856001600160a01b0360408701511693614c38565b913390614cb6565b81606082015282610c33565b611196565b50600460206001600160a01b0381850151166040519283809263d21220a760e01b82525afa80156103b7576001600160a01b0391600091611219575b5016600052609f60205260406000205415610c2e565b611232915060203d6020116107ba576107ab8183614569565b85611203565b50600460206001600160a01b03818501511660405192838092630dfe168160e01b82525afa80156103b7576001600160a01b039160009161128a575b5016600052609f60205260406000205415610c28565b6112a3915060203d6020116107ba576107ab8183614569565b85611274565b60046040517f28829e82000000000000000000000000000000000000000000000000000000008152fd5b90506112ef606083015163ffffffff6101408501511690614bf9565b1082610c01565b80159150610bfa565b60808301515160a08401515114159150610bf3565b90506001600160a01b036101a083015116151580611333575b90610bec565b5061271063ffffffff610180840151161061132d565b905061271063ffffffff61137b61136e82610100870151168360c08801511690614be1565b8260e08701511690614be1565b16141590610be5565b61014083015163ffffffff16159150610bde565b606460405162461bcd60e51b815260206004820152601f60248201527f5265656e7472616e637947756172643a207265656e7472616e742063616c6c006044820152fd5b60046040517fa72952d8000000000000000000000000000000000000000000000000000000008152fd5b5060a1602052604060002054609c541415610b70565b34610232576040366003190112610232576102a161029561143b6141db565b61144e610e1063ffffffff6104cf61422e565b61028f81614bcb565b34610232576020366003190112610232576001600160a01b036114786141db565b16600052609f6020526020604060002054604051908152f35b34610232576000366003190112610232576020604051610e108152f35b3461023257602080600319360112610232576114c86141db565b6001600160a01b039060248383609754166040519283809263521d4de960e01b82523360048301525afa9081156103b75760009161155d575b501561035f5716908160005260a2815260406000205460010390600182116108c9577f9c759941da0b7ce56c059c1497218796e62035024afb77a00ff49a980a62078f918360005260a2825280604060002055604051908152a2005b6115749150843d86116103b0576103a28183614569565b84611501565b346102325760403660031901126102325767ffffffffffffffff600435818111610232576115ac9036906004016144e3565b906024928335908111610232576115c79036906004016144e3565b926001600160a01b03806097541691604051809363521d4de960e01b8252336004830152818960209687935afa9081156103b757600091611738575b501561035f5760005b81811061161557005b61162081888761543c565b3580151580611714575b6116b2575b8361164361163e84868b61543c565b61544c565b1660005260a38552806040600020557f3a5e6418e38cae10bf66eaf3e68c4e9c6b14df195e24fec169ab3a5b123c96e5858561168361163e86888d61543c565b1692604051908152a2600019811461169d5760010161160c565b87634e487b7160e01b60005260116004526000fd5b6116c061163e83858a61543c565b60a4805490600160401b8210156116ff57816116e29160018994019055614831565b909283549160031b83811b93849216901b1691191617905561162f565b8b634e487b7160e01b60005260416004526000fd5b508361172461163e84868b61543c565b1660005260a385526040600020541561162a565b61174f9150843d86116103b0576103a28183614569565b88611603565b34610232576000366003190112610232576020609a54604051908152f35b34610232576020366003190112610232576001600160a01b036117946141db565b1660005260a16020526020604060002054604051908152f35b346102325760003660031901126102325760a45460006117cc826153db565b60005b63ffffffff9084828216101561185b576001600160a01b036117f082614831565b90549060031b1c1680600052602060a38152604060002054908161181b575b505050600101166117cf565b6040969396519261182b84614514565b835282015261183a8285614bb7565b526118458184614bb7565b50600181018091116108c957926001868061180f565b5050611866826153db565b9160005b63ffffffff90818116908382101561189f576118978261188c60019488614bb7565b51610731828a614bb7565b50011661186a565b6040805160208082528851818301819052818a019383019160005b8281106118c75784840385f35b855180516001600160a01b0316855282015184830152948101946040909301926001016118ba565b34610232576020366003190112610232576102a161029561190e6141db565b61144e610e1063ffffffff421604615460565b34610232576020366003190112610232576001600160a01b036119426141db565b1660005260a06020526020604060002054604051908152f35b346102325760203660031901126102325760043560a454811015610232576001600160a01b0360209160a46000527fe434dc35da084cf8d7e8186688ea2dacb53db7003d427af3abf351bd9d0a4e8d015416604051908152f35b3461023257600036600319011261023257609d546119d2816145f9565b906119e06040519283614569565b8082526020908183019081609d6000527fd26e832454299e9fabb89e0e5fffdc046d4e14431bc1bf607ffb2e8a1ddecf7b6000915b838310611a7c5750505050604051918083019381845251809452604083019360408160051b85010192916000955b828710611a505785850386f35b909192938280611a6c600193603f198a8203018652885161429a565b9601920196019592919092611a43565b600986600192611a8e859a999a615113565b815201920192019190959495611a15565b346102325760203660031901126102325760043567ffffffffffffffff811161023257611ad3611ad9913690600401614803565b90614e7f565b005b34610232576000366003190112610232576020604051633b9aca008152f35b34610232576040366003190112610232576102a1610295611b1961421b565b6104df611b2461422e565b91610e1090611b3b8263ffffffff80931604615460565b931604615460565b346102325760208060031936011261023257611b5d6141db565b6001600160a01b039060248383609754166040519283809263521d4de960e01b82523360048301525afa9081156103b757600091611bf2575b501561035f57169081600052609f815260406000205460010390600182116108c9577fc6cd32b1acffa550abf886a9b443ff3ce485bfdb05e35ef5b26e745739a1eac19183600052609f825280604060002055604051908152a2005b611c099150843d86116103b0576103a28183614569565b84611b96565b346102325760203660031901126102325760043567ffffffffffffffff81116102325736602382011215610232578060040135611c4b816145f9565b91611c596040519384614569565b8183526024602084019260051b820101903682116102325760248101925b82841061251f57843360005260a26020526040600020541580612509575b6113dc578051611ca4816145f9565b90611cb26040519283614569565b808252601f19611cc1826145f9565b013660208401376000925b818410611d19578260405180916020820160208352815180915260206040840192019060005b818110611d00575050500390f35b8251845285945060209384019390920191600101611cf2565b611d238482614bb7565b5193600260655414611398576002606555611d4c610e1063ffffffff6101208801511604615460565b6001600160a01b0360408701511660005260a36020526040600020549063ffffffff811661012088015263ffffffff611d854292614bcb565b16109081156124f5575b81156124ba575b8115612485575b8115612470575b8115612467575b8115612444575b506112a957606085015133600052609e602052604060002054633b9aca008110806123d3575b80612362575b6122d6575b50611e0a816001600160a01b036040890151166001600160a01b0360985416903390614cb6565b3360005260a06020526040600020546001810181116108c9573360005260a06020526001810160406000205560405160208101913360601b8352603490818301528152611e568161454d565b5190208652609d8054600160401b811015610fcc57611e7a9160018201905561487e565b96909661111f5780518755600187016001600160a01b036020830151166001600160a01b0319825416179055600287016001600160a01b036040830151166001600160a01b031982541617905560608101516003880155608081015180519067ffffffffffffffff8211610fcc57600160401b8211610fcc5760209060048a01548360048c01558084106122b6575b500160048901600052602060002060005b838110612299575050505060a081015180519067ffffffffffffffff8211610fcc57600160401b8211610fcc5760209060058a01548360058c0155808410612247575b5001906005890160005260206000209060005b8160031c81106121f85750600719811681036121a0575b5050506006870160c063ffffffff81840151169082549167ffffffff0000000060e086015160201b166bffffffff000000000000000061010087015160401b166fffffffff00000000000000000000000061012088015160601b169163ffffffff60801b61014089015160801b16937fffffffff0000000000000000000000000000000000000000000000000000000063ffffffff60c01b63ffffffff60a01b6101608c015160a01b16976101808c0151901b169716171717171717179055600787016001600160a01b036101a0830151166001600160a01b03198254161790556101c081015196875167ffffffffffffffff8111610fcc5761209a8161209160088501546148b9565b60088501614c7c565b6020601f821160011461212d579080600892600198999a9b600092612122575b5050600019600383901b1c191690871b179101555b7f5280c74029ecceb35e4fecf34adee487fd5a9a3d6c8e70b7374a1c133370e83a60405160208152806121073394602083019061429a565b0390a2826065556121188287614bb7565b5201929190611ccc565b015190508b806120ba565b6008830160005260206000209960005b601f198416811061218857509160019798999a889260089483601f1981161061216f575b505050811b019101556120cf565b015160001960f88460031b161c191690558b8080612161565b828201518c556001909b019a6020928301920161213d565b60009260005b6007198316830381106121c257505060031c0155878080611f87565b909360206121ef60019263ffffffff885116908560021b60031b63ffffffff811b9283911b169119161790565b950191016121a6565b6000805b60088110612211575083820155600101611f70565b9490602061223e60019263ffffffff855116908960021b60031b63ffffffff811b9283911b169119161790565b920195016121fc565b6122799060058c0160005283600020600780870160031c820192601c8860021b168061227f57500160031c0190614c65565b8a611f5d565b60001990818601918254918a0360031b1c1690558f6110b6565b60019060206001600160a01b038551169401938184015501611f1a565b6122d09060048c0160005284846000209182019101614c65565b8a611f09565b609a5490633b9aca000390633b9aca0082116108c957633b9aca00916122fb91614c45565b04633b9aca0003633b9aca0081116108c957633b9aca0061231f6123519284614c45565b04916001600160a01b0360995416801560001461235d5750305b6111ae846001600160a01b0360408c01511693614c38565b80606087015286611de3565b612339565b50600460206001600160a01b03818a0151166040519283809263d21220a760e01b82525afa80156103b7576001600160a01b03916000916123b4575b5016600052609f60205260406000205415611dde565b6123cd915060203d6020116107ba576107ab8183614569565b8961239e565b50600460206001600160a01b03818a01511660405192838092630dfe168160e01b82525afa80156103b7576001600160a01b0391600091612425575b5016600052609f60205260406000205415611dd8565b61243e915060203d6020116107ba576107ab8183614569565b8961240f565b9050612460606087015163ffffffff6101408901511690614bf9565b1086611db2565b80159150611dab565b60808701515160a08801515114159150611da4565b90506001600160a01b036101a0870151161515806124a4575b90611d9d565b5061271063ffffffff610180880151161061249e565b905061271063ffffffff6124ec6124df826101008b0151168360c08c01511690614be1565b8260e08b01511690614be1565b16141590611d96565b61014087015163ffffffff16159150611d8f565b5060a1602052604060002054609c541415611c95565b833567ffffffffffffffff811161023257602091612544839260243691870101614611565b815201930192611c77565b346102325760403660031901126102325760043567ffffffffffffffff811161023257612580903690600401614611565b60243567ffffffffffffffff811161023257611ad36125a3913690600401614803565b6002606554146113985760026065556125ca610e1063ffffffff6101208401511604615460565b6001600160a01b0360408301511660005260a36020526125fc6040600020549163ffffffff8116610120850152614bcb565b63ffffffff42911610908115612cbb575b8115612c8d575b8115612c58575b8115612c43575b8115612c3a575b8115612c17575b506112a95760608101519033600052609e602052604060002054633b9aca00811080612ba6575b80612b35575b612ae0575b50612689826001600160a01b036040840151166001600160a01b0360985416903390614cb6565b3360005260a06020526040600020546001810181116108c9573360005260a06020526001810160406000205560405160208101913360601b83526034820152603481526126d58161454d565b5190208152609d54600160401b811015610fcc578060016126f99201609d5561487e565b92909261111f5781518355600183016001600160a01b036020840151166001600160a01b0319825416179055600283016001600160a01b036040840151166001600160a01b031982541617905560608201516003840155608082015180519067ffffffffffffffff8211610fcc57600160401b8211610fcc576020906004860154836004880155808410612ac0575b500160048501600052602060002060005b838110612aa3575050505060a08201519283519367ffffffffffffffff8511610fcc57600160401b8511610fcc576020906005830154866005850155808710612a6b575b500160058201600052602060002060005b8660031c8110612a1c5750600719861686036129be575b50506008919293506006810163ffffffff60c0860151168582549167ffffffff0000000060e083015160201b166bffffffff000000000000000061010084015160401b166fffffffff00000000000000000000000061012085015160601b169163ffffffff60801b61014086015160801b16937fffffffff0000000000000000000000000000000000000000000000000000000063ffffffff60c01b61018063ffffffff60a01b6101608a015160a01b1698015160c01b169716171717171717179055600781016001600160a01b036101a0860151166001600160a01b031982541617905501916101c081015192835167ffffffffffffffff8111610fcc578060209561291682610ee786546148b9565b8690601f831160011461297457600092610f5d5750508160011b916000199060031b1c19161790557f5280c74029ecceb35e4fecf34adee487fd5a9a3d6c8e70b7374a1c133370e83a60405184815280610f4d33948783019061429a565b60008581528881209350601f198516905b8181106129a75750908460019594939210610f9c57505050811b019055610f17565b929389600181928786015181550195019301612985565b60009160005b6007198816880381106129e6575050600893949560031c015583929185612805565b90926020612a1360019263ffffffff875116908560021b60031b63ffffffff811b9283911b169119161790565b940191016129c4565b6000805b60088110612a355750828201556001016127ee565b93906020612a6260019263ffffffff855116908860021b60031b63ffffffff811b9283911b169119161790565b92019401612a20565b612a9d9060058501600052836000206007808a0160031c820192601c8b60021b16806110c857500160031c0190614c65565b866127dd565b60019060206001600160a01b038551169401938184015501612799565b612ada906004880160005284846000209182019101614c65565b86612788565b609a5490633b9aca000390633b9aca0082116108c957633b9aca0091612b0591614c45565b04633b9aca0003633b9aca0081116108c957633b9aca0061117c612b299285614c45565b81606082015282612662565b50600460206001600160a01b0381850151166040519283809263d21220a760e01b82525afa80156103b7576001600160a01b0391600091612b87575b5016600052609f6020526040600020541561265d565b612ba0915060203d6020116107ba576107ab8183614569565b85612b71565b50600460206001600160a01b03818501511660405192838092630dfe168160e01b82525afa80156103b7576001600160a01b0391600091612bf8575b5016600052609f60205260406000205415612657565b612c11915060203d6020116107ba576107ab8183614569565b85612be2565b9050612c33606083015163ffffffff6101408501511690614bf9565b1082612630565b80159150612629565b60808301515160a08401515114159150612622565b90506001600160a01b036101a083015116151580612c77575b9061261b565b5061271063ffffffff6101808401511610612c71565b905061271063ffffffff612cb261136e82610100870151168360c08801511690614be1565b16141590612614565b61014083015163ffffffff1615915061260d565b34610232576000366003190112610232576001600160a01b037f0000000000000000000000000000000000000000000000000000000000000000163003612d3a5760206040517f360894a13ba1a3210667c828492db98dca3e2076cc3735a920a3ca505d382bbc8152f35b608460405162461bcd60e51b815260206004820152603860248201527f555550535570677261646561626c653a206d757374206e6f742062652063616c60448201527f6c6564207468726f7567682064656c656761746563616c6c00000000000000006064820152fd5b604036600319011261023257612db86141db565b60243567ffffffffffffffff811161023257612dd89036906004016145de565b906001600160a01b0391827f00000000000000000000000000000000000000000000000000000000000000001692612e1284301415614989565b612e417f360894a13ba1a3210667c828492db98dca3e2076cc3735a920a3ca505d382bbc9482865416146149fa565b806097541680151590816130c7575b5061035f577f4910fdfa16fed3260ed0e7147f7cc6da11a60208b5b9406d12a635614ffd91435460ff1615612e8b575050611ad99150614a6b565b82919216604051936352d1902d60e01b85526020948581600481865afa60009181613098575b50612f20576084866040519062461bcd60e51b82526004820152602e60248201527f45524331393637557067726164653a206e657720696d706c656d656e7461746960448201527f6f6e206973206e6f7420555550530000000000000000000000000000000000006064820152fd5b0361304257612f2e82614a6b565b604051907fbc7cd75a20ee27fd9adebab32041f755214dbc6bffa90cc0225b39da2e5c2d3b600080a282511580159061303a575b612f6857005b813b15612fea5750600082819285611ad99695519201905af4612f89614b18565b907f416464726573733a206c6f772d6c6576656c2064656c65676174652063616c6c60405193612fb88561454d565b602785528401527f206661696c6564000000000000000000000000000000000000000000000000006040840152614b48565b808462461bcd60e51b608493526004820152602660248201527f416464726573733a2064656c65676174652063616c6c20746f206e6f6e2d636f6044820152651b9d1c9858dd60d21b6064820152fd5b506001612f62565b6084846040519062461bcd60e51b82526004820152602960248201527f45524331393637557067726164653a20756e737570706f727465642070726f786044820152681a58589b195555525160ba1b6064820152fd5b9091508681813d83116130c0575b6130b08183614569565b8101031261023257519087612eb1565b503d6130a6565b602491506020906040519283809263521d4de960e01b82523360048301525afa9081156103b7576000916130fe575b501585612e50565b613116915060203d81116103b0576103a28183614569565b856130f6565b346102325760003660031901126102325760206001600160a01b0360995416604051908152f35b3461023257602036600319011261023257600435602460206001600160a01b03609754166040519283809263521d4de960e01b82523360048301525afa9081156103b7576000916131fc575b501561035f57633b9aca008110156131d2576020817f3346af6da1932164d501f2ec28f8c5d686db5828a36b77f2da4332d89184fe7b92609a55604051908152a1005b60046040517fd2529034000000000000000000000000000000000000000000000000000000008152fd5b613214915060203d81116103b0576103a28183614569565b8261318f565b34610232576020806003193601126102325767ffffffffffffffff9060043582811161023257366023820112156102325761325f9036906024816004013591016145a7565b906024816001600160a01b03609754166040519283809263521d4de960e01b82523360048301525afa9081156103b7576000916135cf575b501561035f578151928311610fcc576132b1609b546148b9565b601f8111613576575b508092601f81116001146134f557809192936000916134ea575b508160011b916000199060031b1c191617609b555b8151600092817a184f03e93ff9f4daa797ed6e38ed64bf6a1f010000000000000000808210156134dc575b50836d04ee2d6d415b85acef8100000000808310156134d0575b5050662386f26fc10000808210156134c3575b506305f5e100808210156134b6575b50612710808210156134a9575b50606481101561349b575b600a80911015613491575b60018086019381602161339e6133888861458b565b97613396604051998a614569565b80895261458b565b8789019990601f1901368b37870101905b61344e575b5050505061343e603a7fde3dc3335dea4d1a1060ef6cefcfcc109eb0a1e78ce151818d3f17a01e1f8a059560405193849161341b888401977f19457468657265756d205369676e6564204d6573736167653a0a000000000000895251809286860190614252565b820161342f825180938a8785019101614252565b0103601a810184520182614569565b51902080609c55604051908152a1005b600019019083907f30313233343536373839616263646566000000000000000000000000000000008282061a83530491821561348c579190826133af565b6133b4565b9360010193613373565b606460029104940193613368565b600491049401938561335d565b6008910494019385613350565b6010910494019385613341565b9501949004838661332e565b604095508304905085613314565b9050830151846132d4565b601f19811693609b6000527fbba9db4cdbea0a37c207bbb83e20f828cd4441c49891101dc94fd20dc8efc3499060005b86811061355f575082600194959610613546575b5050811b01609b556132e9565b85015160001960f88460031b161c191690558480613539565b909184600181928589015181550193019101613525565b6135bf90609b6000527fbba9db4cdbea0a37c207bbb83e20f828cd4441c49891101dc94fd20dc8efc349601f860160051c8101918487106135c5575b601f0160051c0190614c65565b836132ba565b90915081906135b2565b6135e69150823d84116103b0576103a28183614569565b84613297565b3461023257602080600319360112610232576136066141db565b6001600160a01b03807f00000000000000000000000000000000000000000000000000000000000000001661363d81301415614989565b61366c7f360894a13ba1a3210667c828492db98dca3e2076cc3735a920a3ca505d382bbc9183835416146149fa565b81609754168481151591826138b2575b505061035f57604051908482019282841067ffffffffffffffff851117610fcc57836040526000835260ff7f4910fdfa16fed3260ed0e7147f7cc6da11a60208b5b9406d12a635614ffd914354166000146136df5750505050611ad99150614a6b565b8416906040516352d1902d60e01b81528681600481865afa60009181613883575b5061376f576084876040519062461bcd60e51b82526004820152602e60248201527f45524331393637557067726164653a206e657720696d706c656d656e7461746960448201527f6f6e206973206e6f7420555550530000000000000000000000000000000000006064820152fd5b0361382d5761377d84614a6b565b604051907fbc7cd75a20ee27fd9adebab32041f755214dbc6bffa90cc0225b39da2e5c2d3b600080a2815115801590613825575b6137b757005b833b156137d55750611ad99392600092839251915af4612f89614b18565b808562461bcd60e51b608493526004820152602660248201527f416464726573733a2064656c65676174652063616c6c20746f206e6f6e2d636f6044820152651b9d1c9858dd60d21b6064820152fd5b5060006137b1565b6084856040519062461bcd60e51b82526004820152602960248201527f45524331393637557067726164653a20756e737570706f727465642070726f786044820152681a58589b195555525160ba1b6064820152fd5b9091508781813d83116138ab575b61389b8183614569565b8101031261023257519088613700565b503d613891565b602492506040519283809263521d4de960e01b82523360048301525afa9081156103b7576000916138e7575b5015848661367c565b6138fe9150853d87116103b0576103a28183614569565b856138de565b34610232576000366003190112610232576020609c54604051908152f35b34610232576020366003190112610232576001600160a01b036139436141db565b1660005260a36020526020604060002054604051908152f35b34610232576060366003190112610232576004356001600160a01b03908181168091036102325761398b6141f1565b90604435916000549360ff8560081c161594858096613aff575b8015613ae8575b15613a7e5760ff19811660011760005585613a6c575b5082158015613a62575b613a3857633b9aca0084116131d2576001600160a01b031991168160985416176098556097541617609755609a55613a0057005b61ff0019600054166000557f7f26b83ff96e1f2b6a682f133852f6798a09c465da95921460cefb3847402498602060405160018152a1005b60046040517fd92e233d000000000000000000000000000000000000000000000000000000008152fd5b50808216156139cc565b61ffff191661010117600055856139c2565b608460405162461bcd60e51b815260206004820152602e60248201527f496e697469616c697a61626c653a20636f6e747261637420697320616c72656160448201527f647920696e697469616c697a65640000000000000000000000000000000000006064820152fd5b50303b1580156139ac5750600160ff8216146139ac565b50600160ff8216106139a5565b34610232576000366003190112610232576102a16102956104d6610e1063ffffffff421604615460565b346102325760403660031901126102325767ffffffffffffffff60043581811161023257613b689036906004016144e3565b9190613b726141f1565b916001600160a01b038060975416906040519586809363521d4de960e01b8252336004830152602098899160249687915afa9081156103b757600091613cb1575b501561035f5794811660005b868110613bc857005b83613bd761163e838a8a61543c565b8985613be761163e868d8d61543c565b16604051938480926370a0823160e01b82523060048301525afa9182156103b757600092613c82575b50604051917fa9059cbb000000000000000000000000000000000000000000000000000000008b84015284878401526044908184015282526080820182811088821117613c6d5760405260019291613c6791614d21565b01613bbf565b86634e487b7160e01b60005260416004526000fd5b9091508981813d8311613caa575b613c9a8183614569565b810103126102325751908a613c10565b503d613c90565b613cc89150883d8a116103b0576103a28183614569565b88613bb3565b34610232576020806003193601126102325763ffffffff90613cf5610e10836104cf61421b565b609d546000613d03826145f9565b92613d116040519485614569565b828452601f199283613d22826145f9565b018660005b8281106140585750505090868060009216915b8382821610613fc55750505050613d50816145f9565b91613d5e6040519384614569565b818352613d6a826145f9565b018460005b828110613faf5750505060005b8581169082821015613fa157613d928286614bb7565b5190613d9c61551d565b928284528783016001600160a01b039360048a868451166040519283809263ddca3f4360e01b82525afa9081156103b757600091613f63575b509062ffffff600492168b8801528a8684511660405193848092630dfe168160e01b82525afa9182156103b757600492613e1e91600091613f46575b5087808651169116615cae565b60408801528a868451166040519384809263d21220a760e01b82525afa9283156103b75760049387613e62926040958f600094613f23575b50505181169116615cae565b60608801520193600081865116604051938480926395d89b4160e01b82525afa9485156103b7576004958b93600091613f08575b50608088015251166040519485809263313ce56760e01b82525afa9081156103b757899460ff613ee393600196600091613eeb575b501660a0820152613edc8289614bb7565b5286614bb7565b500116613d7c565b613f0291508c8d3d10610766576107578183614569565b8d613ecb565b613f1d91503d806000833e6107828183614569565b8d613e96565b839294509081613f3e92903d106107ba576107ab8183614569565b92908f613e56565b613f5d91508d803d106107ba576107ab8183614569565b8e613e11565b90508a81813d8311613f9a575b613f7a8183614569565b8101031261023257519062ffffff82168203610232579062ffffff613dd5565b503d613f70565b604051806102a1868261441a565b613fb761551d565b828287010152018590613d6f565b613fce8161487e565b5060068101548385613fee8261086a81808760601c169660801c16615460565b11918261404e575b505080614046575b61400f575b50600101168790613d3a565b61401b91959250615113565b6140258288614bb7565b526140308187614bb7565b50600181018091116108c9579287906001614003565b506001613ffe565b109050838c613ff6565b614060615479565b82828a010152018790613d27565b34610232576020366003190112610232576140876141db565b6001600160a01b03906024602083609754166040519283809263521d4de960e01b82523360048301525afa9081156103b757600091614107575b501561035f571680156131d257806001600160a01b031960985416176098557fc0ebb188f905d128bcd7e4282dd1f9cf24cd331b69071002e488349aca6a867b600080a2005b61411f915060203d81116103b0576103a28183614569565b836140c1565b346102325760403660031901126102325761413e6141db565b90602435916001600160a01b0391602081602481866097541663521d4de960e01b82523360048301525afa9081156103b7576000916141bd575b501561035f577fab1d37d0b21937f334fc4164d147abbfdbfd7ef37ab9ea0ae73f2a58ffb7f1cc91602091169283600052609e825280604060002055604051908152a2005b6141d5915060203d81116103b0576103a28183614569565b84614178565b600435906001600160a01b038216820361023257565b602435906001600160a01b038216820361023257565b35906001600160a01b038216820361023257565b6004359063ffffffff8216820361023257565b6024359063ffffffff8216820361023257565b359063ffffffff8216820361023257565b60005b8381106142655750506000910152565b8181015183820152602001614255565b9060209161428e81518092818552858086019101614252565b601f01601f1916010190565b9190916101e09081840193815181526001600160a01b0360209581878501511687840152816040850151166040840152606084015160608401526080840151946080840152845180915286610200840195019060005b888282106143c4575050505060a08301519382810360a084015286808651928381520195019060005b8181106143aa575050506143a794955063ffffffff8060c08501511660c08401528060e08501511660e084015261010081818601511690840152610120818186015116908401526101408181860151169084015261016081818601511690840152610180908185015116908301526101a0908184015116908201526101c08092015191818403910152614275565b90565b825163ffffffff1687529588019591880191600101614319565b83518516885296870196909201916001016142f0565b906001600160a01b03825116815260ff60208301511660208201526060806144116040850151608060408601526080850190614275565b93015191015290565b602080820190808352835180925260409283810182858560051b8401019601946000925b85841061444f575050505050505090565b909192939495968580600192603f198582030187528a51906144c56144b261449f614482855160c080875286019061429a565b62ffffff8787015116878601528a8601518582038c8701526143da565b60608086015190858303908601526143da565b6080808501519084830390850152614275565b9160ff60a0809201511691015299019401940192959493919061443e565b9181601f840112156102325782359167ffffffffffffffff8311610232576020808501948460051b01011161023257565b6040810190811067ffffffffffffffff821117610fcc57604052565b6101e0810190811067ffffffffffffffff821117610fcc57604052565b6060810190811067ffffffffffffffff821117610fcc57604052565b90601f8019910116810190811067ffffffffffffffff821117610fcc57604052565b67ffffffffffffffff8111610fcc57601f01601f191660200190565b9291926145b38261458b565b916145c16040519384614569565b829481845281830111610232578281602093846000960137010152565b9080601f83011215610232578160206143a7933591016145a7565b67ffffffffffffffff8111610fcc5760051b60200190565b91906101e09081848203126102325760409384519283019167ffffffffffffffff9284811084821117610fcc5786528395823585526020614653818501614207565b81870152614662828501614207565b8287015260608401356060870152608084013585811161023257840183601f8201121561023257803590614695826145f9565b916146a285519384614569565b808352838084019160051b830101918683116102325784809101915b8383106147eb5750505050608087015260a084013585811161023257840183601f820112156102325780356146fe6146f5826145f9565b94519485614569565b808452828085019160051b83010191858311610232578301905b8282106147d4575050505060a085015261473460c08301614241565b60c085015261474560e08301614241565b60e0850152610100614758818401614241565b9085015261012061476a818401614241565b9085015261014061477c818401614241565b9085015261016061478e818401614241565b908501526101806147a0818401614241565b908501526101a06147b2818401614207565b908501526101c09283830135908111610232576147cf92016145de565b910152565b8380916147e084614241565b815201910190614718565b81906147f684614207565b81520191019084906146be565b9181601f840112156102325782359167ffffffffffffffff8311610232576020838186019501011161023257565b60a4548110156148685760a46000527fe434dc35da084cf8d7e8186688ea2dacb53db7003d427af3abf351bd9d0a4e8d0190600090565b634e487b7160e01b600052603260045260246000fd5b609d5481101561486857600990609d600052027fd26e832454299e9fabb89e0e5fffdc046d4e14431bc1bf607ffb2e8a1ddecf7b0190600090565b90600182811c921680156148e9575b60208310146148d357565b634e487b7160e01b600052602260045260246000fd5b91607f16916148c8565b9060009291805491614904836148b9565b9182825260019384811690816000146149665750600114614926575b50505050565b90919394506000526020928360002092846000945b838610614952575050505001019038808080614920565b80548587018301529401938590820161493b565b9294505050602093945060ff191683830152151560051b01019038808080614920565b1561499057565b608460405162461bcd60e51b815260206004820152602c60248201527f46756e6374696f6e206d7573742062652063616c6c6564207468726f7567682060448201527f64656c656761746563616c6c00000000000000000000000000000000000000006064820152fd5b15614a0157565b608460405162461bcd60e51b815260206004820152602c60248201527f46756e6374696f6e206d7573742062652063616c6c6564207468726f7567682060448201527f6163746976652070726f787900000000000000000000000000000000000000006064820152fd5b803b15614aae576001600160a01b037f360894a13ba1a3210667c828492db98dca3e2076cc3735a920a3ca505d382bbc91166001600160a01b0319825416179055565b608460405162461bcd60e51b815260206004820152602d60248201527f455243313936373a206e657720696d706c656d656e746174696f6e206973206e60448201527f6f74206120636f6e7472616374000000000000000000000000000000000000006064820152fd5b3d15614b43573d90614b298261458b565b91614b376040519384614569565b82523d6000602084013e565b606090565b909160609115614b5757505090565b614b62919392614b64565b565b805190925015614b775750805190602001fd5b614b9b9060405191829162461bcd60e51b8352602060048401526024830190614275565b0390fd5b90816020910312610232575180151581036102325790565b80518210156148685760209160051b010190565b90610e1063ffffffff809316019182116108c957565b91909163ffffffff808094169116019182116108c957565b8115614c03570490565b634e487b7160e01b600052601260045260246000fd5b9081602091031261023257516001600160a01b03811681036102325790565b919082039182116108c957565b818102929181159184041417156108c957565b919082018092116108c957565b818110614c70575050565b60008155600101614c65565b9190601f8111614c8b57505050565b614b62926000526020600020906020601f840160051c830193106135c557601f0160051c0190614c65565b9290604051927f23b872dd0000000000000000000000000000000000000000000000000000000060208501526001600160a01b03809216602485015216604483015260648201526064815260a081019181831067ffffffffffffffff841117610fcc57614b62926040525b604051614d7f916001600160a01b0316614d3a82614514565b6000806020958685527f5361666545524332303a206c6f772d6c6576656c2063616c6c206661696c656487860152868151910182855af1614d79614b18565b91614e0e565b80519081614d8c57505050565b8280614d9c938301019101614b9f565b15614da45750565b6084906040519062461bcd60e51b82526004820152602a60248201527f5361666545524332303a204552433230206f7065726174696f6e20646964206e60448201527f6f742073756363656564000000000000000000000000000000000000000000006064820152fd5b919260609115614e72575050815115614e25575090565b3b15614e2e5790565b606460405162461bcd60e51b815260206004820152601d60248201527f416464726573733a2063616c6c20746f206e6f6e2d636f6e74726163740000006044820152fd5b909392614b629250614b64565b614e9a614e94614ea292609c549436916145a7565b8361504c565b919091614f1a565b6001600160a01b0333911603614ef0573360005260a1602052806040600020556040519081527fc48bbd4f009ad78a336beb65bf44688651e9aa52ac98d9054f0fce0573fefbc360203392a2565b60046040517f8baa579f000000000000000000000000000000000000000000000000000000008152fd5b60058110156150365780614f2b5750565b60018103614f7757606460405162461bcd60e51b815260206004820152601860248201527f45434453413a20696e76616c6964207369676e617475726500000000000000006044820152fd5b60028103614fc357606460405162461bcd60e51b815260206004820152601f60248201527f45434453413a20696e76616c6964207369676e6174757265206c656e677468006044820152fd5b600314614fcc57565b608460405162461bcd60e51b815260206004820152602260248201527f45434453413a20696e76616c6964207369676e6174757265202773272076616c60448201527f75650000000000000000000000000000000000000000000000000000000000006064820152fd5b634e487b7160e01b600052602160045260246000fd5b90604181511460001461507a57615076916020820151906060604084015193015160001a90615084565b9091565b5050600090600290565b9291907f7fffffffffffffffffffffffffffffff5d576e7357a4501ddfe92f46681b20a083116151075791608094939160ff602094604051948552168484015260408301526060820152600093849182805260015afa156150fa5781516001600160a01b038116156150f4579190565b50600190565b50604051903d90823e3d90fd5b50505050600090600390565b9060409182519061512382614530565b8193815483526001600160a01b036001818185015416602090818701528260028601541684870152600385015460609081880152600486019285519384858583549283815201600093845286842092845b86898383106153c4575050505061518d92500386614569565b608094858a01526005880190875190819386845493848152019382528682205b83600784011061535f579461522a818960089f9d9994976101c09f9c978b906152a49f9b9860e09b61529d9f809b5494848410615349575b848410615331575b848410615318575b50838310615300575b8c8484106152e7575b508383106152ce575b8383106152b5575b5050106152a8575b5090500382614569565b60a08b015260068801549283928380938d63ffffffff9889848199968280981660c08601521c169101528d61010084848d1c169101521c166101208c01521c16610140890152818160a01c1661016089015260c01c166101808701526007840154166101a08601525180968193016148f3565b0384614569565b0152565b891c815201859038615220565b90919463ffffffff8560c01c1681520193013885615218565b81929563ffffffff8660a01c1681520194019085615210565b9563ffffffff868495981c16815201940190858c615207565b81929563ffffffff868d1c16815201940190856151fe565b9563ffffffff868495981c16815201940190858f6151f5565b85821c63ffffffff16875295810195928201926151ed565b63ffffffff8616875295810195928201926151e5565b805463ffffffff8082168752818a1c81168a880152818d1c81168d88015281891c811689880152818b1c81168b88015260a082811c82169088015260c082811c9091169087015260e090811c90860152610100909401936008929092019181016151ad565b86548d168552958101958b95509093019201615174565b906153e5826145f9565b6040906153f482519182614569565b8381528093615405601f19916145f9565b0191600090815b84811061541a575050505050565b602090825161542881614514565b84815282858183015282870101520161540c565b91908110156148685760051b0190565b356001600160a01b03811681036102325790565b90610e1063ffffffff809316029182169182036108c957565b6040519061548682614530565b60606101c083600080825280602083015280604083015280848301528360808301528360a08301528060c08301528060e083015280610100830152806101208301528061014083015280610160830152806101808301526101a08201520152565b604051906080820182811067ffffffffffffffff821117610fcc5760405260006060838281528260208201528160408201520152565b6040519060c0820182811067ffffffffffffffff821117610fcc57604052600060a083615548615479565b81528260208201526155586154e7565b60408201526155656154e7565b6060820152606060808201520152565b91600091609d5493615586856145f9565b9160409361559685519485614569565b868452601f19806155a6896145f9565b01875b8181106158f2575050865b63ffffffff9089828216101561565c576155cd8161487e565b5060068101546155f2846155eb81808560601c169460801c16615460565b1682614c58565b848916109081615650575b5080615648575b615613575b50600101166155b4565b61561f90999199615113565b6156298289614bb7565b526156348188614bb7565b50600181018091116108c957976001615609565b506001615604565b905083871611386155fd565b5050939594925095505061566f836145f9565b9161567c82519384614569565b838352615688846145f9565b0160005b8181106158db57505060005b63ffffffff90818116858110156158d1576156b38188614bb7565b516156bc61551d565b9080825260208181809301906001600160a01b0391828151168a519485809263ddca3f4360e01b825260049788915afa9081156158665760009161588e575b5062ffffff16858701528385848351168c5192838092630dfe168160e01b82525afa9081156158665785929161574091600091615871575b5085808451169116615cae565b8b88015285848251168c519384809263d21220a760e01b82525afa91821561586657918461577d928d959460009361584c57505181169116615cae565b606087015201826000838351168b51928380926395d89b4160e01b82525afa908115615841579085939291600091615828575b506080870152511688519283809263313ce56760e01b82525afa91821561581d5760019594926157f8949260ff92600092615800575b50501660a0820152613edc8289614bb7565b500116615698565b6158169250803d10610766576107578183614569565b38806157e6565b87513d6000823e3d90fd5b61583b913d8091833e6107828183614569565b386157b0565b8a513d6000823e3d90fd5b829193506107b3908a3d8c116107ba576107ab8183614569565b8b513d6000823e3d90fd5b6158889150883d8a116107ba576107ab8183614569565b38615733565b8681813d83116158ca575b6158a38183614569565b810103126158c657519062ffffff821682036158c3575062ffffff6156fb565b80fd5b5080fd5b503d615899565b5050505091505090565b6020906158e661551d565b8282870101520161568c565b6020906158fd615479565b82828a010152016155a9565b609d549360009390929061591c866145f9565b9260409461592c86519586614569565b878552601f198061593c8a6145f9565b01885b818110615c1f575050875b63ffffffff908a8282161015615a10576159638161487e565b506006810154615981846155eb81808560601c169460801c16615460565b848a16109081615a04575b50806159d7575b6159a2575b506001011661594a565b6159ae909a919a615113565b6159b8828a614bb7565b526159c38189614bb7565b50600181018091116108c957986001615998565b506001600160a01b0380871680159182156159f4575b5050615993565b60018401541614905038806159ed565b9050838816113861598c565b5050949695935096505050615a24836145f9565b91615a3182519384614569565b838352615a3d846145f9565b0160005b818110615c0857505060005b63ffffffff90818116858110156158d157615a688188614bb7565b51615a7161551d565b9080825260208181809301906001600160a01b0391828151168a519485809263ddca3f4360e01b825260049788915afa90811561586657600091615bcc575b5062ffffff16858701528385848351168c5192838092630dfe168160e01b82525afa90811561586657859291615af491600091615871575085808451169116615cae565b8b88015285848251168c519384809263d21220a760e01b82525afa918215615866579184615b31928d959460009361584c57505181169116615cae565b606087015201826000838351168b51928380926395d89b4160e01b82525afa908115615841579085939291600091615bb3575b506080870152511688519283809263313ce56760e01b82525afa91821561581d576001959492615bab949260ff926000926158005750501660a0820152613edc8289614bb7565b500116615a4d565b615bc6913d8091833e6107828183614569565b38615b64565b8681813d8311615c01575b615be18183614569565b810103126158c657519062ffffff821682036158c3575062ffffff615ab0565b503d615bd7565b602090615c1361551d565b82828701015201615a41565b602090615c2a615479565b82828b0101520161593f565b6020818303126102325780519067ffffffffffffffff8211610232570181601f82011215610232578051615c698161458b565b92615c776040519485614569565b81845260208284010111610232576143a79160208085019101614252565b90816020910312610232575160ff811681036102325790565b9190615cb86154e7565b926001600160a01b038091169182855260409182519163313ce56760e01b83526020928381600481895afa908115615dad579060ff91600091615db8575b50168388015283516395d89b4160e01b8152600081600481895afa908115615dad5791602491859493600091615d94575b50868a0152855196879384926370a0823160e01b84521660048301525afa918215615d8a5750600091615d5e575b50606084015250565b82813d8311615d83575b615d728183614569565b810103126158c35750518038615d55565b503d615d68565b513d6000823e3d90fd5b615da7913d8091833e6107828183614569565b38615d27565b85513d6000823e3d90fd5b615dcf9150853d8711610766576107578183614569565b38615cf656fea2646970667358221220ba7287dbde913171fa89d2e13773962347e823a2b0160ca865fda35b0a24c9ff64736f6c63430008110033"
}