{
  "address": "0xb0DD987d1872E36B3dd53649d0d91D01e9BBC3b4",
  "abi": [
    {
      "inputs": [],
      "name": "InvalidParam",
      "type": "error"
    },
    {
      "inputs": [],
      "name": "NotGovernor",
      "type": "error"
    },
    {
      "inputs": [],
      "name": "NotGovernorOrGuardian",
      "type": "error"
    },
    {
      "inputs": [],
      "name": "ZeroAddress",
      "type": "error"
    },
    {
      "anonymous": false,
      "inputs": [
        {
          "indexed": false,
          "internalType": "address",
          "name": "previousAdmin",
          "type": "address"
        },
        {
          "indexed": false,
          "internalType": "address",
          "name": "newAdmin",
          "type": "address"
        }
      ],
      "name": "AdminChanged",
      "type": "event"
    },
    {
      "anonymous": false,
      "inputs": [
        {
          "indexed": true,
          "internalType": "address",
          "name": "owner",
          "type": "address"
        },
        {
          "indexed": true,
          "internalType": "address",
          "name": "spender",
          "type": "address"
        },
        {
          "indexed": false,
          "internalType": "uint256",
          "name": "value",
          "type": "uint256"
        }
      ],
      "name": "Approval",
      "type": "event"
    },
    {
      "anonymous": false,
      "inputs": [
        {
          "indexed": true,
          "internalType": "address",
          "name": "beacon",
          "type": "address"
        }
      ],
      "name": "BeaconUpgraded",
      "type": "event"
    },
    {
      "anonymous": false,
      "inputs": [
        {
          "indexed": false,
          "internalType": "uint8",
          "name": "version",
          "type": "uint8"
        }
      ],
      "name": "Initialized",
      "type": "event"
    },
    {
      "anonymous": false,
      "inputs": [
        {
          "indexed": true,
          "internalType": "address",
          "name": "token",
          "type": "address"
        },
        {
          "indexed": true,
          "internalType": "address",
          "name": "to",
          "type": "address"
        },
        {
          "indexed": false,
          "internalType": "uint256",
          "name": "amount",
          "type": "uint256"
        }
      ],
      "name": "Recovered",
      "type": "event"
    },
    {
      "anonymous": false,
      "inputs": [
        {
          "indexed": true,
          "internalType": "address",
          "name": "from",
          "type": "address"
        },
        {
          "indexed": true,
          "internalType": "address",
          "name": "to",
          "type": "address"
        },
        {
          "indexed": false,
          "internalType": "uint256",
          "name": "value",
          "type": "uint256"
        }
      ],
      "name": "Transfer",
      "type": "event"
    },
    {
      "anonymous": false,
      "inputs": [
        {
          "indexed": true,
          "internalType": "address",
          "name": "implementation",
          "type": "address"
        }
      ],
      "name": "Upgraded",
      "type": "event"
    },
    {
      "inputs": [
        {
          "internalType": "address",
          "name": "owner",
          "type": "address"
        },
        {
          "internalType": "address",
          "name": "spender",
          "type": "address"
        }
      ],
      "name": "allowance",
      "outputs": [
        {
          "internalType": "uint256",
          "name": "",
          "type": "uint256"
        }
      ],
      "stateMutability": "view",
      "type": "function"
    },
    {
      "inputs": [
        {
          "internalType": "address",
          "name": "spender",
          "type": "address"
        },
        {
          "internalType": "uint256",
          "name": "amount",
          "type": "uint256"
        }
      ],
      "name": "approve",
      "outputs": [
        {
          "internalType": "bool",
          "name": "",
          "type": "bool"
        }
      ],
      "stateMutability": "nonpayable",
      "type": "function"
    },
    {
      "inputs": [
        {
          "internalType": "address",
          "name": "account",
          "type": "address"
        }
      ],
      "name": "balanceOf",
      "outputs": [
        {
          "internalType": "uint256",
          "name": "",
          "type": "uint256"
        }
      ],
      "stateMutability": "view",
      "type": "function"
    },
    {
      "inputs": [
        {
          "internalType": "address",
          "name": "user",
          "type": "address"
        }
      ],
      "name": "claim",
      "outputs": [
        {
          "internalType": "uint256",
          "name": "",
          "type": "uint256"
        }
      ],
      "stateMutability": "nonpayable",
      "type": "function"
    },
    {
      "inputs": [
        {
          "internalType": "address",
          "name": "user",
          "type": "address"
        }
      ],
      "name": "claimable",
      "outputs": [
        {
          "internalType": "uint256",
          "name": "amountClaimable",
          "type": "uint256"
        }
      ],
      "stateMutability": "view",
      "type": "function"
    },
    {
      "inputs": [],
      "name": "cliffDuration",
      "outputs": [
        {
          "internalType": "uint32",
          "name": "",
          "type": "uint32"
        }
      ],
      "stateMutability": "view",
      "type": "function"
    },
    {
      "inputs": [],
      "name": "core",
      "outputs": [
        {
          "internalType": "contract IAccessControlManager",
          "name": "",
          "type": "address"
        }
      ],
      "stateMutability": "view",
      "type": "function"
    },
    {
      "inputs": [],
      "name": "decimals",
      "outputs": [
        {
          "internalType": "uint8",
          "name": "",
          "type": "uint8"
        }
      ],
      "stateMutability": "view",
      "type": "function"
    },
    {
      "inputs": [
        {
          "internalType": "address",
          "name": "spender",
          "type": "address"
        },
        {
          "internalType": "uint256",
          "name": "subtractedValue",
          "type": "uint256"
        }
      ],
      "name": "decreaseAllowance",
      "outputs": [
        {
          "internalType": "bool",
          "name": "",
          "type": "bool"
        }
      ],
      "stateMutability": "nonpayable",
      "type": "function"
    },
    {
      "inputs": [],
      "name": "distributionCreator",
      "outputs": [
        {
          "internalType": "address",
          "name": "",
          "type": "address"
        }
      ],
      "stateMutability": "view",
      "type": "function"
    },
    {
      "inputs": [],
      "name": "distributor",
      "outputs": [
        {
          "internalType": "address",
          "name": "",
          "type": "address"
        }
      ],
      "stateMutability": "view",
      "type": "function"
    },
    {
      "inputs": [],
      "name": "feeRecipient",
      "outputs": [
        {
          "internalType": "address",
          "name": "",
          "type": "address"
        }
      ],
      "stateMutability": "view",
      "type": "function"
    },
    {
      "inputs": [
        {
          "internalType": "address",
          "name": "user",
          "type": "address"
        }
      ],
      "name": "getUserVestings",
      "outputs": [
        {
          "components": [
            {
              "internalType": "uint128",
              "name": "amount",
              "type": "uint128"
            },
            {
              "internalType": "uint128",
              "name": "unlockTimestamp",
              "type": "uint128"
            }
          ],
          "internalType": "struct VestingID[]",
          "name": "allVestings",
          "type": "tuple[]"
        },
        {
          "internalType": "uint256",
          "name": "nextClaimIndex",
          "type": "uint256"
        }
      ],
      "stateMutability": "view",
      "type": "function"
    },
    {
      "inputs": [
        {
          "internalType": "address",
          "name": "spender",
          "type": "address"
        },
        {
          "internalType": "uint256",
          "name": "addedValue",
          "type": "uint256"
        }
      ],
      "name": "increaseAllowance",
      "outputs": [
        {
          "internalType": "bool",
          "name": "",
          "type": "bool"
        }
      ],
      "stateMutability": "nonpayable",
      "type": "function"
    },
    {
      "inputs": [
        {
          "internalType": "address",
          "name": "_underlying",
          "type": "address"
        },
        {
          "internalType": "uint32",
          "name": "_cliffDuration",
          "type": "uint32"
        },
        {
          "internalType": "contract IAccessControlManager",
          "name": "_core",
          "type": "address"
        },
        {
          "internalType": "address",
          "name": "_distributionCreator",
          "type": "address"
        }
      ],
      "name": "initialize",
      "outputs": [],
      "stateMutability": "nonpayable",
      "type": "function"
    },
    {
      "inputs": [],
      "name": "isTokenWrapper",
      "outputs": [
        {
          "internalType": "bool",
          "name": "",
          "type": "bool"
        }
      ],
      "stateMutability": "pure",
      "type": "function"
    },
    {
      "inputs": [],
      "name": "name",
      "outputs": [
        {
          "internalType": "string",
          "name": "",
          "type": "string"
        }
      ],
      "stateMutability": "view",
      "type": "function"
    },
    {
      "inputs": [],
      "name": "proxiableUUID",
      "outputs": [
        {
          "internalType": "bytes32",
          "name": "",
          "type": "bytes32"
        }
      ],
      "stateMutability": "view",
      "type": "function"
    },
    {
      "inputs": [
        {
          "internalType": "address",
          "name": "tokenAddress",
          "type": "address"
        },
        {
          "internalType": "address",
          "name": "to",
          "type": "address"
        },
        {
          "internalType": "uint256",
          "name": "amountToRecover",
          "type": "uint256"
        }
      ],
      "name": "recoverERC20",
      "outputs": [],
      "stateMutability": "nonpayable",
      "type": "function"
    },
    {
      "inputs": [
        {
          "internalType": "uint32",
          "name": "_newCliffDuration",
          "type": "uint32"
        }
      ],
      "name": "setCliffDuration",
      "outputs": [],
      "stateMutability": "nonpayable",
      "type": "function"
    },
    {
      "inputs": [
        {
          "internalType": "address",
          "name": "_distributionCreator",
          "type": "address"
        }
      ],
      "name": "setDistributor",
      "outputs": [],
      "stateMutability": "nonpayable",
      "type": "function"
    },
    {
      "inputs": [],
      "name": "setFeeRecipient",
      "outputs": [],
      "stateMutability": "nonpayable",
      "type": "function"
    },
    {
      "inputs": [],
      "name": "symbol",
      "outputs": [
        {
          "internalType": "string",
          "name": "",
          "type": "string"
        }
      ],
      "stateMutability": "view",
      "type": "function"
    },
    {
      "inputs": [],
      "name": "token",
      "outputs": [
        {
          "internalType": "address",
          "name": "",
          "type": "address"
        }
      ],
      "stateMutability": "view",
      "type": "function"
    },
    {
      "inputs": [],
      "name": "totalSupply",
      "outputs": [
        {
          "internalType": "uint256",
          "name": "",
          "type": "uint256"
        }
      ],
      "stateMutability": "view",
      "type": "function"
    },
    {
      "inputs": [
        {
          "internalType": "address",
          "name": "to",
          "type": "address"
        },
        {
          "internalType": "uint256",
          "name": "amount",
          "type": "uint256"
        }
      ],
      "name": "transfer",
      "outputs": [
        {
          "internalType": "bool",
          "name": "",
          "type": "bool"
        }
      ],
      "stateMutability": "nonpayable",
      "type": "function"
    },
    {
      "inputs": [
        {
          "internalType": "address",
          "name": "from",
          "type": "address"
        },
        {
          "internalType": "address",
          "name": "to",
          "type": "address"
        },
        {
          "internalType": "uint256",
          "name": "amount",
          "type": "uint256"
        }
      ],
      "name": "transferFrom",
      "outputs": [
        {
          "internalType": "bool",
          "name": "",
          "type": "bool"
        }
      ],
      "stateMutability": "nonpayable",
      "type": "function"
    },
    {
      "inputs": [],
      "name": "underlying",
      "outputs": [
        {
          "internalType": "address",
          "name": "",
          "type": "address"
        }
      ],
      "stateMutability": "view",
      "type": "function"
    },
    {
      "inputs": [
        {
          "internalType": "address",
          "name": "newImplementation",
          "type": "address"
        }
      ],
      "name": "upgradeTo",
      "outputs": [],
      "stateMutability": "nonpayable",
      "type": "function"
    },
    {
      "inputs": [
        {
          "internalType": "address",
          "name": "newImplementation",
          "type": "address"
        },
        {
          "internalType": "bytes",
          "name": "data",
          "type": "bytes"
        }
      ],
      "name": "upgradeToAndCall",
      "outputs": [],
      "stateMutability": "payable",
      "type": "function"
    },
    {
      "inputs": [
        {
          "internalType": "address",
          "name": "",
          "type": "address"
        }
      ],
      "name": "vestingData",
      "outputs": [
        {
          "internalType": "uint256",
          "name": "nextClaimIndex",
          "type": "uint256"
        }
      ],
      "stateMutability": "view",
      "type": "function"
    }
  ],
  "transactionHash": "0x20b6f1c03c24dbdac5b59cafb85445a92570e9d83d5f7e16fe44fa86545a1f92",
  "args": [],
  "numDeployments": 1,
  "solcInputHash": "e087b17a9bddc4862366d42018eb834d",
  "bytecode": "0x60a0604052306080523480156200001557600080fd5b50600054610100900460ff1615808015620000375750600054600160ff909116105b80620000535750303b15801562000053575060005460ff166001145b620000bb5760405162461bcd60e51b815260206004820152602e60248201527f496e697469616c697a61626c653a20636f6e747261637420697320616c72656160448201526d191e481a5b9a5d1a585b1a5e995960921b606482015260840160405180910390fd5b6000805460ff191660011790558015620000df576000805461ff0019166101001790555b801562000126576000805461ff0019169055604051600181527f7f26b83ff96e1f2b6a682f133852f6798a09c465da95921460cefb38474024989060200160405180910390a15b5060805161386b6200015f60003960008181610bd201528181610c8701528181610e3301528181610ee3015261102c015261386b6000f3fe6080604052600436106101d85760003560e01c80634f1ef28611610102578063a457c2d711610095578063d85349f711610064578063d85349f7146105b5578063dd62ed3e146105ff578063f2f4eb2614610652578063fc0c546a1461067f57600080fd5b8063a457c2d71461051b578063a9059cbb1461053b578063ae99c0ac1461055b578063bfe109281461058857600080fd5b806370a08231116100d157806370a082311461048357806375619ab5146104c657806395d89b41146104e6578063983cb80f146104fb57600080fd5b80634f1ef2861461040057806352d1902d146104135780636f307dc3146104285780637090eba81461045557600080fd5b806323b872dd1161017a5780633950935111610149578063395093511461033e578063402914f51461035e57806344ae44ae1461037e57806346904840146103ae57600080fd5b806323b872dd146102ce5780632587c501146102ee578063313ce567146103025780633659cfe61461031e57600080fd5b80631171bda9116101b65780631171bda91461025a57806313cf69dd1461027a57806318160ddd1461028f5780631e83409a146102ae57600080fd5b806306fdde03146101dd578063095ea7b31461020857806309d2851a14610238575b600080fd5b3480156101e957600080fd5b506101f26106aa565b6040516101ff91906130b2565b60405180910390f35b34801561021457600080fd5b50610228610223366004613125565b61073c565b60405190151581526020016101ff565b34801561024457600080fd5b5061025861025336600461316a565b610756565b005b34801561026657600080fd5b50610258610275366004613185565b6108dc565b34801561028657600080fd5b50610258610a31565b34801561029b57600080fd5b506099545b6040519081526020016101ff565b3480156102ba57600080fd5b506102a06102c93660046131c6565b610b09565b3480156102da57600080fd5b506102286102e9366004613185565b610b95565b3480156102fa57600080fd5b506001610228565b34801561030e57600080fd5b50604051601281526020016101ff565b34801561032a57600080fd5b506102586103393660046131c6565b610bbb565b34801561034a57600080fd5b50610228610359366004613125565b610dc5565b34801561036a57600080fd5b506102a06103793660046131c6565b610e11565b34801561038a57600080fd5b506102a06103993660046131c6565b60ce6020526000908152604090206001015481565b3480156103ba57600080fd5b5060cb546103db9073ffffffffffffffffffffffffffffffffffffffff1681565b60405173ffffffffffffffffffffffffffffffffffffffff90911681526020016101ff565b61025861040e3660046132a7565b610e1c565b34801561041f57600080fd5b506102a0611012565b34801561043457600080fd5b5060cd546103db9073ffffffffffffffffffffffffffffffffffffffff1681565b34801561046157600080fd5b506104756104703660046131c6565b6110fe565b6040516101ff92919061333a565b34801561048f57600080fd5b506102a061049e3660046131c6565b73ffffffffffffffffffffffffffffffffffffffff1660009081526097602052604090205490565b3480156104d257600080fd5b506102586104e13660046131c6565b6111b8565b3480156104f257600080fd5b506101f2611345565b34801561050757600080fd5b506102586105163660046133a9565b611354565b34801561052757600080fd5b50610228610536366004613125565b6118a5565b34801561054757600080fd5b50610228610556366004613125565b611981565b34801561056757600080fd5b5060cc546103db9073ffffffffffffffffffffffffffffffffffffffff1681565b34801561059457600080fd5b5060ca546103db9073ffffffffffffffffffffffffffffffffffffffff1681565b3480156105c157600080fd5b5060cd546105ea9074010000000000000000000000000000000000000000900463ffffffff1681565b60405163ffffffff90911681526020016101ff565b34801561060b57600080fd5b506102a061061a366004613403565b73ffffffffffffffffffffffffffffffffffffffff918216600090815260986020908152604080832093909416825291909152205490565b34801561065e57600080fd5b5060c9546103db9073ffffffffffffffffffffffffffffffffffffffff1681565b34801561068b57600080fd5b5060cd5473ffffffffffffffffffffffffffffffffffffffff166103db565b6060609a80546106b99061343c565b80601f01602080910402602001604051908101604052809291908181526020018280546106e59061343c565b80156107325780601f1061070757610100808354040283529160200191610732565b820191906000526020600020905b81548152906001019060200180831161071557829003601f168201915b5050505050905090565b60003361074a81858561198f565b60019150505b92915050565b60c9546040517f521d4de900000000000000000000000000000000000000000000000000000000815233600482015273ffffffffffffffffffffffffffffffffffffffff9091169063521d4de990602401602060405180830381865afa1580156107c4573d6000803e3d6000fd5b505050506040513d601f19601f820116820180604052508101906107e8919061348f565b61081e576040517f99e120bc00000000000000000000000000000000000000000000000000000000815260040160405180910390fd5b60cd5463ffffffff740100000000000000000000000000000000000000009091048116908216108015610856575063ffffffff811615155b1561088d576040517fd252903400000000000000000000000000000000000000000000000000000000815260040160405180910390fd5b60cd805463ffffffff90921674010000000000000000000000000000000000000000027fffffffffffffffff00000000ffffffffffffffffffffffffffffffffffffffff909216919091179055565b60c9546040517fe43581b800000000000000000000000000000000000000000000000000000000815233600482015273ffffffffffffffffffffffffffffffffffffffff9091169063e43581b890602401602060405180830381865afa15801561094a573d6000803e3d6000fd5b505050506040513d601f19601f8201168201806040525081019061096e919061348f565b6109a4576040517fee3675d400000000000000000000000000000000000000000000000000000000815260040160405180910390fd5b6109c573ffffffffffffffffffffffffffffffffffffffff84168383611b3a565b8173ffffffffffffffffffffffffffffffffffffffff168373ffffffffffffffffffffffffffffffffffffffff167ffff3b3844276f57024e0b42afec1a37f75db36511e43819a4f2a63ab7862b64883604051610a2491815260200190565b60405180910390a3505050565b60cc60009054906101000a900473ffffffffffffffffffffffffffffffffffffffff1673ffffffffffffffffffffffffffffffffffffffff1663469048406040518163ffffffff1660e01b8152600401602060405180830381865afa158015610a9e573d6000803e3d6000fd5b505050506040513d601f19601f82011682018060405250810190610ac291906134b1565b60cb80547fffffffffffffffffffffffff00000000000000000000000000000000000000001673ffffffffffffffffffffffffffffffffffffffff92909216919091179055565b6000806000610b1784611c13565b90925090508115610b8e5773ffffffffffffffffffffffffffffffffffffffff8416600090815260ce60205260409020600101819055610b8e8483610b7160cd5473ffffffffffffffffffffffffffffffffffffffff1690565b73ffffffffffffffffffffffffffffffffffffffff169190611b3a565b5092915050565b600033610ba3858285611ce6565b610bae858585611dbd565b60019150505b9392505050565b73ffffffffffffffffffffffffffffffffffffffff7f0000000000000000000000000000000000000000000000000000000000000000163003610c85576040517f08c379a000000000000000000000000000000000000000000000000000000000815260206004820152602c60248201527f46756e6374696f6e206d7573742062652063616c6c6564207468726f7567682060448201527f64656c656761746563616c6c000000000000000000000000000000000000000060648201526084015b60405180910390fd5b7f000000000000000000000000000000000000000000000000000000000000000073ffffffffffffffffffffffffffffffffffffffff16610cfa7f360894a13ba1a3210667c828492db98dca3e2076cc3735a920a3ca505d382bbc5473ffffffffffffffffffffffffffffffffffffffff1690565b73ffffffffffffffffffffffffffffffffffffffff1614610d9d576040517f08c379a000000000000000000000000000000000000000000000000000000000815260206004820152602c60248201527f46756e6374696f6e206d7573742062652063616c6c6564207468726f7567682060448201527f6163746976652070726f787900000000000000000000000000000000000000006064820152608401610c7c565b610da681612044565b60408051600080825260208201909252610dc29183919061212e565b50565b33600081815260986020908152604080832073ffffffffffffffffffffffffffffffffffffffff8716845290915281205490919061074a9082908690610e0c9087906134fd565b61198f565b6000610b8e82611c13565b73ffffffffffffffffffffffffffffffffffffffff7f0000000000000000000000000000000000000000000000000000000000000000163003610ee1576040517f08c379a000000000000000000000000000000000000000000000000000000000815260206004820152602c60248201527f46756e6374696f6e206d7573742062652063616c6c6564207468726f7567682060448201527f64656c656761746563616c6c00000000000000000000000000000000000000006064820152608401610c7c565b7f000000000000000000000000000000000000000000000000000000000000000073ffffffffffffffffffffffffffffffffffffffff16610f567f360894a13ba1a3210667c828492db98dca3e2076cc3735a920a3ca505d382bbc5473ffffffffffffffffffffffffffffffffffffffff1690565b73ffffffffffffffffffffffffffffffffffffffff1614610ff9576040517f08c379a000000000000000000000000000000000000000000000000000000000815260206004820152602c60248201527f46756e6374696f6e206d7573742062652063616c6c6564207468726f7567682060448201527f6163746976652070726f787900000000000000000000000000000000000000006064820152608401610c7c565b61100282612044565b61100e8282600161212e565b5050565b60003073ffffffffffffffffffffffffffffffffffffffff7f000000000000000000000000000000000000000000000000000000000000000016146110d9576040517f08c379a000000000000000000000000000000000000000000000000000000000815260206004820152603860248201527f555550535570677261646561626c653a206d757374206e6f742062652063616c60448201527f6c6564207468726f7567682064656c656761746563616c6c00000000000000006064820152608401610c7c565b507f360894a13ba1a3210667c828492db98dca3e2076cc3735a920a3ca505d382bbc90565b73ffffffffffffffffffffffffffffffffffffffff8116600090815260ce60209081526040808320805482518185028101850190935280835260609493919291839190859084015b828210156111a557600084815260209081902060408051808201909152908401546fffffffffffffffffffffffffffffffff80821683527001000000000000000000000000000000009091041681830152825260019092019101611146565b5050505092508060010154915050915091565b60c9546040517fe43581b800000000000000000000000000000000000000000000000000000000815233600482015273ffffffffffffffffffffffffffffffffffffffff9091169063e43581b890602401602060405180830381865afa158015611226573d6000803e3d6000fd5b505050506040513d601f19601f8201168201806040525081019061124a919061348f565b611280576040517fee3675d400000000000000000000000000000000000000000000000000000000815260040160405180910390fd5b8073ffffffffffffffffffffffffffffffffffffffff1663bfe109286040518163ffffffff1660e01b8152600401602060405180830381865afa1580156112cb573d6000803e3d6000fd5b505050506040513d601f19601f820116820180604052508101906112ef91906134b1565b60ca805473ffffffffffffffffffffffffffffffffffffffff9283167fffffffffffffffffffffffff00000000000000000000000000000000000000009182161790915560cc8054939092169216919091179055565b6060609b80546106b99061343c565b600054610100900460ff16158080156113745750600054600160ff909116105b8061138e5750303b15801561138e575060005460ff166001145b61141a576040517f08c379a000000000000000000000000000000000000000000000000000000000815260206004820152602e60248201527f496e697469616c697a61626c653a20636f6e747261637420697320616c72656160448201527f647920696e697469616c697a65640000000000000000000000000000000000006064820152608401610c7c565b600080547fffffffffffffffffffffffffffffffffffffffffffffffffffffffffffffff00166001179055801561147857600080547fffffffffffffffffffffffffffffffffffffffffffffffffffffffffffff00ff166101001790555b6115e08573ffffffffffffffffffffffffffffffffffffffff166306fdde036040518163ffffffff1660e01b8152600401600060405180830381865afa1580156114c6573d6000803e3d6000fd5b505050506040513d6000823e601f3d9081017fffffffffffffffffffffffffffffffffffffffffffffffffffffffffffffffe016820160405261150c9190810190613510565b60405160200161151c919061357e565b6040516020818303038152906040528673ffffffffffffffffffffffffffffffffffffffff166395d89b416040518163ffffffff1660e01b8152600401600060405180830381865afa158015611576573d6000803e3d6000fd5b505050506040513d6000823e601f3d9081017fffffffffffffffffffffffffffffffffffffffffffffffffffffffffffffffe01682016040526115bc9190810190613510565b6040516020016115cc91906135c3565b60405160208183030381529060405261232d565b6115e86123ce565b73ffffffffffffffffffffffffffffffffffffffff8316611635576040517fd92e233d00000000000000000000000000000000000000000000000000000000815260040160405180910390fd5b60cd805460c980547fffffffffffffffffffffffff00000000000000000000000000000000000000001673ffffffffffffffffffffffffffffffffffffffff878116919091179091558781167fffffffffffffffff000000000000000000000000000000000000000000000000909216919091177401000000000000000000000000000000000000000063ffffffff88160217909155604080517fbfe1092800000000000000000000000000000000000000000000000000000000815290519184169163bfe10928916004818101926020929091908290030181865afa158015611723573d6000803e3d6000fd5b505050506040513d601f19601f8201168201806040525081019061174791906134b1565b60ca60006101000a81548173ffffffffffffffffffffffffffffffffffffffff021916908373ffffffffffffffffffffffffffffffffffffffff1602179055508173ffffffffffffffffffffffffffffffffffffffff1663469048406040518163ffffffff1660e01b8152600401602060405180830381865afa1580156117d2573d6000803e3d6000fd5b505050506040513d601f19601f820116820180604052508101906117f691906134b1565b60cb80547fffffffffffffffffffffffff00000000000000000000000000000000000000001673ffffffffffffffffffffffffffffffffffffffff92909216919091179055801561189e57600080547fffffffffffffffffffffffffffffffffffffffffffffffffffffffffffff00ff169055604051600181527f7f26b83ff96e1f2b6a682f133852f6798a09c465da95921460cefb38474024989060200160405180910390a15b5050505050565b33600081815260986020908152604080832073ffffffffffffffffffffffffffffffffffffffff8716845290915281205490919083811015611969576040517f08c379a000000000000000000000000000000000000000000000000000000000815260206004820152602560248201527f45524332303a2064656372656173656420616c6c6f77616e63652062656c6f7760448201527f207a65726f0000000000000000000000000000000000000000000000000000006064820152608401610c7c565b611976828686840361198f565b506001949350505050565b60003361074a818585611dbd565b73ffffffffffffffffffffffffffffffffffffffff8316611a31576040517f08c379a0000000000000000000000000000000000000000000000000000000008152602060048201526024808201527f45524332303a20617070726f76652066726f6d20746865207a65726f2061646460448201527f72657373000000000000000000000000000000000000000000000000000000006064820152608401610c7c565b73ffffffffffffffffffffffffffffffffffffffff8216611ad4576040517f08c379a000000000000000000000000000000000000000000000000000000000815260206004820152602260248201527f45524332303a20617070726f766520746f20746865207a65726f20616464726560448201527f73730000000000000000000000000000000000000000000000000000000000006064820152608401610c7c565b73ffffffffffffffffffffffffffffffffffffffff83811660008181526098602090815260408083209487168084529482529182902085905590518481527f8c5be1e5ebec7d5bd14f71427d1e84f3dd0314c0f7b2291e5b200ac8c7c3b9259101610a24565b60405173ffffffffffffffffffffffffffffffffffffffff8316602482015260448101829052611c0e9084907fa9059cbb00000000000000000000000000000000000000000000000000000000906064015b604080517fffffffffffffffffffffffffffffffffffffffffffffffffffffffffffffffe08184030181529190526020810180517bffffffffffffffffffffffffffffffffffffffffffffffffffffffff167fffffffff0000000000000000000000000000000000000000000000000000000090931692909217909152612467565b505050565b73ffffffffffffffffffffffffffffffffffffffff8116600090815260ce602052604081206001810154815483929182915b80821015611cdd576000838381548110611c6157611c61613608565b6000918252602090912001805490915070010000000000000000000000000000000090046fffffffffffffffffffffffffffffffff16421115611cd1578054611cbc906fffffffffffffffffffffffffffffffff16886134fd565b9650611cc783613637565b9250829550611cd7565b50611cdd565b50611c45565b50505050915091565b73ffffffffffffffffffffffffffffffffffffffff8381166000908152609860209081526040808320938616835292905220547fffffffffffffffffffffffffffffffffffffffffffffffffffffffffffffffff8114611db75781811015611daa576040517f08c379a000000000000000000000000000000000000000000000000000000000815260206004820152601d60248201527f45524332303a20696e73756666696369656e7420616c6c6f77616e63650000006044820152606401610c7c565b611db7848484840361198f565b50505050565b73ffffffffffffffffffffffffffffffffffffffff8316611e60576040517f08c379a000000000000000000000000000000000000000000000000000000000815260206004820152602560248201527f45524332303a207472616e736665722066726f6d20746865207a65726f20616460448201527f64726573730000000000000000000000000000000000000000000000000000006064820152608401610c7c565b73ffffffffffffffffffffffffffffffffffffffff8216611f03576040517f08c379a000000000000000000000000000000000000000000000000000000000815260206004820152602360248201527f45524332303a207472616e7366657220746f20746865207a65726f206164647260448201527f65737300000000000000000000000000000000000000000000000000000000006064820152608401610c7c565b611f0e838383612573565b73ffffffffffffffffffffffffffffffffffffffff831660009081526097602052604090205481811015611fc4576040517f08c379a000000000000000000000000000000000000000000000000000000000815260206004820152602660248201527f45524332303a207472616e7366657220616d6f756e742065786365656473206260448201527f616c616e636500000000000000000000000000000000000000000000000000006064820152608401610c7c565b73ffffffffffffffffffffffffffffffffffffffff80851660008181526097602052604080822086860390559286168082529083902080548601905591517fddf252ad1be2c89b69c2b068fc378daa952ba7f163c4a11628f55a4df523b3ef906120319086815260200190565b60405180910390a3611db784848461261e565b60c95473ffffffffffffffffffffffffffffffffffffffff1680158015906120f757506040517fe43581b800000000000000000000000000000000000000000000000000000000815233600482015273ffffffffffffffffffffffffffffffffffffffff82169063e43581b890602401602060405180830381865afa1580156120d1573d6000803e3d6000fd5b505050506040513d601f19601f820116820180604052508101906120f5919061348f565b155b1561100e576040517fee3675d400000000000000000000000000000000000000000000000000000000815260040160405180910390fd5b7f4910fdfa16fed3260ed0e7147f7cc6da11a60208b5b9406d12a635614ffd91435460ff161561216157611c0e836127ba565b8273ffffffffffffffffffffffffffffffffffffffff166352d1902d6040518163ffffffff1660e01b8152600401602060405180830381865afa9250505080156121e6575060408051601f3d9081017fffffffffffffffffffffffffffffffffffffffffffffffffffffffffffffffe01682019092526121e39181019061366f565b60015b612272576040517f08c379a000000000000000000000000000000000000000000000000000000000815260206004820152602e60248201527f45524331393637557067726164653a206e657720696d706c656d656e7461746960448201527f6f6e206973206e6f7420555550530000000000000000000000000000000000006064820152608401610c7c565b7f360894a13ba1a3210667c828492db98dca3e2076cc3735a920a3ca505d382bbc8114612321576040517f08c379a000000000000000000000000000000000000000000000000000000000815260206004820152602960248201527f45524331393637557067726164653a20756e737570706f727465642070726f7860448201527f6961626c655555494400000000000000000000000000000000000000000000006064820152608401610c7c565b50611c0e8383836128c4565b600054610100900460ff166123c4576040517f08c379a000000000000000000000000000000000000000000000000000000000815260206004820152602b60248201527f496e697469616c697a61626c653a20636f6e7472616374206973206e6f74206960448201527f6e697469616c697a696e670000000000000000000000000000000000000000006064820152608401610c7c565b61100e82826128e9565b600054610100900460ff16612465576040517f08c379a000000000000000000000000000000000000000000000000000000000815260206004820152602b60248201527f496e697469616c697a61626c653a20636f6e7472616374206973206e6f74206960448201527f6e697469616c697a696e670000000000000000000000000000000000000000006064820152608401610c7c565b565b60006124c9826040518060400160405280602081526020017f5361666545524332303a206c6f772d6c6576656c2063616c6c206661696c65648152508573ffffffffffffffffffffffffffffffffffffffff166129999092919063ffffffff16565b805190915015611c0e57808060200190518101906124e7919061348f565b611c0e576040517f08c379a000000000000000000000000000000000000000000000000000000000815260206004820152602a60248201527f5361666545524332303a204552433230206f7065726174696f6e20646964206e60448201527f6f742073756363656564000000000000000000000000000000000000000000006064820152608401610c7c565b60ca5473ffffffffffffffffffffffffffffffffffffffff908116908316036125c55760cd546125bb9073ffffffffffffffffffffffffffffffffffffffff168430846129b0565b6125c58382612a0e565b60cb5473ffffffffffffffffffffffffffffffffffffffff90811690831603611c0e5760cb5460cd546126149173ffffffffffffffffffffffffffffffffffffffff91821691869116846129b0565b611c0e8382612a0e565b60cb5473ffffffffffffffffffffffffffffffffffffffff9081169083160361264b5761264b8282612b17565b60ca5473ffffffffffffffffffffffffffffffffffffffff90811690841603611c0e576126788282612b17565b60cd546000906126a69074010000000000000000000000000000000000000000900463ffffffff16426134fd565b905042816fffffffffffffffffffffffffffffffff1611156127965773ffffffffffffffffffffffffffffffffffffffff8316600090815260ce602090815260409182902082518084019093526fffffffffffffffffffffffffffffffff8516835260cd549092839283929082019061273d9074010000000000000000000000000000000000000000900463ffffffff16426134fd565b6fffffffffffffffffffffffffffffffff9081169091528254600181018455600093845260209384902083519490930151821670010000000000000000000000000000000002939091169290921791015550611db79050565b611db78383610b7160cd5473ffffffffffffffffffffffffffffffffffffffff1690565b73ffffffffffffffffffffffffffffffffffffffff81163b61285e576040517f08c379a000000000000000000000000000000000000000000000000000000000815260206004820152602d60248201527f455243313936373a206e657720696d706c656d656e746174696f6e206973206e60448201527f6f74206120636f6e7472616374000000000000000000000000000000000000006064820152608401610c7c565b7f360894a13ba1a3210667c828492db98dca3e2076cc3735a920a3ca505d382bbc80547fffffffffffffffffffffffff00000000000000000000000000000000000000001673ffffffffffffffffffffffffffffffffffffffff92909216919091179055565b6128cd83612cf0565b6000825111806128da5750805b15611c0e57611db78383612d3d565b600054610100900460ff16612980576040517f08c379a000000000000000000000000000000000000000000000000000000000815260206004820152602b60248201527f496e697469616c697a61626c653a20636f6e7472616374206973206e6f74206960448201527f6e697469616c697a696e670000000000000000000000000000000000000000006064820152608401610c7c565b609a61298c83826136d8565b50609b611c0e82826136d8565b60606129a88484600085612e7c565b949350505050565b60405173ffffffffffffffffffffffffffffffffffffffff80851660248301528316604482015260648101829052611db79085907f23b872dd0000000000000000000000000000000000000000000000000000000090608401611b8c565b73ffffffffffffffffffffffffffffffffffffffff8216612a8b576040517f08c379a000000000000000000000000000000000000000000000000000000000815260206004820152601f60248201527f45524332303a206d696e7420746f20746865207a65726f2061646472657373006044820152606401610c7c565b612a9760008383612573565b8060996000828254612aa991906134fd565b909155505073ffffffffffffffffffffffffffffffffffffffff82166000818152609760209081526040808320805486019055518481527fddf252ad1be2c89b69c2b068fc378daa952ba7f163c4a11628f55a4df523b3ef910160405180910390a361100e6000838361261e565b73ffffffffffffffffffffffffffffffffffffffff8216612bba576040517f08c379a000000000000000000000000000000000000000000000000000000000815260206004820152602160248201527f45524332303a206275726e2066726f6d20746865207a65726f2061646472657360448201527f73000000000000000000000000000000000000000000000000000000000000006064820152608401610c7c565b612bc682600083612573565b73ffffffffffffffffffffffffffffffffffffffff821660009081526097602052604090205481811015612c7c576040517f08c379a000000000000000000000000000000000000000000000000000000000815260206004820152602260248201527f45524332303a206275726e20616d6f756e7420657863656564732062616c616e60448201527f63650000000000000000000000000000000000000000000000000000000000006064820152608401610c7c565b73ffffffffffffffffffffffffffffffffffffffff831660008181526097602090815260408083208686039055609980548790039055518581529192917fddf252ad1be2c89b69c2b068fc378daa952ba7f163c4a11628f55a4df523b3ef910160405180910390a3611c0e8360008461261e565b612cf9816127ba565b60405173ffffffffffffffffffffffffffffffffffffffff8216907fbc7cd75a20ee27fd9adebab32041f755214dbc6bffa90cc0225b39da2e5c2d3b90600090a250565b606073ffffffffffffffffffffffffffffffffffffffff83163b612de3576040517f08c379a000000000000000000000000000000000000000000000000000000000815260206004820152602660248201527f416464726573733a2064656c65676174652063616c6c20746f206e6f6e2d636f60448201527f6e747261637400000000000000000000000000000000000000000000000000006064820152608401610c7c565b6000808473ffffffffffffffffffffffffffffffffffffffff1684604051612e0b91906137f2565b600060405180830381855af49150503d8060008114612e46576040519150601f19603f3d011682016040523d82523d6000602084013e612e4b565b606091505b5091509150612e73828260405180606001604052806027815260200161380f60279139612f95565b95945050505050565b606082471015612f0e576040517f08c379a000000000000000000000000000000000000000000000000000000000815260206004820152602660248201527f416464726573733a20696e73756666696369656e742062616c616e636520666f60448201527f722063616c6c00000000000000000000000000000000000000000000000000006064820152608401610c7c565b6000808673ffffffffffffffffffffffffffffffffffffffff168587604051612f3791906137f2565b60006040518083038185875af1925050503d8060008114612f74576040519150601f19603f3d011682016040523d82523d6000602084013e612f79565b606091505b5091509150612f8a87838387612fae565b979650505050505050565b60608315612fa4575081610bb4565b610bb4838361304a565b6060831561304457825160000361303d5773ffffffffffffffffffffffffffffffffffffffff85163b61303d576040517f08c379a000000000000000000000000000000000000000000000000000000000815260206004820152601d60248201527f416464726573733a2063616c6c20746f206e6f6e2d636f6e74726163740000006044820152606401610c7c565b50816129a8565b6129a883835b81511561305a5781518083602001fd5b806040517f08c379a0000000000000000000000000000000000000000000000000000000008152600401610c7c91906130b2565b60005b838110156130a9578181015183820152602001613091565b50506000910152565b60208152600082518060208401526130d181604085016020870161308e565b601f017fffffffffffffffffffffffffffffffffffffffffffffffffffffffffffffffe0169190910160400192915050565b73ffffffffffffffffffffffffffffffffffffffff81168114610dc257600080fd5b6000806040838503121561313857600080fd5b823561314381613103565b946020939093013593505050565b803563ffffffff8116811461316557600080fd5b919050565b60006020828403121561317c57600080fd5b610bb482613151565b60008060006060848603121561319a57600080fd5b83356131a581613103565b925060208401356131b581613103565b929592945050506040919091013590565b6000602082840312156131d857600080fd5b8135610bb481613103565b7f4e487b7100000000000000000000000000000000000000000000000000000000600052604160045260246000fd5b604051601f82017fffffffffffffffffffffffffffffffffffffffffffffffffffffffffffffffe016810167ffffffffffffffff81118282101715613259576132596131e3565b604052919050565b600067ffffffffffffffff82111561327b5761327b6131e3565b50601f017fffffffffffffffffffffffffffffffffffffffffffffffffffffffffffffffe01660200190565b600080604083850312156132ba57600080fd5b82356132c581613103565b9150602083013567ffffffffffffffff8111156132e157600080fd5b8301601f810185136132f257600080fd5b803561330561330082613261565b613212565b81815286602083850101111561331a57600080fd5b816020840160208301376000602083830101528093505050509250929050565b60408082528351828201819052600091906020906060850190828801855b8281101561339357815180516fffffffffffffffffffffffffffffffff90811686529086015116858501529285019290840190600101613358565b5050508093505050508260208301529392505050565b600080600080608085870312156133bf57600080fd5b84356133ca81613103565b93506133d860208601613151565b925060408501356133e881613103565b915060608501356133f881613103565b939692955090935050565b6000806040838503121561341657600080fd5b823561342181613103565b9150602083013561343181613103565b809150509250929050565b600181811c9082168061345057607f821691505b602082108103613489577f4e487b7100000000000000000000000000000000000000000000000000000000600052602260045260246000fd5b50919050565b6000602082840312156134a157600080fd5b81518015158114610bb457600080fd5b6000602082840312156134c357600080fd5b8151610bb481613103565b7f4e487b7100000000000000000000000000000000000000000000000000000000600052601160045260246000fd5b80820180821115610750576107506134ce565b60006020828403121561352257600080fd5b815167ffffffffffffffff81111561353957600080fd5b8201601f8101841361354a57600080fd5b805161355861330082613261565b81815285602083850101111561356d57600080fd5b612e7382602083016020860161308e565b7f4d65726b6c20546f6b656e2057726170706572202d20000000000000000000008152600082516135b681601685016020870161308e565b9190910160160192915050565b7f6d747700000000000000000000000000000000000000000000000000000000008152600082516135fb81600385016020870161308e565b9190910160030192915050565b7f4e487b7100000000000000000000000000000000000000000000000000000000600052603260045260246000fd5b60007fffffffffffffffffffffffffffffffffffffffffffffffffffffffffffffffff8203613668576136686134ce565b5060010190565b60006020828403121561368157600080fd5b5051919050565b601f821115611c0e576000816000526020600020601f850160051c810160208610156136b15750805b601f850160051c820191505b818110156136d0578281556001016136bd565b505050505050565b815167ffffffffffffffff8111156136f2576136f26131e3565b61370681613700845461343c565b84613688565b602080601f83116001811461375957600084156137235750858301515b7fffffffffffffffffffffffffffffffffffffffffffffffffffffffffffffffff600386901b1c1916600185901b1785556136d0565b6000858152602081207fffffffffffffffffffffffffffffffffffffffffffffffffffffffffffffffe08616915b828110156137a657888601518255948401946001909101908401613787565b50858210156137e257878501517fffffffffffffffffffffffffffffffffffffffffffffffffffffffffffffffff600388901b60f8161c191681555b5050505050600190811b01905550565b6000825161380481846020870161308e565b919091019291505056fe416464726573733a206c6f772d6c6576656c2064656c65676174652063616c6c206661696c6564a2646970667358221220301f0f88af888b02f464dffc9f85d117abbf372567807194b398a6d88313751e64736f6c63430008180033",
  "devdoc": {
    "details": "This token can only be held by Merkl distributorTransferring to the distributor will require transferring the underlying token to this contractTransferring from the distributor will trigger a vesting actionTransferring token to the distributor is permissionless so anyone could mint this wrapper - the only impact would be to forfeit these tokens",
    "events": {
      "AdminChanged(address,address)": {
        "details": "Emitted when the admin account has changed."
      },
      "Approval(address,address,uint256)": {
        "details": "Emitted when the allowance of a `spender` for an `owner` is set by a call to {approve}. `value` is the new allowance."
      },
      "BeaconUpgraded(address)": {
        "details": "Emitted when the beacon is upgraded."
      },
      "Initialized(uint8)": {
        "details": "Triggered when the contract has been initialized or reinitialized."
      },
      "Transfer(address,address,uint256)": {
        "details": "Emitted when `value` tokens are moved from one account (`from`) to another (`to`). Note that `value` may be zero."
      },
      "Upgraded(address)": {
        "details": "Emitted when the implementation is upgraded."
      }
    },
    "kind": "dev",
    "methods": {
      "allowance(address,address)": {
        "details": "See {IERC20-allowance}."
      },
      "approve(address,uint256)": {
        "details": "See {IERC20-approve}. NOTE: If `amount` is the maximum `uint256`, the allowance is not updated on `transferFrom`. This is semantically equivalent to an infinite approval. Requirements: - `spender` cannot be the zero address."
      },
      "balanceOf(address)": {
        "details": "See {IERC20-balanceOf}."
      },
      "decimals()": {
        "details": "Returns the number of decimals used to get its user representation. For example, if `decimals` equals `2`, a balance of `505` tokens should be displayed to a user as `5.05` (`505 / 10 ** 2`). Tokens usually opt for a value of 18, imitating the relationship between Ether and Wei. This is the value {ERC20} uses, unless this function is overridden; NOTE: This information is only used for _display_ purposes: it in no way affects any of the arithmetic of the contract, including {IERC20-balanceOf} and {IERC20-transfer}."
      },
      "decreaseAllowance(address,uint256)": {
        "details": "Atomically decreases the allowance granted to `spender` by the caller. This is an alternative to {approve} that can be used as a mitigation for problems described in {IERC20-approve}. Emits an {Approval} event indicating the updated allowance. Requirements: - `spender` cannot be the zero address. - `spender` must have allowance for the caller of at least `subtractedValue`."
      },
      "increaseAllowance(address,uint256)": {
        "details": "Atomically increases the allowance granted to `spender` by the caller. This is an alternative to {approve} that can be used as a mitigation for problems described in {IERC20-approve}. Emits an {Approval} event indicating the updated allowance. Requirements: - `spender` cannot be the zero address."
      },
      "name()": {
        "details": "Returns the name of the token."
      },
      "proxiableUUID()": {
        "details": "Implementation of the ERC1822 {proxiableUUID} function. This returns the storage slot used by the implementation. It is used to validate the implementation's compatibility when performing an upgrade. IMPORTANT: A proxy pointing at a proxiable contract should not be considered proxiable itself, because this risks bricking a proxy that upgrades to it, by delegating to itself until out of gas. Thus it is critical that this function revert if invoked through a proxy. This is guaranteed by the `notDelegated` modifier."
      },
      "recoverERC20(address,address,uint256)": {
        "details": "Governance only, to trigger only if something went wrong"
      },
      "symbol()": {
        "details": "Returns the symbol of the token, usually a shorter version of the name."
      },
      "totalSupply()": {
        "details": "See {IERC20-totalSupply}."
      },
      "transfer(address,uint256)": {
        "details": "See {IERC20-transfer}. Requirements: - `to` cannot be the zero address. - the caller must have a balance of at least `amount`."
      },
      "transferFrom(address,address,uint256)": {
        "details": "See {IERC20-transferFrom}. Emits an {Approval} event indicating the updated allowance. This is not required by the EIP. See the note at the beginning of {ERC20}. NOTE: Does not update the allowance if the current allowance is the maximum `uint256`. Requirements: - `from` and `to` cannot be the zero address. - `from` must have a balance of at least `amount`. - the caller must have allowance for ``from``'s tokens of at least `amount`."
      },
      "upgradeTo(address)": {
        "details": "Upgrade the implementation of the proxy to `newImplementation`. Calls {_authorizeUpgrade}. Emits an {Upgraded} event."
      },
      "upgradeToAndCall(address,bytes)": {
        "details": "Upgrade the implementation of the proxy to `newImplementation`, and subsequently execute the function call encoded in `data`. Calls {_authorizeUpgrade}. Emits an {Upgraded} event."
      }
    },
    "title": "PufferPointTokenWrapper",
    "version": 1
  },
  "userdoc": {
    "kind": "user",
    "methods": {
      "cliffDuration()": {
        "notice": "Duration of the cliff before which tokens can be claimed"
      },
      "core()": {
        "notice": "`Core` contract handling access control"
      },
      "distributor()": {
        "notice": "Merkl main functions"
      },
      "recoverERC20(address,address,uint256)": {
        "notice": "Recovers any ERC20 token"
      },
      "underlying()": {
        "notice": "Underlying token used"
      },
      "vestingData(address)": {
        "notice": "Maps a user address to its vesting data"
      }
    },
    "version": 1
  },
  "storageLayout": {
    "storage": [
      {
        "astId": 395,
        "contract": "contracts/partners/tokenWrappers/PufferPointTokenWrapper.sol:PufferPointTokenWrapper",
        "label": "_initialized",
        "offset": 0,
        "slot": "0",
        "type": "t_uint8"
      },
      {
        "astId": 398,
        "contract": "contracts/partners/tokenWrappers/PufferPointTokenWrapper.sol:PufferPointTokenWrapper",
        "label": "_initializing",
        "offset": 1,
        "slot": "0",
        "type": "t_bool"
      },
      {
        "astId": 377,
        "contract": "contracts/partners/tokenWrappers/PufferPointTokenWrapper.sol:PufferPointTokenWrapper",
        "label": "__gap",
        "offset": 0,
        "slot": "1",
        "type": "t_array(t_uint256)50_storage"
      },
      {
        "astId": 692,
        "contract": "contracts/partners/tokenWrappers/PufferPointTokenWrapper.sol:PufferPointTokenWrapper",
        "label": "__gap",
        "offset": 0,
        "slot": "51",
        "type": "t_array(t_uint256)50_storage"
      },
      {
        "astId": 1733,
        "contract": "contracts/partners/tokenWrappers/PufferPointTokenWrapper.sol:PufferPointTokenWrapper",
        "label": "__gap",
        "offset": 0,
        "slot": "101",
        "type": "t_array(t_uint256)50_storage"
      },
      {
        "astId": 712,
        "contract": "contracts/partners/tokenWrappers/PufferPointTokenWrapper.sol:PufferPointTokenWrapper",
        "label": "_balances",
        "offset": 0,
        "slot": "151",
        "type": "t_mapping(t_address,t_uint256)"
      },
      {
        "astId": 718,
        "contract": "contracts/partners/tokenWrappers/PufferPointTokenWrapper.sol:PufferPointTokenWrapper",
        "label": "_allowances",
        "offset": 0,
        "slot": "152",
        "type": "t_mapping(t_address,t_mapping(t_address,t_uint256))"
      },
      {
        "astId": 720,
        "contract": "contracts/partners/tokenWrappers/PufferPointTokenWrapper.sol:PufferPointTokenWrapper",
        "label": "_totalSupply",
        "offset": 0,
        "slot": "153",
        "type": "t_uint256"
      },
      {
        "astId": 722,
        "contract": "contracts/partners/tokenWrappers/PufferPointTokenWrapper.sol:PufferPointTokenWrapper",
        "label": "_name",
        "offset": 0,
        "slot": "154",
        "type": "t_string_storage"
      },
      {
        "astId": 724,
        "contract": "contracts/partners/tokenWrappers/PufferPointTokenWrapper.sol:PufferPointTokenWrapper",
        "label": "_symbol",
        "offset": 0,
        "slot": "155",
        "type": "t_string_storage"
      },
      {
        "astId": 1304,
        "contract": "contracts/partners/tokenWrappers/PufferPointTokenWrapper.sol:PufferPointTokenWrapper",
        "label": "__gap",
        "offset": 0,
        "slot": "156",
        "type": "t_array(t_uint256)45_storage"
      },
      {
        "astId": 2794,
        "contract": "contracts/partners/tokenWrappers/PufferPointTokenWrapper.sol:PufferPointTokenWrapper",
        "label": "core",
        "offset": 0,
        "slot": "201",
        "type": "t_contract(IAccessControlManager)2564"
      },
      {
        "astId": 2797,
        "contract": "contracts/partners/tokenWrappers/PufferPointTokenWrapper.sol:PufferPointTokenWrapper",
        "label": "distributor",
        "offset": 0,
        "slot": "202",
        "type": "t_address"
      },
      {
        "astId": 2799,
        "contract": "contracts/partners/tokenWrappers/PufferPointTokenWrapper.sol:PufferPointTokenWrapper",
        "label": "feeRecipient",
        "offset": 0,
        "slot": "203",
        "type": "t_address"
      },
      {
        "astId": 2801,
        "contract": "contracts/partners/tokenWrappers/PufferPointTokenWrapper.sol:PufferPointTokenWrapper",
        "label": "distributionCreator",
        "offset": 0,
        "slot": "204",
        "type": "t_address"
      },
      {
        "astId": 2804,
        "contract": "contracts/partners/tokenWrappers/PufferPointTokenWrapper.sol:PufferPointTokenWrapper",
        "label": "underlying",
        "offset": 0,
        "slot": "205",
        "type": "t_address"
      },
      {
        "astId": 2807,
        "contract": "contracts/partners/tokenWrappers/PufferPointTokenWrapper.sol:PufferPointTokenWrapper",
        "label": "cliffDuration",
        "offset": 20,
        "slot": "205",
        "type": "t_uint32"
      },
      {
        "astId": 2813,
        "contract": "contracts/partners/tokenWrappers/PufferPointTokenWrapper.sol:PufferPointTokenWrapper",
        "label": "vestingData",
        "offset": 0,
        "slot": "206",
        "type": "t_mapping(t_address,t_struct(VestingData)2770_storage)"
      }
    ],
    "types": {
      "t_address": {
        "encoding": "inplace",
        "label": "address",
        "numberOfBytes": "20"
      },
      "t_array(t_struct(VestingID)2763_storage)dyn_storage": {
        "base": "t_struct(VestingID)2763_storage",
        "encoding": "dynamic_array",
        "label": "struct VestingID[]",
        "numberOfBytes": "32"
      },
      "t_array(t_uint256)45_storage": {
        "base": "t_uint256",
        "encoding": "inplace",
        "label": "uint256[45]",
        "numberOfBytes": "1440"
      },
      "t_array(t_uint256)50_storage": {
        "base": "t_uint256",
        "encoding": "inplace",
        "label": "uint256[50]",
        "numberOfBytes": "1600"
      },
      "t_bool": {
        "encoding": "inplace",
        "label": "bool",
        "numberOfBytes": "1"
      },
      "t_contract(IAccessControlManager)2564": {
        "encoding": "inplace",
        "label": "contract IAccessControlManager",
        "numberOfBytes": "20"
      },
      "t_mapping(t_address,t_mapping(t_address,t_uint256))": {
        "encoding": "mapping",
        "key": "t_address",
        "label": "mapping(address => mapping(address => uint256))",
        "numberOfBytes": "32",
        "value": "t_mapping(t_address,t_uint256)"
      },
      "t_mapping(t_address,t_struct(VestingData)2770_storage)": {
        "encoding": "mapping",
        "key": "t_address",
        "label": "mapping(address => struct VestingData)",
        "numberOfBytes": "32",
        "value": "t_struct(VestingData)2770_storage"
      },
      "t_mapping(t_address,t_uint256)": {
        "encoding": "mapping",
        "key": "t_address",
        "label": "mapping(address => uint256)",
        "numberOfBytes": "32",
        "value": "t_uint256"
      },
      "t_string_storage": {
        "encoding": "bytes",
        "label": "string",
        "numberOfBytes": "32"
      },
      "t_struct(VestingData)2770_storage": {
        "encoding": "inplace",
        "label": "struct VestingData",
        "members": [
          {
            "astId": 2767,
            "contract": "contracts/partners/tokenWrappers/PufferPointTokenWrapper.sol:PufferPointTokenWrapper",
            "label": "allVestings",
            "offset": 0,
            "slot": "0",
            "type": "t_array(t_struct(VestingID)2763_storage)dyn_storage"
          },
          {
            "astId": 2769,
            "contract": "contracts/partners/tokenWrappers/PufferPointTokenWrapper.sol:PufferPointTokenWrapper",
            "label": "nextClaimIndex",
            "offset": 0,
            "slot": "1",
            "type": "t_uint256"
          }
        ],
        "numberOfBytes": "64"
      },
      "t_struct(VestingID)2763_storage": {
        "encoding": "inplace",
        "label": "struct VestingID",
        "members": [
          {
            "astId": 2760,
            "contract": "contracts/partners/tokenWrappers/PufferPointTokenWrapper.sol:PufferPointTokenWrapper",
            "label": "amount",
            "offset": 0,
            "slot": "0",
            "type": "t_uint128"
          },
          {
            "astId": 2762,
            "contract": "contracts/partners/tokenWrappers/PufferPointTokenWrapper.sol:PufferPointTokenWrapper",
            "label": "unlockTimestamp",
            "offset": 16,
            "slot": "0",
            "type": "t_uint128"
          }
        ],
        "numberOfBytes": "32"
      },
      "t_uint128": {
        "encoding": "inplace",
        "label": "uint128",
        "numberOfBytes": "16"
      },
      "t_uint256": {
        "encoding": "inplace",
        "label": "uint256",
        "numberOfBytes": "32"
      },
      "t_uint32": {
        "encoding": "inplace",
        "label": "uint32",
        "numberOfBytes": "4"
      },
      "t_uint8": {
        "encoding": "inplace",
        "label": "uint8",
        "numberOfBytes": "1"
      }
    }
  }
}