{
  "address": "0x918261fa5Dd9C3b1358cA911792E9bDF3c5CCa35",
  "abi": [
    {
      "inputs": [],
      "stateMutability": "nonpayable",
      "type": "constructor"
    },
    {
      "inputs": [],
      "name": "InvalidDispute",
      "type": "error"
    },
    {
      "inputs": [],
      "name": "InvalidLengths",
      "type": "error"
    },
    {
      "inputs": [],
      "name": "InvalidParam",
      "type": "error"
    },
    {
      "inputs": [],
      "name": "InvalidProof",
      "type": "error"
    },
    {
      "inputs": [],
      "name": "InvalidUninitializedRoot",
      "type": "error"
    },
    {
      "inputs": [],
      "name": "NoDispute",
      "type": "error"
    },
    {
      "inputs": [],
      "name": "NotGovernorOrGuardian",
      "type": "error"
    },
    {
      "inputs": [],
      "name": "NotTrusted",
      "type": "error"
    },
    {
      "inputs": [],
      "name": "NotWhitelisted",
      "type": "error"
    },
    {
      "inputs": [],
      "name": "UnresolvedDispute",
      "type": "error"
    },
    {
      "inputs": [],
      "name": "ZeroAddress",
      "type": "error"
    },
    {
      "anonymous": false,
      "inputs": [
        {
          "indexed": false,
          "internalType": "address",
          "name": "previousAdmin",
          "type": "address"
        },
        {
          "indexed": false,
          "internalType": "address",
          "name": "newAdmin",
          "type": "address"
        }
      ],
      "name": "AdminChanged",
      "type": "event"
    },
    {
      "anonymous": false,
      "inputs": [
        {
          "indexed": true,
          "internalType": "address",
          "name": "beacon",
          "type": "address"
        }
      ],
      "name": "BeaconUpgraded",
      "type": "event"
    },
    {
      "anonymous": false,
      "inputs": [
        {
          "indexed": false,
          "internalType": "address",
          "name": "user",
          "type": "address"
        },
        {
          "indexed": false,
          "internalType": "address",
          "name": "token",
          "type": "address"
        },
        {
          "indexed": false,
          "internalType": "uint256",
          "name": "amount",
          "type": "uint256"
        }
      ],
      "name": "Claimed",
      "type": "event"
    },
    {
      "anonymous": false,
      "inputs": [
        {
          "indexed": false,
          "internalType": "uint256",
          "name": "_disputeAmount",
          "type": "uint256"
        }
      ],
      "name": "DisputeAmountUpdated",
      "type": "event"
    },
    {
      "anonymous": false,
      "inputs": [
        {
          "indexed": false,
          "internalType": "uint48",
          "name": "_disputePeriod",
          "type": "uint48"
        }
      ],
      "name": "DisputePeriodUpdated",
      "type": "event"
    },
    {
      "anonymous": false,
      "inputs": [
        {
          "indexed": false,
          "internalType": "bool",
          "name": "valid",
          "type": "bool"
        }
      ],
      "name": "DisputeResolved",
      "type": "event"
    },
    {
      "anonymous": false,
      "inputs": [
        {
          "indexed": true,
          "internalType": "address",
          "name": "_disputeToken",
          "type": "address"
        }
      ],
      "name": "DisputeTokenUpdated",
      "type": "event"
    },
    {
      "anonymous": false,
      "inputs": [
        {
          "indexed": false,
          "internalType": "string",
          "name": "reason",
          "type": "string"
        }
      ],
      "name": "Disputed",
      "type": "event"
    },
    {
      "anonymous": false,
      "inputs": [
        {
          "indexed": false,
          "internalType": "uint8",
          "name": "version",
          "type": "uint8"
        }
      ],
      "name": "Initialized",
      "type": "event"
    },
    {
      "anonymous": false,
      "inputs": [
        {
          "indexed": false,
          "internalType": "address",
          "name": "user",
          "type": "address"
        },
        {
          "indexed": false,
          "internalType": "bool",
          "name": "isEnabled",
          "type": "bool"
        }
      ],
      "name": "OperatorClaimingToggled",
      "type": "event"
    },
    {
      "anonymous": false,
      "inputs": [
        {
          "indexed": false,
          "internalType": "address",
          "name": "user",
          "type": "address"
        },
        {
          "indexed": false,
          "internalType": "address",
          "name": "operator",
          "type": "address"
        },
        {
          "indexed": false,
          "internalType": "bool",
          "name": "isWhitelisted",
          "type": "bool"
        }
      ],
      "name": "OperatorToggled",
      "type": "event"
    },
    {
      "anonymous": false,
      "inputs": [
        {
          "indexed": true,
          "internalType": "address",
          "name": "token",
          "type": "address"
        },
        {
          "indexed": true,
          "internalType": "address",
          "name": "to",
          "type": "address"
        },
        {
          "indexed": false,
          "internalType": "uint256",
          "name": "amount",
          "type": "uint256"
        }
      ],
      "name": "Recovered",
      "type": "event"
    },
    {
      "anonymous": false,
      "inputs": [
        {
          "indexed": false,
          "internalType": "bytes32",
          "name": "merkleRoot",
          "type": "bytes32"
        },
        {
          "indexed": false,
          "internalType": "bytes32",
          "name": "ipfsHash",
          "type": "bytes32"
        }
      ],
      "name": "TreeUpdated",
      "type": "event"
    },
    {
      "anonymous": false,
      "inputs": [
        {
          "indexed": true,
          "internalType": "address",
          "name": "eoa",
          "type": "address"
        },
        {
          "indexed": false,
          "internalType": "bool",
          "name": "trust",
          "type": "bool"
        }
      ],
      "name": "TrustedToggled",
      "type": "event"
    },
    {
      "anonymous": false,
      "inputs": [
        {
          "indexed": true,
          "internalType": "address",
          "name": "implementation",
          "type": "address"
        }
      ],
      "name": "Upgraded",
      "type": "event"
    },
    {
      "inputs": [
        {
          "internalType": "address",
          "name": "",
          "type": "address"
        }
      ],
      "name": "canUpdateMerkleRoot",
      "outputs": [
        {
          "internalType": "uint256",
          "name": "",
          "type": "uint256"
        }
      ],
      "stateMutability": "view",
      "type": "function"
    },
    {
      "inputs": [
        {
          "internalType": "address[]",
          "name": "users",
          "type": "address[]"
        },
        {
          "internalType": "address[]",
          "name": "tokens",
          "type": "address[]"
        },
        {
          "internalType": "uint256[]",
          "name": "amounts",
          "type": "uint256[]"
        },
        {
          "internalType": "bytes32[][]",
          "name": "proofs",
          "type": "bytes32[][]"
        }
      ],
      "name": "claim",
      "outputs": [],
      "stateMutability": "nonpayable",
      "type": "function"
    },
    {
      "inputs": [
        {
          "internalType": "address",
          "name": "",
          "type": "address"
        },
        {
          "internalType": "address",
          "name": "",
          "type": "address"
        }
      ],
      "name": "claimed",
      "outputs": [
        {
          "internalType": "uint208",
          "name": "amount",
          "type": "uint208"
        },
        {
          "internalType": "uint48",
          "name": "timestamp",
          "type": "uint48"
        }
      ],
      "stateMutability": "view",
      "type": "function"
    },
    {
      "inputs": [],
      "name": "core",
      "outputs": [
        {
          "internalType": "contract ICore",
          "name": "",
          "type": "address"
        }
      ],
      "stateMutability": "view",
      "type": "function"
    },
    {
      "inputs": [],
      "name": "disputeAmount",
      "outputs": [
        {
          "internalType": "uint256",
          "name": "",
          "type": "uint256"
        }
      ],
      "stateMutability": "view",
      "type": "function"
    },
    {
      "inputs": [],
      "name": "disputePeriod",
      "outputs": [
        {
          "internalType": "uint48",
          "name": "",
          "type": "uint48"
        }
      ],
      "stateMutability": "view",
      "type": "function"
    },
    {
      "inputs": [],
      "name": "disputeToken",
      "outputs": [
        {
          "internalType": "contract IERC20",
          "name": "",
          "type": "address"
        }
      ],
      "stateMutability": "view",
      "type": "function"
    },
    {
      "inputs": [
        {
          "internalType": "string",
          "name": "reason",
          "type": "string"
        }
      ],
      "name": "disputeTree",
      "outputs": [],
      "stateMutability": "nonpayable",
      "type": "function"
    },
    {
      "inputs": [],
      "name": "disputer",
      "outputs": [
        {
          "internalType": "address",
          "name": "",
          "type": "address"
        }
      ],
      "stateMutability": "view",
      "type": "function"
    },
    {
      "inputs": [],
      "name": "getMerkleRoot",
      "outputs": [
        {
          "internalType": "bytes32",
          "name": "",
          "type": "bytes32"
        }
      ],
      "stateMutability": "view",
      "type": "function"
    },
    {
      "inputs": [
        {
          "internalType": "contract ICore",
          "name": "_core",
          "type": "address"
        }
      ],
      "name": "initialize",
      "outputs": [],
      "stateMutability": "nonpayable",
      "type": "function"
    },
    {
      "inputs": [],
      "name": "lastTree",
      "outputs": [
        {
          "internalType": "bytes32",
          "name": "merkleRoot",
          "type": "bytes32"
        },
        {
          "internalType": "bytes32",
          "name": "ipfsHash",
          "type": "bytes32"
        }
      ],
      "stateMutability": "view",
      "type": "function"
    },
    {
      "inputs": [],
      "name": "lastTreeUpdate",
      "outputs": [
        {
          "internalType": "uint48",
          "name": "",
          "type": "uint48"
        }
      ],
      "stateMutability": "view",
      "type": "function"
    },
    {
      "inputs": [
        {
          "internalType": "address",
          "name": "",
          "type": "address"
        }
      ],
      "name": "onlyOperatorCanClaim",
      "outputs": [
        {
          "internalType": "uint256",
          "name": "",
          "type": "uint256"
        }
      ],
      "stateMutability": "view",
      "type": "function"
    },
    {
      "inputs": [
        {
          "internalType": "address",
          "name": "",
          "type": "address"
        },
        {
          "internalType": "address",
          "name": "",
          "type": "address"
        }
      ],
      "name": "operators",
      "outputs": [
        {
          "internalType": "uint256",
          "name": "",
          "type": "uint256"
        }
      ],
      "stateMutability": "view",
      "type": "function"
    },
    {
      "inputs": [],
      "name": "proxiableUUID",
      "outputs": [
        {
          "internalType": "bytes32",
          "name": "",
          "type": "bytes32"
        }
      ],
      "stateMutability": "view",
      "type": "function"
    },
    {
      "inputs": [
        {
          "internalType": "address",
          "name": "tokenAddress",
          "type": "address"
        },
        {
          "internalType": "address",
          "name": "to",
          "type": "address"
        },
        {
          "internalType": "uint256",
          "name": "amountToRecover",
          "type": "uint256"
        }
      ],
      "name": "recoverERC20",
      "outputs": [],
      "stateMutability": "nonpayable",
      "type": "function"
    },
    {
      "inputs": [
        {
          "internalType": "bool",
          "name": "valid",
          "type": "bool"
        }
      ],
      "name": "resolveDispute",
      "outputs": [],
      "stateMutability": "nonpayable",
      "type": "function"
    },
    {
      "inputs": [],
      "name": "revokeTree",
      "outputs": [],
      "stateMutability": "nonpayable",
      "type": "function"
    },
    {
      "inputs": [
        {
          "internalType": "uint256",
          "name": "_disputeAmount",
          "type": "uint256"
        }
      ],
      "name": "setDisputeAmount",
      "outputs": [],
      "stateMutability": "nonpayable",
      "type": "function"
    },
    {
      "inputs": [
        {
          "internalType": "uint48",
          "name": "_disputePeriod",
          "type": "uint48"
        }
      ],
      "name": "setDisputePeriod",
      "outputs": [],
      "stateMutability": "nonpayable",
      "type": "function"
    },
    {
      "inputs": [
        {
          "internalType": "contract IERC20",
          "name": "_disputeToken",
          "type": "address"
        }
      ],
      "name": "setDisputeToken",
      "outputs": [],
      "stateMutability": "nonpayable",
      "type": "function"
    },
    {
      "inputs": [
        {
          "internalType": "address",
          "name": "user",
          "type": "address"
        }
      ],
      "name": "toggleOnlyOperatorCanClaim",
      "outputs": [],
      "stateMutability": "nonpayable",
      "type": "function"
    },
    {
      "inputs": [
        {
          "internalType": "address",
          "name": "user",
          "type": "address"
        },
        {
          "internalType": "address",
          "name": "operator",
          "type": "address"
        }
      ],
      "name": "toggleOperator",
      "outputs": [],
      "stateMutability": "nonpayable",
      "type": "function"
    },
    {
      "inputs": [
        {
          "internalType": "address",
          "name": "eoa",
          "type": "address"
        }
      ],
      "name": "toggleTrusted",
      "outputs": [],
      "stateMutability": "nonpayable",
      "type": "function"
    },
    {
      "inputs": [],
      "name": "tree",
      "outputs": [
        {
          "internalType": "bytes32",
          "name": "merkleRoot",
          "type": "bytes32"
        },
        {
          "internalType": "bytes32",
          "name": "ipfsHash",
          "type": "bytes32"
        }
      ],
      "stateMutability": "view",
      "type": "function"
    },
    {
      "inputs": [
        {
          "components": [
            {
              "internalType": "bytes32",
              "name": "merkleRoot",
              "type": "bytes32"
            },
            {
              "internalType": "bytes32",
              "name": "ipfsHash",
              "type": "bytes32"
            }
          ],
          "internalType": "struct MerkleTree",
          "name": "_tree",
          "type": "tuple"
        }
      ],
      "name": "updateTree",
      "outputs": [],
      "stateMutability": "nonpayable",
      "type": "function"
    },
    {
      "inputs": [
        {
          "internalType": "address",
          "name": "newImplementation",
          "type": "address"
        }
      ],
      "name": "upgradeTo",
      "outputs": [],
      "stateMutability": "nonpayable",
      "type": "function"
    },
    {
      "inputs": [
        {
          "internalType": "address",
          "name": "newImplementation",
          "type": "address"
        },
        {
          "internalType": "bytes",
          "name": "data",
          "type": "bytes"
        }
      ],
      "name": "upgradeToAndCall",
      "outputs": [],
      "stateMutability": "payable",
      "type": "function"
    }
  ],
  "transactionHash": "0xa09c4fc6d78248e8aa3efd96473ee53c9cba73f483a4c4c4107928ff6c0afed2",
  "args": [],
  "numDeployments": 1,
  "solcInputHash": "882cb4e953bf152c494cb8ed697ed076",
  "bytecode": "0x60a060405234620000495730608052620000186200004e565b620000226200004e565b604051612ebf90816200015a8239608051818181611583015281816116d40152611cba0152f35b600080fd5b60005460ff8160081c1615908180926200014b575b801562000132575b15620000d65760ff19811660011760005581620000c3575b506200008b57565b61ff0019600054166000557f7f26b83ff96e1f2b6a682f133852f6798a09c465da95921460cefb3847402498602060405160018152a1565b61ffff1916610101176000553862000083565b60405162461bcd60e51b815260206004820152602e60248201527f496e697469616c697a61626c653a20636f6e747261637420697320616c72656160448201526d191e481a5b9a5d1a585b1a5e995960921b6064820152608490fd5b50303b1580156200006b5750600160ff8216146200006b565b50600160ff8216106200006356fe608080604052600436101561001357600080fd5b60003560e01c90816309454ba3146126cb575080630c9cbf0e1461262b5780630d10fca31461253d5780631171bda91461243857806314769142146123d35780632637588e1461235657806328827838146122075780632a25dd41146120875780633659cfe614611c6a5780634641fdef14611afc5780634959065714611abb5780634f1ef2861461165757806352d1902d1461153d5780635bf31d4d146114fe5780635e549a0e146114b7578063623b9e9d1461139f5780636ac561031461134d57806371ee95c014610cc25780637ee8434914610baf57806389e1e82a146109e357806395788835146108cb578063bdac7ca314610726578063c4d66de8146104fa578063c748d261146104a8578063cce80e7a14610465578063d9c980871461025d578063e57480e5146101f8578063f2f4eb26146101a65763fd54b2281461015e57600080fd5b346101a15760007ffffffffffffffffffffffffffffffffffffffffffffffffffffffffffffffffc3601126101a157604060655460665482519182526020820152f35b600080fd5b346101a15760007ffffffffffffffffffffffffffffffffffffffffffffffffffffffffffffffffc3601126101a157602073ffffffffffffffffffffffffffffffffffffffff606a5416604051908152f35b346101a15760207ffffffffffffffffffffffffffffffffffffffffffffffffffffffffffffffffc3601126101a15773ffffffffffffffffffffffffffffffffffffffff610244612704565b16600052606e6020526020604060002054604051908152f35b346101a15760407ffffffffffffffffffffffffffffffffffffffffffffffffffffffffffffffffc3601126101a157606b5473ffffffffffffffffffffffffffffffffffffffff808216159081159161038b575b5061036157604060207f39f3c4d5c2bbcbf0e3945f22aa618f4e654952eaafcdaa119f0ef12dfce4f2f3928251906102e88261274a565b606554918281526066549384910152600435928360655560243592836066556067556068557fffffffffffff000000000000ffffffffffffffffffffffffffffffffffffffff79ffffffffffff00000000000000000000000000000000000000004260a01b16911617606b5582519182526020820152a1005b60046040517fc22a648e000000000000000000000000000000000000000000000000000000008152fd5b905033600052606e60205260016040600020541490811591610443575b816103b5575b50826102b1565b60249150602090606a5416604051928380927f521d4de90000000000000000000000000000000000000000000000000000000082523360048301525afa90811561043757600091610409575b5015826103ae565b61042a915060203d8111610430575b6104228183612782565b810190612b66565b82610401565b503d610418565b6040513d6000823e3d90fd5b905061045a65ffffffffffff8360a01c1642612baf565b8260d01c11906103a8565b346101a15760007ffffffffffffffffffffffffffffffffffffffffffffffffffffffffffffffffc3601126101a157604060675460685482519182526020820152f35b346101a15760007ffffffffffffffffffffffffffffffffffffffffffffffffffffffffffffffffc3601126101a157602073ffffffffffffffffffffffffffffffffffffffff60695416604051908152f35b346101a15760207ffffffffffffffffffffffffffffffffffffffffffffffffffffffffffffffffc3601126101a15760043573ffffffffffffffffffffffffffffffffffffffff81168091036101a1576000549060ff8260081c161591828093610719575b8015610702575b1561067e578260017fffffffffffffffffffffffffffffffffffffffffffffffffffffffffffffff0083161760005561064f575b508015610625577fffffffffffffffffffffffff0000000000000000000000000000000000000000606a541617606a556105d057005b7fffffffffffffffffffffffffffffffffffffffffffffffffffffffffffff00ff600054166000557f7f26b83ff96e1f2b6a682f133852f6798a09c465da95921460cefb3847402498602060405160018152a1005b60046040517fd92e233d000000000000000000000000000000000000000000000000000000008152fd5b7fffffffffffffffffffffffffffffffffffffffffffffffffffffffffffff000016610101176000558261059a565b60846040517f08c379a000000000000000000000000000000000000000000000000000000000815260206004820152602e60248201527f496e697469616c697a61626c653a20636f6e747261637420697320616c72656160448201527f647920696e697469616c697a65640000000000000000000000000000000000006064820152fd5b50303b1580156105665750600160ff821614610566565b50600160ff82161061055f565b346101a15760407ffffffffffffffffffffffffffffffffffffffffffffffffffffffffffffffffc3601126101a15761075d612704565b610765612727565b9073ffffffffffffffffffffffffffffffffffffffff8091169033821415806108b2575b80610842575b6103615781600052607060205260406000209216918260005260205260406000205490816001039160018311610813577f42343f44c66ea1eaffa334760d3da2cb731d2a0b3b3e30423df997faa36cc95c936060938360005260706020526040600020826000526020526040600020556040519283526020830152156040820152a1005b7f4e487b7100000000000000000000000000000000000000000000000000000000600052601160045260246000fd5b506024602082606a5416604051928380927f521d4de90000000000000000000000000000000000000000000000000000000082523360048301525afa90811561043757600091610894575b501561078f565b6108ac915060203d8111610430576104228183612782565b8461088d565b5033600052606e60205260016040600020541415610789565b346101a15760007ffffffffffffffffffffffffffffffffffffffffffffffffffffffffffffffffc3601126101a15773ffffffffffffffffffffffffffffffffffffffff6024602082606a5416604051928380927f521d4de90000000000000000000000000000000000000000000000000000000082523360048301525afa908115610437576000916109c5575b501561099b57606b54166109715761096f612df9565b005b60046040517f05832574000000000000000000000000000000000000000000000000000000008152fd5b60046040517f99e120bc000000000000000000000000000000000000000000000000000000008152fd5b6109dd915060203d8111610430576104228183612782565b82610959565b346101a15760207ffffffffffffffffffffffffffffffffffffffffffffffffffffffffffffffffc3601126101a157600435801515908181036101a15773ffffffffffffffffffffffffffffffffffffffff916024602084606a5416604051928380927f521d4de90000000000000000000000000000000000000000000000000000000082523360048301525afa90811561043757600091610b91575b501561099b57606b8381541615610b67577f8015c5005d9ad5d85ca80d3f894f08e0159277704c54166e5cff108800fa80cd9360209315610b085780610ad1916069541690835416606c5491612bbc565b610ad9612df9565b7fffffffffffffffffffffffff00000000000000000000000000000000000000008154169055604051908152a1005b610b1b9060695416606c54903390612bbc565b80547fffffffffffff000000000000ffffffffffffffffffffffffffffffffffffffff164260a01b79ffffffffffff000000000000000000000000000000000000000016178155610ad9565b60046040517f93754748000000000000000000000000000000000000000000000000000000008152fd5b610ba9915060203d8111610430576104228183612782565b84610a80565b346101a1576020807ffffffffffffffffffffffffffffffffffffffffffffffffffffffffffffffffc3601126101a157610be7612704565b73ffffffffffffffffffffffffffffffffffffffff9060248383606a5416604051928380927f521d4de90000000000000000000000000000000000000000000000000000000082523360048301525afa90811561043757600091610ca5575b501561099b57169081600052606e81526040600020546001039060018211610813577f7628ea5f6112a16b36a8239aa208395a8e8f221688cfb3a5461faffb9700abcd9183600052606e825280604060002055600160405191148152a2005b610cbc9150843d8611610430576104228183612782565b84610c46565b346101a15760807ffffffffffffffffffffffffffffffffffffffffffffffffffffffffffffffffc3601126101a15760043567ffffffffffffffff81116101a157610d11903690600401612834565b60243567ffffffffffffffff81116101a157610d31903690600401612834565b91604490813567ffffffffffffffff81116101a157610d54903690600401612834565b909560643567ffffffffffffffff81116101a157610d76903690600401612834565b93909281158015611343575b8015611339575b801561132f575b6113055760005b828110610da057005b8988610dd08385610dca610dbf8f8490610dc4610dbf838f8f90612b7e565b612b8e565b97612b7e565b94612b7e565b3573ffffffffffffffffffffffffffffffffffffffff8216600052606f602052600160406000205414806112e7575b6112bd576040805173ffffffffffffffffffffffffffffffffffffffff848116602083019081529086169282019290925260608082018490528152610e45608082612782565b5190208985101561128e577fffffffffffffffffffffffffffffffffffffffffffffffffffffffffffffffe1893603018560051b8a013512156101a15767ffffffffffffffff8560051b8a01358a0135116101a157600585811b8a01358a01803590911b36036020909101136101a15760405190610ed260208760051b8c01358c013560051b0183612782565b600586811b8b01358b0180358085526020808601933692901b909201909101116101a15760208760051b8c01358c0101905b600588811b8d01358d01803590911b01602001821061127e575050908051906000915b8083106111ff57505050610f39612dca565b9081156111d557036111ab5773ffffffffffffffffffffffffffffffffffffffff8216600052606d602052604060002073ffffffffffffffffffffffffffffffffffffffff8416600052602052610fb179ffffffffffffffffffffffffffffffffffffffffffffffffffff6040600020541682612baf565b9079ffffffffffffffffffffffffffffffffffffffffffffffffffff8111611127579161111e60019594927ff7a40077ff7a04c7e61f6f26fb13774259ddf1b6bce9ecf26a8276cdd39926839479ffffffffffffffffffffffffffffffffffffffffffffffffffff604051916110268361274a565b1681526020810165ffffffffffff4216815273ffffffffffffffffffffffffffffffffffffffff8516600052606d602052604060002073ffffffffffffffffffffffffffffffffffffffff87166000526020527fffffffffffff000000000000000000000000000000000000000000000000000079ffffffffffffffffffffffffffffffffffffffffffffffffffff6040600020935116915160d01b161790556110e7818473ffffffffffffffffffffffffffffffffffffffff8716612bbc565b6040519384938460409194939294606082019573ffffffffffffffffffffffffffffffffffffffff80921683521660208201520152565b0390a101610d97565b60848b7f53616665436173743a2076616c756520646f65736e27742066697420696e2032604051917f08c379a000000000000000000000000000000000000000000000000000000000835260206004840152602760248401528201527f30382062697473000000000000000000000000000000000000000000000000006064820152fd5b60046040517f09bde339000000000000000000000000000000000000000000000000000000008152fd5b60046040517f094ad658000000000000000000000000000000000000000000000000000000008152fd5b90919260019061120f8585612e75565b5181101561124c576112218585612e75565b51604051906020820192835260408201526040815261123f81612766565b519020935b019190610f27565b6112568585612e75565b5190604051906020820192835260408201526040815261127581612766565b51902093611244565b8135815260209182019101610f04565b7f4e487b7100000000000000000000000000000000000000000000000000000000600052603260045260246000fd5b60046040517f584a7938000000000000000000000000000000000000000000000000000000008152fd5b50607060205260406000203360005260205260406000205415610dff565b60046040517f1df89e8b000000000000000000000000000000000000000000000000000000008152fd5b5084821415610d90565b5080821415610d89565b5087821415610d82565b346101a15760007ffffffffffffffffffffffffffffffffffffffffffffffffffffffffffffffffc3601126101a157602073ffffffffffffffffffffffffffffffffffffffff606b5416604051908152f35b346101a15760207ffffffffffffffffffffffffffffffffffffffffffffffffffffffffffffffffc3601126101a15760043573ffffffffffffffffffffffffffffffffffffffff8082168092036101a1576024602082606a5416604051928380927f521d4de90000000000000000000000000000000000000000000000000000000082523360048301525afa90811561043757600091611499575b501561099b57606b541661097157807fffffffffffffffffffffffff000000000000000000000000000000000000000060695416176069557f1db8d6629941dcb63d5e0c927b89c174c714e139a4b9107a49de839d755f5d74600080a2005b6114b1915060203d8111610430576104228183612782565b8361143a565b346101a15760007ffffffffffffffffffffffffffffffffffffffffffffffffffffffffffffffffc3601126101a157602065ffffffffffff606b5460a01c16604051908152f35b346101a15760007ffffffffffffffffffffffffffffffffffffffffffffffffffffffffffffffffc3601126101a1576020606b5460d01c604051908152f35b346101a15760007ffffffffffffffffffffffffffffffffffffffffffffffffffffffffffffffffc3601126101a15773ffffffffffffffffffffffffffffffffffffffff7f00000000000000000000000000000000000000000000000000000000000000001630036115d35760206040517f360894a13ba1a3210667c828492db98dca3e2076cc3735a920a3ca505d382bbc8152f35b60846040517f08c379a000000000000000000000000000000000000000000000000000000000815260206004820152603860248201527f555550535570677261646561626c653a206d757374206e6f742062652063616c60448201527f6c6564207468726f7567682064656c656761746563616c6c00000000000000006064820152fd5b60407ffffffffffffffffffffffffffffffffffffffffffffffffffffffffffffffffc3601126101a157611689612704565b602490813567ffffffffffffffff81116101a157366023820112156101a1576116bb90369084816004013591016127fd565b73ffffffffffffffffffffffffffffffffffffffff90817f0000000000000000000000000000000000000000000000000000000000000000169161170183301415612865565b6117307f360894a13ba1a3210667c828492db98dca3e2076cc3735a920a3ca505d382bbc9382855416146128f0565b80606a5416858115159182611a4e575b505061099b577f4910fdfa16fed3260ed0e7147f7cc6da11a60208b5b9406d12a635614ffd91435460ff161561177d5750505061096f915061297b565b8391929316604051937f52d1902d0000000000000000000000000000000000000000000000000000000085526020948581600481865afa60009181611a1f575b5061184557608486602e89604051927f08c379a000000000000000000000000000000000000000000000000000000000845260048401528201527f45524331393637557067726164653a206e657720696d706c656d656e7461746960448201527f6f6e206973206e6f7420555550530000000000000000000000000000000000006064820152fd5b95919293950361199c576118588361297b565b604051917fbc7cd75a20ee27fd9adebab32041f755214dbc6bffa90cc0225b39da2e5c2d3b600080a2845115801590611994575b61189257005b823b1561191457505060008381928461096f96519201905af46118b3612a67565b907f416464726573733a206c6f772d6c6576656c2064656c65676174652063616c6c604051936118e285612766565b602785528401527f206661696c6564000000000000000000000000000000000000000000000000006040840152612a97565b906026608492857f08c379a000000000000000000000000000000000000000000000000000000000845260048401528201527f416464726573733a2064656c65676174652063616c6c20746f206e6f6e2d636f60448201527f6e747261637400000000000000000000000000000000000000000000000000006064820152fd5b50600161188c565b836029608492604051927f08c379a000000000000000000000000000000000000000000000000000000000845260048401528201527f45524331393637557067726164653a20756e737570706f727465642070726f7860448201527f6961626c655555494400000000000000000000000000000000000000000000006064820152fd5b9091508681813d8311611a47575b611a378183612782565b810103126101a1575190886117bd565b503d611a2d565b6020919250604051928380927f521d4de90000000000000000000000000000000000000000000000000000000082523360048301525afa90811561043757600091611a9d575b50158587611740565b611ab5915060203d8111610430576104228183612782565b86611a94565b346101a15760007ffffffffffffffffffffffffffffffffffffffffffffffffffffffffffffffffc3601126101a1576020611af4612dca565b604051908152f35b346101a15760207ffffffffffffffffffffffffffffffffffffffffffffffffffffffffffffffffc3601126101a15760043565ffffffffffff8116908181036101a1576024602073ffffffffffffffffffffffffffffffffffffffff606a5416604051928380927f521d4de90000000000000000000000000000000000000000000000000000000082523360048301525afa90811561043757600091611c4c575b501561099b57428211611c22577ffdf22e84af74bd4ab6b9646f6370a02bc886ed6ac25882db14e4ebf4b8e3bc7e9160209179ffffffffffffffffffffffffffffffffffffffffffffffffffff7fffffffffffff0000000000000000000000000000000000000000000000000000606b549260d01b16911617606b55604051908152a1005b60046040517fd2529034000000000000000000000000000000000000000000000000000000008152fd5b611c64915060203d8111610430576104228183612782565b83611b9d565b346101a1576020807ffffffffffffffffffffffffffffffffffffffffffffffffffffffffffffffffc3601126101a157611ca2612704565b73ffffffffffffffffffffffffffffffffffffffff807f000000000000000000000000000000000000000000000000000000000000000016611ce681301415612865565b611d157f360894a13ba1a3210667c828492db98dca3e2076cc3735a920a3ca505d382bbc9183835416146128f0565b81606a541684811515918261201c575b505061099b57604051908482019282841067ffffffffffffffff851117611fed57836040526000835260ff7f4910fdfa16fed3260ed0e7147f7cc6da11a60208b5b9406d12a635614ffd91435416600014611d88575050505061096f915061297b565b8416906040517f52d1902d0000000000000000000000000000000000000000000000000000000081528681600481865afa60009181611fbe575b50611e4b57608487604051907f08c379a00000000000000000000000000000000000000000000000000000000082526004820152602e60248201527f45524331393637557067726164653a206e657720696d706c656d656e7461746960448201527f6f6e206973206e6f7420555550530000000000000000000000000000000000006064820152fd5b03611f3a57611e598461297b565b604051907fbc7cd75a20ee27fd9adebab32041f755214dbc6bffa90cc0225b39da2e5c2d3b600080a2815115801590611f32575b611e9357005b833b15611eb1575061096f9392600092839251915af46118b3612a67565b80857f08c379a000000000000000000000000000000000000000000000000000000000608493526004820152602660248201527f416464726573733a2064656c65676174652063616c6c20746f206e6f6e2d636f60448201527f6e747261637400000000000000000000000000000000000000000000000000006064820152fd5b506000611e8d565b608485604051907f08c379a00000000000000000000000000000000000000000000000000000000082526004820152602960248201527f45524331393637557067726164653a20756e737570706f727465642070726f7860448201527f6961626c655555494400000000000000000000000000000000000000000000006064820152fd5b9091508781813d8311611fe6575b611fd68183612782565b810103126101a157519088611dc2565b503d611fcc565b7f4e487b7100000000000000000000000000000000000000000000000000000000600052604160045260246000fd5b60249250604051928380927f521d4de90000000000000000000000000000000000000000000000000000000082523360048301525afa9081156104375760009161206a575b50158486611d25565b6120819150853d8711610430576104228183612782565b85612061565b346101a15760207ffffffffffffffffffffffffffffffffffffffffffffffffffffffffffffffffc3601126101a15760043567ffffffffffffffff81116101a157366023820112156101a1576120e79036906024816004013591016127fd565b606b546120ff65ffffffffffff8260a01c1642612baf565b9060d01c11156121dd57606954606c546040517f23b872dd0000000000000000000000000000000000000000000000000000000060208201523360248201523060448201526064808201929092529081527f5eca00b8ed745eee61451333090bfa56aa1f2a9e696a2aebe5f1f5b6cef6f2ff926121d89290916121a29173ffffffffffffffffffffffffffffffffffffffff1661219d608483612782565b612c2b565b337fffffffffffffffffffffffff0000000000000000000000000000000000000000606b541617606b5560405191829182612ab3565b0390a1005b60046040517f1a8f0395000000000000000000000000000000000000000000000000000000008152fd5b346101a1576020807ffffffffffffffffffffffffffffffffffffffffffffffffffffffffffffffffc3601126101a15773ffffffffffffffffffffffffffffffffffffffff9081612256612704565b16918133841415918261233a575b826122cb575b50506103615781600052606f815260406000205491826001039160018311610813577f81d714ca01079a19c106993b49b2764df6bb6abe740164ef7b77ee9c100a024a9360409383600052606f8352846000205583519283521590820152a1005b60249250606a5416604051928380927f521d4de90000000000000000000000000000000000000000000000000000000082523360048301525afa9081156104375760009161231d575b5015818461226a565b6123349150823d8411610430576104228183612782565b83612314565b91505033600052606e8252816001604060002054141591612264565b346101a15760407ffffffffffffffffffffffffffffffffffffffffffffffffffffffffffffffffc3601126101a15761238d612704565b612395612727565b9073ffffffffffffffffffffffffffffffffffffffff8091166000526070602052604060002091166000526020526020604060002054604051908152f35b346101a15760207ffffffffffffffffffffffffffffffffffffffffffffffffffffffffffffffffc3601126101a15773ffffffffffffffffffffffffffffffffffffffff61241f612704565b16600052606f6020526020604060002054604051908152f35b346101a15760607ffffffffffffffffffffffffffffffffffffffffffffffffffffffffffffffffc3601126101a15761246f612704565b612477612727565b6044359173ffffffffffffffffffffffffffffffffffffffff906024602083606a5416604051928380927f521d4de90000000000000000000000000000000000000000000000000000000082523360048301525afa9081156104375760009161251f575b501561099b57817ffff3b3844276f57024e0b42afec1a37f75db36511e43819a4f2a63ab7862b648926020921693612514868287612bbc565b6040519586521693a3005b612537915060203d8111610430576104228183612782565b856124db565b346101a15760207ffffffffffffffffffffffffffffffffffffffffffffffffffffffffffffffffc3601126101a15760043573ffffffffffffffffffffffffffffffffffffffff6024602082606a5416604051928380927f521d4de90000000000000000000000000000000000000000000000000000000082523360048301525afa9081156104375760009161260d575b501561099b57606b5416610971576020817f39bb629f3d59f5eddf978050e1f5fabeca2b5d02dfc9c25e84f32e7da1069db492606c55604051908152a1005b612625915060203d8111610430576104228183612782565b836125ce565b346101a15760407ffffffffffffffffffffffffffffffffffffffffffffffffffffffffffffffffc3601126101a157612662612704565b61266a612727565b9073ffffffffffffffffffffffffffffffffffffffff809116600052606d602052604060002091166000526020526040806000205481519079ffffffffffffffffffffffffffffffffffffffffffffffffffff8116825260d01c6020820152f35b346101a15760007ffffffffffffffffffffffffffffffffffffffffffffffffffffffffffffffffc3601126101a157602090606c548152f35b6004359073ffffffffffffffffffffffffffffffffffffffff821682036101a157565b6024359073ffffffffffffffffffffffffffffffffffffffff821682036101a157565b6040810190811067ffffffffffffffff821117611fed57604052565b6060810190811067ffffffffffffffff821117611fed57604052565b90601f7fffffffffffffffffffffffffffffffffffffffffffffffffffffffffffffffe0910116810190811067ffffffffffffffff821117611fed57604052565b67ffffffffffffffff8111611fed57601f017fffffffffffffffffffffffffffffffffffffffffffffffffffffffffffffffe01660200190565b929192612809826127c3565b916128176040519384612782565b8294818452818301116101a1578281602093846000960137010152565b9181601f840112156101a15782359167ffffffffffffffff83116101a1576020808501948460051b0101116101a157565b1561286c57565b60846040517f08c379a000000000000000000000000000000000000000000000000000000000815260206004820152602c60248201527f46756e6374696f6e206d7573742062652063616c6c6564207468726f7567682060448201527f64656c656761746563616c6c00000000000000000000000000000000000000006064820152fd5b156128f757565b60846040517f08c379a000000000000000000000000000000000000000000000000000000000815260206004820152602c60248201527f46756e6374696f6e206d7573742062652063616c6c6564207468726f7567682060448201527f6163746976652070726f787900000000000000000000000000000000000000006064820152fd5b803b156129e35773ffffffffffffffffffffffffffffffffffffffff7f360894a13ba1a3210667c828492db98dca3e2076cc3735a920a3ca505d382bbc91167fffffffffffffffffffffffff0000000000000000000000000000000000000000825416179055565b60846040517f08c379a000000000000000000000000000000000000000000000000000000000815260206004820152602d60248201527f455243313936373a206e657720696d706c656d656e746174696f6e206973206e60448201527f6f74206120636f6e7472616374000000000000000000000000000000000000006064820152fd5b3d15612a92573d90612a78826127c3565b91612a866040519384612782565b82523d6000602084013e565b606090565b909160609115612aa657505090565b612ab1919392612b19565b565b60208082528251818301819052939260005b858110612b05575050507fffffffffffffffffffffffffffffffffffffffffffffffffffffffffffffffe0601f8460006040809697860101520116010190565b818101830151848201604001528201612ac5565b805190925015612b2c5750805190602001fd5b612b62906040519182917f08c379a000000000000000000000000000000000000000000000000000000000835260048301612ab3565b0390fd5b908160209103126101a1575180151581036101a15790565b919081101561128e5760051b0190565b3573ffffffffffffffffffffffffffffffffffffffff811681036101a15790565b9190820391821161081357565b9173ffffffffffffffffffffffffffffffffffffffff604051927fa9059cbb000000000000000000000000000000000000000000000000000000006020850152166024830152604482015260448152608081019181831067ffffffffffffffff841117611fed57612ab1926040525b604051612c969173ffffffffffffffffffffffffffffffffffffffff16612c518261274a565b6000806020958685527f5361666545524332303a206c6f772d6c6576656c2063616c6c206661696c656487860152868151910182855af1612c90612a67565b91612d3f565b80519081612ca357505050565b8280612cb3938301019101612b66565b15612cbb5750565b608490604051907f08c379a00000000000000000000000000000000000000000000000000000000082526004820152602a60248201527f5361666545524332303a204552433230206f7065726174696f6e20646964206e60448201527f6f742073756363656564000000000000000000000000000000000000000000006064820152fd5b919260609115612dbd575050815115612d56575090565b3b15612d5f5790565b60646040517f08c379a000000000000000000000000000000000000000000000000000000000815260206004820152601d60248201527f416464726573733a2063616c6c20746f206e6f6e2d636f6e74726163740000006044820152fd5b909392612ab19250612b19565b606b54612de265ffffffffffff8260a01c1642612baf565b60d09190911c11612df35760655490565b60675490565b7f39f3c4d5c2bbcbf0e3945f22aa618f4e654952eaafcdaa119f0ef12dfce4f2f360408051612e278161274a565b60206067549182815260685491829101527fffffffffffff000000000000ffffffffffffffffffffffffffffffffffffffff606b5416606b55816065558060665582519182526020820152a1565b805182101561128e5760209160051b01019056fea26469706673582212200e803b9c3884fef084519275d21d5160f284d09efa33d8486c1619427c937e2e64736f6c63430008110033",
  "devdoc": {
    "author": "Angle Labs. Inc",
    "kind": "dev",
    "methods": {
      "claim(address[],address[],uint256[],bytes32[][])": {
        "details": "Anyone may call this function for anyone else, funds go to destination regardless, it's just a question of who provides the proof and pays the gas: `msg.sender` is used only for addresses that require a trusted operator",
        "params": {
          "amounts": "Amount of tokens that will be sent to the corresponding users",
          "proofs": "Array of hashes bridging from a leaf `(hash of user | token | amount)` to the Merkle root",
          "tokens": "ERC20 claimed",
          "users": "Recipient of tokens"
        }
      },
      "disputeTree(string)": {
        "details": "Requires a deposit of `disputeToken` that'll be slashed if the dispute is not acceptedIt is only possible to create a dispute for `disputePeriod` after each tree update"
      },
      "proxiableUUID()": {
        "details": "Implementation of the ERC1822 {proxiableUUID} function. This returns the storage slot used by the implementation. It is used to validate the implementation's compatibility when performing an upgrade. IMPORTANT: A proxy pointing at a proxiable contract should not be considered proxiable itself, because this risks bricking a proxy that upgrades to it, by delegating to itself until out of gas. Thus it is critical that this function revert if invoked through a proxy. This is guaranteed by the `notDelegated` modifier."
      },
      "resolveDispute(bool)": {
        "params": {
          "valid": "Whether the dispute was valid"
        }
      },
      "upgradeTo(address)": {
        "details": "Upgrade the implementation of the proxy to `newImplementation`. Calls {_authorizeUpgrade}. Emits an {Upgraded} event."
      },
      "upgradeToAndCall(address,bytes)": {
        "details": "Upgrade the implementation of the proxy to `newImplementation`, and subsequently execute the function call encoded in `data`. Calls {_authorizeUpgrade}. Emits an {Upgraded} event."
      }
    },
    "stateVariables": {
      "disputer": {
        "details": "Used to store if there is an ongoing dispute"
      }
    },
    "title": "Distributor",
    "version": 1
  },
  "userdoc": {
    "kind": "user",
    "methods": {
      "canUpdateMerkleRoot(address)": {
        "notice": "Trusted EOAs to update the Merkle root"
      },
      "claim(address[],address[],uint256[],bytes32[][])": {
        "notice": "Claims rewards for a given set of users"
      },
      "claimed(address,address)": {
        "notice": "Mapping user -> token -> amount to track claimed amounts"
      },
      "core()": {
        "notice": "`Core` contract handling access control"
      },
      "disputeAmount()": {
        "notice": "Amount to deposit to freeze the roots update"
      },
      "disputePeriod()": {
        "notice": "Time before which a change in a tree becomes effective"
      },
      "disputeToken()": {
        "notice": "Token to deposit to freeze the roots update"
      },
      "disputeTree(string)": {
        "notice": "Freezes the Merkle tree update until the dispute is resolved"
      },
      "disputer()": {
        "notice": "Address which created the dispute"
      },
      "getMerkleRoot()": {
        "notice": "Returns the MerkleRoot that is currently live for the contract"
      },
      "lastTree()": {
        "notice": "Tree that was in place in the contract before the last `tree` update"
      },
      "lastTreeUpdate()": {
        "notice": "Last time the `tree` was updated"
      },
      "onlyOperatorCanClaim(address)": {
        "notice": "Whether or not to disable permissionless claiming"
      },
      "operators(address,address)": {
        "notice": "user -> operator -> authorisation to claim"
      },
      "recoverERC20(address,address,uint256)": {
        "notice": "Recovers any ERC20 token"
      },
      "resolveDispute(bool)": {
        "notice": "Resolve the ongoing dispute, if any"
      },
      "revokeTree()": {
        "notice": "Allows the governor or the guardian of this contract to fallback to the last version of the tree immediately"
      },
      "setDisputeAmount(uint256)": {
        "notice": "Sets the amount of `disputeToken` used as a caution during disputes"
      },
      "setDisputePeriod(uint48)": {
        "notice": "Sets the dispute period before which a tree update becomes effective"
      },
      "setDisputeToken(address)": {
        "notice": "Sets the token used as a caution during disputes"
      },
      "toggleOnlyOperatorCanClaim(address)": {
        "notice": "Toggles permissioned claiming for a given user"
      },
      "toggleOperator(address,address)": {
        "notice": "Toggles whitelisting for a given user and a given operator"
      },
      "toggleTrusted(address)": {
        "notice": "Adds or removes EOAs which are trusted to update the Merkle root"
      },
      "tree()": {
        "notice": "Tree of claimable tokens through this contract"
      },
      "updateTree((bytes32,bytes32))": {
        "notice": "Updates Merkle Tree"
      }
    },
    "notice": "Allows LPs on AMMs with concentrated liquidity to claim the rewards that were distributed to them",
    "version": 1
  },
  "storageLayout": {
    "storage": [
      {
        "astId": 395,
        "contract": "contracts/Distributor.sol:Distributor",
        "label": "_initialized",
        "offset": 0,
        "slot": "0",
        "type": "t_uint8"
      },
      {
        "astId": 398,
        "contract": "contracts/Distributor.sol:Distributor",
        "label": "_initializing",
        "offset": 1,
        "slot": "0",
        "type": "t_bool"
      },
      {
        "astId": 377,
        "contract": "contracts/Distributor.sol:Distributor",
        "label": "__gap",
        "offset": 0,
        "slot": "1",
        "type": "t_array(t_uint256)50_storage"
      },
      {
        "astId": 692,
        "contract": "contracts/Distributor.sol:Distributor",
        "label": "__gap",
        "offset": 0,
        "slot": "51",
        "type": "t_array(t_uint256)50_storage"
      },
      {
        "astId": 9120,
        "contract": "contracts/Distributor.sol:Distributor",
        "label": "tree",
        "offset": 0,
        "slot": "101",
        "type": "t_struct(MerkleTree)9104_storage"
      },
      {
        "astId": 9124,
        "contract": "contracts/Distributor.sol:Distributor",
        "label": "lastTree",
        "offset": 0,
        "slot": "103",
        "type": "t_struct(MerkleTree)9104_storage"
      },
      {
        "astId": 9128,
        "contract": "contracts/Distributor.sol:Distributor",
        "label": "disputeToken",
        "offset": 0,
        "slot": "105",
        "type": "t_contract(IERC20)3433"
      },
      {
        "astId": 9132,
        "contract": "contracts/Distributor.sol:Distributor",
        "label": "core",
        "offset": 0,
        "slot": "106",
        "type": "t_contract(ICore)11353"
      },
      {
        "astId": 9135,
        "contract": "contracts/Distributor.sol:Distributor",
        "label": "disputer",
        "offset": 0,
        "slot": "107",
        "type": "t_address"
      },
      {
        "astId": 9138,
        "contract": "contracts/Distributor.sol:Distributor",
        "label": "lastTreeUpdate",
        "offset": 20,
        "slot": "107",
        "type": "t_uint48"
      },
      {
        "astId": 9141,
        "contract": "contracts/Distributor.sol:Distributor",
        "label": "disputePeriod",
        "offset": 26,
        "slot": "107",
        "type": "t_uint48"
      },
      {
        "astId": 9144,
        "contract": "contracts/Distributor.sol:Distributor",
        "label": "disputeAmount",
        "offset": 0,
        "slot": "108",
        "type": "t_uint256"
      },
      {
        "astId": 9152,
        "contract": "contracts/Distributor.sol:Distributor",
        "label": "claimed",
        "offset": 0,
        "slot": "109",
        "type": "t_mapping(t_address,t_mapping(t_address,t_struct(Claim)9109_storage))"
      },
      {
        "astId": 9157,
        "contract": "contracts/Distributor.sol:Distributor",
        "label": "canUpdateMerkleRoot",
        "offset": 0,
        "slot": "110",
        "type": "t_mapping(t_address,t_uint256)"
      },
      {
        "astId": 9162,
        "contract": "contracts/Distributor.sol:Distributor",
        "label": "onlyOperatorCanClaim",
        "offset": 0,
        "slot": "111",
        "type": "t_mapping(t_address,t_uint256)"
      },
      {
        "astId": 9169,
        "contract": "contracts/Distributor.sol:Distributor",
        "label": "operators",
        "offset": 0,
        "slot": "112",
        "type": "t_mapping(t_address,t_mapping(t_address,t_uint256))"
      },
      {
        "astId": 9173,
        "contract": "contracts/Distributor.sol:Distributor",
        "label": "__gap",
        "offset": 0,
        "slot": "113",
        "type": "t_array(t_uint256)38_storage"
      }
    ],
    "types": {
      "t_address": {
        "encoding": "inplace",
        "label": "address",
        "numberOfBytes": "20"
      },
      "t_array(t_uint256)38_storage": {
        "base": "t_uint256",
        "encoding": "inplace",
        "label": "uint256[38]",
        "numberOfBytes": "1216"
      },
      "t_array(t_uint256)50_storage": {
        "base": "t_uint256",
        "encoding": "inplace",
        "label": "uint256[50]",
        "numberOfBytes": "1600"
      },
      "t_bool": {
        "encoding": "inplace",
        "label": "bool",
        "numberOfBytes": "1"
      },
      "t_bytes32": {
        "encoding": "inplace",
        "label": "bytes32",
        "numberOfBytes": "32"
      },
      "t_contract(ICore)11353": {
        "encoding": "inplace",
        "label": "contract ICore",
        "numberOfBytes": "20"
      },
      "t_contract(IERC20)3433": {
        "encoding": "inplace",
        "label": "contract IERC20",
        "numberOfBytes": "20"
      },
      "t_mapping(t_address,t_mapping(t_address,t_struct(Claim)9109_storage))": {
        "encoding": "mapping",
        "key": "t_address",
        "label": "mapping(address => mapping(address => struct Claim))",
        "numberOfBytes": "32",
        "value": "t_mapping(t_address,t_struct(Claim)9109_storage)"
      },
      "t_mapping(t_address,t_mapping(t_address,t_uint256))": {
        "encoding": "mapping",
        "key": "t_address",
        "label": "mapping(address => mapping(address => uint256))",
        "numberOfBytes": "32",
        "value": "t_mapping(t_address,t_uint256)"
      },
      "t_mapping(t_address,t_struct(Claim)9109_storage)": {
        "encoding": "mapping",
        "key": "t_address",
        "label": "mapping(address => struct Claim)",
        "numberOfBytes": "32",
        "value": "t_struct(Claim)9109_storage"
      },
      "t_mapping(t_address,t_uint256)": {
        "encoding": "mapping",
        "key": "t_address",
        "label": "mapping(address => uint256)",
        "numberOfBytes": "32",
        "value": "t_uint256"
      },
      "t_struct(Claim)9109_storage": {
        "encoding": "inplace",
        "label": "struct Claim",
        "members": [
          {
            "astId": 9106,
            "contract": "contracts/Distributor.sol:Distributor",
            "label": "amount",
            "offset": 0,
            "slot": "0",
            "type": "t_uint208"
          },
          {
            "astId": 9108,
            "contract": "contracts/Distributor.sol:Distributor",
            "label": "timestamp",
            "offset": 26,
            "slot": "0",
            "type": "t_uint48"
          }
        ],
        "numberOfBytes": "32"
      },
      "t_struct(MerkleTree)9104_storage": {
        "encoding": "inplace",
        "label": "struct MerkleTree",
        "members": [
          {
            "astId": 9101,
            "contract": "contracts/Distributor.sol:Distributor",
            "label": "merkleRoot",
            "offset": 0,
            "slot": "0",
            "type": "t_bytes32"
          },
          {
            "astId": 9103,
            "contract": "contracts/Distributor.sol:Distributor",
            "label": "ipfsHash",
            "offset": 0,
            "slot": "1",
            "type": "t_bytes32"
          }
        ],
        "numberOfBytes": "64"
      },
      "t_uint208": {
        "encoding": "inplace",
        "label": "uint208",
        "numberOfBytes": "26"
      },
      "t_uint256": {
        "encoding": "inplace",
        "label": "uint256",
        "numberOfBytes": "32"
      },
      "t_uint48": {
        "encoding": "inplace",
        "label": "uint48",
        "numberOfBytes": "6"
      },
      "t_uint8": {
        "encoding": "inplace",
        "label": "uint8",
        "numberOfBytes": "1"
      }
    }
  }
}